{
  "_format": "hh-sol-artifact-1",
  "contractName": "Royalty4All",
  "sourceName": "contracts/Royalty4All.sol",
  "abi": [
    {
      "inputs": [
        {
          "internalType": "contract IERC721OwnsAll",
          "name": "tether",
          "type": "address"
        }
      ],
      "stateMutability": "payable",
      "type": "constructor"
    },
    {
      "inputs": [],
      "name": "InvalidCall",
      "type": "error"
    },
    {
      "anonymous": false,
      "inputs": [
        {
          "indexed": true,
          "internalType": "contract IERC20",
          "name": "token",
          "type": "address"
        },
        {
          "indexed": false,
          "internalType": "address",
          "name": "to",
          "type": "address"
        },
        {
          "indexed": false,
          "internalType": "uint256",
          "name": "amount",
          "type": "uint256"
        }
      ],
      "name": "ERC20PaymentReleased",
      "type": "event"
    },
    {
      "anonymous": false,
      "inputs": [
        {
          "indexed": false,
          "internalType": "address",
          "name": "account",
          "type": "address"
        },
        {
          "indexed": false,
          "internalType": "uint256",
          "name": "shares",
          "type": "uint256"
        }
      ],
      "name": "PayeeAdded",
      "type": "event"
    },
    {
      "anonymous": false,
      "inputs": [
        {
          "indexed": false,
          "internalType": "address",
          "name": "from",
          "type": "address"
        },
        {
          "indexed": false,
          "internalType": "uint256",
          "name": "amount",
          "type": "uint256"
        }
      ],
      "name": "PaymentReceived",
      "type": "event"
    },
    {
      "anonymous": false,
      "inputs": [
        {
          "indexed": false,
          "internalType": "address",
          "name": "to",
          "type": "address"
        },
        {
          "indexed": false,
          "internalType": "uint256",
          "name": "amount",
          "type": "uint256"
        }
      ],
      "name": "PaymentReleased",
      "type": "event"
    },
    {
      "inputs": [],
      "name": "TETHER",
      "outputs": [
        {
          "internalType": "contract IERC721OwnsAll",
          "name": "",
          "type": "address"
        }
      ],
      "stateMutability": "view",
      "type": "function"
    },
    {
      "inputs": [],
      "name": "TOTAL_SHARES",
      "outputs": [
        {
          "internalType": "uint16",
          "name": "",
          "type": "uint16"
        }
      ],
      "stateMutability": "view",
      "type": "function"
    },
    {
      "inputs": [
        {
          "internalType": "uint256",
          "name": "tokenId",
          "type": "uint256"
        }
      ],
      "name": "payee",
      "outputs": [
        {
          "internalType": "address",
          "name": "",
          "type": "address"
        }
      ],
      "stateMutability": "view",
      "type": "function"
    },
    {
      "inputs": [
        {
          "internalType": "contract IERC20",
          "name": "token",
          "type": "address"
        },
        {
          "internalType": "uint256",
          "name": "tokenId",
          "type": "uint256"
        }
      ],
      "name": "release",
      "outputs": [],
      "stateMutability": "nonpayable",
      "type": "function"
    },
    {
      "inputs": [
        {
          "internalType": "uint256",
          "name": "tokenId",
          "type": "uint256"
        }
      ],
      "name": "release",
      "outputs": [],
      "stateMutability": "nonpayable",
      "type": "function"
    },
    {
      "inputs": [
        {
          "internalType": "uint256[]",
          "name": "tokenIds",
          "type": "uint256[]"
        }
      ],
      "name": "releaseBatch",
      "outputs": [],
      "stateMutability": "nonpayable",
      "type": "function"
    },
    {
      "inputs": [
        {
          "internalType": "contract IERC20",
          "name": "token",
          "type": "address"
        },
        {
          "internalType": "uint256[]",
          "name": "tokenIds",
          "type": "uint256[]"
        }
      ],
      "name": "releaseBatch",
      "outputs": [],
      "stateMutability": "nonpayable",
      "type": "function"
    },
    {
      "inputs": [
        {
          "internalType": "uint256",
          "name": "tokenId",
          "type": "uint256"
        }
      ],
      "name": "releaseable",
      "outputs": [
        {
          "internalType": "uint256",
          "name": "",
          "type": "uint256"
        }
      ],
      "stateMutability": "view",
      "type": "function"
    },
    {
      "inputs": [
        {
          "internalType": "contract IERC20",
          "name": "token",
          "type": "address"
        },
        {
          "internalType": "uint256",
          "name": "tokenId",
          "type": "uint256"
        }
      ],
      "name": "releaseable",
      "outputs": [
        {
          "internalType": "uint256",
          "name": "",
          "type": "uint256"
        }
      ],
      "stateMutability": "view",
      "type": "function"
    },
    {
      "inputs": [
        {
          "internalType": "contract IERC20",
          "name": "token",
          "type": "address"
        },
        {
          "internalType": "uint256[]",
          "name": "tokenIds",
          "type": "uint256[]"
        }
      ],
      "name": "releaseableBatch",
      "outputs": [
        {
          "internalType": "uint256",
          "name": "totalReleaseable",
          "type": "uint256"
        }
      ],
      "stateMutability": "view",
      "type": "function"
    },
    {
      "inputs": [
        {
          "internalType": "uint256[]",
          "name": "tokenIds",
          "type": "uint256[]"
        }
      ],
      "name": "releaseableBatch",
      "outputs": [
        {
          "internalType": "uint256",
          "name": "totalReleaseable",
          "type": "uint256"
        }
      ],
      "stateMutability": "view",
      "type": "function"
    },
    {
      "inputs": [
        {
          "internalType": "uint256",
          "name": "tokenId",
          "type": "uint256"
        }
      ],
      "name": "released",
      "outputs": [
        {
          "internalType": "uint256",
          "name": "",
          "type": "uint256"
        }
      ],
      "stateMutability": "view",
      "type": "function"
    },
    {
      "inputs": [
        {
          "internalType": "contract IERC20",
          "name": "token",
          "type": "address"
        },
        {
          "internalType": "uint256",
          "name": "tokenId",
          "type": "uint256"
        }
      ],
      "name": "released",
      "outputs": [
        {
          "internalType": "uint256",
          "name": "",
          "type": "uint256"
        }
      ],
      "stateMutability": "view",
      "type": "function"
    },
    {
      "inputs": [
        {
          "internalType": "address",
          "name": "account",
          "type": "address"
        }
      ],
      "name": "shares",
      "outputs": [
        {
          "internalType": "uint256",
          "name": "",
          "type": "uint256"
        }
      ],
      "stateMutability": "view",
      "type": "function"
    },
    {
      "inputs": [
        {
          "internalType": "contract IERC20",
          "name": "token",
          "type": "address"
        }
      ],
      "name": "totalReleased",
      "outputs": [
        {
          "internalType": "uint256",
          "name": "",
          "type": "uint256"
        }
      ],
      "stateMutability": "view",
      "type": "function"
    },
    {
      "inputs": [],
      "name": "totalReleased",
      "outputs": [
        {
          "internalType": "uint256",
          "name": "",
          "type": "uint256"
        }
      ],
      "stateMutability": "view",
      "type": "function"
    },
    {
      "stateMutability": "payable",
      "type": "receive"
    }
  ],
  "bytecode": "0x60a060405260405161157538038061157583398101604081905261002291610038565b60016000556001600160a01b0316608052610068565b60006020828403121561004a57600080fd5b81516001600160a01b038116811461006157600080fd5b9392505050565b6080516114d661009f6000396000818161024c01528181610585015281816109f301528181610c0c0152610cb001526114d66000f3fe6080604052600436106100f75760003560e01c80637d237eac1161008a578063ce7c2ac211610059578063ce7c2ac21461031c578063cfe830701461033c578063d79779b21461037f578063e33b7de3146103b557600080fd5b80637d237eac1461028657806385e3f997146102a65780638b83209b146102cf578063a94d373b146102ef57600080fd5b80633db9f02a116100c65780633db9f02a146101da5780636582f4fa146101fa5780636e8790e61461021a57806378e7e3d11461023a57600080fd5b80630357371d146101455780631908fc5a146101675780631e1ee1281461019a57806337bdc99b146101ba57600080fd5b36610140577f6ef95f06320e7a25a04a175ca677b7052bdd97131872c2192525a629f51be77033604080516001600160a01b0390921682523460208301520160405180910390a1005b600080fd5b34801561015157600080fd5b50610165610160366004611117565b6103ca565b005b34801561017357600080fd5b506101876101823660046111e9565b61051f565b6040519081526020015b60405180910390f35b3480156101a657600080fd5b506101656101b5366004611239565b610574565b3480156101c657600080fd5b506101656101d536600461126e565b610758565b3480156101e657600080fd5b506101876101f5366004611239565b610874565b34801561020657600080fd5b5061018761021536600461126e565b6108ba565b34801561022657600080fd5b50610187610235366004611117565b6108ec565b34801561024657600080fd5b5061026e7f000000000000000000000000000000000000000000000000000000000000000081565b6040516001600160a01b039091168152602001610191565b34801561029257600080fd5b506101656102a13660046111e9565b6109ba565b3480156102b257600080fd5b506102bc611e6181565b60405161ffff9091168152602001610191565b3480156102db57600080fd5b5061026e6102ea36600461126e565b610bf3565b3480156102fb57600080fd5b5061018761030a36600461126e565b60009081526002602052604090205490565b34801561032857600080fd5b50610187610337366004611287565b610c8e565b34801561034857600080fd5b50610187610357366004611117565b6001600160a01b03919091166000908152600460209081526040808320938352929052205490565b34801561038b57600080fd5b5061018761039a366004611287565b6001600160a01b031660009081526003602052604090205490565b3480156103c157600080fd5b50600154610187565b600260005414156103f65760405162461bcd60e51b81526004016103ed906112a4565b60405180910390fd5b6002600090815561040682610bf3565b90506001600160a01b03811633146104315760405163574b16a760e11b815260040160405180910390fd5b600061043d84846108ec565b90508061045d5760405163574b16a760e11b815260040160405180910390fd5b6001600160a01b0384166000908152600460209081526040808320868452909152812080548392906104909084906112f1565b90915550506001600160a01b038416600090815260036020526040812080548392906104bd9084906112f1565b909155506104ce9050848383610d2c565b604080516001600160a01b038481168252602082018490528616917f3be5b7a71e84ed12875d241991c70855ac5817d847039e17a9d895c1ceb0f18a910160405180910390a2505060016000555050565b6000805b825181101561056d5761054f8484838151811061054257610542611309565b60200260200101516108ec565b61055990836112f1565b9150806105658161131f565b915050610523565b5092915050565b60405163ad94d90160e01b815233907f00000000000000000000000000000000000000000000000000000000000000006001600160a01b03169063ad94d901906105c4908490869060040161133a565b60206040518083038186803b1580156105dc57600080fd5b505afa1580156105f0573d6000803e3d6000fd5b505050506040513d601f19601f820116820180604052508101906106149190611390565b6106315760405163574b16a760e11b815260040160405180910390fd5b60008060005b84518110156106cf5761066285828151811061065557610655611309565b60200260200101516108ba565b92508261066e576106bd565b826002600087848151811061068557610685611309565b6020026020010151815260200190815260200160002060008282546106aa91906112f1565b909155506106ba905083836112f1565b91505b806106c78161131f565b915050610637565b50806106ee5760405163574b16a760e11b815260040160405180910390fd5b806001600082825461070091906112f1565b9091555061071090508382610d83565b604080516001600160a01b0385168152602081018390527fdf20fd1e76bc69d672e4814fafb2c449bba3a5369d8359adf9e05e6fde87b056910160405180910390a150505050565b6002600054141561077b5760405162461bcd60e51b81526004016103ed906112a4565b6002600090815561078b82610bf3565b90506001600160a01b03811633146107b65760405163574b16a760e11b815260040160405180910390fd5b60006107c1836108ba565b9050806107e15760405163574b16a760e11b815260040160405180910390fd5b600083815260026020526040812080548392906107ff9084906112f1565b92505081905550806001600082825461081891906112f1565b9091555061082890508282610d83565b604080516001600160a01b0384168152602081018390527fdf20fd1e76bc69d672e4814fafb2c449bba3a5369d8359adf9e05e6fde87b056910160405180910390a15050600160005550565b6000805b82518110156108b45761089683828151811061065557610655611309565b6108a090836112f1565b9150806108ac8161131f565b915050610878565b50919050565b60006108e66108c860015490565b6108d290476112f1565b600084815260026020526040902054610e9c565b92915050565b6001600160a01b0382166000908152600360205260408120546109b3906040516370a0823160e01b81523060048201526001600160a01b038616906370a082319060240160206040518083038186803b15801561094857600080fd5b505afa15801561095c573d6000803e3d6000fd5b505050506040513d601f19601f8201168201806040525081019061098091906113b2565b61098a91906112f1565b6001600160a01b0385166000908152600460209081526040808320878452909152902054610e9c565b9392505050565b600260005414156109dd5760405162461bcd60e51b81526004016103ed906112a4565b600260005560405163ad94d90160e01b815233907f00000000000000000000000000000000000000000000000000000000000000006001600160a01b03169063ad94d90190610a32908490869060040161133a565b60206040518083038186803b158015610a4a57600080fd5b505afa158015610a5e573d6000803e3d6000fd5b505050506040513d601f19601f82011682018060405250810190610a829190611390565b610a9f5760405163574b16a760e11b815260040160405180910390fd5b60008060005b8451811015610b4957610ac48686838151811061054257610542611309565b925082610ad057610b37565b6001600160a01b03861660009081526004602052604081208651859290889085908110610aff57610aff611309565b602002602001015181526020019081526020016000206000828254610b2491906112f1565b90915550610b34905083836112f1565b91505b80610b418161131f565b915050610aa5565b5080610b685760405163574b16a760e11b815260040160405180910390fd5b6001600160a01b03851660009081526003602052604081208054839290610b909084906112f1565b90915550610ba19050858483610d2c565b604080516001600160a01b038581168252602082018590528716917f3be5b7a71e84ed12875d241991c70855ac5817d847039e17a9d895c1ceb0f18a910160405180910390a250506001600055505050565b6040516331a9108f60e11b8152600481018290526000907f00000000000000000000000000000000000000000000000000000000000000006001600160a01b031690636352211e9060240160206040518083038186803b158015610c5657600080fd5b505afa158015610c6a573d6000803e3d6000fd5b505050506040513d601f19601f820116820180604052508101906108e691906113cb565b6040516370a0823160e01b81526001600160a01b0382811660048301526000917f0000000000000000000000000000000000000000000000000000000000000000909116906370a082319060240160206040518083038186803b158015610cf457600080fd5b505afa158015610d08573d6000803e3d6000fd5b505050506040513d601f19601f820116820180604052508101906108e691906113b2565b604080516001600160a01b038416602482015260448082018490528251808303909101815260649091019091526020810180516001600160e01b031663a9059cbb60e01b179052610d7e908490610eb5565b505050565b80471015610dd35760405162461bcd60e51b815260206004820152601d60248201527f416464726573733a20696e73756666696369656e742062616c616e636500000060448201526064016103ed565b6000826001600160a01b03168260405160006040518083038185875af1925050503d8060008114610e20576040519150601f19603f3d011682016040523d82523d6000602084013e610e25565b606091505b5050905080610d7e5760405162461bcd60e51b815260206004820152603a60248201527f416464726573733a20756e61626c6520746f2073656e642076616c75652c207260448201527f6563697069656e74206d6179206861766520726576657274656400000000000060648201526084016103ed565b600081610eab611e61856113e8565b6109b3919061140a565b6000610f0a826040518060400160405280602081526020017f5361666545524332303a206c6f772d6c6576656c2063616c6c206661696c6564815250856001600160a01b0316610f879092919063ffffffff16565b805190915015610d7e5780806020019051810190610f289190611390565b610d7e5760405162461bcd60e51b815260206004820152602a60248201527f5361666545524332303a204552433230206f7065726174696f6e20646964206e6044820152691bdd081cdd58d8d9595960b21b60648201526084016103ed565b6060610f968484600085610f9e565b949350505050565b606082471015610fff5760405162461bcd60e51b815260206004820152602660248201527f416464726573733a20696e73756666696369656e742062616c616e636520666f6044820152651c8818d85b1b60d21b60648201526084016103ed565b843b61104d5760405162461bcd60e51b815260206004820152601d60248201527f416464726573733a2063616c6c20746f206e6f6e2d636f6e747261637400000060448201526064016103ed565b600080866001600160a01b031685876040516110699190611451565b60006040518083038185875af1925050503d80600081146110a6576040519150601f19603f3d011682016040523d82523d6000602084013e6110ab565b606091505b50915091506110bb8282866110c6565b979650505050505050565b606083156110d55750816109b3565b8251156110e55782518084602001fd5b8160405162461bcd60e51b81526004016103ed919061146d565b6001600160a01b038116811461111457600080fd5b50565b6000806040838503121561112a57600080fd5b8235611135816110ff565b946020939093013593505050565b634e487b7160e01b600052604160045260246000fd5b600082601f83011261116a57600080fd5b8135602067ffffffffffffffff8083111561118757611187611143565b8260051b604051601f19603f830116810181811084821117156111ac576111ac611143565b6040529384528581018301938381019250878511156111ca57600080fd5b83870191505b848210156110bb578135835291830191908301906111d0565b600080604083850312156111fc57600080fd5b8235611207816110ff565b9150602083013567ffffffffffffffff81111561122357600080fd5b61122f85828601611159565b9150509250929050565b60006020828403121561124b57600080fd5b813567ffffffffffffffff81111561126257600080fd5b610f9684828501611159565b60006020828403121561128057600080fd5b5035919050565b60006020828403121561129957600080fd5b81356109b3816110ff565b6020808252601f908201527f5265656e7472616e637947756172643a207265656e7472616e742063616c6c00604082015260600190565b634e487b7160e01b600052601160045260246000fd5b60008219821115611304576113046112db565b500190565b634e487b7160e01b600052603260045260246000fd5b6000600019821415611333576113336112db565b5060010190565b6001600160a01b038316815260406020808301829052835191830182905260009184820191906060850190845b8181101561138357845183529383019391830191600101611367565b5090979650505050505050565b6000602082840312156113a257600080fd5b815180151581146109b357600080fd5b6000602082840312156113c457600080fd5b5051919050565b6000602082840312156113dd57600080fd5b81516109b3816110ff565b60008261140557634e487b7160e01b600052601260045260246000fd5b500490565b60008282101561141c5761141c6112db565b500390565b60005b8381101561143c578181015183820152602001611424565b8381111561144b576000848401525b50505050565b60008251611463818460208701611421565b9190910192915050565b602081526000825180602084015261148c816040850160208701611421565b601f01601f1916919091016040019291505056fea26469706673582212208e390a633ad947e1e07614e537de5ce19d107aec26b17055c33c94fc8956272664736f6c63430008090033",
  "linkReferences": {},
  "deployedLinkReferences": {}
}