{
  "_format": "hh-sol-artifact-1",
  "contractName": "CashCowsCulling",
  "sourceName": "contracts/CashCowsCulling.sol",
  "abi": [
    {
      "inputs": [],
      "name": "InvalidCall",
      "type": "error"
    },
    {
      "anonymous": false,
      "inputs": [
        {
          "indexed": true,
          "internalType": "address",
          "name": "previousOwner",
          "type": "address"
        },
        {
          "indexed": true,
          "internalType": "address",
          "name": "newOwner",
          "type": "address"
        }
      ],
      "name": "OwnershipTransferred",
      "type": "event"
    },
    {
      "inputs": [
        {
          "internalType": "address",
          "name": "owner",
          "type": "address"
        }
      ],
      "name": "balanceOf",
      "outputs": [
        {
          "internalType": "uint256",
          "name": "",
          "type": "uint256"
        }
      ],
      "stateMutability": "view",
      "type": "function"
    },
    {
      "inputs": [
        {
          "internalType": "uint256",
          "name": "tokenId",
          "type": "uint256"
        }
      ],
      "name": "burn",
      "outputs": [],
      "stateMutability": "nonpayable",
      "type": "function"
    },
    {
      "inputs": [],
      "name": "owner",
      "outputs": [
        {
          "internalType": "address",
          "name": "",
          "type": "address"
        }
      ],
      "stateMutability": "view",
      "type": "function"
    },
    {
      "inputs": [],
      "name": "redeem",
      "outputs": [],
      "stateMutability": "nonpayable",
      "type": "function"
    },
    {
      "inputs": [
        {
          "internalType": "address",
          "name": "owner",
          "type": "address"
        }
      ],
      "name": "redeemable",
      "outputs": [
        {
          "internalType": "uint256",
          "name": "",
          "type": "uint256"
        }
      ],
      "stateMutability": "view",
      "type": "function"
    },
    {
      "inputs": [],
      "name": "renounceOwnership",
      "outputs": [],
      "stateMutability": "nonpayable",
      "type": "function"
    },
    {
      "inputs": [
        {
          "internalType": "contract IERC721Burnable",
          "name": "collection",
          "type": "address"
        }
      ],
      "name": "setCollection",
      "outputs": [],
      "stateMutability": "nonpayable",
      "type": "function"
    },
    {
      "inputs": [
        {
          "internalType": "contract IERC20Mintable",
          "name": "token",
          "type": "address"
        }
      ],
      "name": "setToken",
      "outputs": [],
      "stateMutability": "nonpayable",
      "type": "function"
    },
    {
      "inputs": [
        {
          "internalType": "uint256",
          "name": "conversion",
          "type": "uint256"
        }
      ],
      "name": "setTokenConversion",
      "outputs": [],
      "stateMutability": "nonpayable",
      "type": "function"
    },
    {
      "inputs": [
        {
          "internalType": "contract IRoyaltySplitter",
          "name": "treasury",
          "type": "address"
        }
      ],
      "name": "setTreasury",
      "outputs": [],
      "stateMutability": "nonpayable",
      "type": "function"
    },
    {
      "inputs": [
        {
          "internalType": "address",
          "name": "newOwner",
          "type": "address"
        }
      ],
      "name": "transferOwnership",
      "outputs": [],
      "stateMutability": "nonpayable",
      "type": "function"
    }
  ],
  "bytecode": "0x608060405234801561001057600080fd5b5061001a3361001f565b61006f565b600080546001600160a01b038381166001600160a01b0319831681178455604051919092169283917f8be0079c531659141344cd1fd0a4f28419497f9722a3daafe3b4186f6b6457e09190a35050565b6107db8061007e6000396000f3fe608060405234801561001057600080fd5b50600436106100a95760003560e01c8063715018a611610071578063715018a614610138578063768b5fd5146101405780638da5cb5b14610153578063be040fb01461016e578063f0f4426014610176578063f2fde38b1461018957600080fd5b8063144fa6d7146100ae578063156bbc72146100c357806342966c68146100d6578063484267a4146100e957806370a082311461010f575b600080fd5b6100c16100bc366004610695565b61019c565b005b6100c16100d13660046106b9565b6101f1565b6100c16100e43660046106b9565b610220565b6100fc6100f7366004610695565b610405565b6040519081526020015b60405180910390f35b6100fc61011d366004610695565b6001600160a01b031660009081526001602052604090205490565b6100c1610432565b6100c161014e366004610695565b610468565b6000546040516001600160a01b039091168152602001610106565b6100c16104b4565b6100c1610184366004610695565b610549565b6100c1610197366004610695565b610595565b6000546001600160a01b031633146101cf5760405162461bcd60e51b81526004016101c6906106d2565b60405180910390fd5b600480546001600160a01b0319166001600160a01b0392909216919091179055565b6000546001600160a01b0316331461021b5760405162461bcd60e51b81526004016101c6906106d2565b600355565b6000336006546040516331a9108f60e11b8152600481018590529192506001600160a01b031690636352211e9060240160206040518083038186803b15801561026857600080fd5b505afa15801561027c573d6000803e3d6000fd5b505050506040513d601f19601f820116820180604052508101906102a09190610707565b6001600160a01b0316816001600160a01b0316146102d15760405163574b16a760e11b815260040160405180910390fd5b6001600160a01b03811660009081526001602052604081208054916102f58361073a565b90915550506005546040516332c17a7d60e11b8152600481018490526001600160a01b0390911690636582f4fa9060240160206040518083038186803b15801561033e57600080fd5b505afa158015610352573d6000803e3d6000fd5b505050506040513d601f19601f820116820180604052508101906103769190610755565b6001600160a01b0382166000908152600260205260408120805490919061039e90849061076e565b9091555050600654604051630852cd8d60e31b8152600481018490526001600160a01b03909116906342966c6890602401600060405180830381600087803b1580156103e957600080fd5b505af11580156103fd573d6000803e3d6000fd5b505050505050565b6003546001600160a01b038216600090815260026020526040812054909161042c91610786565b92915050565b6000546001600160a01b0316331461045c5760405162461bcd60e51b81526004016101c6906106d2565b6104666000610630565b565b6000546001600160a01b031633146104925760405162461bcd60e51b81526004016101c6906106d2565b600680546001600160a01b0319166001600160a01b0392909216919091179055565b60045433906001600160a01b03166340c10f19826104d181610405565b6040516001600160e01b031960e085901b1681526001600160a01b0390921660048301526024820152604401600060405180830381600087803b15801561051757600080fd5b505af115801561052b573d6000803e3d6000fd5b505050506001600160a01b0316600090815260026020526040812055565b6000546001600160a01b031633146105735760405162461bcd60e51b81526004016101c6906106d2565b600580546001600160a01b0319166001600160a01b0392909216919091179055565b6000546001600160a01b031633146105bf5760405162461bcd60e51b81526004016101c6906106d2565b6001600160a01b0381166106245760405162461bcd60e51b815260206004820152602660248201527f4f776e61626c653a206e6577206f776e657220697320746865207a65726f206160448201526564647265737360d01b60648201526084016101c6565b61062d81610630565b50565b600080546001600160a01b038381166001600160a01b0319831681178455604051919092169283917f8be0079c531659141344cd1fd0a4f28419497f9722a3daafe3b4186f6b6457e09190a35050565b6001600160a01b038116811461062d57600080fd5b6000602082840312156106a757600080fd5b81356106b281610680565b9392505050565b6000602082840312156106cb57600080fd5b5035919050565b6020808252818101527f4f776e61626c653a2063616c6c6572206973206e6f7420746865206f776e6572604082015260600190565b60006020828403121561071957600080fd5b81516106b281610680565b634e487b7160e01b600052601160045260246000fd5b600060001982141561074e5761074e610724565b5060010190565b60006020828403121561076757600080fd5b5051919050565b6000821982111561078157610781610724565b500190565b60008160001904831182151516156107a0576107a0610724565b50029056fea2646970667358221220accf3157a5dd003076a52e9c374df1d56a6dc3bb3814059332ccfdd84adb62a164736f6c63430008090033",
  "linkReferences": {},
  "deployedLinkReferences": {}
}