{
  "_format": "hh-sol-artifact-1",
  "contractName": "CashCowsS2",
  "sourceName": "contracts/phase7/CashCowsS2.sol",
  "abi": [
    {
      "inputs": [
        {
          "internalType": "string",
          "name": "preview",
          "type": "string"
        },
        {
          "internalType": "address",
          "name": "admin",
          "type": "address"
        }
      ],
      "stateMutability": "nonpayable",
      "type": "constructor"
    },
    {
      "inputs": [],
      "name": "ApprovalOwnerIsOperator",
      "type": "error"
    },
    {
      "inputs": [],
      "name": "ApprovalToCurrentOwner",
      "type": "error"
    },
    {
      "inputs": [],
      "name": "BalanceQueryZeroAddress",
      "type": "error"
    },
    {
      "inputs": [],
      "name": "ERC721ReceiverNotReceived",
      "type": "error"
    },
    {
      "inputs": [],
      "name": "InvalidCall",
      "type": "error"
    },
    {
      "inputs": [],
      "name": "NonExistentToken",
      "type": "error"
    },
    {
      "inputs": [],
      "name": "NotERC721Receiver",
      "type": "error"
    },
    {
      "anonymous": false,
      "inputs": [
        {
          "indexed": true,
          "internalType": "address",
          "name": "owner",
          "type": "address"
        },
        {
          "indexed": true,
          "internalType": "address",
          "name": "approved",
          "type": "address"
        },
        {
          "indexed": true,
          "internalType": "uint256",
          "name": "tokenId",
          "type": "uint256"
        }
      ],
      "name": "Approval",
      "type": "event"
    },
    {
      "anonymous": false,
      "inputs": [
        {
          "indexed": true,
          "internalType": "address",
          "name": "owner",
          "type": "address"
        },
        {
          "indexed": true,
          "internalType": "address",
          "name": "operator",
          "type": "address"
        },
        {
          "indexed": false,
          "internalType": "bool",
          "name": "approved",
          "type": "bool"
        }
      ],
      "name": "ApprovalForAll",
      "type": "event"
    },
    {
      "anonymous": false,
      "inputs": [
        {
          "indexed": true,
          "internalType": "address",
          "name": "previousOwner",
          "type": "address"
        },
        {
          "indexed": true,
          "internalType": "address",
          "name": "newOwner",
          "type": "address"
        }
      ],
      "name": "OwnershipTransferred",
      "type": "event"
    },
    {
      "anonymous": false,
      "inputs": [
        {
          "indexed": true,
          "internalType": "bytes32",
          "name": "role",
          "type": "bytes32"
        },
        {
          "indexed": true,
          "internalType": "bytes32",
          "name": "previousAdminRole",
          "type": "bytes32"
        },
        {
          "indexed": true,
          "internalType": "bytes32",
          "name": "newAdminRole",
          "type": "bytes32"
        }
      ],
      "name": "RoleAdminChanged",
      "type": "event"
    },
    {
      "anonymous": false,
      "inputs": [
        {
          "indexed": true,
          "internalType": "bytes32",
          "name": "role",
          "type": "bytes32"
        },
        {
          "indexed": true,
          "internalType": "address",
          "name": "account",
          "type": "address"
        },
        {
          "indexed": true,
          "internalType": "address",
          "name": "sender",
          "type": "address"
        }
      ],
      "name": "RoleGranted",
      "type": "event"
    },
    {
      "anonymous": false,
      "inputs": [
        {
          "indexed": true,
          "internalType": "bytes32",
          "name": "role",
          "type": "bytes32"
        },
        {
          "indexed": true,
          "internalType": "address",
          "name": "account",
          "type": "address"
        },
        {
          "indexed": true,
          "internalType": "address",
          "name": "sender",
          "type": "address"
        }
      ],
      "name": "RoleRevoked",
      "type": "event"
    },
    {
      "anonymous": false,
      "inputs": [
        {
          "indexed": true,
          "internalType": "address",
          "name": "from",
          "type": "address"
        },
        {
          "indexed": true,
          "internalType": "address",
          "name": "to",
          "type": "address"
        },
        {
          "indexed": true,
          "internalType": "uint256",
          "name": "tokenId",
          "type": "uint256"
        }
      ],
      "name": "Transfer",
      "type": "event"
    },
    {
      "inputs": [],
      "name": "DEFAULT_ADMIN_ROLE",
      "outputs": [
        {
          "internalType": "bytes32",
          "name": "",
          "type": "bytes32"
        }
      ],
      "stateMutability": "view",
      "type": "function"
    },
    {
      "inputs": [],
      "name": "MAX_PER_WALLET",
      "outputs": [
        {
          "internalType": "uint256",
          "name": "",
          "type": "uint256"
        }
      ],
      "stateMutability": "view",
      "type": "function"
    },
    {
      "inputs": [],
      "name": "MAX_SUPPLY",
      "outputs": [
        {
          "internalType": "uint16",
          "name": "",
          "type": "uint16"
        }
      ],
      "stateMutability": "view",
      "type": "function"
    },
    {
      "inputs": [],
      "name": "MINT_PRICE",
      "outputs": [
        {
          "internalType": "uint256",
          "name": "",
          "type": "uint256"
        }
      ],
      "stateMutability": "view",
      "type": "function"
    },
    {
      "inputs": [
        {
          "internalType": "uint256",
          "name": "",
          "type": "uint256"
        }
      ],
      "name": "_burned",
      "outputs": [
        {
          "internalType": "address",
          "name": "",
          "type": "address"
        }
      ],
      "stateMutability": "view",
      "type": "function"
    },
    {
      "inputs": [
        {
          "internalType": "address",
          "name": "to",
          "type": "address"
        },
        {
          "internalType": "uint256",
          "name": "tokenId",
          "type": "uint256"
        }
      ],
      "name": "approve",
      "outputs": [],
      "stateMutability": "nonpayable",
      "type": "function"
    },
    {
      "inputs": [
        {
          "internalType": "address",
          "name": "owner",
          "type": "address"
        }
      ],
      "name": "balanceOf",
      "outputs": [
        {
          "internalType": "uint256",
          "name": "",
          "type": "uint256"
        }
      ],
      "stateMutability": "view",
      "type": "function"
    },
    {
      "inputs": [
        {
          "internalType": "uint256",
          "name": "tokenId",
          "type": "uint256"
        }
      ],
      "name": "burn",
      "outputs": [],
      "stateMutability": "nonpayable",
      "type": "function"
    },
    {
      "inputs": [
        {
          "internalType": "uint256",
          "name": "tokenId",
          "type": "uint256"
        }
      ],
      "name": "burnerOf",
      "outputs": [
        {
          "internalType": "address",
          "name": "",
          "type": "address"
        }
      ],
      "stateMutability": "view",
      "type": "function"
    },
    {
      "inputs": [],
      "name": "contractURI",
      "outputs": [
        {
          "internalType": "string",
          "name": "",
          "type": "string"
        }
      ],
      "stateMutability": "view",
      "type": "function"
    },
    {
      "inputs": [
        {
          "internalType": "uint256",
          "name": "tokenId",
          "type": "uint256"
        }
      ],
      "name": "getApproved",
      "outputs": [
        {
          "internalType": "address",
          "name": "",
          "type": "address"
        }
      ],
      "stateMutability": "view",
      "type": "function"
    },
    {
      "inputs": [
        {
          "internalType": "bytes32",
          "name": "role",
          "type": "bytes32"
        }
      ],
      "name": "getRoleAdmin",
      "outputs": [
        {
          "internalType": "bytes32",
          "name": "",
          "type": "bytes32"
        }
      ],
      "stateMutability": "view",
      "type": "function"
    },
    {
      "inputs": [
        {
          "internalType": "bytes32",
          "name": "role",
          "type": "bytes32"
        },
        {
          "internalType": "address",
          "name": "account",
          "type": "address"
        }
      ],
      "name": "grantRole",
      "outputs": [],
      "stateMutability": "nonpayable",
      "type": "function"
    },
    {
      "inputs": [
        {
          "internalType": "bytes32",
          "name": "role",
          "type": "bytes32"
        },
        {
          "internalType": "address",
          "name": "account",
          "type": "address"
        }
      ],
      "name": "hasRole",
      "outputs": [
        {
          "internalType": "bool",
          "name": "",
          "type": "bool"
        }
      ],
      "stateMutability": "view",
      "type": "function"
    },
    {
      "inputs": [
        {
          "internalType": "address",
          "name": "owner",
          "type": "address"
        },
        {
          "internalType": "address",
          "name": "operator",
          "type": "address"
        }
      ],
      "name": "isApprovedForAll",
      "outputs": [
        {
          "internalType": "bool",
          "name": "",
          "type": "bool"
        }
      ],
      "stateMutability": "view",
      "type": "function"
    },
    {
      "inputs": [],
      "name": "lastId",
      "outputs": [
        {
          "internalType": "uint256",
          "name": "",
          "type": "uint256"
        }
      ],
      "stateMutability": "view",
      "type": "function"
    },
    {
      "inputs": [],
      "name": "maxFreePerWallet",
      "outputs": [
        {
          "internalType": "uint256",
          "name": "",
          "type": "uint256"
        }
      ],
      "stateMutability": "view",
      "type": "function"
    },
    {
      "inputs": [
        {
          "internalType": "address",
          "name": "recipient",
          "type": "address"
        },
        {
          "internalType": "uint256",
          "name": "quantity",
          "type": "uint256"
        }
      ],
      "name": "mint",
      "outputs": [],
      "stateMutability": "nonpayable",
      "type": "function"
    },
    {
      "inputs": [
        {
          "internalType": "uint256",
          "name": "quantity",
          "type": "uint256"
        },
        {
          "internalType": "uint256",
          "name": "maxMint",
          "type": "uint256"
        },
        {
          "internalType": "uint256",
          "name": "maxFree",
          "type": "uint256"
        },
        {
          "internalType": "bytes",
          "name": "proof",
          "type": "bytes"
        }
      ],
      "name": "mint",
      "outputs": [],
      "stateMutability": "payable",
      "type": "function"
    },
    {
      "inputs": [
        {
          "internalType": "uint256",
          "name": "quantity",
          "type": "uint256"
        }
      ],
      "name": "mint",
      "outputs": [],
      "stateMutability": "payable",
      "type": "function"
    },
    {
      "inputs": [],
      "name": "mintOpened",
      "outputs": [
        {
          "internalType": "bool",
          "name": "",
          "type": "bool"
        }
      ],
      "stateMutability": "view",
      "type": "function"
    },
    {
      "inputs": [
        {
          "internalType": "address",
          "name": "",
          "type": "address"
        }
      ],
      "name": "minted",
      "outputs": [
        {
          "internalType": "uint256",
          "name": "",
          "type": "uint256"
        }
      ],
      "stateMutability": "view",
      "type": "function"
    },
    {
      "inputs": [],
      "name": "name",
      "outputs": [
        {
          "internalType": "string",
          "name": "",
          "type": "string"
        }
      ],
      "stateMutability": "pure",
      "type": "function"
    },
    {
      "inputs": [
        {
          "internalType": "bool",
          "name": "yes",
          "type": "bool"
        }
      ],
      "name": "openMint",
      "outputs": [],
      "stateMutability": "nonpayable",
      "type": "function"
    },
    {
      "inputs": [],
      "name": "owner",
      "outputs": [
        {
          "internalType": "address",
          "name": "",
          "type": "address"
        }
      ],
      "stateMutability": "view",
      "type": "function"
    },
    {
      "inputs": [
        {
          "internalType": "uint256",
          "name": "tokenId",
          "type": "uint256"
        }
      ],
      "name": "ownerOf",
      "outputs": [
        {
          "internalType": "address",
          "name": "",
          "type": "address"
        }
      ],
      "stateMutability": "view",
      "type": "function"
    },
    {
      "inputs": [
        {
          "internalType": "address",
          "name": "owner",
          "type": "address"
        }
      ],
      "name": "ownerTokens",
      "outputs": [
        {
          "internalType": "uint256[]",
          "name": "",
          "type": "uint256[]"
        }
      ],
      "stateMutability": "view",
      "type": "function"
    },
    {
      "inputs": [
        {
          "internalType": "address",
          "name": "owner",
          "type": "address"
        },
        {
          "internalType": "uint256[]",
          "name": "tokenIds",
          "type": "uint256[]"
        }
      ],
      "name": "ownsAll",
      "outputs": [
        {
          "internalType": "bool",
          "name": "",
          "type": "bool"
        }
      ],
      "stateMutability": "view",
      "type": "function"
    },
    {
      "inputs": [],
      "name": "renounceOwnership",
      "outputs": [],
      "stateMutability": "nonpayable",
      "type": "function"
    },
    {
      "inputs": [
        {
          "internalType": "bytes32",
          "name": "role",
          "type": "bytes32"
        },
        {
          "internalType": "address",
          "name": "account",
          "type": "address"
        }
      ],
      "name": "renounceRole",
      "outputs": [],
      "stateMutability": "nonpayable",
      "type": "function"
    },
    {
      "inputs": [
        {
          "internalType": "bytes32",
          "name": "role",
          "type": "bytes32"
        },
        {
          "internalType": "address",
          "name": "account",
          "type": "address"
        }
      ],
      "name": "revokeRole",
      "outputs": [],
      "stateMutability": "nonpayable",
      "type": "function"
    },
    {
      "inputs": [
        {
          "internalType": "uint256",
          "name": "_tokenId",
          "type": "uint256"
        },
        {
          "internalType": "uint256",
          "name": "_salePrice",
          "type": "uint256"
        }
      ],
      "name": "royaltyInfo",
      "outputs": [
        {
          "internalType": "address",
          "name": "receiver",
          "type": "address"
        },
        {
          "internalType": "uint256",
          "name": "royaltyAmount",
          "type": "uint256"
        }
      ],
      "stateMutability": "view",
      "type": "function"
    },
    {
      "inputs": [],
      "name": "royaltyPercent",
      "outputs": [
        {
          "internalType": "uint256",
          "name": "",
          "type": "uint256"
        }
      ],
      "stateMutability": "view",
      "type": "function"
    },
    {
      "inputs": [
        {
          "internalType": "address",
          "name": "from",
          "type": "address"
        },
        {
          "internalType": "address",
          "name": "to",
          "type": "address"
        },
        {
          "internalType": "uint256",
          "name": "tokenId",
          "type": "uint256"
        }
      ],
      "name": "safeTransferFrom",
      "outputs": [],
      "stateMutability": "nonpayable",
      "type": "function"
    },
    {
      "inputs": [
        {
          "internalType": "address",
          "name": "from",
          "type": "address"
        },
        {
          "internalType": "address",
          "name": "to",
          "type": "address"
        },
        {
          "internalType": "uint256",
          "name": "tokenId",
          "type": "uint256"
        },
        {
          "internalType": "bytes",
          "name": "_data",
          "type": "bytes"
        }
      ],
      "name": "safeTransferFrom",
      "outputs": [],
      "stateMutability": "nonpayable",
      "type": "function"
    },
    {
      "inputs": [
        {
          "internalType": "address",
          "name": "operator",
          "type": "address"
        },
        {
          "internalType": "bool",
          "name": "approved",
          "type": "bool"
        }
      ],
      "name": "setApprovalForAll",
      "outputs": [],
      "stateMutability": "nonpayable",
      "type": "function"
    },
    {
      "inputs": [
        {
          "internalType": "uint256",
          "name": "max",
          "type": "uint256"
        }
      ],
      "name": "setMaxFree",
      "outputs": [],
      "stateMutability": "nonpayable",
      "type": "function"
    },
    {
      "inputs": [
        {
          "internalType": "string",
          "name": "uri",
          "type": "string"
        }
      ],
      "name": "setURI",
      "outputs": [],
      "stateMutability": "nonpayable",
      "type": "function"
    },
    {
      "inputs": [
        {
          "internalType": "bytes4",
          "name": "interfaceId",
          "type": "bytes4"
        }
      ],
      "name": "supportsInterface",
      "outputs": [
        {
          "internalType": "bool",
          "name": "",
          "type": "bool"
        }
      ],
      "stateMutability": "view",
      "type": "function"
    },
    {
      "inputs": [],
      "name": "symbol",
      "outputs": [
        {
          "internalType": "string",
          "name": "",
          "type": "string"
        }
      ],
      "stateMutability": "pure",
      "type": "function"
    },
    {
      "inputs": [
        {
          "internalType": "uint256",
          "name": "tokenId",
          "type": "uint256"
        }
      ],
      "name": "tokenURI",
      "outputs": [
        {
          "internalType": "string",
          "name": "",
          "type": "string"
        }
      ],
      "stateMutability": "view",
      "type": "function"
    },
    {
      "inputs": [],
      "name": "totalBurned",
      "outputs": [
        {
          "internalType": "uint256",
          "name": "",
          "type": "uint256"
        }
      ],
      "stateMutability": "view",
      "type": "function"
    },
    {
      "inputs": [],
      "name": "totalSupply",
      "outputs": [
        {
          "internalType": "uint256",
          "name": "",
          "type": "uint256"
        }
      ],
      "stateMutability": "view",
      "type": "function"
    },
    {
      "inputs": [
        {
          "internalType": "address",
          "name": "from",
          "type": "address"
        },
        {
          "internalType": "address",
          "name": "to",
          "type": "address"
        },
        {
          "internalType": "uint256",
          "name": "tokenId",
          "type": "uint256"
        }
      ],
      "name": "transferFrom",
      "outputs": [],
      "stateMutability": "nonpayable",
      "type": "function"
    },
    {
      "inputs": [
        {
          "internalType": "address",
          "name": "newOwner",
          "type": "address"
        }
      ],
      "name": "transferOwnership",
      "outputs": [],
      "stateMutability": "nonpayable",
      "type": "function"
    },
    {
      "inputs": [],
      "name": "treasury",
      "outputs": [
        {
          "internalType": "contract IRoyaltySplitter",
          "name": "",
          "type": "address"
        }
      ],
      "stateMutability": "view",
      "type": "function"
    },
    {
      "inputs": [
        {
          "internalType": "contract IMetadata",
          "name": "metadata",
          "type": "address"
        }
      ],
      "name": "updateMetadata",
      "outputs": [],
      "stateMutability": "nonpayable",
      "type": "function"
    },
    {
      "inputs": [
        {
          "internalType": "uint256",
          "name": "percent",
          "type": "uint256"
        }
      ],
      "name": "updateRoyalty",
      "outputs": [],
      "stateMutability": "nonpayable",
      "type": "function"
    },
    {
      "inputs": [
        {
          "internalType": "contract IRoyaltySplitter",
          "name": "splitter",
          "type": "address"
        }
      ],
      "name": "updateTreasury",
      "outputs": [],
      "stateMutability": "nonpayable",
      "type": "function"
    },
    {
      "inputs": [
        {
          "internalType": "address",
          "name": "recipient",
          "type": "address"
        }
      ],
      "name": "withdraw",
      "outputs": [],
      "stateMutability": "nonpayable",
      "type": "function"
    }
  ],
  "bytecode": "0x60806040526103e8600d5560016011553480156200001c57600080fd5b506040516200334d3803806200334d8339810160408190526200003f916200025d565b6001600055818162000051336200007e565b6200005e600082620000d0565b81516200007390600b90602085019062000184565b50505050506200038b565b600180546001600160a01b038381166001600160a01b0319831681179093556040519116919082907f8be0079c531659141344cd1fd0a4f28419497f9722a3daafe3b4186f6b6457e090600090a35050565b620000dc8282620000e0565b5050565b60008281526002602090815260408083206001600160a01b038516845290915290205460ff16620000dc5760008281526002602090815260408083206001600160a01b03851684529091529020805460ff19166001179055620001403390565b6001600160a01b0316816001600160a01b0316837f2f8788117e7eff1d82e926ec794901d17c78024a50270940304540a733656f0d60405160405180910390a45050565b82805462000192906200034e565b90600052602060002090601f016020900481019282620001b6576000855562000201565b82601f10620001d157805160ff191683800117855562000201565b8280016001018555821562000201579182015b8281111562000201578251825591602001919060010190620001e4565b506200020f92915062000213565b5090565b5b808211156200020f576000815560010162000214565b634e487b7160e01b600052604160045260246000fd5b80516001600160a01b03811681146200025857600080fd5b919050565b600080604083850312156200027157600080fd5b82516001600160401b03808211156200028957600080fd5b818501915085601f8301126200029e57600080fd5b815181811115620002b357620002b36200022a565b604051601f8201601f19908116603f01168101908382118183101715620002de57620002de6200022a565b81604052828152602093508884848701011115620002fb57600080fd5b600091505b828210156200031f578482018401518183018501529083019062000300565b82821115620003315760008484830101525b95506200034391505085820162000240565b925050509250929050565b600181811c908216806200036357607f821691505b602082108114156200038557634e487b7160e01b600052602260045260246000fd5b50919050565b612fb2806200039b6000396000f3fe6080604052600436106102c95760003560e01c8063804d5efd11610175578063b88d4fde116100dc578063ca0df4a111610095578063d89135cd1161006f578063d89135cd14610909578063e8a3d4851461091e578063e985e9c514610933578063f2fde38b1461095357600080fd5b8063ca0df4a114610893578063d547741f146108c9578063d755bf99146108e957600080fd5b8063b88d4fde146107d6578063bba7723e146107f6578063c002d23d14610823578063c1292cc31461083e578063c5e2a7db14610853578063c87b56dd1461087357600080fd5b80639f67756d1161012e5780639f67756d14610742578063a0712d6814610758578063a217fddf1461076b578063a22cb46514610780578063a7027357146107a0578063ad94d901146107b657600080fd5b8063804d5efd146106675780638da5cb5b1461069d5780638fffd8b5146106bb57806391d14854146106db57806395d89b41146106fb5780639b70a3401461072857600080fd5b806332cb6b0c1161023457806351cff8d9116101ed5780636352211e116101c75780636352211e146105f257806370a0823114610612578063715018a6146106325780637f51bb1f1461064757600080fd5b806351cff8d91461059257806358a85bca146105b257806361d027b3146105d257600080fd5b806332cb6b0c146104d657806336568abe146104ff57806340c10f191461051f57806342842e0e1461053f57806342966c681461055f5780634a9eee691461057f57600080fd5b806318160ddd1161028657806318160ddd146103e55780631e7269c5146103fa57806323b872dd14610427578063248a9ca3146104475780632a55205a146104775780632f2ff15d146104b657600080fd5b806301ffc9a7146102ce57806302fe53051461030357806306fdde0314610325578063081812fc1461036a578063095ea7b3146103a25780630f2cdd6c146103c2575b600080fd5b3480156102da57600080fd5b506102ee6102e9366004612783565b610973565b60405190151581526020015b60405180910390f35b34801561030f57600080fd5b5061032361031e36600461284d565b6109b9565b005b34801561033157600080fd5b5060408051808201909152601381527221b0b9b41021b7bbb99d1029b2b0b9b7b7101960691b60208201525b6040516102fa91906128ee565b34801561037657600080fd5b5061038a610385366004612901565b6109df565b6040516001600160a01b0390911681526020016102fa565b3480156103ae57600080fd5b506103236103bd36600461292f565b610a23565b3480156103ce57600080fd5b506103d7600981565b6040519081526020016102fa565b3480156103f157600080fd5b506103d7610ab3565b34801561040657600080fd5b506103d761041536600461295b565b600f6020526000908152604090205481565b34801561043357600080fd5b50610323610442366004612978565b610ad0565b34801561045357600080fd5b506103d7610462366004612901565b60009081526002602052604090206001015490565b34801561048357600080fd5b506104976104923660046129b9565b610ae1565b604080516001600160a01b0390931683526020830191909152016102fa565b3480156104c257600080fd5b506103236104d13660046129db565b610b58565b3480156104e257600080fd5b506104ec611e6181565b60405161ffff90911681526020016102fa565b34801561050b57600080fd5b5061032361051a3660046129db565b610b7e565b34801561052b57600080fd5b5061032361053a36600461292f565b610bfd565b34801561054b57600080fd5b5061032361055a366004612978565b610c99565b34801561056b57600080fd5b5061032361057a366004612901565b610cb4565b61032361058d366004612a2b565b610cf3565b34801561059e57600080fd5b506103236105ad36600461295b565b610f6e565b3480156105be57600080fd5b506103236105cd366004612a9a565b611027565b3480156105de57600080fd5b50600c5461038a906001600160a01b031681565b3480156105fe57600080fd5b5061038a61060d366004612901565b611054565b34801561061e57600080fd5b506103d761062d36600461295b565b611093565b34801561063e57600080fd5b506103236110d8565b34801561065357600080fd5b5061032361066236600461295b565b61110e565b34801561067357600080fd5b5061038a610682366004612901565b6009602052600090815260409020546001600160a01b031681565b3480156106a957600080fd5b506001546001600160a01b031661038a565b3480156106c757600080fd5b506103236106d6366004612901565b61114a565b3480156106e757600080fd5b506102ee6106f63660046129db565b61119e565b34801561070757600080fd5b5060408051808201909152600481526326a7a79960e11b602082015261035d565b34801561073457600080fd5b506010546102ee9060ff1681565b34801561074e57600080fd5b506103d7600d5481565b610323610766366004612901565b6111c9565b34801561077757600080fd5b506103d7600081565b34801561078c57600080fd5b5061032361079b366004612ab5565b61136e565b3480156107ac57600080fd5b506103d760115481565b3480156107c257600080fd5b506102ee6107d1366004612aea565b611379565b3480156107e257600080fd5b506103236107f1366004612ba5565b6113e6565b34801561080257600080fd5b5061081661081136600461295b565b6113f2565b6040516102fa9190612bf9565b34801561082f57600080fd5b506103d76611c37937e0800081565b34801561084a57600080fd5b506103d7611516565b34801561085f57600080fd5b5061032361086e36600461295b565b611521565b34801561087f57600080fd5b5061035d61088e366004612901565b61155d565b34801561089f57600080fd5b5061038a6108ae366004612901565b6000908152600960205260409020546001600160a01b031690565b3480156108d557600080fd5b506103236108e43660046129db565b6116a7565b3480156108f557600080fd5b50610323610904366004612901565b6116cd565b34801561091557600080fd5b50600a546103d7565b34801561092a57600080fd5b5061035d6116ec565b34801561093f57600080fd5b506102ee61094e366004612c3d565b61177e565b34801561095f57600080fd5b5061032361096e36600461295b565b6117e1565b60006001600160e01b03198216635b5e139f60e01b14806109a457506001600160e01b0319821663152a902d60e11b145b806109b357506109b38261187c565b92915050565b600080516020612f3d8339815191526109d281336118a1565b6109db82611905565b5050565b60006109ea82611918565b610a0757604051634a1850bf60e11b815260040160405180910390fd5b506000908152600660205260409020546001600160a01b031690565b6000610a2e82611941565b9050806001600160a01b0316836001600160a01b03161415610a635760405163250fdee360e21b815260040160405180910390fd5b336001600160a01b0382168114801590610a845750610a82828261177e565b155b15610aa25760405163250fdee360e21b815260040160405180910390fd5b610aad8484846119fe565b50505050565b6000600a54610ac160035490565b610acb9190612c81565b905090565b610adc33848484611a5a565b505050565b600c5460009081906001600160a01b03161580610b045750610b0284611918565b155b15610b225760405163574b16a760e11b815260040160405180910390fd5b600c54600d546001600160a01b039091169061271090610b429086612c98565b610b4c9190612cb7565b915091505b9250929050565b600082815260026020526040902060010154610b7481336118a1565b610adc8383611a8d565b6001600160a01b0381163314610bf35760405162461bcd60e51b815260206004820152602f60248201527f416363657373436f6e74726f6c3a2063616e206f6e6c792072656e6f756e636560448201526e103937b632b9903337b91039b2b63360891b60648201526084015b60405180910390fd5b6109db8282611b13565b7f9f2df0fed2c77648de5860a4cc508cd0818c85b8b8a1ab4ceeef8d981c8956a6610c2881336118a1565b60026000541415610c4b5760405162461bcd60e51b8152600401610bea90612cd9565b6002600055611e6182610c5c610ab3565b610c669190612d10565b1115610c855760405163574b16a760e11b815260040160405180910390fd5b610c8f8383611b7a565b5050600160005550565b610adc838383604051806020016040528060008152506113e6565b6000610cbf82611941565b9050610ccc338383611b94565b610ce95760405163574b16a760e11b815260040160405180910390fd5b6109db8282611be7565b60026000541415610d165760405162461bcd60e51b8152600401610bea90612cd9565b60026000553382841080610d4c57506001600160a01b0381166000908152600f60205260409020548490610d4a9087612d10565b115b80610d6a5750611e6185610d5e610ab3565b610d689190612d10565b115b80610e495750604051631b5a5b9d60e21b60208201526bffffffffffffffffffffffff19606083901b1660248201526038810185905260588101849052610e47907f9f2df0fed2c77648de5860a4cc508cd0818c85b8b8a1ab4ceeef8d981c8956a6906106f690610e4190607801604051602081830303815290604052805190602001206040517f19457468657265756d205369676e6564204d6573736167653a0a3332000000006020820152603c8101829052600090605c01604051602081830303815290604052805190602001209050919050565b85611cc7565b155b15610e675760405163574b16a760e11b815260040160405180910390fd5b6001600160a01b0381166000908152600f6020526040902054831115610ef9576001600160a01b0381166000908152600f6020526040812054610eaa9085612c81565b90508581108015610ed55750346611c37937e08000610ec98389612c81565b610ed39190612c98565b115b15610ef35760405163574b16a760e11b815260040160405180910390fd5b50610f2a565b34610f0b6611c37937e0800087612c98565b1115610f2a5760405163574b16a760e11b815260040160405180910390fd5b6001600160a01b0381166000908152600f602052604081208054879290610f52908490612d10565b90915550610f6290508186611b7a565b50506001600055505050565b6001546001600160a01b03163314610f985760405162461bcd60e51b8152600401610bea90612d28565b60026000541415610fbb5760405162461bcd60e51b8152600401610bea90612cd9565b6002600055600e546001600160a01b0316610fe95760405163574b16a760e11b815260040160405180910390fd5b6040516001600160a01b038216904780156108fc02916000818181858888f1935050505015801561101e573d6000803e3d6000fd5b50506001600055565b600080516020612f3d83398151915261104081336118a1565b506010805460ff1916911515919091179055565b6000818152600960205260408120546001600160a01b03161561108a57604051634a1850bf60e11b815260040160405180910390fd5b6109b382611941565b60006001600160a01b0382166110bc576040516316285dcb60e11b815260040160405180910390fd5b506001600160a01b031660009081526005602052604090205490565b6001546001600160a01b031633146111025760405162461bcd60e51b8152600401610bea90612d28565b61110c6000611ce3565b565b600080516020612f3d83398151915261112781336118a1565b50600c80546001600160a01b0319166001600160a01b0392909216919091179055565b7f3b5d4cc60d3ec3516ee8ae083bd60934f6eb2a6c54b1229985c41bfb092b260361117581336118a1565b6103e88211156111985760405163574b16a760e11b815260040160405180910390fd5b50600d55565b60009182526002602090815260408084206001600160a01b0393909316845291905290205460ff1690565b600260005414156111ec5760405162461bcd60e51b8152600401610bea90612cd9565b600260005533803b151580611204575060105460ff16155b8061123257506001600160a01b0381166000908152600f60205260409020546009906112309084612d10565b115b806112505750611e6182611244610ab3565b61124e9190612d10565b115b1561126e5760405163574b16a760e11b815260040160405180910390fd5b6011546001600160a01b0382166000908152600f60205260409020541015611305576001600160a01b0381166000908152600f60205260408120546011546112b69190612c81565b905082811080156112e15750346611c37937e080006112d58386612c81565b6112df9190612c98565b115b156112ff5760405163574b16a760e11b815260040160405180910390fd5b50611336565b346113176611c37937e0800084612c98565b11156113365760405163574b16a760e11b815260040160405180910390fd5b6001600160a01b0381166000908152600f60205260408120805484929061135e908490612d10565b9091555061101e90508183611b7a565b6109db338383611d35565b6000805b82518110156113dc576113a883828151811061139b5761139b612d5d565b6020026020010151611054565b6001600160a01b0316846001600160a01b0316146113ca5760009150506109b3565b806113d481612d73565b91505061137d565b5060019392505050565b610aad84848484611dd5565b606060006113ff83611093565b9050806114205760408051600080825260208201909252905b509392505050565b60008167ffffffffffffffff81111561143b5761143b6127a0565b604051908082528060200260200182016040528015611464578160200160208202803683370190505b5090506000611471611516565b9050600060015b82811161150b576000818152600960205260409020546001600160a01b03161580156114bd57506114a881611054565b6001600160a01b0316876001600160a01b0316145b156114f9578084836114ce81612d73565b9450815181106114e0576114e0612d5d565b602002602001018181525050848214156114f95761150b565b8061150381612d73565b915050611478565b509195945050505050565b6000610acb60035490565b600080516020612f3d83398151915261153a81336118a1565b50600e80546001600160a01b0319166001600160a01b0392909216919091179055565b606061156882611918565b6115855760405163574b16a760e11b815260040160405180910390fd5b600e546001600160a01b031661162757600b80546115a290612d8e565b80601f01602080910402602001604051908101604052809291908181526020018280546115ce90612d8e565b801561161b5780601f106115f05761010080835404028352916020019161161b565b820191906000526020600020905b8154815290600101906020018083116115fe57829003601f168201915b50505050509050919050565b600e5460405163c87b56dd60e01b8152600481018490526001600160a01b039091169063c87b56dd9060240160006040518083038186803b15801561166b57600080fd5b505afa15801561167f573d6000803e3d6000fd5b505050506040513d6000823e601f3d908101601f191682016040526109b39190810190612dc9565b6000828152600260205260409020600101546116c381336118a1565b610adc8383611b13565b600080516020612f3d8339815191526116e681336118a1565b50601155565b6060600880546116fb90612d8e565b80601f016020809104026020016040519081016040528092919081815260200182805461172790612d8e565b80156117745780601f1061174957610100808354040283529160200191611774565b820191906000526020600020905b81548152906001019060200180831161175757829003601f168201915b5050505050905090565b60006117aa7f4a0c3698e72495f6d49f6ef074f2b34cac5b153c817a7cc37789cccbb873cf5d8361119e565b806117da57506001600160a01b0380841660009081526007602090815260408083209386168352929052205460ff165b9392505050565b6001546001600160a01b0316331461180b5760405162461bcd60e51b8152600401610bea90612d28565b6001600160a01b0381166118705760405162461bcd60e51b815260206004820152602660248201527f4f776e61626c653a206e6577206f776e657220697320746865207a65726f206160448201526564647265737360d01b6064820152608401610bea565b61187981611ce3565b50565b60006001600160e01b031982166380ac58cd60e01b14806109b357506109b382611e22565b6118ab828261119e565b6109db576118c3816001600160a01b03166014611e57565b6118ce836020611e57565b6040516020016118df929190612e40565b60408051601f198184030181529082905262461bcd60e51b8252610bea916004016128ee565b80516109db9060089060208401906126d4565b6000818152600960205260408120546001600160a01b03161580156109b357506109b382611ff3565b60008181526004602052604081205482906001600160a01b03161561197e576000908152600460205260409020546001600160a01b031692915050565b60008111801561199057506003548111155b156119e4575b60001901806119a4576119e4565b6000818152600460205260409020546001600160a01b0316156119df576000908152600460205260409020546001600160a01b031692915050565b611996565b50604051634a1850bf60e11b815260040160405180910390fd5b60008281526006602052604080822080546001600160a01b0319166001600160a01b0387811691821790925591518593918516917f8c5be1e5ebec7d5bd14f71427d1e84f3dd0314c0f7b2291e5b200ac8c7c3b92591a4505050565b611a65848285611b94565b611a825760405163574b16a760e11b815260040160405180910390fd5b610aad838383612008565b611a97828261119e565b6109db5760008281526002602090815260408083206001600160a01b03851684529091529020805460ff19166001179055611acf3390565b6001600160a01b0316816001600160a01b0316837f2f8788117e7eff1d82e926ec794901d17c78024a50270940304540a733656f0d60405160405180910390a45050565b611b1d828261119e565b156109db5760008281526002602090815260408083206001600160a01b0385168085529252808320805460ff1916905551339285917ff6391f5c32d9c69d2a47ea670b442974b53935d1edc7fd64eb21e047a839171b9190a45050565b6109db828260405180602001604052806000815250612140565b6000816001600160a01b0316846001600160a01b03161480611bcf5750836001600160a01b0316611bc4846109df565b6001600160a01b0316145b80611bdf5750611bdf828561177e565b949350505050565b611bf3600083836119fe565b60018201611c0081611918565b8015611c2157506000818152600460205260409020546001600160a01b0316155b15611c4e57600081815260046020526040902080546001600160a01b0319166001600160a01b0384161790555b50600082815260096020908152604080832080546001600160a01b0386166001600160a01b0319918216811790925581855260058452828520805460001901905586855260049093528184208054909316909255600a805460010190555184929190600080516020612f5d833981519152908390a45050565b6000806000611cd6858561214d565b91509150611418816121ba565b600180546001600160a01b038381166001600160a01b0319831681179093556040519116919082907f8be0079c531659141344cd1fd0a4f28419497f9722a3daafe3b4186f6b6457e090600090a35050565b816001600160a01b0316836001600160a01b03161415611d685760405163079f14e360e51b815260040160405180910390fd5b6001600160a01b03838116600081815260076020908152604080832094871680845294825291829020805460ff191686151590811790915591519182527f17307eab39ab6107e8899845ad3d59bd9653f200f220920489ca2b5937696c31910160405180910390a3505050565b611de133858585611a5a565b6000836001600160a01b03163b118015611e045750611e0284848484612375565b155b15610aad57604051631f11849560e21b815260040160405180910390fd5b60006001600160e01b03198216637965db0b60e01b14806109b357506301ffc9a760e01b6001600160e01b03198316146109b3565b60606000611e66836002612c98565b611e71906002612d10565b67ffffffffffffffff811115611e8957611e896127a0565b6040519080825280601f01601f191660200182016040528015611eb3576020820181803683370190505b509050600360fc1b81600081518110611ece57611ece612d5d565b60200101906001600160f81b031916908160001a905350600f60fb1b81600181518110611efd57611efd612d5d565b60200101906001600160f81b031916908160001a9053506000611f21846002612c98565b611f2c906001612d10565b90505b6001811115611fa4576f181899199a1a9b1b9c1cb0b131b232b360811b85600f1660108110611f6057611f60612d5d565b1a60f81b828281518110611f7657611f76612d5d565b60200101906001600160f81b031916908160001a90535060049490941c93611f9d81612eb5565b9050611f2f565b5083156117da5760405162461bcd60e51b815260206004820181905260248201527f537472696e67733a20686578206c656e67746820696e73756666696369656e746044820152606401610bea565b600080821180156109b3575050600354101590565b6001600160a01b0382161580612038575061202281611941565b6001600160a01b0316836001600160a01b031614155b156120565760405163574b16a760e11b815260040160405180910390fd5b612062600082856119fe565b6001600160a01b03808316600081815260056020908152604080832080546001908101909155948816835280832080546000190190558583526004909152902080546001600160a01b03191690911790556003549082019081118015906120de57506000818152600460205260409020546001600160a01b0316155b1561210b57600081815260046020526040902080546001600160a01b0319166001600160a01b0386161790555b5080826001600160a01b0316846001600160a01b0316600080516020612f5d83398151915260405160405180910390a4505050565b610adc838383600161246c565b6000808251604114156121845760208301516040840151606085015160001a612178878285856125b8565b94509450505050610b51565b8251604014156121ae57602083015160408401516121a38683836126a5565b935093505050610b51565b50600090506002610b51565b60008160048111156121ce576121ce612ecc565b14156121d75750565b60018160048111156121eb576121eb612ecc565b14156122395760405162461bcd60e51b815260206004820152601860248201527f45434453413a20696e76616c6964207369676e617475726500000000000000006044820152606401610bea565b600281600481111561224d5761224d612ecc565b141561229b5760405162461bcd60e51b815260206004820152601f60248201527f45434453413a20696e76616c6964207369676e6174757265206c656e677468006044820152606401610bea565b60038160048111156122af576122af612ecc565b14156123085760405162461bcd60e51b815260206004820152602260248201527f45434453413a20696e76616c6964207369676e6174757265202773272076616c604482015261756560f01b6064820152608401610bea565b600481600481111561231c5761231c612ecc565b14156118795760405162461bcd60e51b815260206004820152602260248201527f45434453413a20696e76616c6964207369676e6174757265202776272076616c604482015261756560f01b6064820152608401610bea565b604051630a85bd0160e11b81526000906001600160a01b0385169063150b7a02906123aa903390899088908890600401612ee2565b602060405180830381600087803b1580156123c457600080fd5b505af19250505080156123f4575060408051601f3d908101601f191682019092526123f191810190612f1f565b60015b61244f573d808015612422576040519150601f19603f3d011682016040523d82523d6000602084013e612427565b606091505b50805161244757604051630568cbab60e01b815260040160405180910390fd5b805181602001fd5b6001600160e01b031916630a85bd0160e11b149050949350505050565b82158061248057506001600160a01b038416155b1561249e5760405163574b16a760e11b815260040160405180910390fd5b600060035460016124af9190612d10565b905060038054850190556001600160a01b03851660008181526005602090815260408083208054890190558483526004909152902080546001600160a01b03191690911790558084810183801561251057506000876001600160a01b03163b115b1561257c575b60405182906001600160a01b03891690600090600080516020612f5d833981519152908290a461254f6000888480600101955088612375565b61256c57604051631f11849560e21b815260040160405180910390fd5b8082141561251657505050610aad565b5b6040516001830192906001600160a01b03891690600090600080516020612f5d833981519152908290a48082141561257d5750505050505050565b6000807f7fffffffffffffffffffffffffffffff5d576e7357a4501ddfe92f46681b20a08311156125ef575060009050600361269c565b8460ff16601b1415801561260757508460ff16601c14155b15612618575060009050600461269c565b6040805160008082526020820180845289905260ff881692820192909252606081018690526080810185905260019060a0016020604051602081039080840390855afa15801561266c573d6000803e3d6000fd5b5050604051601f1901519150506001600160a01b0381166126955760006001925092505061269c565b9150600090505b94509492505050565b6000806001600160ff1b03831660ff84901c601b016126c6878288856125b8565b935093505050935093915050565b8280546126e090612d8e565b90600052602060002090601f0160209004810192826127025760008555612748565b82601f1061271b57805160ff1916838001178555612748565b82800160010185558215612748579182015b8281111561274857825182559160200191906001019061272d565b50612754929150612758565b5090565b5b808211156127545760008155600101612759565b6001600160e01b03198116811461187957600080fd5b60006020828403121561279557600080fd5b81356117da8161276d565b634e487b7160e01b600052604160045260246000fd5b604051601f8201601f1916810167ffffffffffffffff811182821017156127df576127df6127a0565b604052919050565b600067ffffffffffffffff821115612801576128016127a0565b50601f01601f191660200190565b600061282261281d846127e7565b6127b6565b905082815283838301111561283657600080fd5b828260208301376000602084830101529392505050565b60006020828403121561285f57600080fd5b813567ffffffffffffffff81111561287657600080fd5b8201601f8101841361288757600080fd5b611bdf8482356020840161280f565b60005b838110156128b1578181015183820152602001612899565b83811115610aad5750506000910152565b600081518084526128da816020860160208601612896565b601f01601f19169290920160200192915050565b6020815260006117da60208301846128c2565b60006020828403121561291357600080fd5b5035919050565b6001600160a01b038116811461187957600080fd5b6000806040838503121561294257600080fd5b823561294d8161291a565b946020939093013593505050565b60006020828403121561296d57600080fd5b81356117da8161291a565b60008060006060848603121561298d57600080fd5b83356129988161291a565b925060208401356129a88161291a565b929592945050506040919091013590565b600080604083850312156129cc57600080fd5b50508035926020909101359150565b600080604083850312156129ee57600080fd5b823591506020830135612a008161291a565b809150509250929050565b600082601f830112612a1c57600080fd5b6117da8383356020850161280f565b60008060008060808587031215612a4157600080fd5b843593506020850135925060408501359150606085013567ffffffffffffffff811115612a6d57600080fd5b612a7987828801612a0b565b91505092959194509250565b80358015158114612a9557600080fd5b919050565b600060208284031215612aac57600080fd5b6117da82612a85565b60008060408385031215612ac857600080fd5b8235612ad38161291a565b9150612ae160208401612a85565b90509250929050565b60008060408385031215612afd57600080fd5b8235612b088161291a565b915060208381013567ffffffffffffffff80821115612b2657600080fd5b818601915086601f830112612b3a57600080fd5b813581811115612b4c57612b4c6127a0565b8060051b9150612b5d8483016127b6565b8181529183018401918481019089841115612b7757600080fd5b938501935b83851015612b9557843582529385019390850190612b7c565b8096505050505050509250929050565b60008060008060808587031215612bbb57600080fd5b8435612bc68161291a565b93506020850135612bd68161291a565b925060408501359150606085013567ffffffffffffffff811115612a6d57600080fd5b6020808252825182820181905260009190848201906040850190845b81811015612c3157835183529284019291840191600101612c15565b50909695505050505050565b60008060408385031215612c5057600080fd5b8235612c5b8161291a565b91506020830135612a008161291a565b634e487b7160e01b600052601160045260246000fd5b600082821015612c9357612c93612c6b565b500390565b6000816000190483118215151615612cb257612cb2612c6b565b500290565b600082612cd457634e487b7160e01b600052601260045260246000fd5b500490565b6020808252601f908201527f5265656e7472616e637947756172643a207265656e7472616e742063616c6c00604082015260600190565b60008219821115612d2357612d23612c6b565b500190565b6020808252818101527f4f776e61626c653a2063616c6c6572206973206e6f7420746865206f776e6572604082015260600190565b634e487b7160e01b600052603260045260246000fd5b6000600019821415612d8757612d87612c6b565b5060010190565b600181811c90821680612da257607f821691505b60208210811415612dc357634e487b7160e01b600052602260045260246000fd5b50919050565b600060208284031215612ddb57600080fd5b815167ffffffffffffffff811115612df257600080fd5b8201601f81018413612e0357600080fd5b8051612e1161281d826127e7565b818152856020838501011115612e2657600080fd5b612e37826020830160208601612896565b95945050505050565b7f416363657373436f6e74726f6c3a206163636f756e7420000000000000000000815260008351612e78816017850160208801612896565b7001034b99036b4b9b9b4b733903937b6329607d1b6017918401918201528351612ea9816028840160208801612896565b01602801949350505050565b600081612ec457612ec4612c6b565b506000190190565b634e487b7160e01b600052602160045260246000fd5b6001600160a01b0385811682528416602082015260408101839052608060608201819052600090612f15908301846128c2565b9695505050505050565b600060208284031215612f3157600080fd5b81516117da8161276d56fe850d585eb7f024ccee5e68e55f2c26cc72e1e6ee456acf62135757a5eb9d4a10ddf252ad1be2c89b69c2b068fc378daa952ba7f163c4a11628f55a4df523b3efa2646970667358221220610887c87b4fa84f71cae68dfbdab83f80cb01b2dbc68ad9ad87ac2319ee8ce264736f6c63430008090033",
  "linkReferences": {},
  "deployedLinkReferences": {}
}