{
  "_format": "hh-sol-artifact-1",
  "contractName": "CashCowsIndex",
  "sourceName": "contracts/CashCowsIndex.sol",
  "abi": [
    {
      "inputs": [
        {
          "internalType": "contract IERC721Supply",
          "name": "collection",
          "type": "address"
        },
        {
          "internalType": "address",
          "name": "owner",
          "type": "address"
        }
      ],
      "name": "ownerTokens",
      "outputs": [
        {
          "internalType": "uint256[]",
          "name": "",
          "type": "uint256[]"
        }
      ],
      "stateMutability": "view",
      "type": "function"
    }
  ],
  "bytecode": "0x608060405234801561001057600080fd5b50610438806100206000396000f3fe608060405234801561001057600080fd5b506004361061002b5760003560e01c80633ac7cd1314610030575b600080fd5b61004361003e3660046102f3565b610059565b604051610050919061032c565b60405180910390f35b6040516370a0823160e01b81526001600160a01b0382811660048301526060916000918516906370a082319060240160206040518083038186803b1580156100a057600080fd5b505afa1580156100b4573d6000803e3d6000fd5b505050506040513d601f19601f820116820180604052508101906100d89190610370565b9050806100f55750506040805160008152602081019091526102d5565b60008167ffffffffffffffff81111561011057610110610389565b604051908082528060200260200182016040528015610139578160200160208202803683370190505b5090506000856001600160a01b03166318160ddd6040518163ffffffff1660e01b815260040160206040518083038186803b15801561017757600080fd5b505afa15801561018b573d6000803e3d6000fd5b505050506040513d601f19601f820116820180604052508101906101af9190610370565b9050600060015b8281116102cd576040516331a9108f60e11b8152600481018290526001600160a01b03891690636352211e9060240160206040518083038186803b1580156101fd57600080fd5b505afa92505050801561022d575060408051601f3d908101601f1916820190925261022a9181019061039f565b60015b610267573d80801561025b576040519150601f19603f3d011682016040523d82523d6000602084013e610260565b606091505b50506102bb565b806001600160a01b0316886001600160a01b031614156102b95781858461028d816103c3565b95508151811061029f5761029f6103ec565b602002602001018181525050858314156102b957506102cd565b505b806102c5816103c3565b9150506101b6565b509193505050505b92915050565b6001600160a01b03811681146102f057600080fd5b50565b6000806040838503121561030657600080fd5b8235610311816102db565b91506020830135610321816102db565b809150509250929050565b6020808252825182820181905260009190848201906040850190845b8181101561036457835183529284019291840191600101610348565b50909695505050505050565b60006020828403121561038257600080fd5b5051919050565b634e487b7160e01b600052604160045260246000fd5b6000602082840312156103b157600080fd5b81516103bc816102db565b9392505050565b60006000198214156103e557634e487b7160e01b600052601160045260246000fd5b5060010190565b634e487b7160e01b600052603260045260246000fdfea2646970667358221220736da509d769b25677d0f62f7dfc93aac15a4a156f8b2d649fd9a6cecb75083664736f6c63430008090033",
  "linkReferences": {},
  "deployedLinkReferences": {}
}