{
  "_format": "hh-sol-artifact-1",
  "contractName": "CashCowsCulling",
  "sourceName": "contracts/phase2/CashCowsCulling.sol",
  "abi": [
    {
      "inputs": [],
      "name": "InvalidCall",
      "type": "error"
    },
    {
      "anonymous": false,
      "inputs": [
        {
          "indexed": true,
          "internalType": "address",
          "name": "previousOwner",
          "type": "address"
        },
        {
          "indexed": true,
          "internalType": "address",
          "name": "newOwner",
          "type": "address"
        }
      ],
      "name": "OwnershipTransferred",
      "type": "event"
    },
    {
      "inputs": [
        {
          "internalType": "address",
          "name": "owner",
          "type": "address"
        }
      ],
      "name": "balanceOf",
      "outputs": [
        {
          "internalType": "uint256",
          "name": "",
          "type": "uint256"
        }
      ],
      "stateMutability": "view",
      "type": "function"
    },
    {
      "inputs": [
        {
          "internalType": "uint256",
          "name": "tokenId",
          "type": "uint256"
        }
      ],
      "name": "burn",
      "outputs": [],
      "stateMutability": "nonpayable",
      "type": "function"
    },
    {
      "inputs": [
        {
          "internalType": "uint256",
          "name": "tokenId",
          "type": "uint256"
        }
      ],
      "name": "burnRedeem",
      "outputs": [],
      "stateMutability": "nonpayable",
      "type": "function"
    },
    {
      "inputs": [],
      "name": "owner",
      "outputs": [
        {
          "internalType": "address",
          "name": "",
          "type": "address"
        }
      ],
      "stateMutability": "view",
      "type": "function"
    },
    {
      "inputs": [],
      "name": "redeem",
      "outputs": [],
      "stateMutability": "nonpayable",
      "type": "function"
    },
    {
      "inputs": [
        {
          "internalType": "address",
          "name": "owner",
          "type": "address"
        }
      ],
      "name": "redeemable",
      "outputs": [
        {
          "internalType": "uint256",
          "name": "",
          "type": "uint256"
        }
      ],
      "stateMutability": "view",
      "type": "function"
    },
    {
      "inputs": [],
      "name": "renounceOwnership",
      "outputs": [],
      "stateMutability": "nonpayable",
      "type": "function"
    },
    {
      "inputs": [
        {
          "internalType": "contract IERC721Burnable",
          "name": "collection",
          "type": "address"
        }
      ],
      "name": "setCollection",
      "outputs": [],
      "stateMutability": "nonpayable",
      "type": "function"
    },
    {
      "inputs": [
        {
          "internalType": "contract IERC20Mintable",
          "name": "token",
          "type": "address"
        }
      ],
      "name": "setToken",
      "outputs": [],
      "stateMutability": "nonpayable",
      "type": "function"
    },
    {
      "inputs": [
        {
          "internalType": "uint256",
          "name": "conversion",
          "type": "uint256"
        }
      ],
      "name": "setTokenConversion",
      "outputs": [],
      "stateMutability": "nonpayable",
      "type": "function"
    },
    {
      "inputs": [
        {
          "internalType": "contract IRoyaltySplitter",
          "name": "treasury",
          "type": "address"
        }
      ],
      "name": "setTreasury",
      "outputs": [],
      "stateMutability": "nonpayable",
      "type": "function"
    },
    {
      "inputs": [],
      "name": "tokenConversion",
      "outputs": [
        {
          "internalType": "uint256",
          "name": "",
          "type": "uint256"
        }
      ],
      "stateMutability": "view",
      "type": "function"
    },
    {
      "inputs": [
        {
          "internalType": "address",
          "name": "newOwner",
          "type": "address"
        }
      ],
      "name": "transferOwnership",
      "outputs": [],
      "stateMutability": "nonpayable",
      "type": "function"
    }
  ],
  "bytecode": "0x608060405234801561001057600080fd5b5061001a3361001f565b61006f565b600080546001600160a01b038381166001600160a01b0319831681178455604051919092169283917f8be0079c531659141344cd1fd0a4f28419497f9722a3daafe3b4186f6b6457e09190a35050565b610a5f8061007e6000396000f3fe608060405234801561001057600080fd5b50600436106100cf5760003560e01c806370a082311161008c5780638da5cb5b116100665780638da5cb5b14610190578063be040fb0146101ab578063f0f44260146101b3578063f2fde38b146101c657600080fd5b806370a082311461014c578063715018a614610175578063768b5fd51461017d57600080fd5b8063144fa6d7146100d457806314a3b613146100e9578063156bbc7214610100578063319e0d841461011357806342966c6814610126578063484267a414610139575b600080fd5b6100e76100e2366004610919565b6101d9565b005b6003545b6040519081526020015b60405180910390f35b6100e761010e36600461093d565b61022e565b6100e761012136600461093d565b61025d565b6100e761013436600461093d565b6104a4565b6100ed610147366004610919565b610689565b6100ed61015a366004610919565b6001600160a01b031660009081526001602052604090205490565b6100e76106b6565b6100e761018b366004610919565b6106ec565b6000546040516001600160a01b0390911681526020016100f7565b6100e7610738565b6100e76101c1366004610919565b6107cd565b6100e76101d4366004610919565b610819565b6000546001600160a01b0316331461020c5760405162461bcd60e51b815260040161020390610956565b60405180910390fd5b600480546001600160a01b0319166001600160a01b0392909216919091179055565b6000546001600160a01b031633146102585760405162461bcd60e51b815260040161020390610956565b600355565b6000336006546040516331a9108f60e11b8152600481018590529192506001600160a01b031690636352211e9060240160206040518083038186803b1580156102a557600080fd5b505afa1580156102b9573d6000803e3d6000fd5b505050506040513d601f19601f820116820180604052508101906102dd919061098b565b6001600160a01b0316816001600160a01b03161461030e5760405163574b16a760e11b815260040160405180910390fd5b6001600160a01b0381166000908152600160205260408120805491610332836109be565b90915550506005546040516332c17a7d60e11b8152600481018490526000916001600160a01b031690636582f4fa9060240160206040518083038186803b15801561037c57600080fd5b505afa158015610390573d6000803e3d6000fd5b505050506040513d601f19601f820116820180604052508101906103b491906109d9565b600654604051630852cd8d60e31b8152600481018690529192506001600160a01b0316906342966c6890602401600060405180830381600087803b1580156103fb57600080fd5b505af115801561040f573d6000803e3d6000fd5b50505050600081111561049f576004546003546001600160a01b03909116906340c10f1990849061044090856109f2565b6040516001600160e01b031960e085901b1681526001600160a01b0390921660048301526024820152604401600060405180830381600087803b15801561048657600080fd5b505af115801561049a573d6000803e3d6000fd5b505050505b505050565b6000336006546040516331a9108f60e11b8152600481018590529192506001600160a01b031690636352211e9060240160206040518083038186803b1580156104ec57600080fd5b505afa158015610500573d6000803e3d6000fd5b505050506040513d601f19601f82011682018060405250810190610524919061098b565b6001600160a01b0316816001600160a01b0316146105555760405163574b16a760e11b815260040160405180910390fd5b6001600160a01b0381166000908152600160205260408120805491610579836109be565b90915550506005546040516332c17a7d60e11b8152600481018490526001600160a01b0390911690636582f4fa9060240160206040518083038186803b1580156105c257600080fd5b505afa1580156105d6573d6000803e3d6000fd5b505050506040513d601f19601f820116820180604052508101906105fa91906109d9565b6001600160a01b03821660009081526002602052604081208054909190610622908490610a11565b9091555050600654604051630852cd8d60e31b8152600481018490526001600160a01b03909116906342966c6890602401600060405180830381600087803b15801561066d57600080fd5b505af1158015610681573d6000803e3d6000fd5b505050505050565b6003546001600160a01b03821660009081526002602052604081205490916106b0916109f2565b92915050565b6000546001600160a01b031633146106e05760405162461bcd60e51b815260040161020390610956565b6106ea60006108b4565b565b6000546001600160a01b031633146107165760405162461bcd60e51b815260040161020390610956565b600680546001600160a01b0319166001600160a01b0392909216919091179055565b60045433906001600160a01b03166340c10f198261075581610689565b6040516001600160e01b031960e085901b1681526001600160a01b0390921660048301526024820152604401600060405180830381600087803b15801561079b57600080fd5b505af11580156107af573d6000803e3d6000fd5b505050506001600160a01b0316600090815260026020526040812055565b6000546001600160a01b031633146107f75760405162461bcd60e51b815260040161020390610956565b600580546001600160a01b0319166001600160a01b0392909216919091179055565b6000546001600160a01b031633146108435760405162461bcd60e51b815260040161020390610956565b6001600160a01b0381166108a85760405162461bcd60e51b815260206004820152602660248201527f4f776e61626c653a206e6577206f776e657220697320746865207a65726f206160448201526564647265737360d01b6064820152608401610203565b6108b1816108b4565b50565b600080546001600160a01b038381166001600160a01b0319831681178455604051919092169283917f8be0079c531659141344cd1fd0a4f28419497f9722a3daafe3b4186f6b6457e09190a35050565b6001600160a01b03811681146108b157600080fd5b60006020828403121561092b57600080fd5b813561093681610904565b9392505050565b60006020828403121561094f57600080fd5b5035919050565b6020808252818101527f4f776e61626c653a2063616c6c6572206973206e6f7420746865206f776e6572604082015260600190565b60006020828403121561099d57600080fd5b815161093681610904565b634e487b7160e01b600052601160045260246000fd5b60006000198214156109d2576109d26109a8565b5060010190565b6000602082840312156109eb57600080fd5b5051919050565b6000816000190483118215151615610a0c57610a0c6109a8565b500290565b60008219821115610a2457610a246109a8565b50019056fea2646970667358221220a91933798feb39afd9e95bd854ef3163f92d4107e4f7fbf58f35fb44c5b34b1e64736f6c63430008090033",
  "linkReferences": {},
  "deployedLinkReferences": {}
}