{
  "_format": "hh-sol-artifact-1",
  "contractName": "CashCowsClub",
  "sourceName": "contracts/phase3/CashCowsClub.sol",
  "abi": [
    {
      "inputs": [
        {
          "internalType": "string",
          "name": "preview",
          "type": "string"
        },
        {
          "internalType": "address",
          "name": "admin",
          "type": "address"
        }
      ],
      "stateMutability": "nonpayable",
      "type": "constructor"
    },
    {
      "inputs": [],
      "name": "ApprovalOwnerIsOperator",
      "type": "error"
    },
    {
      "inputs": [],
      "name": "ApprovalToCurrentOwner",
      "type": "error"
    },
    {
      "inputs": [],
      "name": "BalanceQueryZeroAddress",
      "type": "error"
    },
    {
      "inputs": [],
      "name": "ERC721ReceiverNotReceived",
      "type": "error"
    },
    {
      "inputs": [],
      "name": "InvalidCall",
      "type": "error"
    },
    {
      "inputs": [],
      "name": "NonExistentToken",
      "type": "error"
    },
    {
      "inputs": [],
      "name": "NotERC721Receiver",
      "type": "error"
    },
    {
      "anonymous": false,
      "inputs": [
        {
          "indexed": true,
          "internalType": "address",
          "name": "owner",
          "type": "address"
        },
        {
          "indexed": true,
          "internalType": "address",
          "name": "approved",
          "type": "address"
        },
        {
          "indexed": true,
          "internalType": "uint256",
          "name": "tokenId",
          "type": "uint256"
        }
      ],
      "name": "Approval",
      "type": "event"
    },
    {
      "anonymous": false,
      "inputs": [
        {
          "indexed": true,
          "internalType": "address",
          "name": "owner",
          "type": "address"
        },
        {
          "indexed": true,
          "internalType": "address",
          "name": "operator",
          "type": "address"
        },
        {
          "indexed": false,
          "internalType": "bool",
          "name": "approved",
          "type": "bool"
        }
      ],
      "name": "ApprovalForAll",
      "type": "event"
    },
    {
      "anonymous": false,
      "inputs": [
        {
          "indexed": true,
          "internalType": "address",
          "name": "previousOwner",
          "type": "address"
        },
        {
          "indexed": true,
          "internalType": "address",
          "name": "newOwner",
          "type": "address"
        }
      ],
      "name": "OwnershipTransferred",
      "type": "event"
    },
    {
      "anonymous": false,
      "inputs": [
        {
          "indexed": true,
          "internalType": "bytes32",
          "name": "role",
          "type": "bytes32"
        },
        {
          "indexed": true,
          "internalType": "bytes32",
          "name": "previousAdminRole",
          "type": "bytes32"
        },
        {
          "indexed": true,
          "internalType": "bytes32",
          "name": "newAdminRole",
          "type": "bytes32"
        }
      ],
      "name": "RoleAdminChanged",
      "type": "event"
    },
    {
      "anonymous": false,
      "inputs": [
        {
          "indexed": true,
          "internalType": "bytes32",
          "name": "role",
          "type": "bytes32"
        },
        {
          "indexed": true,
          "internalType": "address",
          "name": "account",
          "type": "address"
        },
        {
          "indexed": true,
          "internalType": "address",
          "name": "sender",
          "type": "address"
        }
      ],
      "name": "RoleGranted",
      "type": "event"
    },
    {
      "anonymous": false,
      "inputs": [
        {
          "indexed": true,
          "internalType": "bytes32",
          "name": "role",
          "type": "bytes32"
        },
        {
          "indexed": true,
          "internalType": "address",
          "name": "account",
          "type": "address"
        },
        {
          "indexed": true,
          "internalType": "address",
          "name": "sender",
          "type": "address"
        }
      ],
      "name": "RoleRevoked",
      "type": "event"
    },
    {
      "anonymous": false,
      "inputs": [
        {
          "indexed": true,
          "internalType": "address",
          "name": "from",
          "type": "address"
        },
        {
          "indexed": true,
          "internalType": "address",
          "name": "to",
          "type": "address"
        },
        {
          "indexed": true,
          "internalType": "uint256",
          "name": "tokenId",
          "type": "uint256"
        }
      ],
      "name": "Transfer",
      "type": "event"
    },
    {
      "inputs": [],
      "name": "DEFAULT_ADMIN_ROLE",
      "outputs": [
        {
          "internalType": "bytes32",
          "name": "",
          "type": "bytes32"
        }
      ],
      "stateMutability": "view",
      "type": "function"
    },
    {
      "inputs": [],
      "name": "MAX_PUBLIC",
      "outputs": [
        {
          "internalType": "uint16",
          "name": "",
          "type": "uint16"
        }
      ],
      "stateMutability": "view",
      "type": "function"
    },
    {
      "inputs": [],
      "name": "MAX_SUPPLY",
      "outputs": [
        {
          "internalType": "uint16",
          "name": "",
          "type": "uint16"
        }
      ],
      "stateMutability": "view",
      "type": "function"
    },
    {
      "inputs": [
        {
          "internalType": "uint256",
          "name": "",
          "type": "uint256"
        }
      ],
      "name": "_burned",
      "outputs": [
        {
          "internalType": "address",
          "name": "",
          "type": "address"
        }
      ],
      "stateMutability": "view",
      "type": "function"
    },
    {
      "inputs": [
        {
          "internalType": "address",
          "name": "to",
          "type": "address"
        },
        {
          "internalType": "uint256",
          "name": "tokenId",
          "type": "uint256"
        }
      ],
      "name": "approve",
      "outputs": [],
      "stateMutability": "nonpayable",
      "type": "function"
    },
    {
      "inputs": [
        {
          "internalType": "address",
          "name": "owner",
          "type": "address"
        }
      ],
      "name": "balanceOf",
      "outputs": [
        {
          "internalType": "uint256",
          "name": "",
          "type": "uint256"
        }
      ],
      "stateMutability": "view",
      "type": "function"
    },
    {
      "inputs": [
        {
          "internalType": "uint256",
          "name": "tokenId",
          "type": "uint256"
        }
      ],
      "name": "burn",
      "outputs": [],
      "stateMutability": "nonpayable",
      "type": "function"
    },
    {
      "inputs": [
        {
          "internalType": "uint256",
          "name": "tokenId",
          "type": "uint256"
        }
      ],
      "name": "burnerOf",
      "outputs": [
        {
          "internalType": "address",
          "name": "",
          "type": "address"
        }
      ],
      "stateMutability": "view",
      "type": "function"
    },
    {
      "inputs": [],
      "name": "contractURI",
      "outputs": [
        {
          "internalType": "string",
          "name": "",
          "type": "string"
        }
      ],
      "stateMutability": "view",
      "type": "function"
    },
    {
      "inputs": [
        {
          "internalType": "uint256",
          "name": "tokenId",
          "type": "uint256"
        }
      ],
      "name": "getApproved",
      "outputs": [
        {
          "internalType": "address",
          "name": "",
          "type": "address"
        }
      ],
      "stateMutability": "view",
      "type": "function"
    },
    {
      "inputs": [
        {
          "internalType": "bytes32",
          "name": "role",
          "type": "bytes32"
        }
      ],
      "name": "getRoleAdmin",
      "outputs": [
        {
          "internalType": "bytes32",
          "name": "",
          "type": "bytes32"
        }
      ],
      "stateMutability": "view",
      "type": "function"
    },
    {
      "inputs": [
        {
          "internalType": "bytes32",
          "name": "role",
          "type": "bytes32"
        },
        {
          "internalType": "address",
          "name": "account",
          "type": "address"
        }
      ],
      "name": "grantRole",
      "outputs": [],
      "stateMutability": "nonpayable",
      "type": "function"
    },
    {
      "inputs": [
        {
          "internalType": "bytes32",
          "name": "role",
          "type": "bytes32"
        },
        {
          "internalType": "address",
          "name": "account",
          "type": "address"
        }
      ],
      "name": "hasRole",
      "outputs": [
        {
          "internalType": "bool",
          "name": "",
          "type": "bool"
        }
      ],
      "stateMutability": "view",
      "type": "function"
    },
    {
      "inputs": [
        {
          "internalType": "address",
          "name": "owner",
          "type": "address"
        },
        {
          "internalType": "address",
          "name": "operator",
          "type": "address"
        }
      ],
      "name": "isApprovedForAll",
      "outputs": [
        {
          "internalType": "bool",
          "name": "",
          "type": "bool"
        }
      ],
      "stateMutability": "view",
      "type": "function"
    },
    {
      "inputs": [],
      "name": "lastId",
      "outputs": [
        {
          "internalType": "uint256",
          "name": "",
          "type": "uint256"
        }
      ],
      "stateMutability": "view",
      "type": "function"
    },
    {
      "inputs": [],
      "name": "maxMint",
      "outputs": [
        {
          "internalType": "uint256",
          "name": "",
          "type": "uint256"
        }
      ],
      "stateMutability": "view",
      "type": "function"
    },
    {
      "inputs": [
        {
          "internalType": "uint256",
          "name": "quantity",
          "type": "uint256"
        }
      ],
      "name": "mint",
      "outputs": [],
      "stateMutability": "payable",
      "type": "function"
    },
    {
      "inputs": [
        {
          "internalType": "uint256",
          "name": "quantity",
          "type": "uint256"
        },
        {
          "internalType": "bytes",
          "name": "proof",
          "type": "bytes"
        }
      ],
      "name": "mint",
      "outputs": [],
      "stateMutability": "payable",
      "type": "function"
    },
    {
      "inputs": [],
      "name": "mintOpened",
      "outputs": [
        {
          "internalType": "bool",
          "name": "",
          "type": "bool"
        }
      ],
      "stateMutability": "view",
      "type": "function"
    },
    {
      "inputs": [],
      "name": "mintPrice",
      "outputs": [
        {
          "internalType": "uint256",
          "name": "",
          "type": "uint256"
        }
      ],
      "stateMutability": "view",
      "type": "function"
    },
    {
      "inputs": [
        {
          "internalType": "address",
          "name": "",
          "type": "address"
        }
      ],
      "name": "minted",
      "outputs": [
        {
          "internalType": "uint256",
          "name": "",
          "type": "uint256"
        }
      ],
      "stateMutability": "view",
      "type": "function"
    },
    {
      "inputs": [],
      "name": "name",
      "outputs": [
        {
          "internalType": "string",
          "name": "",
          "type": "string"
        }
      ],
      "stateMutability": "pure",
      "type": "function"
    },
    {
      "inputs": [
        {
          "internalType": "bool",
          "name": "yes",
          "type": "bool"
        }
      ],
      "name": "openMint",
      "outputs": [],
      "stateMutability": "nonpayable",
      "type": "function"
    },
    {
      "inputs": [],
      "name": "owner",
      "outputs": [
        {
          "internalType": "address",
          "name": "",
          "type": "address"
        }
      ],
      "stateMutability": "view",
      "type": "function"
    },
    {
      "inputs": [
        {
          "internalType": "uint256",
          "name": "tokenId",
          "type": "uint256"
        }
      ],
      "name": "ownerOf",
      "outputs": [
        {
          "internalType": "address",
          "name": "",
          "type": "address"
        }
      ],
      "stateMutability": "view",
      "type": "function"
    },
    {
      "inputs": [
        {
          "internalType": "address",
          "name": "owner",
          "type": "address"
        }
      ],
      "name": "ownerTokens",
      "outputs": [
        {
          "internalType": "uint256[]",
          "name": "",
          "type": "uint256[]"
        }
      ],
      "stateMutability": "view",
      "type": "function"
    },
    {
      "inputs": [
        {
          "internalType": "address",
          "name": "owner",
          "type": "address"
        },
        {
          "internalType": "uint256[]",
          "name": "tokenIds",
          "type": "uint256[]"
        }
      ],
      "name": "ownsAll",
      "outputs": [
        {
          "internalType": "bool",
          "name": "",
          "type": "bool"
        }
      ],
      "stateMutability": "view",
      "type": "function"
    },
    {
      "inputs": [
        {
          "internalType": "uint256",
          "name": "quantity",
          "type": "uint256"
        }
      ],
      "name": "redeem",
      "outputs": [],
      "stateMutability": "nonpayable",
      "type": "function"
    },
    {
      "inputs": [],
      "name": "renounceOwnership",
      "outputs": [],
      "stateMutability": "nonpayable",
      "type": "function"
    },
    {
      "inputs": [
        {
          "internalType": "bytes32",
          "name": "role",
          "type": "bytes32"
        },
        {
          "internalType": "address",
          "name": "account",
          "type": "address"
        }
      ],
      "name": "renounceRole",
      "outputs": [],
      "stateMutability": "nonpayable",
      "type": "function"
    },
    {
      "inputs": [
        {
          "internalType": "bytes32",
          "name": "role",
          "type": "bytes32"
        },
        {
          "internalType": "address",
          "name": "account",
          "type": "address"
        }
      ],
      "name": "revokeRole",
      "outputs": [],
      "stateMutability": "nonpayable",
      "type": "function"
    },
    {
      "inputs": [
        {
          "internalType": "uint256",
          "name": "_tokenId",
          "type": "uint256"
        },
        {
          "internalType": "uint256",
          "name": "_salePrice",
          "type": "uint256"
        }
      ],
      "name": "royaltyInfo",
      "outputs": [
        {
          "internalType": "address",
          "name": "receiver",
          "type": "address"
        },
        {
          "internalType": "uint256",
          "name": "royaltyAmount",
          "type": "uint256"
        }
      ],
      "stateMutability": "view",
      "type": "function"
    },
    {
      "inputs": [],
      "name": "royaltyPercent",
      "outputs": [
        {
          "internalType": "uint256",
          "name": "",
          "type": "uint256"
        }
      ],
      "stateMutability": "view",
      "type": "function"
    },
    {
      "inputs": [
        {
          "internalType": "address",
          "name": "from",
          "type": "address"
        },
        {
          "internalType": "address",
          "name": "to",
          "type": "address"
        },
        {
          "internalType": "uint256",
          "name": "tokenId",
          "type": "uint256"
        }
      ],
      "name": "safeTransferFrom",
      "outputs": [],
      "stateMutability": "nonpayable",
      "type": "function"
    },
    {
      "inputs": [
        {
          "internalType": "address",
          "name": "from",
          "type": "address"
        },
        {
          "internalType": "address",
          "name": "to",
          "type": "address"
        },
        {
          "internalType": "uint256",
          "name": "tokenId",
          "type": "uint256"
        },
        {
          "internalType": "bytes",
          "name": "_data",
          "type": "bytes"
        }
      ],
      "name": "safeTransferFrom",
      "outputs": [],
      "stateMutability": "nonpayable",
      "type": "function"
    },
    {
      "inputs": [
        {
          "internalType": "address",
          "name": "operator",
          "type": "address"
        },
        {
          "internalType": "bool",
          "name": "approved",
          "type": "bool"
        }
      ],
      "name": "setApprovalForAll",
      "outputs": [],
      "stateMutability": "nonpayable",
      "type": "function"
    },
    {
      "inputs": [
        {
          "internalType": "uint256",
          "name": "max",
          "type": "uint256"
        }
      ],
      "name": "setMaxMint",
      "outputs": [],
      "stateMutability": "nonpayable",
      "type": "function"
    },
    {
      "inputs": [
        {
          "internalType": "uint256",
          "name": "price",
          "type": "uint256"
        }
      ],
      "name": "setMintPrice",
      "outputs": [],
      "stateMutability": "nonpayable",
      "type": "function"
    },
    {
      "inputs": [
        {
          "internalType": "contract IRedeemable",
          "name": "redeemable",
          "type": "address"
        },
        {
          "internalType": "uint256",
          "name": "exchange",
          "type": "uint256"
        }
      ],
      "name": "setRedeemable",
      "outputs": [],
      "stateMutability": "nonpayable",
      "type": "function"
    },
    {
      "inputs": [
        {
          "internalType": "string",
          "name": "uri",
          "type": "string"
        }
      ],
      "name": "setURI",
      "outputs": [],
      "stateMutability": "nonpayable",
      "type": "function"
    },
    {
      "inputs": [
        {
          "internalType": "bytes4",
          "name": "interfaceId",
          "type": "bytes4"
        }
      ],
      "name": "supportsInterface",
      "outputs": [
        {
          "internalType": "bool",
          "name": "",
          "type": "bool"
        }
      ],
      "stateMutability": "view",
      "type": "function"
    },
    {
      "inputs": [],
      "name": "symbol",
      "outputs": [
        {
          "internalType": "string",
          "name": "",
          "type": "string"
        }
      ],
      "stateMutability": "pure",
      "type": "function"
    },
    {
      "inputs": [
        {
          "internalType": "uint256",
          "name": "tokenId",
          "type": "uint256"
        }
      ],
      "name": "tokenURI",
      "outputs": [
        {
          "internalType": "string",
          "name": "",
          "type": "string"
        }
      ],
      "stateMutability": "view",
      "type": "function"
    },
    {
      "inputs": [],
      "name": "totalBurned",
      "outputs": [
        {
          "internalType": "uint256",
          "name": "",
          "type": "uint256"
        }
      ],
      "stateMutability": "view",
      "type": "function"
    },
    {
      "inputs": [],
      "name": "totalSupply",
      "outputs": [
        {
          "internalType": "uint256",
          "name": "",
          "type": "uint256"
        }
      ],
      "stateMutability": "view",
      "type": "function"
    },
    {
      "inputs": [
        {
          "internalType": "address",
          "name": "from",
          "type": "address"
        },
        {
          "internalType": "address",
          "name": "to",
          "type": "address"
        },
        {
          "internalType": "uint256",
          "name": "tokenId",
          "type": "uint256"
        }
      ],
      "name": "transferFrom",
      "outputs": [],
      "stateMutability": "nonpayable",
      "type": "function"
    },
    {
      "inputs": [
        {
          "internalType": "address",
          "name": "newOwner",
          "type": "address"
        }
      ],
      "name": "transferOwnership",
      "outputs": [],
      "stateMutability": "nonpayable",
      "type": "function"
    },
    {
      "inputs": [],
      "name": "treasury",
      "outputs": [
        {
          "internalType": "contract IRoyaltySplitter",
          "name": "",
          "type": "address"
        }
      ],
      "stateMutability": "view",
      "type": "function"
    },
    {
      "inputs": [
        {
          "internalType": "contract IMetadata",
          "name": "metadata",
          "type": "address"
        }
      ],
      "name": "updateMetadata",
      "outputs": [],
      "stateMutability": "nonpayable",
      "type": "function"
    },
    {
      "inputs": [
        {
          "internalType": "uint256",
          "name": "percent",
          "type": "uint256"
        }
      ],
      "name": "updateRoyalty",
      "outputs": [],
      "stateMutability": "nonpayable",
      "type": "function"
    },
    {
      "inputs": [
        {
          "internalType": "contract IRoyaltySplitter",
          "name": "splitter",
          "type": "address"
        }
      ],
      "name": "updateTreasury",
      "outputs": [],
      "stateMutability": "nonpayable",
      "type": "function"
    },
    {
      "inputs": [
        {
          "internalType": "address",
          "name": "recipient",
          "type": "address"
        }
      ],
      "name": "withdraw",
      "outputs": [],
      "stateMutability": "nonpayable",
      "type": "function"
    }
  ],
  "bytecode": "0x60806040526103e8600e553480156200001757600080fd5b5060405162003335380380620033358339810160408190526200003a9162000258565b600160005581816200004c3362000079565b62000059600082620000cb565b81516200006e90600b9060208501906200017f565b505050505062000386565b600180546001600160a01b038381166001600160a01b0319831681179093556040519116919082907f8be0079c531659141344cd1fd0a4f28419497f9722a3daafe3b4186f6b6457e090600090a35050565b620000d78282620000db565b5050565b60008281526002602090815260408083206001600160a01b038516845290915290205460ff16620000d75760008281526002602090815260408083206001600160a01b03851684529091529020805460ff191660011790556200013b3390565b6001600160a01b0316816001600160a01b0316837f2f8788117e7eff1d82e926ec794901d17c78024a50270940304540a733656f0d60405160405180910390a45050565b8280546200018d9062000349565b90600052602060002090601f016020900481019282620001b15760008555620001fc565b82601f10620001cc57805160ff1916838001178555620001fc565b82800160010185558215620001fc579182015b82811115620001fc578251825591602001919060010190620001df565b506200020a9291506200020e565b5090565b5b808211156200020a57600081556001016200020f565b634e487b7160e01b600052604160045260246000fd5b80516001600160a01b03811681146200025357600080fd5b919050565b600080604083850312156200026c57600080fd5b82516001600160401b03808211156200028457600080fd5b818501915085601f8301126200029957600080fd5b815181811115620002ae57620002ae62000225565b604051601f8201601f19908116603f01168101908382118183101715620002d957620002d962000225565b81604052828152602093508884848701011115620002f657600080fd5b600091505b828210156200031a5784820184015181830185015290830190620002fb565b828211156200032c5760008484830101525b95506200033e9150508582016200023b565b925050509250929050565b600181811c908216806200035e57607f821691505b602082108114156200038057634e487b7160e01b600052602260045260246000fd5b50919050565b612f9f80620003966000396000f3fe6080604052600436106102ff5760003560e01c8063804d5efd11610190578063bba7723e116100dc578063d89135cd11610095578063e8a3d4851161006f578063e8a3d4851461096b578063e985e9c514610980578063f2fde38b146109a0578063f4a0a528146109c057600080fd5b8063d89135cd14610923578063db006a7514610938578063db7fd4081461095857600080fd5b8063bba7723e1461084b578063c1292cc314610878578063c5e2a7db1461088d578063c87b56dd146108ad578063ca0df4a1146108cd578063d547741f1461090357600080fd5b80639b70a34011610149578063a217fddf11610123578063a217fddf146107d6578063a22cb465146107eb578063ad94d9011461080b578063b88d4fde1461082b57600080fd5b80639b70a340146107935780639f67756d146107ad578063a0712d68146107c357600080fd5b8063804d5efd146106bc5780638da5cb5b146106f25780638fffd8b51461071057806391d148541461073057806395d89b41146107505780639753eac01461077d57600080fd5b806336568abe1161024f57806361d027b31161020857806370a08231116101e257806370a0823114610651578063715018a6146106715780637501f741146106865780637f51bb1f1461069c57600080fd5b806361d027b3146105fb5780636352211e1461061b5780636817c76c1461063b57600080fd5b806336568abe1461053b57806342842e0e1461055b57806342966c681461057b57806351cff8d91461059b578063547520fe146105bb57806358a85bca146105db57600080fd5b80631e7269c5116102bc5780632a55205a116102965780632a55205a146104935780632f2ff15d146104d25780633202e76b146104f257806332cb6b0c1461051257600080fd5b80631e7269c51461041657806323b872dd14610443578063248a9ca31461046357600080fd5b806301ffc9a71461030457806302fe53051461033957806306fdde031461035b578063081812fc1461039b578063095ea7b3146103d357806318160ddd146103f3575b600080fd5b34801561031057600080fd5b5061032461031f366004612752565b6109e0565b60405190151581526020015b60405180910390f35b34801561034557600080fd5b5061035961035436600461281c565b610a26565b005b34801561036757600080fd5b5060408051808201909152600e81526d21b0b9b41021b7bbb99021b63ab160911b60208201525b60405161033091906128bd565b3480156103a757600080fd5b506103bb6103b63660046128d0565b610a4c565b6040516001600160a01b039091168152602001610330565b3480156103df57600080fd5b506103596103ee3660046128fe565b610a90565b3480156103ff57600080fd5b50610408610b20565b604051908152602001610330565b34801561042257600080fd5b5061040861043136600461292a565b600f6020526000908152604090205481565b34801561044f57600080fd5b5061035961045e366004612947565b610b3d565b34801561046f57600080fd5b5061040861047e3660046128d0565b60009081526002602052604090206001015490565b34801561049f57600080fd5b506104b36104ae366004612988565b610b4e565b604080516001600160a01b039093168352602083019190915201610330565b3480156104de57600080fd5b506103596104ed3660046129aa565b610bc5565b3480156104fe57600080fd5b5061035961050d3660046128fe565b610beb565b34801561051e57600080fd5b506105286107d081565b60405161ffff9091168152602001610330565b34801561054757600080fd5b506103596105563660046129aa565b610c31565b34801561056757600080fd5b50610359610576366004612947565b610cb0565b34801561058757600080fd5b506103596105963660046128d0565b610ccb565b3480156105a757600080fd5b506103596105b636600461292a565b610d14565b3480156105c757600080fd5b506103596105d63660046128d0565b610dcd565b3480156105e757600080fd5b506103596105f63660046129ef565b610dec565b34801561060757600080fd5b50600d546103bb906001600160a01b031681565b34801561062757600080fd5b506103bb6106363660046128d0565b610e19565b34801561064757600080fd5b5061040860105481565b34801561065d57600080fd5b5061040861066c36600461292a565b610e58565b34801561067d57600080fd5b50610359610e9d565b34801561069257600080fd5b5061040860115481565b3480156106a857600080fd5b506103596106b736600461292a565b610ed3565b3480156106c857600080fd5b506103bb6106d73660046128d0565b6009602052600090815260409020546001600160a01b031681565b3480156106fe57600080fd5b506001546001600160a01b03166103bb565b34801561071c57600080fd5b5061035961072b3660046128d0565b610f0f565b34801561073c57600080fd5b5061032461074b3660046129aa565b610f63565b34801561075c57600080fd5b506040805180820190915260048152634d4f4f4f60e01b602082015261038e565b34801561078957600080fd5b506105286103e881565b34801561079f57600080fd5b506012546103249060ff1681565b3480156107b957600080fd5b50610408600e5481565b6103596107d13660046128d0565b610f8e565b3480156107e257600080fd5b50610408600081565b3480156107f757600080fd5b50610359610806366004612a0a565b611083565b34801561081757600080fd5b50610324610826366004612a3f565b61108e565b34801561083757600080fd5b50610359610846366004612b1a565b6110fb565b34801561085757600080fd5b5061086b61086636600461292a565b611107565b6040516103309190612b86565b34801561088457600080fd5b5061040861122c565b34801561089957600080fd5b506103596108a836600461292a565b611237565b3480156108b957600080fd5b5061038e6108c83660046128d0565b611273565b3480156108d957600080fd5b506103bb6108e83660046128d0565b6000908152600960205260409020546001600160a01b031690565b34801561090f57600080fd5b5061035961091e3660046129aa565b6113bd565b34801561092f57600080fd5b50600a54610408565b34801561094457600080fd5b506103596109533660046128d0565b6113e3565b610359610966366004612bca565b61151a565b34801561097757600080fd5b5061038e6116cd565b34801561098c57600080fd5b5061032461099b366004612c11565b61175f565b3480156109ac57600080fd5b506103596109bb36600461292a565b61178d565b3480156109cc57600080fd5b506103596109db3660046128d0565b611825565b60006001600160e01b03198216635b5e139f60e01b1480610a1157506001600160e01b0319821663152a902d60e11b145b80610a205750610a2082611844565b92915050565b600080516020612f2a833981519152610a3f8133611869565b610a48826118cd565b5050565b6000610a57826118e0565b610a7457604051634a1850bf60e11b815260040160405180910390fd5b506000908152600660205260409020546001600160a01b031690565b6000610a9b82611909565b9050806001600160a01b0316836001600160a01b03161415610ad05760405163250fdee360e21b815260040160405180910390fd5b336001600160a01b0382168114801590610af15750610aef828261175f565b155b15610b0f5760405163250fdee360e21b815260040160405180910390fd5b610b1a8484846119c6565b50505050565b6000600a54610b2e60035490565b610b389190612c55565b905090565b610b4933848484611a22565b505050565b600d5460009081906001600160a01b03161580610b715750610b6f846118e0565b155b15610b8f5760405163574b16a760e11b815260040160405180910390fd5b600d54600e546001600160a01b039091169061271090610baf9086612c6c565b610bb99190612c8b565b915091505b9250929050565b600082815260026020526040902060010154610be18133611869565b610b498383611a55565b600080516020612f2a833981519152610c048133611869565b50601280546001600160a01b0390931661010002610100600160a81b031990931692909217909155601355565b6001600160a01b0381163314610ca65760405162461bcd60e51b815260206004820152602f60248201527f416363657373436f6e74726f6c3a2063616e206f6e6c792072656e6f756e636560448201526e103937b632b9903337b91039b2b63360891b60648201526084015b60405180910390fd5b610a488282611adb565b610b49838383604051806020016040528060008152506110fb565b600d546001600160a01b0316336001600160a01b031614610cff5760405163574b16a760e11b815260040160405180910390fd5b610d1181610d0c83611909565b611b42565b50565b6001546001600160a01b03163314610d3e5760405162461bcd60e51b8152600401610c9d90612cad565b60026000541415610d615760405162461bcd60e51b8152600401610c9d90612ce2565b6002600055600c546001600160a01b0316610d8f5760405163574b16a760e11b815260040160405180910390fd5b6040516001600160a01b038216904780156108fc02916000818181858888f19350505050158015610dc4573d6000803e3d6000fd5b50506001600055565b600080516020612f2a833981519152610de68133611869565b50601155565b600080516020612f2a833981519152610e058133611869565b506012805460ff1916911515919091179055565b6000818152600960205260408120546001600160a01b031615610e4f57604051634a1850bf60e11b815260040160405180910390fd5b610a2082611909565b60006001600160a01b038216610e81576040516316285dcb60e11b815260040160405180910390fd5b506001600160a01b031660009081526005602052604090205490565b6001546001600160a01b03163314610ec75760405162461bcd60e51b8152600401610c9d90612cad565b610ed16000611c22565b565b600080516020612f2a833981519152610eec8133611869565b50600d80546001600160a01b0319166001600160a01b0392909216919091179055565b7f3b5d4cc60d3ec3516ee8ae083bd60934f6eb2a6c54b1229985c41bfb092b2603610f3a8133611869565b6103e8821115610f5d5760405163574b16a760e11b815260040160405180910390fd5b50600e55565b60009182526002602090815260408084206001600160a01b0393909316845291905290205460ff1690565b60026000541415610fb15760405162461bcd60e51b8152600401610c9d90612ce2565b600260005533803b151580610fc9575060125460ff16155b80610fe057503460105483610fde9190612c6c565b115b8061100f57506011546001600160a01b0382166000908152600f602052604090205461100d908490612d19565b115b8061102d57506103e88261102161122c565b61102b9190612d19565b115b1561104b5760405163574b16a760e11b815260040160405180910390fd5b6001600160a01b0381166000908152600f602052604081208054849290611073908490612d19565b90915550610dc490508183611c74565b610a48338383611c8e565b6000805b82518110156110f1576110bd8382815181106110b0576110b0612d31565b6020026020010151610e19565b6001600160a01b0316846001600160a01b0316146110df576000915050610a20565b806110e981612d47565b915050611092565b5060019392505050565b610b1a84848484611d2e565b6060600061111483610e58565b9050806111355760408051600080825260208201909252905b509392505050565b60008167ffffffffffffffff8111156111505761115061276f565b604051908082528060200260200182016040528015611179578160200160208202803683370190505b5090506000611186610b20565b9050600060015b828111611221576000818152600960205260409020546001600160a01b0316158015906111d357506111be81610e19565b6001600160a01b0316876001600160a01b0316145b1561120f578084836111e481612d47565b9450815181106111f6576111f6612d31565b6020026020010181815250508482141561120f57611221565b8061121981612d47565b91505061118d565b509195945050505050565b6000610b3860035490565b600080516020612f2a8339815191526112508133611869565b50600c80546001600160a01b0319166001600160a01b0392909216919091179055565b606061127e826118e0565b61129b5760405163574b16a760e11b815260040160405180910390fd5b600c546001600160a01b031661133d57600b80546112b890612d62565b80601f01602080910402602001604051908101604052809291908181526020018280546112e490612d62565b80156113315780601f1061130657610100808354040283529160200191611331565b820191906000526020600020905b81548152906001019060200180831161131457829003601f168201915b50505050509050919050565b600c5460405163c87b56dd60e01b8152600481018490526001600160a01b039091169063c87b56dd9060240160006040518083038186803b15801561138157600080fd5b505afa158015611395573d6000803e3d6000fd5b505050506040513d6000823e601f3d908101601f19168201604052610a209190810190612d9d565b6000828152600260205260409020600101546113d98133611869565b610b498383611adb565b6000336013546012546040516370a0823160e01b81526001600160a01b038085166004830152939450600093610100909204909116906370a082319060240160206040518083038186803b15801561143a57600080fd5b505afa15801561144e573d6000803e3d6000fd5b505050506040513d601f19601f820116820180604052508101906114729190612e14565b61147c9190612c8b565b6001600160a01b0383166000908152600f602052604090205490915081906114a5908590612d19565b11806114c457506107d0836114b861122c565b6114c29190612d19565b115b156114e25760405163574b16a760e11b815260040160405180910390fd5b6001600160a01b0382166000908152600f60205260408120805485929061150a908490612d19565b90915550610b4990508284611c74565b6002600054141561153d5760405162461bcd60e51b8152600401610c9d90612ce2565b600260005533803b15158061155e5750346010548461155c9190612c6c565b115b8061158d57506011546001600160a01b0382166000908152600f602052604090205461158b908590612d19565b115b806115ab57506103e88361159f61122c565b6115a99190612d19565b115b8061166d575060408051631b5a5b9d60e21b602080830191909152606084901b6bffffffffffffffffffffffff19166024830152825160188184030181526038830184528051908201207f19457468657265756d205369676e6564204d6573736167653a0a3332000000006058840152607480840191909152835180840390910181526094909201909252805191012061166b907f9f2df0fed2c77648de5860a4cc508cd0818c85b8b8a1ab4ceeef8d981c8956a69061074b9085611d7b565b155b1561168b5760405163574b16a760e11b815260040160405180910390fd5b6001600160a01b0381166000908152600f6020526040812080548592906116b3908490612d19565b909155506116c390508184611c74565b5050600160005550565b6060600880546116dc90612d62565b80601f016020809104026020016040519081016040528092919081815260200182805461170890612d62565b80156117555780601f1061172a57610100808354040283529160200191611755565b820191906000526020600020905b81548152906001019060200180831161173857829003601f168201915b5050505050905090565b6001600160a01b03918216600090815260076020908152604080832093909416825291909152205460ff1690565b6001546001600160a01b031633146117b75760405162461bcd60e51b8152600401610c9d90612cad565b6001600160a01b03811661181c5760405162461bcd60e51b815260206004820152602660248201527f4f776e61626c653a206e6577206f776e657220697320746865207a65726f206160448201526564647265737360d01b6064820152608401610c9d565b610d1181611c22565b600080516020612f2a83398151915261183e8133611869565b50601055565b60006001600160e01b031982166380ac58cd60e01b1480610a205750610a2082611d97565b6118738282610f63565b610a485761188b816001600160a01b03166014611dcc565b611896836020611dcc565b6040516020016118a7929190612e2d565b60408051601f198184030181529082905262461bcd60e51b8252610c9d916004016128bd565b8051610a489060089060208401906126a3565b6000818152600960205260408120546001600160a01b0316158015610a205750610a2082611f6f565b60008181526004602052604081205482906001600160a01b031615611946576000908152600460205260409020546001600160a01b031692915050565b60008111801561195857506003548111155b156119ac575b600019018061196c576119ac565b6000818152600460205260409020546001600160a01b0316156119a7576000908152600460205260409020546001600160a01b031692915050565b61195e565b50604051634a1850bf60e11b815260040160405180910390fd5b60008281526006602052604080822080546001600160a01b0319166001600160a01b0387811691821790925591518593918516917f8c5be1e5ebec7d5bd14f71427d1e84f3dd0314c0f7b2291e5b200ac8c7c3b92591a4505050565b611a2d848285611f84565b611a4a5760405163574b16a760e11b815260040160405180910390fd5b610b1a838383611fd7565b611a5f8282610f63565b610a485760008281526002602090815260408083206001600160a01b03851684529091529020805460ff19166001179055611a973390565b6001600160a01b0316816001600160a01b0316837f2f8788117e7eff1d82e926ec794901d17c78024a50270940304540a733656f0d60405160405180910390a45050565b611ae58282610f63565b15610a485760008281526002602090815260408083206001600160a01b0385168085529252808320805460ff1916905551339285917ff6391f5c32d9c69d2a47ea670b442974b53935d1edc7fd64eb21e047a839171b9190a45050565b611b4e600083836119c6565b60018201611b5b816118e0565b8015611b7c57506000818152600460205260409020546001600160a01b0316155b15611ba957600081815260046020526040902080546001600160a01b0319166001600160a01b0384161790555b50600082815260096020908152604080832080546001600160a01b0386166001600160a01b0319918216811790925581855260058452828520805460001901905586855260049093528184208054909316909255600a805460010190555184929190600080516020612f4a833981519152908390a45050565b600180546001600160a01b038381166001600160a01b0319831681179093556040519116919082907f8be0079c531659141344cd1fd0a4f28419497f9722a3daafe3b4186f6b6457e090600090a35050565b610a4882826040518060200160405280600081525061210f565b816001600160a01b0316836001600160a01b03161415611cc15760405163079f14e360e51b815260040160405180910390fd5b6001600160a01b03838116600081815260076020908152604080832094871680845294825291829020805460ff191686151590811790915591519182527f17307eab39ab6107e8899845ad3d59bd9653f200f220920489ca2b5937696c31910160405180910390a3505050565b611d3a33858585611a22565b6000836001600160a01b03163b118015611d5d5750611d5b8484848461211c565b155b15610b1a57604051631f11849560e21b815260040160405180910390fd5b6000806000611d8a8585612213565b9150915061112d81612280565b60006001600160e01b03198216637965db0b60e01b1480610a2057506301ffc9a760e01b6001600160e01b0319831614610a20565b60606000611ddb836002612c6c565b611de6906002612d19565b67ffffffffffffffff811115611dfe57611dfe61276f565b6040519080825280601f01601f191660200182016040528015611e28576020820181803683370190505b509050600360fc1b81600081518110611e4357611e43612d31565b60200101906001600160f81b031916908160001a905350600f60fb1b81600181518110611e7257611e72612d31565b60200101906001600160f81b031916908160001a9053506000611e96846002612c6c565b611ea1906001612d19565b90505b6001811115611f19576f181899199a1a9b1b9c1cb0b131b232b360811b85600f1660108110611ed557611ed5612d31565b1a60f81b828281518110611eeb57611eeb612d31565b60200101906001600160f81b031916908160001a90535060049490941c93611f1281612ea2565b9050611ea4565b508315611f685760405162461bcd60e51b815260206004820181905260248201527f537472696e67733a20686578206c656e67746820696e73756666696369656e746044820152606401610c9d565b9392505050565b60008082118015610a20575050600354101590565b6000816001600160a01b0316846001600160a01b03161480611fbf5750836001600160a01b0316611fb484610a4c565b6001600160a01b0316145b80611fcf5750611fcf828561175f565b949350505050565b6001600160a01b03821615806120075750611ff181611909565b6001600160a01b0316836001600160a01b031614155b156120255760405163574b16a760e11b815260040160405180910390fd5b612031600082856119c6565b6001600160a01b03808316600081815260056020908152604080832080546001908101909155948816835280832080546000190190558583526004909152902080546001600160a01b03191690911790556003549082019081118015906120ad57506000818152600460205260409020546001600160a01b0316155b156120da57600081815260046020526040902080546001600160a01b0319166001600160a01b0386161790555b5080826001600160a01b0316846001600160a01b0316600080516020612f4a83398151915260405160405180910390a4505050565b610b49838383600161243b565b604051630a85bd0160e11b81526000906001600160a01b0385169063150b7a0290612151903390899088908890600401612eb9565b602060405180830381600087803b15801561216b57600080fd5b505af192505050801561219b575060408051601f3d908101601f1916820190925261219891810190612ef6565b60015b6121f6573d8080156121c9576040519150601f19603f3d011682016040523d82523d6000602084013e6121ce565b606091505b5080516121ee57604051630568cbab60e01b815260040160405180910390fd5b805181602001fd5b6001600160e01b031916630a85bd0160e11b149050949350505050565b60008082516041141561224a5760208301516040840151606085015160001a61223e87828585612587565b94509450505050610bbe565b8251604014156122745760208301516040840151612269868383612674565b935093505050610bbe565b50600090506002610bbe565b600081600481111561229457612294612f13565b141561229d5750565b60018160048111156122b1576122b1612f13565b14156122ff5760405162461bcd60e51b815260206004820152601860248201527f45434453413a20696e76616c6964207369676e617475726500000000000000006044820152606401610c9d565b600281600481111561231357612313612f13565b14156123615760405162461bcd60e51b815260206004820152601f60248201527f45434453413a20696e76616c6964207369676e6174757265206c656e677468006044820152606401610c9d565b600381600481111561237557612375612f13565b14156123ce5760405162461bcd60e51b815260206004820152602260248201527f45434453413a20696e76616c6964207369676e6174757265202773272076616c604482015261756560f01b6064820152608401610c9d565b60048160048111156123e2576123e2612f13565b1415610d115760405162461bcd60e51b815260206004820152602260248201527f45434453413a20696e76616c6964207369676e6174757265202776272076616c604482015261756560f01b6064820152608401610c9d565b82158061244f57506001600160a01b038416155b1561246d5760405163574b16a760e11b815260040160405180910390fd5b6000600354600161247e9190612d19565b905060038054850190556001600160a01b03851660008181526005602090815260408083208054890190558483526004909152902080546001600160a01b0319169091179055808481018380156124df57506000876001600160a01b03163b115b1561254b575b60405182906001600160a01b03891690600090600080516020612f4a833981519152908290a461251e600088848060010195508861211c565b61253b57604051631f11849560e21b815260040160405180910390fd5b808214156124e557505050610b1a565b5b6040516001830192906001600160a01b03891690600090600080516020612f4a833981519152908290a48082141561254c5750505050505050565b6000807f7fffffffffffffffffffffffffffffff5d576e7357a4501ddfe92f46681b20a08311156125be575060009050600361266b565b8460ff16601b141580156125d657508460ff16601c14155b156125e7575060009050600461266b565b6040805160008082526020820180845289905260ff881692820192909252606081018690526080810185905260019060a0016020604051602081039080840390855afa15801561263b573d6000803e3d6000fd5b5050604051601f1901519150506001600160a01b0381166126645760006001925092505061266b565b9150600090505b94509492505050565b6000806001600160ff1b03831660ff84901c601b0161269587828885612587565b935093505050935093915050565b8280546126af90612d62565b90600052602060002090601f0160209004810192826126d15760008555612717565b82601f106126ea57805160ff1916838001178555612717565b82800160010185558215612717579182015b828111156127175782518255916020019190600101906126fc565b50612723929150612727565b5090565b5b808211156127235760008155600101612728565b6001600160e01b031981168114610d1157600080fd5b60006020828403121561276457600080fd5b8135611f688161273c565b634e487b7160e01b600052604160045260246000fd5b604051601f8201601f1916810167ffffffffffffffff811182821017156127ae576127ae61276f565b604052919050565b600067ffffffffffffffff8211156127d0576127d061276f565b50601f01601f191660200190565b60006127f16127ec846127b6565b612785565b905082815283838301111561280557600080fd5b828260208301376000602084830101529392505050565b60006020828403121561282e57600080fd5b813567ffffffffffffffff81111561284557600080fd5b8201601f8101841361285657600080fd5b611fcf848235602084016127de565b60005b83811015612880578181015183820152602001612868565b83811115610b1a5750506000910152565b600081518084526128a9816020860160208601612865565b601f01601f19169290920160200192915050565b602081526000611f686020830184612891565b6000602082840312156128e257600080fd5b5035919050565b6001600160a01b0381168114610d1157600080fd5b6000806040838503121561291157600080fd5b823561291c816128e9565b946020939093013593505050565b60006020828403121561293c57600080fd5b8135611f68816128e9565b60008060006060848603121561295c57600080fd5b8335612967816128e9565b92506020840135612977816128e9565b929592945050506040919091013590565b6000806040838503121561299b57600080fd5b50508035926020909101359150565b600080604083850312156129bd57600080fd5b8235915060208301356129cf816128e9565b809150509250929050565b803580151581146129ea57600080fd5b919050565b600060208284031215612a0157600080fd5b611f68826129da565b60008060408385031215612a1d57600080fd5b8235612a28816128e9565b9150612a36602084016129da565b90509250929050565b60008060408385031215612a5257600080fd5b8235612a5d816128e9565b915060208381013567ffffffffffffffff80821115612a7b57600080fd5b818601915086601f830112612a8f57600080fd5b813581811115612aa157612aa161276f565b8060051b9150612ab2848301612785565b8181529183018401918481019089841115612acc57600080fd5b938501935b83851015612aea57843582529385019390850190612ad1565b8096505050505050509250929050565b600082601f830112612b0b57600080fd5b611f68838335602085016127de565b60008060008060808587031215612b3057600080fd5b8435612b3b816128e9565b93506020850135612b4b816128e9565b925060408501359150606085013567ffffffffffffffff811115612b6e57600080fd5b612b7a87828801612afa565b91505092959194509250565b6020808252825182820181905260009190848201906040850190845b81811015612bbe57835183529284019291840191600101612ba2565b50909695505050505050565b60008060408385031215612bdd57600080fd5b82359150602083013567ffffffffffffffff811115612bfb57600080fd5b612c0785828601612afa565b9150509250929050565b60008060408385031215612c2457600080fd5b8235612c2f816128e9565b915060208301356129cf816128e9565b634e487b7160e01b600052601160045260246000fd5b600082821015612c6757612c67612c3f565b500390565b6000816000190483118215151615612c8657612c86612c3f565b500290565b600082612ca857634e487b7160e01b600052601260045260246000fd5b500490565b6020808252818101527f4f776e61626c653a2063616c6c6572206973206e6f7420746865206f776e6572604082015260600190565b6020808252601f908201527f5265656e7472616e637947756172643a207265656e7472616e742063616c6c00604082015260600190565b60008219821115612d2c57612d2c612c3f565b500190565b634e487b7160e01b600052603260045260246000fd5b6000600019821415612d5b57612d5b612c3f565b5060010190565b600181811c90821680612d7657607f821691505b60208210811415612d9757634e487b7160e01b600052602260045260246000fd5b50919050565b600060208284031215612daf57600080fd5b815167ffffffffffffffff811115612dc657600080fd5b8201601f81018413612dd757600080fd5b8051612de56127ec826127b6565b818152856020838501011115612dfa57600080fd5b612e0b826020830160208601612865565b95945050505050565b600060208284031215612e2657600080fd5b5051919050565b7f416363657373436f6e74726f6c3a206163636f756e7420000000000000000000815260008351612e65816017850160208801612865565b7001034b99036b4b9b9b4b733903937b6329607d1b6017918401918201528351612e96816028840160208801612865565b01602801949350505050565b600081612eb157612eb1612c3f565b506000190190565b6001600160a01b0385811682528416602082015260408101839052608060608201819052600090612eec90830184612891565b9695505050505050565b600060208284031215612f0857600080fd5b8151611f688161273c565b634e487b7160e01b600052602160045260246000fdfe850d585eb7f024ccee5e68e55f2c26cc72e1e6ee456acf62135757a5eb9d4a10ddf252ad1be2c89b69c2b068fc378daa952ba7f163c4a11628f55a4df523b3efa2646970667358221220bc2c08163133c1c638ebe02a3c746945b6f7873b4d3e127ebe163b1d9f4bef2364736f6c63430008090033",
  "linkReferences": {},
  "deployedLinkReferences": {}
}