{
  "_format": "hh-sol-artifact-1",
  "contractName": "CashCowsClub",
  "sourceName": "contracts/phase3/CashCowsClub.sol",
  "abi": [
    {
      "inputs": [
        {
          "internalType": "string",
          "name": "preview",
          "type": "string"
        },
        {
          "internalType": "address",
          "name": "admin",
          "type": "address"
        }
      ],
      "stateMutability": "nonpayable",
      "type": "constructor"
    },
    {
      "inputs": [],
      "name": "ApprovalOwnerIsOperator",
      "type": "error"
    },
    {
      "inputs": [],
      "name": "ApprovalToCurrentOwner",
      "type": "error"
    },
    {
      "inputs": [],
      "name": "BalanceQueryZeroAddress",
      "type": "error"
    },
    {
      "inputs": [],
      "name": "ERC721ReceiverNotReceived",
      "type": "error"
    },
    {
      "inputs": [],
      "name": "InvalidCall",
      "type": "error"
    },
    {
      "inputs": [],
      "name": "NonExistentToken",
      "type": "error"
    },
    {
      "inputs": [],
      "name": "NotERC721Receiver",
      "type": "error"
    },
    {
      "anonymous": false,
      "inputs": [
        {
          "indexed": true,
          "internalType": "address",
          "name": "owner",
          "type": "address"
        },
        {
          "indexed": true,
          "internalType": "address",
          "name": "approved",
          "type": "address"
        },
        {
          "indexed": true,
          "internalType": "uint256",
          "name": "tokenId",
          "type": "uint256"
        }
      ],
      "name": "Approval",
      "type": "event"
    },
    {
      "anonymous": false,
      "inputs": [
        {
          "indexed": true,
          "internalType": "address",
          "name": "owner",
          "type": "address"
        },
        {
          "indexed": true,
          "internalType": "address",
          "name": "operator",
          "type": "address"
        },
        {
          "indexed": false,
          "internalType": "bool",
          "name": "approved",
          "type": "bool"
        }
      ],
      "name": "ApprovalForAll",
      "type": "event"
    },
    {
      "anonymous": false,
      "inputs": [
        {
          "indexed": true,
          "internalType": "address",
          "name": "previousOwner",
          "type": "address"
        },
        {
          "indexed": true,
          "internalType": "address",
          "name": "newOwner",
          "type": "address"
        }
      ],
      "name": "OwnershipTransferred",
      "type": "event"
    },
    {
      "anonymous": false,
      "inputs": [
        {
          "indexed": true,
          "internalType": "bytes32",
          "name": "role",
          "type": "bytes32"
        },
        {
          "indexed": true,
          "internalType": "bytes32",
          "name": "previousAdminRole",
          "type": "bytes32"
        },
        {
          "indexed": true,
          "internalType": "bytes32",
          "name": "newAdminRole",
          "type": "bytes32"
        }
      ],
      "name": "RoleAdminChanged",
      "type": "event"
    },
    {
      "anonymous": false,
      "inputs": [
        {
          "indexed": true,
          "internalType": "bytes32",
          "name": "role",
          "type": "bytes32"
        },
        {
          "indexed": true,
          "internalType": "address",
          "name": "account",
          "type": "address"
        },
        {
          "indexed": true,
          "internalType": "address",
          "name": "sender",
          "type": "address"
        }
      ],
      "name": "RoleGranted",
      "type": "event"
    },
    {
      "anonymous": false,
      "inputs": [
        {
          "indexed": true,
          "internalType": "bytes32",
          "name": "role",
          "type": "bytes32"
        },
        {
          "indexed": true,
          "internalType": "address",
          "name": "account",
          "type": "address"
        },
        {
          "indexed": true,
          "internalType": "address",
          "name": "sender",
          "type": "address"
        }
      ],
      "name": "RoleRevoked",
      "type": "event"
    },
    {
      "anonymous": false,
      "inputs": [
        {
          "indexed": true,
          "internalType": "address",
          "name": "from",
          "type": "address"
        },
        {
          "indexed": true,
          "internalType": "address",
          "name": "to",
          "type": "address"
        },
        {
          "indexed": true,
          "internalType": "uint256",
          "name": "tokenId",
          "type": "uint256"
        }
      ],
      "name": "Transfer",
      "type": "event"
    },
    {
      "inputs": [],
      "name": "DEFAULT_ADMIN_ROLE",
      "outputs": [
        {
          "internalType": "bytes32",
          "name": "",
          "type": "bytes32"
        }
      ],
      "stateMutability": "view",
      "type": "function"
    },
    {
      "inputs": [],
      "name": "MAX_PUBLIC",
      "outputs": [
        {
          "internalType": "uint16",
          "name": "",
          "type": "uint16"
        }
      ],
      "stateMutability": "view",
      "type": "function"
    },
    {
      "inputs": [],
      "name": "MAX_SUPPLY",
      "outputs": [
        {
          "internalType": "uint16",
          "name": "",
          "type": "uint16"
        }
      ],
      "stateMutability": "view",
      "type": "function"
    },
    {
      "inputs": [
        {
          "internalType": "uint256",
          "name": "",
          "type": "uint256"
        }
      ],
      "name": "_burned",
      "outputs": [
        {
          "internalType": "address",
          "name": "",
          "type": "address"
        }
      ],
      "stateMutability": "view",
      "type": "function"
    },
    {
      "inputs": [
        {
          "internalType": "address",
          "name": "to",
          "type": "address"
        },
        {
          "internalType": "uint256",
          "name": "tokenId",
          "type": "uint256"
        }
      ],
      "name": "approve",
      "outputs": [],
      "stateMutability": "nonpayable",
      "type": "function"
    },
    {
      "inputs": [
        {
          "internalType": "address",
          "name": "owner",
          "type": "address"
        }
      ],
      "name": "balanceOf",
      "outputs": [
        {
          "internalType": "uint256",
          "name": "",
          "type": "uint256"
        }
      ],
      "stateMutability": "view",
      "type": "function"
    },
    {
      "inputs": [
        {
          "internalType": "uint256",
          "name": "tokenId",
          "type": "uint256"
        }
      ],
      "name": "burn",
      "outputs": [],
      "stateMutability": "nonpayable",
      "type": "function"
    },
    {
      "inputs": [
        {
          "internalType": "uint256",
          "name": "tokenId",
          "type": "uint256"
        }
      ],
      "name": "burnerOf",
      "outputs": [
        {
          "internalType": "address",
          "name": "",
          "type": "address"
        }
      ],
      "stateMutability": "view",
      "type": "function"
    },
    {
      "inputs": [],
      "name": "contractURI",
      "outputs": [
        {
          "internalType": "string",
          "name": "",
          "type": "string"
        }
      ],
      "stateMutability": "view",
      "type": "function"
    },
    {
      "inputs": [
        {
          "internalType": "uint256",
          "name": "tokenId",
          "type": "uint256"
        }
      ],
      "name": "getApproved",
      "outputs": [
        {
          "internalType": "address",
          "name": "",
          "type": "address"
        }
      ],
      "stateMutability": "view",
      "type": "function"
    },
    {
      "inputs": [
        {
          "internalType": "bytes32",
          "name": "role",
          "type": "bytes32"
        }
      ],
      "name": "getRoleAdmin",
      "outputs": [
        {
          "internalType": "bytes32",
          "name": "",
          "type": "bytes32"
        }
      ],
      "stateMutability": "view",
      "type": "function"
    },
    {
      "inputs": [
        {
          "internalType": "bytes32",
          "name": "role",
          "type": "bytes32"
        },
        {
          "internalType": "address",
          "name": "account",
          "type": "address"
        }
      ],
      "name": "grantRole",
      "outputs": [],
      "stateMutability": "nonpayable",
      "type": "function"
    },
    {
      "inputs": [
        {
          "internalType": "bytes32",
          "name": "role",
          "type": "bytes32"
        },
        {
          "internalType": "address",
          "name": "account",
          "type": "address"
        }
      ],
      "name": "hasRole",
      "outputs": [
        {
          "internalType": "bool",
          "name": "",
          "type": "bool"
        }
      ],
      "stateMutability": "view",
      "type": "function"
    },
    {
      "inputs": [
        {
          "internalType": "address",
          "name": "owner",
          "type": "address"
        },
        {
          "internalType": "address",
          "name": "operator",
          "type": "address"
        }
      ],
      "name": "isApprovedForAll",
      "outputs": [
        {
          "internalType": "bool",
          "name": "",
          "type": "bool"
        }
      ],
      "stateMutability": "view",
      "type": "function"
    },
    {
      "inputs": [],
      "name": "lastId",
      "outputs": [
        {
          "internalType": "uint256",
          "name": "",
          "type": "uint256"
        }
      ],
      "stateMutability": "view",
      "type": "function"
    },
    {
      "inputs": [],
      "name": "maxMint",
      "outputs": [
        {
          "internalType": "uint256",
          "name": "",
          "type": "uint256"
        }
      ],
      "stateMutability": "view",
      "type": "function"
    },
    {
      "inputs": [
        {
          "internalType": "uint256",
          "name": "quantity",
          "type": "uint256"
        }
      ],
      "name": "mint",
      "outputs": [],
      "stateMutability": "payable",
      "type": "function"
    },
    {
      "inputs": [
        {
          "internalType": "uint256",
          "name": "quantity",
          "type": "uint256"
        },
        {
          "internalType": "bytes",
          "name": "proof",
          "type": "bytes"
        }
      ],
      "name": "mint",
      "outputs": [],
      "stateMutability": "payable",
      "type": "function"
    },
    {
      "inputs": [],
      "name": "mintOpened",
      "outputs": [
        {
          "internalType": "bool",
          "name": "",
          "type": "bool"
        }
      ],
      "stateMutability": "view",
      "type": "function"
    },
    {
      "inputs": [],
      "name": "mintPrice",
      "outputs": [
        {
          "internalType": "uint256",
          "name": "",
          "type": "uint256"
        }
      ],
      "stateMutability": "view",
      "type": "function"
    },
    {
      "inputs": [
        {
          "internalType": "address",
          "name": "",
          "type": "address"
        }
      ],
      "name": "minted",
      "outputs": [
        {
          "internalType": "uint256",
          "name": "",
          "type": "uint256"
        }
      ],
      "stateMutability": "view",
      "type": "function"
    },
    {
      "inputs": [],
      "name": "name",
      "outputs": [
        {
          "internalType": "string",
          "name": "",
          "type": "string"
        }
      ],
      "stateMutability": "pure",
      "type": "function"
    },
    {
      "inputs": [
        {
          "internalType": "bool",
          "name": "yes",
          "type": "bool"
        }
      ],
      "name": "openMint",
      "outputs": [],
      "stateMutability": "nonpayable",
      "type": "function"
    },
    {
      "inputs": [],
      "name": "owner",
      "outputs": [
        {
          "internalType": "address",
          "name": "",
          "type": "address"
        }
      ],
      "stateMutability": "view",
      "type": "function"
    },
    {
      "inputs": [
        {
          "internalType": "uint256",
          "name": "tokenId",
          "type": "uint256"
        }
      ],
      "name": "ownerOf",
      "outputs": [
        {
          "internalType": "address",
          "name": "",
          "type": "address"
        }
      ],
      "stateMutability": "view",
      "type": "function"
    },
    {
      "inputs": [
        {
          "internalType": "address",
          "name": "owner",
          "type": "address"
        }
      ],
      "name": "ownerTokens",
      "outputs": [
        {
          "internalType": "uint256[]",
          "name": "",
          "type": "uint256[]"
        }
      ],
      "stateMutability": "view",
      "type": "function"
    },
    {
      "inputs": [
        {
          "internalType": "address",
          "name": "owner",
          "type": "address"
        },
        {
          "internalType": "uint256[]",
          "name": "tokenIds",
          "type": "uint256[]"
        }
      ],
      "name": "ownsAll",
      "outputs": [
        {
          "internalType": "bool",
          "name": "",
          "type": "bool"
        }
      ],
      "stateMutability": "view",
      "type": "function"
    },
    {
      "inputs": [
        {
          "internalType": "uint256",
          "name": "quantity",
          "type": "uint256"
        }
      ],
      "name": "redeem",
      "outputs": [],
      "stateMutability": "nonpayable",
      "type": "function"
    },
    {
      "inputs": [],
      "name": "renounceOwnership",
      "outputs": [],
      "stateMutability": "nonpayable",
      "type": "function"
    },
    {
      "inputs": [
        {
          "internalType": "bytes32",
          "name": "role",
          "type": "bytes32"
        },
        {
          "internalType": "address",
          "name": "account",
          "type": "address"
        }
      ],
      "name": "renounceRole",
      "outputs": [],
      "stateMutability": "nonpayable",
      "type": "function"
    },
    {
      "inputs": [
        {
          "internalType": "bytes32",
          "name": "role",
          "type": "bytes32"
        },
        {
          "internalType": "address",
          "name": "account",
          "type": "address"
        }
      ],
      "name": "revokeRole",
      "outputs": [],
      "stateMutability": "nonpayable",
      "type": "function"
    },
    {
      "inputs": [
        {
          "internalType": "uint256",
          "name": "_tokenId",
          "type": "uint256"
        },
        {
          "internalType": "uint256",
          "name": "_salePrice",
          "type": "uint256"
        }
      ],
      "name": "royaltyInfo",
      "outputs": [
        {
          "internalType": "address",
          "name": "receiver",
          "type": "address"
        },
        {
          "internalType": "uint256",
          "name": "royaltyAmount",
          "type": "uint256"
        }
      ],
      "stateMutability": "view",
      "type": "function"
    },
    {
      "inputs": [],
      "name": "royaltyPercent",
      "outputs": [
        {
          "internalType": "uint256",
          "name": "",
          "type": "uint256"
        }
      ],
      "stateMutability": "view",
      "type": "function"
    },
    {
      "inputs": [
        {
          "internalType": "address",
          "name": "from",
          "type": "address"
        },
        {
          "internalType": "address",
          "name": "to",
          "type": "address"
        },
        {
          "internalType": "uint256",
          "name": "tokenId",
          "type": "uint256"
        }
      ],
      "name": "safeTransferFrom",
      "outputs": [],
      "stateMutability": "nonpayable",
      "type": "function"
    },
    {
      "inputs": [
        {
          "internalType": "address",
          "name": "from",
          "type": "address"
        },
        {
          "internalType": "address",
          "name": "to",
          "type": "address"
        },
        {
          "internalType": "uint256",
          "name": "tokenId",
          "type": "uint256"
        },
        {
          "internalType": "bytes",
          "name": "_data",
          "type": "bytes"
        }
      ],
      "name": "safeTransferFrom",
      "outputs": [],
      "stateMutability": "nonpayable",
      "type": "function"
    },
    {
      "inputs": [
        {
          "internalType": "address",
          "name": "operator",
          "type": "address"
        },
        {
          "internalType": "bool",
          "name": "approved",
          "type": "bool"
        }
      ],
      "name": "setApprovalForAll",
      "outputs": [],
      "stateMutability": "nonpayable",
      "type": "function"
    },
    {
      "inputs": [
        {
          "internalType": "uint256",
          "name": "max",
          "type": "uint256"
        }
      ],
      "name": "setMaxMint",
      "outputs": [],
      "stateMutability": "nonpayable",
      "type": "function"
    },
    {
      "inputs": [
        {
          "internalType": "uint256",
          "name": "price",
          "type": "uint256"
        }
      ],
      "name": "setMintPrice",
      "outputs": [],
      "stateMutability": "nonpayable",
      "type": "function"
    },
    {
      "inputs": [
        {
          "internalType": "contract IRedeemable",
          "name": "redeemable",
          "type": "address"
        },
        {
          "internalType": "uint256",
          "name": "exchange",
          "type": "uint256"
        }
      ],
      "name": "setRedeemable",
      "outputs": [],
      "stateMutability": "nonpayable",
      "type": "function"
    },
    {
      "inputs": [
        {
          "internalType": "string",
          "name": "uri",
          "type": "string"
        }
      ],
      "name": "setURI",
      "outputs": [],
      "stateMutability": "nonpayable",
      "type": "function"
    },
    {
      "inputs": [
        {
          "internalType": "bytes4",
          "name": "interfaceId",
          "type": "bytes4"
        }
      ],
      "name": "supportsInterface",
      "outputs": [
        {
          "internalType": "bool",
          "name": "",
          "type": "bool"
        }
      ],
      "stateMutability": "view",
      "type": "function"
    },
    {
      "inputs": [],
      "name": "symbol",
      "outputs": [
        {
          "internalType": "string",
          "name": "",
          "type": "string"
        }
      ],
      "stateMutability": "pure",
      "type": "function"
    },
    {
      "inputs": [
        {
          "internalType": "uint256",
          "name": "tokenId",
          "type": "uint256"
        }
      ],
      "name": "tokenURI",
      "outputs": [
        {
          "internalType": "string",
          "name": "",
          "type": "string"
        }
      ],
      "stateMutability": "view",
      "type": "function"
    },
    {
      "inputs": [],
      "name": "totalBurned",
      "outputs": [
        {
          "internalType": "uint256",
          "name": "",
          "type": "uint256"
        }
      ],
      "stateMutability": "view",
      "type": "function"
    },
    {
      "inputs": [],
      "name": "totalSupply",
      "outputs": [
        {
          "internalType": "uint256",
          "name": "",
          "type": "uint256"
        }
      ],
      "stateMutability": "view",
      "type": "function"
    },
    {
      "inputs": [
        {
          "internalType": "address",
          "name": "from",
          "type": "address"
        },
        {
          "internalType": "address",
          "name": "to",
          "type": "address"
        },
        {
          "internalType": "uint256",
          "name": "tokenId",
          "type": "uint256"
        }
      ],
      "name": "transferFrom",
      "outputs": [],
      "stateMutability": "nonpayable",
      "type": "function"
    },
    {
      "inputs": [
        {
          "internalType": "address",
          "name": "newOwner",
          "type": "address"
        }
      ],
      "name": "transferOwnership",
      "outputs": [],
      "stateMutability": "nonpayable",
      "type": "function"
    },
    {
      "inputs": [],
      "name": "treasury",
      "outputs": [
        {
          "internalType": "contract IRoyaltySplitter",
          "name": "",
          "type": "address"
        }
      ],
      "stateMutability": "view",
      "type": "function"
    },
    {
      "inputs": [
        {
          "internalType": "contract IMetadata",
          "name": "metadata",
          "type": "address"
        }
      ],
      "name": "updateMetadata",
      "outputs": [],
      "stateMutability": "nonpayable",
      "type": "function"
    },
    {
      "inputs": [
        {
          "internalType": "uint256",
          "name": "percent",
          "type": "uint256"
        }
      ],
      "name": "updateRoyalty",
      "outputs": [],
      "stateMutability": "nonpayable",
      "type": "function"
    },
    {
      "inputs": [
        {
          "internalType": "contract IRoyaltySplitter",
          "name": "splitter",
          "type": "address"
        }
      ],
      "name": "updateTreasury",
      "outputs": [],
      "stateMutability": "nonpayable",
      "type": "function"
    },
    {
      "inputs": [
        {
          "internalType": "address",
          "name": "recipient",
          "type": "address"
        }
      ],
      "name": "withdraw",
      "outputs": [],
      "stateMutability": "nonpayable",
      "type": "function"
    }
  ],
  "bytecode": "0x60806040526103e8600e553480156200001757600080fd5b506040516200338d3803806200338d8339810160408190526200003a9162000258565b600160005581816200004c3362000079565b62000059600082620000cb565b81516200006e90600b9060208501906200017f565b505050505062000386565b600180546001600160a01b038381166001600160a01b0319831681179093556040519116919082907f8be0079c531659141344cd1fd0a4f28419497f9722a3daafe3b4186f6b6457e090600090a35050565b620000d78282620000db565b5050565b60008281526002602090815260408083206001600160a01b038516845290915290205460ff16620000d75760008281526002602090815260408083206001600160a01b03851684529091529020805460ff191660011790556200013b3390565b6001600160a01b0316816001600160a01b0316837f2f8788117e7eff1d82e926ec794901d17c78024a50270940304540a733656f0d60405160405180910390a45050565b8280546200018d9062000349565b90600052602060002090601f016020900481019282620001b15760008555620001fc565b82601f10620001cc57805160ff1916838001178555620001fc565b82800160010185558215620001fc579182015b82811115620001fc578251825591602001919060010190620001df565b506200020a9291506200020e565b5090565b5b808211156200020a57600081556001016200020f565b634e487b7160e01b600052604160045260246000fd5b80516001600160a01b03811681146200025357600080fd5b919050565b600080604083850312156200026c57600080fd5b82516001600160401b03808211156200028457600080fd5b818501915085601f8301126200029957600080fd5b815181811115620002ae57620002ae62000225565b604051601f8201601f19908116603f01168101908382118183101715620002d957620002d962000225565b81604052828152602093508884848701011115620002f657600080fd5b600091505b828210156200031a5784820184015181830185015290830190620002fb565b828211156200032c5760008484830101525b95506200033e9150508582016200023b565b925050509250929050565b600181811c908216806200035e57607f821691505b602082108114156200038057634e487b7160e01b600052602260045260246000fd5b50919050565b612ff780620003966000396000f3fe6080604052600436106102ff5760003560e01c8063804d5efd11610190578063bba7723e116100dc578063d89135cd11610095578063e8a3d4851161006f578063e8a3d4851461096b578063e985e9c514610980578063f2fde38b146109a0578063f4a0a528146109c057600080fd5b8063d89135cd14610923578063db006a7514610938578063db7fd4081461095857600080fd5b8063bba7723e1461084b578063c1292cc314610878578063c5e2a7db1461088d578063c87b56dd146108ad578063ca0df4a1146108cd578063d547741f1461090357600080fd5b80639b70a34011610149578063a217fddf11610123578063a217fddf146107d6578063a22cb465146107eb578063ad94d9011461080b578063b88d4fde1461082b57600080fd5b80639b70a340146107935780639f67756d146107ad578063a0712d68146107c357600080fd5b8063804d5efd146106bc5780638da5cb5b146106f25780638fffd8b51461071057806391d148541461073057806395d89b41146107505780639753eac01461077d57600080fd5b806336568abe1161024f57806361d027b31161020857806370a08231116101e257806370a0823114610651578063715018a6146106715780637501f741146106865780637f51bb1f1461069c57600080fd5b806361d027b3146105fb5780636352211e1461061b5780636817c76c1461063b57600080fd5b806336568abe1461053b57806342842e0e1461055b57806342966c681461057b57806351cff8d91461059b578063547520fe146105bb57806358a85bca146105db57600080fd5b80631e7269c5116102bc5780632a55205a116102965780632a55205a146104935780632f2ff15d146104d25780633202e76b146104f257806332cb6b0c1461051257600080fd5b80631e7269c51461041657806323b872dd14610443578063248a9ca31461046357600080fd5b806301ffc9a71461030457806302fe53051461033957806306fdde031461035b578063081812fc1461039b578063095ea7b3146103d357806318160ddd146103f3575b600080fd5b34801561031057600080fd5b5061032461031f3660046127aa565b6109e0565b60405190151581526020015b60405180910390f35b34801561034557600080fd5b50610359610354366004612874565b610a26565b005b34801561036757600080fd5b5060408051808201909152600e81526d21b0b9b41021b7bbb99021b63ab160911b60208201525b6040516103309190612915565b3480156103a757600080fd5b506103bb6103b6366004612928565b610a4c565b6040516001600160a01b039091168152602001610330565b3480156103df57600080fd5b506103596103ee366004612956565b610a90565b3480156103ff57600080fd5b50610408610b20565b604051908152602001610330565b34801561042257600080fd5b50610408610431366004612982565b600f6020526000908152604090205481565b34801561044f57600080fd5b5061035961045e36600461299f565b610b3d565b34801561046f57600080fd5b5061040861047e366004612928565b60009081526002602052604090206001015490565b34801561049f57600080fd5b506104b36104ae3660046129e0565b610b4e565b604080516001600160a01b039093168352602083019190915201610330565b3480156104de57600080fd5b506103596104ed366004612a02565b610bc5565b3480156104fe57600080fd5b5061035961050d366004612956565b610beb565b34801561051e57600080fd5b506105286107d081565b60405161ffff9091168152602001610330565b34801561054757600080fd5b50610359610556366004612a02565b610c31565b34801561056757600080fd5b5061035961057636600461299f565b610cb0565b34801561058757600080fd5b50610359610596366004612928565b610ccb565b3480156105a757600080fd5b506103596105b6366004612982565b610d14565b3480156105c757600080fd5b506103596105d6366004612928565b610e26565b3480156105e757600080fd5b506103596105f6366004612a47565b610e45565b34801561060757600080fd5b50600d546103bb906001600160a01b031681565b34801561062757600080fd5b506103bb610636366004612928565b610e72565b34801561064757600080fd5b5061040860105481565b34801561065d57600080fd5b5061040861066c366004612982565b610eb1565b34801561067d57600080fd5b50610359610ef6565b34801561069257600080fd5b5061040860115481565b3480156106a857600080fd5b506103596106b7366004612982565b610f2c565b3480156106c857600080fd5b506103bb6106d7366004612928565b6009602052600090815260409020546001600160a01b031681565b3480156106fe57600080fd5b506001546001600160a01b03166103bb565b34801561071c57600080fd5b5061035961072b366004612928565b610f68565b34801561073c57600080fd5b5061032461074b366004612a02565b610fbc565b34801561075c57600080fd5b506040805180820190915260048152634d4f4f4f60e01b602082015261038e565b34801561078957600080fd5b506105286103e881565b34801561079f57600080fd5b506012546103249060ff1681565b3480156107b957600080fd5b50610408600e5481565b6103596107d1366004612928565b610fe7565b3480156107e257600080fd5b50610408600081565b3480156107f757600080fd5b50610359610806366004612a62565b6110dc565b34801561081757600080fd5b50610324610826366004612a97565b6110e7565b34801561083757600080fd5b50610359610846366004612b72565b611154565b34801561085757600080fd5b5061086b610866366004612982565b611160565b6040516103309190612bde565b34801561088457600080fd5b50610408611284565b34801561089957600080fd5b506103596108a8366004612982565b61128f565b3480156108b957600080fd5b5061038e6108c8366004612928565b6112cb565b3480156108d957600080fd5b506103bb6108e8366004612928565b6000908152600960205260409020546001600160a01b031690565b34801561090f57600080fd5b5061035961091e366004612a02565b611415565b34801561092f57600080fd5b50600a54610408565b34801561094457600080fd5b50610359610953366004612928565b61143b565b610359610966366004612c22565b611572565b34801561097757600080fd5b5061038e611725565b34801561098c57600080fd5b5061032461099b366004612c69565b6117b7565b3480156109ac57600080fd5b506103596109bb366004612982565b6117e5565b3480156109cc57600080fd5b506103596109db366004612928565b61187d565b60006001600160e01b03198216635b5e139f60e01b1480610a1157506001600160e01b0319821663152a902d60e11b145b80610a205750610a208261189c565b92915050565b600080516020612f82833981519152610a3f81336118c1565b610a4882611925565b5050565b6000610a5782611938565b610a7457604051634a1850bf60e11b815260040160405180910390fd5b506000908152600660205260409020546001600160a01b031690565b6000610a9b82611961565b9050806001600160a01b0316836001600160a01b03161415610ad05760405163250fdee360e21b815260040160405180910390fd5b336001600160a01b0382168114801590610af15750610aef82826117b7565b155b15610b0f5760405163250fdee360e21b815260040160405180910390fd5b610b1a848484611a1e565b50505050565b6000600a54610b2e60035490565b610b389190612cad565b905090565b610b4933848484611a7a565b505050565b600d5460009081906001600160a01b03161580610b715750610b6f84611938565b155b15610b8f5760405163574b16a760e11b815260040160405180910390fd5b600d54600e546001600160a01b039091169061271090610baf9086612cc4565b610bb99190612ce3565b915091505b9250929050565b600082815260026020526040902060010154610be181336118c1565b610b498383611aad565b600080516020612f82833981519152610c0481336118c1565b50601280546001600160a01b0390931661010002610100600160a81b031990931692909217909155601355565b6001600160a01b0381163314610ca65760405162461bcd60e51b815260206004820152602f60248201527f416363657373436f6e74726f6c3a2063616e206f6e6c792072656e6f756e636560448201526e103937b632b9903337b91039b2b63360891b60648201526084015b60405180910390fd5b610a488282611b33565b610b4983838360405180602001604052806000815250611154565b600d546001600160a01b0316336001600160a01b031614610cff5760405163574b16a760e11b815260040160405180910390fd5b610d1181610d0c83611961565b611b9a565b50565b6001546001600160a01b03163314610d3e5760405162461bcd60e51b8152600401610c9d90612d05565b60026000541415610d615760405162461bcd60e51b8152600401610c9d90612d3a565b6002600055600c546001600160a01b03161580610d875750600d546001600160a01b0316155b15610da55760405163574b16a760e11b815260040160405180910390fd5b600d546001600160a01b03166108fc610dbf600247612ce3565b6040518115909202916000818181858888f19350505050158015610de7573d6000803e3d6000fd5b506040516001600160a01b038216904780156108fc02916000818181858888f19350505050158015610e1d573d6000803e3d6000fd5b50506001600055565b600080516020612f82833981519152610e3f81336118c1565b50601155565b600080516020612f82833981519152610e5e81336118c1565b506012805460ff1916911515919091179055565b6000818152600960205260408120546001600160a01b031615610ea857604051634a1850bf60e11b815260040160405180910390fd5b610a2082611961565b60006001600160a01b038216610eda576040516316285dcb60e11b815260040160405180910390fd5b506001600160a01b031660009081526005602052604090205490565b6001546001600160a01b03163314610f205760405162461bcd60e51b8152600401610c9d90612d05565b610f2a6000611c7a565b565b600080516020612f82833981519152610f4581336118c1565b50600d80546001600160a01b0319166001600160a01b0392909216919091179055565b7f3b5d4cc60d3ec3516ee8ae083bd60934f6eb2a6c54b1229985c41bfb092b2603610f9381336118c1565b6103e8821115610fb65760405163574b16a760e11b815260040160405180910390fd5b50600e55565b60009182526002602090815260408084206001600160a01b0393909316845291905290205460ff1690565b6002600054141561100a5760405162461bcd60e51b8152600401610c9d90612d3a565b600260005533803b151580611022575060125460ff16155b80611039575034601054836110379190612cc4565b115b8061106857506011546001600160a01b0382166000908152600f6020526040902054611066908490612d71565b115b8061108657506103e88261107a611284565b6110849190612d71565b115b156110a45760405163574b16a760e11b815260040160405180910390fd5b6001600160a01b0381166000908152600f6020526040812080548492906110cc908490612d71565b90915550610e1d90508183611ccc565b610a48338383611ce6565b6000805b825181101561114a5761111683828151811061110957611109612d89565b6020026020010151610e72565b6001600160a01b0316846001600160a01b031614611138576000915050610a20565b8061114281612d9f565b9150506110eb565b5060019392505050565b610b1a84848484611d86565b6060600061116d83610eb1565b90508061118e5760408051600080825260208201909252905b509392505050565b60008167ffffffffffffffff8111156111a9576111a96127c7565b6040519080825280602002602001820160405280156111d2578160200160208202803683370190505b50905060006111df611284565b9050600060015b828111611279576000818152600960205260409020546001600160a01b031615801561122b575061121681610e72565b6001600160a01b0316876001600160a01b0316145b156112675780848361123c81612d9f565b94508151811061124e5761124e612d89565b6020026020010181815250508482141561126757611279565b8061127181612d9f565b9150506111e6565b509195945050505050565b6000610b3860035490565b600080516020612f828339815191526112a881336118c1565b50600c80546001600160a01b0319166001600160a01b0392909216919091179055565b60606112d682611938565b6112f35760405163574b16a760e11b815260040160405180910390fd5b600c546001600160a01b031661139557600b805461131090612dba565b80601f016020809104026020016040519081016040528092919081815260200182805461133c90612dba565b80156113895780601f1061135e57610100808354040283529160200191611389565b820191906000526020600020905b81548152906001019060200180831161136c57829003601f168201915b50505050509050919050565b600c5460405163c87b56dd60e01b8152600481018490526001600160a01b039091169063c87b56dd9060240160006040518083038186803b1580156113d957600080fd5b505afa1580156113ed573d6000803e3d6000fd5b505050506040513d6000823e601f3d908101601f19168201604052610a209190810190612df5565b60008281526002602052604090206001015461143181336118c1565b610b498383611b33565b6000336013546012546040516370a0823160e01b81526001600160a01b038085166004830152939450600093610100909204909116906370a082319060240160206040518083038186803b15801561149257600080fd5b505afa1580156114a6573d6000803e3d6000fd5b505050506040513d601f19601f820116820180604052508101906114ca9190612e6c565b6114d49190612ce3565b6001600160a01b0383166000908152600f602052604090205490915081906114fd908590612d71565b118061151c57506107d083611510611284565b61151a9190612d71565b115b1561153a5760405163574b16a760e11b815260040160405180910390fd5b6001600160a01b0382166000908152600f602052604081208054859290611562908490612d71565b90915550610b4990508284611ccc565b600260005414156115955760405162461bcd60e51b8152600401610c9d90612d3a565b600260005533803b1515806115b6575034601054846115b49190612cc4565b115b806115e557506011546001600160a01b0382166000908152600f60205260409020546115e3908590612d71565b115b8061160357506103e8836115f7611284565b6116019190612d71565b115b806116c5575060408051631b5a5b9d60e21b602080830191909152606084901b6bffffffffffffffffffffffff19166024830152825160188184030181526038830184528051908201207f19457468657265756d205369676e6564204d6573736167653a0a333200000000605884015260748084019190915283518084039091018152609490920190925280519101206116c3907f9f2df0fed2c77648de5860a4cc508cd0818c85b8b8a1ab4ceeef8d981c8956a69061074b9085611dd3565b155b156116e35760405163574b16a760e11b815260040160405180910390fd5b6001600160a01b0381166000908152600f60205260408120805485929061170b908490612d71565b9091555061171b90508184611ccc565b5050600160005550565b60606008805461173490612dba565b80601f016020809104026020016040519081016040528092919081815260200182805461176090612dba565b80156117ad5780601f10611782576101008083540402835291602001916117ad565b820191906000526020600020905b81548152906001019060200180831161179057829003601f168201915b5050505050905090565b6001600160a01b03918216600090815260076020908152604080832093909416825291909152205460ff1690565b6001546001600160a01b0316331461180f5760405162461bcd60e51b8152600401610c9d90612d05565b6001600160a01b0381166118745760405162461bcd60e51b815260206004820152602660248201527f4f776e61626c653a206e6577206f776e657220697320746865207a65726f206160448201526564647265737360d01b6064820152608401610c9d565b610d1181611c7a565b600080516020612f8283398151915261189681336118c1565b50601055565b60006001600160e01b031982166380ac58cd60e01b1480610a205750610a2082611def565b6118cb8282610fbc565b610a48576118e3816001600160a01b03166014611e24565b6118ee836020611e24565b6040516020016118ff929190612e85565b60408051601f198184030181529082905262461bcd60e51b8252610c9d91600401612915565b8051610a489060089060208401906126fb565b6000818152600960205260408120546001600160a01b0316158015610a205750610a2082611fc7565b60008181526004602052604081205482906001600160a01b03161561199e576000908152600460205260409020546001600160a01b031692915050565b6000811180156119b057506003548111155b15611a04575b60001901806119c457611a04565b6000818152600460205260409020546001600160a01b0316156119ff576000908152600460205260409020546001600160a01b031692915050565b6119b6565b50604051634a1850bf60e11b815260040160405180910390fd5b60008281526006602052604080822080546001600160a01b0319166001600160a01b0387811691821790925591518593918516917f8c5be1e5ebec7d5bd14f71427d1e84f3dd0314c0f7b2291e5b200ac8c7c3b92591a4505050565b611a85848285611fdc565b611aa25760405163574b16a760e11b815260040160405180910390fd5b610b1a83838361202f565b611ab78282610fbc565b610a485760008281526002602090815260408083206001600160a01b03851684529091529020805460ff19166001179055611aef3390565b6001600160a01b0316816001600160a01b0316837f2f8788117e7eff1d82e926ec794901d17c78024a50270940304540a733656f0d60405160405180910390a45050565b611b3d8282610fbc565b15610a485760008281526002602090815260408083206001600160a01b0385168085529252808320805460ff1916905551339285917ff6391f5c32d9c69d2a47ea670b442974b53935d1edc7fd64eb21e047a839171b9190a45050565b611ba660008383611a1e565b60018201611bb381611938565b8015611bd457506000818152600460205260409020546001600160a01b0316155b15611c0157600081815260046020526040902080546001600160a01b0319166001600160a01b0384161790555b50600082815260096020908152604080832080546001600160a01b0386166001600160a01b0319918216811790925581855260058452828520805460001901905586855260049093528184208054909316909255600a805460010190555184929190600080516020612fa2833981519152908390a45050565b600180546001600160a01b038381166001600160a01b0319831681179093556040519116919082907f8be0079c531659141344cd1fd0a4f28419497f9722a3daafe3b4186f6b6457e090600090a35050565b610a48828260405180602001604052806000815250612167565b816001600160a01b0316836001600160a01b03161415611d195760405163079f14e360e51b815260040160405180910390fd5b6001600160a01b03838116600081815260076020908152604080832094871680845294825291829020805460ff191686151590811790915591519182527f17307eab39ab6107e8899845ad3d59bd9653f200f220920489ca2b5937696c31910160405180910390a3505050565b611d9233858585611a7a565b6000836001600160a01b03163b118015611db55750611db384848484612174565b155b15610b1a57604051631f11849560e21b815260040160405180910390fd5b6000806000611de2858561226b565b91509150611186816122d8565b60006001600160e01b03198216637965db0b60e01b1480610a2057506301ffc9a760e01b6001600160e01b0319831614610a20565b60606000611e33836002612cc4565b611e3e906002612d71565b67ffffffffffffffff811115611e5657611e566127c7565b6040519080825280601f01601f191660200182016040528015611e80576020820181803683370190505b509050600360fc1b81600081518110611e9b57611e9b612d89565b60200101906001600160f81b031916908160001a905350600f60fb1b81600181518110611eca57611eca612d89565b60200101906001600160f81b031916908160001a9053506000611eee846002612cc4565b611ef9906001612d71565b90505b6001811115611f71576f181899199a1a9b1b9c1cb0b131b232b360811b85600f1660108110611f2d57611f2d612d89565b1a60f81b828281518110611f4357611f43612d89565b60200101906001600160f81b031916908160001a90535060049490941c93611f6a81612efa565b9050611efc565b508315611fc05760405162461bcd60e51b815260206004820181905260248201527f537472696e67733a20686578206c656e67746820696e73756666696369656e746044820152606401610c9d565b9392505050565b60008082118015610a20575050600354101590565b6000816001600160a01b0316846001600160a01b031614806120175750836001600160a01b031661200c84610a4c565b6001600160a01b0316145b80612027575061202782856117b7565b949350505050565b6001600160a01b038216158061205f575061204981611961565b6001600160a01b0316836001600160a01b031614155b1561207d5760405163574b16a760e11b815260040160405180910390fd5b61208960008285611a1e565b6001600160a01b03808316600081815260056020908152604080832080546001908101909155948816835280832080546000190190558583526004909152902080546001600160a01b031916909117905560035490820190811180159061210557506000818152600460205260409020546001600160a01b0316155b1561213257600081815260046020526040902080546001600160a01b0319166001600160a01b0386161790555b5080826001600160a01b0316846001600160a01b0316600080516020612fa283398151915260405160405180910390a4505050565b610b498383836001612493565b604051630a85bd0160e11b81526000906001600160a01b0385169063150b7a02906121a9903390899088908890600401612f11565b602060405180830381600087803b1580156121c357600080fd5b505af19250505080156121f3575060408051601f3d908101601f191682019092526121f091810190612f4e565b60015b61224e573d808015612221576040519150601f19603f3d011682016040523d82523d6000602084013e612226565b606091505b50805161224657604051630568cbab60e01b815260040160405180910390fd5b805181602001fd5b6001600160e01b031916630a85bd0160e11b149050949350505050565b6000808251604114156122a25760208301516040840151606085015160001a612296878285856125df565b94509450505050610bbe565b8251604014156122cc57602083015160408401516122c18683836126cc565b935093505050610bbe565b50600090506002610bbe565b60008160048111156122ec576122ec612f6b565b14156122f55750565b600181600481111561230957612309612f6b565b14156123575760405162461bcd60e51b815260206004820152601860248201527f45434453413a20696e76616c6964207369676e617475726500000000000000006044820152606401610c9d565b600281600481111561236b5761236b612f6b565b14156123b95760405162461bcd60e51b815260206004820152601f60248201527f45434453413a20696e76616c6964207369676e6174757265206c656e677468006044820152606401610c9d565b60038160048111156123cd576123cd612f6b565b14156124265760405162461bcd60e51b815260206004820152602260248201527f45434453413a20696e76616c6964207369676e6174757265202773272076616c604482015261756560f01b6064820152608401610c9d565b600481600481111561243a5761243a612f6b565b1415610d115760405162461bcd60e51b815260206004820152602260248201527f45434453413a20696e76616c6964207369676e6174757265202776272076616c604482015261756560f01b6064820152608401610c9d565b8215806124a757506001600160a01b038416155b156124c55760405163574b16a760e11b815260040160405180910390fd5b600060035460016124d69190612d71565b905060038054850190556001600160a01b03851660008181526005602090815260408083208054890190558483526004909152902080546001600160a01b03191690911790558084810183801561253757506000876001600160a01b03163b115b156125a3575b60405182906001600160a01b03891690600090600080516020612fa2833981519152908290a46125766000888480600101955088612174565b61259357604051631f11849560e21b815260040160405180910390fd5b8082141561253d57505050610b1a565b5b6040516001830192906001600160a01b03891690600090600080516020612fa2833981519152908290a4808214156125a45750505050505050565b6000807f7fffffffffffffffffffffffffffffff5d576e7357a4501ddfe92f46681b20a083111561261657506000905060036126c3565b8460ff16601b1415801561262e57508460ff16601c14155b1561263f57506000905060046126c3565b6040805160008082526020820180845289905260ff881692820192909252606081018690526080810185905260019060a0016020604051602081039080840390855afa158015612693573d6000803e3d6000fd5b5050604051601f1901519150506001600160a01b0381166126bc576000600192509250506126c3565b9150600090505b94509492505050565b6000806001600160ff1b03831660ff84901c601b016126ed878288856125df565b935093505050935093915050565b82805461270790612dba565b90600052602060002090601f016020900481019282612729576000855561276f565b82601f1061274257805160ff191683800117855561276f565b8280016001018555821561276f579182015b8281111561276f578251825591602001919060010190612754565b5061277b92915061277f565b5090565b5b8082111561277b5760008155600101612780565b6001600160e01b031981168114610d1157600080fd5b6000602082840312156127bc57600080fd5b8135611fc081612794565b634e487b7160e01b600052604160045260246000fd5b604051601f8201601f1916810167ffffffffffffffff81118282101715612806576128066127c7565b604052919050565b600067ffffffffffffffff821115612828576128286127c7565b50601f01601f191660200190565b60006128496128448461280e565b6127dd565b905082815283838301111561285d57600080fd5b828260208301376000602084830101529392505050565b60006020828403121561288657600080fd5b813567ffffffffffffffff81111561289d57600080fd5b8201601f810184136128ae57600080fd5b61202784823560208401612836565b60005b838110156128d85781810151838201526020016128c0565b83811115610b1a5750506000910152565b600081518084526129018160208601602086016128bd565b601f01601f19169290920160200192915050565b602081526000611fc060208301846128e9565b60006020828403121561293a57600080fd5b5035919050565b6001600160a01b0381168114610d1157600080fd5b6000806040838503121561296957600080fd5b823561297481612941565b946020939093013593505050565b60006020828403121561299457600080fd5b8135611fc081612941565b6000806000606084860312156129b457600080fd5b83356129bf81612941565b925060208401356129cf81612941565b929592945050506040919091013590565b600080604083850312156129f357600080fd5b50508035926020909101359150565b60008060408385031215612a1557600080fd5b823591506020830135612a2781612941565b809150509250929050565b80358015158114612a4257600080fd5b919050565b600060208284031215612a5957600080fd5b611fc082612a32565b60008060408385031215612a7557600080fd5b8235612a8081612941565b9150612a8e60208401612a32565b90509250929050565b60008060408385031215612aaa57600080fd5b8235612ab581612941565b915060208381013567ffffffffffffffff80821115612ad357600080fd5b818601915086601f830112612ae757600080fd5b813581811115612af957612af96127c7565b8060051b9150612b0a8483016127dd565b8181529183018401918481019089841115612b2457600080fd5b938501935b83851015612b4257843582529385019390850190612b29565b8096505050505050509250929050565b600082601f830112612b6357600080fd5b611fc083833560208501612836565b60008060008060808587031215612b8857600080fd5b8435612b9381612941565b93506020850135612ba381612941565b925060408501359150606085013567ffffffffffffffff811115612bc657600080fd5b612bd287828801612b52565b91505092959194509250565b6020808252825182820181905260009190848201906040850190845b81811015612c1657835183529284019291840191600101612bfa565b50909695505050505050565b60008060408385031215612c3557600080fd5b82359150602083013567ffffffffffffffff811115612c5357600080fd5b612c5f85828601612b52565b9150509250929050565b60008060408385031215612c7c57600080fd5b8235612c8781612941565b91506020830135612a2781612941565b634e487b7160e01b600052601160045260246000fd5b600082821015612cbf57612cbf612c97565b500390565b6000816000190483118215151615612cde57612cde612c97565b500290565b600082612d0057634e487b7160e01b600052601260045260246000fd5b500490565b6020808252818101527f4f776e61626c653a2063616c6c6572206973206e6f7420746865206f776e6572604082015260600190565b6020808252601f908201527f5265656e7472616e637947756172643a207265656e7472616e742063616c6c00604082015260600190565b60008219821115612d8457612d84612c97565b500190565b634e487b7160e01b600052603260045260246000fd5b6000600019821415612db357612db3612c97565b5060010190565b600181811c90821680612dce57607f821691505b60208210811415612def57634e487b7160e01b600052602260045260246000fd5b50919050565b600060208284031215612e0757600080fd5b815167ffffffffffffffff811115612e1e57600080fd5b8201601f81018413612e2f57600080fd5b8051612e3d6128448261280e565b818152856020838501011115612e5257600080fd5b612e638260208301602086016128bd565b95945050505050565b600060208284031215612e7e57600080fd5b5051919050565b7f416363657373436f6e74726f6c3a206163636f756e7420000000000000000000815260008351612ebd8160178501602088016128bd565b7001034b99036b4b9b9b4b733903937b6329607d1b6017918401918201528351612eee8160288401602088016128bd565b01602801949350505050565b600081612f0957612f09612c97565b506000190190565b6001600160a01b0385811682528416602082015260408101839052608060608201819052600090612f44908301846128e9565b9695505050505050565b600060208284031215612f6057600080fd5b8151611fc081612794565b634e487b7160e01b600052602160045260246000fdfe850d585eb7f024ccee5e68e55f2c26cc72e1e6ee456acf62135757a5eb9d4a10ddf252ad1be2c89b69c2b068fc378daa952ba7f163c4a11628f55a4df523b3efa2646970667358221220048a1634eb25cc0c2d5fa13e5e49e906341df52b0d86b7f5f4be82a6275ddf0964736f6c63430008090033",
  "linkReferences": {},
  "deployedLinkReferences": {}
}