{
  "_format": "hh-sol-artifact-1",
  "contractName": "CashCowsClub",
  "sourceName": "contracts/phase3/CashCowsClub.sol",
  "abi": [
    {
      "inputs": [
        {
          "internalType": "string",
          "name": "preview",
          "type": "string"
        },
        {
          "internalType": "address",
          "name": "admin",
          "type": "address"
        }
      ],
      "stateMutability": "nonpayable",
      "type": "constructor"
    },
    {
      "inputs": [],
      "name": "ApprovalOwnerIsOperator",
      "type": "error"
    },
    {
      "inputs": [],
      "name": "ApprovalToCurrentOwner",
      "type": "error"
    },
    {
      "inputs": [],
      "name": "BalanceQueryZeroAddress",
      "type": "error"
    },
    {
      "inputs": [],
      "name": "ERC721ReceiverNotReceived",
      "type": "error"
    },
    {
      "inputs": [],
      "name": "InvalidCall",
      "type": "error"
    },
    {
      "inputs": [],
      "name": "NonExistentToken",
      "type": "error"
    },
    {
      "inputs": [],
      "name": "NotERC721Receiver",
      "type": "error"
    },
    {
      "anonymous": false,
      "inputs": [
        {
          "indexed": true,
          "internalType": "address",
          "name": "owner",
          "type": "address"
        },
        {
          "indexed": true,
          "internalType": "address",
          "name": "approved",
          "type": "address"
        },
        {
          "indexed": true,
          "internalType": "uint256",
          "name": "tokenId",
          "type": "uint256"
        }
      ],
      "name": "Approval",
      "type": "event"
    },
    {
      "anonymous": false,
      "inputs": [
        {
          "indexed": true,
          "internalType": "address",
          "name": "owner",
          "type": "address"
        },
        {
          "indexed": true,
          "internalType": "address",
          "name": "operator",
          "type": "address"
        },
        {
          "indexed": false,
          "internalType": "bool",
          "name": "approved",
          "type": "bool"
        }
      ],
      "name": "ApprovalForAll",
      "type": "event"
    },
    {
      "anonymous": false,
      "inputs": [
        {
          "indexed": true,
          "internalType": "address",
          "name": "previousOwner",
          "type": "address"
        },
        {
          "indexed": true,
          "internalType": "address",
          "name": "newOwner",
          "type": "address"
        }
      ],
      "name": "OwnershipTransferred",
      "type": "event"
    },
    {
      "anonymous": false,
      "inputs": [
        {
          "indexed": true,
          "internalType": "bytes32",
          "name": "role",
          "type": "bytes32"
        },
        {
          "indexed": true,
          "internalType": "bytes32",
          "name": "previousAdminRole",
          "type": "bytes32"
        },
        {
          "indexed": true,
          "internalType": "bytes32",
          "name": "newAdminRole",
          "type": "bytes32"
        }
      ],
      "name": "RoleAdminChanged",
      "type": "event"
    },
    {
      "anonymous": false,
      "inputs": [
        {
          "indexed": true,
          "internalType": "bytes32",
          "name": "role",
          "type": "bytes32"
        },
        {
          "indexed": true,
          "internalType": "address",
          "name": "account",
          "type": "address"
        },
        {
          "indexed": true,
          "internalType": "address",
          "name": "sender",
          "type": "address"
        }
      ],
      "name": "RoleGranted",
      "type": "event"
    },
    {
      "anonymous": false,
      "inputs": [
        {
          "indexed": true,
          "internalType": "bytes32",
          "name": "role",
          "type": "bytes32"
        },
        {
          "indexed": true,
          "internalType": "address",
          "name": "account",
          "type": "address"
        },
        {
          "indexed": true,
          "internalType": "address",
          "name": "sender",
          "type": "address"
        }
      ],
      "name": "RoleRevoked",
      "type": "event"
    },
    {
      "anonymous": false,
      "inputs": [
        {
          "indexed": true,
          "internalType": "address",
          "name": "from",
          "type": "address"
        },
        {
          "indexed": true,
          "internalType": "address",
          "name": "to",
          "type": "address"
        },
        {
          "indexed": true,
          "internalType": "uint256",
          "name": "tokenId",
          "type": "uint256"
        }
      ],
      "name": "Transfer",
      "type": "event"
    },
    {
      "inputs": [],
      "name": "DEFAULT_ADMIN_ROLE",
      "outputs": [
        {
          "internalType": "bytes32",
          "name": "",
          "type": "bytes32"
        }
      ],
      "stateMutability": "view",
      "type": "function"
    },
    {
      "inputs": [],
      "name": "MAX_SUPPLY",
      "outputs": [
        {
          "internalType": "uint16",
          "name": "",
          "type": "uint16"
        }
      ],
      "stateMutability": "view",
      "type": "function"
    },
    {
      "inputs": [
        {
          "internalType": "uint256",
          "name": "",
          "type": "uint256"
        }
      ],
      "name": "_burned",
      "outputs": [
        {
          "internalType": "address",
          "name": "",
          "type": "address"
        }
      ],
      "stateMutability": "view",
      "type": "function"
    },
    {
      "inputs": [
        {
          "internalType": "address",
          "name": "to",
          "type": "address"
        },
        {
          "internalType": "uint256",
          "name": "tokenId",
          "type": "uint256"
        }
      ],
      "name": "approve",
      "outputs": [],
      "stateMutability": "nonpayable",
      "type": "function"
    },
    {
      "inputs": [
        {
          "internalType": "address",
          "name": "owner",
          "type": "address"
        }
      ],
      "name": "balanceOf",
      "outputs": [
        {
          "internalType": "uint256",
          "name": "",
          "type": "uint256"
        }
      ],
      "stateMutability": "view",
      "type": "function"
    },
    {
      "inputs": [
        {
          "internalType": "uint256",
          "name": "tokenId",
          "type": "uint256"
        }
      ],
      "name": "burn",
      "outputs": [],
      "stateMutability": "nonpayable",
      "type": "function"
    },
    {
      "inputs": [
        {
          "internalType": "uint256",
          "name": "tokenId",
          "type": "uint256"
        }
      ],
      "name": "burnerOf",
      "outputs": [
        {
          "internalType": "address",
          "name": "",
          "type": "address"
        }
      ],
      "stateMutability": "view",
      "type": "function"
    },
    {
      "inputs": [],
      "name": "contractURI",
      "outputs": [
        {
          "internalType": "string",
          "name": "",
          "type": "string"
        }
      ],
      "stateMutability": "view",
      "type": "function"
    },
    {
      "inputs": [
        {
          "internalType": "uint256",
          "name": "tokenId",
          "type": "uint256"
        }
      ],
      "name": "getApproved",
      "outputs": [
        {
          "internalType": "address",
          "name": "",
          "type": "address"
        }
      ],
      "stateMutability": "view",
      "type": "function"
    },
    {
      "inputs": [
        {
          "internalType": "bytes32",
          "name": "role",
          "type": "bytes32"
        }
      ],
      "name": "getRoleAdmin",
      "outputs": [
        {
          "internalType": "bytes32",
          "name": "",
          "type": "bytes32"
        }
      ],
      "stateMutability": "view",
      "type": "function"
    },
    {
      "inputs": [
        {
          "internalType": "bytes32",
          "name": "role",
          "type": "bytes32"
        },
        {
          "internalType": "address",
          "name": "account",
          "type": "address"
        }
      ],
      "name": "grantRole",
      "outputs": [],
      "stateMutability": "nonpayable",
      "type": "function"
    },
    {
      "inputs": [
        {
          "internalType": "bytes32",
          "name": "role",
          "type": "bytes32"
        },
        {
          "internalType": "address",
          "name": "account",
          "type": "address"
        }
      ],
      "name": "hasRole",
      "outputs": [
        {
          "internalType": "bool",
          "name": "",
          "type": "bool"
        }
      ],
      "stateMutability": "view",
      "type": "function"
    },
    {
      "inputs": [
        {
          "internalType": "address",
          "name": "owner",
          "type": "address"
        },
        {
          "internalType": "address",
          "name": "operator",
          "type": "address"
        }
      ],
      "name": "isApprovedForAll",
      "outputs": [
        {
          "internalType": "bool",
          "name": "",
          "type": "bool"
        }
      ],
      "stateMutability": "view",
      "type": "function"
    },
    {
      "inputs": [],
      "name": "lastId",
      "outputs": [
        {
          "internalType": "uint256",
          "name": "",
          "type": "uint256"
        }
      ],
      "stateMutability": "view",
      "type": "function"
    },
    {
      "inputs": [],
      "name": "maxMint",
      "outputs": [
        {
          "internalType": "uint256",
          "name": "",
          "type": "uint256"
        }
      ],
      "stateMutability": "view",
      "type": "function"
    },
    {
      "inputs": [
        {
          "internalType": "uint256",
          "name": "quantity",
          "type": "uint256"
        }
      ],
      "name": "mint",
      "outputs": [],
      "stateMutability": "payable",
      "type": "function"
    },
    {
      "inputs": [
        {
          "internalType": "uint256",
          "name": "quantity",
          "type": "uint256"
        },
        {
          "internalType": "bytes",
          "name": "proof",
          "type": "bytes"
        }
      ],
      "name": "mint",
      "outputs": [],
      "stateMutability": "payable",
      "type": "function"
    },
    {
      "inputs": [],
      "name": "mintPrice",
      "outputs": [
        {
          "internalType": "uint256",
          "name": "",
          "type": "uint256"
        }
      ],
      "stateMutability": "view",
      "type": "function"
    },
    {
      "inputs": [
        {
          "internalType": "address",
          "name": "",
          "type": "address"
        }
      ],
      "name": "minted",
      "outputs": [
        {
          "internalType": "uint256",
          "name": "",
          "type": "uint256"
        }
      ],
      "stateMutability": "view",
      "type": "function"
    },
    {
      "inputs": [],
      "name": "name",
      "outputs": [
        {
          "internalType": "string",
          "name": "",
          "type": "string"
        }
      ],
      "stateMutability": "pure",
      "type": "function"
    },
    {
      "inputs": [],
      "name": "owner",
      "outputs": [
        {
          "internalType": "address",
          "name": "",
          "type": "address"
        }
      ],
      "stateMutability": "view",
      "type": "function"
    },
    {
      "inputs": [
        {
          "internalType": "uint256",
          "name": "tokenId",
          "type": "uint256"
        }
      ],
      "name": "ownerOf",
      "outputs": [
        {
          "internalType": "address",
          "name": "",
          "type": "address"
        }
      ],
      "stateMutability": "view",
      "type": "function"
    },
    {
      "inputs": [
        {
          "internalType": "address",
          "name": "owner",
          "type": "address"
        }
      ],
      "name": "ownerTokens",
      "outputs": [
        {
          "internalType": "uint256[]",
          "name": "",
          "type": "uint256[]"
        }
      ],
      "stateMutability": "view",
      "type": "function"
    },
    {
      "inputs": [
        {
          "internalType": "address",
          "name": "owner",
          "type": "address"
        },
        {
          "internalType": "uint256[]",
          "name": "tokenIds",
          "type": "uint256[]"
        }
      ],
      "name": "ownsAll",
      "outputs": [
        {
          "internalType": "bool",
          "name": "",
          "type": "bool"
        }
      ],
      "stateMutability": "view",
      "type": "function"
    },
    {
      "inputs": [
        {
          "internalType": "uint256",
          "name": "quantity",
          "type": "uint256"
        }
      ],
      "name": "redeem",
      "outputs": [],
      "stateMutability": "nonpayable",
      "type": "function"
    },
    {
      "inputs": [],
      "name": "renounceOwnership",
      "outputs": [],
      "stateMutability": "nonpayable",
      "type": "function"
    },
    {
      "inputs": [
        {
          "internalType": "bytes32",
          "name": "role",
          "type": "bytes32"
        },
        {
          "internalType": "address",
          "name": "account",
          "type": "address"
        }
      ],
      "name": "renounceRole",
      "outputs": [],
      "stateMutability": "nonpayable",
      "type": "function"
    },
    {
      "inputs": [
        {
          "internalType": "bytes32",
          "name": "role",
          "type": "bytes32"
        },
        {
          "internalType": "address",
          "name": "account",
          "type": "address"
        }
      ],
      "name": "revokeRole",
      "outputs": [],
      "stateMutability": "nonpayable",
      "type": "function"
    },
    {
      "inputs": [
        {
          "internalType": "uint256",
          "name": "_tokenId",
          "type": "uint256"
        },
        {
          "internalType": "uint256",
          "name": "_salePrice",
          "type": "uint256"
        }
      ],
      "name": "royaltyInfo",
      "outputs": [
        {
          "internalType": "address",
          "name": "receiver",
          "type": "address"
        },
        {
          "internalType": "uint256",
          "name": "royaltyAmount",
          "type": "uint256"
        }
      ],
      "stateMutability": "view",
      "type": "function"
    },
    {
      "inputs": [],
      "name": "royaltyPercent",
      "outputs": [
        {
          "internalType": "uint256",
          "name": "",
          "type": "uint256"
        }
      ],
      "stateMutability": "view",
      "type": "function"
    },
    {
      "inputs": [
        {
          "internalType": "address",
          "name": "from",
          "type": "address"
        },
        {
          "internalType": "address",
          "name": "to",
          "type": "address"
        },
        {
          "internalType": "uint256",
          "name": "tokenId",
          "type": "uint256"
        }
      ],
      "name": "safeTransferFrom",
      "outputs": [],
      "stateMutability": "nonpayable",
      "type": "function"
    },
    {
      "inputs": [
        {
          "internalType": "address",
          "name": "from",
          "type": "address"
        },
        {
          "internalType": "address",
          "name": "to",
          "type": "address"
        },
        {
          "internalType": "uint256",
          "name": "tokenId",
          "type": "uint256"
        },
        {
          "internalType": "bytes",
          "name": "_data",
          "type": "bytes"
        }
      ],
      "name": "safeTransferFrom",
      "outputs": [],
      "stateMutability": "nonpayable",
      "type": "function"
    },
    {
      "inputs": [
        {
          "internalType": "address",
          "name": "operator",
          "type": "address"
        },
        {
          "internalType": "bool",
          "name": "approved",
          "type": "bool"
        }
      ],
      "name": "setApprovalForAll",
      "outputs": [],
      "stateMutability": "nonpayable",
      "type": "function"
    },
    {
      "inputs": [
        {
          "internalType": "uint256",
          "name": "max",
          "type": "uint256"
        }
      ],
      "name": "setMaxMint",
      "outputs": [],
      "stateMutability": "nonpayable",
      "type": "function"
    },
    {
      "inputs": [
        {
          "internalType": "uint256",
          "name": "price",
          "type": "uint256"
        }
      ],
      "name": "setMintPrice",
      "outputs": [],
      "stateMutability": "nonpayable",
      "type": "function"
    },
    {
      "inputs": [
        {
          "internalType": "contract IRedeemable",
          "name": "redeemable",
          "type": "address"
        },
        {
          "internalType": "uint256",
          "name": "exchange",
          "type": "uint256"
        }
      ],
      "name": "setRedeemable",
      "outputs": [],
      "stateMutability": "nonpayable",
      "type": "function"
    },
    {
      "inputs": [
        {
          "internalType": "string",
          "name": "uri",
          "type": "string"
        }
      ],
      "name": "setURI",
      "outputs": [],
      "stateMutability": "nonpayable",
      "type": "function"
    },
    {
      "inputs": [
        {
          "internalType": "bytes4",
          "name": "interfaceId",
          "type": "bytes4"
        }
      ],
      "name": "supportsInterface",
      "outputs": [
        {
          "internalType": "bool",
          "name": "",
          "type": "bool"
        }
      ],
      "stateMutability": "view",
      "type": "function"
    },
    {
      "inputs": [],
      "name": "symbol",
      "outputs": [
        {
          "internalType": "string",
          "name": "",
          "type": "string"
        }
      ],
      "stateMutability": "pure",
      "type": "function"
    },
    {
      "inputs": [
        {
          "internalType": "uint256",
          "name": "tokenId",
          "type": "uint256"
        }
      ],
      "name": "tokenURI",
      "outputs": [
        {
          "internalType": "string",
          "name": "",
          "type": "string"
        }
      ],
      "stateMutability": "view",
      "type": "function"
    },
    {
      "inputs": [],
      "name": "totalBurned",
      "outputs": [
        {
          "internalType": "uint256",
          "name": "",
          "type": "uint256"
        }
      ],
      "stateMutability": "view",
      "type": "function"
    },
    {
      "inputs": [],
      "name": "totalSupply",
      "outputs": [
        {
          "internalType": "uint256",
          "name": "",
          "type": "uint256"
        }
      ],
      "stateMutability": "view",
      "type": "function"
    },
    {
      "inputs": [
        {
          "internalType": "address",
          "name": "from",
          "type": "address"
        },
        {
          "internalType": "address",
          "name": "to",
          "type": "address"
        },
        {
          "internalType": "uint256",
          "name": "tokenId",
          "type": "uint256"
        }
      ],
      "name": "transferFrom",
      "outputs": [],
      "stateMutability": "nonpayable",
      "type": "function"
    },
    {
      "inputs": [
        {
          "internalType": "address",
          "name": "newOwner",
          "type": "address"
        }
      ],
      "name": "transferOwnership",
      "outputs": [],
      "stateMutability": "nonpayable",
      "type": "function"
    },
    {
      "inputs": [],
      "name": "treasury",
      "outputs": [
        {
          "internalType": "contract IRoyaltySplitter",
          "name": "",
          "type": "address"
        }
      ],
      "stateMutability": "view",
      "type": "function"
    },
    {
      "inputs": [
        {
          "internalType": "contract IMetadata",
          "name": "metadata",
          "type": "address"
        }
      ],
      "name": "updateMetadata",
      "outputs": [],
      "stateMutability": "nonpayable",
      "type": "function"
    },
    {
      "inputs": [
        {
          "internalType": "uint256",
          "name": "percent",
          "type": "uint256"
        }
      ],
      "name": "updateRoyalty",
      "outputs": [],
      "stateMutability": "nonpayable",
      "type": "function"
    },
    {
      "inputs": [
        {
          "internalType": "contract IRoyaltySplitter",
          "name": "splitter",
          "type": "address"
        }
      ],
      "name": "updateTreasury",
      "outputs": [],
      "stateMutability": "nonpayable",
      "type": "function"
    },
    {
      "inputs": [
        {
          "internalType": "address",
          "name": "recipient",
          "type": "address"
        }
      ],
      "name": "withdraw",
      "outputs": [],
      "stateMutability": "nonpayable",
      "type": "function"
    }
  ],
  "bytecode": "0x60806040526103e8600e553480156200001757600080fd5b506040516200321b3803806200321b8339810160408190526200003a9162000258565b600160005581816200004c3362000079565b62000059600082620000cb565b81516200006e90600b9060208501906200017f565b505050505062000386565b600180546001600160a01b038381166001600160a01b0319831681179093556040519116919082907f8be0079c531659141344cd1fd0a4f28419497f9722a3daafe3b4186f6b6457e090600090a35050565b620000d78282620000db565b5050565b60008281526002602090815260408083206001600160a01b038516845290915290205460ff16620000d75760008281526002602090815260408083206001600160a01b03851684529091529020805460ff191660011790556200013b3390565b6001600160a01b0316816001600160a01b0316837f2f8788117e7eff1d82e926ec794901d17c78024a50270940304540a733656f0d60405160405180910390a45050565b8280546200018d9062000349565b90600052602060002090601f016020900481019282620001b15760008555620001fc565b82601f10620001cc57805160ff1916838001178555620001fc565b82800160010185558215620001fc579182015b82811115620001fc578251825591602001919060010190620001df565b506200020a9291506200020e565b5090565b5b808211156200020a57600081556001016200020f565b634e487b7160e01b600052604160045260246000fd5b80516001600160a01b03811681146200025357600080fd5b919050565b600080604083850312156200026c57600080fd5b82516001600160401b03808211156200028457600080fd5b818501915085601f8301126200029957600080fd5b815181811115620002ae57620002ae62000225565b604051601f8201601f19908116603f01168101908382118183101715620002d957620002d962000225565b81604052828152602093508884848701011115620002f657600080fd5b600091505b828210156200031a5784820184015181830185015290830190620002fb565b828211156200032c5760008484830101525b95506200033e9150508582016200023b565b925050509250929050565b600181811c908216806200035e57607f821691505b602082108114156200038057634e487b7160e01b600052602260045260246000fd5b50919050565b612e8580620003966000396000f3fe6080604052600436106102ae5760003560e01c80637f51bb1f11610175578063bba7723e116100dc578063d89135cd11610095578063e8a3d4851161006f578063e8a3d485146108ca578063e985e9c5146108df578063f2fde38b146108ff578063f4a0a5281461091f57600080fd5b8063d89135cd14610882578063db006a7514610897578063db7fd408146108b757600080fd5b8063bba7723e146107aa578063c1292cc3146107d7578063c5e2a7db146107ec578063c87b56dd1461080c578063ca0df4a11461082c578063d547741f1461086257600080fd5b80639f67756d1161012e5780639f67756d1461070c578063a0712d6814610722578063a217fddf14610735578063a22cb4651461074a578063ad94d9011461076a578063b88d4fde1461078a57600080fd5b80637f51bb1f1461062b578063804d5efd1461064b5780638da5cb5b146106815780638fffd8b51461069f57806391d14854146106bf57806395d89b41146106df57600080fd5b806332cb6b0c1161021957806361d027b3116101d257806361d027b31461058a5780636352211e146105aa5780636817c76c146105ca57806370a08231146105e0578063715018a6146106005780637501f7411461061557600080fd5b806332cb6b0c146104c157806336568abe146104ea57806342842e0e1461050a57806342966c681461052a57806351cff8d91461054a578063547520fe1461056a57600080fd5b80631e7269c51161026b5780631e7269c5146103c557806323b872dd146103f2578063248a9ca3146104125780632a55205a146104425780632f2ff15d146104815780633202e76b146104a157600080fd5b806301ffc9a7146102b357806302fe5305146102e857806306fdde031461030a578063081812fc1461034a578063095ea7b31461038257806318160ddd146103a2575b600080fd5b3480156102bf57600080fd5b506102d36102ce36600461266a565b61093f565b60405190151581526020015b60405180910390f35b3480156102f457600080fd5b50610308610303366004612734565b610985565b005b34801561031657600080fd5b5060408051808201909152600e81526d21b0b9b41021b7bbb99021b63ab160911b60208201525b6040516102df91906127d5565b34801561035657600080fd5b5061036a6103653660046127e8565b6109ab565b6040516001600160a01b0390911681526020016102df565b34801561038e57600080fd5b5061030861039d366004612816565b6109ef565b3480156103ae57600080fd5b506103b7610a7f565b6040519081526020016102df565b3480156103d157600080fd5b506103b76103e0366004612842565b600f6020526000908152604090205481565b3480156103fe57600080fd5b5061030861040d36600461285f565b610a9c565b34801561041e57600080fd5b506103b761042d3660046127e8565b60009081526002602052604090206001015490565b34801561044e57600080fd5b5061046261045d3660046128a0565b610aad565b604080516001600160a01b0390931683526020830191909152016102df565b34801561048d57600080fd5b5061030861049c3660046128c2565b610b24565b3480156104ad57600080fd5b506103086104bc366004612816565b610b4a565b3480156104cd57600080fd5b506104d76103e881565b60405161ffff90911681526020016102df565b3480156104f657600080fd5b506103086105053660046128c2565b610b8a565b34801561051657600080fd5b5061030861052536600461285f565b610c09565b34801561053657600080fd5b506103086105453660046127e8565b610c24565b34801561055657600080fd5b50610308610565366004612842565b610c6d565b34801561057657600080fd5b506103086105853660046127e8565b610d26565b34801561059657600080fd5b50600d5461036a906001600160a01b031681565b3480156105b657600080fd5b5061036a6105c53660046127e8565b610d45565b3480156105d657600080fd5b506103b760105481565b3480156105ec57600080fd5b506103b76105fb366004612842565b610d84565b34801561060c57600080fd5b50610308610dc9565b34801561062157600080fd5b506103b760115481565b34801561063757600080fd5b50610308610646366004612842565b610dff565b34801561065757600080fd5b5061036a6106663660046127e8565b6009602052600090815260409020546001600160a01b031681565b34801561068d57600080fd5b506001546001600160a01b031661036a565b3480156106ab57600080fd5b506103086106ba3660046127e8565b610e3b565b3480156106cb57600080fd5b506102d36106da3660046128c2565b610e8f565b3480156106eb57600080fd5b506040805180820190915260048152634d4f4f4f60e01b602082015261033d565b34801561071857600080fd5b506103b7600e5481565b6103086107303660046127e8565b610eba565b34801561074157600080fd5b506103b7600081565b34801561075657600080fd5b506103086107653660046128f2565b610fa1565b34801561077657600080fd5b506102d3610785366004612925565b610fac565b34801561079657600080fd5b506103086107a5366004612a00565b611019565b3480156107b657600080fd5b506107ca6107c5366004612842565b611025565b6040516102df9190612a6c565b3480156107e357600080fd5b506103b761114a565b3480156107f857600080fd5b50610308610807366004612842565b611155565b34801561081857600080fd5b5061033d6108273660046127e8565b611191565b34801561083857600080fd5b5061036a6108473660046127e8565b6000908152600960205260409020546001600160a01b031690565b34801561086e57600080fd5b5061030861087d3660046128c2565b6112db565b34801561088e57600080fd5b50600a546103b7565b3480156108a357600080fd5b506103086108b23660046127e8565b611301565b6103086108c5366004612ab0565b611432565b3480156108d657600080fd5b5061033d6115e5565b3480156108eb57600080fd5b506102d36108fa366004612af7565b611677565b34801561090b57600080fd5b5061030861091a366004612842565b6116a5565b34801561092b57600080fd5b5061030861093a3660046127e8565b61173d565b60006001600160e01b03198216635b5e139f60e01b148061097057506001600160e01b0319821663152a902d60e11b145b8061097f575061097f8261175c565b92915050565b600080516020612e1083398151915261099e8133611781565b6109a7826117e5565b5050565b60006109b6826117f8565b6109d357604051634a1850bf60e11b815260040160405180910390fd5b506000908152600660205260409020546001600160a01b031690565b60006109fa82611821565b9050806001600160a01b0316836001600160a01b03161415610a2f5760405163250fdee360e21b815260040160405180910390fd5b336001600160a01b0382168114801590610a505750610a4e8282611677565b155b15610a6e5760405163250fdee360e21b815260040160405180910390fd5b610a798484846118de565b50505050565b6000600a54610a8d60035490565b610a979190612b3b565b905090565b610aa83384848461193a565b505050565b600d5460009081906001600160a01b03161580610ad05750610ace846117f8565b155b15610aee5760405163574b16a760e11b815260040160405180910390fd5b600d54600e546001600160a01b039091169061271090610b0e9086612b52565b610b189190612b71565b915091505b9250929050565b600082815260026020526040902060010154610b408133611781565b610aa8838361196d565b600080516020612e10833981519152610b638133611781565b50601280546001600160a01b0319166001600160a01b039390931692909217909155601355565b6001600160a01b0381163314610bff5760405162461bcd60e51b815260206004820152602f60248201527f416363657373436f6e74726f6c3a2063616e206f6e6c792072656e6f756e636560448201526e103937b632b9903337b91039b2b63360891b60648201526084015b60405180910390fd5b6109a782826119f3565b610aa883838360405180602001604052806000815250611019565b600d546001600160a01b0316336001600160a01b031614610c585760405163574b16a760e11b815260040160405180910390fd5b610c6a81610c6583611821565b611a5a565b50565b6001546001600160a01b03163314610c975760405162461bcd60e51b8152600401610bf690612b93565b60026000541415610cba5760405162461bcd60e51b8152600401610bf690612bc8565b6002600055600c546001600160a01b0316610ce85760405163574b16a760e11b815260040160405180910390fd5b6040516001600160a01b038216904780156108fc02916000818181858888f19350505050158015610d1d573d6000803e3d6000fd5b50506001600055565b600080516020612e10833981519152610d3f8133611781565b50601155565b6000818152600960205260408120546001600160a01b031615610d7b57604051634a1850bf60e11b815260040160405180910390fd5b61097f82611821565b60006001600160a01b038216610dad576040516316285dcb60e11b815260040160405180910390fd5b506001600160a01b031660009081526005602052604090205490565b6001546001600160a01b03163314610df35760405162461bcd60e51b8152600401610bf690612b93565b610dfd6000611b3a565b565b600080516020612e10833981519152610e188133611781565b50600d80546001600160a01b0319166001600160a01b0392909216919091179055565b7f3b5d4cc60d3ec3516ee8ae083bd60934f6eb2a6c54b1229985c41bfb092b2603610e668133611781565b6103e8821115610e895760405163574b16a760e11b815260040160405180910390fd5b50600e55565b60009182526002602090815260408084206001600160a01b0393909316845291905290205460ff1690565b60026000541415610edd5760405162461bcd60e51b8152600401610bf690612bc8565b600260005533803b151580610efe57503460105483610efc9190612b52565b115b80610f2d57506011546001600160a01b0382166000908152600f6020526040902054610f2b908490612bff565b115b80610f4b57506103e882610f3f61114a565b610f499190612bff565b115b15610f695760405163574b16a760e11b815260040160405180910390fd5b6001600160a01b0381166000908152600f602052604081208054849290610f91908490612bff565b90915550610d1d90508183611b8c565b6109a7338383611ba6565b6000805b825181101561100f57610fdb838281518110610fce57610fce612c17565b6020026020010151610d45565b6001600160a01b0316846001600160a01b031614610ffd57600091505061097f565b8061100781612c2d565b915050610fb0565b5060019392505050565b610a7984848484611c46565b6060600061103283610d84565b9050806110535760408051600080825260208201909252905b509392505050565b60008167ffffffffffffffff81111561106e5761106e612687565b604051908082528060200260200182016040528015611097578160200160208202803683370190505b50905060006110a4610a7f565b9050600060015b82811161113f576000818152600960205260409020546001600160a01b0316158015906110f157506110dc81610d45565b6001600160a01b0316876001600160a01b0316145b1561112d5780848361110281612c2d565b94508151811061111457611114612c17565b6020026020010181815250508482141561112d5761113f565b8061113781612c2d565b9150506110ab565b509195945050505050565b6000610a9760035490565b600080516020612e1083398151915261116e8133611781565b50600c80546001600160a01b0319166001600160a01b0392909216919091179055565b606061119c826117f8565b6111b95760405163574b16a760e11b815260040160405180910390fd5b600c546001600160a01b031661125b57600b80546111d690612c48565b80601f016020809104026020016040519081016040528092919081815260200182805461120290612c48565b801561124f5780601f106112245761010080835404028352916020019161124f565b820191906000526020600020905b81548152906001019060200180831161123257829003601f168201915b50505050509050919050565b600c5460405163c87b56dd60e01b8152600481018490526001600160a01b039091169063c87b56dd9060240160006040518083038186803b15801561129f57600080fd5b505afa1580156112b3573d6000803e3d6000fd5b505050506040513d6000823e601f3d908101601f1916820160405261097f9190810190612c83565b6000828152600260205260409020600101546112f78133611781565b610aa883836119f3565b6000336013546012546040516370a0823160e01b81526001600160a01b038085166004830152939450600093909116906370a082319060240160206040518083038186803b15801561135257600080fd5b505afa158015611366573d6000803e3d6000fd5b505050506040513d601f19601f8201168201806040525081019061138a9190612cfa565b6113949190612b71565b6001600160a01b0383166000908152600f602052604090205490915081906113bd908590612bff565b11806113dc57506103e8836113d061114a565b6113da9190612bff565b115b156113fa5760405163574b16a760e11b815260040160405180910390fd5b6001600160a01b0382166000908152600f602052604081208054859290611422908490612bff565b90915550610aa890508284611b8c565b600260005414156114555760405162461bcd60e51b8152600401610bf690612bc8565b600260005533803b151580611476575034601054846114749190612b52565b115b806114a557506011546001600160a01b0382166000908152600f60205260409020546114a3908590612bff565b115b806114c357506103e8836114b761114a565b6114c19190612bff565b115b80611585575060408051631b5a5b9d60e21b602080830191909152606084901b6bffffffffffffffffffffffff19166024830152825160188184030181526038830184528051908201207f19457468657265756d205369676e6564204d6573736167653a0a33320000000060588401526074808401919091528351808403909101815260949092019092528051910120611583907f9f2df0fed2c77648de5860a4cc508cd0818c85b8b8a1ab4ceeef8d981c8956a6906106da9085611c93565b155b156115a35760405163574b16a760e11b815260040160405180910390fd5b6001600160a01b0381166000908152600f6020526040812080548592906115cb908490612bff565b909155506115db90508184611b8c565b5050600160005550565b6060600880546115f490612c48565b80601f016020809104026020016040519081016040528092919081815260200182805461162090612c48565b801561166d5780601f106116425761010080835404028352916020019161166d565b820191906000526020600020905b81548152906001019060200180831161165057829003601f168201915b5050505050905090565b6001600160a01b03918216600090815260076020908152604080832093909416825291909152205460ff1690565b6001546001600160a01b031633146116cf5760405162461bcd60e51b8152600401610bf690612b93565b6001600160a01b0381166117345760405162461bcd60e51b815260206004820152602660248201527f4f776e61626c653a206e6577206f776e657220697320746865207a65726f206160448201526564647265737360d01b6064820152608401610bf6565b610c6a81611b3a565b600080516020612e108339815191526117568133611781565b50601055565b60006001600160e01b031982166380ac58cd60e01b148061097f575061097f82611caf565b61178b8282610e8f565b6109a7576117a3816001600160a01b03166014611ce4565b6117ae836020611ce4565b6040516020016117bf929190612d13565b60408051601f198184030181529082905262461bcd60e51b8252610bf6916004016127d5565b80516109a79060089060208401906125bb565b6000818152600960205260408120546001600160a01b031615801561097f575061097f82611e87565b60008181526004602052604081205482906001600160a01b03161561185e576000908152600460205260409020546001600160a01b031692915050565b60008111801561187057506003548111155b156118c4575b6000190180611884576118c4565b6000818152600460205260409020546001600160a01b0316156118bf576000908152600460205260409020546001600160a01b031692915050565b611876565b50604051634a1850bf60e11b815260040160405180910390fd5b60008281526006602052604080822080546001600160a01b0319166001600160a01b0387811691821790925591518593918516917f8c5be1e5ebec7d5bd14f71427d1e84f3dd0314c0f7b2291e5b200ac8c7c3b92591a4505050565b611945848285611e9c565b6119625760405163574b16a760e11b815260040160405180910390fd5b610a79838383611eef565b6119778282610e8f565b6109a75760008281526002602090815260408083206001600160a01b03851684529091529020805460ff191660011790556119af3390565b6001600160a01b0316816001600160a01b0316837f2f8788117e7eff1d82e926ec794901d17c78024a50270940304540a733656f0d60405160405180910390a45050565b6119fd8282610e8f565b156109a75760008281526002602090815260408083206001600160a01b0385168085529252808320805460ff1916905551339285917ff6391f5c32d9c69d2a47ea670b442974b53935d1edc7fd64eb21e047a839171b9190a45050565b611a66600083836118de565b60018201611a73816117f8565b8015611a9457506000818152600460205260409020546001600160a01b0316155b15611ac157600081815260046020526040902080546001600160a01b0319166001600160a01b0384161790555b50600082815260096020908152604080832080546001600160a01b0386166001600160a01b0319918216811790925581855260058452828520805460001901905586855260049093528184208054909316909255600a805460010190555184929190600080516020612e30833981519152908390a45050565b600180546001600160a01b038381166001600160a01b0319831681179093556040519116919082907f8be0079c531659141344cd1fd0a4f28419497f9722a3daafe3b4186f6b6457e090600090a35050565b6109a7828260405180602001604052806000815250612027565b816001600160a01b0316836001600160a01b03161415611bd95760405163079f14e360e51b815260040160405180910390fd5b6001600160a01b03838116600081815260076020908152604080832094871680845294825291829020805460ff191686151590811790915591519182527f17307eab39ab6107e8899845ad3d59bd9653f200f220920489ca2b5937696c31910160405180910390a3505050565b611c523385858561193a565b6000836001600160a01b03163b118015611c755750611c7384848484612034565b155b15610a7957604051631f11849560e21b815260040160405180910390fd5b6000806000611ca2858561212b565b9150915061104b81612198565b60006001600160e01b03198216637965db0b60e01b148061097f57506301ffc9a760e01b6001600160e01b031983161461097f565b60606000611cf3836002612b52565b611cfe906002612bff565b67ffffffffffffffff811115611d1657611d16612687565b6040519080825280601f01601f191660200182016040528015611d40576020820181803683370190505b509050600360fc1b81600081518110611d5b57611d5b612c17565b60200101906001600160f81b031916908160001a905350600f60fb1b81600181518110611d8a57611d8a612c17565b60200101906001600160f81b031916908160001a9053506000611dae846002612b52565b611db9906001612bff565b90505b6001811115611e31576f181899199a1a9b1b9c1cb0b131b232b360811b85600f1660108110611ded57611ded612c17565b1a60f81b828281518110611e0357611e03612c17565b60200101906001600160f81b031916908160001a90535060049490941c93611e2a81612d88565b9050611dbc565b508315611e805760405162461bcd60e51b815260206004820181905260248201527f537472696e67733a20686578206c656e67746820696e73756666696369656e746044820152606401610bf6565b9392505050565b6000808211801561097f575050600354101590565b6000816001600160a01b0316846001600160a01b03161480611ed75750836001600160a01b0316611ecc846109ab565b6001600160a01b0316145b80611ee75750611ee78285611677565b949350505050565b6001600160a01b0382161580611f1f5750611f0981611821565b6001600160a01b0316836001600160a01b031614155b15611f3d5760405163574b16a760e11b815260040160405180910390fd5b611f49600082856118de565b6001600160a01b03808316600081815260056020908152604080832080546001908101909155948816835280832080546000190190558583526004909152902080546001600160a01b0319169091179055600354908201908111801590611fc557506000818152600460205260409020546001600160a01b0316155b15611ff257600081815260046020526040902080546001600160a01b0319166001600160a01b0386161790555b5080826001600160a01b0316846001600160a01b0316600080516020612e3083398151915260405160405180910390a4505050565b610aa88383836001612353565b604051630a85bd0160e11b81526000906001600160a01b0385169063150b7a0290612069903390899088908890600401612d9f565b602060405180830381600087803b15801561208357600080fd5b505af19250505080156120b3575060408051601f3d908101601f191682019092526120b091810190612ddc565b60015b61210e573d8080156120e1576040519150601f19603f3d011682016040523d82523d6000602084013e6120e6565b606091505b50805161210657604051630568cbab60e01b815260040160405180910390fd5b805181602001fd5b6001600160e01b031916630a85bd0160e11b149050949350505050565b6000808251604114156121625760208301516040840151606085015160001a6121568782858561249f565b94509450505050610b1d565b82516040141561218c576020830151604084015161218186838361258c565b935093505050610b1d565b50600090506002610b1d565b60008160048111156121ac576121ac612df9565b14156121b55750565b60018160048111156121c9576121c9612df9565b14156122175760405162461bcd60e51b815260206004820152601860248201527f45434453413a20696e76616c6964207369676e617475726500000000000000006044820152606401610bf6565b600281600481111561222b5761222b612df9565b14156122795760405162461bcd60e51b815260206004820152601f60248201527f45434453413a20696e76616c6964207369676e6174757265206c656e677468006044820152606401610bf6565b600381600481111561228d5761228d612df9565b14156122e65760405162461bcd60e51b815260206004820152602260248201527f45434453413a20696e76616c6964207369676e6174757265202773272076616c604482015261756560f01b6064820152608401610bf6565b60048160048111156122fa576122fa612df9565b1415610c6a5760405162461bcd60e51b815260206004820152602260248201527f45434453413a20696e76616c6964207369676e6174757265202776272076616c604482015261756560f01b6064820152608401610bf6565b82158061236757506001600160a01b038416155b156123855760405163574b16a760e11b815260040160405180910390fd5b600060035460016123969190612bff565b905060038054850190556001600160a01b03851660008181526005602090815260408083208054890190558483526004909152902080546001600160a01b0319169091179055808481018380156123f757506000876001600160a01b03163b115b15612463575b60405182906001600160a01b03891690600090600080516020612e30833981519152908290a46124366000888480600101955088612034565b61245357604051631f11849560e21b815260040160405180910390fd5b808214156123fd57505050610a79565b5b6040516001830192906001600160a01b03891690600090600080516020612e30833981519152908290a4808214156124645750505050505050565b6000807f7fffffffffffffffffffffffffffffff5d576e7357a4501ddfe92f46681b20a08311156124d65750600090506003612583565b8460ff16601b141580156124ee57508460ff16601c14155b156124ff5750600090506004612583565b6040805160008082526020820180845289905260ff881692820192909252606081018690526080810185905260019060a0016020604051602081039080840390855afa158015612553573d6000803e3d6000fd5b5050604051601f1901519150506001600160a01b03811661257c57600060019250925050612583565b9150600090505b94509492505050565b6000806001600160ff1b03831660ff84901c601b016125ad8782888561249f565b935093505050935093915050565b8280546125c790612c48565b90600052602060002090601f0160209004810192826125e9576000855561262f565b82601f1061260257805160ff191683800117855561262f565b8280016001018555821561262f579182015b8281111561262f578251825591602001919060010190612614565b5061263b92915061263f565b5090565b5b8082111561263b5760008155600101612640565b6001600160e01b031981168114610c6a57600080fd5b60006020828403121561267c57600080fd5b8135611e8081612654565b634e487b7160e01b600052604160045260246000fd5b604051601f8201601f1916810167ffffffffffffffff811182821017156126c6576126c6612687565b604052919050565b600067ffffffffffffffff8211156126e8576126e8612687565b50601f01601f191660200190565b6000612709612704846126ce565b61269d565b905082815283838301111561271d57600080fd5b828260208301376000602084830101529392505050565b60006020828403121561274657600080fd5b813567ffffffffffffffff81111561275d57600080fd5b8201601f8101841361276e57600080fd5b611ee7848235602084016126f6565b60005b83811015612798578181015183820152602001612780565b83811115610a795750506000910152565b600081518084526127c181602086016020860161277d565b601f01601f19169290920160200192915050565b602081526000611e8060208301846127a9565b6000602082840312156127fa57600080fd5b5035919050565b6001600160a01b0381168114610c6a57600080fd5b6000806040838503121561282957600080fd5b823561283481612801565b946020939093013593505050565b60006020828403121561285457600080fd5b8135611e8081612801565b60008060006060848603121561287457600080fd5b833561287f81612801565b9250602084013561288f81612801565b929592945050506040919091013590565b600080604083850312156128b357600080fd5b50508035926020909101359150565b600080604083850312156128d557600080fd5b8235915060208301356128e781612801565b809150509250929050565b6000806040838503121561290557600080fd5b823561291081612801565b9150602083013580151581146128e757600080fd5b6000806040838503121561293857600080fd5b823561294381612801565b915060208381013567ffffffffffffffff8082111561296157600080fd5b818601915086601f83011261297557600080fd5b81358181111561298757612987612687565b8060051b915061299884830161269d565b81815291830184019184810190898411156129b257600080fd5b938501935b838510156129d0578435825293850193908501906129b7565b8096505050505050509250929050565b600082601f8301126129f157600080fd5b611e80838335602085016126f6565b60008060008060808587031215612a1657600080fd5b8435612a2181612801565b93506020850135612a3181612801565b925060408501359150606085013567ffffffffffffffff811115612a5457600080fd5b612a60878288016129e0565b91505092959194509250565b6020808252825182820181905260009190848201906040850190845b81811015612aa457835183529284019291840191600101612a88565b50909695505050505050565b60008060408385031215612ac357600080fd5b82359150602083013567ffffffffffffffff811115612ae157600080fd5b612aed858286016129e0565b9150509250929050565b60008060408385031215612b0a57600080fd5b8235612b1581612801565b915060208301356128e781612801565b634e487b7160e01b600052601160045260246000fd5b600082821015612b4d57612b4d612b25565b500390565b6000816000190483118215151615612b6c57612b6c612b25565b500290565b600082612b8e57634e487b7160e01b600052601260045260246000fd5b500490565b6020808252818101527f4f776e61626c653a2063616c6c6572206973206e6f7420746865206f776e6572604082015260600190565b6020808252601f908201527f5265656e7472616e637947756172643a207265656e7472616e742063616c6c00604082015260600190565b60008219821115612c1257612c12612b25565b500190565b634e487b7160e01b600052603260045260246000fd5b6000600019821415612c4157612c41612b25565b5060010190565b600181811c90821680612c5c57607f821691505b60208210811415612c7d57634e487b7160e01b600052602260045260246000fd5b50919050565b600060208284031215612c9557600080fd5b815167ffffffffffffffff811115612cac57600080fd5b8201601f81018413612cbd57600080fd5b8051612ccb612704826126ce565b818152856020838501011115612ce057600080fd5b612cf182602083016020860161277d565b95945050505050565b600060208284031215612d0c57600080fd5b5051919050565b7f416363657373436f6e74726f6c3a206163636f756e7420000000000000000000815260008351612d4b81601785016020880161277d565b7001034b99036b4b9b9b4b733903937b6329607d1b6017918401918201528351612d7c81602884016020880161277d565b01602801949350505050565b600081612d9757612d97612b25565b506000190190565b6001600160a01b0385811682528416602082015260408101839052608060608201819052600090612dd2908301846127a9565b9695505050505050565b600060208284031215612dee57600080fd5b8151611e8081612654565b634e487b7160e01b600052602160045260246000fdfe850d585eb7f024ccee5e68e55f2c26cc72e1e6ee456acf62135757a5eb9d4a10ddf252ad1be2c89b69c2b068fc378daa952ba7f163c4a11628f55a4df523b3efa26469706673582212201103d45abd292a846d14494686b8e072db9d1e0c6573d462148f328e788f5bb364736f6c63430008090033",
  "linkReferences": {},
  "deployedLinkReferences": {}
}