{
  "_format": "hh-sol-artifact-1",
  "contractName": "RoyaltySplitter",
  "sourceName": "contracts/RoyaltySplitter.sol",
  "abi": [
    {
      "inputs": [
        {
          "internalType": "contract IERC721OwnsAll",
          "name": "collection",
          "type": "address"
        }
      ],
      "stateMutability": "payable",
      "type": "constructor"
    },
    {
      "inputs": [],
      "name": "InvalidCall",
      "type": "error"
    },
    {
      "anonymous": false,
      "inputs": [
        {
          "indexed": true,
          "internalType": "contract IERC20",
          "name": "token",
          "type": "address"
        },
        {
          "indexed": false,
          "internalType": "address",
          "name": "to",
          "type": "address"
        },
        {
          "indexed": false,
          "internalType": "uint256",
          "name": "amount",
          "type": "uint256"
        }
      ],
      "name": "ERC20PaymentReleased",
      "type": "event"
    },
    {
      "anonymous": false,
      "inputs": [
        {
          "indexed": false,
          "internalType": "address",
          "name": "account",
          "type": "address"
        },
        {
          "indexed": false,
          "internalType": "uint256",
          "name": "shares",
          "type": "uint256"
        }
      ],
      "name": "PayeeAdded",
      "type": "event"
    },
    {
      "anonymous": false,
      "inputs": [
        {
          "indexed": false,
          "internalType": "address",
          "name": "from",
          "type": "address"
        },
        {
          "indexed": false,
          "internalType": "uint256",
          "name": "amount",
          "type": "uint256"
        }
      ],
      "name": "PaymentReceived",
      "type": "event"
    },
    {
      "anonymous": false,
      "inputs": [
        {
          "indexed": false,
          "internalType": "address",
          "name": "to",
          "type": "address"
        },
        {
          "indexed": false,
          "internalType": "uint256",
          "name": "amount",
          "type": "uint256"
        }
      ],
      "name": "PaymentReleased",
      "type": "event"
    },
    {
      "inputs": [],
      "name": "COLLECTION",
      "outputs": [
        {
          "internalType": "contract IERC721OwnsAll",
          "name": "",
          "type": "address"
        }
      ],
      "stateMutability": "view",
      "type": "function"
    },
    {
      "inputs": [
        {
          "internalType": "uint256",
          "name": "tokenId",
          "type": "uint256"
        }
      ],
      "name": "payee",
      "outputs": [
        {
          "internalType": "address",
          "name": "",
          "type": "address"
        }
      ],
      "stateMutability": "view",
      "type": "function"
    },
    {
      "inputs": [
        {
          "internalType": "contract IERC20",
          "name": "token",
          "type": "address"
        },
        {
          "internalType": "uint256",
          "name": "tokenId",
          "type": "uint256"
        }
      ],
      "name": "release",
      "outputs": [],
      "stateMutability": "nonpayable",
      "type": "function"
    },
    {
      "inputs": [
        {
          "internalType": "uint256",
          "name": "tokenId",
          "type": "uint256"
        }
      ],
      "name": "release",
      "outputs": [],
      "stateMutability": "nonpayable",
      "type": "function"
    },
    {
      "inputs": [
        {
          "internalType": "uint256[]",
          "name": "tokenIds",
          "type": "uint256[]"
        }
      ],
      "name": "releaseBatch",
      "outputs": [],
      "stateMutability": "nonpayable",
      "type": "function"
    },
    {
      "inputs": [
        {
          "internalType": "contract IERC20",
          "name": "token",
          "type": "address"
        },
        {
          "internalType": "uint256[]",
          "name": "tokenIds",
          "type": "uint256[]"
        }
      ],
      "name": "releaseBatch",
      "outputs": [],
      "stateMutability": "nonpayable",
      "type": "function"
    },
    {
      "inputs": [
        {
          "internalType": "uint256",
          "name": "tokenId",
          "type": "uint256"
        }
      ],
      "name": "releaseable",
      "outputs": [
        {
          "internalType": "uint256",
          "name": "",
          "type": "uint256"
        }
      ],
      "stateMutability": "view",
      "type": "function"
    },
    {
      "inputs": [
        {
          "internalType": "contract IERC20",
          "name": "token",
          "type": "address"
        },
        {
          "internalType": "uint256",
          "name": "tokenId",
          "type": "uint256"
        }
      ],
      "name": "releaseable",
      "outputs": [
        {
          "internalType": "uint256",
          "name": "",
          "type": "uint256"
        }
      ],
      "stateMutability": "view",
      "type": "function"
    },
    {
      "inputs": [
        {
          "internalType": "contract IERC20",
          "name": "token",
          "type": "address"
        },
        {
          "internalType": "uint256[]",
          "name": "tokenIds",
          "type": "uint256[]"
        }
      ],
      "name": "releaseableBatch",
      "outputs": [
        {
          "internalType": "uint256",
          "name": "totalReleaseable",
          "type": "uint256"
        }
      ],
      "stateMutability": "view",
      "type": "function"
    },
    {
      "inputs": [
        {
          "internalType": "uint256[]",
          "name": "tokenIds",
          "type": "uint256[]"
        }
      ],
      "name": "releaseableBatch",
      "outputs": [
        {
          "internalType": "uint256",
          "name": "totalReleaseable",
          "type": "uint256"
        }
      ],
      "stateMutability": "view",
      "type": "function"
    },
    {
      "inputs": [
        {
          "internalType": "uint256",
          "name": "tokenId",
          "type": "uint256"
        }
      ],
      "name": "released",
      "outputs": [
        {
          "internalType": "uint256",
          "name": "",
          "type": "uint256"
        }
      ],
      "stateMutability": "view",
      "type": "function"
    },
    {
      "inputs": [
        {
          "internalType": "contract IERC20",
          "name": "token",
          "type": "address"
        },
        {
          "internalType": "uint256",
          "name": "tokenId",
          "type": "uint256"
        }
      ],
      "name": "released",
      "outputs": [
        {
          "internalType": "uint256",
          "name": "",
          "type": "uint256"
        }
      ],
      "stateMutability": "view",
      "type": "function"
    },
    {
      "inputs": [
        {
          "internalType": "address",
          "name": "account",
          "type": "address"
        }
      ],
      "name": "shares",
      "outputs": [
        {
          "internalType": "uint256",
          "name": "",
          "type": "uint256"
        }
      ],
      "stateMutability": "view",
      "type": "function"
    },
    {
      "inputs": [
        {
          "internalType": "contract IERC20",
          "name": "token",
          "type": "address"
        }
      ],
      "name": "totalReleased",
      "outputs": [
        {
          "internalType": "uint256",
          "name": "",
          "type": "uint256"
        }
      ],
      "stateMutability": "view",
      "type": "function"
    },
    {
      "inputs": [],
      "name": "totalReleased",
      "outputs": [
        {
          "internalType": "uint256",
          "name": "",
          "type": "uint256"
        }
      ],
      "stateMutability": "view",
      "type": "function"
    },
    {
      "stateMutability": "payable",
      "type": "receive"
    }
  ],
  "bytecode": "0x60a060405260405161158638038061158683398101604081905261002291610038565b60016000556001600160a01b0316608052610068565b60006020828403121561004a57600080fd5b81516001600160a01b038116811461006157600080fd5b9392505050565b6080516114e06100a66000396000818161022101528181610551015281816109bf01528181610bd801528181610c7c0152610e6d01526114e06000f3fe6080604052600436106100ec5760003560e01c80636e8790e61161008a578063ce7c2ac211610059578063ce7c2ac2146102e8578063cfe8307014610308578063d79779b21461034b578063e33b7de31461038157600080fd5b80636e8790e61461025b5780637d237eac1461027b5780638b83209b1461029b578063a94d373b146102bb57600080fd5b806337bdc99b116100c657806337bdc99b146101af5780633db9f02a146101cf5780636582f4fa146101ef578063697b23651461020f57600080fd5b80630357371d1461013a5780631908fc5a1461015c5780631e1ee1281461018f57600080fd5b36610135577f6ef95f06320e7a25a04a175ca677b7052bdd97131872c2192525a629f51be77033604080516001600160a01b0390921682523460208301520160405180910390a1005b600080fd5b34801561014657600080fd5b5061015a610155366004611121565b610396565b005b34801561016857600080fd5b5061017c6101773660046111f3565b6104eb565b6040519081526020015b60405180910390f35b34801561019b57600080fd5b5061015a6101aa366004611243565b610540565b3480156101bb57600080fd5b5061015a6101ca366004611278565b610724565b3480156101db57600080fd5b5061017c6101ea366004611243565b610840565b3480156101fb57600080fd5b5061017c61020a366004611278565b610886565b34801561021b57600080fd5b506102437f000000000000000000000000000000000000000000000000000000000000000081565b6040516001600160a01b039091168152602001610186565b34801561026757600080fd5b5061017c610276366004611121565b6108b8565b34801561028757600080fd5b5061015a6102963660046111f3565b610986565b3480156102a757600080fd5b506102436102b6366004611278565b610bbf565b3480156102c757600080fd5b5061017c6102d6366004611278565b60009081526002602052604090205490565b3480156102f457600080fd5b5061017c610303366004611291565b610c5a565b34801561031457600080fd5b5061017c610323366004611121565b6001600160a01b03919091166000908152600460209081526040808320938352929052205490565b34801561035757600080fd5b5061017c610366366004611291565b6001600160a01b031660009081526003602052604090205490565b34801561038d57600080fd5b5060015461017c565b600260005414156103c25760405162461bcd60e51b81526004016103b9906112ae565b60405180910390fd5b600260009081556103d282610bbf565b90506001600160a01b03811633146103fd5760405163574b16a760e11b815260040160405180910390fd5b600061040984846108b8565b9050806104295760405163574b16a760e11b815260040160405180910390fd5b6001600160a01b03841660009081526004602090815260408083208684529091528120805483929061045c9084906112fb565b90915550506001600160a01b038416600090815260036020526040812080548392906104899084906112fb565b9091555061049a9050848383610cf8565b604080516001600160a01b038481168252602082018490528616917f3be5b7a71e84ed12875d241991c70855ac5817d847039e17a9d895c1ceb0f18a910160405180910390a2505060016000555050565b6000805b82518110156105395761051b8484838151811061050e5761050e611313565b60200260200101516108b8565b61052590836112fb565b91508061053181611329565b9150506104ef565b5092915050565b60405163ad94d90160e01b815233907f00000000000000000000000000000000000000000000000000000000000000006001600160a01b03169063ad94d901906105909084908690600401611344565b60206040518083038186803b1580156105a857600080fd5b505afa1580156105bc573d6000803e3d6000fd5b505050506040513d601f19601f820116820180604052508101906105e0919061139a565b6105fd5760405163574b16a760e11b815260040160405180910390fd5b60008060005b845181101561069b5761062e85828151811061062157610621611313565b6020026020010151610886565b92508261063a57610689565b826002600087848151811061065157610651611313565b60200260200101518152602001908152602001600020600082825461067691906112fb565b90915550610686905083836112fb565b91505b8061069381611329565b915050610603565b50806106ba5760405163574b16a760e11b815260040160405180910390fd5b80600160008282546106cc91906112fb565b909155506106dc90508382610d4f565b604080516001600160a01b0385168152602081018390527fdf20fd1e76bc69d672e4814fafb2c449bba3a5369d8359adf9e05e6fde87b056910160405180910390a150505050565b600260005414156107475760405162461bcd60e51b81526004016103b9906112ae565b6002600090815561075782610bbf565b90506001600160a01b03811633146107825760405163574b16a760e11b815260040160405180910390fd5b600061078d83610886565b9050806107ad5760405163574b16a760e11b815260040160405180910390fd5b600083815260026020526040812080548392906107cb9084906112fb565b9250508190555080600160008282546107e491906112fb565b909155506107f490508282610d4f565b604080516001600160a01b0384168152602081018390527fdf20fd1e76bc69d672e4814fafb2c449bba3a5369d8359adf9e05e6fde87b056910160405180910390a15050600160005550565b6000805b82518110156108805761086283828151811061062157610621611313565b61086c90836112fb565b91508061087881611329565b915050610844565b50919050565b60006108b261089460015490565b61089e90476112fb565b600084815260026020526040902054610e68565b92915050565b6001600160a01b03821660009081526003602052604081205461097f906040516370a0823160e01b81523060048201526001600160a01b038616906370a082319060240160206040518083038186803b15801561091457600080fd5b505afa158015610928573d6000803e3d6000fd5b505050506040513d601f19601f8201168201806040525081019061094c91906113bc565b61095691906112fb565b6001600160a01b0385166000908152600460209081526040808320878452909152902054610e68565b9392505050565b600260005414156109a95760405162461bcd60e51b81526004016103b9906112ae565b600260005560405163ad94d90160e01b815233907f00000000000000000000000000000000000000000000000000000000000000006001600160a01b03169063ad94d901906109fe9084908690600401611344565b60206040518083038186803b158015610a1657600080fd5b505afa158015610a2a573d6000803e3d6000fd5b505050506040513d601f19601f82011682018060405250810190610a4e919061139a565b610a6b5760405163574b16a760e11b815260040160405180910390fd5b60008060005b8451811015610b1557610a908686838151811061050e5761050e611313565b925082610a9c57610b03565b6001600160a01b03861660009081526004602052604081208651859290889085908110610acb57610acb611313565b602002602001015181526020019081526020016000206000828254610af091906112fb565b90915550610b00905083836112fb565b91505b80610b0d81611329565b915050610a71565b5080610b345760405163574b16a760e11b815260040160405180910390fd5b6001600160a01b03851660009081526003602052604081208054839290610b5c9084906112fb565b90915550610b6d9050858483610cf8565b604080516001600160a01b038581168252602082018590528716917f3be5b7a71e84ed12875d241991c70855ac5817d847039e17a9d895c1ceb0f18a910160405180910390a250506001600055505050565b6040516331a9108f60e11b8152600481018290526000907f00000000000000000000000000000000000000000000000000000000000000006001600160a01b031690636352211e9060240160206040518083038186803b158015610c2257600080fd5b505afa158015610c36573d6000803e3d6000fd5b505050506040513d601f19601f820116820180604052508101906108b291906113d5565b6040516370a0823160e01b81526001600160a01b0382811660048301526000917f0000000000000000000000000000000000000000000000000000000000000000909116906370a082319060240160206040518083038186803b158015610cc057600080fd5b505afa158015610cd4573d6000803e3d6000fd5b505050506040513d601f19601f820116820180604052508101906108b291906113bc565b604080516001600160a01b038416602482015260448082018490528251808303909101815260649091019091526020810180516001600160e01b031663a9059cbb60e01b179052610d4a908490610f2c565b505050565b80471015610d9f5760405162461bcd60e51b815260206004820152601d60248201527f416464726573733a20696e73756666696369656e742062616c616e636500000060448201526064016103b9565b6000826001600160a01b03168260405160006040518083038185875af1925050503d8060008114610dec576040519150601f19603f3d011682016040523d82523d6000602084013e610df1565b606091505b5050905080610d4a5760405162461bcd60e51b815260206004820152603a60248201527f416464726573733a20756e61626c6520746f2073656e642076616c75652c207260448201527f6563697069656e74206d6179206861766520726576657274656400000000000060648201526084016103b9565b6000807f00000000000000000000000000000000000000000000000000000000000000006001600160a01b03166318160ddd6040518163ffffffff1660e01b815260040160206040518083038186803b158015610ec457600080fd5b505afa158015610ed8573d6000803e3d6000fd5b505050506040513d601f19601f82011682018060405250810190610efc91906113bc565b610f0690856113f2565b905082811015610f1a5760009150506108b2565b610f248382611414565b949350505050565b6000610f81826040518060400160405280602081526020017f5361666545524332303a206c6f772d6c6576656c2063616c6c206661696c6564815250856001600160a01b0316610ffe9092919063ffffffff16565b805190915015610d4a5780806020019051810190610f9f919061139a565b610d4a5760405162461bcd60e51b815260206004820152602a60248201527f5361666545524332303a204552433230206f7065726174696f6e20646964206e6044820152691bdd081cdd58d8d9595960b21b60648201526084016103b9565b6060610f24848460008585843b6110575760405162461bcd60e51b815260206004820152601d60248201527f416464726573733a2063616c6c20746f206e6f6e2d636f6e747261637400000060448201526064016103b9565b600080866001600160a01b03168587604051611073919061145b565b60006040518083038185875af1925050503d80600081146110b0576040519150601f19603f3d011682016040523d82523d6000602084013e6110b5565b606091505b50915091506110c58282866110d0565b979650505050505050565b606083156110df57508161097f565b8251156110ef5782518084602001fd5b8160405162461bcd60e51b81526004016103b99190611477565b6001600160a01b038116811461111e57600080fd5b50565b6000806040838503121561113457600080fd5b823561113f81611109565b946020939093013593505050565b634e487b7160e01b600052604160045260246000fd5b600082601f83011261117457600080fd5b8135602067ffffffffffffffff808311156111915761119161114d565b8260051b604051601f19603f830116810181811084821117156111b6576111b661114d565b6040529384528581018301938381019250878511156111d457600080fd5b83870191505b848210156110c5578135835291830191908301906111da565b6000806040838503121561120657600080fd5b823561121181611109565b9150602083013567ffffffffffffffff81111561122d57600080fd5b61123985828601611163565b9150509250929050565b60006020828403121561125557600080fd5b813567ffffffffffffffff81111561126c57600080fd5b610f2484828501611163565b60006020828403121561128a57600080fd5b5035919050565b6000602082840312156112a357600080fd5b813561097f81611109565b6020808252601f908201527f5265656e7472616e637947756172643a207265656e7472616e742063616c6c00604082015260600190565b634e487b7160e01b600052601160045260246000fd5b6000821982111561130e5761130e6112e5565b500190565b634e487b7160e01b600052603260045260246000fd5b600060001982141561133d5761133d6112e5565b5060010190565b6001600160a01b038316815260406020808301829052835191830182905260009184820191906060850190845b8181101561138d57845183529383019391830191600101611371565b5090979650505050505050565b6000602082840312156113ac57600080fd5b8151801515811461097f57600080fd5b6000602082840312156113ce57600080fd5b5051919050565b6000602082840312156113e757600080fd5b815161097f81611109565b60008261140f57634e487b7160e01b600052601260045260246000fd5b500490565b600082821015611426576114266112e5565b500390565b60005b8381101561144657818101518382015260200161142e565b83811115611455576000848401525b50505050565b6000825161146d81846020870161142b565b9190910192915050565b602081526000825180602084015261149681604085016020870161142b565b601f01601f1916919091016040019291505056fea26469706673582212207cbd5b9d15ffe9027cea8255c09f530128b47986c4d77a81ca918e17b935c59164736f6c63430008090033",
  "linkReferences": {},
  "deployedLinkReferences": {}
}