{
  "_format": "hh-sol-artifact-1",
  "contractName": "CashCows",
  "sourceName": "contracts/CashCows.sol",
  "abi": [
    {
      "inputs": [
        {
          "internalType": "string",
          "name": "preview",
          "type": "string"
        },
        {
          "internalType": "address",
          "name": "admin",
          "type": "address"
        }
      ],
      "stateMutability": "nonpayable",
      "type": "constructor"
    },
    {
      "inputs": [],
      "name": "ApprovalOwnerIsOperator",
      "type": "error"
    },
    {
      "inputs": [],
      "name": "ApprovalToCurrentOwner",
      "type": "error"
    },
    {
      "inputs": [],
      "name": "BalanceQueryZeroAddress",
      "type": "error"
    },
    {
      "inputs": [],
      "name": "ERC721ReceiverNotReceived",
      "type": "error"
    },
    {
      "inputs": [],
      "name": "InvalidCall",
      "type": "error"
    },
    {
      "inputs": [],
      "name": "NonExistentToken",
      "type": "error"
    },
    {
      "inputs": [],
      "name": "NotERC721Receiver",
      "type": "error"
    },
    {
      "anonymous": false,
      "inputs": [
        {
          "indexed": true,
          "internalType": "address",
          "name": "owner",
          "type": "address"
        },
        {
          "indexed": true,
          "internalType": "address",
          "name": "approved",
          "type": "address"
        },
        {
          "indexed": true,
          "internalType": "uint256",
          "name": "tokenId",
          "type": "uint256"
        }
      ],
      "name": "Approval",
      "type": "event"
    },
    {
      "anonymous": false,
      "inputs": [
        {
          "indexed": true,
          "internalType": "address",
          "name": "owner",
          "type": "address"
        },
        {
          "indexed": true,
          "internalType": "address",
          "name": "operator",
          "type": "address"
        },
        {
          "indexed": false,
          "internalType": "bool",
          "name": "approved",
          "type": "bool"
        }
      ],
      "name": "ApprovalForAll",
      "type": "event"
    },
    {
      "anonymous": false,
      "inputs": [
        {
          "indexed": true,
          "internalType": "address",
          "name": "previousOwner",
          "type": "address"
        },
        {
          "indexed": true,
          "internalType": "address",
          "name": "newOwner",
          "type": "address"
        }
      ],
      "name": "OwnershipTransferred",
      "type": "event"
    },
    {
      "anonymous": false,
      "inputs": [
        {
          "indexed": true,
          "internalType": "bytes32",
          "name": "role",
          "type": "bytes32"
        },
        {
          "indexed": true,
          "internalType": "bytes32",
          "name": "previousAdminRole",
          "type": "bytes32"
        },
        {
          "indexed": true,
          "internalType": "bytes32",
          "name": "newAdminRole",
          "type": "bytes32"
        }
      ],
      "name": "RoleAdminChanged",
      "type": "event"
    },
    {
      "anonymous": false,
      "inputs": [
        {
          "indexed": true,
          "internalType": "bytes32",
          "name": "role",
          "type": "bytes32"
        },
        {
          "indexed": true,
          "internalType": "address",
          "name": "account",
          "type": "address"
        },
        {
          "indexed": true,
          "internalType": "address",
          "name": "sender",
          "type": "address"
        }
      ],
      "name": "RoleGranted",
      "type": "event"
    },
    {
      "anonymous": false,
      "inputs": [
        {
          "indexed": true,
          "internalType": "bytes32",
          "name": "role",
          "type": "bytes32"
        },
        {
          "indexed": true,
          "internalType": "address",
          "name": "account",
          "type": "address"
        },
        {
          "indexed": true,
          "internalType": "address",
          "name": "sender",
          "type": "address"
        }
      ],
      "name": "RoleRevoked",
      "type": "event"
    },
    {
      "anonymous": false,
      "inputs": [
        {
          "indexed": true,
          "internalType": "address",
          "name": "from",
          "type": "address"
        },
        {
          "indexed": true,
          "internalType": "address",
          "name": "to",
          "type": "address"
        },
        {
          "indexed": true,
          "internalType": "uint256",
          "name": "tokenId",
          "type": "uint256"
        }
      ],
      "name": "Transfer",
      "type": "event"
    },
    {
      "inputs": [],
      "name": "DEFAULT_ADMIN_ROLE",
      "outputs": [
        {
          "internalType": "bytes32",
          "name": "",
          "type": "bytes32"
        }
      ],
      "stateMutability": "view",
      "type": "function"
    },
    {
      "inputs": [],
      "name": "MAX_FREE_PER_WALLET",
      "outputs": [
        {
          "internalType": "uint256",
          "name": "",
          "type": "uint256"
        }
      ],
      "stateMutability": "view",
      "type": "function"
    },
    {
      "inputs": [],
      "name": "MAX_PER_WALLET",
      "outputs": [
        {
          "internalType": "uint256",
          "name": "",
          "type": "uint256"
        }
      ],
      "stateMutability": "view",
      "type": "function"
    },
    {
      "inputs": [],
      "name": "MAX_SUPPLY",
      "outputs": [
        {
          "internalType": "uint16",
          "name": "",
          "type": "uint16"
        }
      ],
      "stateMutability": "view",
      "type": "function"
    },
    {
      "inputs": [],
      "name": "MINT_PRICE",
      "outputs": [
        {
          "internalType": "uint256",
          "name": "",
          "type": "uint256"
        }
      ],
      "stateMutability": "view",
      "type": "function"
    },
    {
      "inputs": [
        {
          "internalType": "address",
          "name": "to",
          "type": "address"
        },
        {
          "internalType": "uint256",
          "name": "tokenId",
          "type": "uint256"
        }
      ],
      "name": "approve",
      "outputs": [],
      "stateMutability": "nonpayable",
      "type": "function"
    },
    {
      "inputs": [
        {
          "internalType": "address",
          "name": "owner",
          "type": "address"
        }
      ],
      "name": "balanceOf",
      "outputs": [
        {
          "internalType": "uint256",
          "name": "",
          "type": "uint256"
        }
      ],
      "stateMutability": "view",
      "type": "function"
    },
    {
      "inputs": [
        {
          "internalType": "uint256",
          "name": "tokenId",
          "type": "uint256"
        }
      ],
      "name": "burn",
      "outputs": [],
      "stateMutability": "nonpayable",
      "type": "function"
    },
    {
      "inputs": [
        {
          "internalType": "uint256",
          "name": "",
          "type": "uint256"
        }
      ],
      "name": "burned",
      "outputs": [
        {
          "internalType": "address",
          "name": "",
          "type": "address"
        }
      ],
      "stateMutability": "view",
      "type": "function"
    },
    {
      "inputs": [],
      "name": "contractURI",
      "outputs": [
        {
          "internalType": "string",
          "name": "",
          "type": "string"
        }
      ],
      "stateMutability": "view",
      "type": "function"
    },
    {
      "inputs": [
        {
          "internalType": "uint256",
          "name": "tokenId",
          "type": "uint256"
        }
      ],
      "name": "getApproved",
      "outputs": [
        {
          "internalType": "address",
          "name": "",
          "type": "address"
        }
      ],
      "stateMutability": "view",
      "type": "function"
    },
    {
      "inputs": [
        {
          "internalType": "bytes32",
          "name": "role",
          "type": "bytes32"
        }
      ],
      "name": "getRoleAdmin",
      "outputs": [
        {
          "internalType": "bytes32",
          "name": "",
          "type": "bytes32"
        }
      ],
      "stateMutability": "view",
      "type": "function"
    },
    {
      "inputs": [
        {
          "internalType": "bytes32",
          "name": "role",
          "type": "bytes32"
        },
        {
          "internalType": "address",
          "name": "account",
          "type": "address"
        }
      ],
      "name": "grantRole",
      "outputs": [],
      "stateMutability": "nonpayable",
      "type": "function"
    },
    {
      "inputs": [
        {
          "internalType": "bytes32",
          "name": "role",
          "type": "bytes32"
        },
        {
          "internalType": "address",
          "name": "account",
          "type": "address"
        }
      ],
      "name": "hasRole",
      "outputs": [
        {
          "internalType": "bool",
          "name": "",
          "type": "bool"
        }
      ],
      "stateMutability": "view",
      "type": "function"
    },
    {
      "inputs": [
        {
          "internalType": "address",
          "name": "owner",
          "type": "address"
        },
        {
          "internalType": "address",
          "name": "operator",
          "type": "address"
        }
      ],
      "name": "isApprovedForAll",
      "outputs": [
        {
          "internalType": "bool",
          "name": "",
          "type": "bool"
        }
      ],
      "stateMutability": "view",
      "type": "function"
    },
    {
      "inputs": [
        {
          "internalType": "address",
          "name": "recipient",
          "type": "address"
        },
        {
          "internalType": "uint256",
          "name": "quantity",
          "type": "uint256"
        }
      ],
      "name": "mint",
      "outputs": [],
      "stateMutability": "nonpayable",
      "type": "function"
    },
    {
      "inputs": [
        {
          "internalType": "uint256",
          "name": "quantity",
          "type": "uint256"
        },
        {
          "internalType": "uint256",
          "name": "maxMint",
          "type": "uint256"
        },
        {
          "internalType": "uint256",
          "name": "maxFree",
          "type": "uint256"
        },
        {
          "internalType": "bytes",
          "name": "proof",
          "type": "bytes"
        }
      ],
      "name": "mint",
      "outputs": [],
      "stateMutability": "payable",
      "type": "function"
    },
    {
      "inputs": [
        {
          "internalType": "uint256",
          "name": "quantity",
          "type": "uint256"
        }
      ],
      "name": "mint",
      "outputs": [],
      "stateMutability": "payable",
      "type": "function"
    },
    {
      "inputs": [],
      "name": "mintOpened",
      "outputs": [
        {
          "internalType": "bool",
          "name": "",
          "type": "bool"
        }
      ],
      "stateMutability": "view",
      "type": "function"
    },
    {
      "inputs": [
        {
          "internalType": "address",
          "name": "",
          "type": "address"
        }
      ],
      "name": "minted",
      "outputs": [
        {
          "internalType": "uint256",
          "name": "",
          "type": "uint256"
        }
      ],
      "stateMutability": "view",
      "type": "function"
    },
    {
      "inputs": [],
      "name": "name",
      "outputs": [
        {
          "internalType": "string",
          "name": "",
          "type": "string"
        }
      ],
      "stateMutability": "pure",
      "type": "function"
    },
    {
      "inputs": [
        {
          "internalType": "bool",
          "name": "yes",
          "type": "bool"
        }
      ],
      "name": "openMint",
      "outputs": [],
      "stateMutability": "nonpayable",
      "type": "function"
    },
    {
      "inputs": [],
      "name": "owner",
      "outputs": [
        {
          "internalType": "address",
          "name": "",
          "type": "address"
        }
      ],
      "stateMutability": "view",
      "type": "function"
    },
    {
      "inputs": [
        {
          "internalType": "uint256",
          "name": "tokenId",
          "type": "uint256"
        }
      ],
      "name": "ownerOf",
      "outputs": [
        {
          "internalType": "address",
          "name": "",
          "type": "address"
        }
      ],
      "stateMutability": "view",
      "type": "function"
    },
    {
      "inputs": [
        {
          "internalType": "address",
          "name": "owner",
          "type": "address"
        }
      ],
      "name": "ownerTokens",
      "outputs": [
        {
          "internalType": "uint256[]",
          "name": "",
          "type": "uint256[]"
        }
      ],
      "stateMutability": "view",
      "type": "function"
    },
    {
      "inputs": [
        {
          "internalType": "address",
          "name": "owner",
          "type": "address"
        },
        {
          "internalType": "uint256[]",
          "name": "tokenIds",
          "type": "uint256[]"
        }
      ],
      "name": "ownsAll",
      "outputs": [
        {
          "internalType": "bool",
          "name": "",
          "type": "bool"
        }
      ],
      "stateMutability": "view",
      "type": "function"
    },
    {
      "inputs": [],
      "name": "renounceOwnership",
      "outputs": [],
      "stateMutability": "nonpayable",
      "type": "function"
    },
    {
      "inputs": [
        {
          "internalType": "bytes32",
          "name": "role",
          "type": "bytes32"
        },
        {
          "internalType": "address",
          "name": "account",
          "type": "address"
        }
      ],
      "name": "renounceRole",
      "outputs": [],
      "stateMutability": "nonpayable",
      "type": "function"
    },
    {
      "inputs": [
        {
          "internalType": "bytes32",
          "name": "role",
          "type": "bytes32"
        },
        {
          "internalType": "address",
          "name": "account",
          "type": "address"
        }
      ],
      "name": "revokeRole",
      "outputs": [],
      "stateMutability": "nonpayable",
      "type": "function"
    },
    {
      "inputs": [
        {
          "internalType": "uint256",
          "name": "_tokenId",
          "type": "uint256"
        },
        {
          "internalType": "uint256",
          "name": "_salePrice",
          "type": "uint256"
        }
      ],
      "name": "royaltyInfo",
      "outputs": [
        {
          "internalType": "address",
          "name": "receiver",
          "type": "address"
        },
        {
          "internalType": "uint256",
          "name": "royaltyAmount",
          "type": "uint256"
        }
      ],
      "stateMutability": "view",
      "type": "function"
    },
    {
      "inputs": [],
      "name": "royaltyPercent",
      "outputs": [
        {
          "internalType": "uint256",
          "name": "",
          "type": "uint256"
        }
      ],
      "stateMutability": "view",
      "type": "function"
    },
    {
      "inputs": [
        {
          "internalType": "address",
          "name": "from",
          "type": "address"
        },
        {
          "internalType": "address",
          "name": "to",
          "type": "address"
        },
        {
          "internalType": "uint256",
          "name": "tokenId",
          "type": "uint256"
        }
      ],
      "name": "safeTransferFrom",
      "outputs": [],
      "stateMutability": "nonpayable",
      "type": "function"
    },
    {
      "inputs": [
        {
          "internalType": "address",
          "name": "from",
          "type": "address"
        },
        {
          "internalType": "address",
          "name": "to",
          "type": "address"
        },
        {
          "internalType": "uint256",
          "name": "tokenId",
          "type": "uint256"
        },
        {
          "internalType": "bytes",
          "name": "_data",
          "type": "bytes"
        }
      ],
      "name": "safeTransferFrom",
      "outputs": [],
      "stateMutability": "nonpayable",
      "type": "function"
    },
    {
      "inputs": [
        {
          "internalType": "address",
          "name": "operator",
          "type": "address"
        },
        {
          "internalType": "bool",
          "name": "approved",
          "type": "bool"
        }
      ],
      "name": "setApprovalForAll",
      "outputs": [],
      "stateMutability": "nonpayable",
      "type": "function"
    },
    {
      "inputs": [
        {
          "internalType": "string",
          "name": "uri",
          "type": "string"
        }
      ],
      "name": "setURI",
      "outputs": [],
      "stateMutability": "nonpayable",
      "type": "function"
    },
    {
      "inputs": [
        {
          "internalType": "bytes4",
          "name": "interfaceId",
          "type": "bytes4"
        }
      ],
      "name": "supportsInterface",
      "outputs": [
        {
          "internalType": "bool",
          "name": "",
          "type": "bool"
        }
      ],
      "stateMutability": "view",
      "type": "function"
    },
    {
      "inputs": [],
      "name": "symbol",
      "outputs": [
        {
          "internalType": "string",
          "name": "",
          "type": "string"
        }
      ],
      "stateMutability": "pure",
      "type": "function"
    },
    {
      "inputs": [
        {
          "internalType": "uint256",
          "name": "tokenId",
          "type": "uint256"
        }
      ],
      "name": "tokenURI",
      "outputs": [
        {
          "internalType": "string",
          "name": "",
          "type": "string"
        }
      ],
      "stateMutability": "view",
      "type": "function"
    },
    {
      "inputs": [],
      "name": "totalSupply",
      "outputs": [
        {
          "internalType": "uint256",
          "name": "",
          "type": "uint256"
        }
      ],
      "stateMutability": "view",
      "type": "function"
    },
    {
      "inputs": [
        {
          "internalType": "address",
          "name": "from",
          "type": "address"
        },
        {
          "internalType": "address",
          "name": "to",
          "type": "address"
        },
        {
          "internalType": "uint256",
          "name": "tokenId",
          "type": "uint256"
        }
      ],
      "name": "transferFrom",
      "outputs": [],
      "stateMutability": "nonpayable",
      "type": "function"
    },
    {
      "inputs": [
        {
          "internalType": "address",
          "name": "newOwner",
          "type": "address"
        }
      ],
      "name": "transferOwnership",
      "outputs": [],
      "stateMutability": "nonpayable",
      "type": "function"
    },
    {
      "inputs": [],
      "name": "treasury",
      "outputs": [
        {
          "internalType": "contract IRoyaltySplitter",
          "name": "",
          "type": "address"
        }
      ],
      "stateMutability": "view",
      "type": "function"
    },
    {
      "inputs": [
        {
          "internalType": "contract IMetadata",
          "name": "metadata",
          "type": "address"
        }
      ],
      "name": "updateMetadata",
      "outputs": [],
      "stateMutability": "nonpayable",
      "type": "function"
    },
    {
      "inputs": [
        {
          "internalType": "uint256",
          "name": "percent",
          "type": "uint256"
        }
      ],
      "name": "updateRoyalty",
      "outputs": [],
      "stateMutability": "nonpayable",
      "type": "function"
    },
    {
      "inputs": [
        {
          "internalType": "contract IRoyaltySplitter",
          "name": "splitter",
          "type": "address"
        }
      ],
      "name": "updateTreasury",
      "outputs": [],
      "stateMutability": "nonpayable",
      "type": "function"
    },
    {
      "inputs": [
        {
          "internalType": "address",
          "name": "recipient",
          "type": "address"
        }
      ],
      "name": "withdraw",
      "outputs": [],
      "stateMutability": "nonpayable",
      "type": "function"
    }
  ],
  "bytecode": "0x60806040526103e8600d553480156200001757600080fd5b5060405162003218380380620032188339810160408190526200003a9162000258565b600160005581816200004c3362000079565b62000059600082620000cb565b81516200006e90600b9060208501906200017f565b505050505062000386565b600180546001600160a01b038381166001600160a01b0319831681179093556040519116919082907f8be0079c531659141344cd1fd0a4f28419497f9722a3daafe3b4186f6b6457e090600090a35050565b620000d78282620000db565b5050565b60008281526002602090815260408083206001600160a01b038516845290915290205460ff16620000d75760008281526002602090815260408083206001600160a01b03851684529091529020805460ff191660011790556200013b3390565b6001600160a01b0316816001600160a01b0316837f2f8788117e7eff1d82e926ec794901d17c78024a50270940304540a733656f0d60405160405180910390a45050565b8280546200018d9062000349565b90600052602060002090601f016020900481019282620001b15760008555620001fc565b82601f10620001cc57805160ff1916838001178555620001fc565b82800160010185558215620001fc579182015b82811115620001fc578251825591602001919060010190620001df565b506200020a9291506200020e565b5090565b5b808211156200020a57600081556001016200020f565b634e487b7160e01b600052604160045260246000fd5b80516001600160a01b03811681146200025357600080fd5b919050565b600080604083850312156200026c57600080fd5b82516001600160401b03808211156200028457600080fd5b818501915085601f8301126200029957600080fd5b815181811115620002ae57620002ae62000225565b604051601f8201601f19908116603f01168101908382118183101715620002d957620002d962000225565b81604052828152602093508884848701011115620002f657600080fd5b600091505b828210156200031a5784820184015181830185015290830190620002fb565b828211156200032c5760008484830101525b95506200033e9150508582016200023b565b925050509250929050565b600181811c908216806200035e57607f821691505b602082108114156200038057634e487b7160e01b600052602260045260246000fd5b50919050565b612e8280620003966000396000f3fe60806040526004361061027d5760003560e01c806370a082311161014f578063a217fddf116100c1578063c5e2a7db1161007a578063c5e2a7db146107e6578063c87b56dd14610806578063d547741f14610826578063e8a3d48514610846578063e985e9c51461085b578063f2fde38b1461087b57600080fd5b8063a217fddf14610729578063a22cb4651461073e578063ad94d9011461075e578063b88d4fde1461077e578063bba7723e1461079e578063c002d23d146107cb57600080fd5b806391d148541161011357806391d148541461068557806395d89b41146106a557806398710d1e146106d15780639b70a340146106e65780639f67756d14610700578063a0712d681461071657600080fd5b806370a08231146105f2578063715018a6146106125780637f51bb1f146106275780638da5cb5b146106475780638fffd8b51461066557600080fd5b80632a55205a116101f357806342966c68116101ac57806342966c681461053f5780634a9eee691461055f57806351cff8d91461057257806358a85bca1461059257806361d027b3146105b25780636352211e146105d257600080fd5b80632a55205a146104575780632f2ff15d1461049657806332cb6b0c146104b657806336568abe146104df57806340c10f19146104ff57806342842e0e1461051f57600080fd5b80630f2cdd6c116102455780630f2cdd6c1461036c57806318160ddd1461038f5780631e7269c5146103a457806323250cae146103d157806323b872dd14610407578063248a9ca31461042757600080fd5b806301ffc9a71461028257806302fe5305146102b757806306fdde03146102d9578063081812fc14610314578063095ea7b31461034c575b600080fd5b34801561028e57600080fd5b506102a261029d366004612653565b61089b565b60405190151581526020015b60405180910390f35b3480156102c357600080fd5b506102d76102d236600461271d565b6108e1565b005b3480156102e557600080fd5b506040805180820190915260098152684361736820436f777360b81b60208201525b6040516102ae91906127be565b34801561032057600080fd5b5061033461032f3660046127d1565b610907565b6040516001600160a01b0390911681526020016102ae565b34801561035857600080fd5b506102d76103673660046127ff565b61094b565b34801561037857600080fd5b50610381600981565b6040519081526020016102ae565b34801561039b57600080fd5b506103816109db565b3480156103b057600080fd5b506103816103bf36600461282b565b600f6020526000908152604090205481565b3480156103dd57600080fd5b506103346103ec3660046127d1565b6009602052600090815260409020546001600160a01b031681565b34801561041357600080fd5b506102d7610422366004612848565b6109f8565b34801561043357600080fd5b506103816104423660046127d1565b60009081526002602052604090206001015490565b34801561046357600080fd5b50610477610472366004612889565b610a09565b604080516001600160a01b0390931683526020830191909152016102ae565b3480156104a257600080fd5b506102d76104b13660046128ab565b610a80565b3480156104c257600080fd5b506104cc611e6181565b60405161ffff90911681526020016102ae565b3480156104eb57600080fd5b506102d76104fa3660046128ab565b610aa6565b34801561050b57600080fd5b506102d761051a3660046127ff565b610b25565b34801561052b57600080fd5b506102d761053a366004612848565b610bc1565b34801561054b57600080fd5b506102d761055a3660046127d1565b610bdc565b6102d761056d3660046128fb565b610cf1565b34801561057e57600080fd5b506102d761058d36600461282b565b610f6c565b34801561059e57600080fd5b506102d76105ad36600461296a565b611025565b3480156105be57600080fd5b50600c54610334906001600160a01b031681565b3480156105de57600080fd5b506103346105ed3660046127d1565b611052565b3480156105fe57600080fd5b5061038161060d36600461282b565b611091565b34801561061e57600080fd5b506102d76110d6565b34801561063357600080fd5b506102d761064236600461282b565b61110c565b34801561065357600080fd5b506001546001600160a01b0316610334565b34801561067157600080fd5b506102d76106803660046127d1565b611148565b34801561069157600080fd5b506102a26106a03660046128ab565b61119c565b3480156106b157600080fd5b506040805180820190915260038152624d4f4f60e81b6020820152610307565b3480156106dd57600080fd5b50610381600181565b3480156106f257600080fd5b506010546102a29060ff1681565b34801561070c57600080fd5b50610381600d5481565b6102d76107243660046127d1565b6111c7565b34801561073557600080fd5b50610381600081565b34801561074a57600080fd5b506102d7610759366004612985565b611369565b34801561076a57600080fd5b506102a26107793660046129ba565b611374565b34801561078a57600080fd5b506102d7610799366004612a75565b6113e1565b3480156107aa57600080fd5b506107be6107b936600461282b565b6113ed565b6040516102ae9190612ac9565b3480156107d757600080fd5b506103816611c37937e0800081565b3480156107f257600080fd5b506102d761080136600461282b565b6114f0565b34801561081257600080fd5b506103076108213660046127d1565b61152c565b34801561083257600080fd5b506102d76108413660046128ab565b611676565b34801561085257600080fd5b5061030761169c565b34801561086757600080fd5b506102a2610876366004612b0d565b61172e565b34801561088757600080fd5b506102d761089636600461282b565b611791565b60006001600160e01b03198216635b5e139f60e01b14806108cc57506001600160e01b0319821663152a902d60e11b145b806108db57506108db8261182c565b92915050565b600080516020612e0d8339815191526108fa8133611851565b610903826118b5565b5050565b6000610912826118c8565b61092f57604051634a1850bf60e11b815260040160405180910390fd5b506000908152600660205260409020546001600160a01b031690565b6000610956826118f1565b9050806001600160a01b0316836001600160a01b0316141561098b5760405163250fdee360e21b815260040160405180910390fd5b336001600160a01b03821681148015906109ac57506109aa828261172e565b155b156109ca5760405163250fdee360e21b815260040160405180910390fd5b6109d58484846119ae565b50505050565b6000600a546109e960035490565b6109f39190612b51565b905090565b610a0433848484611a0a565b505050565b600c5460009081906001600160a01b03161580610a2c5750610a2a846118c8565b155b15610a4a5760405163574b16a760e11b815260040160405180910390fd5b600c54600d546001600160a01b039091169061271090610a6a9086612b68565b610a749190612b87565b915091505b9250929050565b600082815260026020526040902060010154610a9c8133611851565b610a048383611a3d565b6001600160a01b0381163314610b1b5760405162461bcd60e51b815260206004820152602f60248201527f416363657373436f6e74726f6c3a2063616e206f6e6c792072656e6f756e636560448201526e103937b632b9903337b91039b2b63360891b60648201526084015b60405180910390fd5b6109038282611ac3565b7f9f2df0fed2c77648de5860a4cc508cd0818c85b8b8a1ab4ceeef8d981c8956a6610b508133611851565b60026000541415610b735760405162461bcd60e51b8152600401610b1290612ba9565b6002600055611e6182610b846109db565b610b8e9190612be0565b1115610bad5760405163574b16a760e11b815260040160405180910390fd5b610bb78383611b2a565b5050600160005550565b610a04838383604051806020016040528060008152506113e1565b6000610be7826118f1565b9050610bf4338383611b44565b610c115760405163574b16a760e11b815260040160405180910390fd5b610c1d600083836119ae565b60018201610c2a816118c8565b8015610c4b57506000818152600460205260409020546001600160a01b0316155b15610c7857600081815260046020526040902080546001600160a01b0319166001600160a01b0384161790555b50600082815260096020908152604080832080546001600160a01b0386166001600160a01b0319918216811790925581855260058452828520805460001901905586855260049093528184208054909316909255600a805460010190555184929190600080516020612e2d833981519152908390a45050565b60026000541415610d145760405162461bcd60e51b8152600401610b1290612ba9565b60026000553382841080610d4a57506001600160a01b0381166000908152600f60205260409020548490610d489087612be0565b115b80610d685750611e6185610d5c6109db565b610d669190612be0565b115b80610e475750604051631b5a5b9d60e21b60208201526bffffffffffffffffffffffff19606083901b1660248201526038810185905260588101849052610e45907f9f2df0fed2c77648de5860a4cc508cd0818c85b8b8a1ab4ceeef8d981c8956a6906106a090610e3f90607801604051602081830303815290604052805190602001206040517f19457468657265756d205369676e6564204d6573736167653a0a3332000000006020820152603c8101829052600090605c01604051602081830303815290604052805190602001209050919050565b85611b97565b155b15610e655760405163574b16a760e11b815260040160405180910390fd5b6001600160a01b0381166000908152600f6020526040902054831115610ef7576001600160a01b0381166000908152600f6020526040812054610ea89085612b51565b90508581108015610ed35750346611c37937e08000610ec78389612b51565b610ed19190612b68565b115b15610ef15760405163574b16a760e11b815260040160405180910390fd5b50610f28565b34610f096611c37937e0800087612b68565b1115610f285760405163574b16a760e11b815260040160405180910390fd5b6001600160a01b0381166000908152600f602052604081208054879290610f50908490612be0565b90915550610f6090508186611b2a565b50506001600055505050565b6001546001600160a01b03163314610f965760405162461bcd60e51b8152600401610b1290612bf8565b60026000541415610fb95760405162461bcd60e51b8152600401610b1290612ba9565b6002600055600e546001600160a01b0316610fe75760405163574b16a760e11b815260040160405180910390fd5b6040516001600160a01b038216904780156108fc02916000818181858888f1935050505015801561101c573d6000803e3d6000fd5b50506001600055565b600080516020612e0d83398151915261103e8133611851565b506010805460ff1916911515919091179055565b6000818152600960205260408120546001600160a01b03161561108857604051634a1850bf60e11b815260040160405180910390fd5b6108db826118f1565b60006001600160a01b0382166110ba576040516316285dcb60e11b815260040160405180910390fd5b506001600160a01b031660009081526005602052604090205490565b6001546001600160a01b031633146111005760405162461bcd60e51b8152600401610b1290612bf8565b61110a6000611bb3565b565b600080516020612e0d8339815191526111258133611851565b50600c80546001600160a01b0319166001600160a01b0392909216919091179055565b7f3b5d4cc60d3ec3516ee8ae083bd60934f6eb2a6c54b1229985c41bfb092b26036111738133611851565b6103e88211156111965760405163574b16a760e11b815260040160405180910390fd5b50600d55565b60009182526002602090815260408084206001600160a01b0393909316845291905290205460ff1690565b600260005414156111ea5760405162461bcd60e51b8152600401610b1290612ba9565b600260005533803b151580611202575060105460ff16155b8061123057506001600160a01b0381166000908152600f602052604090205460099061122e9084612be0565b115b8061124e5750611e61826112426109db565b61124c9190612be0565b115b1561126c5760405163574b16a760e11b815260040160405180910390fd5b6001600160a01b0381166000908152600f602052604090205460011115611300576001600160a01b0381166000908152600f60205260408120546112b1906001612b51565b905082811080156112dc5750346611c37937e080006112d08386612b51565b6112da9190612b68565b115b156112fa5760405163574b16a760e11b815260040160405180910390fd5b50611331565b346113126611c37937e0800084612b68565b11156113315760405163574b16a760e11b815260040160405180910390fd5b6001600160a01b0381166000908152600f602052604081208054849290611359908490612be0565b9091555061101c90508183611b2a565b610903338383611c05565b6000805b82518110156113d7576113a383828151811061139657611396612c2d565b6020026020010151611052565b6001600160a01b0316846001600160a01b0316146113c55760009150506108db565b806113cf81612c43565b915050611378565b5060019392505050565b6109d584848484611ca5565b606060006113fa83611091565b90508061141b5760408051600080825260208201909252905b509392505050565b60008167ffffffffffffffff81111561143657611436612670565b60405190808252806020026020018201604052801561145f578160200160208202803683370190505b509050600061146c6109db565b9050600060015b8281116114e55761148381611052565b6001600160a01b0316876001600160a01b031614156114d3578084836114a881612c43565b9450815181106114ba576114ba612c2d565b602002602001018181525050848214156114d3576114e5565b806114dd81612c43565b915050611473565b509195945050505050565b600080516020612e0d8339815191526115098133611851565b50600e80546001600160a01b0319166001600160a01b0392909216919091179055565b6060611537826118c8565b6115545760405163574b16a760e11b815260040160405180910390fd5b600e546001600160a01b03166115f657600b805461157190612c5e565b80601f016020809104026020016040519081016040528092919081815260200182805461159d90612c5e565b80156115ea5780601f106115bf576101008083540402835291602001916115ea565b820191906000526020600020905b8154815290600101906020018083116115cd57829003601f168201915b50505050509050919050565b600e5460405163c87b56dd60e01b8152600481018490526001600160a01b039091169063c87b56dd9060240160006040518083038186803b15801561163a57600080fd5b505afa15801561164e573d6000803e3d6000fd5b505050506040513d6000823e601f3d908101601f191682016040526108db9190810190612c99565b6000828152600260205260409020600101546116928133611851565b610a048383611ac3565b6060600880546116ab90612c5e565b80601f01602080910402602001604051908101604052809291908181526020018280546116d790612c5e565b80156117245780601f106116f957610100808354040283529160200191611724565b820191906000526020600020905b81548152906001019060200180831161170757829003601f168201915b5050505050905090565b600061175a7f4a0c3698e72495f6d49f6ef074f2b34cac5b153c817a7cc37789cccbb873cf5d8361119c565b8061178a57506001600160a01b0380841660009081526007602090815260408083209386168352929052205460ff165b9392505050565b6001546001600160a01b031633146117bb5760405162461bcd60e51b8152600401610b1290612bf8565b6001600160a01b0381166118205760405162461bcd60e51b815260206004820152602660248201527f4f776e61626c653a206e6577206f776e657220697320746865207a65726f206160448201526564647265737360d01b6064820152608401610b12565b61182981611bb3565b50565b60006001600160e01b031982166380ac58cd60e01b14806108db57506108db82611cf2565b61185b828261119c565b61090357611873816001600160a01b03166014611d27565b61187e836020611d27565b60405160200161188f929190612d10565b60408051601f198184030181529082905262461bcd60e51b8252610b12916004016127be565b80516109039060089060208401906125a4565b6000818152600960205260408120546001600160a01b03161580156108db57506108db82611ec3565b60008181526004602052604081205482906001600160a01b03161561192e576000908152600460205260409020546001600160a01b031692915050565b60008111801561194057506003548111155b15611994575b600019018061195457611994565b6000818152600460205260409020546001600160a01b03161561198f576000908152600460205260409020546001600160a01b031692915050565b611946565b50604051634a1850bf60e11b815260040160405180910390fd5b60008281526006602052604080822080546001600160a01b0319166001600160a01b0387811691821790925591518593918516917f8c5be1e5ebec7d5bd14f71427d1e84f3dd0314c0f7b2291e5b200ac8c7c3b92591a4505050565b611a15848285611b44565b611a325760405163574b16a760e11b815260040160405180910390fd5b6109d5838383611ed8565b611a47828261119c565b6109035760008281526002602090815260408083206001600160a01b03851684529091529020805460ff19166001179055611a7f3390565b6001600160a01b0316816001600160a01b0316837f2f8788117e7eff1d82e926ec794901d17c78024a50270940304540a733656f0d60405160405180910390a45050565b611acd828261119c565b156109035760008281526002602090815260408083206001600160a01b0385168085529252808320805460ff1916905551339285917ff6391f5c32d9c69d2a47ea670b442974b53935d1edc7fd64eb21e047a839171b9190a45050565b610903828260405180602001604052806000815250612010565b6000816001600160a01b0316846001600160a01b03161480611b7f5750836001600160a01b0316611b7484610907565b6001600160a01b0316145b80611b8f5750611b8f828561172e565b949350505050565b6000806000611ba6858561201d565b915091506114138161208a565b600180546001600160a01b038381166001600160a01b0319831681179093556040519116919082907f8be0079c531659141344cd1fd0a4f28419497f9722a3daafe3b4186f6b6457e090600090a35050565b816001600160a01b0316836001600160a01b03161415611c385760405163079f14e360e51b815260040160405180910390fd5b6001600160a01b03838116600081815260076020908152604080832094871680845294825291829020805460ff191686151590811790915591519182527f17307eab39ab6107e8899845ad3d59bd9653f200f220920489ca2b5937696c31910160405180910390a3505050565b611cb133858585611a0a565b6000836001600160a01b03163b118015611cd45750611cd284848484612245565b155b156109d557604051631f11849560e21b815260040160405180910390fd5b60006001600160e01b03198216637965db0b60e01b14806108db57506301ffc9a760e01b6001600160e01b03198316146108db565b60606000611d36836002612b68565b611d41906002612be0565b67ffffffffffffffff811115611d5957611d59612670565b6040519080825280601f01601f191660200182016040528015611d83576020820181803683370190505b509050600360fc1b81600081518110611d9e57611d9e612c2d565b60200101906001600160f81b031916908160001a905350600f60fb1b81600181518110611dcd57611dcd612c2d565b60200101906001600160f81b031916908160001a9053506000611df1846002612b68565b611dfc906001612be0565b90505b6001811115611e74576f181899199a1a9b1b9c1cb0b131b232b360811b85600f1660108110611e3057611e30612c2d565b1a60f81b828281518110611e4657611e46612c2d565b60200101906001600160f81b031916908160001a90535060049490941c93611e6d81612d85565b9050611dff565b50831561178a5760405162461bcd60e51b815260206004820181905260248201527f537472696e67733a20686578206c656e67746820696e73756666696369656e746044820152606401610b12565b600080821180156108db575050600354101590565b6001600160a01b0382161580611f085750611ef2816118f1565b6001600160a01b0316836001600160a01b031614155b15611f265760405163574b16a760e11b815260040160405180910390fd5b611f32600082856119ae565b6001600160a01b03808316600081815260056020908152604080832080546001908101909155948816835280832080546000190190558583526004909152902080546001600160a01b0319169091179055600354908201908111801590611fae57506000818152600460205260409020546001600160a01b0316155b15611fdb57600081815260046020526040902080546001600160a01b0319166001600160a01b0386161790555b5080826001600160a01b0316846001600160a01b0316600080516020612e2d83398151915260405160405180910390a4505050565b610a04838383600161233c565b6000808251604114156120545760208301516040840151606085015160001a61204887828585612488565b94509450505050610a79565b82516040141561207e5760208301516040840151612073868383612575565b935093505050610a79565b50600090506002610a79565b600081600481111561209e5761209e612d9c565b14156120a75750565b60018160048111156120bb576120bb612d9c565b14156121095760405162461bcd60e51b815260206004820152601860248201527f45434453413a20696e76616c6964207369676e617475726500000000000000006044820152606401610b12565b600281600481111561211d5761211d612d9c565b141561216b5760405162461bcd60e51b815260206004820152601f60248201527f45434453413a20696e76616c6964207369676e6174757265206c656e677468006044820152606401610b12565b600381600481111561217f5761217f612d9c565b14156121d85760405162461bcd60e51b815260206004820152602260248201527f45434453413a20696e76616c6964207369676e6174757265202773272076616c604482015261756560f01b6064820152608401610b12565b60048160048111156121ec576121ec612d9c565b14156118295760405162461bcd60e51b815260206004820152602260248201527f45434453413a20696e76616c6964207369676e6174757265202776272076616c604482015261756560f01b6064820152608401610b12565b604051630a85bd0160e11b81526000906001600160a01b0385169063150b7a029061227a903390899088908890600401612db2565b602060405180830381600087803b15801561229457600080fd5b505af19250505080156122c4575060408051601f3d908101601f191682019092526122c191810190612def565b60015b61231f573d8080156122f2576040519150601f19603f3d011682016040523d82523d6000602084013e6122f7565b606091505b50805161231757604051630568cbab60e01b815260040160405180910390fd5b805181602001fd5b6001600160e01b031916630a85bd0160e11b149050949350505050565b82158061235057506001600160a01b038416155b1561236e5760405163574b16a760e11b815260040160405180910390fd5b6000600354600161237f9190612be0565b905060038054850190556001600160a01b03851660008181526005602090815260408083208054890190558483526004909152902080546001600160a01b0319169091179055808481018380156123e057506000876001600160a01b03163b115b1561244c575b60405182906001600160a01b03891690600090600080516020612e2d833981519152908290a461241f6000888480600101955088612245565b61243c57604051631f11849560e21b815260040160405180910390fd5b808214156123e6575050506109d5565b5b6040516001830192906001600160a01b03891690600090600080516020612e2d833981519152908290a48082141561244d5750505050505050565b6000807f7fffffffffffffffffffffffffffffff5d576e7357a4501ddfe92f46681b20a08311156124bf575060009050600361256c565b8460ff16601b141580156124d757508460ff16601c14155b156124e8575060009050600461256c565b6040805160008082526020820180845289905260ff881692820192909252606081018690526080810185905260019060a0016020604051602081039080840390855afa15801561253c573d6000803e3d6000fd5b5050604051601f1901519150506001600160a01b0381166125655760006001925092505061256c565b9150600090505b94509492505050565b6000806001600160ff1b03831660ff84901c601b0161259687828885612488565b935093505050935093915050565b8280546125b090612c5e565b90600052602060002090601f0160209004810192826125d25760008555612618565b82601f106125eb57805160ff1916838001178555612618565b82800160010185558215612618579182015b828111156126185782518255916020019190600101906125fd565b50612624929150612628565b5090565b5b808211156126245760008155600101612629565b6001600160e01b03198116811461182957600080fd5b60006020828403121561266557600080fd5b813561178a8161263d565b634e487b7160e01b600052604160045260246000fd5b604051601f8201601f1916810167ffffffffffffffff811182821017156126af576126af612670565b604052919050565b600067ffffffffffffffff8211156126d1576126d1612670565b50601f01601f191660200190565b60006126f26126ed846126b7565b612686565b905082815283838301111561270657600080fd5b828260208301376000602084830101529392505050565b60006020828403121561272f57600080fd5b813567ffffffffffffffff81111561274657600080fd5b8201601f8101841361275757600080fd5b611b8f848235602084016126df565b60005b83811015612781578181015183820152602001612769565b838111156109d55750506000910152565b600081518084526127aa816020860160208601612766565b601f01601f19169290920160200192915050565b60208152600061178a6020830184612792565b6000602082840312156127e357600080fd5b5035919050565b6001600160a01b038116811461182957600080fd5b6000806040838503121561281257600080fd5b823561281d816127ea565b946020939093013593505050565b60006020828403121561283d57600080fd5b813561178a816127ea565b60008060006060848603121561285d57600080fd5b8335612868816127ea565b92506020840135612878816127ea565b929592945050506040919091013590565b6000806040838503121561289c57600080fd5b50508035926020909101359150565b600080604083850312156128be57600080fd5b8235915060208301356128d0816127ea565b809150509250929050565b600082601f8301126128ec57600080fd5b61178a838335602085016126df565b6000806000806080858703121561291157600080fd5b843593506020850135925060408501359150606085013567ffffffffffffffff81111561293d57600080fd5b612949878288016128db565b91505092959194509250565b8035801515811461296557600080fd5b919050565b60006020828403121561297c57600080fd5b61178a82612955565b6000806040838503121561299857600080fd5b82356129a3816127ea565b91506129b160208401612955565b90509250929050565b600080604083850312156129cd57600080fd5b82356129d8816127ea565b915060208381013567ffffffffffffffff808211156129f657600080fd5b818601915086601f830112612a0a57600080fd5b813581811115612a1c57612a1c612670565b8060051b9150612a2d848301612686565b8181529183018401918481019089841115612a4757600080fd5b938501935b83851015612a6557843582529385019390850190612a4c565b8096505050505050509250929050565b60008060008060808587031215612a8b57600080fd5b8435612a96816127ea565b93506020850135612aa6816127ea565b925060408501359150606085013567ffffffffffffffff81111561293d57600080fd5b6020808252825182820181905260009190848201906040850190845b81811015612b0157835183529284019291840191600101612ae5565b50909695505050505050565b60008060408385031215612b2057600080fd5b8235612b2b816127ea565b915060208301356128d0816127ea565b634e487b7160e01b600052601160045260246000fd5b600082821015612b6357612b63612b3b565b500390565b6000816000190483118215151615612b8257612b82612b3b565b500290565b600082612ba457634e487b7160e01b600052601260045260246000fd5b500490565b6020808252601f908201527f5265656e7472616e637947756172643a207265656e7472616e742063616c6c00604082015260600190565b60008219821115612bf357612bf3612b3b565b500190565b6020808252818101527f4f776e61626c653a2063616c6c6572206973206e6f7420746865206f776e6572604082015260600190565b634e487b7160e01b600052603260045260246000fd5b6000600019821415612c5757612c57612b3b565b5060010190565b600181811c90821680612c7257607f821691505b60208210811415612c9357634e487b7160e01b600052602260045260246000fd5b50919050565b600060208284031215612cab57600080fd5b815167ffffffffffffffff811115612cc257600080fd5b8201601f81018413612cd357600080fd5b8051612ce16126ed826126b7565b818152856020838501011115612cf657600080fd5b612d07826020830160208601612766565b95945050505050565b7f416363657373436f6e74726f6c3a206163636f756e7420000000000000000000815260008351612d48816017850160208801612766565b7001034b99036b4b9b9b4b733903937b6329607d1b6017918401918201528351612d79816028840160208801612766565b01602801949350505050565b600081612d9457612d94612b3b565b506000190190565b634e487b7160e01b600052602160045260246000fd5b6001600160a01b0385811682528416602082015260408101839052608060608201819052600090612de590830184612792565b9695505050505050565b600060208284031215612e0157600080fd5b815161178a8161263d56fe850d585eb7f024ccee5e68e55f2c26cc72e1e6ee456acf62135757a5eb9d4a10ddf252ad1be2c89b69c2b068fc378daa952ba7f163c4a11628f55a4df523b3efa2646970667358221220022687144794e34423f024b041aeceaf9ac312bbbdec9bd1efb27dab2bfeb8da64736f6c63430008090033",
  "linkReferences": {},
  "deployedLinkReferences": {}
}