{
  "_format": "hh-sol-artifact-1",
  "contractName": "CashCows",
  "sourceName": "contracts/CashCows.sol",
  "abi": [
    {
      "inputs": [
        {
          "internalType": "string",
          "name": "preview",
          "type": "string"
        },
        {
          "internalType": "address",
          "name": "admin",
          "type": "address"
        }
      ],
      "stateMutability": "nonpayable",
      "type": "constructor"
    },
    {
      "inputs": [],
      "name": "ApprovalOwnerIsOperator",
      "type": "error"
    },
    {
      "inputs": [],
      "name": "ApprovalToCurrentOwner",
      "type": "error"
    },
    {
      "inputs": [],
      "name": "BalanceQueryZeroAddress",
      "type": "error"
    },
    {
      "inputs": [],
      "name": "ERC721ReceiverNotReceived",
      "type": "error"
    },
    {
      "inputs": [],
      "name": "InvalidCall",
      "type": "error"
    },
    {
      "inputs": [],
      "name": "NonExistentToken",
      "type": "error"
    },
    {
      "inputs": [],
      "name": "NotERC721Receiver",
      "type": "error"
    },
    {
      "anonymous": false,
      "inputs": [
        {
          "indexed": true,
          "internalType": "address",
          "name": "owner",
          "type": "address"
        },
        {
          "indexed": true,
          "internalType": "address",
          "name": "approved",
          "type": "address"
        },
        {
          "indexed": true,
          "internalType": "uint256",
          "name": "tokenId",
          "type": "uint256"
        }
      ],
      "name": "Approval",
      "type": "event"
    },
    {
      "anonymous": false,
      "inputs": [
        {
          "indexed": true,
          "internalType": "address",
          "name": "owner",
          "type": "address"
        },
        {
          "indexed": true,
          "internalType": "address",
          "name": "operator",
          "type": "address"
        },
        {
          "indexed": false,
          "internalType": "bool",
          "name": "approved",
          "type": "bool"
        }
      ],
      "name": "ApprovalForAll",
      "type": "event"
    },
    {
      "anonymous": false,
      "inputs": [
        {
          "indexed": true,
          "internalType": "address",
          "name": "previousOwner",
          "type": "address"
        },
        {
          "indexed": true,
          "internalType": "address",
          "name": "newOwner",
          "type": "address"
        }
      ],
      "name": "OwnershipTransferred",
      "type": "event"
    },
    {
      "anonymous": false,
      "inputs": [
        {
          "indexed": true,
          "internalType": "bytes32",
          "name": "role",
          "type": "bytes32"
        },
        {
          "indexed": true,
          "internalType": "bytes32",
          "name": "previousAdminRole",
          "type": "bytes32"
        },
        {
          "indexed": true,
          "internalType": "bytes32",
          "name": "newAdminRole",
          "type": "bytes32"
        }
      ],
      "name": "RoleAdminChanged",
      "type": "event"
    },
    {
      "anonymous": false,
      "inputs": [
        {
          "indexed": true,
          "internalType": "bytes32",
          "name": "role",
          "type": "bytes32"
        },
        {
          "indexed": true,
          "internalType": "address",
          "name": "account",
          "type": "address"
        },
        {
          "indexed": true,
          "internalType": "address",
          "name": "sender",
          "type": "address"
        }
      ],
      "name": "RoleGranted",
      "type": "event"
    },
    {
      "anonymous": false,
      "inputs": [
        {
          "indexed": true,
          "internalType": "bytes32",
          "name": "role",
          "type": "bytes32"
        },
        {
          "indexed": true,
          "internalType": "address",
          "name": "account",
          "type": "address"
        },
        {
          "indexed": true,
          "internalType": "address",
          "name": "sender",
          "type": "address"
        }
      ],
      "name": "RoleRevoked",
      "type": "event"
    },
    {
      "anonymous": false,
      "inputs": [
        {
          "indexed": true,
          "internalType": "address",
          "name": "from",
          "type": "address"
        },
        {
          "indexed": true,
          "internalType": "address",
          "name": "to",
          "type": "address"
        },
        {
          "indexed": true,
          "internalType": "uint256",
          "name": "tokenId",
          "type": "uint256"
        }
      ],
      "name": "Transfer",
      "type": "event"
    },
    {
      "inputs": [],
      "name": "DEFAULT_ADMIN_ROLE",
      "outputs": [
        {
          "internalType": "bytes32",
          "name": "",
          "type": "bytes32"
        }
      ],
      "stateMutability": "view",
      "type": "function"
    },
    {
      "inputs": [],
      "name": "MAX_FREE_PER_WALLET",
      "outputs": [
        {
          "internalType": "uint256",
          "name": "",
          "type": "uint256"
        }
      ],
      "stateMutability": "view",
      "type": "function"
    },
    {
      "inputs": [],
      "name": "MAX_PER_WALLET",
      "outputs": [
        {
          "internalType": "uint256",
          "name": "",
          "type": "uint256"
        }
      ],
      "stateMutability": "view",
      "type": "function"
    },
    {
      "inputs": [],
      "name": "MAX_SUPPLY",
      "outputs": [
        {
          "internalType": "uint16",
          "name": "",
          "type": "uint16"
        }
      ],
      "stateMutability": "view",
      "type": "function"
    },
    {
      "inputs": [],
      "name": "MINT_PRICE",
      "outputs": [
        {
          "internalType": "uint256",
          "name": "",
          "type": "uint256"
        }
      ],
      "stateMutability": "view",
      "type": "function"
    },
    {
      "inputs": [],
      "name": "ROYALTY_FOR_ALL",
      "outputs": [
        {
          "internalType": "uint256",
          "name": "",
          "type": "uint256"
        }
      ],
      "stateMutability": "view",
      "type": "function"
    },
    {
      "inputs": [],
      "name": "TREASURY",
      "outputs": [
        {
          "internalType": "address",
          "name": "",
          "type": "address"
        }
      ],
      "stateMutability": "view",
      "type": "function"
    },
    {
      "inputs": [
        {
          "internalType": "address",
          "name": "to",
          "type": "address"
        },
        {
          "internalType": "uint256",
          "name": "tokenId",
          "type": "uint256"
        }
      ],
      "name": "approve",
      "outputs": [],
      "stateMutability": "nonpayable",
      "type": "function"
    },
    {
      "inputs": [
        {
          "internalType": "address",
          "name": "owner",
          "type": "address"
        }
      ],
      "name": "balanceOf",
      "outputs": [
        {
          "internalType": "uint256",
          "name": "",
          "type": "uint256"
        }
      ],
      "stateMutability": "view",
      "type": "function"
    },
    {
      "inputs": [
        {
          "internalType": "uint256",
          "name": "tokenId",
          "type": "uint256"
        }
      ],
      "name": "getApproved",
      "outputs": [
        {
          "internalType": "address",
          "name": "",
          "type": "address"
        }
      ],
      "stateMutability": "view",
      "type": "function"
    },
    {
      "inputs": [
        {
          "internalType": "bytes32",
          "name": "role",
          "type": "bytes32"
        }
      ],
      "name": "getRoleAdmin",
      "outputs": [
        {
          "internalType": "bytes32",
          "name": "",
          "type": "bytes32"
        }
      ],
      "stateMutability": "view",
      "type": "function"
    },
    {
      "inputs": [
        {
          "internalType": "bytes32",
          "name": "role",
          "type": "bytes32"
        },
        {
          "internalType": "address",
          "name": "account",
          "type": "address"
        }
      ],
      "name": "grantRole",
      "outputs": [],
      "stateMutability": "nonpayable",
      "type": "function"
    },
    {
      "inputs": [
        {
          "internalType": "bytes32",
          "name": "role",
          "type": "bytes32"
        },
        {
          "internalType": "address",
          "name": "account",
          "type": "address"
        }
      ],
      "name": "hasRole",
      "outputs": [
        {
          "internalType": "bool",
          "name": "",
          "type": "bool"
        }
      ],
      "stateMutability": "view",
      "type": "function"
    },
    {
      "inputs": [
        {
          "internalType": "address",
          "name": "owner",
          "type": "address"
        },
        {
          "internalType": "address",
          "name": "operator",
          "type": "address"
        }
      ],
      "name": "isApprovedForAll",
      "outputs": [
        {
          "internalType": "bool",
          "name": "",
          "type": "bool"
        }
      ],
      "stateMutability": "view",
      "type": "function"
    },
    {
      "inputs": [
        {
          "internalType": "address",
          "name": "recipient",
          "type": "address"
        },
        {
          "internalType": "uint256",
          "name": "quantity",
          "type": "uint256"
        }
      ],
      "name": "mint",
      "outputs": [],
      "stateMutability": "nonpayable",
      "type": "function"
    },
    {
      "inputs": [
        {
          "internalType": "uint256",
          "name": "quantity",
          "type": "uint256"
        },
        {
          "internalType": "uint256",
          "name": "maxMint",
          "type": "uint256"
        },
        {
          "internalType": "uint256",
          "name": "maxFree",
          "type": "uint256"
        },
        {
          "internalType": "bytes",
          "name": "proof",
          "type": "bytes"
        }
      ],
      "name": "mint",
      "outputs": [],
      "stateMutability": "payable",
      "type": "function"
    },
    {
      "inputs": [
        {
          "internalType": "uint256",
          "name": "quantity",
          "type": "uint256"
        }
      ],
      "name": "mint",
      "outputs": [],
      "stateMutability": "payable",
      "type": "function"
    },
    {
      "inputs": [
        {
          "internalType": "address",
          "name": "",
          "type": "address"
        }
      ],
      "name": "minted",
      "outputs": [
        {
          "internalType": "uint256",
          "name": "",
          "type": "uint256"
        }
      ],
      "stateMutability": "view",
      "type": "function"
    },
    {
      "inputs": [],
      "name": "name",
      "outputs": [
        {
          "internalType": "string",
          "name": "",
          "type": "string"
        }
      ],
      "stateMutability": "pure",
      "type": "function"
    },
    {
      "inputs": [],
      "name": "owner",
      "outputs": [
        {
          "internalType": "address",
          "name": "",
          "type": "address"
        }
      ],
      "stateMutability": "view",
      "type": "function"
    },
    {
      "inputs": [
        {
          "internalType": "uint256",
          "name": "tokenId",
          "type": "uint256"
        }
      ],
      "name": "ownerOf",
      "outputs": [
        {
          "internalType": "address",
          "name": "",
          "type": "address"
        }
      ],
      "stateMutability": "view",
      "type": "function"
    },
    {
      "inputs": [
        {
          "internalType": "address",
          "name": "owner",
          "type": "address"
        },
        {
          "internalType": "uint256[]",
          "name": "tokenIds",
          "type": "uint256[]"
        }
      ],
      "name": "ownsAll",
      "outputs": [
        {
          "internalType": "bool",
          "name": "",
          "type": "bool"
        }
      ],
      "stateMutability": "view",
      "type": "function"
    },
    {
      "inputs": [],
      "name": "renounceOwnership",
      "outputs": [],
      "stateMutability": "nonpayable",
      "type": "function"
    },
    {
      "inputs": [
        {
          "internalType": "bytes32",
          "name": "role",
          "type": "bytes32"
        },
        {
          "internalType": "address",
          "name": "account",
          "type": "address"
        }
      ],
      "name": "renounceRole",
      "outputs": [],
      "stateMutability": "nonpayable",
      "type": "function"
    },
    {
      "inputs": [
        {
          "internalType": "bytes32",
          "name": "role",
          "type": "bytes32"
        },
        {
          "internalType": "address",
          "name": "account",
          "type": "address"
        }
      ],
      "name": "revokeRole",
      "outputs": [],
      "stateMutability": "nonpayable",
      "type": "function"
    },
    {
      "inputs": [
        {
          "internalType": "uint256",
          "name": "_tokenId",
          "type": "uint256"
        },
        {
          "internalType": "uint256",
          "name": "_salePrice",
          "type": "uint256"
        }
      ],
      "name": "royaltyInfo",
      "outputs": [
        {
          "internalType": "address",
          "name": "receiver",
          "type": "address"
        },
        {
          "internalType": "uint256",
          "name": "royaltyAmount",
          "type": "uint256"
        }
      ],
      "stateMutability": "view",
      "type": "function"
    },
    {
      "inputs": [
        {
          "internalType": "address",
          "name": "from",
          "type": "address"
        },
        {
          "internalType": "address",
          "name": "to",
          "type": "address"
        },
        {
          "internalType": "uint256",
          "name": "tokenId",
          "type": "uint256"
        }
      ],
      "name": "safeTransferFrom",
      "outputs": [],
      "stateMutability": "nonpayable",
      "type": "function"
    },
    {
      "inputs": [
        {
          "internalType": "address",
          "name": "from",
          "type": "address"
        },
        {
          "internalType": "address",
          "name": "to",
          "type": "address"
        },
        {
          "internalType": "uint256",
          "name": "tokenId",
          "type": "uint256"
        },
        {
          "internalType": "bytes",
          "name": "_data",
          "type": "bytes"
        }
      ],
      "name": "safeTransferFrom",
      "outputs": [],
      "stateMutability": "nonpayable",
      "type": "function"
    },
    {
      "inputs": [],
      "name": "saleStarted",
      "outputs": [
        {
          "internalType": "bool",
          "name": "",
          "type": "bool"
        }
      ],
      "stateMutability": "view",
      "type": "function"
    },
    {
      "inputs": [
        {
          "internalType": "address",
          "name": "operator",
          "type": "address"
        },
        {
          "internalType": "bool",
          "name": "approved",
          "type": "bool"
        }
      ],
      "name": "setApprovalForAll",
      "outputs": [],
      "stateMutability": "nonpayable",
      "type": "function"
    },
    {
      "inputs": [
        {
          "internalType": "string",
          "name": "uri",
          "type": "string"
        }
      ],
      "name": "setBaseURI",
      "outputs": [],
      "stateMutability": "nonpayable",
      "type": "function"
    },
    {
      "inputs": [
        {
          "internalType": "bool",
          "name": "yes",
          "type": "bool"
        }
      ],
      "name": "startSale",
      "outputs": [],
      "stateMutability": "nonpayable",
      "type": "function"
    },
    {
      "inputs": [
        {
          "internalType": "bytes4",
          "name": "interfaceId",
          "type": "bytes4"
        }
      ],
      "name": "supportsInterface",
      "outputs": [
        {
          "internalType": "bool",
          "name": "",
          "type": "bool"
        }
      ],
      "stateMutability": "view",
      "type": "function"
    },
    {
      "inputs": [],
      "name": "symbol",
      "outputs": [
        {
          "internalType": "string",
          "name": "",
          "type": "string"
        }
      ],
      "stateMutability": "pure",
      "type": "function"
    },
    {
      "inputs": [
        {
          "internalType": "uint256",
          "name": "tokenId",
          "type": "uint256"
        }
      ],
      "name": "tokenURI",
      "outputs": [
        {
          "internalType": "string",
          "name": "",
          "type": "string"
        }
      ],
      "stateMutability": "view",
      "type": "function"
    },
    {
      "inputs": [],
      "name": "totalSupply",
      "outputs": [
        {
          "internalType": "uint256",
          "name": "",
          "type": "uint256"
        }
      ],
      "stateMutability": "view",
      "type": "function"
    },
    {
      "inputs": [
        {
          "internalType": "address",
          "name": "from",
          "type": "address"
        },
        {
          "internalType": "address",
          "name": "to",
          "type": "address"
        },
        {
          "internalType": "uint256",
          "name": "tokenId",
          "type": "uint256"
        }
      ],
      "name": "transferFrom",
      "outputs": [],
      "stateMutability": "nonpayable",
      "type": "function"
    },
    {
      "inputs": [
        {
          "internalType": "address",
          "name": "newOwner",
          "type": "address"
        }
      ],
      "name": "transferOwnership",
      "outputs": [],
      "stateMutability": "nonpayable",
      "type": "function"
    },
    {
      "inputs": [
        {
          "internalType": "uint256",
          "name": "percent",
          "type": "uint256"
        }
      ],
      "name": "updateRoyalty",
      "outputs": [],
      "stateMutability": "nonpayable",
      "type": "function"
    },
    {
      "inputs": [
        {
          "internalType": "address",
          "name": "treasury",
          "type": "address"
        }
      ],
      "name": "updateTreasury",
      "outputs": [],
      "stateMutability": "nonpayable",
      "type": "function"
    },
    {
      "inputs": [
        {
          "internalType": "address",
          "name": "recipient",
          "type": "address"
        }
      ],
      "name": "withdraw",
      "outputs": [],
      "stateMutability": "nonpayable",
      "type": "function"
    }
  ],
  "bytecode": "0x60806040526103e86008553480156200001757600080fd5b5060405162002e8c38038062002e8c8339810160408190526200003a9162000236565b620000453362000075565b600160025562000057600082620000c5565b81516200006c9060099060208501906200015d565b50505062000364565b600080546001600160a01b038381166001600160a01b0319831681178455604051919092169283917f8be0079c531659141344cd1fd0a4f28419497f9722a3daafe3b4186f6b6457e09190a35050565b620000d18282620000d5565b5050565b60008281526001602090815260408083206001600160a01b038516845290915290205460ff16620000d15760008281526001602081815260408084206001600160a01b0386168086529252808420805460ff19169093179092559051339285917f2f8788117e7eff1d82e926ec794901d17c78024a50270940304540a733656f0d9190a45050565b8280546200016b9062000327565b90600052602060002090601f0160209004810192826200018f5760008555620001da565b82601f10620001aa57805160ff1916838001178555620001da565b82800160010185558215620001da579182015b82811115620001da578251825591602001919060010190620001bd565b50620001e8929150620001ec565b5090565b5b80821115620001e85760008155600101620001ed565b634e487b7160e01b600052604160045260246000fd5b80516001600160a01b03811681146200023157600080fd5b919050565b600080604083850312156200024a57600080fd5b82516001600160401b03808211156200026257600080fd5b818501915085601f8301126200027757600080fd5b8151818111156200028c576200028c62000203565b604051601f8201601f19908116603f01168101908382118183101715620002b757620002b762000203565b81604052828152602093508884848701011115620002d457600080fd5b600091505b82821015620002f85784820184015181830185015290830190620002d9565b828211156200030a5760008484830101525b95506200031c91505085820162000219565b925050509250929050565b600181811c908216806200033c57607f821691505b602082108114156200035e57634e487b7160e01b600052602260045260246000fd5b50919050565b612b1880620003746000396000f3fe6080604052600436106102465760003560e01c80635c474f9e116101395780639c4c557c116100b6578063b88d4fde1161007a578063b88d4fde146106f2578063c002d23d14610712578063c87b56dd1461072d578063d547741f1461074d578063e985e9c51461076d578063f2fde38b1461078d57600080fd5b80639c4c557c1461066a578063a0712d681461068a578063a217fddf1461069d578063a22cb465146106b2578063ad94d901146106d257600080fd5b80638da5cb5b116100fd5780638da5cb5b146105cb5780638fffd8b5146105e957806391d148541461060957806395d89b411461062957806398710d1e1461065557600080fd5b80635c474f9e1461053c5780636352211e1461055657806370a0823114610576578063715018a6146105965780637f51bb1f146105ab57600080fd5b80632d2c5565116101c757806340c10f191161018b57806340c10f19146104a957806342842e0e146104c95780634a9eee69146104e957806351cff8d9146104fc57806355f804b31461051c57600080fd5b80632d2c55651461040a5780632f2ff15d1461042a57806332cb6b0c1461044a57806332dc2b2f1461047357806336568abe1461048957600080fd5b806318160ddd1161020e57806318160ddd146103385780631e7269c51461034d57806323b872dd1461037a578063248a9ca31461039a5780632a55205a146103cb57600080fd5b806301ffc9a71461024b57806306fdde0314610280578063081812fc146102bb578063095ea7b3146102f35780630f2cdd6c14610315575b600080fd5b34801561025757600080fd5b5061026b61026636600461231f565b6107ad565b60405190151581526020015b60405180910390f35b34801561028c57600080fd5b506040805180820190915260098152684361736820436f777360b81b60208201525b6040516102779190612394565b3480156102c757600080fd5b506102db6102d63660046123a7565b6107f3565b6040516001600160a01b039091168152602001610277565b3480156102ff57600080fd5b5061031361030e3660046123dc565b610837565b005b34801561032157600080fd5b5061032a600a81565b604051908152602001610277565b34801561034457600080fd5b5060035461032a565b34801561035957600080fd5b5061032a610368366004612406565b600a6020526000908152604090205481565b34801561038657600080fd5b50610313610395366004612421565b6108c7565b3480156103a657600080fd5b5061032a6103b53660046123a7565b6000908152600160208190526040909120015490565b3480156103d757600080fd5b506103eb6103e636600461245d565b6108d8565b604080516001600160a01b039093168352602083019190915201610277565b34801561041657600080fd5b50600d546102db906001600160a01b031681565b34801561043657600080fd5b5061031361044536600461247f565b61094f565b34801561045657600080fd5b50610460611e6181565b60405161ffff9091168152602001610277565b34801561047f57600080fd5b5061032a60085481565b34801561049557600080fd5b506103136104a436600461247f565b610976565b3480156104b557600080fd5b506103136104c43660046123dc565b6109f9565b3480156104d557600080fd5b506103136104e4366004612421565b610a9d565b6103136104f736600461256a565b610ab8565b34801561050857600080fd5b50610313610517366004612406565b610d3b565b34801561052857600080fd5b506103136105373660046125c4565b610df7565b34801561054857600080fd5b50600b5461026b9060ff1681565b34801561056257600080fd5b506102db6105713660046123a7565b610e35565b34801561058257600080fd5b5061032a610591366004612406565b610ef2565b3480156105a257600080fd5b50610313610f37565b3480156105b757600080fd5b506103136105c6366004612406565b610f6d565b3480156105d757600080fd5b506000546001600160a01b03166102db565b3480156105f557600080fd5b506103136106043660046123a7565b610fbb565b34801561061557600080fd5b5061026b61062436600461247f565b61100f565b34801561063557600080fd5b506040805180820190915260038152624d4f4f60e81b60208201526102ae565b34801561066157600080fd5b5061032a600381565b34801561067657600080fd5b5061031361068536600461261d565b61103a565b6103136106983660046123a7565b611079565b3480156106a957600080fd5b5061032a600081565b3480156106be57600080fd5b506103136106cd366004612638565b611223565b3480156106de57600080fd5b5061026b6106ed366004612662565b61122e565b3480156106fe57600080fd5b5061031361070d36600461271b565b61129b565b34801561071e57600080fd5b5061032a6611c37937e0800081565b34801561073957600080fd5b506102ae6107483660046123a7565b6112a7565b34801561075957600080fd5b5061031361076836600461247f565b6113a6565b34801561077957600080fd5b5061026b61078836600461276b565b6113cd565b34801561079957600080fd5b506103136107a8366004612406565b611437565b60006001600160e01b03198216635b5e139f60e01b14806107de57506001600160e01b0319821663152a902d60e11b145b806107ed57506107ed826114d2565b92915050565b60006107fe826114f7565b61081b57604051634a1850bf60e11b815260040160405180910390fd5b506000908152600660205260409020546001600160a01b031690565b600061084282610e35565b9050806001600160a01b0316836001600160a01b031614156108775760405163250fdee360e21b815260040160405180910390fd5b336001600160a01b0382168114801590610898575061089682826113cd565b155b156108b65760405163250fdee360e21b815260040160405180910390fd5b6108c184848461150c565b50505050565b6108d333848484611568565b505050565b600d5460009081906001600160a01b031615806108fb57506108f9846114f7565b155b156109195760405163574b16a760e11b815260040160405180910390fd5b600d546008546001600160a01b03909116906127109061093990866127ab565b61094391906127e0565b915091505b9250929050565b6000828152600160208190526040909120015461096c813361159b565b6108d383836115ff565b6001600160a01b03811633146109eb5760405162461bcd60e51b815260206004820152602f60248201527f416363657373436f6e74726f6c3a2063616e206f6e6c792072656e6f756e636560448201526e103937b632b9903337b91039b2b63360891b60648201526084015b60405180910390fd5b6109f5828261166a565b5050565b7f9f2df0fed2c77648de5860a4cc508cd0818c85b8b8a1ab4ceeef8d981c8956a6610a24813361159b565b600280541415610a465760405162461bcd60e51b81526004016109e2906127f4565b60028055811580610a6b5750611e6182610a5f60035490565b610a69919061282b565b115b15610a895760405163574b16a760e11b815260040160405180910390fd5b610a9383836116d1565b5050600160025550565b6108d38383836040518060200160405280600081525061129b565b600280541415610ada5760405162461bcd60e51b81526004016109e2906127f4565b6002805533841580610aeb57508284105b80610b1857506001600160a01b0381166000908152600a60205260409020548490610b16908761282b565b115b80610b375750611e6185610b2b60035490565b610b35919061282b565b115b80610c165750604051631b5a5b9d60e21b60208201526bffffffffffffffffffffffff19606083901b1660248201526038810185905260588101849052610c14907f9f2df0fed2c77648de5860a4cc508cd0818c85b8b8a1ab4ceeef8d981c8956a69061062490610c0e90607801604051602081830303815290604052805190602001206040517f19457468657265756d205369676e6564204d6573736167653a0a3332000000006020820152603c8101829052600090605c01604051602081830303815290604052805190602001209050919050565b856116eb565b155b15610c345760405163574b16a760e11b815260040160405180910390fd5b6001600160a01b0381166000908152600a6020526040902054831115610cc6576001600160a01b0381166000908152600a6020526040812054610c779085612843565b90508581108015610ca25750346611c37937e08000610c968389612843565b610ca091906127ab565b115b15610cc05760405163574b16a760e11b815260040160405180910390fd5b50610cf7565b34610cd86611c37937e08000876127ab565b1115610cf75760405163574b16a760e11b815260040160405180910390fd5b6001600160a01b0381166000908152600a602052604081208054879290610d1f90849061282b565b90915550610d2f905081866116d1565b50506001600255505050565b6000546001600160a01b03163314610d655760405162461bcd60e51b81526004016109e29061285a565b600280541415610d875760405162461bcd60e51b81526004016109e2906127f4565b60028055600c8054610d989061288f565b15159050610db95760405163574b16a760e11b815260040160405180910390fd5b6040516001600160a01b038216904780156108fc02916000818181858888f19350505050158015610dee573d6000803e3d6000fd5b50506001600255565b7f850d585eb7f024ccee5e68e55f2c26cc72e1e6ee456acf62135757a5eb9d4a10610e22813361159b565b81516108d390600c906020850190612270565b60008181526004602052604081205482906001600160a01b031615610e72576000908152600460205260409020546001600160a01b031692915050565b600081118015610e8457506003548111155b15610ed8575b6000190180610e9857610ed8565b6000818152600460205260409020546001600160a01b031615610ed3576000908152600460205260409020546001600160a01b031692915050565b610e8a565b50604051634a1850bf60e11b815260040160405180910390fd5b60006001600160a01b038216610f1b576040516316285dcb60e11b815260040160405180910390fd5b506001600160a01b031660009081526005602052604090205490565b6000546001600160a01b03163314610f615760405162461bcd60e51b81526004016109e29061285a565b610f6b600061170f565b565b7f850d585eb7f024ccee5e68e55f2c26cc72e1e6ee456acf62135757a5eb9d4a10610f98813361159b565b50600d80546001600160a01b0319166001600160a01b0392909216919091179055565b7f3b5d4cc60d3ec3516ee8ae083bd60934f6eb2a6c54b1229985c41bfb092b2603610fe6813361159b565b6103e88211156110095760405163574b16a760e11b815260040160405180910390fd5b50600855565b60009182526001602090815260408084206001600160a01b0393909316845291905290205460ff1690565b7f850d585eb7f024ccee5e68e55f2c26cc72e1e6ee456acf62135757a5eb9d4a10611065813361159b565b50600b805460ff1916911515919091179055565b60028054141561109b5760405162461bcd60e51b81526004016109e2906127f4565b6002805533803b1515806110b25750600b5460ff16155b806110bb575081155b806110e957506001600160a01b0381166000908152600a60208190526040909120546110e7908461282b565b115b806111085750611e61826110fc60035490565b611106919061282b565b115b156111265760405163574b16a760e11b815260040160405180910390fd5b6001600160a01b0381166000908152600a6020526040902054600311156111ba576001600160a01b0381166000908152600a602052604081205461116b906003612843565b905082811080156111965750346611c37937e0800061118a8386612843565b61119491906127ab565b115b156111b45760405163574b16a760e11b815260040160405180910390fd5b506111eb565b346111cc6611c37937e08000846127ab565b11156111eb5760405163574b16a760e11b815260040160405180910390fd5b6001600160a01b0381166000908152600a60205260408120805484929061121390849061282b565b90915550610dee905081836116d1565b6109f533838361175f565b6000805b82518110156112915761125d838281518110611250576112506128ca565b6020026020010151610e35565b6001600160a01b0316846001600160a01b03161461127f5760009150506107ed565b80611289816128e0565b915050611232565b5060019392505050565b6108c1848484846117ff565b60606112b2826114f7565b6112cf5760405163574b16a760e11b815260040160405180910390fd5b6000600c80546112de9061288f565b90501161137557600980546112f29061288f565b80601f016020809104026020016040519081016040528092919081815260200182805461131e9061288f565b801561136b5780601f106113405761010080835404028352916020019161136b565b820191906000526020600020905b81548152906001019060200180831161134e57829003601f168201915b50505050506107ed565b600c6113808361184c565b604051602001611391929190612917565b60405160208183030381529060405292915050565b600082815260016020819052604090912001546113c3813361159b565b6108d3838361166a565b60006113f97f4a0c3698e72495f6d49f6ef074f2b34cac5b153c817a7cc37789cccbb873cf5d8361100f565b15611406575060016107ed565b6001600160a01b0380841660009081526007602090815260408083209386168352929052205460ff165b9392505050565b6000546001600160a01b031633146114615760405162461bcd60e51b81526004016109e29061285a565b6001600160a01b0381166114c65760405162461bcd60e51b815260206004820152602660248201527f4f776e61626c653a206e6577206f776e657220697320746865207a65726f206160448201526564647265737360d01b60648201526084016109e2565b6114cf8161170f565b50565b60006001600160e01b031982166380ac58cd60e01b14806107ed57506107ed82611952565b600080821180156107ed575050600354101590565b60008281526006602052604080822080546001600160a01b0319166001600160a01b0387811691821790925591518593918516917f8c5be1e5ebec7d5bd14f71427d1e84f3dd0314c0f7b2291e5b200ac8c7c3b92591a4505050565b611573848285611987565b6115905760405163574b16a760e11b815260040160405180910390fd5b6108c18383836119d2565b6115a5828261100f565b6109f5576115bd816001600160a01b03166014611b1c565b6115c8836020611b1c565b6040516020016115d99291906129d2565b60408051601f198184030181529082905262461bcd60e51b82526109e291600401612394565b611609828261100f565b6109f55760008281526001602081815260408084206001600160a01b0386168086529252808420805460ff19169093179092559051339285917f2f8788117e7eff1d82e926ec794901d17c78024a50270940304540a733656f0d9190a45050565b611674828261100f565b156109f55760008281526001602090815260408083206001600160a01b0385168085529252808320805460ff1916905551339285917ff6391f5c32d9c69d2a47ea670b442974b53935d1edc7fd64eb21e047a839171b9190a45050565b6109f5828260405180602001604052806000815250611cb8565b60008060006116fa8585611cc5565b9150915061170781611d32565b509392505050565b600080546001600160a01b038381166001600160a01b0319831681178455604051919092169283917f8be0079c531659141344cd1fd0a4f28419497f9722a3daafe3b4186f6b6457e09190a35050565b816001600160a01b0316836001600160a01b031614156117925760405163079f14e360e51b815260040160405180910390fd5b6001600160a01b03838116600081815260076020908152604080832094871680845294825291829020805460ff191686151590811790915591519182527f17307eab39ab6107e8899845ad3d59bd9653f200f220920489ca2b5937696c31910160405180910390a3505050565b61180b33858585611568565b6000836001600160a01b03163b11801561182e575061182c84848484611eed565b155b156108c157604051631f11849560e21b815260040160405180910390fd5b6060816118705750506040805180820190915260018152600360fc1b602082015290565b8160005b811561189a5780611884816128e0565b91506118939050600a836127e0565b9150611874565b60008167ffffffffffffffff8111156118b5576118b56124ab565b6040519080825280601f01601f1916602001820160405280156118df576020820181803683370190505b5090505b841561194a576118f4600183612843565b9150611901600a86612a47565b61190c90603061282b565b60f81b818381518110611921576119216128ca565b60200101906001600160f81b031916908160001a905350611943600a866127e0565b94506118e3565b949350505050565b60006001600160e01b03198216637965db0b60e01b14806107ed57506301ffc9a760e01b6001600160e01b03198316146107ed565b6000816001600160a01b0316846001600160a01b031614806119c25750836001600160a01b03166119b7846107f3565b6001600160a01b0316145b8061194a575061194a82856113cd565b6001600160a01b0382161580611a0257506119ec81610e35565b6001600160a01b0316836001600160a01b031614155b15611a205760405163574b16a760e11b815260040160405180910390fd5b611a2c6000828561150c565b6001600160a01b03808316600081815260056020908152604080832080546001908101909155948816835280832080546000190190558583526004909152902080546001600160a01b0319169091179055600354908201908111801590611aa857506000818152600460205260409020546001600160a01b0316155b15611ad557600081815260046020526040902080546001600160a01b0319166001600160a01b0386161790555b5080826001600160a01b0316846001600160a01b03167fddf252ad1be2c89b69c2b068fc378daa952ba7f163c4a11628f55a4df523b3ef60405160405180910390a4505050565b60606000611b2b8360026127ab565b611b3690600261282b565b67ffffffffffffffff811115611b4e57611b4e6124ab565b6040519080825280601f01601f191660200182016040528015611b78576020820181803683370190505b509050600360fc1b81600081518110611b9357611b936128ca565b60200101906001600160f81b031916908160001a905350600f60fb1b81600181518110611bc257611bc26128ca565b60200101906001600160f81b031916908160001a9053506000611be68460026127ab565b611bf190600161282b565b90505b6001811115611c69576f181899199a1a9b1b9c1cb0b131b232b360811b85600f1660108110611c2557611c256128ca565b1a60f81b828281518110611c3b57611c3b6128ca565b60200101906001600160f81b031916908160001a90535060049490941c93611c6281612a5b565b9050611bf4565b5083156114305760405162461bcd60e51b815260206004820181905260248201527f537472696e67733a20686578206c656e67746820696e73756666696369656e7460448201526064016109e2565b6108d38383836001611fe4565b600080825160411415611cfc5760208301516040840151606085015160001a611cf087828585612154565b94509450505050610948565b825160401415611d265760208301516040840151611d1b868383612241565b935093505050610948565b50600090506002610948565b6000816004811115611d4657611d46612a72565b1415611d4f5750565b6001816004811115611d6357611d63612a72565b1415611db15760405162461bcd60e51b815260206004820152601860248201527f45434453413a20696e76616c6964207369676e6174757265000000000000000060448201526064016109e2565b6002816004811115611dc557611dc5612a72565b1415611e135760405162461bcd60e51b815260206004820152601f60248201527f45434453413a20696e76616c6964207369676e6174757265206c656e6774680060448201526064016109e2565b6003816004811115611e2757611e27612a72565b1415611e805760405162461bcd60e51b815260206004820152602260248201527f45434453413a20696e76616c6964207369676e6174757265202773272076616c604482015261756560f01b60648201526084016109e2565b6004816004811115611e9457611e94612a72565b14156114cf5760405162461bcd60e51b815260206004820152602260248201527f45434453413a20696e76616c6964207369676e6174757265202776272076616c604482015261756560f01b60648201526084016109e2565b604051630a85bd0160e11b81526000906001600160a01b0385169063150b7a0290611f22903390899088908890600401612a88565b602060405180830381600087803b158015611f3c57600080fd5b505af1925050508015611f6c575060408051601f3d908101601f19168201909252611f6991810190612ac5565b60015b611fc7573d808015611f9a576040519150601f19603f3d011682016040523d82523d6000602084013e611f9f565b606091505b508051611fbf57604051630568cbab60e01b815260040160405180910390fd5b805181602001fd5b6001600160e01b031916630a85bd0160e11b149050949350505050565b821580611ff857506001600160a01b038416155b156120165760405163574b16a760e11b815260040160405180910390fd5b60006003546001612027919061282b565b905060038054850190556001600160a01b03851660008181526005602090815260408083208054890190558483526004909152902080546001600160a01b03191690911790558084810183801561208857506000876001600160a01b03163b115b15612106575b60405182906001600160a01b038916906000907fddf252ad1be2c89b69c2b068fc378daa952ba7f163c4a11628f55a4df523b3ef908290a46120d96000888480600101955088611eed565b6120f657604051631f11849560e21b815260040160405180910390fd5b8082141561208e575050506108c1565b5b6040516001830192906001600160a01b038916906000907fddf252ad1be2c89b69c2b068fc378daa952ba7f163c4a11628f55a4df523b3ef908290a4808214156121075750505050505050565b6000807f7fffffffffffffffffffffffffffffff5d576e7357a4501ddfe92f46681b20a083111561218b5750600090506003612238565b8460ff16601b141580156121a357508460ff16601c14155b156121b45750600090506004612238565b6040805160008082526020820180845289905260ff881692820192909252606081018690526080810185905260019060a0016020604051602081039080840390855afa158015612208573d6000803e3d6000fd5b5050604051601f1901519150506001600160a01b03811661223157600060019250925050612238565b9150600090505b94509492505050565b6000806001600160ff1b03831660ff84901c601b0161226287828885612154565b935093505050935093915050565b82805461227c9061288f565b90600052602060002090601f01602090048101928261229e57600085556122e4565b82601f106122b757805160ff19168380011785556122e4565b828001600101855582156122e4579182015b828111156122e45782518255916020019190600101906122c9565b506122f09291506122f4565b5090565b5b808211156122f057600081556001016122f5565b6001600160e01b0319811681146114cf57600080fd5b60006020828403121561233157600080fd5b813561143081612309565b60005b8381101561235757818101518382015260200161233f565b838111156108c15750506000910152565b6000815180845261238081602086016020860161233c565b601f01601f19169290920160200192915050565b6020815260006114306020830184612368565b6000602082840312156123b957600080fd5b5035919050565b80356001600160a01b03811681146123d757600080fd5b919050565b600080604083850312156123ef57600080fd5b6123f8836123c0565b946020939093013593505050565b60006020828403121561241857600080fd5b611430826123c0565b60008060006060848603121561243657600080fd5b61243f846123c0565b925061244d602085016123c0565b9150604084013590509250925092565b6000806040838503121561247057600080fd5b50508035926020909101359150565b6000806040838503121561249257600080fd5b823591506124a2602084016123c0565b90509250929050565b634e487b7160e01b600052604160045260246000fd5b604051601f8201601f1916810167ffffffffffffffff811182821017156124ea576124ea6124ab565b604052919050565b600067ffffffffffffffff83111561250c5761250c6124ab565b61251f601f8401601f19166020016124c1565b905082815283838301111561253357600080fd5b828260208301376000602084830101529392505050565b600082601f83011261255b57600080fd5b611430838335602085016124f2565b6000806000806080858703121561258057600080fd5b843593506020850135925060408501359150606085013567ffffffffffffffff8111156125ac57600080fd5b6125b88782880161254a565b91505092959194509250565b6000602082840312156125d657600080fd5b813567ffffffffffffffff8111156125ed57600080fd5b8201601f810184136125fe57600080fd5b61194a848235602084016124f2565b803580151581146123d757600080fd5b60006020828403121561262f57600080fd5b6114308261260d565b6000806040838503121561264b57600080fd5b612654836123c0565b91506124a26020840161260d565b6000806040838503121561267557600080fd5b61267e836123c0565b915060208084013567ffffffffffffffff8082111561269c57600080fd5b818601915086601f8301126126b057600080fd5b8135818111156126c2576126c26124ab565b8060051b91506126d38483016124c1565b81815291830184019184810190898411156126ed57600080fd5b938501935b8385101561270b578435825293850193908501906126f2565b8096505050505050509250929050565b6000806000806080858703121561273157600080fd5b61273a856123c0565b9350612748602086016123c0565b925060408501359150606085013567ffffffffffffffff8111156125ac57600080fd5b6000806040838503121561277e57600080fd5b612787836123c0565b91506124a2602084016123c0565b634e487b7160e01b600052601160045260246000fd5b60008160001904831182151516156127c5576127c5612795565b500290565b634e487b7160e01b600052601260045260246000fd5b6000826127ef576127ef6127ca565b500490565b6020808252601f908201527f5265656e7472616e637947756172643a207265656e7472616e742063616c6c00604082015260600190565b6000821982111561283e5761283e612795565b500190565b60008282101561285557612855612795565b500390565b6020808252818101527f4f776e61626c653a2063616c6c6572206973206e6f7420746865206f776e6572604082015260600190565b600181811c908216806128a357607f821691505b602082108114156128c457634e487b7160e01b600052602260045260246000fd5b50919050565b634e487b7160e01b600052603260045260246000fd5b60006000198214156128f4576128f4612795565b5060010190565b6000815161290d81856020860161233c565b9290920192915050565b600080845481600182811c91508083168061293357607f831692505b602080841082141561295357634e487b7160e01b86526022600452602486fd5b8180156129675760018114612978576129a5565b60ff198616895284890196506129a5565b60008b81526020902060005b8681101561299d5781548b820152908501908301612984565b505084890196505b5050505050506129c96129b882866128fb565b64173539b7b760d91b815260050190565b95945050505050565b7f416363657373436f6e74726f6c3a206163636f756e7420000000000000000000815260008351612a0a81601785016020880161233c565b7001034b99036b4b9b9b4b733903937b6329607d1b6017918401918201528351612a3b81602884016020880161233c565b01602801949350505050565b600082612a5657612a566127ca565b500690565b600081612a6a57612a6a612795565b506000190190565b634e487b7160e01b600052602160045260246000fd5b6001600160a01b0385811682528416602082015260408101839052608060608201819052600090612abb90830184612368565b9695505050505050565b600060208284031215612ad757600080fd5b81516114308161230956fea26469706673582212208689b545bf3b9ae671f2f7b9dcb7f884852a2b1ce2dc52d00db96db9288ecaed64736f6c63430008090033",
  "linkReferences": {},
  "deployedLinkReferences": {}
}