{
  "_format": "hh-sol-artifact-1",
  "contractName": "CashCows",
  "sourceName": "contracts/CashCows.sol",
  "abi": [
    {
      "inputs": [
        {
          "internalType": "string",
          "name": "preview",
          "type": "string"
        },
        {
          "internalType": "address",
          "name": "admin",
          "type": "address"
        }
      ],
      "stateMutability": "nonpayable",
      "type": "constructor"
    },
    {
      "inputs": [],
      "name": "ApprovalOwnerIsOperator",
      "type": "error"
    },
    {
      "inputs": [],
      "name": "ApprovalToCurrentOwner",
      "type": "error"
    },
    {
      "inputs": [],
      "name": "BalanceQueryZeroAddress",
      "type": "error"
    },
    {
      "inputs": [],
      "name": "ERC721ReceiverNotReceived",
      "type": "error"
    },
    {
      "inputs": [],
      "name": "InvalidCall",
      "type": "error"
    },
    {
      "inputs": [],
      "name": "NonExistentToken",
      "type": "error"
    },
    {
      "inputs": [],
      "name": "NotERC721Receiver",
      "type": "error"
    },
    {
      "anonymous": false,
      "inputs": [
        {
          "indexed": true,
          "internalType": "address",
          "name": "owner",
          "type": "address"
        },
        {
          "indexed": true,
          "internalType": "address",
          "name": "approved",
          "type": "address"
        },
        {
          "indexed": true,
          "internalType": "uint256",
          "name": "tokenId",
          "type": "uint256"
        }
      ],
      "name": "Approval",
      "type": "event"
    },
    {
      "anonymous": false,
      "inputs": [
        {
          "indexed": true,
          "internalType": "address",
          "name": "owner",
          "type": "address"
        },
        {
          "indexed": true,
          "internalType": "address",
          "name": "operator",
          "type": "address"
        },
        {
          "indexed": false,
          "internalType": "bool",
          "name": "approved",
          "type": "bool"
        }
      ],
      "name": "ApprovalForAll",
      "type": "event"
    },
    {
      "anonymous": false,
      "inputs": [
        {
          "indexed": true,
          "internalType": "address",
          "name": "previousOwner",
          "type": "address"
        },
        {
          "indexed": true,
          "internalType": "address",
          "name": "newOwner",
          "type": "address"
        }
      ],
      "name": "OwnershipTransferred",
      "type": "event"
    },
    {
      "anonymous": false,
      "inputs": [
        {
          "indexed": true,
          "internalType": "bytes32",
          "name": "role",
          "type": "bytes32"
        },
        {
          "indexed": true,
          "internalType": "bytes32",
          "name": "previousAdminRole",
          "type": "bytes32"
        },
        {
          "indexed": true,
          "internalType": "bytes32",
          "name": "newAdminRole",
          "type": "bytes32"
        }
      ],
      "name": "RoleAdminChanged",
      "type": "event"
    },
    {
      "anonymous": false,
      "inputs": [
        {
          "indexed": true,
          "internalType": "bytes32",
          "name": "role",
          "type": "bytes32"
        },
        {
          "indexed": true,
          "internalType": "address",
          "name": "account",
          "type": "address"
        },
        {
          "indexed": true,
          "internalType": "address",
          "name": "sender",
          "type": "address"
        }
      ],
      "name": "RoleGranted",
      "type": "event"
    },
    {
      "anonymous": false,
      "inputs": [
        {
          "indexed": true,
          "internalType": "bytes32",
          "name": "role",
          "type": "bytes32"
        },
        {
          "indexed": true,
          "internalType": "address",
          "name": "account",
          "type": "address"
        },
        {
          "indexed": true,
          "internalType": "address",
          "name": "sender",
          "type": "address"
        }
      ],
      "name": "RoleRevoked",
      "type": "event"
    },
    {
      "anonymous": false,
      "inputs": [
        {
          "indexed": true,
          "internalType": "address",
          "name": "from",
          "type": "address"
        },
        {
          "indexed": true,
          "internalType": "address",
          "name": "to",
          "type": "address"
        },
        {
          "indexed": true,
          "internalType": "uint256",
          "name": "tokenId",
          "type": "uint256"
        }
      ],
      "name": "Transfer",
      "type": "event"
    },
    {
      "inputs": [],
      "name": "DEFAULT_ADMIN_ROLE",
      "outputs": [
        {
          "internalType": "bytes32",
          "name": "",
          "type": "bytes32"
        }
      ],
      "stateMutability": "view",
      "type": "function"
    },
    {
      "inputs": [],
      "name": "MAX_FREE_PER_WALLET",
      "outputs": [
        {
          "internalType": "uint256",
          "name": "",
          "type": "uint256"
        }
      ],
      "stateMutability": "view",
      "type": "function"
    },
    {
      "inputs": [],
      "name": "MAX_PER_WALLET",
      "outputs": [
        {
          "internalType": "uint256",
          "name": "",
          "type": "uint256"
        }
      ],
      "stateMutability": "view",
      "type": "function"
    },
    {
      "inputs": [],
      "name": "MAX_SUPPLY",
      "outputs": [
        {
          "internalType": "uint16",
          "name": "",
          "type": "uint16"
        }
      ],
      "stateMutability": "view",
      "type": "function"
    },
    {
      "inputs": [],
      "name": "MINT_PRICE",
      "outputs": [
        {
          "internalType": "uint256",
          "name": "",
          "type": "uint256"
        }
      ],
      "stateMutability": "view",
      "type": "function"
    },
    {
      "inputs": [
        {
          "internalType": "address",
          "name": "to",
          "type": "address"
        },
        {
          "internalType": "uint256",
          "name": "tokenId",
          "type": "uint256"
        }
      ],
      "name": "approve",
      "outputs": [],
      "stateMutability": "nonpayable",
      "type": "function"
    },
    {
      "inputs": [
        {
          "internalType": "address",
          "name": "owner",
          "type": "address"
        }
      ],
      "name": "balanceOf",
      "outputs": [
        {
          "internalType": "uint256",
          "name": "",
          "type": "uint256"
        }
      ],
      "stateMutability": "view",
      "type": "function"
    },
    {
      "inputs": [
        {
          "internalType": "uint256",
          "name": "tokenId",
          "type": "uint256"
        }
      ],
      "name": "burn",
      "outputs": [],
      "stateMutability": "nonpayable",
      "type": "function"
    },
    {
      "inputs": [
        {
          "internalType": "uint256",
          "name": "",
          "type": "uint256"
        }
      ],
      "name": "burned",
      "outputs": [
        {
          "internalType": "address",
          "name": "",
          "type": "address"
        }
      ],
      "stateMutability": "view",
      "type": "function"
    },
    {
      "inputs": [],
      "name": "contractURI",
      "outputs": [
        {
          "internalType": "string",
          "name": "",
          "type": "string"
        }
      ],
      "stateMutability": "view",
      "type": "function"
    },
    {
      "inputs": [
        {
          "internalType": "uint256",
          "name": "tokenId",
          "type": "uint256"
        }
      ],
      "name": "getApproved",
      "outputs": [
        {
          "internalType": "address",
          "name": "",
          "type": "address"
        }
      ],
      "stateMutability": "view",
      "type": "function"
    },
    {
      "inputs": [
        {
          "internalType": "bytes32",
          "name": "role",
          "type": "bytes32"
        }
      ],
      "name": "getRoleAdmin",
      "outputs": [
        {
          "internalType": "bytes32",
          "name": "",
          "type": "bytes32"
        }
      ],
      "stateMutability": "view",
      "type": "function"
    },
    {
      "inputs": [
        {
          "internalType": "bytes32",
          "name": "role",
          "type": "bytes32"
        },
        {
          "internalType": "address",
          "name": "account",
          "type": "address"
        }
      ],
      "name": "grantRole",
      "outputs": [],
      "stateMutability": "nonpayable",
      "type": "function"
    },
    {
      "inputs": [
        {
          "internalType": "bytes32",
          "name": "role",
          "type": "bytes32"
        },
        {
          "internalType": "address",
          "name": "account",
          "type": "address"
        }
      ],
      "name": "hasRole",
      "outputs": [
        {
          "internalType": "bool",
          "name": "",
          "type": "bool"
        }
      ],
      "stateMutability": "view",
      "type": "function"
    },
    {
      "inputs": [
        {
          "internalType": "address",
          "name": "owner",
          "type": "address"
        },
        {
          "internalType": "address",
          "name": "operator",
          "type": "address"
        }
      ],
      "name": "isApprovedForAll",
      "outputs": [
        {
          "internalType": "bool",
          "name": "",
          "type": "bool"
        }
      ],
      "stateMutability": "view",
      "type": "function"
    },
    {
      "inputs": [
        {
          "internalType": "address",
          "name": "recipient",
          "type": "address"
        },
        {
          "internalType": "uint256",
          "name": "quantity",
          "type": "uint256"
        }
      ],
      "name": "mint",
      "outputs": [],
      "stateMutability": "nonpayable",
      "type": "function"
    },
    {
      "inputs": [
        {
          "internalType": "uint256",
          "name": "quantity",
          "type": "uint256"
        },
        {
          "internalType": "uint256",
          "name": "maxMint",
          "type": "uint256"
        },
        {
          "internalType": "uint256",
          "name": "maxFree",
          "type": "uint256"
        },
        {
          "internalType": "bytes",
          "name": "proof",
          "type": "bytes"
        }
      ],
      "name": "mint",
      "outputs": [],
      "stateMutability": "payable",
      "type": "function"
    },
    {
      "inputs": [
        {
          "internalType": "uint256",
          "name": "quantity",
          "type": "uint256"
        }
      ],
      "name": "mint",
      "outputs": [],
      "stateMutability": "payable",
      "type": "function"
    },
    {
      "inputs": [],
      "name": "mintOpened",
      "outputs": [
        {
          "internalType": "bool",
          "name": "",
          "type": "bool"
        }
      ],
      "stateMutability": "view",
      "type": "function"
    },
    {
      "inputs": [
        {
          "internalType": "address",
          "name": "",
          "type": "address"
        }
      ],
      "name": "minted",
      "outputs": [
        {
          "internalType": "uint256",
          "name": "",
          "type": "uint256"
        }
      ],
      "stateMutability": "view",
      "type": "function"
    },
    {
      "inputs": [],
      "name": "name",
      "outputs": [
        {
          "internalType": "string",
          "name": "",
          "type": "string"
        }
      ],
      "stateMutability": "pure",
      "type": "function"
    },
    {
      "inputs": [
        {
          "internalType": "bool",
          "name": "yes",
          "type": "bool"
        }
      ],
      "name": "openMint",
      "outputs": [],
      "stateMutability": "nonpayable",
      "type": "function"
    },
    {
      "inputs": [],
      "name": "owner",
      "outputs": [
        {
          "internalType": "address",
          "name": "",
          "type": "address"
        }
      ],
      "stateMutability": "view",
      "type": "function"
    },
    {
      "inputs": [
        {
          "internalType": "uint256",
          "name": "tokenId",
          "type": "uint256"
        }
      ],
      "name": "ownerOf",
      "outputs": [
        {
          "internalType": "address",
          "name": "",
          "type": "address"
        }
      ],
      "stateMutability": "view",
      "type": "function"
    },
    {
      "inputs": [
        {
          "internalType": "address",
          "name": "owner",
          "type": "address"
        }
      ],
      "name": "ownerTokens",
      "outputs": [
        {
          "internalType": "uint256[]",
          "name": "",
          "type": "uint256[]"
        }
      ],
      "stateMutability": "view",
      "type": "function"
    },
    {
      "inputs": [
        {
          "internalType": "address",
          "name": "owner",
          "type": "address"
        },
        {
          "internalType": "uint256[]",
          "name": "tokenIds",
          "type": "uint256[]"
        }
      ],
      "name": "ownsAll",
      "outputs": [
        {
          "internalType": "bool",
          "name": "",
          "type": "bool"
        }
      ],
      "stateMutability": "view",
      "type": "function"
    },
    {
      "inputs": [],
      "name": "renounceOwnership",
      "outputs": [],
      "stateMutability": "nonpayable",
      "type": "function"
    },
    {
      "inputs": [
        {
          "internalType": "bytes32",
          "name": "role",
          "type": "bytes32"
        },
        {
          "internalType": "address",
          "name": "account",
          "type": "address"
        }
      ],
      "name": "renounceRole",
      "outputs": [],
      "stateMutability": "nonpayable",
      "type": "function"
    },
    {
      "inputs": [
        {
          "internalType": "bytes32",
          "name": "role",
          "type": "bytes32"
        },
        {
          "internalType": "address",
          "name": "account",
          "type": "address"
        }
      ],
      "name": "revokeRole",
      "outputs": [],
      "stateMutability": "nonpayable",
      "type": "function"
    },
    {
      "inputs": [
        {
          "internalType": "uint256",
          "name": "_tokenId",
          "type": "uint256"
        },
        {
          "internalType": "uint256",
          "name": "_salePrice",
          "type": "uint256"
        }
      ],
      "name": "royaltyInfo",
      "outputs": [
        {
          "internalType": "address",
          "name": "receiver",
          "type": "address"
        },
        {
          "internalType": "uint256",
          "name": "royaltyAmount",
          "type": "uint256"
        }
      ],
      "stateMutability": "view",
      "type": "function"
    },
    {
      "inputs": [],
      "name": "royaltyPercent",
      "outputs": [
        {
          "internalType": "uint256",
          "name": "",
          "type": "uint256"
        }
      ],
      "stateMutability": "view",
      "type": "function"
    },
    {
      "inputs": [],
      "name": "royaltySplitter",
      "outputs": [
        {
          "internalType": "address",
          "name": "",
          "type": "address"
        }
      ],
      "stateMutability": "view",
      "type": "function"
    },
    {
      "inputs": [
        {
          "internalType": "address",
          "name": "from",
          "type": "address"
        },
        {
          "internalType": "address",
          "name": "to",
          "type": "address"
        },
        {
          "internalType": "uint256",
          "name": "tokenId",
          "type": "uint256"
        }
      ],
      "name": "safeTransferFrom",
      "outputs": [],
      "stateMutability": "nonpayable",
      "type": "function"
    },
    {
      "inputs": [
        {
          "internalType": "address",
          "name": "from",
          "type": "address"
        },
        {
          "internalType": "address",
          "name": "to",
          "type": "address"
        },
        {
          "internalType": "uint256",
          "name": "tokenId",
          "type": "uint256"
        },
        {
          "internalType": "bytes",
          "name": "_data",
          "type": "bytes"
        }
      ],
      "name": "safeTransferFrom",
      "outputs": [],
      "stateMutability": "nonpayable",
      "type": "function"
    },
    {
      "inputs": [
        {
          "internalType": "address",
          "name": "operator",
          "type": "address"
        },
        {
          "internalType": "bool",
          "name": "approved",
          "type": "bool"
        }
      ],
      "name": "setApprovalForAll",
      "outputs": [],
      "stateMutability": "nonpayable",
      "type": "function"
    },
    {
      "inputs": [
        {
          "internalType": "contract IMetadata",
          "name": "metadata",
          "type": "address"
        }
      ],
      "name": "setMetadata",
      "outputs": [],
      "stateMutability": "nonpayable",
      "type": "function"
    },
    {
      "inputs": [
        {
          "internalType": "string",
          "name": "uri",
          "type": "string"
        }
      ],
      "name": "setURI",
      "outputs": [],
      "stateMutability": "nonpayable",
      "type": "function"
    },
    {
      "inputs": [
        {
          "internalType": "bytes4",
          "name": "interfaceId",
          "type": "bytes4"
        }
      ],
      "name": "supportsInterface",
      "outputs": [
        {
          "internalType": "bool",
          "name": "",
          "type": "bool"
        }
      ],
      "stateMutability": "view",
      "type": "function"
    },
    {
      "inputs": [],
      "name": "symbol",
      "outputs": [
        {
          "internalType": "string",
          "name": "",
          "type": "string"
        }
      ],
      "stateMutability": "pure",
      "type": "function"
    },
    {
      "inputs": [
        {
          "internalType": "uint256",
          "name": "tokenId",
          "type": "uint256"
        }
      ],
      "name": "tokenURI",
      "outputs": [
        {
          "internalType": "string",
          "name": "",
          "type": "string"
        }
      ],
      "stateMutability": "view",
      "type": "function"
    },
    {
      "inputs": [],
      "name": "totalSupply",
      "outputs": [
        {
          "internalType": "uint256",
          "name": "",
          "type": "uint256"
        }
      ],
      "stateMutability": "view",
      "type": "function"
    },
    {
      "inputs": [
        {
          "internalType": "address",
          "name": "from",
          "type": "address"
        },
        {
          "internalType": "address",
          "name": "to",
          "type": "address"
        },
        {
          "internalType": "uint256",
          "name": "tokenId",
          "type": "uint256"
        }
      ],
      "name": "transferFrom",
      "outputs": [],
      "stateMutability": "nonpayable",
      "type": "function"
    },
    {
      "inputs": [
        {
          "internalType": "address",
          "name": "newOwner",
          "type": "address"
        }
      ],
      "name": "transferOwnership",
      "outputs": [],
      "stateMutability": "nonpayable",
      "type": "function"
    },
    {
      "inputs": [
        {
          "internalType": "uint256",
          "name": "percent",
          "type": "uint256"
        }
      ],
      "name": "updateRoyalty",
      "outputs": [],
      "stateMutability": "nonpayable",
      "type": "function"
    },
    {
      "inputs": [
        {
          "internalType": "address",
          "name": "splitter",
          "type": "address"
        }
      ],
      "name": "updateSplitter",
      "outputs": [],
      "stateMutability": "nonpayable",
      "type": "function"
    },
    {
      "inputs": [
        {
          "internalType": "address",
          "name": "recipient",
          "type": "address"
        }
      ],
      "name": "withdraw",
      "outputs": [],
      "stateMutability": "nonpayable",
      "type": "function"
    }
  ],
  "bytecode": "0x60806040526103e8600d553480156200001757600080fd5b50604051620031e9380380620031e98339810160408190526200003a9162000236565b620000453362000075565b600160025562000057600082620000c5565b81516200006c9060099060208501906200015d565b50505062000364565b600080546001600160a01b038381166001600160a01b0319831681178455604051919092169283917f8be0079c531659141344cd1fd0a4f28419497f9722a3daafe3b4186f6b6457e09190a35050565b620000d18282620000d5565b5050565b60008281526001602090815260408083206001600160a01b038516845290915290205460ff16620000d15760008281526001602081815260408084206001600160a01b0386168086529252808420805460ff19169093179092559051339285917f2f8788117e7eff1d82e926ec794901d17c78024a50270940304540a733656f0d9190a45050565b8280546200016b9062000327565b90600052602060002090601f0160209004810192826200018f5760008555620001da565b82601f10620001aa57805160ff1916838001178555620001da565b82800160010185558215620001da579182015b82811115620001da578251825591602001919060010190620001bd565b50620001e8929150620001ec565b5090565b5b80821115620001e85760008155600101620001ed565b634e487b7160e01b600052604160045260246000fd5b80516001600160a01b03811681146200023157600080fd5b919050565b600080604083850312156200024a57600080fd5b82516001600160401b03808211156200026257600080fd5b818501915085601f8301126200027757600080fd5b8151818111156200028c576200028c62000203565b604051601f8201601f19908116603f01168101908382118183101715620002b757620002b762000203565b81604052828152602093508884848701011115620002d457600080fd5b600091505b82821015620002f85784820184015181830185015290830190620002d9565b828211156200030a5760008484830101525b95506200031c91505085820162000219565b925050509250929050565b600181811c908216806200033c57607f821691505b602082108114156200035e57634e487b7160e01b600052602260045260246000fd5b50919050565b612e7580620003746000396000f3fe60806040526004361061027d5760003560e01c806370a082311161014f578063a22cb465116100c1578063c87b56dd1161007a578063c87b56dd146107e7578063d547741f14610807578063e8a3d48514610827578063e985e9c51461083c578063f2fde38b1461085c578063f3cb83851461087c57600080fd5b8063a22cb4651461071f578063a8eb6d8e1461073f578063ad94d9011461075f578063b88d4fde1461077f578063bba7723e1461079f578063c002d23d146107cc57600080fd5b806395d89b411161011357806395d89b411461068657806398710d1e146106b25780639b70a340146106c75780639f67756d146106e1578063a0712d68146106f7578063a217fddf1461070a57600080fd5b806370a08231146105f3578063715018a6146106135780638da5cb5b146106285780638fffd8b51461064657806391d148541461066657600080fd5b80632a55205a116101f357806342842e0e116101ac57806342842e0e1461054057806342966c68146105605780634a9eee691461058057806351cff8d91461059357806358a85bca146105b35780636352211e146105d357600080fd5b80632a55205a146104585780632f2ff15d1461049757806332cb6b0c146104b757806336568abe146104e057806340c10f1914610500578063411d8f2f1461052057600080fd5b80630f2cdd6c116102455780630f2cdd6c1461036c57806318160ddd1461038f5780631e7269c5146103a457806323250cae146103d157806323b872dd14610407578063248a9ca31461042757600080fd5b806301ffc9a71461028257806302fe5305146102b757806306fdde03146102d9578063081812fc14610314578063095ea7b31461034c575b600080fd5b34801561028e57600080fd5b506102a261029d366004612646565b61089c565b60405190151581526020015b60405180910390f35b3480156102c357600080fd5b506102d76102d2366004612710565b6108e2565b005b3480156102e557600080fd5b506040805180820190915260098152684361736820436f777360b81b60208201525b6040516102ae91906127b1565b34801561032057600080fd5b5061033461032f3660046127c4565b610913565b6040516001600160a01b0390911681526020016102ae565b34801561035857600080fd5b506102d76103673660046127f2565b610957565b34801561037857600080fd5b50610381600a81565b6040519081526020016102ae565b34801561039b57600080fd5b506103816109e7565b3480156103b057600080fd5b506103816103bf36600461281e565b600b6020526000908152604090205481565b3480156103dd57600080fd5b506103346103ec3660046127c4565b600a602052600090815260409020546001600160a01b031681565b34801561041357600080fd5b506102d761042236600461283b565b610a04565b34801561043357600080fd5b506103816104423660046127c4565b6000908152600160208190526040909120015490565b34801561046457600080fd5b5061047861047336600461287c565b610a10565b604080516001600160a01b0390931683526020830191909152016102ae565b3480156104a357600080fd5b506102d76104b236600461289e565b610a87565b3480156104c357600080fd5b506104cd611e6181565b60405161ffff90911681526020016102ae565b3480156104ec57600080fd5b506102d76104fb36600461289e565b610aae565b34801561050c57600080fd5b506102d761051b3660046127f2565b610b31565b34801561052c57600080fd5b50600c54610334906001600160a01b031681565b34801561054c57600080fd5b506102d761055b36600461283b565b610bd5565b34801561056c57600080fd5b506102d761057b3660046127c4565b610bf0565b6102d761058e3660046128ee565b610d05565b34801561059f57600080fd5b506102d76105ae36600461281e565b610f88565b3480156105bf57600080fd5b506102d76105ce36600461295d565b61103f565b3480156105df57600080fd5b506103346105ee3660046127c4565b61106c565b3480156105ff57600080fd5b5061038161060e36600461281e565b6110ab565b34801561061f57600080fd5b506102d76110f0565b34801561063457600080fd5b506000546001600160a01b0316610334565b34801561065257600080fd5b506102d76106613660046127c4565b611126565b34801561067257600080fd5b506102a261068136600461289e565b61117a565b34801561069257600080fd5b506040805180820190915260038152624d4f4f60e81b6020820152610307565b3480156106be57600080fd5b50610381600181565b3480156106d357600080fd5b50600e546102a29060ff1681565b3480156106ed57600080fd5b50610381600d5481565b6102d76107053660046127c4565b6111a5565b34801561071657600080fd5b50610381600081565b34801561072b57600080fd5b506102d761073a366004612978565b61134f565b34801561074b57600080fd5b506102d761075a36600461281e565b61135a565b34801561076b57600080fd5b506102a261077a3660046129ad565b611396565b34801561078b57600080fd5b506102d761079a366004612a68565b611403565b3480156107ab57600080fd5b506107bf6107ba36600461281e565b61140f565b6040516102ae9190612abc565b3480156107d857600080fd5b506103816611c37937e0800081565b3480156107f357600080fd5b506103076108023660046127c4565b611512565b34801561081357600080fd5b506102d761082236600461289e565b61165c565b34801561083357600080fd5b50610307611683565b34801561084857600080fd5b506102a2610857366004612b00565b611715565b34801561086857600080fd5b506102d761087736600461281e565b611778565b34801561088857600080fd5b506102d761089736600461281e565b611813565b60006001600160e01b03198216635b5e139f60e01b14806108cd57506001600160e01b0319821663152a902d60e11b145b806108dc57506108dc8261184f565b92915050565b600080516020612e008339815191526108fb8133611874565b815161090e906008906020850190612597565b505050565b600061091e826118d8565b61093b57604051634a1850bf60e11b815260040160405180910390fd5b506000908152600660205260409020546001600160a01b031690565b600061096282611901565b9050806001600160a01b0316836001600160a01b031614156109975760405163250fdee360e21b815260040160405180910390fd5b336001600160a01b03821681148015906109b857506109b68282611715565b155b156109d65760405163250fdee360e21b815260040160405180910390fd5b6109e18484846119be565b50505050565b6000600f546109f560035490565b6109ff9190612b44565b905090565b61090e33848484611a1a565b600c5460009081906001600160a01b03161580610a335750610a31846118d8565b155b15610a515760405163574b16a760e11b815260040160405180910390fd5b600c54600d546001600160a01b039091169061271090610a719086612b5b565b610a7b9190612b7a565b915091505b9250929050565b60008281526001602081905260409091200154610aa48133611874565b61090e8383611a4d565b6001600160a01b0381163314610b235760405162461bcd60e51b815260206004820152602f60248201527f416363657373436f6e74726f6c3a2063616e206f6e6c792072656e6f756e636560448201526e103937b632b9903337b91039b2b63360891b60648201526084015b60405180910390fd5b610b2d8282611ab8565b5050565b7f9f2df0fed2c77648de5860a4cc508cd0818c85b8b8a1ab4ceeef8d981c8956a6610b5c8133611874565b600280541415610b7e5760405162461bcd60e51b8152600401610b1a90612b9c565b60028055811580610ba35750611e6182610b9760035490565b610ba19190612bd3565b115b15610bc15760405163574b16a760e11b815260040160405180910390fd5b610bcb8383611b1f565b5050600160025550565b61090e83838360405180602001604052806000815250611403565b6000610bfb82611901565b9050610c08338383611b39565b610c255760405163574b16a760e11b815260040160405180910390fd5b610c31600083836119be565b60018201610c3e816118d8565b8015610c5f57506000818152600460205260409020546001600160a01b0316155b15610c8c57600081815260046020526040902080546001600160a01b0319166001600160a01b0384161790555b506000828152600a6020908152604080832080546001600160a01b0386166001600160a01b0319918216811790925581855260058452828520805460001901905586855260049093528184208054909316909255600f805460010190555184929190600080516020612e20833981519152908390a45050565b600280541415610d275760405162461bcd60e51b8152600401610b1a90612b9c565b6002805533841580610d3857508284105b80610d6557506001600160a01b0381166000908152600b60205260409020548490610d639087612bd3565b115b80610d845750611e6185610d7860035490565b610d829190612bd3565b115b80610e635750604051631b5a5b9d60e21b60208201526bffffffffffffffffffffffff19606083901b1660248201526038810185905260588101849052610e61907f9f2df0fed2c77648de5860a4cc508cd0818c85b8b8a1ab4ceeef8d981c8956a69061068190610e5b90607801604051602081830303815290604052805190602001206040517f19457468657265756d205369676e6564204d6573736167653a0a3332000000006020820152603c8101829052600090605c01604051602081830303815290604052805190602001209050919050565b85611b8c565b155b15610e815760405163574b16a760e11b815260040160405180910390fd5b6001600160a01b0381166000908152600b6020526040902054831115610f13576001600160a01b0381166000908152600b6020526040812054610ec49085612b44565b90508581108015610eef5750346611c37937e08000610ee38389612b44565b610eed9190612b5b565b115b15610f0d5760405163574b16a760e11b815260040160405180910390fd5b50610f44565b34610f256611c37937e0800087612b5b565b1115610f445760405163574b16a760e11b815260040160405180910390fd5b6001600160a01b0381166000908152600b602052604081208054879290610f6c908490612bd3565b90915550610f7c90508186611b1f565b50506001600255505050565b6000546001600160a01b03163314610fb25760405162461bcd60e51b8152600401610b1a90612beb565b600280541415610fd45760405162461bcd60e51b8152600401610b1a90612b9c565b600280556010546001600160a01b03166110015760405163574b16a760e11b815260040160405180910390fd5b6040516001600160a01b038216904780156108fc02916000818181858888f19350505050158015611036573d6000803e3d6000fd5b50506001600255565b600080516020612e008339815191526110588133611874565b50600e805460ff1916911515919091179055565b6000818152600a60205260408120546001600160a01b0316156110a257604051634a1850bf60e11b815260040160405180910390fd5b6108dc82611901565b60006001600160a01b0382166110d4576040516316285dcb60e11b815260040160405180910390fd5b506001600160a01b031660009081526005602052604090205490565b6000546001600160a01b0316331461111a5760405162461bcd60e51b8152600401610b1a90612beb565b6111246000611ba8565b565b7f3b5d4cc60d3ec3516ee8ae083bd60934f6eb2a6c54b1229985c41bfb092b26036111518133611874565b6103e88211156111745760405163574b16a760e11b815260040160405180910390fd5b50600d55565b60009182526001602090815260408084206001600160a01b0393909316845291905290205460ff1690565b6002805414156111c75760405162461bcd60e51b8152600401610b1a90612b9c565b6002805533803b1515806111de5750600e5460ff16155b806111e7575081155b8061121557506001600160a01b0381166000908152600b6020526040902054600a906112139084612bd3565b115b806112345750611e618261122860035490565b6112329190612bd3565b115b156112525760405163574b16a760e11b815260040160405180910390fd5b6001600160a01b0381166000908152600b6020526040902054600111156112e6576001600160a01b0381166000908152600b6020526040812054611297906001612b44565b905082811080156112c25750346611c37937e080006112b68386612b44565b6112c09190612b5b565b115b156112e05760405163574b16a760e11b815260040160405180910390fd5b50611317565b346112f86611c37937e0800084612b5b565b11156113175760405163574b16a760e11b815260040160405180910390fd5b6001600160a01b0381166000908152600b60205260408120805484929061133f908490612bd3565b9091555061103690508183611b1f565b610b2d338383611bf8565b600080516020612e008339815191526113738133611874565b50600c80546001600160a01b0319166001600160a01b0392909216919091179055565b6000805b82518110156113f9576113c58382815181106113b8576113b8612c20565b602002602001015161106c565b6001600160a01b0316846001600160a01b0316146113e75760009150506108dc565b806113f181612c36565b91505061139a565b5060019392505050565b6109e184848484611c98565b6060600061141c836110ab565b90508061143d5760408051600080825260208201909252905b509392505050565b60008167ffffffffffffffff81111561145857611458612663565b604051908082528060200260200182016040528015611481578160200160208202803683370190505b509050600061148e6109e7565b9050600060015b828111611507576114a58161106c565b6001600160a01b0316876001600160a01b031614156114f5578084836114ca81612c36565b9450815181106114dc576114dc612c20565b602002602001018181525050848214156114f557611507565b806114ff81612c36565b915050611495565b509195945050505050565b606061151d826118d8565b61153a5760405163574b16a760e11b815260040160405180910390fd5b6010546001600160a01b03166115dc576009805461155790612c51565b80601f016020809104026020016040519081016040528092919081815260200182805461158390612c51565b80156115d05780601f106115a5576101008083540402835291602001916115d0565b820191906000526020600020905b8154815290600101906020018083116115b357829003601f168201915b50505050509050919050565b60105460405163c87b56dd60e01b8152600481018490526001600160a01b039091169063c87b56dd9060240160006040518083038186803b15801561162057600080fd5b505afa158015611634573d6000803e3d6000fd5b505050506040513d6000823e601f3d908101601f191682016040526108dc9190810190612c8c565b600082815260016020819052604090912001546116798133611874565b61090e8383611ab8565b60606008805461169290612c51565b80601f01602080910402602001604051908101604052809291908181526020018280546116be90612c51565b801561170b5780601f106116e05761010080835404028352916020019161170b565b820191906000526020600020905b8154815290600101906020018083116116ee57829003601f168201915b5050505050905090565b60006117417f4a0c3698e72495f6d49f6ef074f2b34cac5b153c817a7cc37789cccbb873cf5d8361117a565b8061177157506001600160a01b0380841660009081526007602090815260408083209386168352929052205460ff165b9392505050565b6000546001600160a01b031633146117a25760405162461bcd60e51b8152600401610b1a90612beb565b6001600160a01b0381166118075760405162461bcd60e51b815260206004820152602660248201527f4f776e61626c653a206e6577206f776e657220697320746865207a65726f206160448201526564647265737360d01b6064820152608401610b1a565b61181081611ba8565b50565b600080516020612e0083398151915261182c8133611874565b50601080546001600160a01b0319166001600160a01b0392909216919091179055565b60006001600160e01b031982166380ac58cd60e01b14806108dc57506108dc82611ce5565b61187e828261117a565b610b2d57611896816001600160a01b03166014611d1a565b6118a1836020611d1a565b6040516020016118b2929190612d03565b60408051601f198184030181529082905262461bcd60e51b8252610b1a916004016127b1565b6000818152600a60205260408120546001600160a01b03161580156108dc57506108dc82611eb6565b60008181526004602052604081205482906001600160a01b03161561193e576000908152600460205260409020546001600160a01b031692915050565b60008111801561195057506003548111155b156119a4575b6000190180611964576119a4565b6000818152600460205260409020546001600160a01b03161561199f576000908152600460205260409020546001600160a01b031692915050565b611956565b50604051634a1850bf60e11b815260040160405180910390fd5b60008281526006602052604080822080546001600160a01b0319166001600160a01b0387811691821790925591518593918516917f8c5be1e5ebec7d5bd14f71427d1e84f3dd0314c0f7b2291e5b200ac8c7c3b92591a4505050565b611a25848285611b39565b611a425760405163574b16a760e11b815260040160405180910390fd5b6109e1838383611ecb565b611a57828261117a565b610b2d5760008281526001602081815260408084206001600160a01b0386168086529252808420805460ff19169093179092559051339285917f2f8788117e7eff1d82e926ec794901d17c78024a50270940304540a733656f0d9190a45050565b611ac2828261117a565b15610b2d5760008281526001602090815260408083206001600160a01b0385168085529252808320805460ff1916905551339285917ff6391f5c32d9c69d2a47ea670b442974b53935d1edc7fd64eb21e047a839171b9190a45050565b610b2d828260405180602001604052806000815250612003565b6000816001600160a01b0316846001600160a01b03161480611b745750836001600160a01b0316611b6984610913565b6001600160a01b0316145b80611b845750611b848285611715565b949350505050565b6000806000611b9b8585612010565b915091506114358161207d565b600080546001600160a01b038381166001600160a01b0319831681178455604051919092169283917f8be0079c531659141344cd1fd0a4f28419497f9722a3daafe3b4186f6b6457e09190a35050565b816001600160a01b0316836001600160a01b03161415611c2b5760405163079f14e360e51b815260040160405180910390fd5b6001600160a01b03838116600081815260076020908152604080832094871680845294825291829020805460ff191686151590811790915591519182527f17307eab39ab6107e8899845ad3d59bd9653f200f220920489ca2b5937696c31910160405180910390a3505050565b611ca433858585611a1a565b6000836001600160a01b03163b118015611cc75750611cc584848484612238565b155b156109e157604051631f11849560e21b815260040160405180910390fd5b60006001600160e01b03198216637965db0b60e01b14806108dc57506301ffc9a760e01b6001600160e01b03198316146108dc565b60606000611d29836002612b5b565b611d34906002612bd3565b67ffffffffffffffff811115611d4c57611d4c612663565b6040519080825280601f01601f191660200182016040528015611d76576020820181803683370190505b509050600360fc1b81600081518110611d9157611d91612c20565b60200101906001600160f81b031916908160001a905350600f60fb1b81600181518110611dc057611dc0612c20565b60200101906001600160f81b031916908160001a9053506000611de4846002612b5b565b611def906001612bd3565b90505b6001811115611e67576f181899199a1a9b1b9c1cb0b131b232b360811b85600f1660108110611e2357611e23612c20565b1a60f81b828281518110611e3957611e39612c20565b60200101906001600160f81b031916908160001a90535060049490941c93611e6081612d78565b9050611df2565b5083156117715760405162461bcd60e51b815260206004820181905260248201527f537472696e67733a20686578206c656e67746820696e73756666696369656e746044820152606401610b1a565b600080821180156108dc575050600354101590565b6001600160a01b0382161580611efb5750611ee581611901565b6001600160a01b0316836001600160a01b031614155b15611f195760405163574b16a760e11b815260040160405180910390fd5b611f25600082856119be565b6001600160a01b03808316600081815260056020908152604080832080546001908101909155948816835280832080546000190190558583526004909152902080546001600160a01b0319169091179055600354908201908111801590611fa157506000818152600460205260409020546001600160a01b0316155b15611fce57600081815260046020526040902080546001600160a01b0319166001600160a01b0386161790555b5080826001600160a01b0316846001600160a01b0316600080516020612e2083398151915260405160405180910390a4505050565b61090e838383600161232f565b6000808251604114156120475760208301516040840151606085015160001a61203b8782858561247b565b94509450505050610a80565b8251604014156120715760208301516040840151612066868383612568565b935093505050610a80565b50600090506002610a80565b600081600481111561209157612091612d8f565b141561209a5750565b60018160048111156120ae576120ae612d8f565b14156120fc5760405162461bcd60e51b815260206004820152601860248201527f45434453413a20696e76616c6964207369676e617475726500000000000000006044820152606401610b1a565b600281600481111561211057612110612d8f565b141561215e5760405162461bcd60e51b815260206004820152601f60248201527f45434453413a20696e76616c6964207369676e6174757265206c656e677468006044820152606401610b1a565b600381600481111561217257612172612d8f565b14156121cb5760405162461bcd60e51b815260206004820152602260248201527f45434453413a20696e76616c6964207369676e6174757265202773272076616c604482015261756560f01b6064820152608401610b1a565b60048160048111156121df576121df612d8f565b14156118105760405162461bcd60e51b815260206004820152602260248201527f45434453413a20696e76616c6964207369676e6174757265202776272076616c604482015261756560f01b6064820152608401610b1a565b604051630a85bd0160e11b81526000906001600160a01b0385169063150b7a029061226d903390899088908890600401612da5565b602060405180830381600087803b15801561228757600080fd5b505af19250505080156122b7575060408051601f3d908101601f191682019092526122b491810190612de2565b60015b612312573d8080156122e5576040519150601f19603f3d011682016040523d82523d6000602084013e6122ea565b606091505b50805161230a57604051630568cbab60e01b815260040160405180910390fd5b805181602001fd5b6001600160e01b031916630a85bd0160e11b149050949350505050565b82158061234357506001600160a01b038416155b156123615760405163574b16a760e11b815260040160405180910390fd5b600060035460016123729190612bd3565b905060038054850190556001600160a01b03851660008181526005602090815260408083208054890190558483526004909152902080546001600160a01b0319169091179055808481018380156123d357506000876001600160a01b03163b115b1561243f575b60405182906001600160a01b03891690600090600080516020612e20833981519152908290a46124126000888480600101955088612238565b61242f57604051631f11849560e21b815260040160405180910390fd5b808214156123d9575050506109e1565b5b6040516001830192906001600160a01b03891690600090600080516020612e20833981519152908290a4808214156124405750505050505050565b6000807f7fffffffffffffffffffffffffffffff5d576e7357a4501ddfe92f46681b20a08311156124b2575060009050600361255f565b8460ff16601b141580156124ca57508460ff16601c14155b156124db575060009050600461255f565b6040805160008082526020820180845289905260ff881692820192909252606081018690526080810185905260019060a0016020604051602081039080840390855afa15801561252f573d6000803e3d6000fd5b5050604051601f1901519150506001600160a01b0381166125585760006001925092505061255f565b9150600090505b94509492505050565b6000806001600160ff1b03831660ff84901c601b016125898782888561247b565b935093505050935093915050565b8280546125a390612c51565b90600052602060002090601f0160209004810192826125c5576000855561260b565b82601f106125de57805160ff191683800117855561260b565b8280016001018555821561260b579182015b8281111561260b5782518255916020019190600101906125f0565b5061261792915061261b565b5090565b5b80821115612617576000815560010161261c565b6001600160e01b03198116811461181057600080fd5b60006020828403121561265857600080fd5b813561177181612630565b634e487b7160e01b600052604160045260246000fd5b604051601f8201601f1916810167ffffffffffffffff811182821017156126a2576126a2612663565b604052919050565b600067ffffffffffffffff8211156126c4576126c4612663565b50601f01601f191660200190565b60006126e56126e0846126aa565b612679565b90508281528383830111156126f957600080fd5b828260208301376000602084830101529392505050565b60006020828403121561272257600080fd5b813567ffffffffffffffff81111561273957600080fd5b8201601f8101841361274a57600080fd5b611b84848235602084016126d2565b60005b8381101561277457818101518382015260200161275c565b838111156109e15750506000910152565b6000815180845261279d816020860160208601612759565b601f01601f19169290920160200192915050565b6020815260006117716020830184612785565b6000602082840312156127d657600080fd5b5035919050565b6001600160a01b038116811461181057600080fd5b6000806040838503121561280557600080fd5b8235612810816127dd565b946020939093013593505050565b60006020828403121561283057600080fd5b8135611771816127dd565b60008060006060848603121561285057600080fd5b833561285b816127dd565b9250602084013561286b816127dd565b929592945050506040919091013590565b6000806040838503121561288f57600080fd5b50508035926020909101359150565b600080604083850312156128b157600080fd5b8235915060208301356128c3816127dd565b809150509250929050565b600082601f8301126128df57600080fd5b611771838335602085016126d2565b6000806000806080858703121561290457600080fd5b843593506020850135925060408501359150606085013567ffffffffffffffff81111561293057600080fd5b61293c878288016128ce565b91505092959194509250565b8035801515811461295857600080fd5b919050565b60006020828403121561296f57600080fd5b61177182612948565b6000806040838503121561298b57600080fd5b8235612996816127dd565b91506129a460208401612948565b90509250929050565b600080604083850312156129c057600080fd5b82356129cb816127dd565b915060208381013567ffffffffffffffff808211156129e957600080fd5b818601915086601f8301126129fd57600080fd5b813581811115612a0f57612a0f612663565b8060051b9150612a20848301612679565b8181529183018401918481019089841115612a3a57600080fd5b938501935b83851015612a5857843582529385019390850190612a3f565b8096505050505050509250929050565b60008060008060808587031215612a7e57600080fd5b8435612a89816127dd565b93506020850135612a99816127dd565b925060408501359150606085013567ffffffffffffffff81111561293057600080fd5b6020808252825182820181905260009190848201906040850190845b81811015612af457835183529284019291840191600101612ad8565b50909695505050505050565b60008060408385031215612b1357600080fd5b8235612b1e816127dd565b915060208301356128c3816127dd565b634e487b7160e01b600052601160045260246000fd5b600082821015612b5657612b56612b2e565b500390565b6000816000190483118215151615612b7557612b75612b2e565b500290565b600082612b9757634e487b7160e01b600052601260045260246000fd5b500490565b6020808252601f908201527f5265656e7472616e637947756172643a207265656e7472616e742063616c6c00604082015260600190565b60008219821115612be657612be6612b2e565b500190565b6020808252818101527f4f776e61626c653a2063616c6c6572206973206e6f7420746865206f776e6572604082015260600190565b634e487b7160e01b600052603260045260246000fd5b6000600019821415612c4a57612c4a612b2e565b5060010190565b600181811c90821680612c6557607f821691505b60208210811415612c8657634e487b7160e01b600052602260045260246000fd5b50919050565b600060208284031215612c9e57600080fd5b815167ffffffffffffffff811115612cb557600080fd5b8201601f81018413612cc657600080fd5b8051612cd46126e0826126aa565b818152856020838501011115612ce957600080fd5b612cfa826020830160208601612759565b95945050505050565b7f416363657373436f6e74726f6c3a206163636f756e7420000000000000000000815260008351612d3b816017850160208801612759565b7001034b99036b4b9b9b4b733903937b6329607d1b6017918401918201528351612d6c816028840160208801612759565b01602801949350505050565b600081612d8757612d87612b2e565b506000190190565b634e487b7160e01b600052602160045260246000fd5b6001600160a01b0385811682528416602082015260408101839052608060608201819052600090612dd890830184612785565b9695505050505050565b600060208284031215612df457600080fd5b81516117718161263056fe850d585eb7f024ccee5e68e55f2c26cc72e1e6ee456acf62135757a5eb9d4a10ddf252ad1be2c89b69c2b068fc378daa952ba7f163c4a11628f55a4df523b3efa26469706673582212207b940e5c73fda26805ed2a4ea767bc76d233b74cdecb1c6c59ca09f1f2ffc66b64736f6c63430008090033",
  "linkReferences": {},
  "deployedLinkReferences": {}
}