{
  "_format": "hh-sol-artifact-1",
  "contractName": "CashCows",
  "sourceName": "contracts/CashCows.sol",
  "abi": [
    {
      "inputs": [
        {
          "internalType": "string",
          "name": "preview",
          "type": "string"
        },
        {
          "internalType": "address",
          "name": "admin",
          "type": "address"
        }
      ],
      "stateMutability": "nonpayable",
      "type": "constructor"
    },
    {
      "inputs": [],
      "name": "ApprovalOwnerIsOperator",
      "type": "error"
    },
    {
      "inputs": [],
      "name": "ApprovalToCurrentOwner",
      "type": "error"
    },
    {
      "inputs": [],
      "name": "BalanceQueryZeroAddress",
      "type": "error"
    },
    {
      "inputs": [],
      "name": "ERC721ReceiverNotReceived",
      "type": "error"
    },
    {
      "inputs": [],
      "name": "InvalidCall",
      "type": "error"
    },
    {
      "inputs": [],
      "name": "NonExistentToken",
      "type": "error"
    },
    {
      "inputs": [],
      "name": "NotERC721Receiver",
      "type": "error"
    },
    {
      "anonymous": false,
      "inputs": [
        {
          "indexed": true,
          "internalType": "address",
          "name": "owner",
          "type": "address"
        },
        {
          "indexed": true,
          "internalType": "address",
          "name": "approved",
          "type": "address"
        },
        {
          "indexed": true,
          "internalType": "uint256",
          "name": "tokenId",
          "type": "uint256"
        }
      ],
      "name": "Approval",
      "type": "event"
    },
    {
      "anonymous": false,
      "inputs": [
        {
          "indexed": true,
          "internalType": "address",
          "name": "owner",
          "type": "address"
        },
        {
          "indexed": true,
          "internalType": "address",
          "name": "operator",
          "type": "address"
        },
        {
          "indexed": false,
          "internalType": "bool",
          "name": "approved",
          "type": "bool"
        }
      ],
      "name": "ApprovalForAll",
      "type": "event"
    },
    {
      "anonymous": false,
      "inputs": [
        {
          "indexed": true,
          "internalType": "address",
          "name": "previousOwner",
          "type": "address"
        },
        {
          "indexed": true,
          "internalType": "address",
          "name": "newOwner",
          "type": "address"
        }
      ],
      "name": "OwnershipTransferred",
      "type": "event"
    },
    {
      "anonymous": false,
      "inputs": [
        {
          "indexed": true,
          "internalType": "bytes32",
          "name": "role",
          "type": "bytes32"
        },
        {
          "indexed": true,
          "internalType": "bytes32",
          "name": "previousAdminRole",
          "type": "bytes32"
        },
        {
          "indexed": true,
          "internalType": "bytes32",
          "name": "newAdminRole",
          "type": "bytes32"
        }
      ],
      "name": "RoleAdminChanged",
      "type": "event"
    },
    {
      "anonymous": false,
      "inputs": [
        {
          "indexed": true,
          "internalType": "bytes32",
          "name": "role",
          "type": "bytes32"
        },
        {
          "indexed": true,
          "internalType": "address",
          "name": "account",
          "type": "address"
        },
        {
          "indexed": true,
          "internalType": "address",
          "name": "sender",
          "type": "address"
        }
      ],
      "name": "RoleGranted",
      "type": "event"
    },
    {
      "anonymous": false,
      "inputs": [
        {
          "indexed": true,
          "internalType": "bytes32",
          "name": "role",
          "type": "bytes32"
        },
        {
          "indexed": true,
          "internalType": "address",
          "name": "account",
          "type": "address"
        },
        {
          "indexed": true,
          "internalType": "address",
          "name": "sender",
          "type": "address"
        }
      ],
      "name": "RoleRevoked",
      "type": "event"
    },
    {
      "anonymous": false,
      "inputs": [
        {
          "indexed": true,
          "internalType": "address",
          "name": "from",
          "type": "address"
        },
        {
          "indexed": true,
          "internalType": "address",
          "name": "to",
          "type": "address"
        },
        {
          "indexed": true,
          "internalType": "uint256",
          "name": "tokenId",
          "type": "uint256"
        }
      ],
      "name": "Transfer",
      "type": "event"
    },
    {
      "inputs": [],
      "name": "DEFAULT_ADMIN_ROLE",
      "outputs": [
        {
          "internalType": "bytes32",
          "name": "",
          "type": "bytes32"
        }
      ],
      "stateMutability": "view",
      "type": "function"
    },
    {
      "inputs": [],
      "name": "MAX_PER_WALLET",
      "outputs": [
        {
          "internalType": "uint256",
          "name": "",
          "type": "uint256"
        }
      ],
      "stateMutability": "view",
      "type": "function"
    },
    {
      "inputs": [],
      "name": "MAX_SUPPLY",
      "outputs": [
        {
          "internalType": "uint16",
          "name": "",
          "type": "uint16"
        }
      ],
      "stateMutability": "view",
      "type": "function"
    },
    {
      "inputs": [],
      "name": "MINT_PRICE",
      "outputs": [
        {
          "internalType": "uint256",
          "name": "",
          "type": "uint256"
        }
      ],
      "stateMutability": "view",
      "type": "function"
    },
    {
      "inputs": [
        {
          "internalType": "address",
          "name": "to",
          "type": "address"
        },
        {
          "internalType": "uint256",
          "name": "tokenId",
          "type": "uint256"
        }
      ],
      "name": "approve",
      "outputs": [],
      "stateMutability": "nonpayable",
      "type": "function"
    },
    {
      "inputs": [
        {
          "internalType": "address",
          "name": "owner",
          "type": "address"
        }
      ],
      "name": "balanceOf",
      "outputs": [
        {
          "internalType": "uint256",
          "name": "",
          "type": "uint256"
        }
      ],
      "stateMutability": "view",
      "type": "function"
    },
    {
      "inputs": [
        {
          "internalType": "uint256",
          "name": "tokenId",
          "type": "uint256"
        }
      ],
      "name": "burn",
      "outputs": [],
      "stateMutability": "nonpayable",
      "type": "function"
    },
    {
      "inputs": [
        {
          "internalType": "uint256",
          "name": "",
          "type": "uint256"
        }
      ],
      "name": "burned",
      "outputs": [
        {
          "internalType": "address",
          "name": "",
          "type": "address"
        }
      ],
      "stateMutability": "view",
      "type": "function"
    },
    {
      "inputs": [],
      "name": "contractURI",
      "outputs": [
        {
          "internalType": "string",
          "name": "",
          "type": "string"
        }
      ],
      "stateMutability": "view",
      "type": "function"
    },
    {
      "inputs": [
        {
          "internalType": "uint256",
          "name": "tokenId",
          "type": "uint256"
        }
      ],
      "name": "getApproved",
      "outputs": [
        {
          "internalType": "address",
          "name": "",
          "type": "address"
        }
      ],
      "stateMutability": "view",
      "type": "function"
    },
    {
      "inputs": [
        {
          "internalType": "bytes32",
          "name": "role",
          "type": "bytes32"
        }
      ],
      "name": "getRoleAdmin",
      "outputs": [
        {
          "internalType": "bytes32",
          "name": "",
          "type": "bytes32"
        }
      ],
      "stateMutability": "view",
      "type": "function"
    },
    {
      "inputs": [
        {
          "internalType": "bytes32",
          "name": "role",
          "type": "bytes32"
        },
        {
          "internalType": "address",
          "name": "account",
          "type": "address"
        }
      ],
      "name": "grantRole",
      "outputs": [],
      "stateMutability": "nonpayable",
      "type": "function"
    },
    {
      "inputs": [
        {
          "internalType": "bytes32",
          "name": "role",
          "type": "bytes32"
        },
        {
          "internalType": "address",
          "name": "account",
          "type": "address"
        }
      ],
      "name": "hasRole",
      "outputs": [
        {
          "internalType": "bool",
          "name": "",
          "type": "bool"
        }
      ],
      "stateMutability": "view",
      "type": "function"
    },
    {
      "inputs": [
        {
          "internalType": "address",
          "name": "owner",
          "type": "address"
        },
        {
          "internalType": "address",
          "name": "operator",
          "type": "address"
        }
      ],
      "name": "isApprovedForAll",
      "outputs": [
        {
          "internalType": "bool",
          "name": "",
          "type": "bool"
        }
      ],
      "stateMutability": "view",
      "type": "function"
    },
    {
      "inputs": [],
      "name": "maxFreePerWallet",
      "outputs": [
        {
          "internalType": "uint256",
          "name": "",
          "type": "uint256"
        }
      ],
      "stateMutability": "view",
      "type": "function"
    },
    {
      "inputs": [
        {
          "internalType": "address",
          "name": "recipient",
          "type": "address"
        },
        {
          "internalType": "uint256",
          "name": "quantity",
          "type": "uint256"
        }
      ],
      "name": "mint",
      "outputs": [],
      "stateMutability": "nonpayable",
      "type": "function"
    },
    {
      "inputs": [
        {
          "internalType": "uint256",
          "name": "quantity",
          "type": "uint256"
        },
        {
          "internalType": "uint256",
          "name": "maxMint",
          "type": "uint256"
        },
        {
          "internalType": "uint256",
          "name": "maxFree",
          "type": "uint256"
        },
        {
          "internalType": "bytes",
          "name": "proof",
          "type": "bytes"
        }
      ],
      "name": "mint",
      "outputs": [],
      "stateMutability": "payable",
      "type": "function"
    },
    {
      "inputs": [
        {
          "internalType": "uint256",
          "name": "quantity",
          "type": "uint256"
        }
      ],
      "name": "mint",
      "outputs": [],
      "stateMutability": "payable",
      "type": "function"
    },
    {
      "inputs": [],
      "name": "mintOpened",
      "outputs": [
        {
          "internalType": "bool",
          "name": "",
          "type": "bool"
        }
      ],
      "stateMutability": "view",
      "type": "function"
    },
    {
      "inputs": [
        {
          "internalType": "address",
          "name": "",
          "type": "address"
        }
      ],
      "name": "minted",
      "outputs": [
        {
          "internalType": "uint256",
          "name": "",
          "type": "uint256"
        }
      ],
      "stateMutability": "view",
      "type": "function"
    },
    {
      "inputs": [],
      "name": "name",
      "outputs": [
        {
          "internalType": "string",
          "name": "",
          "type": "string"
        }
      ],
      "stateMutability": "pure",
      "type": "function"
    },
    {
      "inputs": [
        {
          "internalType": "bool",
          "name": "yes",
          "type": "bool"
        }
      ],
      "name": "openMint",
      "outputs": [],
      "stateMutability": "nonpayable",
      "type": "function"
    },
    {
      "inputs": [],
      "name": "owner",
      "outputs": [
        {
          "internalType": "address",
          "name": "",
          "type": "address"
        }
      ],
      "stateMutability": "view",
      "type": "function"
    },
    {
      "inputs": [
        {
          "internalType": "uint256",
          "name": "tokenId",
          "type": "uint256"
        }
      ],
      "name": "ownerOf",
      "outputs": [
        {
          "internalType": "address",
          "name": "",
          "type": "address"
        }
      ],
      "stateMutability": "view",
      "type": "function"
    },
    {
      "inputs": [
        {
          "internalType": "address",
          "name": "owner",
          "type": "address"
        }
      ],
      "name": "ownerTokens",
      "outputs": [
        {
          "internalType": "uint256[]",
          "name": "",
          "type": "uint256[]"
        }
      ],
      "stateMutability": "view",
      "type": "function"
    },
    {
      "inputs": [
        {
          "internalType": "address",
          "name": "owner",
          "type": "address"
        },
        {
          "internalType": "uint256[]",
          "name": "tokenIds",
          "type": "uint256[]"
        }
      ],
      "name": "ownsAll",
      "outputs": [
        {
          "internalType": "bool",
          "name": "",
          "type": "bool"
        }
      ],
      "stateMutability": "view",
      "type": "function"
    },
    {
      "inputs": [],
      "name": "renounceOwnership",
      "outputs": [],
      "stateMutability": "nonpayable",
      "type": "function"
    },
    {
      "inputs": [
        {
          "internalType": "bytes32",
          "name": "role",
          "type": "bytes32"
        },
        {
          "internalType": "address",
          "name": "account",
          "type": "address"
        }
      ],
      "name": "renounceRole",
      "outputs": [],
      "stateMutability": "nonpayable",
      "type": "function"
    },
    {
      "inputs": [
        {
          "internalType": "bytes32",
          "name": "role",
          "type": "bytes32"
        },
        {
          "internalType": "address",
          "name": "account",
          "type": "address"
        }
      ],
      "name": "revokeRole",
      "outputs": [],
      "stateMutability": "nonpayable",
      "type": "function"
    },
    {
      "inputs": [
        {
          "internalType": "uint256",
          "name": "_tokenId",
          "type": "uint256"
        },
        {
          "internalType": "uint256",
          "name": "_salePrice",
          "type": "uint256"
        }
      ],
      "name": "royaltyInfo",
      "outputs": [
        {
          "internalType": "address",
          "name": "receiver",
          "type": "address"
        },
        {
          "internalType": "uint256",
          "name": "royaltyAmount",
          "type": "uint256"
        }
      ],
      "stateMutability": "view",
      "type": "function"
    },
    {
      "inputs": [],
      "name": "royaltyPercent",
      "outputs": [
        {
          "internalType": "uint256",
          "name": "",
          "type": "uint256"
        }
      ],
      "stateMutability": "view",
      "type": "function"
    },
    {
      "inputs": [
        {
          "internalType": "address",
          "name": "from",
          "type": "address"
        },
        {
          "internalType": "address",
          "name": "to",
          "type": "address"
        },
        {
          "internalType": "uint256",
          "name": "tokenId",
          "type": "uint256"
        }
      ],
      "name": "safeTransferFrom",
      "outputs": [],
      "stateMutability": "nonpayable",
      "type": "function"
    },
    {
      "inputs": [
        {
          "internalType": "address",
          "name": "from",
          "type": "address"
        },
        {
          "internalType": "address",
          "name": "to",
          "type": "address"
        },
        {
          "internalType": "uint256",
          "name": "tokenId",
          "type": "uint256"
        },
        {
          "internalType": "bytes",
          "name": "_data",
          "type": "bytes"
        }
      ],
      "name": "safeTransferFrom",
      "outputs": [],
      "stateMutability": "nonpayable",
      "type": "function"
    },
    {
      "inputs": [
        {
          "internalType": "address",
          "name": "operator",
          "type": "address"
        },
        {
          "internalType": "bool",
          "name": "approved",
          "type": "bool"
        }
      ],
      "name": "setApprovalForAll",
      "outputs": [],
      "stateMutability": "nonpayable",
      "type": "function"
    },
    {
      "inputs": [
        {
          "internalType": "uint256",
          "name": "max",
          "type": "uint256"
        }
      ],
      "name": "setMaxFree",
      "outputs": [],
      "stateMutability": "nonpayable",
      "type": "function"
    },
    {
      "inputs": [
        {
          "internalType": "string",
          "name": "uri",
          "type": "string"
        }
      ],
      "name": "setURI",
      "outputs": [],
      "stateMutability": "nonpayable",
      "type": "function"
    },
    {
      "inputs": [
        {
          "internalType": "bytes4",
          "name": "interfaceId",
          "type": "bytes4"
        }
      ],
      "name": "supportsInterface",
      "outputs": [
        {
          "internalType": "bool",
          "name": "",
          "type": "bool"
        }
      ],
      "stateMutability": "view",
      "type": "function"
    },
    {
      "inputs": [],
      "name": "symbol",
      "outputs": [
        {
          "internalType": "string",
          "name": "",
          "type": "string"
        }
      ],
      "stateMutability": "pure",
      "type": "function"
    },
    {
      "inputs": [
        {
          "internalType": "uint256",
          "name": "tokenId",
          "type": "uint256"
        }
      ],
      "name": "tokenURI",
      "outputs": [
        {
          "internalType": "string",
          "name": "",
          "type": "string"
        }
      ],
      "stateMutability": "view",
      "type": "function"
    },
    {
      "inputs": [],
      "name": "totalSupply",
      "outputs": [
        {
          "internalType": "uint256",
          "name": "",
          "type": "uint256"
        }
      ],
      "stateMutability": "view",
      "type": "function"
    },
    {
      "inputs": [
        {
          "internalType": "address",
          "name": "from",
          "type": "address"
        },
        {
          "internalType": "address",
          "name": "to",
          "type": "address"
        },
        {
          "internalType": "uint256",
          "name": "tokenId",
          "type": "uint256"
        }
      ],
      "name": "transferFrom",
      "outputs": [],
      "stateMutability": "nonpayable",
      "type": "function"
    },
    {
      "inputs": [
        {
          "internalType": "address",
          "name": "newOwner",
          "type": "address"
        }
      ],
      "name": "transferOwnership",
      "outputs": [],
      "stateMutability": "nonpayable",
      "type": "function"
    },
    {
      "inputs": [],
      "name": "treasury",
      "outputs": [
        {
          "internalType": "contract IRoyaltySplitter",
          "name": "",
          "type": "address"
        }
      ],
      "stateMutability": "view",
      "type": "function"
    },
    {
      "inputs": [
        {
          "internalType": "contract IMetadata",
          "name": "metadata",
          "type": "address"
        }
      ],
      "name": "updateMetadata",
      "outputs": [],
      "stateMutability": "nonpayable",
      "type": "function"
    },
    {
      "inputs": [
        {
          "internalType": "uint256",
          "name": "percent",
          "type": "uint256"
        }
      ],
      "name": "updateRoyalty",
      "outputs": [],
      "stateMutability": "nonpayable",
      "type": "function"
    },
    {
      "inputs": [
        {
          "internalType": "contract IRoyaltySplitter",
          "name": "splitter",
          "type": "address"
        }
      ],
      "name": "updateTreasury",
      "outputs": [],
      "stateMutability": "nonpayable",
      "type": "function"
    },
    {
      "inputs": [
        {
          "internalType": "address",
          "name": "recipient",
          "type": "address"
        }
      ],
      "name": "withdraw",
      "outputs": [],
      "stateMutability": "nonpayable",
      "type": "function"
    }
  ],
  "bytecode": "0x60806040526103e8600d5560016011553480156200001c57600080fd5b5060405162003272380380620032728339810160408190526200003f916200025d565b6001600055818162000051336200007e565b6200005e600082620000d0565b81516200007390600b90602085019062000184565b50505050506200038b565b600180546001600160a01b038381166001600160a01b0319831681179093556040519116919082907f8be0079c531659141344cd1fd0a4f28419497f9722a3daafe3b4186f6b6457e090600090a35050565b620000dc8282620000e0565b5050565b60008281526002602090815260408083206001600160a01b038516845290915290205460ff16620000dc5760008281526002602090815260408083206001600160a01b03851684529091529020805460ff19166001179055620001403390565b6001600160a01b0316816001600160a01b0316837f2f8788117e7eff1d82e926ec794901d17c78024a50270940304540a733656f0d60405160405180910390a45050565b82805462000192906200034e565b90600052602060002090601f016020900481019282620001b6576000855562000201565b82601f10620001d157805160ff191683800117855562000201565b8280016001018555821562000201579182015b8281111562000201578251825591602001919060010190620001e4565b506200020f92915062000213565b5090565b5b808211156200020f576000815560010162000214565b634e487b7160e01b600052604160045260246000fd5b80516001600160a01b03811681146200025857600080fd5b919050565b600080604083850312156200027157600080fd5b82516001600160401b03808211156200028957600080fd5b818501915085601f8301126200029e57600080fd5b815181811115620002b357620002b36200022a565b604051601f8201601f19908116603f01168101908382118183101715620002de57620002de6200022a565b81604052828152602093508884848701011115620002fb57600080fd5b600091505b828210156200031f578482018401518183018501529083019062000300565b82821115620003315760008484830101525b95506200034391505085820162000240565b925050509250929050565b600181811c908216806200036357607f821691505b602082108114156200038557634e487b7160e01b600052602260045260246000fd5b50919050565b612ed7806200039b6000396000f3fe6080604052600436106102885760003560e01c806370a082311161015a578063a7027357116100c1578063c87b56dd1161007a578063c87b56dd14610819578063d547741f14610839578063d755bf9914610859578063e8a3d48514610879578063e985e9c51461088e578063f2fde38b146108ae57600080fd5b8063a70273571461075b578063ad94d90114610771578063b88d4fde14610791578063bba7723e146107b1578063c002d23d146107de578063c5e2a7db146107f957600080fd5b806395d89b411161011357806395d89b41146106b75780639b70a340146106e35780639f67756d146106fd578063a0712d6814610713578063a217fddf14610726578063a22cb4651461073b57600080fd5b806370a0823114610604578063715018a6146106245780637f51bb1f146106395780638da5cb5b146106595780638fffd8b51461067757806391d148541461069757600080fd5b80632a55205a116101fe57806342966c68116101b757806342966c68146105515780634a9eee691461057157806351cff8d91461058457806358a85bca146105a457806361d027b3146105c45780636352211e146105e457600080fd5b80632a55205a146104695780632f2ff15d146104a857806332cb6b0c146104c857806336568abe146104f157806340c10f191461051157806342842e0e1461053157600080fd5b80630f2cdd6c116102505780630f2cdd6c1461037e57806318160ddd146103a15780631e7269c5146103b657806323250cae146103e357806323b872dd14610419578063248a9ca31461043957600080fd5b806301ffc9a71461028d57806302fe5305146102c257806306fdde03146102e4578063081812fc14610326578063095ea7b31461035e575b600080fd5b34801561029957600080fd5b506102ad6102a83660046126a8565b6108ce565b60405190151581526020015b60405180910390f35b3480156102ce57600080fd5b506102e26102dd366004612772565b610914565b005b3480156102f057600080fd5b5060408051808201909152601081526f576520417265204361736820436f777360801b60208201525b6040516102b99190612813565b34801561033257600080fd5b50610346610341366004612826565b61093a565b6040516001600160a01b0390911681526020016102b9565b34801561036a57600080fd5b506102e2610379366004612854565b61097e565b34801561038a57600080fd5b50610393600981565b6040519081526020016102b9565b3480156103ad57600080fd5b50610393610a0e565b3480156103c257600080fd5b506103936103d1366004612880565b600f6020526000908152604090205481565b3480156103ef57600080fd5b506103466103fe366004612826565b6009602052600090815260409020546001600160a01b031681565b34801561042557600080fd5b506102e261043436600461289d565b610a2b565b34801561044557600080fd5b50610393610454366004612826565b60009081526002602052604090206001015490565b34801561047557600080fd5b506104896104843660046128de565b610a3c565b604080516001600160a01b0390931683526020830191909152016102b9565b3480156104b457600080fd5b506102e26104c3366004612900565b610ab3565b3480156104d457600080fd5b506104de611e6181565b60405161ffff90911681526020016102b9565b3480156104fd57600080fd5b506102e261050c366004612900565b610ad9565b34801561051d57600080fd5b506102e261052c366004612854565b610b58565b34801561053d57600080fd5b506102e261054c36600461289d565b610bf4565b34801561055d57600080fd5b506102e261056c366004612826565b610c0f565b6102e261057f366004612950565b610d24565b34801561059057600080fd5b506102e261059f366004612880565b610f9f565b3480156105b057600080fd5b506102e26105bf3660046129bf565b611058565b3480156105d057600080fd5b50600c54610346906001600160a01b031681565b3480156105f057600080fd5b506103466105ff366004612826565b611085565b34801561061057600080fd5b5061039361061f366004612880565b6110c4565b34801561063057600080fd5b506102e2611109565b34801561064557600080fd5b506102e2610654366004612880565b61113f565b34801561066557600080fd5b506001546001600160a01b0316610346565b34801561068357600080fd5b506102e2610692366004612826565b61117b565b3480156106a357600080fd5b506102ad6106b2366004612900565b6111cf565b3480156106c357600080fd5b506040805180820190915260038152624d4f4f60e81b6020820152610319565b3480156106ef57600080fd5b506010546102ad9060ff1681565b34801561070957600080fd5b50610393600d5481565b6102e2610721366004612826565b6111fa565b34801561073257600080fd5b50610393600081565b34801561074757600080fd5b506102e26107563660046129da565b61139f565b34801561076757600080fd5b5061039360115481565b34801561077d57600080fd5b506102ad61078c366004612a0f565b6113aa565b34801561079d57600080fd5b506102e26107ac366004612aca565b611417565b3480156107bd57600080fd5b506107d16107cc366004612880565b611423565b6040516102b99190612b1e565b3480156107ea57600080fd5b506103936611c37937e0800081565b34801561080557600080fd5b506102e2610814366004612880565b611526565b34801561082557600080fd5b50610319610834366004612826565b611562565b34801561084557600080fd5b506102e2610854366004612900565b6116ac565b34801561086557600080fd5b506102e2610874366004612826565b6116d2565b34801561088557600080fd5b506103196116f1565b34801561089a57600080fd5b506102ad6108a9366004612b62565b611783565b3480156108ba57600080fd5b506102e26108c9366004612880565b6117e6565b60006001600160e01b03198216635b5e139f60e01b14806108ff57506001600160e01b0319821663152a902d60e11b145b8061090e575061090e82611881565b92915050565b600080516020612e6283398151915261092d81336118a6565b6109368261190a565b5050565b60006109458261191d565b61096257604051634a1850bf60e11b815260040160405180910390fd5b506000908152600660205260409020546001600160a01b031690565b600061098982611946565b9050806001600160a01b0316836001600160a01b031614156109be5760405163250fdee360e21b815260040160405180910390fd5b336001600160a01b03821681148015906109df57506109dd8282611783565b155b156109fd5760405163250fdee360e21b815260040160405180910390fd5b610a08848484611a03565b50505050565b6000600a54610a1c60035490565b610a269190612ba6565b905090565b610a3733848484611a5f565b505050565b600c5460009081906001600160a01b03161580610a5f5750610a5d8461191d565b155b15610a7d5760405163574b16a760e11b815260040160405180910390fd5b600c54600d546001600160a01b039091169061271090610a9d9086612bbd565b610aa79190612bdc565b915091505b9250929050565b600082815260026020526040902060010154610acf81336118a6565b610a378383611a92565b6001600160a01b0381163314610b4e5760405162461bcd60e51b815260206004820152602f60248201527f416363657373436f6e74726f6c3a2063616e206f6e6c792072656e6f756e636560448201526e103937b632b9903337b91039b2b63360891b60648201526084015b60405180910390fd5b6109368282611b18565b7f9f2df0fed2c77648de5860a4cc508cd0818c85b8b8a1ab4ceeef8d981c8956a6610b8381336118a6565b60026000541415610ba65760405162461bcd60e51b8152600401610b4590612bfe565b6002600055611e6182610bb7610a0e565b610bc19190612c35565b1115610be05760405163574b16a760e11b815260040160405180910390fd5b610bea8383611b7f565b5050600160005550565b610a3783838360405180602001604052806000815250611417565b6000610c1a82611946565b9050610c27338383611b99565b610c445760405163574b16a760e11b815260040160405180910390fd5b610c5060008383611a03565b60018201610c5d8161191d565b8015610c7e57506000818152600460205260409020546001600160a01b0316155b15610cab57600081815260046020526040902080546001600160a01b0319166001600160a01b0384161790555b50600082815260096020908152604080832080546001600160a01b0386166001600160a01b0319918216811790925581855260058452828520805460001901905586855260049093528184208054909316909255600a805460010190555184929190600080516020612e82833981519152908390a45050565b60026000541415610d475760405162461bcd60e51b8152600401610b4590612bfe565b60026000553382841080610d7d57506001600160a01b0381166000908152600f60205260409020548490610d7b9087612c35565b115b80610d9b5750611e6185610d8f610a0e565b610d999190612c35565b115b80610e7a5750604051631b5a5b9d60e21b60208201526bffffffffffffffffffffffff19606083901b1660248201526038810185905260588101849052610e78907f9f2df0fed2c77648de5860a4cc508cd0818c85b8b8a1ab4ceeef8d981c8956a6906106b290610e7290607801604051602081830303815290604052805190602001206040517f19457468657265756d205369676e6564204d6573736167653a0a3332000000006020820152603c8101829052600090605c01604051602081830303815290604052805190602001209050919050565b85611bec565b155b15610e985760405163574b16a760e11b815260040160405180910390fd5b6001600160a01b0381166000908152600f6020526040902054831115610f2a576001600160a01b0381166000908152600f6020526040812054610edb9085612ba6565b90508581108015610f065750346611c37937e08000610efa8389612ba6565b610f049190612bbd565b115b15610f245760405163574b16a760e11b815260040160405180910390fd5b50610f5b565b34610f3c6611c37937e0800087612bbd565b1115610f5b5760405163574b16a760e11b815260040160405180910390fd5b6001600160a01b0381166000908152600f602052604081208054879290610f83908490612c35565b90915550610f9390508186611b7f565b50506001600055505050565b6001546001600160a01b03163314610fc95760405162461bcd60e51b8152600401610b4590612c4d565b60026000541415610fec5760405162461bcd60e51b8152600401610b4590612bfe565b6002600055600e546001600160a01b031661101a5760405163574b16a760e11b815260040160405180910390fd5b6040516001600160a01b038216904780156108fc02916000818181858888f1935050505015801561104f573d6000803e3d6000fd5b50506001600055565b600080516020612e6283398151915261107181336118a6565b506010805460ff1916911515919091179055565b6000818152600960205260408120546001600160a01b0316156110bb57604051634a1850bf60e11b815260040160405180910390fd5b61090e82611946565b60006001600160a01b0382166110ed576040516316285dcb60e11b815260040160405180910390fd5b506001600160a01b031660009081526005602052604090205490565b6001546001600160a01b031633146111335760405162461bcd60e51b8152600401610b4590612c4d565b61113d6000611c08565b565b600080516020612e6283398151915261115881336118a6565b50600c80546001600160a01b0319166001600160a01b0392909216919091179055565b7f3b5d4cc60d3ec3516ee8ae083bd60934f6eb2a6c54b1229985c41bfb092b26036111a681336118a6565b6103e88211156111c95760405163574b16a760e11b815260040160405180910390fd5b50600d55565b60009182526002602090815260408084206001600160a01b0393909316845291905290205460ff1690565b6002600054141561121d5760405162461bcd60e51b8152600401610b4590612bfe565b600260005533803b151580611235575060105460ff16155b8061126357506001600160a01b0381166000908152600f60205260409020546009906112619084612c35565b115b806112815750611e6182611275610a0e565b61127f9190612c35565b115b1561129f5760405163574b16a760e11b815260040160405180910390fd5b6011546001600160a01b0382166000908152600f60205260409020541015611336576001600160a01b0381166000908152600f60205260408120546011546112e79190612ba6565b905082811080156113125750346611c37937e080006113068386612ba6565b6113109190612bbd565b115b156113305760405163574b16a760e11b815260040160405180910390fd5b50611367565b346113486611c37937e0800084612bbd565b11156113675760405163574b16a760e11b815260040160405180910390fd5b6001600160a01b0381166000908152600f60205260408120805484929061138f908490612c35565b9091555061104f90508183611b7f565b610936338383611c5a565b6000805b825181101561140d576113d98382815181106113cc576113cc612c82565b6020026020010151611085565b6001600160a01b0316846001600160a01b0316146113fb57600091505061090e565b8061140581612c98565b9150506113ae565b5060019392505050565b610a0884848484611cfa565b60606000611430836110c4565b9050806114515760408051600080825260208201909252905b509392505050565b60008167ffffffffffffffff81111561146c5761146c6126c5565b604051908082528060200260200182016040528015611495578160200160208202803683370190505b50905060006114a2610a0e565b9050600060015b82811161151b576114b981611085565b6001600160a01b0316876001600160a01b03161415611509578084836114de81612c98565b9450815181106114f0576114f0612c82565b602002602001018181525050848214156115095761151b565b8061151381612c98565b9150506114a9565b509195945050505050565b600080516020612e6283398151915261153f81336118a6565b50600e80546001600160a01b0319166001600160a01b0392909216919091179055565b606061156d8261191d565b61158a5760405163574b16a760e11b815260040160405180910390fd5b600e546001600160a01b031661162c57600b80546115a790612cb3565b80601f01602080910402602001604051908101604052809291908181526020018280546115d390612cb3565b80156116205780601f106115f557610100808354040283529160200191611620565b820191906000526020600020905b81548152906001019060200180831161160357829003601f168201915b50505050509050919050565b600e5460405163c87b56dd60e01b8152600481018490526001600160a01b039091169063c87b56dd9060240160006040518083038186803b15801561167057600080fd5b505afa158015611684573d6000803e3d6000fd5b505050506040513d6000823e601f3d908101601f1916820160405261090e9190810190612cee565b6000828152600260205260409020600101546116c881336118a6565b610a378383611b18565b600080516020612e628339815191526116eb81336118a6565b50601155565b60606008805461170090612cb3565b80601f016020809104026020016040519081016040528092919081815260200182805461172c90612cb3565b80156117795780601f1061174e57610100808354040283529160200191611779565b820191906000526020600020905b81548152906001019060200180831161175c57829003601f168201915b5050505050905090565b60006117af7f4a0c3698e72495f6d49f6ef074f2b34cac5b153c817a7cc37789cccbb873cf5d836111cf565b806117df57506001600160a01b0380841660009081526007602090815260408083209386168352929052205460ff165b9392505050565b6001546001600160a01b031633146118105760405162461bcd60e51b8152600401610b4590612c4d565b6001600160a01b0381166118755760405162461bcd60e51b815260206004820152602660248201527f4f776e61626c653a206e6577206f776e657220697320746865207a65726f206160448201526564647265737360d01b6064820152608401610b45565b61187e81611c08565b50565b60006001600160e01b031982166380ac58cd60e01b148061090e575061090e82611d47565b6118b082826111cf565b610936576118c8816001600160a01b03166014611d7c565b6118d3836020611d7c565b6040516020016118e4929190612d65565b60408051601f198184030181529082905262461bcd60e51b8252610b4591600401612813565b80516109369060089060208401906125f9565b6000818152600960205260408120546001600160a01b031615801561090e575061090e82611f18565b60008181526004602052604081205482906001600160a01b031615611983576000908152600460205260409020546001600160a01b031692915050565b60008111801561199557506003548111155b156119e9575b60001901806119a9576119e9565b6000818152600460205260409020546001600160a01b0316156119e4576000908152600460205260409020546001600160a01b031692915050565b61199b565b50604051634a1850bf60e11b815260040160405180910390fd5b60008281526006602052604080822080546001600160a01b0319166001600160a01b0387811691821790925591518593918516917f8c5be1e5ebec7d5bd14f71427d1e84f3dd0314c0f7b2291e5b200ac8c7c3b92591a4505050565b611a6a848285611b99565b611a875760405163574b16a760e11b815260040160405180910390fd5b610a08838383611f2d565b611a9c82826111cf565b6109365760008281526002602090815260408083206001600160a01b03851684529091529020805460ff19166001179055611ad43390565b6001600160a01b0316816001600160a01b0316837f2f8788117e7eff1d82e926ec794901d17c78024a50270940304540a733656f0d60405160405180910390a45050565b611b2282826111cf565b156109365760008281526002602090815260408083206001600160a01b0385168085529252808320805460ff1916905551339285917ff6391f5c32d9c69d2a47ea670b442974b53935d1edc7fd64eb21e047a839171b9190a45050565b610936828260405180602001604052806000815250612065565b6000816001600160a01b0316846001600160a01b03161480611bd45750836001600160a01b0316611bc98461093a565b6001600160a01b0316145b80611be45750611be48285611783565b949350505050565b6000806000611bfb8585612072565b91509150611449816120df565b600180546001600160a01b038381166001600160a01b0319831681179093556040519116919082907f8be0079c531659141344cd1fd0a4f28419497f9722a3daafe3b4186f6b6457e090600090a35050565b816001600160a01b0316836001600160a01b03161415611c8d5760405163079f14e360e51b815260040160405180910390fd5b6001600160a01b03838116600081815260076020908152604080832094871680845294825291829020805460ff191686151590811790915591519182527f17307eab39ab6107e8899845ad3d59bd9653f200f220920489ca2b5937696c31910160405180910390a3505050565b611d0633858585611a5f565b6000836001600160a01b03163b118015611d295750611d278484848461229a565b155b15610a0857604051631f11849560e21b815260040160405180910390fd5b60006001600160e01b03198216637965db0b60e01b148061090e57506301ffc9a760e01b6001600160e01b031983161461090e565b60606000611d8b836002612bbd565b611d96906002612c35565b67ffffffffffffffff811115611dae57611dae6126c5565b6040519080825280601f01601f191660200182016040528015611dd8576020820181803683370190505b509050600360fc1b81600081518110611df357611df3612c82565b60200101906001600160f81b031916908160001a905350600f60fb1b81600181518110611e2257611e22612c82565b60200101906001600160f81b031916908160001a9053506000611e46846002612bbd565b611e51906001612c35565b90505b6001811115611ec9576f181899199a1a9b1b9c1cb0b131b232b360811b85600f1660108110611e8557611e85612c82565b1a60f81b828281518110611e9b57611e9b612c82565b60200101906001600160f81b031916908160001a90535060049490941c93611ec281612dda565b9050611e54565b5083156117df5760405162461bcd60e51b815260206004820181905260248201527f537472696e67733a20686578206c656e67746820696e73756666696369656e746044820152606401610b45565b6000808211801561090e575050600354101590565b6001600160a01b0382161580611f5d5750611f4781611946565b6001600160a01b0316836001600160a01b031614155b15611f7b5760405163574b16a760e11b815260040160405180910390fd5b611f8760008285611a03565b6001600160a01b03808316600081815260056020908152604080832080546001908101909155948816835280832080546000190190558583526004909152902080546001600160a01b031916909117905560035490820190811180159061200357506000818152600460205260409020546001600160a01b0316155b1561203057600081815260046020526040902080546001600160a01b0319166001600160a01b0386161790555b5080826001600160a01b0316846001600160a01b0316600080516020612e8283398151915260405160405180910390a4505050565b610a378383836001612391565b6000808251604114156120a95760208301516040840151606085015160001a61209d878285856124dd565b94509450505050610aac565b8251604014156120d357602083015160408401516120c88683836125ca565b935093505050610aac565b50600090506002610aac565b60008160048111156120f3576120f3612df1565b14156120fc5750565b600181600481111561211057612110612df1565b141561215e5760405162461bcd60e51b815260206004820152601860248201527f45434453413a20696e76616c6964207369676e617475726500000000000000006044820152606401610b45565b600281600481111561217257612172612df1565b14156121c05760405162461bcd60e51b815260206004820152601f60248201527f45434453413a20696e76616c6964207369676e6174757265206c656e677468006044820152606401610b45565b60038160048111156121d4576121d4612df1565b141561222d5760405162461bcd60e51b815260206004820152602260248201527f45434453413a20696e76616c6964207369676e6174757265202773272076616c604482015261756560f01b6064820152608401610b45565b600481600481111561224157612241612df1565b141561187e5760405162461bcd60e51b815260206004820152602260248201527f45434453413a20696e76616c6964207369676e6174757265202776272076616c604482015261756560f01b6064820152608401610b45565b604051630a85bd0160e11b81526000906001600160a01b0385169063150b7a02906122cf903390899088908890600401612e07565b602060405180830381600087803b1580156122e957600080fd5b505af1925050508015612319575060408051601f3d908101601f1916820190925261231691810190612e44565b60015b612374573d808015612347576040519150601f19603f3d011682016040523d82523d6000602084013e61234c565b606091505b50805161236c57604051630568cbab60e01b815260040160405180910390fd5b805181602001fd5b6001600160e01b031916630a85bd0160e11b149050949350505050565b8215806123a557506001600160a01b038416155b156123c35760405163574b16a760e11b815260040160405180910390fd5b600060035460016123d49190612c35565b905060038054850190556001600160a01b03851660008181526005602090815260408083208054890190558483526004909152902080546001600160a01b03191690911790558084810183801561243557506000876001600160a01b03163b115b156124a1575b60405182906001600160a01b03891690600090600080516020612e82833981519152908290a4612474600088848060010195508861229a565b61249157604051631f11849560e21b815260040160405180910390fd5b8082141561243b57505050610a08565b5b6040516001830192906001600160a01b03891690600090600080516020612e82833981519152908290a4808214156124a25750505050505050565b6000807f7fffffffffffffffffffffffffffffff5d576e7357a4501ddfe92f46681b20a083111561251457506000905060036125c1565b8460ff16601b1415801561252c57508460ff16601c14155b1561253d57506000905060046125c1565b6040805160008082526020820180845289905260ff881692820192909252606081018690526080810185905260019060a0016020604051602081039080840390855afa158015612591573d6000803e3d6000fd5b5050604051601f1901519150506001600160a01b0381166125ba576000600192509250506125c1565b9150600090505b94509492505050565b6000806001600160ff1b03831660ff84901c601b016125eb878288856124dd565b935093505050935093915050565b82805461260590612cb3565b90600052602060002090601f016020900481019282612627576000855561266d565b82601f1061264057805160ff191683800117855561266d565b8280016001018555821561266d579182015b8281111561266d578251825591602001919060010190612652565b5061267992915061267d565b5090565b5b80821115612679576000815560010161267e565b6001600160e01b03198116811461187e57600080fd5b6000602082840312156126ba57600080fd5b81356117df81612692565b634e487b7160e01b600052604160045260246000fd5b604051601f8201601f1916810167ffffffffffffffff81118282101715612704576127046126c5565b604052919050565b600067ffffffffffffffff821115612726576127266126c5565b50601f01601f191660200190565b60006127476127428461270c565b6126db565b905082815283838301111561275b57600080fd5b828260208301376000602084830101529392505050565b60006020828403121561278457600080fd5b813567ffffffffffffffff81111561279b57600080fd5b8201601f810184136127ac57600080fd5b611be484823560208401612734565b60005b838110156127d65781810151838201526020016127be565b83811115610a085750506000910152565b600081518084526127ff8160208601602086016127bb565b601f01601f19169290920160200192915050565b6020815260006117df60208301846127e7565b60006020828403121561283857600080fd5b5035919050565b6001600160a01b038116811461187e57600080fd5b6000806040838503121561286757600080fd5b82356128728161283f565b946020939093013593505050565b60006020828403121561289257600080fd5b81356117df8161283f565b6000806000606084860312156128b257600080fd5b83356128bd8161283f565b925060208401356128cd8161283f565b929592945050506040919091013590565b600080604083850312156128f157600080fd5b50508035926020909101359150565b6000806040838503121561291357600080fd5b8235915060208301356129258161283f565b809150509250929050565b600082601f83011261294157600080fd5b6117df83833560208501612734565b6000806000806080858703121561296657600080fd5b843593506020850135925060408501359150606085013567ffffffffffffffff81111561299257600080fd5b61299e87828801612930565b91505092959194509250565b803580151581146129ba57600080fd5b919050565b6000602082840312156129d157600080fd5b6117df826129aa565b600080604083850312156129ed57600080fd5b82356129f88161283f565b9150612a06602084016129aa565b90509250929050565b60008060408385031215612a2257600080fd5b8235612a2d8161283f565b915060208381013567ffffffffffffffff80821115612a4b57600080fd5b818601915086601f830112612a5f57600080fd5b813581811115612a7157612a716126c5565b8060051b9150612a828483016126db565b8181529183018401918481019089841115612a9c57600080fd5b938501935b83851015612aba57843582529385019390850190612aa1565b8096505050505050509250929050565b60008060008060808587031215612ae057600080fd5b8435612aeb8161283f565b93506020850135612afb8161283f565b925060408501359150606085013567ffffffffffffffff81111561299257600080fd5b6020808252825182820181905260009190848201906040850190845b81811015612b5657835183529284019291840191600101612b3a565b50909695505050505050565b60008060408385031215612b7557600080fd5b8235612b808161283f565b915060208301356129258161283f565b634e487b7160e01b600052601160045260246000fd5b600082821015612bb857612bb8612b90565b500390565b6000816000190483118215151615612bd757612bd7612b90565b500290565b600082612bf957634e487b7160e01b600052601260045260246000fd5b500490565b6020808252601f908201527f5265656e7472616e637947756172643a207265656e7472616e742063616c6c00604082015260600190565b60008219821115612c4857612c48612b90565b500190565b6020808252818101527f4f776e61626c653a2063616c6c6572206973206e6f7420746865206f776e6572604082015260600190565b634e487b7160e01b600052603260045260246000fd5b6000600019821415612cac57612cac612b90565b5060010190565b600181811c90821680612cc757607f821691505b60208210811415612ce857634e487b7160e01b600052602260045260246000fd5b50919050565b600060208284031215612d0057600080fd5b815167ffffffffffffffff811115612d1757600080fd5b8201601f81018413612d2857600080fd5b8051612d366127428261270c565b818152856020838501011115612d4b57600080fd5b612d5c8260208301602086016127bb565b95945050505050565b7f416363657373436f6e74726f6c3a206163636f756e7420000000000000000000815260008351612d9d8160178501602088016127bb565b7001034b99036b4b9b9b4b733903937b6329607d1b6017918401918201528351612dce8160288401602088016127bb565b01602801949350505050565b600081612de957612de9612b90565b506000190190565b634e487b7160e01b600052602160045260246000fd5b6001600160a01b0385811682528416602082015260408101839052608060608201819052600090612e3a908301846127e7565b9695505050505050565b600060208284031215612e5657600080fd5b81516117df8161269256fe850d585eb7f024ccee5e68e55f2c26cc72e1e6ee456acf62135757a5eb9d4a10ddf252ad1be2c89b69c2b068fc378daa952ba7f163c4a11628f55a4df523b3efa26469706673582212205270b87c494c0cb3b8f802e50addea104ec2f12484a7699cafec573a831362e064736f6c63430008090033",
  "linkReferences": {},
  "deployedLinkReferences": {}
}