{
  "_format": "hh-sol-artifact-1",
  "contractName": "CashCows",
  "sourceName": "contracts/CashCows.sol",
  "abi": [
    {
      "inputs": [
        {
          "internalType": "string",
          "name": "preview",
          "type": "string"
        },
        {
          "internalType": "address",
          "name": "admin",
          "type": "address"
        }
      ],
      "stateMutability": "nonpayable",
      "type": "constructor"
    },
    {
      "inputs": [],
      "name": "ApprovalOwnerIsOperator",
      "type": "error"
    },
    {
      "inputs": [],
      "name": "ApprovalToCurrentOwner",
      "type": "error"
    },
    {
      "inputs": [],
      "name": "BalanceQueryZeroAddress",
      "type": "error"
    },
    {
      "inputs": [],
      "name": "ERC721ReceiverNotReceived",
      "type": "error"
    },
    {
      "inputs": [],
      "name": "InvalidCall",
      "type": "error"
    },
    {
      "inputs": [],
      "name": "NonExistentToken",
      "type": "error"
    },
    {
      "inputs": [],
      "name": "NotERC721Receiver",
      "type": "error"
    },
    {
      "anonymous": false,
      "inputs": [
        {
          "indexed": true,
          "internalType": "address",
          "name": "owner",
          "type": "address"
        },
        {
          "indexed": true,
          "internalType": "address",
          "name": "approved",
          "type": "address"
        },
        {
          "indexed": true,
          "internalType": "uint256",
          "name": "tokenId",
          "type": "uint256"
        }
      ],
      "name": "Approval",
      "type": "event"
    },
    {
      "anonymous": false,
      "inputs": [
        {
          "indexed": true,
          "internalType": "address",
          "name": "owner",
          "type": "address"
        },
        {
          "indexed": true,
          "internalType": "address",
          "name": "operator",
          "type": "address"
        },
        {
          "indexed": false,
          "internalType": "bool",
          "name": "approved",
          "type": "bool"
        }
      ],
      "name": "ApprovalForAll",
      "type": "event"
    },
    {
      "anonymous": false,
      "inputs": [
        {
          "indexed": true,
          "internalType": "address",
          "name": "previousOwner",
          "type": "address"
        },
        {
          "indexed": true,
          "internalType": "address",
          "name": "newOwner",
          "type": "address"
        }
      ],
      "name": "OwnershipTransferred",
      "type": "event"
    },
    {
      "anonymous": false,
      "inputs": [
        {
          "indexed": true,
          "internalType": "bytes32",
          "name": "role",
          "type": "bytes32"
        },
        {
          "indexed": true,
          "internalType": "bytes32",
          "name": "previousAdminRole",
          "type": "bytes32"
        },
        {
          "indexed": true,
          "internalType": "bytes32",
          "name": "newAdminRole",
          "type": "bytes32"
        }
      ],
      "name": "RoleAdminChanged",
      "type": "event"
    },
    {
      "anonymous": false,
      "inputs": [
        {
          "indexed": true,
          "internalType": "bytes32",
          "name": "role",
          "type": "bytes32"
        },
        {
          "indexed": true,
          "internalType": "address",
          "name": "account",
          "type": "address"
        },
        {
          "indexed": true,
          "internalType": "address",
          "name": "sender",
          "type": "address"
        }
      ],
      "name": "RoleGranted",
      "type": "event"
    },
    {
      "anonymous": false,
      "inputs": [
        {
          "indexed": true,
          "internalType": "bytes32",
          "name": "role",
          "type": "bytes32"
        },
        {
          "indexed": true,
          "internalType": "address",
          "name": "account",
          "type": "address"
        },
        {
          "indexed": true,
          "internalType": "address",
          "name": "sender",
          "type": "address"
        }
      ],
      "name": "RoleRevoked",
      "type": "event"
    },
    {
      "anonymous": false,
      "inputs": [
        {
          "indexed": true,
          "internalType": "address",
          "name": "from",
          "type": "address"
        },
        {
          "indexed": true,
          "internalType": "address",
          "name": "to",
          "type": "address"
        },
        {
          "indexed": true,
          "internalType": "uint256",
          "name": "tokenId",
          "type": "uint256"
        }
      ],
      "name": "Transfer",
      "type": "event"
    },
    {
      "inputs": [],
      "name": "DEFAULT_ADMIN_ROLE",
      "outputs": [
        {
          "internalType": "bytes32",
          "name": "",
          "type": "bytes32"
        }
      ],
      "stateMutability": "view",
      "type": "function"
    },
    {
      "inputs": [],
      "name": "MAX_FREE_PER_WALLET",
      "outputs": [
        {
          "internalType": "uint256",
          "name": "",
          "type": "uint256"
        }
      ],
      "stateMutability": "view",
      "type": "function"
    },
    {
      "inputs": [],
      "name": "MAX_PER_WALLET",
      "outputs": [
        {
          "internalType": "uint256",
          "name": "",
          "type": "uint256"
        }
      ],
      "stateMutability": "view",
      "type": "function"
    },
    {
      "inputs": [],
      "name": "MAX_SUPPLY",
      "outputs": [
        {
          "internalType": "uint16",
          "name": "",
          "type": "uint16"
        }
      ],
      "stateMutability": "view",
      "type": "function"
    },
    {
      "inputs": [],
      "name": "MINT_PRICE",
      "outputs": [
        {
          "internalType": "uint256",
          "name": "",
          "type": "uint256"
        }
      ],
      "stateMutability": "view",
      "type": "function"
    },
    {
      "inputs": [],
      "name": "ROYALTY_FOR_ALL",
      "outputs": [
        {
          "internalType": "uint256",
          "name": "",
          "type": "uint256"
        }
      ],
      "stateMutability": "view",
      "type": "function"
    },
    {
      "inputs": [],
      "name": "TREASURY",
      "outputs": [
        {
          "internalType": "address",
          "name": "",
          "type": "address"
        }
      ],
      "stateMutability": "view",
      "type": "function"
    },
    {
      "inputs": [
        {
          "internalType": "address",
          "name": "to",
          "type": "address"
        },
        {
          "internalType": "uint256",
          "name": "tokenId",
          "type": "uint256"
        }
      ],
      "name": "approve",
      "outputs": [],
      "stateMutability": "nonpayable",
      "type": "function"
    },
    {
      "inputs": [
        {
          "internalType": "address",
          "name": "owner",
          "type": "address"
        }
      ],
      "name": "balanceOf",
      "outputs": [
        {
          "internalType": "uint256",
          "name": "",
          "type": "uint256"
        }
      ],
      "stateMutability": "view",
      "type": "function"
    },
    {
      "inputs": [],
      "name": "contractURI",
      "outputs": [
        {
          "internalType": "string",
          "name": "",
          "type": "string"
        }
      ],
      "stateMutability": "view",
      "type": "function"
    },
    {
      "inputs": [
        {
          "internalType": "uint256",
          "name": "tokenId",
          "type": "uint256"
        }
      ],
      "name": "getApproved",
      "outputs": [
        {
          "internalType": "address",
          "name": "",
          "type": "address"
        }
      ],
      "stateMutability": "view",
      "type": "function"
    },
    {
      "inputs": [
        {
          "internalType": "bytes32",
          "name": "role",
          "type": "bytes32"
        }
      ],
      "name": "getRoleAdmin",
      "outputs": [
        {
          "internalType": "bytes32",
          "name": "",
          "type": "bytes32"
        }
      ],
      "stateMutability": "view",
      "type": "function"
    },
    {
      "inputs": [
        {
          "internalType": "bytes32",
          "name": "role",
          "type": "bytes32"
        },
        {
          "internalType": "address",
          "name": "account",
          "type": "address"
        }
      ],
      "name": "grantRole",
      "outputs": [],
      "stateMutability": "nonpayable",
      "type": "function"
    },
    {
      "inputs": [
        {
          "internalType": "bytes32",
          "name": "role",
          "type": "bytes32"
        },
        {
          "internalType": "address",
          "name": "account",
          "type": "address"
        }
      ],
      "name": "hasRole",
      "outputs": [
        {
          "internalType": "bool",
          "name": "",
          "type": "bool"
        }
      ],
      "stateMutability": "view",
      "type": "function"
    },
    {
      "inputs": [
        {
          "internalType": "address",
          "name": "owner",
          "type": "address"
        },
        {
          "internalType": "address",
          "name": "operator",
          "type": "address"
        }
      ],
      "name": "isApprovedForAll",
      "outputs": [
        {
          "internalType": "bool",
          "name": "",
          "type": "bool"
        }
      ],
      "stateMutability": "view",
      "type": "function"
    },
    {
      "inputs": [
        {
          "internalType": "address",
          "name": "recipient",
          "type": "address"
        },
        {
          "internalType": "uint256",
          "name": "quantity",
          "type": "uint256"
        }
      ],
      "name": "mint",
      "outputs": [],
      "stateMutability": "nonpayable",
      "type": "function"
    },
    {
      "inputs": [
        {
          "internalType": "uint256",
          "name": "quantity",
          "type": "uint256"
        },
        {
          "internalType": "uint256",
          "name": "maxMint",
          "type": "uint256"
        },
        {
          "internalType": "uint256",
          "name": "maxFree",
          "type": "uint256"
        },
        {
          "internalType": "bytes",
          "name": "proof",
          "type": "bytes"
        }
      ],
      "name": "mint",
      "outputs": [],
      "stateMutability": "payable",
      "type": "function"
    },
    {
      "inputs": [
        {
          "internalType": "uint256",
          "name": "quantity",
          "type": "uint256"
        }
      ],
      "name": "mint",
      "outputs": [],
      "stateMutability": "payable",
      "type": "function"
    },
    {
      "inputs": [
        {
          "internalType": "address",
          "name": "",
          "type": "address"
        }
      ],
      "name": "minted",
      "outputs": [
        {
          "internalType": "uint256",
          "name": "",
          "type": "uint256"
        }
      ],
      "stateMutability": "view",
      "type": "function"
    },
    {
      "inputs": [],
      "name": "name",
      "outputs": [
        {
          "internalType": "string",
          "name": "",
          "type": "string"
        }
      ],
      "stateMutability": "pure",
      "type": "function"
    },
    {
      "inputs": [],
      "name": "owner",
      "outputs": [
        {
          "internalType": "address",
          "name": "",
          "type": "address"
        }
      ],
      "stateMutability": "view",
      "type": "function"
    },
    {
      "inputs": [
        {
          "internalType": "uint256",
          "name": "tokenId",
          "type": "uint256"
        }
      ],
      "name": "ownerOf",
      "outputs": [
        {
          "internalType": "address",
          "name": "",
          "type": "address"
        }
      ],
      "stateMutability": "view",
      "type": "function"
    },
    {
      "inputs": [
        {
          "internalType": "address",
          "name": "owner",
          "type": "address"
        }
      ],
      "name": "ownerTokens",
      "outputs": [
        {
          "internalType": "uint256[]",
          "name": "",
          "type": "uint256[]"
        }
      ],
      "stateMutability": "view",
      "type": "function"
    },
    {
      "inputs": [
        {
          "internalType": "address",
          "name": "owner",
          "type": "address"
        },
        {
          "internalType": "uint256[]",
          "name": "tokenIds",
          "type": "uint256[]"
        }
      ],
      "name": "ownsAll",
      "outputs": [
        {
          "internalType": "bool",
          "name": "",
          "type": "bool"
        }
      ],
      "stateMutability": "view",
      "type": "function"
    },
    {
      "inputs": [],
      "name": "renounceOwnership",
      "outputs": [],
      "stateMutability": "nonpayable",
      "type": "function"
    },
    {
      "inputs": [
        {
          "internalType": "bytes32",
          "name": "role",
          "type": "bytes32"
        },
        {
          "internalType": "address",
          "name": "account",
          "type": "address"
        }
      ],
      "name": "renounceRole",
      "outputs": [],
      "stateMutability": "nonpayable",
      "type": "function"
    },
    {
      "inputs": [
        {
          "internalType": "bytes32",
          "name": "role",
          "type": "bytes32"
        },
        {
          "internalType": "address",
          "name": "account",
          "type": "address"
        }
      ],
      "name": "revokeRole",
      "outputs": [],
      "stateMutability": "nonpayable",
      "type": "function"
    },
    {
      "inputs": [
        {
          "internalType": "uint256",
          "name": "_tokenId",
          "type": "uint256"
        },
        {
          "internalType": "uint256",
          "name": "_salePrice",
          "type": "uint256"
        }
      ],
      "name": "royaltyInfo",
      "outputs": [
        {
          "internalType": "address",
          "name": "receiver",
          "type": "address"
        },
        {
          "internalType": "uint256",
          "name": "royaltyAmount",
          "type": "uint256"
        }
      ],
      "stateMutability": "view",
      "type": "function"
    },
    {
      "inputs": [
        {
          "internalType": "address",
          "name": "from",
          "type": "address"
        },
        {
          "internalType": "address",
          "name": "to",
          "type": "address"
        },
        {
          "internalType": "uint256",
          "name": "tokenId",
          "type": "uint256"
        }
      ],
      "name": "safeTransferFrom",
      "outputs": [],
      "stateMutability": "nonpayable",
      "type": "function"
    },
    {
      "inputs": [
        {
          "internalType": "address",
          "name": "from",
          "type": "address"
        },
        {
          "internalType": "address",
          "name": "to",
          "type": "address"
        },
        {
          "internalType": "uint256",
          "name": "tokenId",
          "type": "uint256"
        },
        {
          "internalType": "bytes",
          "name": "_data",
          "type": "bytes"
        }
      ],
      "name": "safeTransferFrom",
      "outputs": [],
      "stateMutability": "nonpayable",
      "type": "function"
    },
    {
      "inputs": [],
      "name": "saleStarted",
      "outputs": [
        {
          "internalType": "bool",
          "name": "",
          "type": "bool"
        }
      ],
      "stateMutability": "view",
      "type": "function"
    },
    {
      "inputs": [
        {
          "internalType": "address",
          "name": "operator",
          "type": "address"
        },
        {
          "internalType": "bool",
          "name": "approved",
          "type": "bool"
        }
      ],
      "name": "setApprovalForAll",
      "outputs": [],
      "stateMutability": "nonpayable",
      "type": "function"
    },
    {
      "inputs": [
        {
          "internalType": "string",
          "name": "uri",
          "type": "string"
        }
      ],
      "name": "setBaseURI",
      "outputs": [],
      "stateMutability": "nonpayable",
      "type": "function"
    },
    {
      "inputs": [
        {
          "internalType": "string",
          "name": "uri",
          "type": "string"
        }
      ],
      "name": "setURI",
      "outputs": [],
      "stateMutability": "nonpayable",
      "type": "function"
    },
    {
      "inputs": [
        {
          "internalType": "bool",
          "name": "yes",
          "type": "bool"
        }
      ],
      "name": "startSale",
      "outputs": [],
      "stateMutability": "nonpayable",
      "type": "function"
    },
    {
      "inputs": [
        {
          "internalType": "bytes4",
          "name": "interfaceId",
          "type": "bytes4"
        }
      ],
      "name": "supportsInterface",
      "outputs": [
        {
          "internalType": "bool",
          "name": "",
          "type": "bool"
        }
      ],
      "stateMutability": "view",
      "type": "function"
    },
    {
      "inputs": [],
      "name": "symbol",
      "outputs": [
        {
          "internalType": "string",
          "name": "",
          "type": "string"
        }
      ],
      "stateMutability": "pure",
      "type": "function"
    },
    {
      "inputs": [
        {
          "internalType": "uint256",
          "name": "tokenId",
          "type": "uint256"
        }
      ],
      "name": "tokenURI",
      "outputs": [
        {
          "internalType": "string",
          "name": "",
          "type": "string"
        }
      ],
      "stateMutability": "view",
      "type": "function"
    },
    {
      "inputs": [],
      "name": "totalSupply",
      "outputs": [
        {
          "internalType": "uint256",
          "name": "",
          "type": "uint256"
        }
      ],
      "stateMutability": "view",
      "type": "function"
    },
    {
      "inputs": [
        {
          "internalType": "address",
          "name": "from",
          "type": "address"
        },
        {
          "internalType": "address",
          "name": "to",
          "type": "address"
        },
        {
          "internalType": "uint256",
          "name": "tokenId",
          "type": "uint256"
        }
      ],
      "name": "transferFrom",
      "outputs": [],
      "stateMutability": "nonpayable",
      "type": "function"
    },
    {
      "inputs": [
        {
          "internalType": "address",
          "name": "newOwner",
          "type": "address"
        }
      ],
      "name": "transferOwnership",
      "outputs": [],
      "stateMutability": "nonpayable",
      "type": "function"
    },
    {
      "inputs": [
        {
          "internalType": "uint256",
          "name": "percent",
          "type": "uint256"
        }
      ],
      "name": "updateRoyalty",
      "outputs": [],
      "stateMutability": "nonpayable",
      "type": "function"
    },
    {
      "inputs": [
        {
          "internalType": "address",
          "name": "treasury",
          "type": "address"
        }
      ],
      "name": "updateTreasury",
      "outputs": [],
      "stateMutability": "nonpayable",
      "type": "function"
    },
    {
      "inputs": [
        {
          "internalType": "address",
          "name": "recipient",
          "type": "address"
        }
      ],
      "name": "withdraw",
      "outputs": [],
      "stateMutability": "nonpayable",
      "type": "function"
    }
  ],
  "bytecode": "0x60806040526103e86008553480156200001757600080fd5b50604051620030f7380380620030f78339810160408190526200003a9162000236565b620000453362000075565b600160025562000057600082620000c5565b81516200006c9060099060208501906200015d565b50505062000364565b600080546001600160a01b038381166001600160a01b0319831681178455604051919092169283917f8be0079c531659141344cd1fd0a4f28419497f9722a3daafe3b4186f6b6457e09190a35050565b620000d18282620000d5565b5050565b60008281526001602090815260408083206001600160a01b038516845290915290205460ff16620000d15760008281526001602081815260408084206001600160a01b0386168086529252808420805460ff19169093179092559051339285917f2f8788117e7eff1d82e926ec794901d17c78024a50270940304540a733656f0d9190a45050565b8280546200016b9062000327565b90600052602060002090601f0160209004810192826200018f5760008555620001da565b82601f10620001aa57805160ff1916838001178555620001da565b82800160010185558215620001da579182015b82811115620001da578251825591602001919060010190620001bd565b50620001e8929150620001ec565b5090565b5b80821115620001e85760008155600101620001ed565b634e487b7160e01b600052604160045260246000fd5b80516001600160a01b03811681146200023157600080fd5b919050565b600080604083850312156200024a57600080fd5b82516001600160401b03808211156200026257600080fd5b818501915085601f8301126200027757600080fd5b8151818111156200028c576200028c62000203565b604051601f8201601f19908116603f01168101908382118183101715620002b757620002b762000203565b81604052828152602093508884848701011115620002d457600080fd5b600091505b82821015620002f85784820184015181830185015290830190620002d9565b828211156200030a5760008484830101525b95506200031c91505085820162000219565b925050509250929050565b600181811c908216806200033c57607f821691505b602082108114156200035e57634e487b7160e01b600052602260045260246000fd5b50919050565b612d8380620003746000396000f3fe6080604052600436106102675760003560e01c80636352211e11610144578063a217fddf116100b6578063c002d23d1161007a578063c002d23d14610780578063c87b56dd1461079b578063d547741f146107bb578063e8a3d485146107db578063e985e9c5146107f0578063f2fde38b1461081057600080fd5b8063a217fddf146106de578063a22cb465146106f3578063ad94d90114610713578063b88d4fde14610733578063bba7723e1461075357600080fd5b80638fffd8b5116101085780638fffd8b51461062a57806391d148541461064a57806395d89b411461066a57806398710d1e146106965780639c4c557c146106ab578063a0712d68146106cb57600080fd5b80636352211e1461059757806370a08231146105b7578063715018a6146105d75780637f51bb1f146105ec5780638da5cb5b1461060c57600080fd5b80632d2c5565116101dd57806340c10f19116101a157806340c10f19146104ea57806342842e0e1461050a5780634a9eee691461052a57806351cff8d91461053d57806355f804b31461055d5780635c474f9e1461057d57600080fd5b80632d2c55651461044b5780632f2ff15d1461046b57806332cb6b0c1461048b57806332dc2b2f146104b457806336568abe146104ca57600080fd5b80630f2cdd6c1161022f5780630f2cdd6c1461035657806318160ddd146103795780631e7269c51461038e57806323b872dd146103bb578063248a9ca3146103db5780632a55205a1461040c57600080fd5b806301ffc9a71461026c57806302fe5305146102a157806306fdde03146102c3578063081812fc146102fe578063095ea7b314610336575b600080fd5b34801561027857600080fd5b5061028c610287366004612526565b610830565b60405190151581526020015b60405180910390f35b3480156102ad57600080fd5b506102c16102bc3660046125e2565b610876565b005b3480156102cf57600080fd5b506040805180820190915260098152684361736820436f777360b81b60208201525b6040516102989190612683565b34801561030a57600080fd5b5061031e610319366004612696565b6108a7565b6040516001600160a01b039091168152602001610298565b34801561034257600080fd5b506102c16103513660046126cb565b6108eb565b34801561036257600080fd5b5061036b600a81565b604051908152602001610298565b34801561038557600080fd5b5060035461036b565b34801561039a57600080fd5b5061036b6103a93660046126f5565b600b6020526000908152604090205481565b3480156103c757600080fd5b506102c16103d6366004612710565b61097b565b3480156103e757600080fd5b5061036b6103f6366004612696565b6000908152600160208190526040909120015490565b34801561041857600080fd5b5061042c61042736600461274c565b610987565b604080516001600160a01b039093168352602083019190915201610298565b34801561045757600080fd5b50600e5461031e906001600160a01b031681565b34801561047757600080fd5b506102c161048636600461276e565b6109fe565b34801561049757600080fd5b506104a1611e6181565b60405161ffff9091168152602001610298565b3480156104c057600080fd5b5061036b60085481565b3480156104d657600080fd5b506102c16104e536600461276e565b610a25565b3480156104f657600080fd5b506102c16105053660046126cb565b610aa8565b34801561051657600080fd5b506102c1610525366004612710565b610b4c565b6102c16105383660046127ba565b610b67565b34801561054957600080fd5b506102c16105583660046126f5565b610dea565b34801561056957600080fd5b506102c16105783660046125e2565b610ea6565b34801561058957600080fd5b50600c5461028c9060ff1681565b3480156105a357600080fd5b5061031e6105b2366004612696565b610ed2565b3480156105c357600080fd5b5061036b6105d23660046126f5565b610f8f565b3480156105e357600080fd5b506102c1610fd4565b3480156105f857600080fd5b506102c16106073660046126f5565b61100a565b34801561061857600080fd5b506000546001600160a01b031661031e565b34801561063657600080fd5b506102c1610645366004612696565b611046565b34801561065657600080fd5b5061028c61066536600461276e565b61109a565b34801561067657600080fd5b506040805180820190915260038152624d4f4f60e81b60208201526102f1565b3480156106a257600080fd5b5061036b600381565b3480156106b757600080fd5b506102c16106c6366004612824565b6110c5565b6102c16106d9366004612696565b6110f2565b3480156106ea57600080fd5b5061036b600081565b3480156106ff57600080fd5b506102c161070e36600461283f565b61129c565b34801561071f57600080fd5b5061028c61072e366004612869565b6112a7565b34801561073f57600080fd5b506102c161074e366004612922565b611314565b34801561075f57600080fd5b5061077361076e3660046126f5565b611320565b6040516102989190612972565b34801561078c57600080fd5b5061036b6611c37937e0800081565b3480156107a757600080fd5b506102f16107b6366004612696565b611424565b3480156107c757600080fd5b506102c16107d636600461276e565b611523565b3480156107e757600080fd5b506102f161154a565b3480156107fc57600080fd5b5061028c61080b3660046129b6565b6115dc565b34801561081c57600080fd5b506102c161082b3660046126f5565b611646565b60006001600160e01b03198216635b5e139f60e01b148061086157506001600160e01b0319821663152a902d60e11b145b806108705750610870826116e1565b92915050565b600080516020612d2e83398151915261088f8133611706565b81516108a290600a906020850190612477565b505050565b60006108b28261176a565b6108cf57604051634a1850bf60e11b815260040160405180910390fd5b506000908152600660205260409020546001600160a01b031690565b60006108f682610ed2565b9050806001600160a01b0316836001600160a01b0316141561092b5760405163250fdee360e21b815260040160405180910390fd5b336001600160a01b038216811480159061094c575061094a82826115dc565b155b1561096a5760405163250fdee360e21b815260040160405180910390fd5b61097584848461177f565b50505050565b6108a2338484846117db565b600e5460009081906001600160a01b031615806109aa57506109a88461176a565b155b156109c85760405163574b16a760e11b815260040160405180910390fd5b600e546008546001600160a01b0390911690612710906109e890866129f6565b6109f29190612a2b565b915091505b9250929050565b60008281526001602081905260409091200154610a1b8133611706565b6108a2838361180e565b6001600160a01b0381163314610a9a5760405162461bcd60e51b815260206004820152602f60248201527f416363657373436f6e74726f6c3a2063616e206f6e6c792072656e6f756e636560448201526e103937b632b9903337b91039b2b63360891b60648201526084015b60405180910390fd5b610aa48282611879565b5050565b7f9f2df0fed2c77648de5860a4cc508cd0818c85b8b8a1ab4ceeef8d981c8956a6610ad38133611706565b600280541415610af55760405162461bcd60e51b8152600401610a9190612a3f565b60028055811580610b1a5750611e6182610b0e60035490565b610b189190612a76565b115b15610b385760405163574b16a760e11b815260040160405180910390fd5b610b4283836118e0565b5050600160025550565b6108a283838360405180602001604052806000815250611314565b600280541415610b895760405162461bcd60e51b8152600401610a9190612a3f565b6002805533841580610b9a57508284105b80610bc757506001600160a01b0381166000908152600b60205260409020548490610bc59087612a76565b115b80610be65750611e6185610bda60035490565b610be49190612a76565b115b80610cc55750604051631b5a5b9d60e21b60208201526bffffffffffffffffffffffff19606083901b1660248201526038810185905260588101849052610cc3907f9f2df0fed2c77648de5860a4cc508cd0818c85b8b8a1ab4ceeef8d981c8956a69061066590610cbd90607801604051602081830303815290604052805190602001206040517f19457468657265756d205369676e6564204d6573736167653a0a3332000000006020820152603c8101829052600090605c01604051602081830303815290604052805190602001209050919050565b856118fa565b155b15610ce35760405163574b16a760e11b815260040160405180910390fd5b6001600160a01b0381166000908152600b6020526040902054831115610d75576001600160a01b0381166000908152600b6020526040812054610d269085612a8e565b90508581108015610d515750346611c37937e08000610d458389612a8e565b610d4f91906129f6565b115b15610d6f5760405163574b16a760e11b815260040160405180910390fd5b50610da6565b34610d876611c37937e08000876129f6565b1115610da65760405163574b16a760e11b815260040160405180910390fd5b6001600160a01b0381166000908152600b602052604081208054879290610dce908490612a76565b90915550610dde905081866118e0565b50506001600255505050565b6000546001600160a01b03163314610e145760405162461bcd60e51b8152600401610a9190612aa5565b600280541415610e365760405162461bcd60e51b8152600401610a9190612a3f565b60028055600d8054610e4790612ada565b15159050610e685760405163574b16a760e11b815260040160405180910390fd5b6040516001600160a01b038216904780156108fc02916000818181858888f19350505050158015610e9d573d6000803e3d6000fd5b50506001600255565b600080516020612d2e833981519152610ebf8133611706565b81516108a290600d906020850190612477565b60008181526004602052604081205482906001600160a01b031615610f0f576000908152600460205260409020546001600160a01b031692915050565b600081118015610f2157506003548111155b15610f75575b6000190180610f3557610f75565b6000818152600460205260409020546001600160a01b031615610f70576000908152600460205260409020546001600160a01b031692915050565b610f27565b50604051634a1850bf60e11b815260040160405180910390fd5b60006001600160a01b038216610fb8576040516316285dcb60e11b815260040160405180910390fd5b506001600160a01b031660009081526005602052604090205490565b6000546001600160a01b03163314610ffe5760405162461bcd60e51b8152600401610a9190612aa5565b6110086000611916565b565b600080516020612d2e8339815191526110238133611706565b50600e80546001600160a01b0319166001600160a01b0392909216919091179055565b7f3b5d4cc60d3ec3516ee8ae083bd60934f6eb2a6c54b1229985c41bfb092b26036110718133611706565b6103e88211156110945760405163574b16a760e11b815260040160405180910390fd5b50600855565b60009182526001602090815260408084206001600160a01b0393909316845291905290205460ff1690565b600080516020612d2e8339815191526110de8133611706565b50600c805460ff1916911515919091179055565b6002805414156111145760405162461bcd60e51b8152600401610a9190612a3f565b6002805533803b15158061112b5750600c5460ff16155b80611134575081155b8061116257506001600160a01b0381166000908152600b6020526040902054600a906111609084612a76565b115b806111815750611e618261117560035490565b61117f9190612a76565b115b1561119f5760405163574b16a760e11b815260040160405180910390fd5b6001600160a01b0381166000908152600b602052604090205460031115611233576001600160a01b0381166000908152600b60205260408120546111e4906003612a8e565b9050828110801561120f5750346611c37937e080006112038386612a8e565b61120d91906129f6565b115b1561122d5760405163574b16a760e11b815260040160405180910390fd5b50611264565b346112456611c37937e08000846129f6565b11156112645760405163574b16a760e11b815260040160405180910390fd5b6001600160a01b0381166000908152600b60205260408120805484929061128c908490612a76565b90915550610e9d905081836118e0565b610aa4338383611966565b6000805b825181101561130a576112d68382815181106112c9576112c9612b15565b6020026020010151610ed2565b6001600160a01b0316846001600160a01b0316146112f8576000915050610870565b8061130281612b2b565b9150506112ab565b5060019392505050565b61097584848484611a06565b6060600061132d83610f8f565b90508061134e5760408051600080825260208201909252905b509392505050565b60008167ffffffffffffffff81111561136957611369612543565b604051908082528060200260200182016040528015611392578160200160208202803683370190505b50905060006113a060035490565b9050600060015b828111611419576113b781610ed2565b6001600160a01b0316876001600160a01b03161415611407578084836113dc81612b2b565b9450815181106113ee576113ee612b15565b6020026020010181815250508482141561140757611419565b8061141181612b2b565b9150506113a7565b509195945050505050565b606061142f8261176a565b61144c5760405163574b16a760e11b815260040160405180910390fd5b6000600d805461145b90612ada565b9050116114f2576009805461146f90612ada565b80601f016020809104026020016040519081016040528092919081815260200182805461149b90612ada565b80156114e85780601f106114bd576101008083540402835291602001916114e8565b820191906000526020600020905b8154815290600101906020018083116114cb57829003601f168201915b5050505050610870565b600d6114fd83611a53565b60405160200161150e929190612b62565b60405160208183030381529060405292915050565b600082815260016020819052604090912001546115408133611706565b6108a28383611879565b6060600a805461155990612ada565b80601f016020809104026020016040519081016040528092919081815260200182805461158590612ada565b80156115d25780601f106115a7576101008083540402835291602001916115d2565b820191906000526020600020905b8154815290600101906020018083116115b557829003601f168201915b5050505050905090565b60006116087f4a0c3698e72495f6d49f6ef074f2b34cac5b153c817a7cc37789cccbb873cf5d8361109a565b1561161557506001610870565b6001600160a01b0380841660009081526007602090815260408083209386168352929052205460ff165b9392505050565b6000546001600160a01b031633146116705760405162461bcd60e51b8152600401610a9190612aa5565b6001600160a01b0381166116d55760405162461bcd60e51b815260206004820152602660248201527f4f776e61626c653a206e6577206f776e657220697320746865207a65726f206160448201526564647265737360d01b6064820152608401610a91565b6116de81611916565b50565b60006001600160e01b031982166380ac58cd60e01b1480610870575061087082611b59565b611710828261109a565b610aa457611728816001600160a01b03166014611b8e565b611733836020611b8e565b604051602001611744929190612c1d565b60408051601f198184030181529082905262461bcd60e51b8252610a9191600401612683565b60008082118015610870575050600354101590565b60008281526006602052604080822080546001600160a01b0319166001600160a01b0387811691821790925591518593918516917f8c5be1e5ebec7d5bd14f71427d1e84f3dd0314c0f7b2291e5b200ac8c7c3b92591a4505050565b6117e6848285611d2a565b6118035760405163574b16a760e11b815260040160405180910390fd5b610975838383611d75565b611818828261109a565b610aa45760008281526001602081815260408084206001600160a01b0386168086529252808420805460ff19169093179092559051339285917f2f8788117e7eff1d82e926ec794901d17c78024a50270940304540a733656f0d9190a45050565b611883828261109a565b15610aa45760008281526001602090815260408083206001600160a01b0385168085529252808320805460ff1916905551339285917ff6391f5c32d9c69d2a47ea670b442974b53935d1edc7fd64eb21e047a839171b9190a45050565b610aa4828260405180602001604052806000815250611ebf565b60008060006119098585611ecc565b9150915061134681611f39565b600080546001600160a01b038381166001600160a01b0319831681178455604051919092169283917f8be0079c531659141344cd1fd0a4f28419497f9722a3daafe3b4186f6b6457e09190a35050565b816001600160a01b0316836001600160a01b031614156119995760405163079f14e360e51b815260040160405180910390fd5b6001600160a01b03838116600081815260076020908152604080832094871680845294825291829020805460ff191686151590811790915591519182527f17307eab39ab6107e8899845ad3d59bd9653f200f220920489ca2b5937696c31910160405180910390a3505050565b611a12338585856117db565b6000836001600160a01b03163b118015611a355750611a33848484846120f4565b155b1561097557604051631f11849560e21b815260040160405180910390fd5b606081611a775750506040805180820190915260018152600360fc1b602082015290565b8160005b8115611aa15780611a8b81612b2b565b9150611a9a9050600a83612a2b565b9150611a7b565b60008167ffffffffffffffff811115611abc57611abc612543565b6040519080825280601f01601f191660200182016040528015611ae6576020820181803683370190505b5090505b8415611b5157611afb600183612a8e565b9150611b08600a86612c92565b611b13906030612a76565b60f81b818381518110611b2857611b28612b15565b60200101906001600160f81b031916908160001a905350611b4a600a86612a2b565b9450611aea565b949350505050565b60006001600160e01b03198216637965db0b60e01b148061087057506301ffc9a760e01b6001600160e01b0319831614610870565b60606000611b9d8360026129f6565b611ba8906002612a76565b67ffffffffffffffff811115611bc057611bc0612543565b6040519080825280601f01601f191660200182016040528015611bea576020820181803683370190505b509050600360fc1b81600081518110611c0557611c05612b15565b60200101906001600160f81b031916908160001a905350600f60fb1b81600181518110611c3457611c34612b15565b60200101906001600160f81b031916908160001a9053506000611c588460026129f6565b611c63906001612a76565b90505b6001811115611cdb576f181899199a1a9b1b9c1cb0b131b232b360811b85600f1660108110611c9757611c97612b15565b1a60f81b828281518110611cad57611cad612b15565b60200101906001600160f81b031916908160001a90535060049490941c93611cd481612ca6565b9050611c66565b50831561163f5760405162461bcd60e51b815260206004820181905260248201527f537472696e67733a20686578206c656e67746820696e73756666696369656e746044820152606401610a91565b6000816001600160a01b0316846001600160a01b03161480611d655750836001600160a01b0316611d5a846108a7565b6001600160a01b0316145b80611b515750611b5182856115dc565b6001600160a01b0382161580611da55750611d8f81610ed2565b6001600160a01b0316836001600160a01b031614155b15611dc35760405163574b16a760e11b815260040160405180910390fd5b611dcf6000828561177f565b6001600160a01b03808316600081815260056020908152604080832080546001908101909155948816835280832080546000190190558583526004909152902080546001600160a01b0319169091179055600354908201908111801590611e4b57506000818152600460205260409020546001600160a01b0316155b15611e7857600081815260046020526040902080546001600160a01b0319166001600160a01b0386161790555b5080826001600160a01b0316846001600160a01b03167fddf252ad1be2c89b69c2b068fc378daa952ba7f163c4a11628f55a4df523b3ef60405160405180910390a4505050565b6108a283838360016121eb565b600080825160411415611f035760208301516040840151606085015160001a611ef78782858561235b565b945094505050506109f7565b825160401415611f2d5760208301516040840151611f22868383612448565b9350935050506109f7565b506000905060026109f7565b6000816004811115611f4d57611f4d612cbd565b1415611f565750565b6001816004811115611f6a57611f6a612cbd565b1415611fb85760405162461bcd60e51b815260206004820152601860248201527f45434453413a20696e76616c6964207369676e617475726500000000000000006044820152606401610a91565b6002816004811115611fcc57611fcc612cbd565b141561201a5760405162461bcd60e51b815260206004820152601f60248201527f45434453413a20696e76616c6964207369676e6174757265206c656e677468006044820152606401610a91565b600381600481111561202e5761202e612cbd565b14156120875760405162461bcd60e51b815260206004820152602260248201527f45434453413a20696e76616c6964207369676e6174757265202773272076616c604482015261756560f01b6064820152608401610a91565b600481600481111561209b5761209b612cbd565b14156116de5760405162461bcd60e51b815260206004820152602260248201527f45434453413a20696e76616c6964207369676e6174757265202776272076616c604482015261756560f01b6064820152608401610a91565b604051630a85bd0160e11b81526000906001600160a01b0385169063150b7a0290612129903390899088908890600401612cd3565b602060405180830381600087803b15801561214357600080fd5b505af1925050508015612173575060408051601f3d908101601f1916820190925261217091810190612d10565b60015b6121ce573d8080156121a1576040519150601f19603f3d011682016040523d82523d6000602084013e6121a6565b606091505b5080516121c657604051630568cbab60e01b815260040160405180910390fd5b805181602001fd5b6001600160e01b031916630a85bd0160e11b149050949350505050565b8215806121ff57506001600160a01b038416155b1561221d5760405163574b16a760e11b815260040160405180910390fd5b6000600354600161222e9190612a76565b905060038054850190556001600160a01b03851660008181526005602090815260408083208054890190558483526004909152902080546001600160a01b03191690911790558084810183801561228f57506000876001600160a01b03163b115b1561230d575b60405182906001600160a01b038916906000907fddf252ad1be2c89b69c2b068fc378daa952ba7f163c4a11628f55a4df523b3ef908290a46122e060008884806001019550886120f4565b6122fd57604051631f11849560e21b815260040160405180910390fd5b8082141561229557505050610975565b5b6040516001830192906001600160a01b038916906000907fddf252ad1be2c89b69c2b068fc378daa952ba7f163c4a11628f55a4df523b3ef908290a48082141561230e5750505050505050565b6000807f7fffffffffffffffffffffffffffffff5d576e7357a4501ddfe92f46681b20a0831115612392575060009050600361243f565b8460ff16601b141580156123aa57508460ff16601c14155b156123bb575060009050600461243f565b6040805160008082526020820180845289905260ff881692820192909252606081018690526080810185905260019060a0016020604051602081039080840390855afa15801561240f573d6000803e3d6000fd5b5050604051601f1901519150506001600160a01b0381166124385760006001925092505061243f565b9150600090505b94509492505050565b6000806001600160ff1b03831660ff84901c601b016124698782888561235b565b935093505050935093915050565b82805461248390612ada565b90600052602060002090601f0160209004810192826124a557600085556124eb565b82601f106124be57805160ff19168380011785556124eb565b828001600101855582156124eb579182015b828111156124eb5782518255916020019190600101906124d0565b506124f79291506124fb565b5090565b5b808211156124f757600081556001016124fc565b6001600160e01b0319811681146116de57600080fd5b60006020828403121561253857600080fd5b813561163f81612510565b634e487b7160e01b600052604160045260246000fd5b604051601f8201601f1916810167ffffffffffffffff8111828210171561258257612582612543565b604052919050565b600067ffffffffffffffff8311156125a4576125a4612543565b6125b7601f8401601f1916602001612559565b90508281528383830111156125cb57600080fd5b828260208301376000602084830101529392505050565b6000602082840312156125f457600080fd5b813567ffffffffffffffff81111561260b57600080fd5b8201601f8101841361261c57600080fd5b611b518482356020840161258a565b60005b8381101561264657818101518382015260200161262e565b838111156109755750506000910152565b6000815180845261266f81602086016020860161262b565b601f01601f19169290920160200192915050565b60208152600061163f6020830184612657565b6000602082840312156126a857600080fd5b5035919050565b80356001600160a01b03811681146126c657600080fd5b919050565b600080604083850312156126de57600080fd5b6126e7836126af565b946020939093013593505050565b60006020828403121561270757600080fd5b61163f826126af565b60008060006060848603121561272557600080fd5b61272e846126af565b925061273c602085016126af565b9150604084013590509250925092565b6000806040838503121561275f57600080fd5b50508035926020909101359150565b6000806040838503121561278157600080fd5b82359150612791602084016126af565b90509250929050565b600082601f8301126127ab57600080fd5b61163f8383356020850161258a565b600080600080608085870312156127d057600080fd5b843593506020850135925060408501359150606085013567ffffffffffffffff8111156127fc57600080fd5b6128088782880161279a565b91505092959194509250565b803580151581146126c657600080fd5b60006020828403121561283657600080fd5b61163f82612814565b6000806040838503121561285257600080fd5b61285b836126af565b915061279160208401612814565b6000806040838503121561287c57600080fd5b612885836126af565b915060208084013567ffffffffffffffff808211156128a357600080fd5b818601915086601f8301126128b757600080fd5b8135818111156128c9576128c9612543565b8060051b91506128da848301612559565b81815291830184019184810190898411156128f457600080fd5b938501935b83851015612912578435825293850193908501906128f9565b8096505050505050509250929050565b6000806000806080858703121561293857600080fd5b612941856126af565b935061294f602086016126af565b925060408501359150606085013567ffffffffffffffff8111156127fc57600080fd5b6020808252825182820181905260009190848201906040850190845b818110156129aa5783518352928401929184019160010161298e565b50909695505050505050565b600080604083850312156129c957600080fd5b6129d2836126af565b9150612791602084016126af565b634e487b7160e01b600052601160045260246000fd5b6000816000190483118215151615612a1057612a106129e0565b500290565b634e487b7160e01b600052601260045260246000fd5b600082612a3a57612a3a612a15565b500490565b6020808252601f908201527f5265656e7472616e637947756172643a207265656e7472616e742063616c6c00604082015260600190565b60008219821115612a8957612a896129e0565b500190565b600082821015612aa057612aa06129e0565b500390565b6020808252818101527f4f776e61626c653a2063616c6c6572206973206e6f7420746865206f776e6572604082015260600190565b600181811c90821680612aee57607f821691505b60208210811415612b0f57634e487b7160e01b600052602260045260246000fd5b50919050565b634e487b7160e01b600052603260045260246000fd5b6000600019821415612b3f57612b3f6129e0565b5060010190565b60008151612b5881856020860161262b565b9290920192915050565b600080845481600182811c915080831680612b7e57607f831692505b6020808410821415612b9e57634e487b7160e01b86526022600452602486fd5b818015612bb25760018114612bc357612bf0565b60ff19861689528489019650612bf0565b60008b81526020902060005b86811015612be85781548b820152908501908301612bcf565b505084890196505b505050505050612c14612c038286612b46565b64173539b7b760d91b815260050190565b95945050505050565b7f416363657373436f6e74726f6c3a206163636f756e7420000000000000000000815260008351612c5581601785016020880161262b565b7001034b99036b4b9b9b4b733903937b6329607d1b6017918401918201528351612c8681602884016020880161262b565b01602801949350505050565b600082612ca157612ca1612a15565b500690565b600081612cb557612cb56129e0565b506000190190565b634e487b7160e01b600052602160045260246000fd5b6001600160a01b0385811682528416602082015260408101839052608060608201819052600090612d0690830184612657565b9695505050505050565b600060208284031215612d2257600080fd5b815161163f8161251056fe850d585eb7f024ccee5e68e55f2c26cc72e1e6ee456acf62135757a5eb9d4a10a2646970667358221220f7a398e125b3afdc577d70462394c347b3b942071e60ca6c3ba9c94b33135edc64736f6c63430008090033",
  "linkReferences": {},
  "deployedLinkReferences": {}
}