{
  "_format": "hh-sol-artifact-1",
  "contractName": "CashCowsS2Treasury",
  "sourceName": "contracts/phase7/CashCowsS2Treasury.sol",
  "abi": [
    {
      "inputs": [
        {
          "internalType": "contract IERC721C",
          "name": "collection",
          "type": "address"
        }
      ],
      "stateMutability": "payable",
      "type": "constructor"
    },
    {
      "inputs": [],
      "name": "InvalidCall",
      "type": "error"
    },
    {
      "anonymous": false,
      "inputs": [
        {
          "indexed": true,
          "internalType": "contract IERC20",
          "name": "token",
          "type": "address"
        },
        {
          "indexed": false,
          "internalType": "address",
          "name": "to",
          "type": "address"
        },
        {
          "indexed": false,
          "internalType": "uint256",
          "name": "amount",
          "type": "uint256"
        }
      ],
      "name": "ERC20PaymentReleased",
      "type": "event"
    },
    {
      "anonymous": false,
      "inputs": [
        {
          "indexed": false,
          "internalType": "address",
          "name": "from",
          "type": "address"
        },
        {
          "indexed": false,
          "internalType": "uint256",
          "name": "amount",
          "type": "uint256"
        }
      ],
      "name": "PaymentReceived",
      "type": "event"
    },
    {
      "anonymous": false,
      "inputs": [
        {
          "indexed": false,
          "internalType": "address",
          "name": "to",
          "type": "address"
        },
        {
          "indexed": false,
          "internalType": "uint256",
          "name": "amount",
          "type": "uint256"
        }
      ],
      "name": "PaymentReleased",
      "type": "event"
    },
    {
      "inputs": [],
      "name": "COLLECTION",
      "outputs": [
        {
          "internalType": "contract IERC721C",
          "name": "",
          "type": "address"
        }
      ],
      "stateMutability": "view",
      "type": "function"
    },
    {
      "inputs": [
        {
          "internalType": "uint256",
          "name": "tokenId",
          "type": "uint256"
        }
      ],
      "name": "payee",
      "outputs": [
        {
          "internalType": "address",
          "name": "",
          "type": "address"
        }
      ],
      "stateMutability": "view",
      "type": "function"
    },
    {
      "inputs": [
        {
          "internalType": "contract IERC20",
          "name": "token",
          "type": "address"
        },
        {
          "internalType": "uint256",
          "name": "tokenId",
          "type": "uint256"
        }
      ],
      "name": "release",
      "outputs": [],
      "stateMutability": "nonpayable",
      "type": "function"
    },
    {
      "inputs": [
        {
          "internalType": "uint256",
          "name": "tokenId",
          "type": "uint256"
        }
      ],
      "name": "release",
      "outputs": [],
      "stateMutability": "nonpayable",
      "type": "function"
    },
    {
      "inputs": [
        {
          "internalType": "uint256[]",
          "name": "tokenIds",
          "type": "uint256[]"
        }
      ],
      "name": "releaseBatch",
      "outputs": [],
      "stateMutability": "nonpayable",
      "type": "function"
    },
    {
      "inputs": [
        {
          "internalType": "contract IERC20",
          "name": "token",
          "type": "address"
        },
        {
          "internalType": "uint256[]",
          "name": "tokenIds",
          "type": "uint256[]"
        }
      ],
      "name": "releaseBatch",
      "outputs": [],
      "stateMutability": "nonpayable",
      "type": "function"
    },
    {
      "inputs": [
        {
          "internalType": "uint256",
          "name": "tokenId",
          "type": "uint256"
        }
      ],
      "name": "releaseable",
      "outputs": [
        {
          "internalType": "uint256",
          "name": "",
          "type": "uint256"
        }
      ],
      "stateMutability": "view",
      "type": "function"
    },
    {
      "inputs": [
        {
          "internalType": "contract IERC20",
          "name": "token",
          "type": "address"
        },
        {
          "internalType": "uint256",
          "name": "tokenId",
          "type": "uint256"
        }
      ],
      "name": "releaseable",
      "outputs": [
        {
          "internalType": "uint256",
          "name": "",
          "type": "uint256"
        }
      ],
      "stateMutability": "view",
      "type": "function"
    },
    {
      "inputs": [
        {
          "internalType": "contract IERC20",
          "name": "token",
          "type": "address"
        },
        {
          "internalType": "uint256[]",
          "name": "tokenIds",
          "type": "uint256[]"
        }
      ],
      "name": "releaseableBatch",
      "outputs": [
        {
          "internalType": "uint256",
          "name": "totalReleaseable",
          "type": "uint256"
        }
      ],
      "stateMutability": "view",
      "type": "function"
    },
    {
      "inputs": [
        {
          "internalType": "uint256[]",
          "name": "tokenIds",
          "type": "uint256[]"
        }
      ],
      "name": "releaseableBatch",
      "outputs": [
        {
          "internalType": "uint256",
          "name": "totalReleaseable",
          "type": "uint256"
        }
      ],
      "stateMutability": "view",
      "type": "function"
    },
    {
      "inputs": [
        {
          "internalType": "uint256",
          "name": "tokenId",
          "type": "uint256"
        }
      ],
      "name": "released",
      "outputs": [
        {
          "internalType": "uint256",
          "name": "",
          "type": "uint256"
        }
      ],
      "stateMutability": "view",
      "type": "function"
    },
    {
      "inputs": [
        {
          "internalType": "contract IERC20",
          "name": "token",
          "type": "address"
        },
        {
          "internalType": "uint256",
          "name": "tokenId",
          "type": "uint256"
        }
      ],
      "name": "released",
      "outputs": [
        {
          "internalType": "uint256",
          "name": "",
          "type": "uint256"
        }
      ],
      "stateMutability": "view",
      "type": "function"
    },
    {
      "inputs": [],
      "name": "shares",
      "outputs": [
        {
          "internalType": "uint256",
          "name": "",
          "type": "uint256"
        }
      ],
      "stateMutability": "view",
      "type": "function"
    },
    {
      "inputs": [
        {
          "internalType": "address",
          "name": "account",
          "type": "address"
        }
      ],
      "name": "shares",
      "outputs": [
        {
          "internalType": "uint256",
          "name": "",
          "type": "uint256"
        }
      ],
      "stateMutability": "view",
      "type": "function"
    },
    {
      "inputs": [
        {
          "internalType": "contract IERC20",
          "name": "token",
          "type": "address"
        }
      ],
      "name": "totalReleased",
      "outputs": [
        {
          "internalType": "uint256",
          "name": "",
          "type": "uint256"
        }
      ],
      "stateMutability": "view",
      "type": "function"
    },
    {
      "inputs": [],
      "name": "totalReleased",
      "outputs": [
        {
          "internalType": "uint256",
          "name": "",
          "type": "uint256"
        }
      ],
      "stateMutability": "view",
      "type": "function"
    },
    {
      "stateMutability": "payable",
      "type": "receive"
    }
  ],
  "bytecode": "0x60a060405260405161164538038061164583398101604081905261002291610038565b60016000556001600160a01b0316608052610068565b60006020828403121561004a57600080fd5b81516001600160a01b038116811461006157600080fd5b9392505050565b6080516115986100ad60003960008181610241015281816103ba0152818161060901528181610a7701528181610c9001528181610d340152610f2501526115986000f3fe6080604052600436106100f75760003560e01c80636e8790e61161008a578063ce7c2ac211610059578063ce7c2ac214610308578063cfe8307014610328578063d79779b21461036b578063e33b7de3146103a157600080fd5b80636e8790e61461027b5780637d237eac1461029b5780638b83209b146102bb578063a94d373b146102db57600080fd5b806337bdc99b116100c657806337bdc99b146101cf5780633db9f02a146101ef5780636582f4fa1461020f578063697b23651461022f57600080fd5b806303314efa146101455780630357371d1461016d5780631908fc5a1461018f5780631e1ee128146101af57600080fd5b36610140577f6ef95f06320e7a25a04a175ca677b7052bdd97131872c2192525a629f51be77033604080516001600160a01b0390921682523460208301520160405180910390a1005b600080fd5b34801561015157600080fd5b5061015a6103b6565b6040519081526020015b60405180910390f35b34801561017957600080fd5b5061018d6101883660046111d9565b61044e565b005b34801561019b57600080fd5b5061015a6101aa3660046112ab565b6105a3565b3480156101bb57600080fd5b5061018d6101ca3660046112fb565b6105f8565b3480156101db57600080fd5b5061018d6101ea366004611330565b6107dc565b3480156101fb57600080fd5b5061015a61020a3660046112fb565b6108f8565b34801561021b57600080fd5b5061015a61022a366004611330565b61093e565b34801561023b57600080fd5b506102637f000000000000000000000000000000000000000000000000000000000000000081565b6040516001600160a01b039091168152602001610164565b34801561028757600080fd5b5061015a6102963660046111d9565b610970565b3480156102a757600080fd5b5061018d6102b63660046112ab565b610a3e565b3480156102c757600080fd5b506102636102d6366004611330565b610c77565b3480156102e757600080fd5b5061015a6102f6366004611330565b60009081526002602052604090205490565b34801561031457600080fd5b5061015a610323366004611349565b610d12565b34801561033457600080fd5b5061015a6103433660046111d9565b6001600160a01b03919091166000908152600460209081526040808320938352929052205490565b34801561037757600080fd5b5061015a610386366004611349565b6001600160a01b031660009081526003602052604090205490565b3480156103ad57600080fd5b5060015461015a565b60007f00000000000000000000000000000000000000000000000000000000000000006001600160a01b03166318160ddd6040518163ffffffff1660e01b815260040160206040518083038186803b15801561041157600080fd5b505afa158015610425573d6000803e3d6000fd5b505050506040513d601f19601f820116820180604052508101906104499190611366565b905090565b6002600054141561047a5760405162461bcd60e51b81526004016104719061137f565b60405180910390fd5b6002600090815561048a82610c77565b90506001600160a01b03811633146104b55760405163574b16a760e11b815260040160405180910390fd5b60006104c18484610970565b9050806104e15760405163574b16a760e11b815260040160405180910390fd5b6001600160a01b0384166000908152600460209081526040808320868452909152812080548392906105149084906113cc565b90915550506001600160a01b038416600090815260036020526040812080548392906105419084906113cc565b909155506105529050848383610db0565b604080516001600160a01b038481168252602082018490528616917f3be5b7a71e84ed12875d241991c70855ac5817d847039e17a9d895c1ceb0f18a910160405180910390a2505060016000555050565b6000805b82518110156105f1576105d3848483815181106105c6576105c66113e4565b6020026020010151610970565b6105dd90836113cc565b9150806105e9816113fa565b9150506105a7565b5092915050565b60405163ad94d90160e01b815233907f00000000000000000000000000000000000000000000000000000000000000006001600160a01b03169063ad94d901906106489084908690600401611415565b60206040518083038186803b15801561066057600080fd5b505afa158015610674573d6000803e3d6000fd5b505050506040513d601f19601f82011682018060405250810190610698919061146b565b6106b55760405163574b16a760e11b815260040160405180910390fd5b60008060005b8451811015610753576106e68582815181106106d9576106d96113e4565b602002602001015161093e565b9250826106f257610741565b8260026000878481518110610709576107096113e4565b60200260200101518152602001908152602001600020600082825461072e91906113cc565b9091555061073e905083836113cc565b91505b8061074b816113fa565b9150506106bb565b50806107725760405163574b16a760e11b815260040160405180910390fd5b806001600082825461078491906113cc565b9091555061079490508382610e07565b604080516001600160a01b0385168152602081018390527fdf20fd1e76bc69d672e4814fafb2c449bba3a5369d8359adf9e05e6fde87b056910160405180910390a150505050565b600260005414156107ff5760405162461bcd60e51b81526004016104719061137f565b6002600090815561080f82610c77565b90506001600160a01b038116331461083a5760405163574b16a760e11b815260040160405180910390fd5b60006108458361093e565b9050806108655760405163574b16a760e11b815260040160405180910390fd5b600083815260026020526040812080548392906108839084906113cc565b92505081905550806001600082825461089c91906113cc565b909155506108ac90508282610e07565b604080516001600160a01b0384168152602081018390527fdf20fd1e76bc69d672e4814fafb2c449bba3a5369d8359adf9e05e6fde87b056910160405180910390a15050600160005550565b6000805b82518110156109385761091a8382815181106106d9576106d96113e4565b61092490836113cc565b915080610930816113fa565b9150506108fc565b50919050565b600061096a61094c60015490565b61095690476113cc565b600084815260026020526040902054610f20565b92915050565b6001600160a01b038216600090815260036020526040812054610a37906040516370a0823160e01b81523060048201526001600160a01b038616906370a082319060240160206040518083038186803b1580156109cc57600080fd5b505afa1580156109e0573d6000803e3d6000fd5b505050506040513d601f19601f82011682018060405250810190610a049190611366565b610a0e91906113cc565b6001600160a01b0385166000908152600460209081526040808320878452909152902054610f20565b9392505050565b60026000541415610a615760405162461bcd60e51b81526004016104719061137f565b600260005560405163ad94d90160e01b815233907f00000000000000000000000000000000000000000000000000000000000000006001600160a01b03169063ad94d90190610ab69084908690600401611415565b60206040518083038186803b158015610ace57600080fd5b505afa158015610ae2573d6000803e3d6000fd5b505050506040513d601f19601f82011682018060405250810190610b06919061146b565b610b235760405163574b16a760e11b815260040160405180910390fd5b60008060005b8451811015610bcd57610b48868683815181106105c6576105c66113e4565b925082610b5457610bbb565b6001600160a01b03861660009081526004602052604081208651859290889085908110610b8357610b836113e4565b602002602001015181526020019081526020016000206000828254610ba891906113cc565b90915550610bb8905083836113cc565b91505b80610bc5816113fa565b915050610b29565b5080610bec5760405163574b16a760e11b815260040160405180910390fd5b6001600160a01b03851660009081526003602052604081208054839290610c149084906113cc565b90915550610c259050858483610db0565b604080516001600160a01b038581168252602082018590528716917f3be5b7a71e84ed12875d241991c70855ac5817d847039e17a9d895c1ceb0f18a910160405180910390a250506001600055505050565b6040516331a9108f60e11b8152600481018290526000907f00000000000000000000000000000000000000000000000000000000000000006001600160a01b031690636352211e9060240160206040518083038186803b158015610cda57600080fd5b505afa158015610cee573d6000803e3d6000fd5b505050506040513d601f19601f8201168201806040525081019061096a919061148d565b6040516370a0823160e01b81526001600160a01b0382811660048301526000917f0000000000000000000000000000000000000000000000000000000000000000909116906370a082319060240160206040518083038186803b158015610d7857600080fd5b505afa158015610d8c573d6000803e3d6000fd5b505050506040513d601f19601f8201168201806040525081019061096a9190611366565b604080516001600160a01b038416602482015260448082018490528251808303909101815260649091019091526020810180516001600160e01b031663a9059cbb60e01b179052610e02908490610fe4565b505050565b80471015610e575760405162461bcd60e51b815260206004820152601d60248201527f416464726573733a20696e73756666696369656e742062616c616e63650000006044820152606401610471565b6000826001600160a01b03168260405160006040518083038185875af1925050503d8060008114610ea4576040519150601f19603f3d011682016040523d82523d6000602084013e610ea9565b606091505b5050905080610e025760405162461bcd60e51b815260206004820152603a60248201527f416464726573733a20756e61626c6520746f2073656e642076616c75652c207260448201527f6563697069656e74206d617920686176652072657665727465640000000000006064820152608401610471565b6000807f00000000000000000000000000000000000000000000000000000000000000006001600160a01b03166318160ddd6040518163ffffffff1660e01b815260040160206040518083038186803b158015610f7c57600080fd5b505afa158015610f90573d6000803e3d6000fd5b505050506040513d601f19601f82011682018060405250810190610fb49190611366565b610fbe90856114aa565b905082811015610fd257600091505061096a565b610fdc83826114cc565b949350505050565b6000611039826040518060400160405280602081526020017f5361666545524332303a206c6f772d6c6576656c2063616c6c206661696c6564815250856001600160a01b03166110b69092919063ffffffff16565b805190915015610e025780806020019051810190611057919061146b565b610e025760405162461bcd60e51b815260206004820152602a60248201527f5361666545524332303a204552433230206f7065726174696f6e20646964206e6044820152691bdd081cdd58d8d9595960b21b6064820152608401610471565b6060610fdc848460008585843b61110f5760405162461bcd60e51b815260206004820152601d60248201527f416464726573733a2063616c6c20746f206e6f6e2d636f6e74726163740000006044820152606401610471565b600080866001600160a01b0316858760405161112b9190611513565b60006040518083038185875af1925050503d8060008114611168576040519150601f19603f3d011682016040523d82523d6000602084013e61116d565b606091505b509150915061117d828286611188565b979650505050505050565b60608315611197575081610a37565b8251156111a75782518084602001fd5b8160405162461bcd60e51b8152600401610471919061152f565b6001600160a01b03811681146111d657600080fd5b50565b600080604083850312156111ec57600080fd5b82356111f7816111c1565b946020939093013593505050565b634e487b7160e01b600052604160045260246000fd5b600082601f83011261122c57600080fd5b8135602067ffffffffffffffff8083111561124957611249611205565b8260051b604051601f19603f8301168101818110848211171561126e5761126e611205565b60405293845285810183019383810192508785111561128c57600080fd5b83870191505b8482101561117d57813583529183019190830190611292565b600080604083850312156112be57600080fd5b82356112c9816111c1565b9150602083013567ffffffffffffffff8111156112e557600080fd5b6112f18582860161121b565b9150509250929050565b60006020828403121561130d57600080fd5b813567ffffffffffffffff81111561132457600080fd5b610fdc8482850161121b565b60006020828403121561134257600080fd5b5035919050565b60006020828403121561135b57600080fd5b8135610a37816111c1565b60006020828403121561137857600080fd5b5051919050565b6020808252601f908201527f5265656e7472616e637947756172643a207265656e7472616e742063616c6c00604082015260600190565b634e487b7160e01b600052601160045260246000fd5b600082198211156113df576113df6113b6565b500190565b634e487b7160e01b600052603260045260246000fd5b600060001982141561140e5761140e6113b6565b5060010190565b6001600160a01b038316815260406020808301829052835191830182905260009184820191906060850190845b8181101561145e57845183529383019391830191600101611442565b5090979650505050505050565b60006020828403121561147d57600080fd5b81518015158114610a3757600080fd5b60006020828403121561149f57600080fd5b8151610a37816111c1565b6000826114c757634e487b7160e01b600052601260045260246000fd5b500490565b6000828210156114de576114de6113b6565b500390565b60005b838110156114fe5781810151838201526020016114e6565b8381111561150d576000848401525b50505050565b600082516115258184602087016114e3565b9190910192915050565b602081526000825180602084015261154e8160408501602087016114e3565b601f01601f1916919091016040019291505056fea26469706673582212202134731c1083c3481ff7da03f293c25fbe01c5b59ea201c85c2447a6f3ec52ea64736f6c63430008090033",
  "linkReferences": {},
  "deployedLinkReferences": {}
}