{
  "_format": "hh-sol-artifact-1",
  "contractName": "CashCowsDolla",
  "sourceName": "contracts/phase4/CashCowsDolla.sol",
  "abi": [
    {
      "inputs": [
        {
          "internalType": "address",
          "name": "admin",
          "type": "address"
        }
      ],
      "stateMutability": "nonpayable",
      "type": "constructor"
    },
    {
      "inputs": [],
      "name": "InvalidCall",
      "type": "error"
    },
    {
      "anonymous": false,
      "inputs": [
        {
          "indexed": true,
          "internalType": "address",
          "name": "owner",
          "type": "address"
        },
        {
          "indexed": true,
          "internalType": "address",
          "name": "spender",
          "type": "address"
        },
        {
          "indexed": false,
          "internalType": "uint256",
          "name": "value",
          "type": "uint256"
        }
      ],
      "name": "Approval",
      "type": "event"
    },
    {
      "anonymous": false,
      "inputs": [
        {
          "indexed": false,
          "internalType": "address",
          "name": "account",
          "type": "address"
        }
      ],
      "name": "Paused",
      "type": "event"
    },
    {
      "anonymous": false,
      "inputs": [
        {
          "indexed": true,
          "internalType": "bytes32",
          "name": "role",
          "type": "bytes32"
        },
        {
          "indexed": true,
          "internalType": "bytes32",
          "name": "previousAdminRole",
          "type": "bytes32"
        },
        {
          "indexed": true,
          "internalType": "bytes32",
          "name": "newAdminRole",
          "type": "bytes32"
        }
      ],
      "name": "RoleAdminChanged",
      "type": "event"
    },
    {
      "anonymous": false,
      "inputs": [
        {
          "indexed": true,
          "internalType": "bytes32",
          "name": "role",
          "type": "bytes32"
        },
        {
          "indexed": true,
          "internalType": "address",
          "name": "account",
          "type": "address"
        },
        {
          "indexed": true,
          "internalType": "address",
          "name": "sender",
          "type": "address"
        }
      ],
      "name": "RoleGranted",
      "type": "event"
    },
    {
      "anonymous": false,
      "inputs": [
        {
          "indexed": true,
          "internalType": "bytes32",
          "name": "role",
          "type": "bytes32"
        },
        {
          "indexed": true,
          "internalType": "address",
          "name": "account",
          "type": "address"
        },
        {
          "indexed": true,
          "internalType": "address",
          "name": "sender",
          "type": "address"
        }
      ],
      "name": "RoleRevoked",
      "type": "event"
    },
    {
      "anonymous": false,
      "inputs": [
        {
          "indexed": true,
          "internalType": "address",
          "name": "from",
          "type": "address"
        },
        {
          "indexed": true,
          "internalType": "address",
          "name": "to",
          "type": "address"
        },
        {
          "indexed": false,
          "internalType": "uint256",
          "name": "value",
          "type": "uint256"
        }
      ],
      "name": "Transfer",
      "type": "event"
    },
    {
      "anonymous": false,
      "inputs": [
        {
          "indexed": false,
          "internalType": "address",
          "name": "account",
          "type": "address"
        }
      ],
      "name": "Unpaused",
      "type": "event"
    },
    {
      "inputs": [],
      "name": "DEFAULT_ADMIN_ROLE",
      "outputs": [
        {
          "internalType": "bytes32",
          "name": "",
          "type": "bytes32"
        }
      ],
      "stateMutability": "view",
      "type": "function"
    },
    {
      "inputs": [
        {
          "internalType": "address",
          "name": "owner",
          "type": "address"
        },
        {
          "internalType": "address",
          "name": "spender",
          "type": "address"
        }
      ],
      "name": "allowance",
      "outputs": [
        {
          "internalType": "uint256",
          "name": "",
          "type": "uint256"
        }
      ],
      "stateMutability": "view",
      "type": "function"
    },
    {
      "inputs": [
        {
          "internalType": "address",
          "name": "spender",
          "type": "address"
        },
        {
          "internalType": "uint256",
          "name": "amount",
          "type": "uint256"
        }
      ],
      "name": "approve",
      "outputs": [
        {
          "internalType": "bool",
          "name": "",
          "type": "bool"
        }
      ],
      "stateMutability": "nonpayable",
      "type": "function"
    },
    {
      "inputs": [
        {
          "internalType": "address",
          "name": "account",
          "type": "address"
        }
      ],
      "name": "balanceOf",
      "outputs": [
        {
          "internalType": "uint256",
          "name": "",
          "type": "uint256"
        }
      ],
      "stateMutability": "view",
      "type": "function"
    },
    {
      "inputs": [
        {
          "internalType": "uint256",
          "name": "amount",
          "type": "uint256"
        }
      ],
      "name": "burn",
      "outputs": [],
      "stateMutability": "nonpayable",
      "type": "function"
    },
    {
      "inputs": [
        {
          "internalType": "address",
          "name": "account",
          "type": "address"
        },
        {
          "internalType": "uint256",
          "name": "amount",
          "type": "uint256"
        }
      ],
      "name": "burnFrom",
      "outputs": [],
      "stateMutability": "nonpayable",
      "type": "function"
    },
    {
      "inputs": [],
      "name": "decimals",
      "outputs": [
        {
          "internalType": "uint8",
          "name": "",
          "type": "uint8"
        }
      ],
      "stateMutability": "view",
      "type": "function"
    },
    {
      "inputs": [
        {
          "internalType": "address",
          "name": "spender",
          "type": "address"
        },
        {
          "internalType": "uint256",
          "name": "subtractedValue",
          "type": "uint256"
        }
      ],
      "name": "decreaseAllowance",
      "outputs": [
        {
          "internalType": "bool",
          "name": "",
          "type": "bool"
        }
      ],
      "stateMutability": "nonpayable",
      "type": "function"
    },
    {
      "inputs": [
        {
          "internalType": "bytes32",
          "name": "role",
          "type": "bytes32"
        }
      ],
      "name": "getRoleAdmin",
      "outputs": [
        {
          "internalType": "bytes32",
          "name": "",
          "type": "bytes32"
        }
      ],
      "stateMutability": "view",
      "type": "function"
    },
    {
      "inputs": [
        {
          "internalType": "bytes32",
          "name": "role",
          "type": "bytes32"
        },
        {
          "internalType": "address",
          "name": "account",
          "type": "address"
        }
      ],
      "name": "grantRole",
      "outputs": [],
      "stateMutability": "nonpayable",
      "type": "function"
    },
    {
      "inputs": [
        {
          "internalType": "bytes32",
          "name": "role",
          "type": "bytes32"
        },
        {
          "internalType": "address",
          "name": "account",
          "type": "address"
        }
      ],
      "name": "hasRole",
      "outputs": [
        {
          "internalType": "bool",
          "name": "",
          "type": "bool"
        }
      ],
      "stateMutability": "view",
      "type": "function"
    },
    {
      "inputs": [
        {
          "internalType": "address",
          "name": "spender",
          "type": "address"
        },
        {
          "internalType": "uint256",
          "name": "addedValue",
          "type": "uint256"
        }
      ],
      "name": "increaseAllowance",
      "outputs": [
        {
          "internalType": "bool",
          "name": "",
          "type": "bool"
        }
      ],
      "stateMutability": "nonpayable",
      "type": "function"
    },
    {
      "inputs": [
        {
          "internalType": "address",
          "name": "to",
          "type": "address"
        },
        {
          "internalType": "uint256",
          "name": "amount",
          "type": "uint256"
        }
      ],
      "name": "mint",
      "outputs": [],
      "stateMutability": "nonpayable",
      "type": "function"
    },
    {
      "inputs": [],
      "name": "name",
      "outputs": [
        {
          "internalType": "string",
          "name": "",
          "type": "string"
        }
      ],
      "stateMutability": "view",
      "type": "function"
    },
    {
      "inputs": [],
      "name": "pause",
      "outputs": [],
      "stateMutability": "nonpayable",
      "type": "function"
    },
    {
      "inputs": [],
      "name": "paused",
      "outputs": [
        {
          "internalType": "bool",
          "name": "",
          "type": "bool"
        }
      ],
      "stateMutability": "view",
      "type": "function"
    },
    {
      "inputs": [
        {
          "internalType": "bytes32",
          "name": "role",
          "type": "bytes32"
        },
        {
          "internalType": "address",
          "name": "account",
          "type": "address"
        }
      ],
      "name": "renounceRole",
      "outputs": [],
      "stateMutability": "nonpayable",
      "type": "function"
    },
    {
      "inputs": [
        {
          "internalType": "bytes32",
          "name": "role",
          "type": "bytes32"
        },
        {
          "internalType": "address",
          "name": "account",
          "type": "address"
        }
      ],
      "name": "revokeRole",
      "outputs": [],
      "stateMutability": "nonpayable",
      "type": "function"
    },
    {
      "inputs": [
        {
          "internalType": "bytes4",
          "name": "interfaceId",
          "type": "bytes4"
        }
      ],
      "name": "supportsInterface",
      "outputs": [
        {
          "internalType": "bool",
          "name": "",
          "type": "bool"
        }
      ],
      "stateMutability": "view",
      "type": "function"
    },
    {
      "inputs": [],
      "name": "symbol",
      "outputs": [
        {
          "internalType": "string",
          "name": "",
          "type": "string"
        }
      ],
      "stateMutability": "view",
      "type": "function"
    },
    {
      "inputs": [],
      "name": "totalSupply",
      "outputs": [
        {
          "internalType": "uint256",
          "name": "",
          "type": "uint256"
        }
      ],
      "stateMutability": "view",
      "type": "function"
    },
    {
      "inputs": [
        {
          "internalType": "address",
          "name": "recipient",
          "type": "address"
        },
        {
          "internalType": "uint256",
          "name": "amount",
          "type": "uint256"
        }
      ],
      "name": "transfer",
      "outputs": [
        {
          "internalType": "bool",
          "name": "",
          "type": "bool"
        }
      ],
      "stateMutability": "nonpayable",
      "type": "function"
    },
    {
      "inputs": [
        {
          "internalType": "address",
          "name": "sender",
          "type": "address"
        },
        {
          "internalType": "address",
          "name": "recipient",
          "type": "address"
        },
        {
          "internalType": "uint256",
          "name": "amount",
          "type": "uint256"
        }
      ],
      "name": "transferFrom",
      "outputs": [
        {
          "internalType": "bool",
          "name": "",
          "type": "bool"
        }
      ],
      "stateMutability": "nonpayable",
      "type": "function"
    },
    {
      "inputs": [],
      "name": "unpause",
      "outputs": [],
      "stateMutability": "nonpayable",
      "type": "function"
    }
  ],
  "bytecode": "0x60806040523480156200001157600080fd5b50604051620017683803806200176883398101604081905262000034916200022e565b604080518082018252601081526f4361736820436f777320446f6c6c617360801b60208083019182528351808501909452600580855264444f4c4c4160d81b918501919091526000805460ff19169055825192939262000095929062000188565b508051620000ab90600690602084019062000188565b50620000bd91506000905082620000f0565b620000e97f65d7a28e3265b37a6474929f336521b332c1681b933f6cb9f3376673440d862a82620000f0565b506200029d565b620000fc828262000100565b5050565b60008281526001602090815260408083206001600160a01b038516845290915290205460ff16620000fc5760008281526001602081815260408084206001600160a01b0386168086529252808420805460ff19169093179092559051339285917f2f8788117e7eff1d82e926ec794901d17c78024a50270940304540a733656f0d9190a45050565b828054620001969062000260565b90600052602060002090601f016020900481019282620001ba576000855562000205565b82601f10620001d557805160ff191683800117855562000205565b8280016001018555821562000205579182015b8281111562000205578251825591602001919060010190620001e8565b506200021392915062000217565b5090565b5b8082111562000213576000815560010162000218565b6000602082840312156200024157600080fd5b81516001600160a01b03811681146200025957600080fd5b9392505050565b600181811c908216806200027557607f821691505b602082108114156200029757634e487b7160e01b600052602260045260246000fd5b50919050565b6114bb80620002ad6000396000f3fe608060405234801561001057600080fd5b50600436106101585760003560e01c806342966c68116100c357806395d89b411161007c57806395d89b41146102d0578063a217fddf146102d8578063a457c2d7146102e0578063a9059cbb146102f3578063d547741f14610306578063dd62ed3e1461031957600080fd5b806342966c681461025b5780635c975abb1461026e57806370a082311461027957806379cc6790146102a25780638456cb59146102b557806391d14854146102bd57600080fd5b80632f2ff15d116101155780632f2ff15d146101f6578063313ce5671461020b57806336568abe1461021a578063395093511461022d5780633f4ba83a1461024057806340c10f191461024857600080fd5b806301ffc9a71461015d57806306fdde0314610185578063095ea7b31461019a57806318160ddd146101ad57806323b872dd146101bf578063248a9ca3146101d2575b600080fd5b61017061016b366004611199565b610352565b60405190151581526020015b60405180910390f35b61018d610389565b60405161017c91906111ef565b6101706101a836600461123e565b61041b565b6004545b60405190815260200161017c565b6101706101cd366004611268565b610431565b6101b16101e03660046112a4565b6000908152600160208190526040909120015490565b6102096102043660046112bd565b6104e0565b005b6040516012815260200161017c565b6102096102283660046112bd565b61050c565b61017061023b36600461123e565b61058a565b6102096105c6565b61020961025636600461123e565b6105fc565b6102096102693660046112a4565b610677565b60005460ff16610170565b6101b16102873660046112e9565b6001600160a01b031660009081526002602052604090205490565b6102096102b036600461123e565b610681565b610209610710565b6101706102cb3660046112bd565b610743565b61018d61076e565b6101b1600081565b6101706102ee36600461123e565b61077d565b61017061030136600461123e565b610816565b6102096103143660046112bd565b610823565b6101b1610327366004611304565b6001600160a01b03918216600090815260036020908152604080832093909416825291909152205490565b60006001600160e01b03198216637965db0b60e01b148061038357506301ffc9a760e01b6001600160e01b03198316145b92915050565b6060600580546103989061132e565b80601f01602080910402602001604051908101604052809291908181526020018280546103c49061132e565b80156104115780601f106103e657610100808354040283529160200191610411565b820191906000526020600020905b8154815290600101906020018083116103f457829003601f168201915b5050505050905090565b600061042833848461084a565b50600192915050565b600061043e84848461096e565b6001600160a01b0384166000908152600360209081526040808320338452909152902054828110156104c85760405162461bcd60e51b815260206004820152602860248201527f45524332303a207472616e7366657220616d6f756e74206578636565647320616044820152676c6c6f77616e636560c01b60648201526084015b60405180910390fd5b6104d5853385840361084a565b506001949350505050565b600082815260016020819052604090912001546104fd8133610b49565b6105078383610bad565b505050565b6001600160a01b038116331461057c5760405162461bcd60e51b815260206004820152602f60248201527f416363657373436f6e74726f6c3a2063616e206f6e6c792072656e6f756e636560448201526e103937b632b9903337b91039b2b63360891b60648201526084016104bf565b6105868282610c18565b5050565b3360008181526003602090815260408083206001600160a01b038716845290915281205490916104289185906105c190869061137f565b61084a565b7f65d7a28e3265b37a6474929f336521b332c1681b933f6cb9f3376673440d862a6105f18133610b49565b6105f9610c7f565b50565b60005460ff16156106425760405162461bcd60e51b815260206004820152601060248201526f14185d5cd8589b194e881c185d5cd95960821b60448201526064016104bf565b7f9f2df0fed2c77648de5860a4cc508cd0818c85b8b8a1ab4ceeef8d981c8956a661066d8133610b49565b6105078383610d12565b6105f93382610dfd565b336106ac7f3c11d16cbaffd01df69ce1c404f6340ee057498f5f00246190ea54220576a84882610743565b610706576001600160a01b03838116600090815260036020908152604080832093851683529290522054828110156106f75760405163574b16a760e11b815260040160405180910390fd5b610704848385840361084a565b505b6105078383610dfd565b7f65d7a28e3265b37a6474929f336521b332c1681b933f6cb9f3376673440d862a61073b8133610b49565b6105f9610f57565b60009182526001602090815260408084206001600160a01b0393909316845291905290205460ff1690565b6060600680546103989061132e565b3360009081526003602090815260408083206001600160a01b0386168452909152812054828110156107ff5760405162461bcd60e51b815260206004820152602560248201527f45524332303a2064656372656173656420616c6c6f77616e63652062656c6f77604482015264207a65726f60d81b60648201526084016104bf565b61080c338585840361084a565b5060019392505050565b600061042833848461096e565b600082815260016020819052604090912001546108408133610b49565b6105078383610c18565b6001600160a01b0383166108ac5760405162461bcd60e51b8152602060048201526024808201527f45524332303a20617070726f76652066726f6d20746865207a65726f206164646044820152637265737360e01b60648201526084016104bf565b6001600160a01b03821661090d5760405162461bcd60e51b815260206004820152602260248201527f45524332303a20617070726f766520746f20746865207a65726f206164647265604482015261737360f01b60648201526084016104bf565b6001600160a01b0383811660008181526003602090815260408083209487168084529482529182902085905590518481527f8c5be1e5ebec7d5bd14f71427d1e84f3dd0314c0f7b2291e5b200ac8c7c3b925910160405180910390a3505050565b6001600160a01b0383166109d25760405162461bcd60e51b815260206004820152602560248201527f45524332303a207472616e736665722066726f6d20746865207a65726f206164604482015264647265737360d81b60648201526084016104bf565b6001600160a01b038216610a345760405162461bcd60e51b815260206004820152602360248201527f45524332303a207472616e7366657220746f20746865207a65726f206164647260448201526265737360e81b60648201526084016104bf565b610a3f838383610fd2565b6001600160a01b03831660009081526002602052604090205481811015610ab75760405162461bcd60e51b815260206004820152602660248201527f45524332303a207472616e7366657220616d6f756e7420657863656564732062604482015265616c616e636560d01b60648201526084016104bf565b6001600160a01b03808516600090815260026020526040808220858503905591851681529081208054849290610aee90849061137f565b92505081905550826001600160a01b0316846001600160a01b03167fddf252ad1be2c89b69c2b068fc378daa952ba7f163c4a11628f55a4df523b3ef84604051610b3a91815260200190565b60405180910390a35b50505050565b610b538282610743565b61058657610b6b816001600160a01b03166014610ff6565b610b76836020610ff6565b604051602001610b87929190611397565b60408051601f198184030181529082905262461bcd60e51b82526104bf916004016111ef565b610bb78282610743565b6105865760008281526001602081815260408084206001600160a01b0386168086529252808420805460ff19169093179092559051339285917f2f8788117e7eff1d82e926ec794901d17c78024a50270940304540a733656f0d9190a45050565b610c228282610743565b156105865760008281526001602090815260408083206001600160a01b0385168085529252808320805460ff1916905551339285917ff6391f5c32d9c69d2a47ea670b442974b53935d1edc7fd64eb21e047a839171b9190a45050565b60005460ff16610cc85760405162461bcd60e51b815260206004820152601460248201527314185d5cd8589b194e881b9bdd081c185d5cd95960621b60448201526064016104bf565b6000805460ff191690557f5db9ee0a495bf2e6ff9c91a7834c1ba4fdd244a5e8aa4e537bd38aeae4b073aa335b6040516001600160a01b03909116815260200160405180910390a1565b6001600160a01b038216610d685760405162461bcd60e51b815260206004820152601f60248201527f45524332303a206d696e7420746f20746865207a65726f20616464726573730060448201526064016104bf565b610d7460008383610fd2565b8060046000828254610d86919061137f565b90915550506001600160a01b03821660009081526002602052604081208054839290610db390849061137f565b90915550506040518181526001600160a01b038316906000907fddf252ad1be2c89b69c2b068fc378daa952ba7f163c4a11628f55a4df523b3ef9060200160405180910390a35050565b6001600160a01b038216610e5d5760405162461bcd60e51b815260206004820152602160248201527f45524332303a206275726e2066726f6d20746865207a65726f206164647265736044820152607360f81b60648201526084016104bf565b610e6982600083610fd2565b6001600160a01b03821660009081526002602052604090205481811015610edd5760405162461bcd60e51b815260206004820152602260248201527f45524332303a206275726e20616d6f756e7420657863656564732062616c616e604482015261636560f01b60648201526084016104bf565b6001600160a01b0383166000908152600260205260408120838303905560048054849290610f0c90849061140c565b90915550506040518281526000906001600160a01b038516907fddf252ad1be2c89b69c2b068fc378daa952ba7f163c4a11628f55a4df523b3ef9060200160405180910390a3505050565b60005460ff1615610f9d5760405162461bcd60e51b815260206004820152601060248201526f14185d5cd8589b194e881c185d5cd95960821b60448201526064016104bf565b6000805460ff191660011790557f62e78cea01bee320cd4e420270b5ea74000d11b0c9f74754ebdbfc544b05a258610cf53390565b60005460ff16156105075760405163574b16a760e11b815260040160405180910390fd5b60606000611005836002611423565b61101090600261137f565b67ffffffffffffffff81111561102857611028611442565b6040519080825280601f01601f191660200182016040528015611052576020820181803683370190505b509050600360fc1b8160008151811061106d5761106d611458565b60200101906001600160f81b031916908160001a905350600f60fb1b8160018151811061109c5761109c611458565b60200101906001600160f81b031916908160001a90535060006110c0846002611423565b6110cb90600161137f565b90505b6001811115611143576f181899199a1a9b1b9c1cb0b131b232b360811b85600f16601081106110ff576110ff611458565b1a60f81b82828151811061111557611115611458565b60200101906001600160f81b031916908160001a90535060049490941c9361113c8161146e565b90506110ce565b5083156111925760405162461bcd60e51b815260206004820181905260248201527f537472696e67733a20686578206c656e67746820696e73756666696369656e7460448201526064016104bf565b9392505050565b6000602082840312156111ab57600080fd5b81356001600160e01b03198116811461119257600080fd5b60005b838110156111de5781810151838201526020016111c6565b83811115610b435750506000910152565b602081526000825180602084015261120e8160408501602087016111c3565b601f01601f19169190910160400192915050565b80356001600160a01b038116811461123957600080fd5b919050565b6000806040838503121561125157600080fd5b61125a83611222565b946020939093013593505050565b60008060006060848603121561127d57600080fd5b61128684611222565b925061129460208501611222565b9150604084013590509250925092565b6000602082840312156112b657600080fd5b5035919050565b600080604083850312156112d057600080fd5b823591506112e060208401611222565b90509250929050565b6000602082840312156112fb57600080fd5b61119282611222565b6000806040838503121561131757600080fd5b61132083611222565b91506112e060208401611222565b600181811c9082168061134257607f821691505b6020821081141561136357634e487b7160e01b600052602260045260246000fd5b50919050565b634e487b7160e01b600052601160045260246000fd5b6000821982111561139257611392611369565b500190565b7f416363657373436f6e74726f6c3a206163636f756e74200000000000000000008152600083516113cf8160178501602088016111c3565b7001034b99036b4b9b9b4b733903937b6329607d1b60179184019182015283516114008160288401602088016111c3565b01602801949350505050565b60008282101561141e5761141e611369565b500390565b600081600019048311821515161561143d5761143d611369565b500290565b634e487b7160e01b600052604160045260246000fd5b634e487b7160e01b600052603260045260246000fd5b60008161147d5761147d611369565b50600019019056fea2646970667358221220e69182fe3d783c429bf9d167e5d22dbf09833a52898c4a06f0dc1d90d0d8d97a64736f6c63430008090033",
  "linkReferences": {},
  "deployedLinkReferences": {}
}