{
  "_format": "hh-sol-artifact-1",
  "contractName": "CashCowsGhostProtocol",
  "sourceName": "contracts/CashCowsGhostProtocol.sol",
  "abi": [
    {
      "inputs": [
        {
          "internalType": "string",
          "name": "preview",
          "type": "string"
        },
        {
          "internalType": "address",
          "name": "admin",
          "type": "address"
        }
      ],
      "stateMutability": "nonpayable",
      "type": "constructor"
    },
    {
      "inputs": [],
      "name": "ApprovalOwnerIsOperator",
      "type": "error"
    },
    {
      "inputs": [],
      "name": "ApprovalToCurrentOwner",
      "type": "error"
    },
    {
      "inputs": [],
      "name": "BalanceQueryZeroAddress",
      "type": "error"
    },
    {
      "inputs": [],
      "name": "ERC721ReceiverNotReceived",
      "type": "error"
    },
    {
      "inputs": [],
      "name": "InvalidCall",
      "type": "error"
    },
    {
      "inputs": [],
      "name": "NonExistentToken",
      "type": "error"
    },
    {
      "inputs": [],
      "name": "NotERC721Receiver",
      "type": "error"
    },
    {
      "anonymous": false,
      "inputs": [
        {
          "indexed": true,
          "internalType": "address",
          "name": "owner",
          "type": "address"
        },
        {
          "indexed": true,
          "internalType": "address",
          "name": "approved",
          "type": "address"
        },
        {
          "indexed": true,
          "internalType": "uint256",
          "name": "tokenId",
          "type": "uint256"
        }
      ],
      "name": "Approval",
      "type": "event"
    },
    {
      "anonymous": false,
      "inputs": [
        {
          "indexed": true,
          "internalType": "address",
          "name": "owner",
          "type": "address"
        },
        {
          "indexed": true,
          "internalType": "address",
          "name": "operator",
          "type": "address"
        },
        {
          "indexed": false,
          "internalType": "bool",
          "name": "approved",
          "type": "bool"
        }
      ],
      "name": "ApprovalForAll",
      "type": "event"
    },
    {
      "anonymous": false,
      "inputs": [
        {
          "indexed": true,
          "internalType": "address",
          "name": "previousOwner",
          "type": "address"
        },
        {
          "indexed": true,
          "internalType": "address",
          "name": "newOwner",
          "type": "address"
        }
      ],
      "name": "OwnershipTransferred",
      "type": "event"
    },
    {
      "anonymous": false,
      "inputs": [
        {
          "indexed": true,
          "internalType": "bytes32",
          "name": "role",
          "type": "bytes32"
        },
        {
          "indexed": true,
          "internalType": "bytes32",
          "name": "previousAdminRole",
          "type": "bytes32"
        },
        {
          "indexed": true,
          "internalType": "bytes32",
          "name": "newAdminRole",
          "type": "bytes32"
        }
      ],
      "name": "RoleAdminChanged",
      "type": "event"
    },
    {
      "anonymous": false,
      "inputs": [
        {
          "indexed": true,
          "internalType": "bytes32",
          "name": "role",
          "type": "bytes32"
        },
        {
          "indexed": true,
          "internalType": "address",
          "name": "account",
          "type": "address"
        },
        {
          "indexed": true,
          "internalType": "address",
          "name": "sender",
          "type": "address"
        }
      ],
      "name": "RoleGranted",
      "type": "event"
    },
    {
      "anonymous": false,
      "inputs": [
        {
          "indexed": true,
          "internalType": "bytes32",
          "name": "role",
          "type": "bytes32"
        },
        {
          "indexed": true,
          "internalType": "address",
          "name": "account",
          "type": "address"
        },
        {
          "indexed": true,
          "internalType": "address",
          "name": "sender",
          "type": "address"
        }
      ],
      "name": "RoleRevoked",
      "type": "event"
    },
    {
      "anonymous": false,
      "inputs": [
        {
          "indexed": true,
          "internalType": "address",
          "name": "from",
          "type": "address"
        },
        {
          "indexed": true,
          "internalType": "address",
          "name": "to",
          "type": "address"
        },
        {
          "indexed": true,
          "internalType": "uint256",
          "name": "tokenId",
          "type": "uint256"
        }
      ],
      "name": "Transfer",
      "type": "event"
    },
    {
      "inputs": [],
      "name": "DEFAULT_ADMIN_ROLE",
      "outputs": [
        {
          "internalType": "bytes32",
          "name": "",
          "type": "bytes32"
        }
      ],
      "stateMutability": "view",
      "type": "function"
    },
    {
      "inputs": [],
      "name": "MAX_SUPPLY",
      "outputs": [
        {
          "internalType": "uint16",
          "name": "",
          "type": "uint16"
        }
      ],
      "stateMutability": "view",
      "type": "function"
    },
    {
      "inputs": [
        {
          "internalType": "address",
          "name": "to",
          "type": "address"
        },
        {
          "internalType": "uint256",
          "name": "tokenId",
          "type": "uint256"
        }
      ],
      "name": "approve",
      "outputs": [],
      "stateMutability": "nonpayable",
      "type": "function"
    },
    {
      "inputs": [
        {
          "internalType": "address",
          "name": "owner",
          "type": "address"
        }
      ],
      "name": "balanceOf",
      "outputs": [
        {
          "internalType": "uint256",
          "name": "",
          "type": "uint256"
        }
      ],
      "stateMutability": "view",
      "type": "function"
    },
    {
      "inputs": [
        {
          "internalType": "uint256",
          "name": "tokenId",
          "type": "uint256"
        }
      ],
      "name": "burn",
      "outputs": [],
      "stateMutability": "nonpayable",
      "type": "function"
    },
    {
      "inputs": [
        {
          "internalType": "uint256",
          "name": "",
          "type": "uint256"
        }
      ],
      "name": "burned",
      "outputs": [
        {
          "internalType": "address",
          "name": "",
          "type": "address"
        }
      ],
      "stateMutability": "view",
      "type": "function"
    },
    {
      "inputs": [],
      "name": "contractURI",
      "outputs": [
        {
          "internalType": "string",
          "name": "",
          "type": "string"
        }
      ],
      "stateMutability": "view",
      "type": "function"
    },
    {
      "inputs": [
        {
          "internalType": "uint256",
          "name": "tokenId",
          "type": "uint256"
        }
      ],
      "name": "getApproved",
      "outputs": [
        {
          "internalType": "address",
          "name": "",
          "type": "address"
        }
      ],
      "stateMutability": "view",
      "type": "function"
    },
    {
      "inputs": [
        {
          "internalType": "bytes32",
          "name": "role",
          "type": "bytes32"
        }
      ],
      "name": "getRoleAdmin",
      "outputs": [
        {
          "internalType": "bytes32",
          "name": "",
          "type": "bytes32"
        }
      ],
      "stateMutability": "view",
      "type": "function"
    },
    {
      "inputs": [
        {
          "internalType": "bytes32",
          "name": "role",
          "type": "bytes32"
        },
        {
          "internalType": "address",
          "name": "account",
          "type": "address"
        }
      ],
      "name": "grantRole",
      "outputs": [],
      "stateMutability": "nonpayable",
      "type": "function"
    },
    {
      "inputs": [
        {
          "internalType": "bytes32",
          "name": "role",
          "type": "bytes32"
        },
        {
          "internalType": "address",
          "name": "account",
          "type": "address"
        }
      ],
      "name": "hasRole",
      "outputs": [
        {
          "internalType": "bool",
          "name": "",
          "type": "bool"
        }
      ],
      "stateMutability": "view",
      "type": "function"
    },
    {
      "inputs": [
        {
          "internalType": "address",
          "name": "owner",
          "type": "address"
        },
        {
          "internalType": "address",
          "name": "operator",
          "type": "address"
        }
      ],
      "name": "isApprovedForAll",
      "outputs": [
        {
          "internalType": "bool",
          "name": "",
          "type": "bool"
        }
      ],
      "stateMutability": "view",
      "type": "function"
    },
    {
      "inputs": [
        {
          "internalType": "address",
          "name": "recipient",
          "type": "address"
        },
        {
          "internalType": "uint256",
          "name": "quantity",
          "type": "uint256"
        }
      ],
      "name": "mint",
      "outputs": [],
      "stateMutability": "nonpayable",
      "type": "function"
    },
    {
      "inputs": [
        {
          "internalType": "uint256",
          "name": "quantity",
          "type": "uint256"
        }
      ],
      "name": "mint",
      "outputs": [],
      "stateMutability": "payable",
      "type": "function"
    },
    {
      "inputs": [],
      "name": "mintOpened",
      "outputs": [
        {
          "internalType": "bool",
          "name": "",
          "type": "bool"
        }
      ],
      "stateMutability": "view",
      "type": "function"
    },
    {
      "inputs": [],
      "name": "mintPrice",
      "outputs": [
        {
          "internalType": "uint256",
          "name": "",
          "type": "uint256"
        }
      ],
      "stateMutability": "view",
      "type": "function"
    },
    {
      "inputs": [
        {
          "internalType": "address",
          "name": "",
          "type": "address"
        }
      ],
      "name": "minted",
      "outputs": [
        {
          "internalType": "uint256",
          "name": "",
          "type": "uint256"
        }
      ],
      "stateMutability": "view",
      "type": "function"
    },
    {
      "inputs": [],
      "name": "name",
      "outputs": [
        {
          "internalType": "string",
          "name": "",
          "type": "string"
        }
      ],
      "stateMutability": "pure",
      "type": "function"
    },
    {
      "inputs": [
        {
          "internalType": "bool",
          "name": "yes",
          "type": "bool"
        }
      ],
      "name": "openMint",
      "outputs": [],
      "stateMutability": "nonpayable",
      "type": "function"
    },
    {
      "inputs": [],
      "name": "owner",
      "outputs": [
        {
          "internalType": "address",
          "name": "",
          "type": "address"
        }
      ],
      "stateMutability": "view",
      "type": "function"
    },
    {
      "inputs": [
        {
          "internalType": "uint256",
          "name": "tokenId",
          "type": "uint256"
        }
      ],
      "name": "ownerOf",
      "outputs": [
        {
          "internalType": "address",
          "name": "",
          "type": "address"
        }
      ],
      "stateMutability": "view",
      "type": "function"
    },
    {
      "inputs": [
        {
          "internalType": "address",
          "name": "owner",
          "type": "address"
        }
      ],
      "name": "ownerTokens",
      "outputs": [
        {
          "internalType": "uint256[]",
          "name": "",
          "type": "uint256[]"
        }
      ],
      "stateMutability": "view",
      "type": "function"
    },
    {
      "inputs": [
        {
          "internalType": "address",
          "name": "owner",
          "type": "address"
        },
        {
          "internalType": "uint256[]",
          "name": "tokenIds",
          "type": "uint256[]"
        }
      ],
      "name": "ownsAll",
      "outputs": [
        {
          "internalType": "bool",
          "name": "",
          "type": "bool"
        }
      ],
      "stateMutability": "view",
      "type": "function"
    },
    {
      "inputs": [
        {
          "internalType": "uint256",
          "name": "quantity",
          "type": "uint256"
        }
      ],
      "name": "redeem",
      "outputs": [],
      "stateMutability": "nonpayable",
      "type": "function"
    },
    {
      "inputs": [],
      "name": "renounceOwnership",
      "outputs": [],
      "stateMutability": "nonpayable",
      "type": "function"
    },
    {
      "inputs": [
        {
          "internalType": "bytes32",
          "name": "role",
          "type": "bytes32"
        },
        {
          "internalType": "address",
          "name": "account",
          "type": "address"
        }
      ],
      "name": "renounceRole",
      "outputs": [],
      "stateMutability": "nonpayable",
      "type": "function"
    },
    {
      "inputs": [
        {
          "internalType": "bytes32",
          "name": "role",
          "type": "bytes32"
        },
        {
          "internalType": "address",
          "name": "account",
          "type": "address"
        }
      ],
      "name": "revokeRole",
      "outputs": [],
      "stateMutability": "nonpayable",
      "type": "function"
    },
    {
      "inputs": [
        {
          "internalType": "uint256",
          "name": "_tokenId",
          "type": "uint256"
        },
        {
          "internalType": "uint256",
          "name": "_salePrice",
          "type": "uint256"
        }
      ],
      "name": "royaltyInfo",
      "outputs": [
        {
          "internalType": "address",
          "name": "receiver",
          "type": "address"
        },
        {
          "internalType": "uint256",
          "name": "royaltyAmount",
          "type": "uint256"
        }
      ],
      "stateMutability": "view",
      "type": "function"
    },
    {
      "inputs": [],
      "name": "royaltyPercent",
      "outputs": [
        {
          "internalType": "uint256",
          "name": "",
          "type": "uint256"
        }
      ],
      "stateMutability": "view",
      "type": "function"
    },
    {
      "inputs": [
        {
          "internalType": "address",
          "name": "from",
          "type": "address"
        },
        {
          "internalType": "address",
          "name": "to",
          "type": "address"
        },
        {
          "internalType": "uint256",
          "name": "tokenId",
          "type": "uint256"
        }
      ],
      "name": "safeTransferFrom",
      "outputs": [],
      "stateMutability": "nonpayable",
      "type": "function"
    },
    {
      "inputs": [
        {
          "internalType": "address",
          "name": "from",
          "type": "address"
        },
        {
          "internalType": "address",
          "name": "to",
          "type": "address"
        },
        {
          "internalType": "uint256",
          "name": "tokenId",
          "type": "uint256"
        },
        {
          "internalType": "bytes",
          "name": "_data",
          "type": "bytes"
        }
      ],
      "name": "safeTransferFrom",
      "outputs": [],
      "stateMutability": "nonpayable",
      "type": "function"
    },
    {
      "inputs": [
        {
          "internalType": "address",
          "name": "operator",
          "type": "address"
        },
        {
          "internalType": "bool",
          "name": "approved",
          "type": "bool"
        }
      ],
      "name": "setApprovalForAll",
      "outputs": [],
      "stateMutability": "nonpayable",
      "type": "function"
    },
    {
      "inputs": [
        {
          "internalType": "contract IBurnableBalance",
          "name": "culled",
          "type": "address"
        }
      ],
      "name": "setCulling",
      "outputs": [],
      "stateMutability": "nonpayable",
      "type": "function"
    },
    {
      "inputs": [
        {
          "internalType": "string",
          "name": "uri",
          "type": "string"
        }
      ],
      "name": "setURI",
      "outputs": [],
      "stateMutability": "nonpayable",
      "type": "function"
    },
    {
      "inputs": [
        {
          "internalType": "bytes4",
          "name": "interfaceId",
          "type": "bytes4"
        }
      ],
      "name": "supportsInterface",
      "outputs": [
        {
          "internalType": "bool",
          "name": "",
          "type": "bool"
        }
      ],
      "stateMutability": "view",
      "type": "function"
    },
    {
      "inputs": [],
      "name": "symbol",
      "outputs": [
        {
          "internalType": "string",
          "name": "",
          "type": "string"
        }
      ],
      "stateMutability": "pure",
      "type": "function"
    },
    {
      "inputs": [
        {
          "internalType": "uint256",
          "name": "tokenId",
          "type": "uint256"
        }
      ],
      "name": "tokenURI",
      "outputs": [
        {
          "internalType": "string",
          "name": "",
          "type": "string"
        }
      ],
      "stateMutability": "view",
      "type": "function"
    },
    {
      "inputs": [],
      "name": "totalSupply",
      "outputs": [
        {
          "internalType": "uint256",
          "name": "",
          "type": "uint256"
        }
      ],
      "stateMutability": "view",
      "type": "function"
    },
    {
      "inputs": [
        {
          "internalType": "address",
          "name": "from",
          "type": "address"
        },
        {
          "internalType": "address",
          "name": "to",
          "type": "address"
        },
        {
          "internalType": "uint256",
          "name": "tokenId",
          "type": "uint256"
        }
      ],
      "name": "transferFrom",
      "outputs": [],
      "stateMutability": "nonpayable",
      "type": "function"
    },
    {
      "inputs": [
        {
          "internalType": "address",
          "name": "newOwner",
          "type": "address"
        }
      ],
      "name": "transferOwnership",
      "outputs": [],
      "stateMutability": "nonpayable",
      "type": "function"
    },
    {
      "inputs": [],
      "name": "treasury",
      "outputs": [
        {
          "internalType": "contract IRoyaltySplitter",
          "name": "",
          "type": "address"
        }
      ],
      "stateMutability": "view",
      "type": "function"
    },
    {
      "inputs": [
        {
          "internalType": "contract IMetadata",
          "name": "metadata",
          "type": "address"
        }
      ],
      "name": "updateMetadata",
      "outputs": [],
      "stateMutability": "nonpayable",
      "type": "function"
    },
    {
      "inputs": [
        {
          "internalType": "uint256",
          "name": "percent",
          "type": "uint256"
        }
      ],
      "name": "updateRoyalty",
      "outputs": [],
      "stateMutability": "nonpayable",
      "type": "function"
    },
    {
      "inputs": [
        {
          "internalType": "contract IRoyaltySplitter",
          "name": "splitter",
          "type": "address"
        }
      ],
      "name": "updateTreasury",
      "outputs": [],
      "stateMutability": "nonpayable",
      "type": "function"
    },
    {
      "inputs": [
        {
          "internalType": "address",
          "name": "recipient",
          "type": "address"
        }
      ],
      "name": "withdraw",
      "outputs": [],
      "stateMutability": "nonpayable",
      "type": "function"
    }
  ],
  "bytecode": "0x60806040526103e8600d55668e1bc9bf0400006011553480156200002257600080fd5b5060405162002b0938038062002b09833981016040819052620000459162000263565b60016000558181620000573362000084565b62000064600082620000d6565b81516200007990600b9060208501906200018a565b505050505062000391565b600180546001600160a01b038381166001600160a01b0319831681179093556040519116919082907f8be0079c531659141344cd1fd0a4f28419497f9722a3daafe3b4186f6b6457e090600090a35050565b620000e28282620000e6565b5050565b60008281526002602090815260408083206001600160a01b038516845290915290205460ff16620000e25760008281526002602090815260408083206001600160a01b03851684529091529020805460ff19166001179055620001463390565b6001600160a01b0316816001600160a01b0316837f2f8788117e7eff1d82e926ec794901d17c78024a50270940304540a733656f0d60405160405180910390a45050565b828054620001989062000354565b90600052602060002090601f016020900481019282620001bc576000855562000207565b82601f10620001d757805160ff191683800117855562000207565b8280016001018555821562000207579182015b8281111562000207578251825591602001919060010190620001ea565b506200021592915062000219565b5090565b5b808211156200021557600081556001016200021a565b634e487b7160e01b600052604160045260246000fd5b80516001600160a01b03811681146200025e57600080fd5b919050565b600080604083850312156200027757600080fd5b82516001600160401b03808211156200028f57600080fd5b818501915085601f830112620002a457600080fd5b815181811115620002b957620002b962000230565b604051601f8201601f19908116603f01168101908382118183101715620002e457620002e462000230565b816040528281526020935088848487010111156200030157600080fd5b600091505b8282101562000325578482018401518183018501529083019062000306565b82821115620003375760008484830101525b95506200034991505085820162000246565b925050509250929050565b600181811c908216806200036957607f821691505b602082108114156200038b57634e487b7160e01b600052602260045260246000fd5b50919050565b61276880620003a16000396000f3fe6080604052600436106102725760003560e01c80636e90222b1161014f578063a217fddf116100c1578063c87b56dd1161007a578063c87b56dd146107ed578063d547741f1461080d578063db006a751461082d578063e8a3d4851461084b578063e985e9c514610860578063f2fde38b1461088057600080fd5b8063a217fddf1461072b578063a22cb46514610740578063ad94d90114610760578063b88d4fde14610780578063bba7723e146107a0578063c5e2a7db146107cd57600080fd5b80638fffd8b5116101135780638fffd8b51461067c57806391d148541461069c57806395d89b41146106bc5780639b70a340146106e85780639f67756d14610702578063a0712d681461071857600080fd5b80636e90222b146105e957806370a0823114610609578063715018a6146106295780637f51bb1f1461063e5780638da5cb5b1461065e57600080fd5b80632f2ff15d116101e857806342966c68116101ac57806342966c681461053357806351cff8d91461055357806358a85bca1461057357806361d027b3146105935780636352211e146105b35780636817c76c146105d357600080fd5b80632f2ff15d1461048a57806332cb6b0c146104aa57806336568abe146104d357806340c10f19146104f357806342842e0e1461051357600080fd5b806318160ddd1161023a57806318160ddd146103755780631e7269c51461039857806323250cae146103c557806323b872dd146103fb578063248a9ca31461041b5780632a55205a1461044b57600080fd5b806301ffc9a71461027757806302fe5305146102ac57806306fdde03146102ce578063081812fc1461031d578063095ea7b314610355575b600080fd5b34801561028357600080fd5b50610297610292366004611f9d565b6108a0565b60405190151581526020015b60405180910390f35b3480156102b857600080fd5b506102cc6102c7366004612067565b6108e6565b005b3480156102da57600080fd5b5060408051808201909152601981527f4361736820436f77733a2047686f73742050726f746f636f6c0000000000000060208201525b6040516102a39190612108565b34801561032957600080fd5b5061033d61033836600461211b565b61090c565b6040516001600160a01b0390911681526020016102a3565b34801561036157600080fd5b506102cc610370366004612149565b610950565b34801561038157600080fd5b5061038a6109e0565b6040519081526020016102a3565b3480156103a457600080fd5b5061038a6103b3366004612175565b600f6020526000908152604090205481565b3480156103d157600080fd5b5061033d6103e036600461211b565b6009602052600090815260409020546001600160a01b031681565b34801561040757600080fd5b506102cc610416366004612192565b6109fd565b34801561042757600080fd5b5061038a61043636600461211b565b60009081526002602052604090206001015490565b34801561045757600080fd5b5061046b6104663660046121d3565b610a0e565b604080516001600160a01b0390931683526020830191909152016102a3565b34801561049657600080fd5b506102cc6104a53660046121f5565b610a84565b3480156104b657600080fd5b506104c06103e881565b60405161ffff90911681526020016102a3565b3480156104df57600080fd5b506102cc6104ee3660046121f5565b610aaa565b3480156104ff57600080fd5b506102cc61050e366004612149565b610b29565b34801561051f57600080fd5b506102cc61052e366004612192565b610bc5565b34801561053f57600080fd5b506102cc61054e36600461211b565b610be0565b34801561055f57600080fd5b506102cc61056e366004612175565b610cf5565b34801561057f57600080fd5b506102cc61058e36600461223a565b610dae565b34801561059f57600080fd5b50600c5461033d906001600160a01b031681565b3480156105bf57600080fd5b5061033d6105ce36600461211b565b610ddb565b3480156105df57600080fd5b5061038a60115481565b3480156105f557600080fd5b506102cc610604366004612175565b610e1a565b34801561061557600080fd5b5061038a610624366004612175565b610e56565b34801561063557600080fd5b506102cc610e9b565b34801561064a57600080fd5b506102cc610659366004612175565b610ed1565b34801561066a57600080fd5b506001546001600160a01b031661033d565b34801561068857600080fd5b506102cc61069736600461211b565b610f0d565b3480156106a857600080fd5b506102976106b73660046121f5565b610f61565b3480156106c857600080fd5b506040805180820190915260038152624d555560e81b6020820152610310565b3480156106f457600080fd5b506010546102979060ff1681565b34801561070e57600080fd5b5061038a600d5481565b6102cc61072636600461211b565b610f8c565b34801561073757600080fd5b5061038a600081565b34801561074c57600080fd5b506102cc61075b366004612255565b61101a565b34801561076c57600080fd5b5061029761077b36600461228a565b611025565b34801561078c57600080fd5b506102cc61079b366004612345565b611092565b3480156107ac57600080fd5b506107c06107bb366004612175565b61109e565b6040516102a391906123c5565b3480156107d957600080fd5b506102cc6107e8366004612175565b61119d565b3480156107f957600080fd5b5061031061080836600461211b565b6111d9565b34801561081957600080fd5b506102cc6108283660046121f5565b611323565b34801561083957600080fd5b506102cc61084836600461211b565b50565b34801561085757600080fd5b50610310611349565b34801561086c57600080fd5b5061029761087b366004612409565b6113db565b34801561088c57600080fd5b506102cc61089b366004612175565b61143e565b60006001600160e01b03198216635b5e139f60e01b14806108d157506001600160e01b0319821663152a902d60e11b145b806108e057506108e0826114d6565b92915050565b6000805160206126f38339815191526108ff81336114fb565b6109088261155f565b5050565b600061091782611572565b61093457604051634a1850bf60e11b815260040160405180910390fd5b506000908152600660205260409020546001600160a01b031690565b600061095b8261159b565b9050806001600160a01b0316836001600160a01b031614156109905760405163250fdee360e21b815260040160405180910390fd5b336001600160a01b03821681148015906109b157506109af82826113db565b155b156109cf5760405163250fdee360e21b815260040160405180910390fd5b6109da848484611658565b50505050565b6000600a546109ee60035490565b6109f8919061244d565b905090565b610a09338484846116b4565b505050565b600c5460009081906001600160a01b03161580610a315750610a2f84611572565b155b15610a4f5760405163574b16a760e11b815260040160405180910390fd5b600c54600d546001600160a01b039091169061271090610a6f9086612464565b610a799190612483565b915091509250929050565b600082815260026020526040902060010154610aa081336114fb565b610a0983836116e7565b6001600160a01b0381163314610b1f5760405162461bcd60e51b815260206004820152602f60248201527f416363657373436f6e74726f6c3a2063616e206f6e6c792072656e6f756e636560448201526e103937b632b9903337b91039b2b63360891b60648201526084015b60405180910390fd5b610908828261176d565b7f9f2df0fed2c77648de5860a4cc508cd0818c85b8b8a1ab4ceeef8d981c8956a6610b5481336114fb565b60026000541415610b775760405162461bcd60e51b8152600401610b16906124a5565b60026000556103e882610b886109e0565b610b9291906124dc565b1115610bb15760405163574b16a760e11b815260040160405180910390fd5b610bbb83836117d4565b5050600160005550565b610a0983838360405180602001604052806000815250611092565b6000610beb8261159b565b9050610bf83383836117ee565b610c155760405163574b16a760e11b815260040160405180910390fd5b610c2160008383611658565b60018201610c2e81611572565b8015610c4f57506000818152600460205260409020546001600160a01b0316155b15610c7c57600081815260046020526040902080546001600160a01b0319166001600160a01b0384161790555b50600082815260096020908152604080832080546001600160a01b0386166001600160a01b0319918216811790925581855260058452828520805460001901905586855260049093528184208054909316909255600a805460010190555184929190600080516020612713833981519152908390a45050565b6001546001600160a01b03163314610d1f5760405162461bcd60e51b8152600401610b16906124f4565b60026000541415610d425760405162461bcd60e51b8152600401610b16906124a5565b6002600055600e546001600160a01b0316610d705760405163574b16a760e11b815260040160405180910390fd5b6040516001600160a01b038216904780156108fc02916000818181858888f19350505050158015610da5573d6000803e3d6000fd5b50506001600055565b6000805160206126f3833981519152610dc781336114fb565b506010805460ff1916911515919091179055565b6000818152600960205260408120546001600160a01b031615610e1157604051634a1850bf60e11b815260040160405180910390fd5b6108e08261159b565b6000805160206126f3833981519152610e3381336114fb565b50601280546001600160a01b0319166001600160a01b0392909216919091179055565b60006001600160a01b038216610e7f576040516316285dcb60e11b815260040160405180910390fd5b506001600160a01b031660009081526005602052604090205490565b6001546001600160a01b03163314610ec55760405162461bcd60e51b8152600401610b16906124f4565b610ecf6000611841565b565b6000805160206126f3833981519152610eea81336114fb565b50600c80546001600160a01b0319166001600160a01b0392909216919091179055565b7f3b5d4cc60d3ec3516ee8ae083bd60934f6eb2a6c54b1229985c41bfb092b2603610f3881336114fb565b6103e8821115610f5b5760405163574b16a760e11b815260040160405180910390fd5b50600d55565b60009182526002602090815260408084206001600160a01b0393909316845291905290205460ff1690565b60026000541415610faf5760405162461bcd60e51b8152600401610b16906124a5565b6002600055601054339060ff161580610fd457503460115483610fd29190612464565b115b80610ff257506103e882610fe66109e0565b610ff091906124dc565b115b156110105760405163574b16a760e11b815260040160405180910390fd5b610da581836117d4565b610908338383611893565b6000805b82518110156110885761105483828151811061104757611047612529565b6020026020010151610ddb565b6001600160a01b0316846001600160a01b0316146110765760009150506108e0565b806110808161253f565b915050611029565b5060019392505050565b6109da84848484611933565b606060006110ab83610e56565b9050806110c8575050604080516000815260208101909152919050565b60008167ffffffffffffffff8111156110e3576110e3611fba565b60405190808252806020026020018201604052801561110c578160200160208202803683370190505b50905060006111196109e0565b9050600060015b8281116111925761113081610ddb565b6001600160a01b0316876001600160a01b03161415611180578084836111558161253f565b94508151811061116757611167612529565b6020026020010181815250508482141561118057611192565b8061118a8161253f565b915050611120565b509195945050505050565b6000805160206126f38339815191526111b681336114fb565b50600e80546001600160a01b0319166001600160a01b0392909216919091179055565b60606111e482611572565b6112015760405163574b16a760e11b815260040160405180910390fd5b600e546001600160a01b03166112a357600b805461121e9061255a565b80601f016020809104026020016040519081016040528092919081815260200182805461124a9061255a565b80156112975780601f1061126c57610100808354040283529160200191611297565b820191906000526020600020905b81548152906001019060200180831161127a57829003601f168201915b50505050509050919050565b600e5460405163c87b56dd60e01b8152600481018490526001600160a01b039091169063c87b56dd9060240160006040518083038186803b1580156112e757600080fd5b505afa1580156112fb573d6000803e3d6000fd5b505050506040513d6000823e601f3d908101601f191682016040526108e09190810190612595565b60008281526002602052604090206001015461133f81336114fb565b610a09838361176d565b6060600880546113589061255a565b80601f01602080910402602001604051908101604052809291908181526020018280546113849061255a565b80156113d15780601f106113a6576101008083540402835291602001916113d1565b820191906000526020600020905b8154815290600101906020018083116113b457829003601f168201915b5050505050905090565b60006114077f4a0c3698e72495f6d49f6ef074f2b34cac5b153c817a7cc37789cccbb873cf5d83610f61565b8061143757506001600160a01b0380841660009081526007602090815260408083209386168352929052205460ff165b9392505050565b6001546001600160a01b031633146114685760405162461bcd60e51b8152600401610b16906124f4565b6001600160a01b0381166114cd5760405162461bcd60e51b815260206004820152602660248201527f4f776e61626c653a206e6577206f776e657220697320746865207a65726f206160448201526564647265737360d01b6064820152608401610b16565b61084881611841565b60006001600160e01b031982166380ac58cd60e01b14806108e057506108e082611980565b6115058282610f61565b6109085761151d816001600160a01b031660146119b5565b6115288360206119b5565b60405160200161153992919061260c565b60408051601f198184030181529082905262461bcd60e51b8252610b1691600401612108565b8051610908906008906020840190611eee565b6000818152600960205260408120546001600160a01b03161580156108e057506108e082611b51565b60008181526004602052604081205482906001600160a01b0316156115d8576000908152600460205260409020546001600160a01b031692915050565b6000811180156115ea57506003548111155b1561163e575b60001901806115fe5761163e565b6000818152600460205260409020546001600160a01b031615611639576000908152600460205260409020546001600160a01b031692915050565b6115f0565b50604051634a1850bf60e11b815260040160405180910390fd5b60008281526006602052604080822080546001600160a01b0319166001600160a01b0387811691821790925591518593918516917f8c5be1e5ebec7d5bd14f71427d1e84f3dd0314c0f7b2291e5b200ac8c7c3b92591a4505050565b6116bf8482856117ee565b6116dc5760405163574b16a760e11b815260040160405180910390fd5b6109da838383611b66565b6116f18282610f61565b6109085760008281526002602090815260408083206001600160a01b03851684529091529020805460ff191660011790556117293390565b6001600160a01b0316816001600160a01b0316837f2f8788117e7eff1d82e926ec794901d17c78024a50270940304540a733656f0d60405160405180910390a45050565b6117778282610f61565b156109085760008281526002602090815260408083206001600160a01b0385168085529252808320805460ff1916905551339285917ff6391f5c32d9c69d2a47ea670b442974b53935d1edc7fd64eb21e047a839171b9190a45050565b610908828260405180602001604052806000815250611c9e565b6000816001600160a01b0316846001600160a01b031614806118295750836001600160a01b031661181e8461090c565b6001600160a01b0316145b80611839575061183982856113db565b949350505050565b600180546001600160a01b038381166001600160a01b0319831681179093556040519116919082907f8be0079c531659141344cd1fd0a4f28419497f9722a3daafe3b4186f6b6457e090600090a35050565b816001600160a01b0316836001600160a01b031614156118c65760405163079f14e360e51b815260040160405180910390fd5b6001600160a01b03838116600081815260076020908152604080832094871680845294825291829020805460ff191686151590811790915591519182527f17307eab39ab6107e8899845ad3d59bd9653f200f220920489ca2b5937696c31910160405180910390a3505050565b61193f338585856116b4565b6000836001600160a01b03163b118015611962575061196084848484611cab565b155b156109da57604051631f11849560e21b815260040160405180910390fd5b60006001600160e01b03198216637965db0b60e01b14806108e057506301ffc9a760e01b6001600160e01b03198316146108e0565b606060006119c4836002612464565b6119cf9060026124dc565b67ffffffffffffffff8111156119e7576119e7611fba565b6040519080825280601f01601f191660200182016040528015611a11576020820181803683370190505b509050600360fc1b81600081518110611a2c57611a2c612529565b60200101906001600160f81b031916908160001a905350600f60fb1b81600181518110611a5b57611a5b612529565b60200101906001600160f81b031916908160001a9053506000611a7f846002612464565b611a8a9060016124dc565b90505b6001811115611b02576f181899199a1a9b1b9c1cb0b131b232b360811b85600f1660108110611abe57611abe612529565b1a60f81b828281518110611ad457611ad4612529565b60200101906001600160f81b031916908160001a90535060049490941c93611afb81612681565b9050611a8d565b5083156114375760405162461bcd60e51b815260206004820181905260248201527f537472696e67733a20686578206c656e67746820696e73756666696369656e746044820152606401610b16565b600080821180156108e0575050600354101590565b6001600160a01b0382161580611b965750611b808161159b565b6001600160a01b0316836001600160a01b031614155b15611bb45760405163574b16a760e11b815260040160405180910390fd5b611bc060008285611658565b6001600160a01b03808316600081815260056020908152604080832080546001908101909155948816835280832080546000190190558583526004909152902080546001600160a01b0319169091179055600354908201908111801590611c3c57506000818152600460205260409020546001600160a01b0316155b15611c6957600081815260046020526040902080546001600160a01b0319166001600160a01b0386161790555b5080826001600160a01b0316846001600160a01b031660008051602061271383398151915260405160405180910390a4505050565b610a098383836001611da2565b604051630a85bd0160e11b81526000906001600160a01b0385169063150b7a0290611ce0903390899088908890600401612698565b602060405180830381600087803b158015611cfa57600080fd5b505af1925050508015611d2a575060408051601f3d908101601f19168201909252611d27918101906126d5565b60015b611d85573d808015611d58576040519150601f19603f3d011682016040523d82523d6000602084013e611d5d565b606091505b508051611d7d57604051630568cbab60e01b815260040160405180910390fd5b805181602001fd5b6001600160e01b031916630a85bd0160e11b149050949350505050565b821580611db657506001600160a01b038416155b15611dd45760405163574b16a760e11b815260040160405180910390fd5b60006003546001611de591906124dc565b905060038054850190556001600160a01b03851660008181526005602090815260408083208054890190558483526004909152902080546001600160a01b031916909117905580848101838015611e4657506000876001600160a01b03163b115b15611eb2575b60405182906001600160a01b03891690600090600080516020612713833981519152908290a4611e856000888480600101955088611cab565b611ea257604051631f11849560e21b815260040160405180910390fd5b80821415611e4c575050506109da565b5b6040516001830192906001600160a01b03891690600090600080516020612713833981519152908290a480821415611eb35750505050505050565b828054611efa9061255a565b90600052602060002090601f016020900481019282611f1c5760008555611f62565b82601f10611f3557805160ff1916838001178555611f62565b82800160010185558215611f62579182015b82811115611f62578251825591602001919060010190611f47565b50611f6e929150611f72565b5090565b5b80821115611f6e5760008155600101611f73565b6001600160e01b03198116811461084857600080fd5b600060208284031215611faf57600080fd5b813561143781611f87565b634e487b7160e01b600052604160045260246000fd5b604051601f8201601f1916810167ffffffffffffffff81118282101715611ff957611ff9611fba565b604052919050565b600067ffffffffffffffff82111561201b5761201b611fba565b50601f01601f191660200190565b600061203c61203784612001565b611fd0565b905082815283838301111561205057600080fd5b828260208301376000602084830101529392505050565b60006020828403121561207957600080fd5b813567ffffffffffffffff81111561209057600080fd5b8201601f810184136120a157600080fd5b61183984823560208401612029565b60005b838110156120cb5781810151838201526020016120b3565b838111156109da5750506000910152565b600081518084526120f48160208601602086016120b0565b601f01601f19169290920160200192915050565b60208152600061143760208301846120dc565b60006020828403121561212d57600080fd5b5035919050565b6001600160a01b038116811461084857600080fd5b6000806040838503121561215c57600080fd5b823561216781612134565b946020939093013593505050565b60006020828403121561218757600080fd5b813561143781612134565b6000806000606084860312156121a757600080fd5b83356121b281612134565b925060208401356121c281612134565b929592945050506040919091013590565b600080604083850312156121e657600080fd5b50508035926020909101359150565b6000806040838503121561220857600080fd5b82359150602083013561221a81612134565b809150509250929050565b8035801515811461223557600080fd5b919050565b60006020828403121561224c57600080fd5b61143782612225565b6000806040838503121561226857600080fd5b823561227381612134565b915061228160208401612225565b90509250929050565b6000806040838503121561229d57600080fd5b82356122a881612134565b915060208381013567ffffffffffffffff808211156122c657600080fd5b818601915086601f8301126122da57600080fd5b8135818111156122ec576122ec611fba565b8060051b91506122fd848301611fd0565b818152918301840191848101908984111561231757600080fd5b938501935b838510156123355784358252938501939085019061231c565b8096505050505050509250929050565b6000806000806080858703121561235b57600080fd5b843561236681612134565b9350602085013561237681612134565b925060408501359150606085013567ffffffffffffffff81111561239957600080fd5b8501601f810187136123aa57600080fd5b6123b987823560208401612029565b91505092959194509250565b6020808252825182820181905260009190848201906040850190845b818110156123fd578351835292840192918401916001016123e1565b50909695505050505050565b6000806040838503121561241c57600080fd5b823561242781612134565b9150602083013561221a81612134565b634e487b7160e01b600052601160045260246000fd5b60008282101561245f5761245f612437565b500390565b600081600019048311821515161561247e5761247e612437565b500290565b6000826124a057634e487b7160e01b600052601260045260246000fd5b500490565b6020808252601f908201527f5265656e7472616e637947756172643a207265656e7472616e742063616c6c00604082015260600190565b600082198211156124ef576124ef612437565b500190565b6020808252818101527f4f776e61626c653a2063616c6c6572206973206e6f7420746865206f776e6572604082015260600190565b634e487b7160e01b600052603260045260246000fd5b600060001982141561255357612553612437565b5060010190565b600181811c9082168061256e57607f821691505b6020821081141561258f57634e487b7160e01b600052602260045260246000fd5b50919050565b6000602082840312156125a757600080fd5b815167ffffffffffffffff8111156125be57600080fd5b8201601f810184136125cf57600080fd5b80516125dd61203782612001565b8181528560208385010111156125f257600080fd5b6126038260208301602086016120b0565b95945050505050565b7f416363657373436f6e74726f6c3a206163636f756e74200000000000000000008152600083516126448160178501602088016120b0565b7001034b99036b4b9b9b4b733903937b6329607d1b60179184019182015283516126758160288401602088016120b0565b01602801949350505050565b60008161269057612690612437565b506000190190565b6001600160a01b03858116825284166020820152604081018390526080606082018190526000906126cb908301846120dc565b9695505050505050565b6000602082840312156126e757600080fd5b815161143781611f8756fe850d585eb7f024ccee5e68e55f2c26cc72e1e6ee456acf62135757a5eb9d4a10ddf252ad1be2c89b69c2b068fc378daa952ba7f163c4a11628f55a4df523b3efa2646970667358221220028c43f746b6da0a5ffe047aa95c650c9d8cab744d234347a8c7fd723f7f16d964736f6c63430008090033",
  "linkReferences": {},
  "deployedLinkReferences": {}
}