{
  "_format": "hh-sol-artifact-1",
  "contractName": "CashCowsGhostProtocol",
  "sourceName": "contracts/CashCowsGhostProtocol.sol",
  "abi": [
    {
      "inputs": [
        {
          "internalType": "string",
          "name": "preview",
          "type": "string"
        },
        {
          "internalType": "address",
          "name": "admin",
          "type": "address"
        }
      ],
      "stateMutability": "nonpayable",
      "type": "constructor"
    },
    {
      "inputs": [],
      "name": "ApprovalOwnerIsOperator",
      "type": "error"
    },
    {
      "inputs": [],
      "name": "ApprovalToCurrentOwner",
      "type": "error"
    },
    {
      "inputs": [],
      "name": "BalanceQueryZeroAddress",
      "type": "error"
    },
    {
      "inputs": [],
      "name": "ERC721ReceiverNotReceived",
      "type": "error"
    },
    {
      "inputs": [],
      "name": "InvalidCall",
      "type": "error"
    },
    {
      "inputs": [],
      "name": "NonExistentToken",
      "type": "error"
    },
    {
      "inputs": [],
      "name": "NotERC721Receiver",
      "type": "error"
    },
    {
      "anonymous": false,
      "inputs": [
        {
          "indexed": true,
          "internalType": "address",
          "name": "owner",
          "type": "address"
        },
        {
          "indexed": true,
          "internalType": "address",
          "name": "approved",
          "type": "address"
        },
        {
          "indexed": true,
          "internalType": "uint256",
          "name": "tokenId",
          "type": "uint256"
        }
      ],
      "name": "Approval",
      "type": "event"
    },
    {
      "anonymous": false,
      "inputs": [
        {
          "indexed": true,
          "internalType": "address",
          "name": "owner",
          "type": "address"
        },
        {
          "indexed": true,
          "internalType": "address",
          "name": "operator",
          "type": "address"
        },
        {
          "indexed": false,
          "internalType": "bool",
          "name": "approved",
          "type": "bool"
        }
      ],
      "name": "ApprovalForAll",
      "type": "event"
    },
    {
      "anonymous": false,
      "inputs": [
        {
          "indexed": true,
          "internalType": "address",
          "name": "previousOwner",
          "type": "address"
        },
        {
          "indexed": true,
          "internalType": "address",
          "name": "newOwner",
          "type": "address"
        }
      ],
      "name": "OwnershipTransferred",
      "type": "event"
    },
    {
      "anonymous": false,
      "inputs": [
        {
          "indexed": true,
          "internalType": "bytes32",
          "name": "role",
          "type": "bytes32"
        },
        {
          "indexed": true,
          "internalType": "bytes32",
          "name": "previousAdminRole",
          "type": "bytes32"
        },
        {
          "indexed": true,
          "internalType": "bytes32",
          "name": "newAdminRole",
          "type": "bytes32"
        }
      ],
      "name": "RoleAdminChanged",
      "type": "event"
    },
    {
      "anonymous": false,
      "inputs": [
        {
          "indexed": true,
          "internalType": "bytes32",
          "name": "role",
          "type": "bytes32"
        },
        {
          "indexed": true,
          "internalType": "address",
          "name": "account",
          "type": "address"
        },
        {
          "indexed": true,
          "internalType": "address",
          "name": "sender",
          "type": "address"
        }
      ],
      "name": "RoleGranted",
      "type": "event"
    },
    {
      "anonymous": false,
      "inputs": [
        {
          "indexed": true,
          "internalType": "bytes32",
          "name": "role",
          "type": "bytes32"
        },
        {
          "indexed": true,
          "internalType": "address",
          "name": "account",
          "type": "address"
        },
        {
          "indexed": true,
          "internalType": "address",
          "name": "sender",
          "type": "address"
        }
      ],
      "name": "RoleRevoked",
      "type": "event"
    },
    {
      "anonymous": false,
      "inputs": [
        {
          "indexed": true,
          "internalType": "address",
          "name": "from",
          "type": "address"
        },
        {
          "indexed": true,
          "internalType": "address",
          "name": "to",
          "type": "address"
        },
        {
          "indexed": true,
          "internalType": "uint256",
          "name": "tokenId",
          "type": "uint256"
        }
      ],
      "name": "Transfer",
      "type": "event"
    },
    {
      "inputs": [],
      "name": "DEFAULT_ADMIN_ROLE",
      "outputs": [
        {
          "internalType": "bytes32",
          "name": "",
          "type": "bytes32"
        }
      ],
      "stateMutability": "view",
      "type": "function"
    },
    {
      "inputs": [],
      "name": "MAX_SUPPLY",
      "outputs": [
        {
          "internalType": "uint16",
          "name": "",
          "type": "uint16"
        }
      ],
      "stateMutability": "view",
      "type": "function"
    },
    {
      "inputs": [
        {
          "internalType": "address",
          "name": "to",
          "type": "address"
        },
        {
          "internalType": "uint256",
          "name": "tokenId",
          "type": "uint256"
        }
      ],
      "name": "approve",
      "outputs": [],
      "stateMutability": "nonpayable",
      "type": "function"
    },
    {
      "inputs": [
        {
          "internalType": "address",
          "name": "owner",
          "type": "address"
        }
      ],
      "name": "balanceOf",
      "outputs": [
        {
          "internalType": "uint256",
          "name": "",
          "type": "uint256"
        }
      ],
      "stateMutability": "view",
      "type": "function"
    },
    {
      "inputs": [
        {
          "internalType": "uint256",
          "name": "tokenId",
          "type": "uint256"
        }
      ],
      "name": "burn",
      "outputs": [],
      "stateMutability": "nonpayable",
      "type": "function"
    },
    {
      "inputs": [
        {
          "internalType": "uint256",
          "name": "",
          "type": "uint256"
        }
      ],
      "name": "burned",
      "outputs": [
        {
          "internalType": "address",
          "name": "",
          "type": "address"
        }
      ],
      "stateMutability": "view",
      "type": "function"
    },
    {
      "inputs": [],
      "name": "contractURI",
      "outputs": [
        {
          "internalType": "string",
          "name": "",
          "type": "string"
        }
      ],
      "stateMutability": "view",
      "type": "function"
    },
    {
      "inputs": [
        {
          "internalType": "uint256",
          "name": "tokenId",
          "type": "uint256"
        }
      ],
      "name": "getApproved",
      "outputs": [
        {
          "internalType": "address",
          "name": "",
          "type": "address"
        }
      ],
      "stateMutability": "view",
      "type": "function"
    },
    {
      "inputs": [
        {
          "internalType": "bytes32",
          "name": "role",
          "type": "bytes32"
        }
      ],
      "name": "getRoleAdmin",
      "outputs": [
        {
          "internalType": "bytes32",
          "name": "",
          "type": "bytes32"
        }
      ],
      "stateMutability": "view",
      "type": "function"
    },
    {
      "inputs": [
        {
          "internalType": "bytes32",
          "name": "role",
          "type": "bytes32"
        },
        {
          "internalType": "address",
          "name": "account",
          "type": "address"
        }
      ],
      "name": "grantRole",
      "outputs": [],
      "stateMutability": "nonpayable",
      "type": "function"
    },
    {
      "inputs": [
        {
          "internalType": "bytes32",
          "name": "role",
          "type": "bytes32"
        },
        {
          "internalType": "address",
          "name": "account",
          "type": "address"
        }
      ],
      "name": "hasRole",
      "outputs": [
        {
          "internalType": "bool",
          "name": "",
          "type": "bool"
        }
      ],
      "stateMutability": "view",
      "type": "function"
    },
    {
      "inputs": [
        {
          "internalType": "address",
          "name": "owner",
          "type": "address"
        },
        {
          "internalType": "address",
          "name": "operator",
          "type": "address"
        }
      ],
      "name": "isApprovedForAll",
      "outputs": [
        {
          "internalType": "bool",
          "name": "",
          "type": "bool"
        }
      ],
      "stateMutability": "view",
      "type": "function"
    },
    {
      "inputs": [
        {
          "internalType": "address",
          "name": "recipient",
          "type": "address"
        },
        {
          "internalType": "uint256",
          "name": "quantity",
          "type": "uint256"
        }
      ],
      "name": "mint",
      "outputs": [],
      "stateMutability": "nonpayable",
      "type": "function"
    },
    {
      "inputs": [
        {
          "internalType": "uint256",
          "name": "quantity",
          "type": "uint256"
        }
      ],
      "name": "mint",
      "outputs": [],
      "stateMutability": "payable",
      "type": "function"
    },
    {
      "inputs": [],
      "name": "mintOpened",
      "outputs": [
        {
          "internalType": "bool",
          "name": "",
          "type": "bool"
        }
      ],
      "stateMutability": "view",
      "type": "function"
    },
    {
      "inputs": [],
      "name": "mintPrice",
      "outputs": [
        {
          "internalType": "uint256",
          "name": "",
          "type": "uint256"
        }
      ],
      "stateMutability": "view",
      "type": "function"
    },
    {
      "inputs": [
        {
          "internalType": "address",
          "name": "",
          "type": "address"
        }
      ],
      "name": "minted",
      "outputs": [
        {
          "internalType": "uint256",
          "name": "",
          "type": "uint256"
        }
      ],
      "stateMutability": "view",
      "type": "function"
    },
    {
      "inputs": [],
      "name": "name",
      "outputs": [
        {
          "internalType": "string",
          "name": "",
          "type": "string"
        }
      ],
      "stateMutability": "pure",
      "type": "function"
    },
    {
      "inputs": [
        {
          "internalType": "bool",
          "name": "yes",
          "type": "bool"
        }
      ],
      "name": "openMint",
      "outputs": [],
      "stateMutability": "nonpayable",
      "type": "function"
    },
    {
      "inputs": [],
      "name": "owner",
      "outputs": [
        {
          "internalType": "address",
          "name": "",
          "type": "address"
        }
      ],
      "stateMutability": "view",
      "type": "function"
    },
    {
      "inputs": [
        {
          "internalType": "uint256",
          "name": "tokenId",
          "type": "uint256"
        }
      ],
      "name": "ownerOf",
      "outputs": [
        {
          "internalType": "address",
          "name": "",
          "type": "address"
        }
      ],
      "stateMutability": "view",
      "type": "function"
    },
    {
      "inputs": [
        {
          "internalType": "address",
          "name": "owner",
          "type": "address"
        }
      ],
      "name": "ownerTokens",
      "outputs": [
        {
          "internalType": "uint256[]",
          "name": "",
          "type": "uint256[]"
        }
      ],
      "stateMutability": "view",
      "type": "function"
    },
    {
      "inputs": [
        {
          "internalType": "address",
          "name": "owner",
          "type": "address"
        },
        {
          "internalType": "uint256[]",
          "name": "tokenIds",
          "type": "uint256[]"
        }
      ],
      "name": "ownsAll",
      "outputs": [
        {
          "internalType": "bool",
          "name": "",
          "type": "bool"
        }
      ],
      "stateMutability": "view",
      "type": "function"
    },
    {
      "inputs": [
        {
          "internalType": "uint256",
          "name": "quantity",
          "type": "uint256"
        }
      ],
      "name": "redeem",
      "outputs": [],
      "stateMutability": "nonpayable",
      "type": "function"
    },
    {
      "inputs": [],
      "name": "renounceOwnership",
      "outputs": [],
      "stateMutability": "nonpayable",
      "type": "function"
    },
    {
      "inputs": [
        {
          "internalType": "bytes32",
          "name": "role",
          "type": "bytes32"
        },
        {
          "internalType": "address",
          "name": "account",
          "type": "address"
        }
      ],
      "name": "renounceRole",
      "outputs": [],
      "stateMutability": "nonpayable",
      "type": "function"
    },
    {
      "inputs": [
        {
          "internalType": "bytes32",
          "name": "role",
          "type": "bytes32"
        },
        {
          "internalType": "address",
          "name": "account",
          "type": "address"
        }
      ],
      "name": "revokeRole",
      "outputs": [],
      "stateMutability": "nonpayable",
      "type": "function"
    },
    {
      "inputs": [
        {
          "internalType": "uint256",
          "name": "_tokenId",
          "type": "uint256"
        },
        {
          "internalType": "uint256",
          "name": "_salePrice",
          "type": "uint256"
        }
      ],
      "name": "royaltyInfo",
      "outputs": [
        {
          "internalType": "address",
          "name": "receiver",
          "type": "address"
        },
        {
          "internalType": "uint256",
          "name": "royaltyAmount",
          "type": "uint256"
        }
      ],
      "stateMutability": "view",
      "type": "function"
    },
    {
      "inputs": [],
      "name": "royaltyPercent",
      "outputs": [
        {
          "internalType": "uint256",
          "name": "",
          "type": "uint256"
        }
      ],
      "stateMutability": "view",
      "type": "function"
    },
    {
      "inputs": [
        {
          "internalType": "address",
          "name": "from",
          "type": "address"
        },
        {
          "internalType": "address",
          "name": "to",
          "type": "address"
        },
        {
          "internalType": "uint256",
          "name": "tokenId",
          "type": "uint256"
        }
      ],
      "name": "safeTransferFrom",
      "outputs": [],
      "stateMutability": "nonpayable",
      "type": "function"
    },
    {
      "inputs": [
        {
          "internalType": "address",
          "name": "from",
          "type": "address"
        },
        {
          "internalType": "address",
          "name": "to",
          "type": "address"
        },
        {
          "internalType": "uint256",
          "name": "tokenId",
          "type": "uint256"
        },
        {
          "internalType": "bytes",
          "name": "_data",
          "type": "bytes"
        }
      ],
      "name": "safeTransferFrom",
      "outputs": [],
      "stateMutability": "nonpayable",
      "type": "function"
    },
    {
      "inputs": [
        {
          "internalType": "address",
          "name": "operator",
          "type": "address"
        },
        {
          "internalType": "bool",
          "name": "approved",
          "type": "bool"
        }
      ],
      "name": "setApprovalForAll",
      "outputs": [],
      "stateMutability": "nonpayable",
      "type": "function"
    },
    {
      "inputs": [
        {
          "internalType": "contract IBurnableBalance",
          "name": "burned",
          "type": "address"
        }
      ],
      "name": "setBurned",
      "outputs": [],
      "stateMutability": "nonpayable",
      "type": "function"
    },
    {
      "inputs": [
        {
          "internalType": "string",
          "name": "uri",
          "type": "string"
        }
      ],
      "name": "setURI",
      "outputs": [],
      "stateMutability": "nonpayable",
      "type": "function"
    },
    {
      "inputs": [
        {
          "internalType": "bytes4",
          "name": "interfaceId",
          "type": "bytes4"
        }
      ],
      "name": "supportsInterface",
      "outputs": [
        {
          "internalType": "bool",
          "name": "",
          "type": "bool"
        }
      ],
      "stateMutability": "view",
      "type": "function"
    },
    {
      "inputs": [],
      "name": "symbol",
      "outputs": [
        {
          "internalType": "string",
          "name": "",
          "type": "string"
        }
      ],
      "stateMutability": "pure",
      "type": "function"
    },
    {
      "inputs": [
        {
          "internalType": "uint256",
          "name": "tokenId",
          "type": "uint256"
        }
      ],
      "name": "tokenURI",
      "outputs": [
        {
          "internalType": "string",
          "name": "",
          "type": "string"
        }
      ],
      "stateMutability": "view",
      "type": "function"
    },
    {
      "inputs": [],
      "name": "totalSupply",
      "outputs": [
        {
          "internalType": "uint256",
          "name": "",
          "type": "uint256"
        }
      ],
      "stateMutability": "view",
      "type": "function"
    },
    {
      "inputs": [
        {
          "internalType": "address",
          "name": "from",
          "type": "address"
        },
        {
          "internalType": "address",
          "name": "to",
          "type": "address"
        },
        {
          "internalType": "uint256",
          "name": "tokenId",
          "type": "uint256"
        }
      ],
      "name": "transferFrom",
      "outputs": [],
      "stateMutability": "nonpayable",
      "type": "function"
    },
    {
      "inputs": [
        {
          "internalType": "address",
          "name": "newOwner",
          "type": "address"
        }
      ],
      "name": "transferOwnership",
      "outputs": [],
      "stateMutability": "nonpayable",
      "type": "function"
    },
    {
      "inputs": [],
      "name": "treasury",
      "outputs": [
        {
          "internalType": "contract IRoyaltySplitter",
          "name": "",
          "type": "address"
        }
      ],
      "stateMutability": "view",
      "type": "function"
    },
    {
      "inputs": [
        {
          "internalType": "contract IMetadata",
          "name": "metadata",
          "type": "address"
        }
      ],
      "name": "updateMetadata",
      "outputs": [],
      "stateMutability": "nonpayable",
      "type": "function"
    },
    {
      "inputs": [
        {
          "internalType": "uint256",
          "name": "percent",
          "type": "uint256"
        }
      ],
      "name": "updateRoyalty",
      "outputs": [],
      "stateMutability": "nonpayable",
      "type": "function"
    },
    {
      "inputs": [
        {
          "internalType": "contract IRoyaltySplitter",
          "name": "splitter",
          "type": "address"
        }
      ],
      "name": "updateTreasury",
      "outputs": [],
      "stateMutability": "nonpayable",
      "type": "function"
    },
    {
      "inputs": [
        {
          "internalType": "address",
          "name": "recipient",
          "type": "address"
        }
      ],
      "name": "withdraw",
      "outputs": [],
      "stateMutability": "nonpayable",
      "type": "function"
    }
  ],
  "bytecode": "0x60806040526103e8600d55668e1bc9bf0400006011553480156200002257600080fd5b5060405162002c2e38038062002c2e833981016040819052620000459162000263565b60016000558181620000573362000084565b62000064600082620000d6565b81516200007990600b9060208501906200018a565b505050505062000391565b600180546001600160a01b038381166001600160a01b0319831681179093556040519116919082907f8be0079c531659141344cd1fd0a4f28419497f9722a3daafe3b4186f6b6457e090600090a35050565b620000e28282620000e6565b5050565b60008281526002602090815260408083206001600160a01b038516845290915290205460ff16620000e25760008281526002602090815260408083206001600160a01b03851684529091529020805460ff19166001179055620001463390565b6001600160a01b0316816001600160a01b0316837f2f8788117e7eff1d82e926ec794901d17c78024a50270940304540a733656f0d60405160405180910390a45050565b828054620001989062000354565b90600052602060002090601f016020900481019282620001bc576000855562000207565b82601f10620001d757805160ff191683800117855562000207565b8280016001018555821562000207579182015b8281111562000207578251825591602001919060010190620001ea565b506200021592915062000219565b5090565b5b808211156200021557600081556001016200021a565b634e487b7160e01b600052604160045260246000fd5b80516001600160a01b03811681146200025e57600080fd5b919050565b600080604083850312156200027757600080fd5b82516001600160401b03808211156200028f57600080fd5b818501915085601f830112620002a457600080fd5b815181811115620002b957620002b962000230565b604051601f8201601f19908116603f01168101908382118183101715620002e457620002e462000230565b816040528281526020935088848487010111156200030157600080fd5b600091505b8282101562000325578482018401518183018501529083019062000306565b82821115620003375760008484830101525b95506200034991505085820162000246565b925050509250929050565b600181811c908216806200036957607f821691505b602082108114156200038b57634e487b7160e01b600052602260045260246000fd5b50919050565b61288d80620003a16000396000f3fe6080604052600436106102725760003560e01c806370a082311161014f578063a217fddf116100c1578063c87b56dd1161007a578063c87b56dd146107ed578063d547741f1461080d578063db006a751461082d578063e8a3d4851461084d578063e985e9c514610862578063f2fde38b1461088257600080fd5b8063a217fddf1461072b578063a22cb46514610740578063ad94d90114610760578063b88d4fde14610780578063bba7723e146107a0578063c5e2a7db146107cd57600080fd5b8063910f838011610113578063910f83801461067c57806391d148541461069c57806395d89b41146106bc5780639b70a340146106e85780639f67756d14610702578063a0712d681461071857600080fd5b806370a08231146105e9578063715018a6146106095780637f51bb1f1461061e5780638da5cb5b1461063e5780638fffd8b51461065c57600080fd5b80632f2ff15d116101e857806342966c68116101ac57806342966c681461053357806351cff8d91461055357806358a85bca1461057357806361d027b3146105935780636352211e146105b35780636817c76c146105d357600080fd5b80632f2ff15d1461048a57806332cb6b0c146104aa57806336568abe146104d357806340c10f19146104f357806342842e0e1461051357600080fd5b806318160ddd1161023a57806318160ddd146103755780631e7269c51461039857806323250cae146103c557806323b872dd146103fb578063248a9ca31461041b5780632a55205a1461044b57600080fd5b806301ffc9a71461027757806302fe5305146102ac57806306fdde03146102ce578063081812fc1461031d578063095ea7b314610355575b600080fd5b34801561028357600080fd5b506102976102923660046120a9565b6108a2565b60405190151581526020015b60405180910390f35b3480156102b857600080fd5b506102cc6102c7366004612173565b6108e8565b005b3480156102da57600080fd5b5060408051808201909152601981527f4361736820436f77733a2047686f73742050726f746f636f6c0000000000000060208201525b6040516102a39190612214565b34801561032957600080fd5b5061033d610338366004612227565b61090e565b6040516001600160a01b0390911681526020016102a3565b34801561036157600080fd5b506102cc610370366004612255565b610952565b34801561038157600080fd5b5061038a6109e2565b6040519081526020016102a3565b3480156103a457600080fd5b5061038a6103b3366004612281565b600f6020526000908152604090205481565b3480156103d157600080fd5b5061033d6103e0366004612227565b6009602052600090815260409020546001600160a01b031681565b34801561040757600080fd5b506102cc61041636600461229e565b6109ff565b34801561042757600080fd5b5061038a610436366004612227565b60009081526002602052604090206001015490565b34801561045757600080fd5b5061046b6104663660046122df565b610a10565b604080516001600160a01b0390931683526020830191909152016102a3565b34801561049657600080fd5b506102cc6104a5366004612301565b610a86565b3480156104b657600080fd5b506104c06103e881565b60405161ffff90911681526020016102a3565b3480156104df57600080fd5b506102cc6104ee366004612301565b610aac565b3480156104ff57600080fd5b506102cc61050e366004612255565b610b2b565b34801561051f57600080fd5b506102cc61052e36600461229e565b610bc7565b34801561053f57600080fd5b506102cc61054e366004612227565b610be2565b34801561055f57600080fd5b506102cc61056e366004612281565b610cf7565b34801561057f57600080fd5b506102cc61058e366004612346565b610db0565b34801561059f57600080fd5b50600c5461033d906001600160a01b031681565b3480156105bf57600080fd5b5061033d6105ce366004612227565b610ddd565b3480156105df57600080fd5b5061038a60115481565b3480156105f557600080fd5b5061038a610604366004612281565b610e1c565b34801561061557600080fd5b506102cc610e61565b34801561062a57600080fd5b506102cc610639366004612281565b610e97565b34801561064a57600080fd5b506001546001600160a01b031661033d565b34801561066857600080fd5b506102cc610677366004612227565b610ed3565b34801561068857600080fd5b506102cc610697366004612281565b610f27565b3480156106a857600080fd5b506102976106b7366004612301565b610f63565b3480156106c857600080fd5b506040805180820190915260038152624d555560e81b6020820152610310565b3480156106f457600080fd5b506010546102979060ff1681565b34801561070e57600080fd5b5061038a600d5481565b6102cc610726366004612227565b610f8e565b34801561073757600080fd5b5061038a600081565b34801561074c57600080fd5b506102cc61075b366004612361565b61101c565b34801561076c57600080fd5b5061029761077b366004612396565b611027565b34801561078c57600080fd5b506102cc61079b366004612451565b611094565b3480156107ac57600080fd5b506107c06107bb366004612281565b6110a0565b6040516102a391906124d1565b3480156107d957600080fd5b506102cc6107e8366004612281565b61119f565b3480156107f957600080fd5b50610310610808366004612227565b6111db565b34801561081957600080fd5b506102cc610828366004612301565b611325565b34801561083957600080fd5b506102cc610848366004612227565b61134b565b34801561085957600080fd5b50610310611452565b34801561086e57600080fd5b5061029761087d366004612515565b6114e4565b34801561088e57600080fd5b506102cc61089d366004612281565b611547565b60006001600160e01b03198216635b5e139f60e01b14806108d357506001600160e01b0319821663152a902d60e11b145b806108e257506108e2826115e2565b92915050565b6000805160206128188339815191526109018133611607565b61090a8261166b565b5050565b60006109198261167e565b61093657604051634a1850bf60e11b815260040160405180910390fd5b506000908152600660205260409020546001600160a01b031690565b600061095d826116a7565b9050806001600160a01b0316836001600160a01b031614156109925760405163250fdee360e21b815260040160405180910390fd5b336001600160a01b03821681148015906109b357506109b182826114e4565b155b156109d15760405163250fdee360e21b815260040160405180910390fd5b6109dc848484611764565b50505050565b6000600a546109f060035490565b6109fa9190612559565b905090565b610a0b338484846117c0565b505050565b600c5460009081906001600160a01b03161580610a335750610a318461167e565b155b15610a515760405163574b16a760e11b815260040160405180910390fd5b600c54600d546001600160a01b039091169061271090610a719086612570565b610a7b919061258f565b915091509250929050565b600082815260026020526040902060010154610aa28133611607565b610a0b83836117f3565b6001600160a01b0381163314610b215760405162461bcd60e51b815260206004820152602f60248201527f416363657373436f6e74726f6c3a2063616e206f6e6c792072656e6f756e636560448201526e103937b632b9903337b91039b2b63360891b60648201526084015b60405180910390fd5b61090a8282611879565b7f9f2df0fed2c77648de5860a4cc508cd0818c85b8b8a1ab4ceeef8d981c8956a6610b568133611607565b60026000541415610b795760405162461bcd60e51b8152600401610b18906125b1565b60026000556103e882610b8a6109e2565b610b9491906125e8565b1115610bb35760405163574b16a760e11b815260040160405180910390fd5b610bbd83836118e0565b5050600160005550565b610a0b83838360405180602001604052806000815250611094565b6000610bed826116a7565b9050610bfa3383836118fa565b610c175760405163574b16a760e11b815260040160405180910390fd5b610c2360008383611764565b60018201610c308161167e565b8015610c5157506000818152600460205260409020546001600160a01b0316155b15610c7e57600081815260046020526040902080546001600160a01b0319166001600160a01b0384161790555b50600082815260096020908152604080832080546001600160a01b0386166001600160a01b0319918216811790925581855260058452828520805460001901905586855260049093528184208054909316909255600a805460010190555184929190600080516020612838833981519152908390a45050565b6001546001600160a01b03163314610d215760405162461bcd60e51b8152600401610b1890612600565b60026000541415610d445760405162461bcd60e51b8152600401610b18906125b1565b6002600055600e546001600160a01b0316610d725760405163574b16a760e11b815260040160405180910390fd5b6040516001600160a01b038216904780156108fc02916000818181858888f19350505050158015610da7573d6000803e3d6000fd5b50506001600055565b600080516020612818833981519152610dc98133611607565b506010805460ff1916911515919091179055565b6000818152600960205260408120546001600160a01b031615610e1357604051634a1850bf60e11b815260040160405180910390fd5b6108e2826116a7565b60006001600160a01b038216610e45576040516316285dcb60e11b815260040160405180910390fd5b506001600160a01b031660009081526005602052604090205490565b6001546001600160a01b03163314610e8b5760405162461bcd60e51b8152600401610b1890612600565b610e95600061194d565b565b600080516020612818833981519152610eb08133611607565b50600c80546001600160a01b0319166001600160a01b0392909216919091179055565b7f3b5d4cc60d3ec3516ee8ae083bd60934f6eb2a6c54b1229985c41bfb092b2603610efe8133611607565b6103e8821115610f215760405163574b16a760e11b815260040160405180910390fd5b50600d55565b600080516020612818833981519152610f408133611607565b50601280546001600160a01b0319166001600160a01b0392909216919091179055565b60009182526002602090815260408084206001600160a01b0393909316845291905290205460ff1690565b60026000541415610fb15760405162461bcd60e51b8152600401610b18906125b1565b6002600055601054339060ff161580610fd657503460115483610fd49190612570565b115b80610ff457506103e882610fe86109e2565b610ff291906125e8565b115b156110125760405163574b16a760e11b815260040160405180910390fd5b610da781836118e0565b61090a33838361199f565b6000805b825181101561108a5761105683828151811061104957611049612635565b6020026020010151610ddd565b6001600160a01b0316846001600160a01b0316146110785760009150506108e2565b806110828161264b565b91505061102b565b5060019392505050565b6109dc84848484611a3f565b606060006110ad83610e1c565b9050806110ca575050604080516000815260208101909152919050565b60008167ffffffffffffffff8111156110e5576110e56120c6565b60405190808252806020026020018201604052801561110e578160200160208202803683370190505b509050600061111b6109e2565b9050600060015b8281116111945761113281610ddd565b6001600160a01b0316876001600160a01b03161415611182578084836111578161264b565b94508151811061116957611169612635565b6020026020010181815250508482141561118257611194565b8061118c8161264b565b915050611122565b509195945050505050565b6000805160206128188339815191526111b88133611607565b50600e80546001600160a01b0319166001600160a01b0392909216919091179055565b60606111e68261167e565b6112035760405163574b16a760e11b815260040160405180910390fd5b600e546001600160a01b03166112a557600b805461122090612666565b80601f016020809104026020016040519081016040528092919081815260200182805461124c90612666565b80156112995780601f1061126e57610100808354040283529160200191611299565b820191906000526020600020905b81548152906001019060200180831161127c57829003601f168201915b50505050509050919050565b600e5460405163c87b56dd60e01b8152600481018490526001600160a01b039091169063c87b56dd9060240160006040518083038186803b1580156112e957600080fd5b505afa1580156112fd573d6000803e3d6000fd5b505050506040513d6000823e601f3d908101601f191682016040526108e291908101906126a1565b6000828152600260205260409020600101546113418133611607565b610a0b8383611879565b6000336012546040516370a0823160e01b81526001600160a01b038084166004808401919091529394506000939216906370a082319060240160206040518083038186803b15801561139c57600080fd5b505afa1580156113b0573d6000803e3d6000fd5b505050506040513d601f19601f820116820180604052508101906113d49190612718565b6113de919061258f565b6001600160a01b0383166000908152600f60205260409020549091508111158061142a57506001600160a01b0382166000908152600f602052604090205483906114289083612559565b105b156114485760405163574b16a760e11b815260040160405180910390fd5b610a0b82846118e0565b60606008805461146190612666565b80601f016020809104026020016040519081016040528092919081815260200182805461148d90612666565b80156114da5780601f106114af576101008083540402835291602001916114da565b820191906000526020600020905b8154815290600101906020018083116114bd57829003601f168201915b5050505050905090565b60006115107f4a0c3698e72495f6d49f6ef074f2b34cac5b153c817a7cc37789cccbb873cf5d83610f63565b8061154057506001600160a01b0380841660009081526007602090815260408083209386168352929052205460ff165b9392505050565b6001546001600160a01b031633146115715760405162461bcd60e51b8152600401610b1890612600565b6001600160a01b0381166115d65760405162461bcd60e51b815260206004820152602660248201527f4f776e61626c653a206e6577206f776e657220697320746865207a65726f206160448201526564647265737360d01b6064820152608401610b18565b6115df8161194d565b50565b60006001600160e01b031982166380ac58cd60e01b14806108e257506108e282611a8c565b6116118282610f63565b61090a57611629816001600160a01b03166014611ac1565b611634836020611ac1565b604051602001611645929190612731565b60408051601f198184030181529082905262461bcd60e51b8252610b1891600401612214565b805161090a906008906020840190611ffa565b6000818152600960205260408120546001600160a01b03161580156108e257506108e282611c5d565b60008181526004602052604081205482906001600160a01b0316156116e4576000908152600460205260409020546001600160a01b031692915050565b6000811180156116f657506003548111155b1561174a575b600019018061170a5761174a565b6000818152600460205260409020546001600160a01b031615611745576000908152600460205260409020546001600160a01b031692915050565b6116fc565b50604051634a1850bf60e11b815260040160405180910390fd5b60008281526006602052604080822080546001600160a01b0319166001600160a01b0387811691821790925591518593918516917f8c5be1e5ebec7d5bd14f71427d1e84f3dd0314c0f7b2291e5b200ac8c7c3b92591a4505050565b6117cb8482856118fa565b6117e85760405163574b16a760e11b815260040160405180910390fd5b6109dc838383611c72565b6117fd8282610f63565b61090a5760008281526002602090815260408083206001600160a01b03851684529091529020805460ff191660011790556118353390565b6001600160a01b0316816001600160a01b0316837f2f8788117e7eff1d82e926ec794901d17c78024a50270940304540a733656f0d60405160405180910390a45050565b6118838282610f63565b1561090a5760008281526002602090815260408083206001600160a01b0385168085529252808320805460ff1916905551339285917ff6391f5c32d9c69d2a47ea670b442974b53935d1edc7fd64eb21e047a839171b9190a45050565b61090a828260405180602001604052806000815250611daa565b6000816001600160a01b0316846001600160a01b031614806119355750836001600160a01b031661192a8461090e565b6001600160a01b0316145b80611945575061194582856114e4565b949350505050565b600180546001600160a01b038381166001600160a01b0319831681179093556040519116919082907f8be0079c531659141344cd1fd0a4f28419497f9722a3daafe3b4186f6b6457e090600090a35050565b816001600160a01b0316836001600160a01b031614156119d25760405163079f14e360e51b815260040160405180910390fd5b6001600160a01b03838116600081815260076020908152604080832094871680845294825291829020805460ff191686151590811790915591519182527f17307eab39ab6107e8899845ad3d59bd9653f200f220920489ca2b5937696c31910160405180910390a3505050565b611a4b338585856117c0565b6000836001600160a01b03163b118015611a6e5750611a6c84848484611db7565b155b156109dc57604051631f11849560e21b815260040160405180910390fd5b60006001600160e01b03198216637965db0b60e01b14806108e257506301ffc9a760e01b6001600160e01b03198316146108e2565b60606000611ad0836002612570565b611adb9060026125e8565b67ffffffffffffffff811115611af357611af36120c6565b6040519080825280601f01601f191660200182016040528015611b1d576020820181803683370190505b509050600360fc1b81600081518110611b3857611b38612635565b60200101906001600160f81b031916908160001a905350600f60fb1b81600181518110611b6757611b67612635565b60200101906001600160f81b031916908160001a9053506000611b8b846002612570565b611b969060016125e8565b90505b6001811115611c0e576f181899199a1a9b1b9c1cb0b131b232b360811b85600f1660108110611bca57611bca612635565b1a60f81b828281518110611be057611be0612635565b60200101906001600160f81b031916908160001a90535060049490941c93611c07816127a6565b9050611b99565b5083156115405760405162461bcd60e51b815260206004820181905260248201527f537472696e67733a20686578206c656e67746820696e73756666696369656e746044820152606401610b18565b600080821180156108e2575050600354101590565b6001600160a01b0382161580611ca25750611c8c816116a7565b6001600160a01b0316836001600160a01b031614155b15611cc05760405163574b16a760e11b815260040160405180910390fd5b611ccc60008285611764565b6001600160a01b03808316600081815260056020908152604080832080546001908101909155948816835280832080546000190190558583526004909152902080546001600160a01b0319169091179055600354908201908111801590611d4857506000818152600460205260409020546001600160a01b0316155b15611d7557600081815260046020526040902080546001600160a01b0319166001600160a01b0386161790555b5080826001600160a01b0316846001600160a01b031660008051602061283883398151915260405160405180910390a4505050565b610a0b8383836001611eae565b604051630a85bd0160e11b81526000906001600160a01b0385169063150b7a0290611dec9033908990889088906004016127bd565b602060405180830381600087803b158015611e0657600080fd5b505af1925050508015611e36575060408051601f3d908101601f19168201909252611e33918101906127fa565b60015b611e91573d808015611e64576040519150601f19603f3d011682016040523d82523d6000602084013e611e69565b606091505b508051611e8957604051630568cbab60e01b815260040160405180910390fd5b805181602001fd5b6001600160e01b031916630a85bd0160e11b149050949350505050565b821580611ec257506001600160a01b038416155b15611ee05760405163574b16a760e11b815260040160405180910390fd5b60006003546001611ef191906125e8565b905060038054850190556001600160a01b03851660008181526005602090815260408083208054890190558483526004909152902080546001600160a01b031916909117905580848101838015611f5257506000876001600160a01b03163b115b15611fbe575b60405182906001600160a01b03891690600090600080516020612838833981519152908290a4611f916000888480600101955088611db7565b611fae57604051631f11849560e21b815260040160405180910390fd5b80821415611f58575050506109dc565b5b6040516001830192906001600160a01b03891690600090600080516020612838833981519152908290a480821415611fbf5750505050505050565b82805461200690612666565b90600052602060002090601f016020900481019282612028576000855561206e565b82601f1061204157805160ff191683800117855561206e565b8280016001018555821561206e579182015b8281111561206e578251825591602001919060010190612053565b5061207a92915061207e565b5090565b5b8082111561207a576000815560010161207f565b6001600160e01b0319811681146115df57600080fd5b6000602082840312156120bb57600080fd5b813561154081612093565b634e487b7160e01b600052604160045260246000fd5b604051601f8201601f1916810167ffffffffffffffff81118282101715612105576121056120c6565b604052919050565b600067ffffffffffffffff821115612127576121276120c6565b50601f01601f191660200190565b60006121486121438461210d565b6120dc565b905082815283838301111561215c57600080fd5b828260208301376000602084830101529392505050565b60006020828403121561218557600080fd5b813567ffffffffffffffff81111561219c57600080fd5b8201601f810184136121ad57600080fd5b61194584823560208401612135565b60005b838110156121d75781810151838201526020016121bf565b838111156109dc5750506000910152565b600081518084526122008160208601602086016121bc565b601f01601f19169290920160200192915050565b60208152600061154060208301846121e8565b60006020828403121561223957600080fd5b5035919050565b6001600160a01b03811681146115df57600080fd5b6000806040838503121561226857600080fd5b823561227381612240565b946020939093013593505050565b60006020828403121561229357600080fd5b813561154081612240565b6000806000606084860312156122b357600080fd5b83356122be81612240565b925060208401356122ce81612240565b929592945050506040919091013590565b600080604083850312156122f257600080fd5b50508035926020909101359150565b6000806040838503121561231457600080fd5b82359150602083013561232681612240565b809150509250929050565b8035801515811461234157600080fd5b919050565b60006020828403121561235857600080fd5b61154082612331565b6000806040838503121561237457600080fd5b823561237f81612240565b915061238d60208401612331565b90509250929050565b600080604083850312156123a957600080fd5b82356123b481612240565b915060208381013567ffffffffffffffff808211156123d257600080fd5b818601915086601f8301126123e657600080fd5b8135818111156123f8576123f86120c6565b8060051b91506124098483016120dc565b818152918301840191848101908984111561242357600080fd5b938501935b8385101561244157843582529385019390850190612428565b8096505050505050509250929050565b6000806000806080858703121561246757600080fd5b843561247281612240565b9350602085013561248281612240565b925060408501359150606085013567ffffffffffffffff8111156124a557600080fd5b8501601f810187136124b657600080fd5b6124c587823560208401612135565b91505092959194509250565b6020808252825182820181905260009190848201906040850190845b81811015612509578351835292840192918401916001016124ed565b50909695505050505050565b6000806040838503121561252857600080fd5b823561253381612240565b9150602083013561232681612240565b634e487b7160e01b600052601160045260246000fd5b60008282101561256b5761256b612543565b500390565b600081600019048311821515161561258a5761258a612543565b500290565b6000826125ac57634e487b7160e01b600052601260045260246000fd5b500490565b6020808252601f908201527f5265656e7472616e637947756172643a207265656e7472616e742063616c6c00604082015260600190565b600082198211156125fb576125fb612543565b500190565b6020808252818101527f4f776e61626c653a2063616c6c6572206973206e6f7420746865206f776e6572604082015260600190565b634e487b7160e01b600052603260045260246000fd5b600060001982141561265f5761265f612543565b5060010190565b600181811c9082168061267a57607f821691505b6020821081141561269b57634e487b7160e01b600052602260045260246000fd5b50919050565b6000602082840312156126b357600080fd5b815167ffffffffffffffff8111156126ca57600080fd5b8201601f810184136126db57600080fd5b80516126e96121438261210d565b8181528560208385010111156126fe57600080fd5b61270f8260208301602086016121bc565b95945050505050565b60006020828403121561272a57600080fd5b5051919050565b7f416363657373436f6e74726f6c3a206163636f756e74200000000000000000008152600083516127698160178501602088016121bc565b7001034b99036b4b9b9b4b733903937b6329607d1b601791840191820152835161279a8160288401602088016121bc565b01602801949350505050565b6000816127b5576127b5612543565b506000190190565b6001600160a01b03858116825284166020820152604081018390526080606082018190526000906127f0908301846121e8565b9695505050505050565b60006020828403121561280c57600080fd5b81516115408161209356fe850d585eb7f024ccee5e68e55f2c26cc72e1e6ee456acf62135757a5eb9d4a10ddf252ad1be2c89b69c2b068fc378daa952ba7f163c4a11628f55a4df523b3efa2646970667358221220085f61456495341890066b1c1990084c5a87b3be1f671b8ff883af208625bcb164736f6c63430008090033",
  "linkReferences": {},
  "deployedLinkReferences": {}
}