{
  "_format": "hh-sol-artifact-1",
  "contractName": "CashCowsMarket",
  "sourceName": "contracts/phase4/CashCowsMarket.sol",
  "abi": [
    {
      "inputs": [
        {
          "internalType": "contract IERC20MintableBurnable",
          "name": "milk",
          "type": "address"
        },
        {
          "internalType": "contract IERC20MintableBurnable",
          "name": "dolla",
          "type": "address"
        }
      ],
      "stateMutability": "nonpayable",
      "type": "constructor"
    },
    {
      "inputs": [],
      "name": "InvalidCall",
      "type": "error"
    },
    {
      "anonymous": false,
      "inputs": [
        {
          "indexed": true,
          "internalType": "address",
          "name": "previousOwner",
          "type": "address"
        },
        {
          "indexed": true,
          "internalType": "address",
          "name": "newOwner",
          "type": "address"
        }
      ],
      "name": "OwnershipTransferred",
      "type": "event"
    },
    {
      "inputs": [],
      "name": "DOLLA",
      "outputs": [
        {
          "internalType": "contract IERC20MintableBurnable",
          "name": "",
          "type": "address"
        }
      ],
      "stateMutability": "view",
      "type": "function"
    },
    {
      "inputs": [],
      "name": "MILK",
      "outputs": [
        {
          "internalType": "contract IERC20MintableBurnable",
          "name": "",
          "type": "address"
        }
      ],
      "stateMutability": "view",
      "type": "function"
    },
    {
      "inputs": [],
      "name": "owner",
      "outputs": [
        {
          "internalType": "address",
          "name": "",
          "type": "address"
        }
      ],
      "stateMutability": "view",
      "type": "function"
    },
    {
      "inputs": [],
      "name": "renounceOwnership",
      "outputs": [],
      "stateMutability": "nonpayable",
      "type": "function"
    },
    {
      "inputs": [
        {
          "internalType": "uint256",
          "name": "rate",
          "type": "uint256"
        }
      ],
      "name": "setExchangeRate",
      "outputs": [],
      "stateMutability": "nonpayable",
      "type": "function"
    },
    {
      "inputs": [
        {
          "internalType": "uint256",
          "name": "milk",
          "type": "uint256"
        }
      ],
      "name": "toDolla",
      "outputs": [],
      "stateMutability": "nonpayable",
      "type": "function"
    },
    {
      "inputs": [
        {
          "internalType": "uint256",
          "name": "dolla",
          "type": "uint256"
        }
      ],
      "name": "toMilk",
      "outputs": [],
      "stateMutability": "nonpayable",
      "type": "function"
    },
    {
      "inputs": [
        {
          "internalType": "address",
          "name": "newOwner",
          "type": "address"
        }
      ],
      "name": "transferOwnership",
      "outputs": [],
      "stateMutability": "nonpayable",
      "type": "function"
    }
  ],
  "bytecode": "0x60c060405268056bc75e2d6310000060015534801561001d57600080fd5b506040516106e33803806106e383398101604081905261003c916100c8565b6100453361005c565b6001600160a01b039182166080521660a0526100fb565b600080546001600160a01b038381166001600160a01b0319831681178455604051919092169283917f8be0079c531659141344cd1fd0a4f28419497f9722a3daafe3b4186f6b6457e09190a35050565b80516001600160a01b03811681146100c357600080fd5b919050565b600080604083850312156100db57600080fd5b6100e4836100ac565b91506100f2602084016100ac565b90509250929050565b60805160a0516105a861013b60003960008181610125015281816101e601526102ef01526000818160fe01528181610186015261034f01526105a86000f3fe608060405234801561001057600080fd5b50600436106100885760003560e01c8063db068e0e1161005b578063db068e0e146100e6578063ec04327a146100f9578063ecf0d17d14610120578063f2fde38b1461014757600080fd5b8063672171af1461008d578063715018a6146100a25780638da5cb5b146100aa578063bbe1f262146100d3575b600080fd5b6100a061009b3660046104a5565b61015a565b005b6100a0610284565b6000546001600160a01b03165b6040516001600160a01b03909116815260200160405180910390f35b6100a06100e13660046104a5565b6102c3565b6100a06100f43660046104a5565b61038b565b6100b77f000000000000000000000000000000000000000000000000000000000000000081565b6100b77f000000000000000000000000000000000000000000000000000000000000000081565b6100a06101553660046104be565b6103ba565b60003360405163079cc67960e41b81526001600160a01b038083166004830152602482018590529192507f0000000000000000000000000000000000000000000000000000000000000000909116906379cc679090604401600060405180830381600087803b1580156101cc57600080fd5b505af11580156101e0573d6000803e3d6000fd5b505050507f00000000000000000000000000000000000000000000000000000000000000006001600160a01b03166340c10f19826001548561022291906104ee565b6040516001600160e01b031960e085901b1681526001600160a01b0390921660048301526024820152604401600060405180830381600087803b15801561026857600080fd5b505af115801561027c573d6000803e3d6000fd5b505050505050565b6000546001600160a01b031633146102b75760405162461bcd60e51b81526004016102ae9061051b565b60405180910390fd5b6102c16000610455565b565b60003360405163079cc67960e41b81526001600160a01b038083166004830152602482018590529192507f0000000000000000000000000000000000000000000000000000000000000000909116906379cc679090604401600060405180830381600087803b15801561033557600080fd5b505af1158015610349573d6000803e3d6000fd5b505050507f00000000000000000000000000000000000000000000000000000000000000006001600160a01b03166340c10f1982600154856102229190610550565b6000546001600160a01b031633146103b55760405162461bcd60e51b81526004016102ae9061051b565b600155565b6000546001600160a01b031633146103e45760405162461bcd60e51b81526004016102ae9061051b565b6001600160a01b0381166104495760405162461bcd60e51b815260206004820152602660248201527f4f776e61626c653a206e6577206f776e657220697320746865207a65726f206160448201526564647265737360d01b60648201526084016102ae565b61045281610455565b50565b600080546001600160a01b038381166001600160a01b0319831681178455604051919092169283917f8be0079c531659141344cd1fd0a4f28419497f9722a3daafe3b4186f6b6457e09190a35050565b6000602082840312156104b757600080fd5b5035919050565b6000602082840312156104d057600080fd5b81356001600160a01b03811681146104e757600080fd5b9392505050565b600081600019048311821515161561051657634e487b7160e01b600052601160045260246000fd5b500290565b6020808252818101527f4f776e61626c653a2063616c6c6572206973206e6f7420746865206f776e6572604082015260600190565b60008261056d57634e487b7160e01b600052601260045260246000fd5b50049056fea264697066735822122099c572074c4e63951893c8e152a7c93872f914a61dfe0b985be5773f86c23f4164736f6c63430008090033",
  "linkReferences": {},
  "deployedLinkReferences": {}
}