{
  "_format": "hh-sol-artifact-1",
  "contractName": "CashCowsLoot",
  "sourceName": "contracts/phase4/CashCowsLoot.sol",
  "abi": [
    {
      "inputs": [
        {
          "internalType": "string",
          "name": "_uri",
          "type": "string"
        },
        {
          "internalType": "address",
          "name": "admin",
          "type": "address"
        }
      ],
      "stateMutability": "nonpayable",
      "type": "constructor"
    },
    {
      "inputs": [],
      "name": "InvalidCall",
      "type": "error"
    },
    {
      "anonymous": false,
      "inputs": [
        {
          "indexed": true,
          "internalType": "address",
          "name": "account",
          "type": "address"
        },
        {
          "indexed": true,
          "internalType": "address",
          "name": "operator",
          "type": "address"
        },
        {
          "indexed": false,
          "internalType": "bool",
          "name": "approved",
          "type": "bool"
        }
      ],
      "name": "ApprovalForAll",
      "type": "event"
    },
    {
      "anonymous": false,
      "inputs": [
        {
          "indexed": true,
          "internalType": "address",
          "name": "previousOwner",
          "type": "address"
        },
        {
          "indexed": true,
          "internalType": "address",
          "name": "newOwner",
          "type": "address"
        }
      ],
      "name": "OwnershipTransferred",
      "type": "event"
    },
    {
      "anonymous": false,
      "inputs": [
        {
          "indexed": false,
          "internalType": "address",
          "name": "account",
          "type": "address"
        }
      ],
      "name": "Paused",
      "type": "event"
    },
    {
      "anonymous": false,
      "inputs": [
        {
          "indexed": true,
          "internalType": "bytes32",
          "name": "role",
          "type": "bytes32"
        },
        {
          "indexed": true,
          "internalType": "bytes32",
          "name": "previousAdminRole",
          "type": "bytes32"
        },
        {
          "indexed": true,
          "internalType": "bytes32",
          "name": "newAdminRole",
          "type": "bytes32"
        }
      ],
      "name": "RoleAdminChanged",
      "type": "event"
    },
    {
      "anonymous": false,
      "inputs": [
        {
          "indexed": true,
          "internalType": "bytes32",
          "name": "role",
          "type": "bytes32"
        },
        {
          "indexed": true,
          "internalType": "address",
          "name": "account",
          "type": "address"
        },
        {
          "indexed": true,
          "internalType": "address",
          "name": "sender",
          "type": "address"
        }
      ],
      "name": "RoleGranted",
      "type": "event"
    },
    {
      "anonymous": false,
      "inputs": [
        {
          "indexed": true,
          "internalType": "bytes32",
          "name": "role",
          "type": "bytes32"
        },
        {
          "indexed": true,
          "internalType": "address",
          "name": "account",
          "type": "address"
        },
        {
          "indexed": true,
          "internalType": "address",
          "name": "sender",
          "type": "address"
        }
      ],
      "name": "RoleRevoked",
      "type": "event"
    },
    {
      "anonymous": false,
      "inputs": [
        {
          "indexed": true,
          "internalType": "address",
          "name": "operator",
          "type": "address"
        },
        {
          "indexed": true,
          "internalType": "address",
          "name": "from",
          "type": "address"
        },
        {
          "indexed": true,
          "internalType": "address",
          "name": "to",
          "type": "address"
        },
        {
          "indexed": false,
          "internalType": "uint256[]",
          "name": "ids",
          "type": "uint256[]"
        },
        {
          "indexed": false,
          "internalType": "uint256[]",
          "name": "values",
          "type": "uint256[]"
        }
      ],
      "name": "TransferBatch",
      "type": "event"
    },
    {
      "anonymous": false,
      "inputs": [
        {
          "indexed": true,
          "internalType": "address",
          "name": "operator",
          "type": "address"
        },
        {
          "indexed": true,
          "internalType": "address",
          "name": "from",
          "type": "address"
        },
        {
          "indexed": true,
          "internalType": "address",
          "name": "to",
          "type": "address"
        },
        {
          "indexed": false,
          "internalType": "uint256",
          "name": "id",
          "type": "uint256"
        },
        {
          "indexed": false,
          "internalType": "uint256",
          "name": "value",
          "type": "uint256"
        }
      ],
      "name": "TransferSingle",
      "type": "event"
    },
    {
      "anonymous": false,
      "inputs": [
        {
          "indexed": false,
          "internalType": "string",
          "name": "value",
          "type": "string"
        },
        {
          "indexed": true,
          "internalType": "uint256",
          "name": "id",
          "type": "uint256"
        }
      ],
      "name": "URI",
      "type": "event"
    },
    {
      "anonymous": false,
      "inputs": [
        {
          "indexed": false,
          "internalType": "address",
          "name": "account",
          "type": "address"
        }
      ],
      "name": "Unpaused",
      "type": "event"
    },
    {
      "inputs": [],
      "name": "DEFAULT_ADMIN_ROLE",
      "outputs": [
        {
          "internalType": "bytes32",
          "name": "",
          "type": "bytes32"
        }
      ],
      "stateMutability": "view",
      "type": "function"
    },
    {
      "inputs": [
        {
          "internalType": "address",
          "name": "account",
          "type": "address"
        },
        {
          "internalType": "uint256",
          "name": "id",
          "type": "uint256"
        }
      ],
      "name": "balanceOf",
      "outputs": [
        {
          "internalType": "uint256",
          "name": "",
          "type": "uint256"
        }
      ],
      "stateMutability": "view",
      "type": "function"
    },
    {
      "inputs": [
        {
          "internalType": "address[]",
          "name": "accounts",
          "type": "address[]"
        },
        {
          "internalType": "uint256[]",
          "name": "ids",
          "type": "uint256[]"
        }
      ],
      "name": "balanceOfBatch",
      "outputs": [
        {
          "internalType": "uint256[]",
          "name": "",
          "type": "uint256[]"
        }
      ],
      "stateMutability": "view",
      "type": "function"
    },
    {
      "inputs": [
        {
          "internalType": "address",
          "name": "account",
          "type": "address"
        },
        {
          "internalType": "uint256[]",
          "name": "ids",
          "type": "uint256[]"
        },
        {
          "internalType": "uint256[]",
          "name": "values",
          "type": "uint256[]"
        }
      ],
      "name": "burn",
      "outputs": [],
      "stateMutability": "nonpayable",
      "type": "function"
    },
    {
      "inputs": [
        {
          "internalType": "address",
          "name": "account",
          "type": "address"
        },
        {
          "internalType": "uint256",
          "name": "itemId",
          "type": "uint256"
        },
        {
          "internalType": "uint256",
          "name": "value",
          "type": "uint256"
        }
      ],
      "name": "burn",
      "outputs": [],
      "stateMutability": "nonpayable",
      "type": "function"
    },
    {
      "inputs": [
        {
          "internalType": "bytes32",
          "name": "role",
          "type": "bytes32"
        }
      ],
      "name": "getRoleAdmin",
      "outputs": [
        {
          "internalType": "bytes32",
          "name": "",
          "type": "bytes32"
        }
      ],
      "stateMutability": "view",
      "type": "function"
    },
    {
      "inputs": [
        {
          "internalType": "bytes32",
          "name": "role",
          "type": "bytes32"
        },
        {
          "internalType": "address",
          "name": "account",
          "type": "address"
        }
      ],
      "name": "grantRole",
      "outputs": [],
      "stateMutability": "nonpayable",
      "type": "function"
    },
    {
      "inputs": [
        {
          "internalType": "bytes32",
          "name": "role",
          "type": "bytes32"
        },
        {
          "internalType": "address",
          "name": "account",
          "type": "address"
        }
      ],
      "name": "hasRole",
      "outputs": [
        {
          "internalType": "bool",
          "name": "",
          "type": "bool"
        }
      ],
      "stateMutability": "view",
      "type": "function"
    },
    {
      "inputs": [
        {
          "internalType": "address",
          "name": "owner",
          "type": "address"
        },
        {
          "internalType": "address",
          "name": "operator",
          "type": "address"
        }
      ],
      "name": "isApprovedForAll",
      "outputs": [
        {
          "internalType": "bool",
          "name": "",
          "type": "bool"
        }
      ],
      "stateMutability": "view",
      "type": "function"
    },
    {
      "inputs": [
        {
          "internalType": "uint256",
          "name": "itemId",
          "type": "uint256"
        }
      ],
      "name": "maxSupply",
      "outputs": [
        {
          "internalType": "uint256",
          "name": "",
          "type": "uint256"
        }
      ],
      "stateMutability": "view",
      "type": "function"
    },
    {
      "inputs": [
        {
          "internalType": "address",
          "name": "to",
          "type": "address"
        },
        {
          "internalType": "uint256[]",
          "name": "itemIds",
          "type": "uint256[]"
        },
        {
          "internalType": "uint256[]",
          "name": "amounts",
          "type": "uint256[]"
        },
        {
          "internalType": "bytes",
          "name": "data",
          "type": "bytes"
        }
      ],
      "name": "mint",
      "outputs": [],
      "stateMutability": "nonpayable",
      "type": "function"
    },
    {
      "inputs": [
        {
          "internalType": "address",
          "name": "to",
          "type": "address"
        },
        {
          "internalType": "uint256",
          "name": "itemId",
          "type": "uint256"
        },
        {
          "internalType": "uint256",
          "name": "amount",
          "type": "uint256"
        },
        {
          "internalType": "bytes",
          "name": "data",
          "type": "bytes"
        }
      ],
      "name": "mint",
      "outputs": [],
      "stateMutability": "nonpayable",
      "type": "function"
    },
    {
      "inputs": [],
      "name": "name",
      "outputs": [
        {
          "internalType": "string",
          "name": "",
          "type": "string"
        }
      ],
      "stateMutability": "pure",
      "type": "function"
    },
    {
      "inputs": [],
      "name": "owner",
      "outputs": [
        {
          "internalType": "address",
          "name": "",
          "type": "address"
        }
      ],
      "stateMutability": "view",
      "type": "function"
    },
    {
      "inputs": [],
      "name": "pause",
      "outputs": [],
      "stateMutability": "nonpayable",
      "type": "function"
    },
    {
      "inputs": [],
      "name": "paused",
      "outputs": [
        {
          "internalType": "bool",
          "name": "",
          "type": "bool"
        }
      ],
      "stateMutability": "view",
      "type": "function"
    },
    {
      "inputs": [],
      "name": "renounceOwnership",
      "outputs": [],
      "stateMutability": "nonpayable",
      "type": "function"
    },
    {
      "inputs": [
        {
          "internalType": "bytes32",
          "name": "role",
          "type": "bytes32"
        },
        {
          "internalType": "address",
          "name": "account",
          "type": "address"
        }
      ],
      "name": "renounceRole",
      "outputs": [],
      "stateMutability": "nonpayable",
      "type": "function"
    },
    {
      "inputs": [
        {
          "internalType": "bytes32",
          "name": "role",
          "type": "bytes32"
        },
        {
          "internalType": "address",
          "name": "account",
          "type": "address"
        }
      ],
      "name": "revokeRole",
      "outputs": [],
      "stateMutability": "nonpayable",
      "type": "function"
    },
    {
      "inputs": [
        {
          "internalType": "address",
          "name": "from",
          "type": "address"
        },
        {
          "internalType": "address",
          "name": "to",
          "type": "address"
        },
        {
          "internalType": "uint256[]",
          "name": "ids",
          "type": "uint256[]"
        },
        {
          "internalType": "uint256[]",
          "name": "amounts",
          "type": "uint256[]"
        },
        {
          "internalType": "bytes",
          "name": "data",
          "type": "bytes"
        }
      ],
      "name": "safeBatchTransferFrom",
      "outputs": [],
      "stateMutability": "nonpayable",
      "type": "function"
    },
    {
      "inputs": [
        {
          "internalType": "address",
          "name": "from",
          "type": "address"
        },
        {
          "internalType": "address",
          "name": "to",
          "type": "address"
        },
        {
          "internalType": "uint256",
          "name": "id",
          "type": "uint256"
        },
        {
          "internalType": "uint256",
          "name": "amount",
          "type": "uint256"
        },
        {
          "internalType": "bytes",
          "name": "data",
          "type": "bytes"
        }
      ],
      "name": "safeTransferFrom",
      "outputs": [],
      "stateMutability": "nonpayable",
      "type": "function"
    },
    {
      "inputs": [
        {
          "internalType": "address",
          "name": "operator",
          "type": "address"
        },
        {
          "internalType": "bool",
          "name": "approved",
          "type": "bool"
        }
      ],
      "name": "setApprovalForAll",
      "outputs": [],
      "stateMutability": "nonpayable",
      "type": "function"
    },
    {
      "inputs": [
        {
          "internalType": "uint256",
          "name": "itemId",
          "type": "uint256"
        },
        {
          "internalType": "uint256",
          "name": "itemMax",
          "type": "uint256"
        }
      ],
      "name": "setMaxSupply",
      "outputs": [],
      "stateMutability": "nonpayable",
      "type": "function"
    },
    {
      "inputs": [
        {
          "internalType": "uint256[]",
          "name": "itemIds",
          "type": "uint256[]"
        },
        {
          "internalType": "uint256[]",
          "name": "itemMaxs",
          "type": "uint256[]"
        }
      ],
      "name": "setMaxSupply",
      "outputs": [],
      "stateMutability": "nonpayable",
      "type": "function"
    },
    {
      "inputs": [
        {
          "internalType": "string",
          "name": "uri_",
          "type": "string"
        }
      ],
      "name": "setURI",
      "outputs": [],
      "stateMutability": "nonpayable",
      "type": "function"
    },
    {
      "inputs": [
        {
          "internalType": "bytes4",
          "name": "interfaceId",
          "type": "bytes4"
        }
      ],
      "name": "supportsInterface",
      "outputs": [
        {
          "internalType": "bool",
          "name": "",
          "type": "bool"
        }
      ],
      "stateMutability": "view",
      "type": "function"
    },
    {
      "inputs": [],
      "name": "symbol",
      "outputs": [
        {
          "internalType": "string",
          "name": "",
          "type": "string"
        }
      ],
      "stateMutability": "pure",
      "type": "function"
    },
    {
      "inputs": [
        {
          "internalType": "uint256",
          "name": "itemId",
          "type": "uint256"
        }
      ],
      "name": "totalSupply",
      "outputs": [
        {
          "internalType": "uint256",
          "name": "",
          "type": "uint256"
        }
      ],
      "stateMutability": "view",
      "type": "function"
    },
    {
      "inputs": [
        {
          "internalType": "address",
          "name": "newOwner",
          "type": "address"
        }
      ],
      "name": "transferOwnership",
      "outputs": [],
      "stateMutability": "nonpayable",
      "type": "function"
    },
    {
      "inputs": [],
      "name": "unpause",
      "outputs": [],
      "stateMutability": "nonpayable",
      "type": "function"
    },
    {
      "inputs": [
        {
          "internalType": "uint256",
          "name": "",
          "type": "uint256"
        }
      ],
      "name": "uri",
      "outputs": [
        {
          "internalType": "string",
          "name": "",
          "type": "string"
        }
      ],
      "stateMutability": "view",
      "type": "function"
    }
  ],
  "bytecode": "0x60806040523480156200001157600080fd5b5060405162002faf38038062002faf833981016040819052620000349162000288565b81620000408162000097565b506200004c33620000b0565b6005805460ff191690556200006360008262000102565b6200008f7f65d7a28e3265b37a6474929f336521b332c1681b933f6cb9f3376673440d862a8262000102565b5050620003b6565b8051620000ac906002906020840190620001af565b5050565b600380546001600160a01b038381166001600160a01b0319831681179093556040519116919082907f8be0079c531659141344cd1fd0a4f28419497f9722a3daafe3b4186f6b6457e090600090a35050565b60008281526004602090815260408083206001600160a01b0385168452909152902054620000ac908390839060ff16620000ac5760008281526004602090815260408083206001600160a01b03851684529091529020805460ff191660011790556200016b3390565b6001600160a01b0316816001600160a01b0316837f2f8788117e7eff1d82e926ec794901d17c78024a50270940304540a733656f0d60405160405180910390a45050565b828054620001bd9062000379565b90600052602060002090601f016020900481019282620001e157600085556200022c565b82601f10620001fc57805160ff19168380011785556200022c565b828001600101855582156200022c579182015b828111156200022c5782518255916020019190600101906200020f565b506200023a9291506200023e565b5090565b5b808211156200023a57600081556001016200023f565b634e487b7160e01b600052604160045260246000fd5b80516001600160a01b03811681146200028357600080fd5b919050565b600080604083850312156200029c57600080fd5b82516001600160401b0380821115620002b457600080fd5b818501915085601f830112620002c957600080fd5b815181811115620002de57620002de62000255565b604051601f8201601f19908116603f0116810190838211818310171562000309576200030962000255565b816040528281526020935088848487010111156200032657600080fd5b600091505b828210156200034a57848201840151818301850152908301906200032b565b828211156200035c5760008484830101525b95506200036e9150508582016200026b565b925050509250929050565b600181811c908216806200038e57607f821691505b60208210811415620003b057634e487b7160e01b600052602260045260246000fd5b50919050565b612be980620003c66000396000f3fe608060405234801561001057600080fd5b50600436106101e45760003560e01c8063715018a61161010f578063a22cb465116100a2578063e985e9c511610071578063e985e9c514610447578063f242432a1461045a578063f2fde38b1461046d578063f5298aca1461048057600080fd5b8063a22cb465146103ee578063bd85b03914610401578063c2b936b614610421578063d547741f1461043457600080fd5b80638da5cb5b116100de5780638da5cb5b1461039857806391d14854146103b357806395d89b41146103c6578063a217fddf146103e657600080fd5b8063715018a614610355578063731133e91461035d5780638456cb5914610370578063869f75941461037857600080fd5b80632f2ff15d116101875780633f4ba83a116101565780633f4ba83a1461030f578063440703d7146103175780634e1273f41461032a5780635c975abb1461034a57600080fd5b80632f2ff15d146102c357806336568abe146102d657806337da577c146102e95780633db0f8ab146102fc57600080fd5b806306fdde03116101c357806306fdde03146102475780630e89341c1461027a578063248a9ca31461028d5780632eb2c2d6146102b057600080fd5b8062fdd58e146101e957806301ffc9a71461020f57806302fe530514610232575b600080fd5b6101fc6101f7366004611f9e565b610493565b6040519081526020015b60405180910390f35b61022261021d366004611fde565b61052a565b6040519015158152602001610206565b61024561024036600461209a565b61053b565b005b60408051808201909152600e81526d10d85cda0810dbdddcc8131bdbdd60921b60208201525b6040516102069190612142565b61026d610288366004612155565b610573565b6101fc61029b366004612155565b60009081526004602052604090206001015490565b6102456102be366004612222565b610607565b6102456102d13660046122cb565b61069e565b6102456102e43660046122cb565b6106c9565b6102456102f73660046122f7565b610743565b61024561030a366004612319565b610781565b610245610804565b61024561032536600461238c565b61083a565b61033d610338366004612424565b610944565b6040516102069190612529565b60055460ff16610222565b610245610a6d565b61024561036b36600461253c565b610ad3565b610245610b5b565b6101fc610386366004612155565b60009081526006602052604090205490565b6003546040516001600160a01b039091168152602001610206565b6102226103c13660046122cb565b610b8e565b6040805180820190915260048152631313d3d560e21b602082015261026d565b6101fc600081565b6102456103fc366004612590565b610bb9565b6101fc61040f366004612155565b60009081526007602052604090205490565b61024561042f3660046125cc565b610bc4565b6102456104423660046122cb565b610c6b565b610222610455366004612618565b610c91565b610245610468366004612642565b610cf4565b61024561047b3660046126a6565b610d7b565b61024561048e3660046126c1565b610e43565b60006001600160a01b0383166105045760405162461bcd60e51b815260206004820152602b60248201527f455243313135353a2062616c616e636520717565727920666f7220746865207a60448201526a65726f206164647265737360a81b60648201526084015b60405180910390fd5b506000908152602081815260408083206001600160a01b03949094168352929052205490565b600061053582610ec0565b92915050565b7f850d585eb7f024ccee5e68e55f2c26cc72e1e6ee456acf62135757a5eb9d4a106105668133610ee5565b61056f82610f49565b5050565b606060028054610582906126f4565b80601f01602080910402602001604051908101604052809291908181526020018280546105ae906126f4565b80156105fb5780601f106105d0576101008083540402835291602001916105fb565b820191906000526020600020905b8154815290600101906020018083116105de57829003601f168201915b50505050509050919050565b6001600160a01b03851633148061062357506106238533610c91565b61068a5760405162461bcd60e51b815260206004820152603260248201527f455243313135353a207472616e736665722063616c6c6572206973206e6f74206044820152711bdddb995c881b9bdc88185c1c1c9bdd995960721b60648201526084016104fb565b6106978585858585610f5c565b5050505050565b6000828152600460205260409020600101546106ba8133610ee5565b6106c48383611106565b505050565b6001600160a01b03811633146107395760405162461bcd60e51b815260206004820152602f60248201527f416363657373436f6e74726f6c3a2063616e206f6e6c792072656e6f756e636560448201526e103937b632b9903337b91039b2b63360891b60648201526084016104fb565b61056f828261118c565b7f850d585eb7f024ccee5e68e55f2c26cc72e1e6ee456acf62135757a5eb9d4a1061076e8133610ee5565b5060009182526006602052604090912055565b336001600160a01b03841681148015906107c257506107c07f3c11d16cbaffd01df69ce1c404f6340ee057498f5f00246190ea54220576a84882610b8e565b155b80156107d557506107d38482610c91565b155b156107f35760405163574b16a760e11b815260040160405180910390fd5b6107fe8484846111f3565b50505050565b7f65d7a28e3265b37a6474929f336521b332c1681b933f6cb9f3376673440d862a61082f8133610ee5565b610837611381565b50565b7f9f2df0fed2c77648de5860a4cc508cd0818c85b8b8a1ab4ceeef8d981c8956a66108658133610ee5565b60005b8451811015610937576108ad8582815181106108865761088661272f565b60200260200101518583815181106108a0576108a061272f565b6020026020010151611414565b6108ca5760405163574b16a760e11b815260040160405180910390fd5b8381815181106108dc576108dc61272f565b6020026020010151600760008784815181106108fa576108fa61272f565b60200260200101518152602001908152602001600020600082825461091f919061275b565b9091555081905061092f81612773565b915050610868565b5061069785858585611459565b606081518351146109a95760405162461bcd60e51b815260206004820152602960248201527f455243313135353a206163636f756e747320616e6420696473206c656e677468604482015268040dad2e6dac2e8c6d60bb1b60648201526084016104fb565b600083516001600160401b038111156109c4576109c4611ffb565b6040519080825280602002602001820160405280156109ed578160200160208202803683370190505b50905060005b8451811015610a6557610a38858281518110610a1157610a1161272f565b6020026020010151858381518110610a2b57610a2b61272f565b6020026020010151610493565b828281518110610a4a57610a4a61272f565b6020908102919091010152610a5e81612773565b90506109f3565b509392505050565b6003546001600160a01b03163314610ac75760405162461bcd60e51b815260206004820181905260248201527f4f776e61626c653a2063616c6c6572206973206e6f7420746865206f776e657260448201526064016104fb565b610ad160006115b3565b565b7f9f2df0fed2c77648de5860a4cc508cd0818c85b8b8a1ab4ceeef8d981c8956a6610afe8133610ee5565b610b088484611414565b610b255760405163574b16a760e11b815260040160405180910390fd5b610b3185858585611605565b60008481526007602052604081208054859290610b4f90849061275b565b90915550505050505050565b7f65d7a28e3265b37a6474929f336521b332c1681b933f6cb9f3376673440d862a610b868133610ee5565b6108376116db565b60009182526004602090815260408084206001600160a01b0393909316845291905290205460ff1690565b61056f338383611756565b7f850d585eb7f024ccee5e68e55f2c26cc72e1e6ee456acf62135757a5eb9d4a10610bef8133610ee5565b8151835114610c115760405163574b16a760e11b815260040160405180910390fd5b60005b83518110156107fe57610c59848281518110610c3257610c3261272f565b6020026020010151848381518110610c4c57610c4c61272f565b6020026020010151610743565b80610c6381612773565b915050610c14565b600082815260046020526040902060010154610c878133610ee5565b6106c4838361118c565b6000610cbd7f4a0c3698e72495f6d49f6ef074f2b34cac5b153c817a7cc37789cccbb873cf5d83610b8e565b80610ced57506001600160a01b0380841660009081526001602090815260408083209386168352929052205460ff165b9392505050565b6001600160a01b038516331480610d105750610d108533610c91565b610d6e5760405162461bcd60e51b815260206004820152602960248201527f455243313135353a2063616c6c6572206973206e6f74206f776e6572206e6f7260448201526808185c1c1c9bdd995960ba1b60648201526084016104fb565b6106978585858585611837565b6003546001600160a01b03163314610dd55760405162461bcd60e51b815260206004820181905260248201527f4f776e61626c653a2063616c6c6572206973206e6f7420746865206f776e657260448201526064016104fb565b6001600160a01b038116610e3a5760405162461bcd60e51b815260206004820152602660248201527f4f776e61626c653a206e6577206f776e657220697320746865207a65726f206160448201526564647265737360d01b60648201526084016104fb565b610837816115b3565b336001600160a01b0384168114801590610e845750610e827f3c11d16cbaffd01df69ce1c404f6340ee057498f5f00246190ea54220576a84882610b8e565b155b8015610e975750610e958482610c91565b155b15610eb55760405163574b16a760e11b815260040160405180910390fd5b6107fe848484611954565b60006001600160e01b03198216637965db0b60e01b1480610535575061053582611a55565b610eef8282610b8e565b61056f57610f07816001600160a01b03166014611aa5565b610f12836020611aa5565b604051602001610f2392919061278e565b60408051601f198184030181529082905262461bcd60e51b82526104fb91600401612142565b805161056f906002906020840190611ee9565b8151835114610f7d5760405162461bcd60e51b81526004016104fb90612803565b6001600160a01b038416610fa35760405162461bcd60e51b81526004016104fb9061284b565b33610fb2818787878787611c40565b60005b8451811015611098576000858281518110610fd257610fd261272f565b602002602001015190506000858381518110610ff057610ff061272f565b602090810291909101810151600084815280835260408082206001600160a01b038e1683529093529190912054909150818110156110405760405162461bcd60e51b81526004016104fb90612890565b6000838152602081815260408083206001600160a01b038e8116855292528083208585039055908b1682528120805484929061107d90849061275b565b925050819055505050508061109190612773565b9050610fb5565b50846001600160a01b0316866001600160a01b0316826001600160a01b03167f4a39dc06d4c0dbc64b70af90fd698a233a518aa5d07e595d983b8c0526c8f7fb87876040516110e89291906128da565b60405180910390a46110fe818787878787611c69565b505050505050565b6111108282610b8e565b61056f5760008281526004602090815260408083206001600160a01b03851684529091529020805460ff191660011790556111483390565b6001600160a01b0316816001600160a01b0316837f2f8788117e7eff1d82e926ec794901d17c78024a50270940304540a733656f0d60405160405180910390a45050565b6111968282610b8e565b1561056f5760008281526004602090815260408083206001600160a01b0385168085529252808320805460ff1916905551339285917ff6391f5c32d9c69d2a47ea670b442974b53935d1edc7fd64eb21e047a839171b9190a45050565b6001600160a01b0383166112195760405162461bcd60e51b81526004016104fb90612908565b805182511461123a5760405162461bcd60e51b81526004016104fb90612803565b600033905061125d81856000868660405180602001604052806000815250611c40565b60005b835181101561132257600084828151811061127d5761127d61272f565b60200260200101519050600084838151811061129b5761129b61272f565b602090810291909101810151600084815280835260408082206001600160a01b038c1683529093529190912054909150818110156112eb5760405162461bcd60e51b81526004016104fb9061294b565b6000928352602083815260408085206001600160a01b038b168652909152909220910390558061131a81612773565b915050611260565b5060006001600160a01b0316846001600160a01b0316826001600160a01b03167f4a39dc06d4c0dbc64b70af90fd698a233a518aa5d07e595d983b8c0526c8f7fb86866040516113739291906128da565b60405180910390a450505050565b60055460ff166113ca5760405162461bcd60e51b815260206004820152601460248201527314185d5cd8589b194e881b9bdd081c185d5cd95960621b60448201526064016104fb565b6005805460ff191690557f5db9ee0a495bf2e6ff9c91a7834c1ba4fdd244a5e8aa4e537bd38aeae4b073aa335b6040516001600160a01b03909116815260200160405180910390a1565b6000828152600660205260408120541580610ced575060008381526006602090815260408083205460079092529091205461145090849061275b565b11159392505050565b6001600160a01b03841661147f5760405162461bcd60e51b81526004016104fb9061298f565b81518351146114a05760405162461bcd60e51b81526004016104fb90612803565b336114b081600087878787611c40565b60005b845181101561154b578381815181106114ce576114ce61272f565b60200260200101516000808784815181106114eb576114eb61272f565b602002602001015181526020019081526020016000206000886001600160a01b03166001600160a01b031681526020019081526020016000206000828254611533919061275b565b9091555081905061154381612773565b9150506114b3565b50846001600160a01b031660006001600160a01b0316826001600160a01b03167f4a39dc06d4c0dbc64b70af90fd698a233a518aa5d07e595d983b8c0526c8f7fb878760405161159c9291906128da565b60405180910390a461069781600087878787611c69565b600380546001600160a01b038381166001600160a01b0319831681179093556040519116919082907f8be0079c531659141344cd1fd0a4f28419497f9722a3daafe3b4186f6b6457e090600090a35050565b6001600160a01b03841661162b5760405162461bcd60e51b81526004016104fb9061298f565b3361164b8160008761163c88611dd4565b61164588611dd4565b87611c40565b6000848152602081815260408083206001600160a01b03891684529091528120805485929061167b90849061275b565b909155505060408051858152602081018590526001600160a01b0380881692600092918516917fc3d58168c5ae7397731d063d5bbf3d657854427343f4c083240f7aacaa2d0f62910160405180910390a461069781600087878787611e1f565b60055460ff16156117215760405162461bcd60e51b815260206004820152601060248201526f14185d5cd8589b194e881c185d5cd95960821b60448201526064016104fb565b6005805460ff191660011790557f62e78cea01bee320cd4e420270b5ea74000d11b0c9f74754ebdbfc544b05a2586113f73390565b816001600160a01b0316836001600160a01b031614156117ca5760405162461bcd60e51b815260206004820152602960248201527f455243313135353a2073657474696e6720617070726f76616c20737461747573604482015268103337b91039b2b63360b91b60648201526084016104fb565b6001600160a01b03838116600081815260016020908152604080832094871680845294825291829020805460ff191686151590811790915591519182527f17307eab39ab6107e8899845ad3d59bd9653f200f220920489ca2b5937696c31910160405180910390a3505050565b6001600160a01b03841661185d5760405162461bcd60e51b81526004016104fb9061284b565b3361186d81878761163c88611dd4565b6000848152602081815260408083206001600160a01b038a168452909152902054838110156118ae5760405162461bcd60e51b81526004016104fb90612890565b6000858152602081815260408083206001600160a01b038b81168552925280832087850390559088168252812080548692906118eb90849061275b565b909155505060408051868152602081018690526001600160a01b03808916928a821692918616917fc3d58168c5ae7397731d063d5bbf3d657854427343f4c083240f7aacaa2d0f62910160405180910390a461194b828888888888611e1f565b50505050505050565b6001600160a01b03831661197a5760405162461bcd60e51b81526004016104fb90612908565b336119a98185600061198b87611dd4565b61199487611dd4565b60405180602001604052806000815250611c40565b6000838152602081815260408083206001600160a01b0388168452909152902054828110156119ea5760405162461bcd60e51b81526004016104fb9061294b565b6000848152602081815260408083206001600160a01b03898116808652918452828520888703905582518981529384018890529092908616917fc3d58168c5ae7397731d063d5bbf3d657854427343f4c083240f7aacaa2d0f62910160405180910390a45050505050565b60006001600160e01b03198216636cdb3d1360e11b1480611a8657506001600160e01b031982166303a24d0760e21b145b8061053557506301ffc9a760e01b6001600160e01b0319831614610535565b60606000611ab48360026129d0565b611abf90600261275b565b6001600160401b03811115611ad657611ad6611ffb565b6040519080825280601f01601f191660200182016040528015611b00576020820181803683370190505b509050600360fc1b81600081518110611b1b57611b1b61272f565b60200101906001600160f81b031916908160001a905350600f60fb1b81600181518110611b4a57611b4a61272f565b60200101906001600160f81b031916908160001a9053506000611b6e8460026129d0565b611b7990600161275b565b90505b6001811115611bf1576f181899199a1a9b1b9c1cb0b131b232b360811b85600f1660108110611bad57611bad61272f565b1a60f81b828281518110611bc357611bc361272f565b60200101906001600160f81b031916908160001a90535060049490941c93611bea816129ef565b9050611b7c565b508315610ced5760405162461bcd60e51b815260206004820181905260248201527f537472696e67733a20686578206c656e67746820696e73756666696369656e7460448201526064016104fb565b60055460ff1615611c645760405163574b16a760e11b815260040160405180910390fd5b6110fe565b6001600160a01b0384163b156110fe5760405163bc197c8160e01b81526001600160a01b0385169063bc197c8190611cad9089908990889088908890600401612a06565b602060405180830381600087803b158015611cc757600080fd5b505af1925050508015611cf7575060408051601f3d908101601f19168201909252611cf491810190612a64565b60015b611da457611d03612a81565b806308c379a01415611d3d5750611d18612a9d565b80611d235750611d3f565b8060405162461bcd60e51b81526004016104fb9190612142565b505b60405162461bcd60e51b815260206004820152603460248201527f455243313135353a207472616e7366657220746f206e6f6e20455243313135356044820152732932b1b2b4bb32b91034b6b83632b6b2b73a32b960611b60648201526084016104fb565b6001600160e01b0319811663bc197c8160e01b1461194b5760405162461bcd60e51b81526004016104fb90612b26565b60408051600180825281830190925260609160009190602080830190803683370190505090508281600081518110611e0e57611e0e61272f565b602090810291909101015292915050565b6001600160a01b0384163b156110fe5760405163f23a6e6160e01b81526001600160a01b0385169063f23a6e6190611e639089908990889088908890600401612b6e565b602060405180830381600087803b158015611e7d57600080fd5b505af1925050508015611ead575060408051601f3d908101601f19168201909252611eaa91810190612a64565b60015b611eb957611d03612a81565b6001600160e01b0319811663f23a6e6160e01b1461194b5760405162461bcd60e51b81526004016104fb90612b26565b828054611ef5906126f4565b90600052602060002090601f016020900481019282611f175760008555611f5d565b82601f10611f3057805160ff1916838001178555611f5d565b82800160010185558215611f5d579182015b82811115611f5d578251825591602001919060010190611f42565b50611f69929150611f6d565b5090565b5b80821115611f695760008155600101611f6e565b80356001600160a01b0381168114611f9957600080fd5b919050565b60008060408385031215611fb157600080fd5b611fba83611f82565b946020939093013593505050565b6001600160e01b03198116811461083757600080fd5b600060208284031215611ff057600080fd5b8135610ced81611fc8565b634e487b7160e01b600052604160045260246000fd5b601f8201601f191681016001600160401b038111828210171561203657612036611ffb565b6040525050565b60006001600160401b0383111561205657612056611ffb565b60405161206d601f8501601f191660200182612011565b80915083815284848401111561208257600080fd5b83836020830137600060208583010152509392505050565b6000602082840312156120ac57600080fd5b81356001600160401b038111156120c257600080fd5b8201601f810184136120d357600080fd5b6120e28482356020840161203d565b949350505050565b60005b838110156121055781810151838201526020016120ed565b838111156107fe5750506000910152565b6000815180845261212e8160208601602086016120ea565b601f01601f19169290920160200192915050565b602081526000610ced6020830184612116565b60006020828403121561216757600080fd5b5035919050565b60006001600160401b0382111561218757612187611ffb565b5060051b60200190565b600082601f8301126121a257600080fd5b813560206121af8261216e565b6040516121bc8282612011565b83815260059390931b85018201928281019150868411156121dc57600080fd5b8286015b848110156121f757803583529183019183016121e0565b509695505050505050565b600082601f83011261221357600080fd5b610ced8383356020850161203d565b600080600080600060a0868803121561223a57600080fd5b61224386611f82565b945061225160208701611f82565b935060408601356001600160401b038082111561226d57600080fd5b61227989838a01612191565b9450606088013591508082111561228f57600080fd5b61229b89838a01612191565b935060808801359150808211156122b157600080fd5b506122be88828901612202565b9150509295509295909350565b600080604083850312156122de57600080fd5b823591506122ee60208401611f82565b90509250929050565b6000806040838503121561230a57600080fd5b50508035926020909101359150565b60008060006060848603121561232e57600080fd5b61233784611f82565b925060208401356001600160401b038082111561235357600080fd5b61235f87838801612191565b9350604086013591508082111561237557600080fd5b5061238286828701612191565b9150509250925092565b600080600080608085870312156123a257600080fd5b6123ab85611f82565b935060208501356001600160401b03808211156123c757600080fd5b6123d388838901612191565b945060408701359150808211156123e957600080fd5b6123f588838901612191565b9350606087013591508082111561240b57600080fd5b5061241887828801612202565b91505092959194509250565b6000806040838503121561243757600080fd5b82356001600160401b038082111561244e57600080fd5b818501915085601f83011261246257600080fd5b8135602061246f8261216e565b60405161247c8282612011565b83815260059390931b850182019282810191508984111561249c57600080fd5b948201945b838610156124c1576124b286611f82565b825294820194908201906124a1565b965050860135925050808211156124d757600080fd5b506124e485828601612191565b9150509250929050565b600081518084526020808501945080840160005b8381101561251e57815187529582019590820190600101612502565b509495945050505050565b602081526000610ced60208301846124ee565b6000806000806080858703121561255257600080fd5b61255b85611f82565b9350602085013592506040850135915060608501356001600160401b0381111561258457600080fd5b61241887828801612202565b600080604083850312156125a357600080fd5b6125ac83611f82565b9150602083013580151581146125c157600080fd5b809150509250929050565b600080604083850312156125df57600080fd5b82356001600160401b03808211156125f657600080fd5b61260286838701612191565b935060208501359150808211156124d757600080fd5b6000806040838503121561262b57600080fd5b61263483611f82565b91506122ee60208401611f82565b600080600080600060a0868803121561265a57600080fd5b61266386611f82565b945061267160208701611f82565b9350604086013592506060860135915060808601356001600160401b0381111561269a57600080fd5b6122be88828901612202565b6000602082840312156126b857600080fd5b610ced82611f82565b6000806000606084860312156126d657600080fd5b6126df84611f82565b95602085013595506040909401359392505050565b600181811c9082168061270857607f821691505b6020821081141561272957634e487b7160e01b600052602260045260246000fd5b50919050565b634e487b7160e01b600052603260045260246000fd5b634e487b7160e01b600052601160045260246000fd5b6000821982111561276e5761276e612745565b500190565b600060001982141561278757612787612745565b5060010190565b7f416363657373436f6e74726f6c3a206163636f756e74200000000000000000008152600083516127c68160178501602088016120ea565b7001034b99036b4b9b9b4b733903937b6329607d1b60179184019182015283516127f78160288401602088016120ea565b01602801949350505050565b60208082526028908201527f455243313135353a2069647320616e6420616d6f756e7473206c656e677468206040820152670dad2e6dac2e8c6d60c31b606082015260800190565b60208082526025908201527f455243313135353a207472616e7366657220746f20746865207a65726f206164604082015264647265737360d81b606082015260800190565b6020808252602a908201527f455243313135353a20696e73756666696369656e742062616c616e636520666f60408201526939103a3930b739b332b960b11b606082015260800190565b6040815260006128ed60408301856124ee565b82810360208401526128ff81856124ee565b95945050505050565b60208082526023908201527f455243313135353a206275726e2066726f6d20746865207a65726f206164647260408201526265737360e81b606082015260800190565b60208082526024908201527f455243313135353a206275726e20616d6f756e7420657863656564732062616c604082015263616e636560e01b606082015260800190565b60208082526021908201527f455243313135353a206d696e7420746f20746865207a65726f206164647265736040820152607360f81b606082015260800190565b60008160001904831182151516156129ea576129ea612745565b500290565b6000816129fe576129fe612745565b506000190190565b6001600160a01b0386811682528516602082015260a060408201819052600090612a32908301866124ee565b8281036060840152612a4481866124ee565b90508281036080840152612a588185612116565b98975050505050505050565b600060208284031215612a7657600080fd5b8151610ced81611fc8565b600060033d1115612a9a5760046000803e5060005160e01c5b90565b600060443d1015612aab5790565b6040516003193d81016004833e81513d6001600160401b038160248401118184111715612ada57505050505090565b8285019150815181811115612af25750505050505090565b843d8701016020828501011115612b0c5750505050505090565b612b1b60208286010187612011565b509095945050505050565b60208082526028908201527f455243313135353a204552433131353552656365697665722072656a656374656040820152676420746f6b656e7360c01b606082015260800190565b6001600160a01b03868116825285166020820152604081018490526060810183905260a060808201819052600090612ba890830184612116565b97965050505050505056fea2646970667358221220aefd543ff4ca5a194a58193dd996613d0bba851a2571a31289e1e8865bad447e64736f6c63430008090033",
  "linkReferences": {},
  "deployedLinkReferences": {}
}