{
  "_format": "hh-sol-artifact-1",
  "contractName": "CashCowsLoot",
  "sourceName": "contracts/phase4/CashCowsLoot.sol",
  "abi": [
    {
      "inputs": [
        {
          "internalType": "address",
          "name": "admin",
          "type": "address"
        }
      ],
      "stateMutability": "nonpayable",
      "type": "constructor"
    },
    {
      "inputs": [],
      "name": "InvalidCall",
      "type": "error"
    },
    {
      "anonymous": false,
      "inputs": [
        {
          "indexed": true,
          "internalType": "address",
          "name": "owner",
          "type": "address"
        },
        {
          "indexed": true,
          "internalType": "address",
          "name": "approved",
          "type": "address"
        },
        {
          "indexed": true,
          "internalType": "uint256",
          "name": "tokenId",
          "type": "uint256"
        }
      ],
      "name": "Approval",
      "type": "event"
    },
    {
      "anonymous": false,
      "inputs": [
        {
          "indexed": true,
          "internalType": "address",
          "name": "owner",
          "type": "address"
        },
        {
          "indexed": true,
          "internalType": "address",
          "name": "operator",
          "type": "address"
        },
        {
          "indexed": false,
          "internalType": "bool",
          "name": "approved",
          "type": "bool"
        }
      ],
      "name": "ApprovalForAll",
      "type": "event"
    },
    {
      "anonymous": false,
      "inputs": [
        {
          "indexed": true,
          "internalType": "address",
          "name": "previousOwner",
          "type": "address"
        },
        {
          "indexed": true,
          "internalType": "address",
          "name": "newOwner",
          "type": "address"
        }
      ],
      "name": "OwnershipTransferred",
      "type": "event"
    },
    {
      "anonymous": false,
      "inputs": [
        {
          "indexed": false,
          "internalType": "address",
          "name": "account",
          "type": "address"
        }
      ],
      "name": "Paused",
      "type": "event"
    },
    {
      "anonymous": false,
      "inputs": [
        {
          "indexed": true,
          "internalType": "bytes32",
          "name": "role",
          "type": "bytes32"
        },
        {
          "indexed": true,
          "internalType": "bytes32",
          "name": "previousAdminRole",
          "type": "bytes32"
        },
        {
          "indexed": true,
          "internalType": "bytes32",
          "name": "newAdminRole",
          "type": "bytes32"
        }
      ],
      "name": "RoleAdminChanged",
      "type": "event"
    },
    {
      "anonymous": false,
      "inputs": [
        {
          "indexed": true,
          "internalType": "bytes32",
          "name": "role",
          "type": "bytes32"
        },
        {
          "indexed": true,
          "internalType": "address",
          "name": "account",
          "type": "address"
        },
        {
          "indexed": true,
          "internalType": "address",
          "name": "sender",
          "type": "address"
        }
      ],
      "name": "RoleGranted",
      "type": "event"
    },
    {
      "anonymous": false,
      "inputs": [
        {
          "indexed": true,
          "internalType": "bytes32",
          "name": "role",
          "type": "bytes32"
        },
        {
          "indexed": true,
          "internalType": "address",
          "name": "account",
          "type": "address"
        },
        {
          "indexed": true,
          "internalType": "address",
          "name": "sender",
          "type": "address"
        }
      ],
      "name": "RoleRevoked",
      "type": "event"
    },
    {
      "anonymous": false,
      "inputs": [
        {
          "indexed": true,
          "internalType": "address",
          "name": "from",
          "type": "address"
        },
        {
          "indexed": true,
          "internalType": "address",
          "name": "to",
          "type": "address"
        },
        {
          "indexed": true,
          "internalType": "uint256",
          "name": "tokenId",
          "type": "uint256"
        }
      ],
      "name": "Transfer",
      "type": "event"
    },
    {
      "anonymous": false,
      "inputs": [
        {
          "indexed": false,
          "internalType": "address",
          "name": "account",
          "type": "address"
        }
      ],
      "name": "Unpaused",
      "type": "event"
    },
    {
      "inputs": [],
      "name": "DEFAULT_ADMIN_ROLE",
      "outputs": [
        {
          "internalType": "bytes32",
          "name": "",
          "type": "bytes32"
        }
      ],
      "stateMutability": "view",
      "type": "function"
    },
    {
      "inputs": [],
      "name": "_CURATOR_ROLE",
      "outputs": [
        {
          "internalType": "bytes32",
          "name": "",
          "type": "bytes32"
        }
      ],
      "stateMutability": "view",
      "type": "function"
    },
    {
      "inputs": [],
      "name": "_FUNDER_ROLE",
      "outputs": [
        {
          "internalType": "bytes32",
          "name": "",
          "type": "bytes32"
        }
      ],
      "stateMutability": "view",
      "type": "function"
    },
    {
      "inputs": [],
      "name": "_MINTER_ROLE",
      "outputs": [
        {
          "internalType": "bytes32",
          "name": "",
          "type": "bytes32"
        }
      ],
      "stateMutability": "view",
      "type": "function"
    },
    {
      "inputs": [],
      "name": "_PAUSER_ROLE",
      "outputs": [
        {
          "internalType": "bytes32",
          "name": "",
          "type": "bytes32"
        }
      ],
      "stateMutability": "view",
      "type": "function"
    },
    {
      "inputs": [
        {
          "internalType": "string",
          "name": "uri",
          "type": "string"
        },
        {
          "internalType": "uint256",
          "name": "max",
          "type": "uint256"
        }
      ],
      "name": "add",
      "outputs": [],
      "stateMutability": "nonpayable",
      "type": "function"
    },
    {
      "inputs": [
        {
          "internalType": "address",
          "name": "",
          "type": "address"
        },
        {
          "internalType": "uint256",
          "name": "",
          "type": "uint256"
        }
      ],
      "name": "approve",
      "outputs": [],
      "stateMutability": "pure",
      "type": "function"
    },
    {
      "inputs": [
        {
          "internalType": "address",
          "name": "collection",
          "type": "address"
        },
        {
          "internalType": "uint256",
          "name": "token",
          "type": "uint256"
        }
      ],
      "name": "balanceOf",
      "outputs": [
        {
          "internalType": "uint256",
          "name": "",
          "type": "uint256"
        }
      ],
      "stateMutability": "view",
      "type": "function"
    },
    {
      "inputs": [
        {
          "internalType": "address",
          "name": "owner",
          "type": "address"
        }
      ],
      "name": "balanceOf",
      "outputs": [
        {
          "internalType": "uint256",
          "name": "",
          "type": "uint256"
        }
      ],
      "stateMutability": "view",
      "type": "function"
    },
    {
      "inputs": [
        {
          "internalType": "uint256",
          "name": "tokenId",
          "type": "uint256"
        }
      ],
      "name": "burn",
      "outputs": [],
      "stateMutability": "nonpayable",
      "type": "function"
    },
    {
      "inputs": [
        {
          "internalType": "contract IERC20",
          "name": "token",
          "type": "address"
        },
        {
          "internalType": "bool",
          "name": "burnable",
          "type": "bool"
        }
      ],
      "name": "burnTokens",
      "outputs": [],
      "stateMutability": "nonpayable",
      "type": "function"
    },
    {
      "inputs": [
        {
          "internalType": "uint256",
          "name": "tokenId",
          "type": "uint256"
        }
      ],
      "name": "collectionIdOf",
      "outputs": [
        {
          "internalType": "uint256",
          "name": "",
          "type": "uint256"
        }
      ],
      "stateMutability": "view",
      "type": "function"
    },
    {
      "inputs": [
        {
          "internalType": "uint256",
          "name": "tokenId",
          "type": "uint256"
        }
      ],
      "name": "collectionOf",
      "outputs": [
        {
          "internalType": "address",
          "name": "collection",
          "type": "address"
        },
        {
          "internalType": "uint256",
          "name": "token",
          "type": "uint256"
        }
      ],
      "stateMutability": "view",
      "type": "function"
    },
    {
      "inputs": [
        {
          "internalType": "address",
          "name": "collection",
          "type": "address"
        },
        {
          "internalType": "uint256",
          "name": "token",
          "type": "uint256"
        },
        {
          "internalType": "uint256",
          "name": "lootId",
          "type": "uint256"
        }
      ],
      "name": "exists",
      "outputs": [
        {
          "internalType": "bool",
          "name": "",
          "type": "bool"
        }
      ],
      "stateMutability": "view",
      "type": "function"
    },
    {
      "inputs": [
        {
          "internalType": "uint256",
          "name": "",
          "type": "uint256"
        }
      ],
      "name": "getApproved",
      "outputs": [
        {
          "internalType": "address",
          "name": "",
          "type": "address"
        }
      ],
      "stateMutability": "pure",
      "type": "function"
    },
    {
      "inputs": [
        {
          "internalType": "bytes32",
          "name": "role",
          "type": "bytes32"
        }
      ],
      "name": "getRoleAdmin",
      "outputs": [
        {
          "internalType": "bytes32",
          "name": "",
          "type": "bytes32"
        }
      ],
      "stateMutability": "view",
      "type": "function"
    },
    {
      "inputs": [
        {
          "internalType": "bytes32",
          "name": "role",
          "type": "bytes32"
        },
        {
          "internalType": "address",
          "name": "account",
          "type": "address"
        }
      ],
      "name": "grantRole",
      "outputs": [],
      "stateMutability": "nonpayable",
      "type": "function"
    },
    {
      "inputs": [
        {
          "internalType": "bytes32",
          "name": "role",
          "type": "bytes32"
        },
        {
          "internalType": "address",
          "name": "account",
          "type": "address"
        }
      ],
      "name": "hasRole",
      "outputs": [
        {
          "internalType": "bool",
          "name": "",
          "type": "bool"
        }
      ],
      "stateMutability": "view",
      "type": "function"
    },
    {
      "inputs": [
        {
          "internalType": "address",
          "name": "",
          "type": "address"
        },
        {
          "internalType": "address",
          "name": "",
          "type": "address"
        }
      ],
      "name": "isApprovedForAll",
      "outputs": [
        {
          "internalType": "bool",
          "name": "",
          "type": "bool"
        }
      ],
      "stateMutability": "pure",
      "type": "function"
    },
    {
      "inputs": [],
      "name": "lastId",
      "outputs": [
        {
          "internalType": "uint256",
          "name": "",
          "type": "uint256"
        }
      ],
      "stateMutability": "view",
      "type": "function"
    },
    {
      "inputs": [],
      "name": "lastLootId",
      "outputs": [
        {
          "internalType": "uint256",
          "name": "",
          "type": "uint256"
        }
      ],
      "stateMutability": "view",
      "type": "function"
    },
    {
      "inputs": [
        {
          "internalType": "uint256",
          "name": "tokenId",
          "type": "uint256"
        }
      ],
      "name": "lastOwnerOf",
      "outputs": [
        {
          "internalType": "address",
          "name": "",
          "type": "address"
        }
      ],
      "stateMutability": "view",
      "type": "function"
    },
    {
      "inputs": [
        {
          "internalType": "uint256",
          "name": "tokenId",
          "type": "uint256"
        }
      ],
      "name": "lootOf",
      "outputs": [
        {
          "internalType": "uint256",
          "name": "",
          "type": "uint256"
        }
      ],
      "stateMutability": "view",
      "type": "function"
    },
    {
      "inputs": [
        {
          "internalType": "uint256",
          "name": "lootId",
          "type": "uint256"
        }
      ],
      "name": "lootURI",
      "outputs": [
        {
          "internalType": "string",
          "name": "",
          "type": "string"
        }
      ],
      "stateMutability": "view",
      "type": "function"
    },
    {
      "inputs": [
        {
          "internalType": "address",
          "name": "collection",
          "type": "address"
        },
        {
          "internalType": "uint256",
          "name": "token",
          "type": "uint256"
        }
      ],
      "name": "loots",
      "outputs": [
        {
          "internalType": "uint256[]",
          "name": "",
          "type": "uint256[]"
        }
      ],
      "stateMutability": "view",
      "type": "function"
    },
    {
      "inputs": [
        {
          "internalType": "uint256",
          "name": "lootId",
          "type": "uint256"
        }
      ],
      "name": "maxSupply",
      "outputs": [
        {
          "internalType": "uint256",
          "name": "",
          "type": "uint256"
        }
      ],
      "stateMutability": "view",
      "type": "function"
    },
    {
      "inputs": [
        {
          "internalType": "address",
          "name": "collection",
          "type": "address"
        },
        {
          "internalType": "uint256",
          "name": "token",
          "type": "uint256"
        },
        {
          "internalType": "uint256",
          "name": "lootId",
          "type": "uint256"
        }
      ],
      "name": "mint",
      "outputs": [],
      "stateMutability": "nonpayable",
      "type": "function"
    },
    {
      "inputs": [
        {
          "internalType": "address",
          "name": "collection",
          "type": "address"
        },
        {
          "internalType": "uint256",
          "name": "token",
          "type": "uint256"
        },
        {
          "internalType": "uint256",
          "name": "lootId",
          "type": "uint256"
        },
        {
          "internalType": "address",
          "name": "payment",
          "type": "address"
        },
        {
          "internalType": "uint256",
          "name": "price",
          "type": "uint256"
        },
        {
          "internalType": "bytes",
          "name": "proof",
          "type": "bytes"
        }
      ],
      "name": "mint",
      "outputs": [],
      "stateMutability": "nonpayable",
      "type": "function"
    },
    {
      "inputs": [
        {
          "internalType": "address",
          "name": "collection",
          "type": "address"
        },
        {
          "internalType": "uint256",
          "name": "token",
          "type": "uint256"
        },
        {
          "internalType": "uint256",
          "name": "lootId",
          "type": "uint256"
        },
        {
          "internalType": "uint256",
          "name": "price",
          "type": "uint256"
        },
        {
          "internalType": "bytes",
          "name": "proof",
          "type": "bytes"
        }
      ],
      "name": "mint",
      "outputs": [],
      "stateMutability": "payable",
      "type": "function"
    },
    {
      "inputs": [],
      "name": "name",
      "outputs": [
        {
          "internalType": "string",
          "name": "",
          "type": "string"
        }
      ],
      "stateMutability": "pure",
      "type": "function"
    },
    {
      "inputs": [],
      "name": "owner",
      "outputs": [
        {
          "internalType": "address",
          "name": "",
          "type": "address"
        }
      ],
      "stateMutability": "view",
      "type": "function"
    },
    {
      "inputs": [
        {
          "internalType": "uint256",
          "name": "tokenId",
          "type": "uint256"
        }
      ],
      "name": "ownerOf",
      "outputs": [
        {
          "internalType": "address",
          "name": "",
          "type": "address"
        }
      ],
      "stateMutability": "view",
      "type": "function"
    },
    {
      "inputs": [],
      "name": "pause",
      "outputs": [],
      "stateMutability": "nonpayable",
      "type": "function"
    },
    {
      "inputs": [],
      "name": "paused",
      "outputs": [
        {
          "internalType": "bool",
          "name": "",
          "type": "bool"
        }
      ],
      "stateMutability": "view",
      "type": "function"
    },
    {
      "inputs": [],
      "name": "renounceOwnership",
      "outputs": [],
      "stateMutability": "nonpayable",
      "type": "function"
    },
    {
      "inputs": [
        {
          "internalType": "bytes32",
          "name": "role",
          "type": "bytes32"
        },
        {
          "internalType": "address",
          "name": "account",
          "type": "address"
        }
      ],
      "name": "renounceRole",
      "outputs": [],
      "stateMutability": "nonpayable",
      "type": "function"
    },
    {
      "inputs": [
        {
          "internalType": "bytes32",
          "name": "role",
          "type": "bytes32"
        },
        {
          "internalType": "address",
          "name": "account",
          "type": "address"
        }
      ],
      "name": "revokeRole",
      "outputs": [],
      "stateMutability": "nonpayable",
      "type": "function"
    },
    {
      "inputs": [
        {
          "internalType": "address",
          "name": "from",
          "type": "address"
        },
        {
          "internalType": "address",
          "name": "to",
          "type": "address"
        },
        {
          "internalType": "uint256",
          "name": "tokenId",
          "type": "uint256"
        }
      ],
      "name": "safeTransferFrom",
      "outputs": [],
      "stateMutability": "pure",
      "type": "function"
    },
    {
      "inputs": [
        {
          "internalType": "address",
          "name": "",
          "type": "address"
        },
        {
          "internalType": "address",
          "name": "",
          "type": "address"
        },
        {
          "internalType": "uint256",
          "name": "",
          "type": "uint256"
        },
        {
          "internalType": "bytes",
          "name": "",
          "type": "bytes"
        }
      ],
      "name": "safeTransferFrom",
      "outputs": [],
      "stateMutability": "pure",
      "type": "function"
    },
    {
      "inputs": [
        {
          "internalType": "address",
          "name": "collection",
          "type": "address"
        },
        {
          "internalType": "uint256",
          "name": "token",
          "type": "uint256"
        },
        {
          "internalType": "uint256",
          "name": "tokenId",
          "type": "uint256"
        },
        {
          "internalType": "bytes",
          "name": "_data",
          "type": "bytes"
        }
      ],
      "name": "safeTransferFrom",
      "outputs": [],
      "stateMutability": "nonpayable",
      "type": "function"
    },
    {
      "inputs": [
        {
          "internalType": "address",
          "name": "collection",
          "type": "address"
        },
        {
          "internalType": "uint256",
          "name": "token",
          "type": "uint256"
        },
        {
          "internalType": "uint256",
          "name": "tokenId",
          "type": "uint256"
        }
      ],
      "name": "safeTransferFrom",
      "outputs": [],
      "stateMutability": "nonpayable",
      "type": "function"
    },
    {
      "inputs": [
        {
          "internalType": "address",
          "name": "",
          "type": "address"
        },
        {
          "internalType": "bool",
          "name": "",
          "type": "bool"
        }
      ],
      "name": "setApprovalForAll",
      "outputs": [],
      "stateMutability": "pure",
      "type": "function"
    },
    {
      "inputs": [
        {
          "internalType": "bytes4",
          "name": "interfaceId",
          "type": "bytes4"
        }
      ],
      "name": "supportsInterface",
      "outputs": [
        {
          "internalType": "bool",
          "name": "",
          "type": "bool"
        }
      ],
      "stateMutability": "view",
      "type": "function"
    },
    {
      "inputs": [],
      "name": "symbol",
      "outputs": [
        {
          "internalType": "string",
          "name": "",
          "type": "string"
        }
      ],
      "stateMutability": "pure",
      "type": "function"
    },
    {
      "inputs": [
        {
          "internalType": "uint256",
          "name": "tokenId",
          "type": "uint256"
        }
      ],
      "name": "tokenURI",
      "outputs": [
        {
          "internalType": "string",
          "name": "",
          "type": "string"
        }
      ],
      "stateMutability": "view",
      "type": "function"
    },
    {
      "inputs": [],
      "name": "totalBurned",
      "outputs": [
        {
          "internalType": "uint256",
          "name": "",
          "type": "uint256"
        }
      ],
      "stateMutability": "view",
      "type": "function"
    },
    {
      "inputs": [],
      "name": "totalSupply",
      "outputs": [
        {
          "internalType": "uint256",
          "name": "",
          "type": "uint256"
        }
      ],
      "stateMutability": "view",
      "type": "function"
    },
    {
      "inputs": [
        {
          "internalType": "uint256",
          "name": "lootId",
          "type": "uint256"
        }
      ],
      "name": "totalSupply",
      "outputs": [
        {
          "internalType": "uint256",
          "name": "",
          "type": "uint256"
        }
      ],
      "stateMutability": "view",
      "type": "function"
    },
    {
      "inputs": [
        {
          "internalType": "address",
          "name": "",
          "type": "address"
        },
        {
          "internalType": "address",
          "name": "",
          "type": "address"
        },
        {
          "internalType": "uint256",
          "name": "",
          "type": "uint256"
        }
      ],
      "name": "transferFrom",
      "outputs": [],
      "stateMutability": "pure",
      "type": "function"
    },
    {
      "inputs": [
        {
          "internalType": "address",
          "name": "collection",
          "type": "address"
        },
        {
          "internalType": "uint256",
          "name": "token",
          "type": "uint256"
        },
        {
          "internalType": "uint256",
          "name": "tokenId",
          "type": "uint256"
        }
      ],
      "name": "transferFrom",
      "outputs": [],
      "stateMutability": "nonpayable",
      "type": "function"
    },
    {
      "inputs": [
        {
          "internalType": "address",
          "name": "newOwner",
          "type": "address"
        }
      ],
      "name": "transferOwnership",
      "outputs": [],
      "stateMutability": "nonpayable",
      "type": "function"
    },
    {
      "inputs": [],
      "name": "unpause",
      "outputs": [],
      "stateMutability": "nonpayable",
      "type": "function"
    },
    {
      "inputs": [
        {
          "internalType": "uint256",
          "name": "lootId",
          "type": "uint256"
        },
        {
          "internalType": "uint256",
          "name": "max",
          "type": "uint256"
        }
      ],
      "name": "updateMaxSupply",
      "outputs": [],
      "stateMutability": "nonpayable",
      "type": "function"
    },
    {
      "inputs": [
        {
          "internalType": "uint256",
          "name": "lootId",
          "type": "uint256"
        },
        {
          "internalType": "string",
          "name": "uri",
          "type": "string"
        }
      ],
      "name": "updateURI",
      "outputs": [],
      "stateMutability": "nonpayable",
      "type": "function"
    },
    {
      "inputs": [
        {
          "internalType": "address",
          "name": "recipient",
          "type": "address"
        }
      ],
      "name": "withdraw",
      "outputs": [],
      "stateMutability": "nonpayable",
      "type": "function"
    },
    {
      "inputs": [
        {
          "internalType": "contract IERC20",
          "name": "erc20",
          "type": "address"
        },
        {
          "internalType": "address",
          "name": "recipient",
          "type": "address"
        },
        {
          "internalType": "uint256",
          "name": "amount",
          "type": "uint256"
        }
      ],
      "name": "withdraw",
      "outputs": [],
      "stateMutability": "nonpayable",
      "type": "function"
    }
  ],
  "bytecode": "0x60806040523480156200001157600080fd5b50604051620034f9380380620034f9833981016040819052620000349162000194565b6200003f336200008e565b6007805460ff1916905560016008556200005b600082620000e0565b620000877f65d7a28e3265b37a6474929f336521b332c1681b933f6cb9f3376673440d862a82620000e0565b50620001c6565b600580546001600160a01b038381166001600160a01b0319831681179093556040519116919082907f8be0079c531659141344cd1fd0a4f28419497f9722a3daafe3b4186f6b6457e090600090a35050565b620000ec8282620000f0565b5050565b60008281526006602090815260408083206001600160a01b038516845290915290205460ff16620000ec5760008281526006602090815260408083206001600160a01b03851684529091529020805460ff19166001179055620001503390565b6001600160a01b0316816001600160a01b0316837f2f8788117e7eff1d82e926ec794901d17c78024a50270940304540a733656f0d60405160405180910390a45050565b600060208284031215620001a757600080fd5b81516001600160a01b0381168114620001bf57600080fd5b9392505050565b61332380620001d66000396000f3fe60806040526004361061036a5760003560e01c80638456cb59116101c6578063c1292cc3116100f7578063d89135cd11610095578063e985e9c51161006f578063e985e9c514610a80578063f009bd2314610aa3578063f2fde38b14610ac3578063fdad503f14610ae357600080fd5b8063d89135cd14610a17578063d9caed1214610a2c578063dc2a61a814610a4c57600080fd5b8063c65f401b116100d1578063c65f401b14610978578063c7778baa14610998578063c87b56dd146109d7578063d547741f146109f757600080fd5b8063c1292cc31461092e578063c2ce60b014610943578063c528fa631461095857600080fd5b80639b2721b111610164578063a2ddd3491161013e578063a2ddd3491461089d578063b49c99b8146108d3578063b88d4fde146108e6578063bd85b0391461090157600080fd5b80639b2721b11461084b578063a217fddf1461086d578063a22cb4651461088257600080fd5b80638da5cb5b116101a05780638da5cb5b146107be57806391d14854146107dc57806395d89b41146107fc57806395fff81e1461082957600080fd5b80638456cb591461074f578063869f759414610764578063885637df1461079157600080fd5b806336555b85116102a05780636352211e1161023e578063715018a611610218578063715018a6146106cd57806377dbbd76146106e25780637bd16f38146107025780638143df081461072f57600080fd5b80636352211e1461066d57806366128b931461068d57806370a08231146106ad57600080fd5b806342842e0e1161027a57806342842e0e146105f557806342966c681461061557806351cff8d9146106355780635c975abb1461065557600080fd5b806336555b85146105a057806336568abe146105c05780633f4ba83a146105e057600080fd5b806318160ddd1161030d57806323b872dd116102e757806323b872dd14610515578063248a9ca3146105305780632f2ff15d1461056057806331d41c691461058057600080fd5b806318160ddd146104c0578063184f57c5146104d5578063238e875f146104f557600080fd5b8063081812fc11610349578063081812fc14610412578063095ea7b31461044a578063156e29f61461046c578063176a1b041461048c57600080fd5b8062fdd58e1461036f57806301ffc9a7146103a257806306fdde03146103d2575b600080fd5b34801561037b57600080fd5b5061038f61038a366004612acd565b610b10565b6040519081526020015b60405180910390f35b3480156103ae57600080fd5b506103c26103bd366004612b0f565b610b39565b6040519015158152602001610399565b3480156103de57600080fd5b5060408051808201909152600e81526d10d85cda0810dbdddcc8131bdbdd60921b60208201525b6040516103999190612b84565b34801561041e57600080fd5b5061043261042d366004612b97565b610b5e565b6040516001600160a01b039091168152602001610399565b34801561045657600080fd5b5061046a610465366004612acd565b610b79565b005b34801561047857600080fd5b5061046a610487366004612bb0565b610b92565b34801561049857600080fd5b5061038f7f0914bb97ca83e85ef385857d9d418f187ff630589e0c9f44db92976d8e4519cb81565b3480156104cc57600080fd5b5061038f610bcc565b3480156104e157600080fd5b5061046a6104f0366004612c88565b610be3565b34801561050157600080fd5b5061046a610510366004612d06565b610e3f565b34801561052157600080fd5b5061046a610465366004612d28565b34801561053c57600080fd5b5061038f61054b366004612b97565b60009081526006602052604090206001015490565b34801561056c57600080fd5b5061046a61057b366004612d69565b610e6b565b34801561058c57600080fd5b5061046a61059b366004612d99565b610e96565b3480156105ac57600080fd5b5061046a6105bb366004612de0565b610ece565b3480156105cc57600080fd5b5061046a6105db366004612d69565b610f39565b3480156105ec57600080fd5b5061046a610fb7565b34801561060157600080fd5b5061046a610610366004612d28565b610fed565b34801561062157600080fd5b5061046a610630366004612b97565b611008565b34801561064157600080fd5b5061046a610650366004612e25565b611011565b34801561066157600080fd5b5060075460ff166103c2565b34801561067957600080fd5b50610432610688366004612b97565b611077565b34801561069957600080fd5b506104056106a8366004612b97565b61110a565b3480156106b957600080fd5b5061038f6106c8366004612e25565b6111cb565b3480156106d957600080fd5b5061046a611244565b3480156106ee57600080fd5b5061046a6106fd366004612bb0565b6112aa565b34801561070e57600080fd5b5061038f61071d366004612b97565b6000908152600d602052604090205490565b34801561073b57600080fd5b506103c261074a366004612bb0565b6112bc565b34801561075b57600080fd5b5061046a6112f1565b34801561077057600080fd5b5061038f61077f366004612b97565b6000908152600a602052604090205490565b34801561079d57600080fd5b506107b16107ac366004612acd565b611324565b6040516103999190612e42565b3480156107ca57600080fd5b506005546001600160a01b0316610432565b3480156107e857600080fd5b506103c26107f7366004612d69565b611430565b34801561080857600080fd5b506040805180820190915260048152631313d3d560e21b6020820152610405565b34801561083557600080fd5b5061038f6000805160206132ae83398151915281565b34801561085757600080fd5b5061038f6000805160206132ce83398151915281565b34801561087957600080fd5b5061038f600081565b34801561088e57600080fd5b5061046a610465366004612e88565b3480156108a957600080fd5b506104326108b8366004612b97565b6000908152600260205260409020546001600160a01b031690565b61046a6108e1366004612eb6565b61145b565b3480156108f257600080fd5b5061046a610465366004612f23565b34801561090d57600080fd5b5061038f61091c366004612b97565b6000908152600b602052604090205490565b34801561093a57600080fd5b5060005461038f565b34801561094f57600080fd5b50600c5461038f565b34801561096457600080fd5b5061046a610973366004612e88565b611511565b34801561098457600080fd5b5061046a610993366004612f8f565b611556565b3480156109a457600080fd5b506109b86109b3366004612b97565b611562565b604080516001600160a01b039093168352602083019190915201610399565b3480156109e357600080fd5b506104056109f2366004612b97565b611586565b348015610a0357600080fd5b5061046a610a12366004612d69565b6115d3565b348015610a2357600080fd5b5060015461038f565b348015610a3857600080fd5b5061046a610a47366004612d28565b6115f9565b348015610a5857600080fd5b5061038f7f65d7a28e3265b37a6474929f336521b332c1681b933f6cb9f3376673440d862a81565b348015610a8c57600080fd5b506103c2610a9b366004612fda565b600092915050565b348015610aaf57600080fd5b5061046a610abe366004612bb0565b611662565b348015610acf57600080fd5b5061046a610ade366004612e25565b61167d565b348015610aef57600080fd5b5061038f610afe366004612b97565b60009081526003602052604090205490565b60a081901b6001600160a01b038316176000908152600460205260408120545b90505b92915050565b60006001600160e01b031982166380ac58cd60e01b1480610b335750610b3382611745565b600060405163574b16a760e11b815260040160405180910390fd5b60405163574b16a760e11b815260040160405180910390fd5b6000805160206132ce833981519152610bab813361176a565b610bc6848484604051806020016040528060008152506117ce565b50505050565b6000600154600054610bde919061301e565b905090565b60026008541415610c0f5760405162461bcd60e51b8152600401610c0690613035565b60405180910390fd5b6002600881905550610cae6000805160206132ce8339815191526107f7610ca88989898989604051602001610c4895949392919061306c565b60408051601f1981840301815282825280516020918201207f19457468657265756d205369676e6564204d6573736167653a0a33320000000084830152603c8085019190915282518085039091018152605c909301909152815191012090565b846118cd565b610ccb5760405163574b16a760e11b815260040160405180910390fd5b81610ce95760405163574b16a760e11b815260040160405180910390fd5b6001600160a01b0383166000908152600f602052604090205460ff1615610d7f576001600160a01b0383166379cc6790336040516001600160e01b031960e084901b1681526001600160a01b03909116600482015260248101859052604401600060405180830381600087803b158015610d6257600080fd5b505af1158015610d76573d6000803e3d6000fd5b50505050610e17565b6001600160a01b0383166323b872dd336040516001600160e01b031960e084901b1681526001600160a01b03909116600482015230602482015260448101859052606401602060405180830381600087803b158015610ddd57600080fd5b505af1158015610df1573d6000803e3d6000fd5b505050506040513d601f19601f82011682018060405250810190610e1591906130b8565b505b610e32868686604051806020016040528060008152506117ce565b5050600160085550505050565b6000805160206132ae833981519152610e58813361176a565b506000918252600a602052604090912055565b600082815260066020526040902060010154610e87813361176a565b610e9183836118f1565b505050565b6000805160206132ae833981519152610eaf813361176a565b60008381526009602090815260409091208351610bc692850190612a1f565b6000805160206132ae833981519152610ee7813361176a565b8260096000600c60008154610efb906130d5565b91905081905581526020019081526020016000209080519060200190610f22929190612a1f565b5050600c546000908152600a602052604090205550565b6001600160a01b0381163314610fa95760405162461bcd60e51b815260206004820152602f60248201527f416363657373436f6e74726f6c3a2063616e206f6e6c792072656e6f756e636560448201526e103937b632b9903337b91039b2b63360891b6064820152608401610c06565b610fb38282611977565b5050565b7f65d7a28e3265b37a6474929f336521b332c1681b933f6cb9f3376673440d862a610fe2813361176a565b610fea6119de565b50565b610e9183838360405180602001604052806000815250610b79565b610fea81611a71565b600260085414156110345760405162461bcd60e51b8152600401610c0690613035565b60026008557f0914bb97ca83e85ef385857d9d418f187ff630589e0c9f44db92976d8e4519cb611064813361176a565b61106e8247611b08565b50506001600855565b600080600061108584611562565b6040516331a9108f60e11b81526004810182905291935091506001600160a01b03831690636352211e9060240160206040518083038186803b1580156110ca57600080fd5b505afa1580156110de573d6000803e3d6000fd5b505050506040513d601f19601f8201168201806040525081019061110291906130f0565b949350505050565b6000818152600960205260408120805460609291906111289061310d565b80601f01602080910402602001604051908101604052809291908181526020018280546111549061310d565b80156111a15780601f10611176576101008083540402835291602001916111a1565b820191906000526020600020905b81548152906001019060200180831161118457829003601f168201915b50505050509050805160001415610b335760405163574b16a760e11b815260040160405180910390fd5b60006001600160a01b0382166111f45760405163574b16a760e11b815260040160405180910390fd5b6000805b6001600160a01b03841661121661120e836130d5565b925082611c21565b6001600160a01b03161415611233578161122f816130d5565b9250505b6000548111156111f8575092915050565b6005546001600160a01b0316331461129e5760405162461bcd60e51b815260206004820181905260248201527f4f776e61626c653a2063616c6c6572206973206e6f7420746865206f776e65726044820152606401610c06565b6112a86000611c3d565b565b6112b5838383611c8f565b5050505050565b60a082901b6001600160a01b038416176000908152600e6020908152604080832084845290915290205460ff165b9392505050565b7f65d7a28e3265b37a6474929f336521b332c1681b933f6cb9f3376673440d862a61131c813361176a565b610fea611d4d565b60a081901b6001600160a01b0383161760008181526004602052604090205460609190806113645750506040805160008152602081019091529050610b33565b60008167ffffffffffffffff81111561137f5761137f612be5565b6040519080825280602002602001820160405280156113a8578160200160208202803683370190505b509050600060015b600c548111611424576000858152600e6020908152604080832084845290915290205460ff1615611412578083836113e7816130d5565b9450815181106113f9576113f9613148565b6020026020010181815250508382141561141257611424565b8061141c816130d5565b9150506113b0565b50909695505050505050565b60009182526006602090815260408084206001600160a01b0393909316845291905290205460ff1690565b6002600854141561147e5760405162461bcd60e51b8152600401610c0690613035565b60026008819055506114b86000805160206132ce8339815191526107f7610ca8888888600089604051602001610c4895949392919061306c565b15806114c2575081155b806114cc57508134105b156114ea5760405163574b16a760e11b815260040160405180910390fd5b611505858585604051806020016040528060008152506117ce565b50506001600855505050565b6000805160206132ae83398151915261152a813361176a565b506001600160a01b03919091166000908152600f60205260409020805460ff1916911515919091179055565b610bc684848484611dc8565b600081815260036020526040812054819061157c90611e1f565b9094909350915050565b6060600061159383611077565b6001600160a01b031614156115bb5760405163574b16a760e11b815260040160405180910390fd5b6000828152600d6020526040902054610b339061110a565b6000828152600660205260409020600101546115ef813361176a565b610e918383611977565b6002600854141561161c5760405162461bcd60e51b8152600401610c0690613035565b60026008557f0914bb97ca83e85ef385857d9d418f187ff630589e0c9f44db92976d8e4519cb61164c813361176a565b611657848484611e3f565b505060016008555050565b610e9183838360405180602001604052806000815250611556565b6005546001600160a01b031633146116d75760405162461bcd60e51b815260206004820181905260248201527f4f776e61626c653a2063616c6c6572206973206e6f7420746865206f776e65726044820152606401610c06565b6001600160a01b03811661173c5760405162461bcd60e51b815260206004820152602660248201527f4f776e61626c653a206e6577206f776e657220697320746865207a65726f206160448201526564647265737360d01b6064820152608401610c06565b610fea81611c3d565b60006001600160e01b03198216637965db0b60e01b1480610b335750610b3382611e91565b6117748282611430565b610fb35761178c816001600160a01b03166014611ec6565b611797836020611ec6565b6040516020016117a892919061315e565b60408051601f198184030181529082905262461bcd60e51b8252610c0691600401612b84565b600082815260096020526040902080546117e79061310d565b159050806117fb57506117fb8484846112bc565b8061184157506000828152600a60205260409020541580159061184157506000828152600a6020908152604080832054600b9092529091205461183f9060016131d3565b115b1561185f5760405163574b16a760e11b815260040160405180910390fd5b61186a848483612062565b60008054838252600b6020526040822080549192611887836130d5565b90915550506000818152600d602090815260408083209590955560038152848220548252600e81528482209282529190915291909120805460ff19166001179055505050565b60008060006118dc85856120d7565b915091506118e981612147565b509392505050565b6118fb8282611430565b610fb35760008281526006602090815260408083206001600160a01b03851684529091529020805460ff191660011790556119333390565b6001600160a01b0316816001600160a01b0316837f2f8788117e7eff1d82e926ec794901d17c78024a50270940304540a733656f0d60405160405180910390a45050565b6119818282611430565b15610fb35760008281526006602090815260408083206001600160a01b0385168085529252808320805460ff1916905551339285917ff6391f5c32d9c69d2a47ea670b442974b53935d1edc7fd64eb21e047a839171b9190a45050565b60075460ff16611a275760405162461bcd60e51b815260206004820152601460248201527314185d5cd8589b194e881b9bdd081c185d5cd95960621b6044820152606401610c06565b6007805460ff191690557f5db9ee0a495bf2e6ff9c91a7834c1ba4fdd244a5e8aa4e537bd38aeae4b073aa335b6040516001600160a01b03909116815260200160405180910390a1565b6000818152600d60209081526040808320546003835281842054808552600e845282852082865290935292205460ff16611abe5760405163574b16a760e11b815260040160405180910390fd5b6000838152600d6020908152604080832080548452600b83528184208054600019019055839055838352600e82528083208684529091529020805460ff19169055610e9183612302565b80471015611b585760405162461bcd60e51b815260206004820152601d60248201527f416464726573733a20696e73756666696369656e742062616c616e63650000006044820152606401610c06565b6000826001600160a01b03168260405160006040518083038185875af1925050503d8060008114611ba5576040519150601f19603f3d011682016040523d82523d6000602084013e611baa565b606091505b5050905080610e915760405162461bcd60e51b815260206004820152603a60248201527f416464726573733a20756e61626c6520746f2073656e642076616c75652c207260448201527f6563697069656e74206d617920686176652072657665727465640000000000006064820152608401610c06565b6000806000611c2f84611562565b915091506111028282612411565b600580546001600160a01b038381166001600160a01b0319831681179093556040519116919082907f8be0079c531659141344cd1fd0a4f28419497f9722a3daafe3b4186f6b6457e090600090a35050565b6000806000611c9d84611c21565b90506001600160a01b038116611cc65760405163574b16a760e11b815260040160405180910390fd5b6000848152600260205260409020546001600160a01b0316611ceb81838989896124be565b60008581526002602052604080822080546001600160a01b0319166001600160a01b0386811691821790925591518893918516917fddf252ad1be2c89b69c2b068fc378daa952ba7f163c4a11628f55a4df523b3ef91a4969095509350505050565b60075460ff1615611d935760405162461bcd60e51b815260206004820152601060248201526f14185d5cd8589b194e881c185d5cd95960821b6044820152606401610c06565b6007805460ff191660011790557f62e78cea01bee320cd4e420270b5ea74000d11b0c9f74754ebdbfc544b05a258611a543390565b600080611dd6868686611c8f565b91509150611de4813b151590565b8015611df95750611df7828286866124e7565b155b15611e175760405163574b16a760e11b815260040160405180910390fd5b505050505050565b6000806001600160a01b038316611e368460a01c90565b91509150915091565b604080516001600160a01b038416602482015260448082018490528251808303909101815260649091019091526020810180516001600160e01b031663a9059cbb60e01b179052610e919084906125de565b60006001600160e01b031982166380ac58cd60e01b1480610b3357506301ffc9a760e01b6001600160e01b0319831614610b33565b60606000611ed58360026131eb565b611ee09060026131d3565b67ffffffffffffffff811115611ef857611ef8612be5565b6040519080825280601f01601f191660200182016040528015611f22576020820181803683370190505b509050600360fc1b81600081518110611f3d57611f3d613148565b60200101906001600160f81b031916908160001a905350600f60fb1b81600181518110611f6c57611f6c613148565b60200101906001600160f81b031916908160001a9053506000611f908460026131eb565b611f9b9060016131d3565b90505b6001811115612013576f181899199a1a9b1b9c1cb0b131b232b360811b85600f1660108110611fcf57611fcf613148565b1a60f81b828281518110611fe557611fe5613148565b60200101906001600160f81b031916908160001a90535060049490941c9361200c8161320a565b9050611f9e565b508315610b305760405162461bcd60e51b815260206004820181905260248201527f537472696e67733a20686578206c656e67746820696e73756666696369656e746044820152606401610c06565b61206c83836126b0565b600080548152600260205260409020546001600160a01b03163b151580156120b9575060008054808252600260205260408220546120b792916001600160a01b0390911690846124e7565b155b15610e915760405163574b16a760e11b815260040160405180910390fd5b60008082516041141561210e5760208301516040840151606085015160001a612102878285856127f8565b94509450505050612140565b825160401415612138576020830151604084015161212d8683836128e5565b935093505050612140565b506000905060025b9250929050565b600081600481111561215b5761215b613221565b14156121645750565b600181600481111561217857612178613221565b14156121c65760405162461bcd60e51b815260206004820152601860248201527f45434453413a20696e76616c6964207369676e617475726500000000000000006044820152606401610c06565b60028160048111156121da576121da613221565b14156122285760405162461bcd60e51b815260206004820152601f60248201527f45434453413a20696e76616c6964207369676e6174757265206c656e677468006044820152606401610c06565b600381600481111561223c5761223c613221565b14156122955760405162461bcd60e51b815260206004820152602260248201527f45434453413a20696e76616c6964207369676e6174757265202773272076616c604482015261756560f01b6064820152608401610c06565b60048160048111156122a9576122a9613221565b1415610fea5760405162461bcd60e51b815260206004820152602260248201527f45434453413a20696e76616c6964207369676e6174757265202776272076616c604482015261756560f01b6064820152608401610c06565b60008061230e83611562565b9092509050600061231f8383612411565b6001600160a01b0316146123465760405163574b16a760e11b815260040160405180910390fd5b6000838152600260205260408120546001600160a01b03169061236c90828585886124be565b6001805490600061237c836130d5565b90915550506000848152600360209081526040808320548352600490915281208054916123a88361320a565b9091555050600084815260026020908152604080832080546001600160a01b03191690556003909152808220829055518591906001600160a01b038416907fddf252ad1be2c89b69c2b068fc378daa952ba7f163c4a11628f55a4df523b3ef908390a450505050565b6040516331a9108f60e11b8152600481018290526000906001600160a01b03841690636352211e9060240160206040518083038186803b15801561245457600080fd5b505afa925050508015612484575060408051601f3d908101601f19168201909252612481918101906130f0565b60015b610b30573d8080156124b2576040519150601f19603f3d011682016040523d82523d6000602084013e6124b7565b606091505b5050610b33565b60075460ff16156124e25760405163574b16a760e11b815260040160405180910390fd5b6112b5565b604051630a85bd0160e11b81526000906001600160a01b0385169063150b7a029061251c903390899088908890600401613237565b602060405180830381600087803b15801561253657600080fd5b505af1925050508015612566575060408051601f3d908101601f1916820190925261256391810190613274565b60015b6125c1573d808015612594576040519150601f19603f3d011682016040523d82523d6000602084013e612599565b606091505b5080516125b95760405163574b16a760e11b815260040160405180910390fd5b805181602001fd5b6001600160e01b031916630a85bd0160e11b149050949350505050565b6000612633826040518060400160405280602081526020017f5361666545524332303a206c6f772d6c6576656c2063616c6c206661696c6564815250856001600160a01b03166129149092919063ffffffff16565b805190915015610e91578080602001905181019061265191906130b8565b610e915760405162461bcd60e51b815260206004820152602a60248201527f5361666545524332303a204552433230206f7065726174696f6e20646964206e6044820152691bdd081cdd58d8d9595960b21b6064820152608401610c06565b6040516331a9108f60e11b8152600481018290526000906001600160a01b03841690636352211e9060240160206040518083038186803b1580156126f357600080fd5b505afa158015612707573d6000803e3d6000fd5b505050506040513d601f19601f8201168201806040525081019061272b91906130f0565b905061274d60008285856000808154612743906130d5565b91829055506124be565b60008054815260026020526040902080546001600160a01b0319166001600160a01b0383811691909117909155831660a083901b176000805481526003602090815260408083209390935581548252828220548252600490529081208054916127b5836130d5565b90915550506000805460405190916001600160a01b038416917fddf252ad1be2c89b69c2b068fc378daa952ba7f163c4a11628f55a4df523b3ef908290a4505050565b6000807f7fffffffffffffffffffffffffffffff5d576e7357a4501ddfe92f46681b20a083111561282f57506000905060036128dc565b8460ff16601b1415801561284757508460ff16601c14155b1561285857506000905060046128dc565b6040805160008082526020820180845289905260ff881692820192909252606081018690526080810185905260019060a0016020604051602081039080840390855afa1580156128ac573d6000803e3d6000fd5b5050604051601f1901519150506001600160a01b0381166128d5576000600192509250506128dc565b9150600090505b94509492505050565b6000806001600160ff1b03831660ff84901c601b01612906878288856127f8565b935093505050935093915050565b6060611102848460008585843b61296d5760405162461bcd60e51b815260206004820152601d60248201527f416464726573733a2063616c6c20746f206e6f6e2d636f6e74726163740000006044820152606401610c06565b600080866001600160a01b031685876040516129899190613291565b60006040518083038185875af1925050503d80600081146129c6576040519150601f19603f3d011682016040523d82523d6000602084013e6129cb565b606091505b50915091506129db8282866129e6565b979650505050505050565b606083156129f55750816112ea565b825115612a055782518084602001fd5b8160405162461bcd60e51b8152600401610c069190612b84565b828054612a2b9061310d565b90600052602060002090601f016020900481019282612a4d5760008555612a93565b82601f10612a6657805160ff1916838001178555612a93565b82800160010185558215612a93579182015b82811115612a93578251825591602001919060010190612a78565b50612a9f929150612aa3565b5090565b5b80821115612a9f5760008155600101612aa4565b6001600160a01b0381168114610fea57600080fd5b60008060408385031215612ae057600080fd5b8235612aeb81612ab8565b946020939093013593505050565b6001600160e01b031981168114610fea57600080fd5b600060208284031215612b2157600080fd5b8135610b3081612af9565b60005b83811015612b47578181015183820152602001612b2f565b83811115610bc65750506000910152565b60008151808452612b70816020860160208601612b2c565b601f01601f19169290920160200192915050565b602081526000610b306020830184612b58565b600060208284031215612ba957600080fd5b5035919050565b600080600060608486031215612bc557600080fd5b8335612bd081612ab8565b95602085013595506040909401359392505050565b634e487b7160e01b600052604160045260246000fd5b600082601f830112612c0c57600080fd5b813567ffffffffffffffff80821115612c2757612c27612be5565b604051601f8301601f19908116603f01168101908282118183101715612c4f57612c4f612be5565b81604052838152866020858801011115612c6857600080fd5b836020870160208301376000602085830101528094505050505092915050565b60008060008060008060c08789031215612ca157600080fd5b8635612cac81612ab8565b955060208701359450604087013593506060870135612cca81612ab8565b92506080870135915060a087013567ffffffffffffffff811115612ced57600080fd5b612cf989828a01612bfb565b9150509295509295509295565b60008060408385031215612d1957600080fd5b50508035926020909101359150565b600080600060608486031215612d3d57600080fd5b8335612d4881612ab8565b92506020840135612d5881612ab8565b929592945050506040919091013590565b60008060408385031215612d7c57600080fd5b823591506020830135612d8e81612ab8565b809150509250929050565b60008060408385031215612dac57600080fd5b82359150602083013567ffffffffffffffff811115612dca57600080fd5b612dd685828601612bfb565b9150509250929050565b60008060408385031215612df357600080fd5b823567ffffffffffffffff811115612e0a57600080fd5b612e1685828601612bfb565b95602094909401359450505050565b600060208284031215612e3757600080fd5b8135610b3081612ab8565b6020808252825182820181905260009190848201906040850190845b8181101561142457835183529284019291840191600101612e5e565b8015158114610fea57600080fd5b60008060408385031215612e9b57600080fd5b8235612ea681612ab8565b91506020830135612d8e81612e7a565b600080600080600060a08688031215612ece57600080fd5b8535612ed981612ab8565b9450602086013593506040860135925060608601359150608086013567ffffffffffffffff811115612f0a57600080fd5b612f1688828901612bfb565b9150509295509295909350565b60008060008060808587031215612f3957600080fd5b8435612f4481612ab8565b93506020850135612f5481612ab8565b925060408501359150606085013567ffffffffffffffff811115612f7757600080fd5b612f8387828801612bfb565b91505092959194509250565b60008060008060808587031215612fa557600080fd5b8435612fb081612ab8565b93506020850135925060408501359150606085013567ffffffffffffffff811115612f7757600080fd5b60008060408385031215612fed57600080fd5b8235612ff881612ab8565b91506020830135612d8e81612ab8565b634e487b7160e01b600052601160045260246000fd5b60008282101561303057613030613008565b500390565b6020808252601f908201527f5265656e7472616e637947756172643a207265656e7472616e742063616c6c00604082015260600190565b631b5a5b9d60e21b81526bffffffffffffffffffffffff19606096871b8116600483015260188201959095526038810193909352931b9091166058820152606c810191909152608c0190565b6000602082840312156130ca57600080fd5b8151610b3081612e7a565b60006000198214156130e9576130e9613008565b5060010190565b60006020828403121561310257600080fd5b8151610b3081612ab8565b600181811c9082168061312157607f821691505b6020821081141561314257634e487b7160e01b600052602260045260246000fd5b50919050565b634e487b7160e01b600052603260045260246000fd5b7f416363657373436f6e74726f6c3a206163636f756e7420000000000000000000815260008351613196816017850160208801612b2c565b7001034b99036b4b9b9b4b733903937b6329607d1b60179184019182015283516131c7816028840160208801612b2c565b01602801949350505050565b600082198211156131e6576131e6613008565b500190565b600081600019048311821515161561320557613205613008565b500290565b60008161321957613219613008565b506000190190565b634e487b7160e01b600052602160045260246000fd5b6001600160a01b038581168252841660208201526040810183905260806060820181905260009061326a90830184612b58565b9695505050505050565b60006020828403121561328657600080fd5b8151610b3081612af9565b600082516132a3818460208701612b2c565b919091019291505056fe850d585eb7f024ccee5e68e55f2c26cc72e1e6ee456acf62135757a5eb9d4a109f2df0fed2c77648de5860a4cc508cd0818c85b8b8a1ab4ceeef8d981c8956a6a264697066735822122001cbb58b4d0f7c11e6b4a8bb0e7e91b2ddedf29d9978ad15214fe4270d41200f64736f6c63430008090033",
  "linkReferences": {},
  "deployedLinkReferences": {}
}