{
  "_format": "hh-sol-artifact-1",
  "contractName": "CashCowsLoot",
  "sourceName": "contracts/phase4/CashCowsLoot.sol",
  "abi": [
    {
      "inputs": [
        {
          "internalType": "string",
          "name": "_uri",
          "type": "string"
        },
        {
          "internalType": "address",
          "name": "admin",
          "type": "address"
        }
      ],
      "stateMutability": "nonpayable",
      "type": "constructor"
    },
    {
      "inputs": [],
      "name": "InvalidCall",
      "type": "error"
    },
    {
      "anonymous": false,
      "inputs": [
        {
          "indexed": true,
          "internalType": "address",
          "name": "account",
          "type": "address"
        },
        {
          "indexed": true,
          "internalType": "address",
          "name": "operator",
          "type": "address"
        },
        {
          "indexed": false,
          "internalType": "bool",
          "name": "approved",
          "type": "bool"
        }
      ],
      "name": "ApprovalForAll",
      "type": "event"
    },
    {
      "anonymous": false,
      "inputs": [
        {
          "indexed": true,
          "internalType": "address",
          "name": "previousOwner",
          "type": "address"
        },
        {
          "indexed": true,
          "internalType": "address",
          "name": "newOwner",
          "type": "address"
        }
      ],
      "name": "OwnershipTransferred",
      "type": "event"
    },
    {
      "anonymous": false,
      "inputs": [
        {
          "indexed": false,
          "internalType": "address",
          "name": "account",
          "type": "address"
        }
      ],
      "name": "Paused",
      "type": "event"
    },
    {
      "anonymous": false,
      "inputs": [
        {
          "indexed": true,
          "internalType": "bytes32",
          "name": "role",
          "type": "bytes32"
        },
        {
          "indexed": true,
          "internalType": "bytes32",
          "name": "previousAdminRole",
          "type": "bytes32"
        },
        {
          "indexed": true,
          "internalType": "bytes32",
          "name": "newAdminRole",
          "type": "bytes32"
        }
      ],
      "name": "RoleAdminChanged",
      "type": "event"
    },
    {
      "anonymous": false,
      "inputs": [
        {
          "indexed": true,
          "internalType": "bytes32",
          "name": "role",
          "type": "bytes32"
        },
        {
          "indexed": true,
          "internalType": "address",
          "name": "account",
          "type": "address"
        },
        {
          "indexed": true,
          "internalType": "address",
          "name": "sender",
          "type": "address"
        }
      ],
      "name": "RoleGranted",
      "type": "event"
    },
    {
      "anonymous": false,
      "inputs": [
        {
          "indexed": true,
          "internalType": "bytes32",
          "name": "role",
          "type": "bytes32"
        },
        {
          "indexed": true,
          "internalType": "address",
          "name": "account",
          "type": "address"
        },
        {
          "indexed": true,
          "internalType": "address",
          "name": "sender",
          "type": "address"
        }
      ],
      "name": "RoleRevoked",
      "type": "event"
    },
    {
      "anonymous": false,
      "inputs": [
        {
          "indexed": true,
          "internalType": "address",
          "name": "operator",
          "type": "address"
        },
        {
          "indexed": true,
          "internalType": "address",
          "name": "from",
          "type": "address"
        },
        {
          "indexed": true,
          "internalType": "address",
          "name": "to",
          "type": "address"
        },
        {
          "indexed": false,
          "internalType": "uint256[]",
          "name": "ids",
          "type": "uint256[]"
        },
        {
          "indexed": false,
          "internalType": "uint256[]",
          "name": "values",
          "type": "uint256[]"
        }
      ],
      "name": "TransferBatch",
      "type": "event"
    },
    {
      "anonymous": false,
      "inputs": [
        {
          "indexed": true,
          "internalType": "address",
          "name": "operator",
          "type": "address"
        },
        {
          "indexed": true,
          "internalType": "address",
          "name": "from",
          "type": "address"
        },
        {
          "indexed": true,
          "internalType": "address",
          "name": "to",
          "type": "address"
        },
        {
          "indexed": false,
          "internalType": "uint256",
          "name": "id",
          "type": "uint256"
        },
        {
          "indexed": false,
          "internalType": "uint256",
          "name": "value",
          "type": "uint256"
        }
      ],
      "name": "TransferSingle",
      "type": "event"
    },
    {
      "anonymous": false,
      "inputs": [
        {
          "indexed": false,
          "internalType": "string",
          "name": "value",
          "type": "string"
        },
        {
          "indexed": true,
          "internalType": "uint256",
          "name": "id",
          "type": "uint256"
        }
      ],
      "name": "URI",
      "type": "event"
    },
    {
      "anonymous": false,
      "inputs": [
        {
          "indexed": false,
          "internalType": "address",
          "name": "account",
          "type": "address"
        }
      ],
      "name": "Unpaused",
      "type": "event"
    },
    {
      "inputs": [],
      "name": "DEFAULT_ADMIN_ROLE",
      "outputs": [
        {
          "internalType": "bytes32",
          "name": "",
          "type": "bytes32"
        }
      ],
      "stateMutability": "view",
      "type": "function"
    },
    {
      "inputs": [
        {
          "internalType": "uint256",
          "name": "itemMax",
          "type": "uint256"
        },
        {
          "internalType": "address[]",
          "name": "tokens",
          "type": "address[]"
        },
        {
          "internalType": "uint256[]",
          "name": "prices",
          "type": "uint256[]"
        }
      ],
      "name": "addItem",
      "outputs": [],
      "stateMutability": "nonpayable",
      "type": "function"
    },
    {
      "inputs": [
        {
          "internalType": "address",
          "name": "account",
          "type": "address"
        },
        {
          "internalType": "uint256",
          "name": "id",
          "type": "uint256"
        }
      ],
      "name": "balanceOf",
      "outputs": [
        {
          "internalType": "uint256",
          "name": "",
          "type": "uint256"
        }
      ],
      "stateMutability": "view",
      "type": "function"
    },
    {
      "inputs": [
        {
          "internalType": "address[]",
          "name": "accounts",
          "type": "address[]"
        },
        {
          "internalType": "uint256[]",
          "name": "ids",
          "type": "uint256[]"
        }
      ],
      "name": "balanceOfBatch",
      "outputs": [
        {
          "internalType": "uint256[]",
          "name": "",
          "type": "uint256[]"
        }
      ],
      "stateMutability": "view",
      "type": "function"
    },
    {
      "inputs": [
        {
          "internalType": "address",
          "name": "account",
          "type": "address"
        },
        {
          "internalType": "uint256[]",
          "name": "ids",
          "type": "uint256[]"
        },
        {
          "internalType": "uint256[]",
          "name": "values",
          "type": "uint256[]"
        }
      ],
      "name": "burn",
      "outputs": [],
      "stateMutability": "nonpayable",
      "type": "function"
    },
    {
      "inputs": [
        {
          "internalType": "address",
          "name": "account",
          "type": "address"
        },
        {
          "internalType": "uint256",
          "name": "itemId",
          "type": "uint256"
        },
        {
          "internalType": "uint256",
          "name": "value",
          "type": "uint256"
        }
      ],
      "name": "burn",
      "outputs": [],
      "stateMutability": "nonpayable",
      "type": "function"
    },
    {
      "inputs": [
        {
          "internalType": "contract IERC20Burnable",
          "name": "token",
          "type": "address"
        },
        {
          "internalType": "bool",
          "name": "burnable",
          "type": "bool"
        }
      ],
      "name": "burnTokens",
      "outputs": [],
      "stateMutability": "nonpayable",
      "type": "function"
    },
    {
      "inputs": [
        {
          "internalType": "bytes32",
          "name": "role",
          "type": "bytes32"
        }
      ],
      "name": "getRoleAdmin",
      "outputs": [
        {
          "internalType": "bytes32",
          "name": "",
          "type": "bytes32"
        }
      ],
      "stateMutability": "view",
      "type": "function"
    },
    {
      "inputs": [
        {
          "internalType": "bytes32",
          "name": "role",
          "type": "bytes32"
        },
        {
          "internalType": "address",
          "name": "account",
          "type": "address"
        }
      ],
      "name": "grantRole",
      "outputs": [],
      "stateMutability": "nonpayable",
      "type": "function"
    },
    {
      "inputs": [
        {
          "internalType": "bytes32",
          "name": "role",
          "type": "bytes32"
        },
        {
          "internalType": "address",
          "name": "account",
          "type": "address"
        }
      ],
      "name": "hasRole",
      "outputs": [
        {
          "internalType": "bool",
          "name": "",
          "type": "bool"
        }
      ],
      "stateMutability": "view",
      "type": "function"
    },
    {
      "inputs": [
        {
          "internalType": "uint256",
          "name": "itemId",
          "type": "uint256"
        },
        {
          "internalType": "address[]",
          "name": "tokens",
          "type": "address[]"
        }
      ],
      "name": "infoOf",
      "outputs": [
        {
          "internalType": "uint256",
          "name": "supply",
          "type": "uint256"
        },
        {
          "internalType": "uint256",
          "name": "max",
          "type": "uint256"
        },
        {
          "internalType": "uint256[]",
          "name": "prices",
          "type": "uint256[]"
        }
      ],
      "stateMutability": "view",
      "type": "function"
    },
    {
      "inputs": [
        {
          "internalType": "address",
          "name": "owner",
          "type": "address"
        },
        {
          "internalType": "address",
          "name": "operator",
          "type": "address"
        }
      ],
      "name": "isApprovedForAll",
      "outputs": [
        {
          "internalType": "bool",
          "name": "",
          "type": "bool"
        }
      ],
      "stateMutability": "view",
      "type": "function"
    },
    {
      "inputs": [],
      "name": "lastItemId",
      "outputs": [
        {
          "internalType": "uint256",
          "name": "",
          "type": "uint256"
        }
      ],
      "stateMutability": "view",
      "type": "function"
    },
    {
      "inputs": [
        {
          "internalType": "uint256",
          "name": "itemId",
          "type": "uint256"
        }
      ],
      "name": "maxSupply",
      "outputs": [
        {
          "internalType": "uint256",
          "name": "",
          "type": "uint256"
        }
      ],
      "stateMutability": "view",
      "type": "function"
    },
    {
      "inputs": [
        {
          "internalType": "address",
          "name": "to",
          "type": "address"
        },
        {
          "internalType": "uint256[]",
          "name": "itemIds",
          "type": "uint256[]"
        },
        {
          "internalType": "uint256[]",
          "name": "amounts",
          "type": "uint256[]"
        },
        {
          "internalType": "bytes",
          "name": "data",
          "type": "bytes"
        }
      ],
      "name": "mint",
      "outputs": [],
      "stateMutability": "nonpayable",
      "type": "function"
    },
    {
      "inputs": [
        {
          "internalType": "address",
          "name": "token",
          "type": "address"
        },
        {
          "internalType": "address",
          "name": "to",
          "type": "address"
        },
        {
          "internalType": "uint256[]",
          "name": "itemIds",
          "type": "uint256[]"
        },
        {
          "internalType": "uint256[]",
          "name": "amounts",
          "type": "uint256[]"
        }
      ],
      "name": "mint",
      "outputs": [],
      "stateMutability": "payable",
      "type": "function"
    },
    {
      "inputs": [
        {
          "internalType": "address",
          "name": "to",
          "type": "address"
        },
        {
          "internalType": "uint256",
          "name": "itemId",
          "type": "uint256"
        },
        {
          "internalType": "uint256",
          "name": "amount",
          "type": "uint256"
        },
        {
          "internalType": "bytes",
          "name": "data",
          "type": "bytes"
        }
      ],
      "name": "mint",
      "outputs": [],
      "stateMutability": "nonpayable",
      "type": "function"
    },
    {
      "inputs": [
        {
          "internalType": "address",
          "name": "token",
          "type": "address"
        },
        {
          "internalType": "address",
          "name": "to",
          "type": "address"
        },
        {
          "internalType": "uint256",
          "name": "itemId",
          "type": "uint256"
        },
        {
          "internalType": "uint256",
          "name": "amount",
          "type": "uint256"
        }
      ],
      "name": "mint",
      "outputs": [],
      "stateMutability": "payable",
      "type": "function"
    },
    {
      "inputs": [],
      "name": "name",
      "outputs": [
        {
          "internalType": "string",
          "name": "",
          "type": "string"
        }
      ],
      "stateMutability": "pure",
      "type": "function"
    },
    {
      "inputs": [],
      "name": "owner",
      "outputs": [
        {
          "internalType": "address",
          "name": "",
          "type": "address"
        }
      ],
      "stateMutability": "view",
      "type": "function"
    },
    {
      "inputs": [],
      "name": "pause",
      "outputs": [],
      "stateMutability": "nonpayable",
      "type": "function"
    },
    {
      "inputs": [],
      "name": "paused",
      "outputs": [
        {
          "internalType": "bool",
          "name": "",
          "type": "bool"
        }
      ],
      "stateMutability": "view",
      "type": "function"
    },
    {
      "inputs": [
        {
          "internalType": "uint256",
          "name": "itemId",
          "type": "uint256"
        },
        {
          "internalType": "address",
          "name": "token",
          "type": "address"
        }
      ],
      "name": "priceOf",
      "outputs": [
        {
          "internalType": "uint256",
          "name": "",
          "type": "uint256"
        }
      ],
      "stateMutability": "view",
      "type": "function"
    },
    {
      "inputs": [
        {
          "internalType": "uint256",
          "name": "itemId",
          "type": "uint256"
        }
      ],
      "name": "priceOf",
      "outputs": [
        {
          "internalType": "uint256",
          "name": "",
          "type": "uint256"
        }
      ],
      "stateMutability": "view",
      "type": "function"
    },
    {
      "inputs": [],
      "name": "renounceOwnership",
      "outputs": [],
      "stateMutability": "nonpayable",
      "type": "function"
    },
    {
      "inputs": [
        {
          "internalType": "bytes32",
          "name": "role",
          "type": "bytes32"
        },
        {
          "internalType": "address",
          "name": "account",
          "type": "address"
        }
      ],
      "name": "renounceRole",
      "outputs": [],
      "stateMutability": "nonpayable",
      "type": "function"
    },
    {
      "inputs": [
        {
          "internalType": "bytes32",
          "name": "role",
          "type": "bytes32"
        },
        {
          "internalType": "address",
          "name": "account",
          "type": "address"
        }
      ],
      "name": "revokeRole",
      "outputs": [],
      "stateMutability": "nonpayable",
      "type": "function"
    },
    {
      "inputs": [
        {
          "internalType": "address",
          "name": "from",
          "type": "address"
        },
        {
          "internalType": "address",
          "name": "to",
          "type": "address"
        },
        {
          "internalType": "uint256[]",
          "name": "ids",
          "type": "uint256[]"
        },
        {
          "internalType": "uint256[]",
          "name": "amounts",
          "type": "uint256[]"
        },
        {
          "internalType": "bytes",
          "name": "data",
          "type": "bytes"
        }
      ],
      "name": "safeBatchTransferFrom",
      "outputs": [],
      "stateMutability": "nonpayable",
      "type": "function"
    },
    {
      "inputs": [
        {
          "internalType": "address",
          "name": "from",
          "type": "address"
        },
        {
          "internalType": "address",
          "name": "to",
          "type": "address"
        },
        {
          "internalType": "uint256",
          "name": "id",
          "type": "uint256"
        },
        {
          "internalType": "uint256",
          "name": "amount",
          "type": "uint256"
        },
        {
          "internalType": "bytes",
          "name": "data",
          "type": "bytes"
        }
      ],
      "name": "safeTransferFrom",
      "outputs": [],
      "stateMutability": "nonpayable",
      "type": "function"
    },
    {
      "inputs": [
        {
          "internalType": "address",
          "name": "operator",
          "type": "address"
        },
        {
          "internalType": "bool",
          "name": "approved",
          "type": "bool"
        }
      ],
      "name": "setApprovalForAll",
      "outputs": [],
      "stateMutability": "nonpayable",
      "type": "function"
    },
    {
      "inputs": [
        {
          "internalType": "string",
          "name": "uri_",
          "type": "string"
        }
      ],
      "name": "setURI",
      "outputs": [],
      "stateMutability": "nonpayable",
      "type": "function"
    },
    {
      "inputs": [
        {
          "internalType": "bytes4",
          "name": "interfaceId",
          "type": "bytes4"
        }
      ],
      "name": "supportsInterface",
      "outputs": [
        {
          "internalType": "bool",
          "name": "",
          "type": "bool"
        }
      ],
      "stateMutability": "view",
      "type": "function"
    },
    {
      "inputs": [],
      "name": "symbol",
      "outputs": [
        {
          "internalType": "string",
          "name": "",
          "type": "string"
        }
      ],
      "stateMutability": "pure",
      "type": "function"
    },
    {
      "inputs": [
        {
          "internalType": "uint256",
          "name": "itemId",
          "type": "uint256"
        }
      ],
      "name": "totalSupply",
      "outputs": [
        {
          "internalType": "uint256",
          "name": "",
          "type": "uint256"
        }
      ],
      "stateMutability": "view",
      "type": "function"
    },
    {
      "inputs": [
        {
          "internalType": "address",
          "name": "newOwner",
          "type": "address"
        }
      ],
      "name": "transferOwnership",
      "outputs": [],
      "stateMutability": "nonpayable",
      "type": "function"
    },
    {
      "inputs": [],
      "name": "unpause",
      "outputs": [],
      "stateMutability": "nonpayable",
      "type": "function"
    },
    {
      "inputs": [
        {
          "internalType": "uint256[]",
          "name": "itemIds",
          "type": "uint256[]"
        },
        {
          "internalType": "uint256[]",
          "name": "itemMaxs",
          "type": "uint256[]"
        }
      ],
      "name": "updateMaxSupplies",
      "outputs": [],
      "stateMutability": "nonpayable",
      "type": "function"
    },
    {
      "inputs": [
        {
          "internalType": "uint256[]",
          "name": "itemIds",
          "type": "uint256[]"
        },
        {
          "internalType": "address",
          "name": "token",
          "type": "address"
        },
        {
          "internalType": "uint256[]",
          "name": "prices",
          "type": "uint256[]"
        }
      ],
      "name": "updatePrices",
      "outputs": [],
      "stateMutability": "nonpayable",
      "type": "function"
    },
    {
      "inputs": [
        {
          "internalType": "uint256",
          "name": "itemId",
          "type": "uint256"
        },
        {
          "internalType": "address[]",
          "name": "tokens",
          "type": "address[]"
        },
        {
          "internalType": "uint256[]",
          "name": "prices",
          "type": "uint256[]"
        }
      ],
      "name": "updatePrices",
      "outputs": [],
      "stateMutability": "nonpayable",
      "type": "function"
    },
    {
      "inputs": [
        {
          "internalType": "uint256",
          "name": "",
          "type": "uint256"
        }
      ],
      "name": "uri",
      "outputs": [
        {
          "internalType": "string",
          "name": "",
          "type": "string"
        }
      ],
      "stateMutability": "view",
      "type": "function"
    },
    {
      "inputs": [
        {
          "internalType": "address",
          "name": "recipient",
          "type": "address"
        }
      ],
      "name": "withdraw",
      "outputs": [],
      "stateMutability": "nonpayable",
      "type": "function"
    },
    {
      "inputs": [
        {
          "internalType": "contract IERC20",
          "name": "erc20",
          "type": "address"
        },
        {
          "internalType": "address",
          "name": "recipient",
          "type": "address"
        },
        {
          "internalType": "uint256",
          "name": "amount",
          "type": "uint256"
        }
      ],
      "name": "withdraw",
      "outputs": [],
      "stateMutability": "nonpayable",
      "type": "function"
    }
  ],
  "bytecode": "0x60806040523480156200001157600080fd5b50604051620043f1380380620043f183398101604081905262000034916200028d565b8162000040816200009c565b506200004c33620000b5565b6005805460ff1916905560016006556200006860008262000107565b620000947f65d7a28e3265b37a6474929f336521b332c1681b933f6cb9f3376673440d862a8262000107565b5050620003bb565b8051620000b1906002906020840190620001b4565b5050565b600380546001600160a01b038381166001600160a01b0319831681179093556040519116919082907f8be0079c531659141344cd1fd0a4f28419497f9722a3daafe3b4186f6b6457e090600090a35050565b60008281526004602090815260408083206001600160a01b0385168452909152902054620000b1908390839060ff16620000b15760008281526004602090815260408083206001600160a01b03851684529091529020805460ff19166001179055620001703390565b6001600160a01b0316816001600160a01b0316837f2f8788117e7eff1d82e926ec794901d17c78024a50270940304540a733656f0d60405160405180910390a45050565b828054620001c2906200037e565b90600052602060002090601f016020900481019282620001e6576000855562000231565b82601f106200020157805160ff191683800117855562000231565b8280016001018555821562000231579182015b828111156200023157825182559160200191906001019062000214565b506200023f92915062000243565b5090565b5b808211156200023f576000815560010162000244565b634e487b7160e01b600052604160045260246000fd5b80516001600160a01b03811681146200028857600080fd5b919050565b60008060408385031215620002a157600080fd5b82516001600160401b0380821115620002b957600080fd5b818501915085601f830112620002ce57600080fd5b815181811115620002e357620002e36200025a565b604051601f8201601f19908116603f011681019083821181831017156200030e576200030e6200025a565b816040528281526020935088848487010111156200032b57600080fd5b600091505b828210156200034f578482018401518183018501529083019062000330565b82821115620003615760008484830101525b95506200037391505085820162000270565b925050509250929050565b600181811c908216806200039357607f821691505b60208210811415620003b557634e487b7160e01b600052602260045260246000fd5b50919050565b61402680620003cb6000396000f3fe6080604052600436106102505760003560e01c806378bf0dba11610139578063b9186d7d116100b6578063d9caed121161007a578063d9caed121461073f578063e8a96e001461075f578063e985e9c51461077f578063f242432a1461079f578063f2fde38b146107bf578063f5298aca146107df57600080fd5b8063b9186d7d14610692578063bd85b039146106b2578063c528fa63146106df578063d23ba130146106ff578063d547741f1461071f57600080fd5b806391d14854116100fd57806391d14854146105fd57806395d89b411461061d578063a217fddf1461064a578063a22cb4651461065f578063b3f1c93d1461067f57600080fd5b806378bf0dba146105215780638456cb5914610550578063869f7594146105655780638a145e01146105925780638da5cb5b146105d557600080fd5b806336568abe116101d2578063462aa45e11610196578063462aa45e146104745780634e1273f41461048757806351cff8d9146104b45780635c975abb146104d4578063715018a6146104ec578063731133e91461050157600080fd5b806336568abe146103ea5780633db0f8ab1461040a5780633f4ba83a1461042a5780633fd04d201461043f578063440703d71461045457600080fd5b80630e89341c116102195780630e89341c1461033a578063248a9ca31461035a57806325a7bbc91461038a5780632eb2c2d6146103aa5780632f2ff15d146103ca57600080fd5b8062fdd58e1461025557806301ffc9a71461028857806302fe5305146102b857806306fdde03146102da5780630e4e25501461031a575b600080fd5b34801561026157600080fd5b50610275610270366004613175565b6107ff565b6040519081526020015b60405180910390f35b34801561029457600080fd5b506102a86102a33660046131b7565b610896565b604051901515815260200161027f565b3480156102c457600080fd5b506102d86102d3366004613273565b6108a7565b005b3480156102e657600080fd5b5060408051808201909152600e81526d10d85cda0810dbdddcc8131bdbdd60921b60208201525b60405161027f9190613313565b34801561032657600080fd5b506102d86103353660046133ba565b6108cd565b34801561034657600080fd5b5061030d610355366004613431565b6109d7565b34801561036657600080fd5b50610275610375366004613431565b60009081526004602052604090206001015490565b34801561039657600080fd5b506102d86103a53660046134b9565b610a6b565b3480156103b657600080fd5b506102d86103c536600461352e565b610b40565b3480156103d657600080fd5b506102d86103e53660046135db565b610bd0565b3480156103f657600080fd5b506102d86104053660046135db565b610bfb565b34801561041657600080fd5b506102d861042536600461360b565b610c75565b34801561043657600080fd5b506102d8610cf8565b34801561044b57600080fd5b50600754610275565b34801561046057600080fd5b506102d861046f366004613653565b610d2e565b6102d86104823660046136ed565b610e38565b34801561049357600080fd5b506104a76104a2366004613769565b6111ae565b60405161027f9190613807565b3480156104c057600080fd5b506102d86104cf36600461381a565b6112d7565b3480156104e057600080fd5b5060055460ff166102a8565b3480156104f857600080fd5b506102d861133d565b34801561050d57600080fd5b506102d861051c366004613837565b6113a3565b34801561052d57600080fd5b5061054161053c36600461388d565b61142b565b60405161027f939291906138c9565b34801561055c57600080fd5b506102d8611521565b34801561057157600080fd5b50610275610580366004613431565b60009081526008602052604090205490565b34801561059e57600080fd5b506102756105ad3660046135db565b6000918252600a602090815260408084206001600160a01b0393909316845291905290205490565b3480156105e157600080fd5b506003546040516001600160a01b03909116815260200161027f565b34801561060957600080fd5b506102a86106183660046135db565b611554565b34801561062957600080fd5b506040805180820190915260048152631313d3d560e21b602082015261030d565b34801561065657600080fd5b50610275600081565b34801561066b57600080fd5b506102d861067a3660046138ff565b61157f565b6102d861068d36600461392d565b61158a565b34801561069e57600080fd5b506102756106ad366004613431565b6117e3565b3480156106be57600080fd5b506102756106cd366004613431565b60009081526009602052604090205490565b3480156106eb57600080fd5b506102d86106fa3660046138ff565b611802565b34801561070b57600080fd5b506102d861071a3660046134b9565b611847565b34801561072b57600080fd5b506102d861073a3660046135db565b61193c565b34801561074b57600080fd5b506102d861075a366004613973565b611962565b34801561076b57600080fd5b506102d861077a3660046139b4565b6119cb565b34801561078b57600080fd5b506102a861079a3660046139ea565b611aab565b3480156107ab57600080fd5b506102d86107ba366004613a18565b611b0e565b3480156107cb57600080fd5b506102d86107da36600461381a565b611b95565b3480156107eb57600080fd5b506102d86107fa366004613a80565b611c5d565b60006001600160a01b0383166108705760405162461bcd60e51b815260206004820152602b60248201527f455243313135353a2062616c616e636520717565727920666f7220746865207a60448201526a65726f206164647265737360a81b60648201526084015b60405180910390fd5b506000908152602081815260408083206001600160a01b03949094168352929052205490565b60006108a182611cda565b92915050565b600080516020613fd18339815191526108c08133611cff565b6108c982611d63565b5050565b600080516020613fd18339815191526108e68133611cff565b81518451146109085760405163574b16a760e11b815260040160405180910390fd5b60005b84518110156109d05760075485828151811061092957610929613ab5565b602002602001015111156109505760405163574b16a760e11b815260040160405180910390fd5b82818151811061096257610962613ab5565b6020026020010151600a600087848151811061098057610980613ab5565b602002602001015181526020019081526020016000206000866001600160a01b03166001600160a01b031681526020019081526020016000208190555080806109c890613ae1565b91505061090b565b5050505050565b6060600280546109e690613afc565b80601f0160208091040260200160405190810160405280929190818152602001828054610a1290613afc565b8015610a5f5780601f10610a3457610100808354040283529160200191610a5f565b820191906000526020600020905b815481529060010190602001808311610a4257829003601f168201915b50505050509050919050565b600080516020613fd1833981519152610a848133611cff565b600754841180610a9657508151835114155b15610ab45760405163574b16a760e11b815260040160405180910390fd5b60005b83518110156109d057828181518110610ad257610ad2613ab5565b6020026020010151600a60008781526020019081526020016000206000868481518110610b0157610b01613ab5565b60200260200101516001600160a01b03166001600160a01b03168152602001908152602001600020819055508080610b3890613ae1565b915050610ab7565b6001600160a01b038516331480610b5c5750610b5c8533611aab565b610bc35760405162461bcd60e51b815260206004820152603260248201527f455243313135353a207472616e736665722063616c6c6572206973206e6f74206044820152711bdddb995c881b9bdc88185c1c1c9bdd995960721b6064820152608401610867565b6109d08585858585611d76565b600082815260046020526040902060010154610bec8133611cff565b610bf68383611f20565b505050565b6001600160a01b0381163314610c6b5760405162461bcd60e51b815260206004820152602f60248201527f416363657373436f6e74726f6c3a2063616e206f6e6c792072656e6f756e636560448201526e103937b632b9903337b91039b2b63360891b6064820152608401610867565b6108c98282611fa6565b336001600160a01b0384168114801590610cb65750610cb47f3c11d16cbaffd01df69ce1c404f6340ee057498f5f00246190ea54220576a84882611554565b155b8015610cc95750610cc78482611aab565b155b15610ce75760405163574b16a760e11b815260040160405180910390fd5b610cf284848461200d565b50505050565b7f65d7a28e3265b37a6474929f336521b332c1681b933f6cb9f3376673440d862a610d238133611cff565b610d2b61219b565b50565b7f9f2df0fed2c77648de5860a4cc508cd0818c85b8b8a1ab4ceeef8d981c8956a6610d598133611cff565b60005b8451811015610e2b57610da1858281518110610d7a57610d7a613ab5565b6020026020010151858381518110610d9457610d94613ab5565b602002602001015161222e565b610dbe5760405163574b16a760e11b815260040160405180910390fd5b838181518110610dd057610dd0613ab5565b602002602001015160096000878481518110610dee57610dee613ab5565b602002602001015181526020019081526020016000206000828254610e139190613b37565b90915550819050610e2381613ae1565b915050610d5c565b506109d085858585612282565b60026006541415610e5b5760405162461bcd60e51b815260040161086790613b4f565b60026006558051825114610e825760405163574b16a760e11b815260040160405180910390fd5b6000805b835181101561102457600a6000858381518110610ea557610ea5613ab5565b602002602001015181526020019081526020016000206000876001600160a01b03166001600160a01b031681526020019081526020016000205460001480610f195750610f17848281518110610efd57610efd613ab5565b6020026020010151848381518110610d9457610d94613ab5565b155b15610f375760405163574b16a760e11b815260040160405180910390fd5b828181518110610f4957610f49613ab5565b6020026020010151600a6000868481518110610f6757610f67613ab5565b602002602001015181526020019081526020016000206000886001600160a01b03166001600160a01b0316815260200190815260200160002054610fab9190613b86565b610fb59083613b37565b9150828181518110610fc957610fc9613ab5565b602002602001015160096000868481518110610fe757610fe7613ab5565b60200260200101518152602001908152602001600020600082825461100c9190613b37565b9091555081905061101c81613ae1565b915050610e86565b506001600160a01b03851661105957803410156110545760405163574b16a760e11b815260040160405180910390fd5b611187565b6001600160a01b0385166000908152600b602052604090205460ff16156110ef576001600160a01b0385166379cc6790336040516001600160e01b031960e084901b1681526001600160a01b03909116600482015260248101849052604401600060405180830381600087803b1580156110d257600080fd5b505af11580156110e6573d6000803e3d6000fd5b50505050611187565b6001600160a01b0385166323b872dd336040516001600160e01b031960e084901b1681526001600160a01b03909116600482015230602482015260448101849052606401602060405180830381600087803b15801561114d57600080fd5b505af1158015611161573d6000803e3d6000fd5b505050506040513d601f19601f820116820180604052508101906111859190613ba5565b505b6111a284848460405180602001604052806000815250612282565b50506001600655505050565b606081518351146112135760405162461bcd60e51b815260206004820152602960248201527f455243313135353a206163636f756e747320616e6420696473206c656e677468604482015268040dad2e6dac2e8c6d60bb1b6064820152608401610867565b600083516001600160401b0381111561122e5761122e6131d4565b604051908082528060200260200182016040528015611257578160200160208202803683370190505b50905060005b84518110156112cf576112a285828151811061127b5761127b613ab5565b602002602001015185838151811061129557611295613ab5565b60200260200101516107ff565b8282815181106112b4576112b4613ab5565b60209081029190910101526112c881613ae1565b905061125d565b509392505050565b600260065414156112fa5760405162461bcd60e51b815260040161086790613b4f565b60026006557f0914bb97ca83e85ef385857d9d418f187ff630589e0c9f44db92976d8e4519cb61132a8133611cff565b61133482476123dc565b50506001600655565b6003546001600160a01b031633146113975760405162461bcd60e51b815260206004820181905260248201527f4f776e61626c653a2063616c6c6572206973206e6f7420746865206f776e65726044820152606401610867565b6113a160006124f5565b565b7f9f2df0fed2c77648de5860a4cc508cd0818c85b8b8a1ab4ceeef8d981c8956a66113ce8133611cff565b6113d8848461222e565b6113f55760405163574b16a760e11b815260040160405180910390fd5b61140185858585612547565b6000848152600960205260408120805485929061141f908490613b37565b90915550505050505050565b60008281526009602090815260408083205460089092529091205482516060906001600160401b03811115611462576114626131d4565b60405190808252806020026020018201604052801561148b578160200160208202803683370190505b50905060005b845181101561151957600a600087815260200190815260200160002060008683815181106114c1576114c1613ab5565b60200260200101516001600160a01b03166001600160a01b03168152602001908152602001600020548282815181106114fc576114fc613ab5565b60209081029190910101528061151181613ae1565b915050611491565b509250925092565b7f65d7a28e3265b37a6474929f336521b332c1681b933f6cb9f3376673440d862a61154c8133611cff565b610d2b61261d565b60009182526004602090815260408084206001600160a01b0393909316845291905290205460ff1690565b6108c9338383612698565b600260065414156115ad5760405162461bcd60e51b815260040161086790613b4f565b60026006556115bc828261222e565b6115d95760405163574b16a760e11b815260040160405180910390fd5b6000828152600a602090815260408083206001600160a01b03881684529091529020548061161a5760405163574b16a760e11b815260040160405180910390fd5b6001600160a01b038516611657576116328282613b86565b3410156116525760405163574b16a760e11b815260040160405180910390fd5b611799565b6001600160a01b0385166000908152600b602052604090205460ff16156116f5576001600160a01b0385166379cc6790336116928585613b86565b6040516001600160e01b031960e085901b1681526001600160a01b0390921660048301526024820152604401600060405180830381600087803b1580156116d857600080fd5b505af11580156116ec573d6000803e3d6000fd5b50505050611799565b6001600160a01b0385166323b872dd33306117108686613b86565b6040516001600160e01b031960e086901b1681526001600160a01b0393841660048201529290911660248301526044820152606401602060405180830381600087803b15801561175f57600080fd5b505af1158015611773573d6000803e3d6000fd5b505050506040513d601f19601f820116820180604052508101906117979190613ba5565b505b6117b484848460405180602001604052806000815250612547565b600083815260096020526040812080548492906117d2908490613b37565b909155505060016006555050505050565b6000818152600a602090815260408083208380529091528120546108a1565b600080516020613fd183398151915261181b8133611cff565b506001600160a01b03919091166000908152600b60205260409020805460ff1916911515919091179055565b600080516020613fd18339815191526118608133611cff565b81518351146118825760405163574b16a760e11b815260040160405180910390fd5b836008600060076000815461189690613ae1565b91905081905581526020019081526020016000208190555060005b83518110156109d0578281815181106118cc576118cc613ab5565b6020026020010151600a6000600754815260200190815260200160002060008684815181106118fd576118fd613ab5565b60200260200101516001600160a01b03166001600160a01b0316815260200190815260200160002081905550808061193490613ae1565b9150506118b1565b6000828152600460205260409020600101546119588133611cff565b610bf68383611fa6565b600260065414156119855760405162461bcd60e51b815260040161086790613b4f565b60026006557f0914bb97ca83e85ef385857d9d418f187ff630589e0c9f44db92976d8e4519cb6119b58133611cff565b6119c0848484612779565b505060016006555050565b600080516020613fd18339815191526119e48133611cff565b8151835114611a065760405163574b16a760e11b815260040160405180910390fd5b60005b8351811015610cf257600754848281518110611a2757611a27613ab5565b60200260200101511115611a4e5760405163574b16a760e11b815260040160405180910390fd5b828181518110611a6057611a60613ab5565b602002602001015160086000868481518110611a7e57611a7e613ab5565b60200260200101518152602001908152602001600020819055508080611aa390613ae1565b915050611a09565b6000611ad77f4a0c3698e72495f6d49f6ef074f2b34cac5b153c817a7cc37789cccbb873cf5d83611554565b80611b0757506001600160a01b0380841660009081526001602090815260408083209386168352929052205460ff165b9392505050565b6001600160a01b038516331480611b2a5750611b2a8533611aab565b611b885760405162461bcd60e51b815260206004820152602960248201527f455243313135353a2063616c6c6572206973206e6f74206f776e6572206e6f7260448201526808185c1c1c9bdd995960ba1b6064820152608401610867565b6109d085858585856127cb565b6003546001600160a01b03163314611bef5760405162461bcd60e51b815260206004820181905260248201527f4f776e61626c653a2063616c6c6572206973206e6f7420746865206f776e65726044820152606401610867565b6001600160a01b038116611c545760405162461bcd60e51b815260206004820152602660248201527f4f776e61626c653a206e6577206f776e657220697320746865207a65726f206160448201526564647265737360d01b6064820152608401610867565b610d2b816124f5565b336001600160a01b0384168114801590611c9e5750611c9c7f3c11d16cbaffd01df69ce1c404f6340ee057498f5f00246190ea54220576a84882611554565b155b8015611cb15750611caf8482611aab565b155b15611ccf5760405163574b16a760e11b815260040160405180910390fd5b610cf28484846128e8565b60006001600160e01b03198216637965db0b60e01b14806108a157506108a1826129e9565b611d098282611554565b6108c957611d21816001600160a01b03166014612a39565b611d2c836020612a39565b604051602001611d3d929190613bc2565b60408051601f198184030181529082905262461bcd60e51b825261086791600401613313565b80516108c99060029060208401906130c7565b8151835114611d975760405162461bcd60e51b815260040161086790613c37565b6001600160a01b038416611dbd5760405162461bcd60e51b815260040161086790613c7f565b33611dcc818787878787612bd4565b60005b8451811015611eb2576000858281518110611dec57611dec613ab5565b602002602001015190506000858381518110611e0a57611e0a613ab5565b602090810291909101810151600084815280835260408082206001600160a01b038e168352909352919091205490915081811015611e5a5760405162461bcd60e51b815260040161086790613cc4565b6000838152602081815260408083206001600160a01b038e8116855292528083208585039055908b16825281208054849290611e97908490613b37565b9250508190555050505080611eab90613ae1565b9050611dcf565b50846001600160a01b0316866001600160a01b0316826001600160a01b03167f4a39dc06d4c0dbc64b70af90fd698a233a518aa5d07e595d983b8c0526c8f7fb8787604051611f02929190613d0e565b60405180910390a4611f18818787878787612bfd565b505050505050565b611f2a8282611554565b6108c95760008281526004602090815260408083206001600160a01b03851684529091529020805460ff19166001179055611f623390565b6001600160a01b0316816001600160a01b0316837f2f8788117e7eff1d82e926ec794901d17c78024a50270940304540a733656f0d60405160405180910390a45050565b611fb08282611554565b156108c95760008281526004602090815260408083206001600160a01b0385168085529252808320805460ff1916905551339285917ff6391f5c32d9c69d2a47ea670b442974b53935d1edc7fd64eb21e047a839171b9190a45050565b6001600160a01b0383166120335760405162461bcd60e51b815260040161086790613d33565b80518251146120545760405162461bcd60e51b815260040161086790613c37565b600033905061207781856000868660405180602001604052806000815250612bd4565b60005b835181101561213c57600084828151811061209757612097613ab5565b6020026020010151905060008483815181106120b5576120b5613ab5565b602090810291909101810151600084815280835260408082206001600160a01b038c1683529093529190912054909150818110156121055760405162461bcd60e51b815260040161086790613d76565b6000928352602083815260408085206001600160a01b038b168652909152909220910390558061213481613ae1565b91505061207a565b5060006001600160a01b0316846001600160a01b0316826001600160a01b03167f4a39dc06d4c0dbc64b70af90fd698a233a518aa5d07e595d983b8c0526c8f7fb868660405161218d929190613d0e565b60405180910390a450505050565b60055460ff166121e45760405162461bcd60e51b815260206004820152601460248201527314185d5cd8589b194e881b9bdd081c185d5cd95960621b6044820152606401610867565b6005805460ff191690557f5db9ee0a495bf2e6ff9c91a7834c1ba4fdd244a5e8aa4e537bd38aeae4b073aa335b6040516001600160a01b03909116815260200160405180910390a1565b60006007548311158015611b0757506000838152600860205260409020541580611b075750600083815260086020908152604080832054600990925290912054612279908490613b37565b11159392505050565b6001600160a01b0384166122a85760405162461bcd60e51b815260040161086790613dba565b81518351146122c95760405162461bcd60e51b815260040161086790613c37565b336122d981600087878787612bd4565b60005b8451811015612374578381815181106122f7576122f7613ab5565b602002602001015160008087848151811061231457612314613ab5565b602002602001015181526020019081526020016000206000886001600160a01b03166001600160a01b03168152602001908152602001600020600082825461235c9190613b37565b9091555081905061236c81613ae1565b9150506122dc565b50846001600160a01b031660006001600160a01b0316826001600160a01b03167f4a39dc06d4c0dbc64b70af90fd698a233a518aa5d07e595d983b8c0526c8f7fb87876040516123c5929190613d0e565b60405180910390a46109d081600087878787612bfd565b8047101561242c5760405162461bcd60e51b815260206004820152601d60248201527f416464726573733a20696e73756666696369656e742062616c616e63650000006044820152606401610867565b6000826001600160a01b03168260405160006040518083038185875af1925050503d8060008114612479576040519150601f19603f3d011682016040523d82523d6000602084013e61247e565b606091505b5050905080610bf65760405162461bcd60e51b815260206004820152603a60248201527f416464726573733a20756e61626c6520746f2073656e642076616c75652c207260448201527f6563697069656e74206d617920686176652072657665727465640000000000006064820152608401610867565b600380546001600160a01b038381166001600160a01b0319831681179093556040519116919082907f8be0079c531659141344cd1fd0a4f28419497f9722a3daafe3b4186f6b6457e090600090a35050565b6001600160a01b03841661256d5760405162461bcd60e51b815260040161086790613dba565b3361258d8160008761257e88612d68565b61258788612d68565b87612bd4565b6000848152602081815260408083206001600160a01b0389168452909152812080548592906125bd908490613b37565b909155505060408051858152602081018590526001600160a01b0380881692600092918516917fc3d58168c5ae7397731d063d5bbf3d657854427343f4c083240f7aacaa2d0f62910160405180910390a46109d081600087878787612db3565b60055460ff16156126635760405162461bcd60e51b815260206004820152601060248201526f14185d5cd8589b194e881c185d5cd95960821b6044820152606401610867565b6005805460ff191660011790557f62e78cea01bee320cd4e420270b5ea74000d11b0c9f74754ebdbfc544b05a2586122113390565b816001600160a01b0316836001600160a01b0316141561270c5760405162461bcd60e51b815260206004820152602960248201527f455243313135353a2073657474696e6720617070726f76616c20737461747573604482015268103337b91039b2b63360b91b6064820152608401610867565b6001600160a01b03838116600081815260016020908152604080832094871680845294825291829020805460ff191686151590811790915591519182527f17307eab39ab6107e8899845ad3d59bd9653f200f220920489ca2b5937696c31910160405180910390a3505050565b604080516001600160a01b038416602482015260448082018490528251808303909101815260649091019091526020810180516001600160e01b031663a9059cbb60e01b179052610bf6908490612e7d565b6001600160a01b0384166127f15760405162461bcd60e51b815260040161086790613c7f565b3361280181878761257e88612d68565b6000848152602081815260408083206001600160a01b038a168452909152902054838110156128425760405162461bcd60e51b815260040161086790613cc4565b6000858152602081815260408083206001600160a01b038b811685529252808320878503905590881682528120805486929061287f908490613b37565b909155505060408051868152602081018690526001600160a01b03808916928a821692918616917fc3d58168c5ae7397731d063d5bbf3d657854427343f4c083240f7aacaa2d0f62910160405180910390a46128df828888888888612db3565b50505050505050565b6001600160a01b03831661290e5760405162461bcd60e51b815260040161086790613d33565b3361293d8185600061291f87612d68565b61292887612d68565b60405180602001604052806000815250612bd4565b6000838152602081815260408083206001600160a01b03881684529091529020548281101561297e5760405162461bcd60e51b815260040161086790613d76565b6000848152602081815260408083206001600160a01b03898116808652918452828520888703905582518981529384018890529092908616917fc3d58168c5ae7397731d063d5bbf3d657854427343f4c083240f7aacaa2d0f62910160405180910390a45050505050565b60006001600160e01b03198216636cdb3d1360e11b1480612a1a57506001600160e01b031982166303a24d0760e21b145b806108a157506301ffc9a760e01b6001600160e01b03198316146108a1565b60606000612a48836002613b86565b612a53906002613b37565b6001600160401b03811115612a6a57612a6a6131d4565b6040519080825280601f01601f191660200182016040528015612a94576020820181803683370190505b509050600360fc1b81600081518110612aaf57612aaf613ab5565b60200101906001600160f81b031916908160001a905350600f60fb1b81600181518110612ade57612ade613ab5565b60200101906001600160f81b031916908160001a9053506000612b02846002613b86565b612b0d906001613b37565b90505b6001811115612b85576f181899199a1a9b1b9c1cb0b131b232b360811b85600f1660108110612b4157612b41613ab5565b1a60f81b828281518110612b5757612b57613ab5565b60200101906001600160f81b031916908160001a90535060049490941c93612b7e81613dfb565b9050612b10565b508315611b075760405162461bcd60e51b815260206004820181905260248201527f537472696e67733a20686578206c656e67746820696e73756666696369656e746044820152606401610867565b60055460ff1615612bf85760405163574b16a760e11b815260040160405180910390fd5b611f18565b6001600160a01b0384163b15611f185760405163bc197c8160e01b81526001600160a01b0385169063bc197c8190612c419089908990889088908890600401613e12565b602060405180830381600087803b158015612c5b57600080fd5b505af1925050508015612c8b575060408051601f3d908101601f19168201909252612c8891810190613e70565b60015b612d3857612c97613e8d565b806308c379a01415612cd15750612cac613ea9565b80612cb75750612cd3565b8060405162461bcd60e51b81526004016108679190613313565b505b60405162461bcd60e51b815260206004820152603460248201527f455243313135353a207472616e7366657220746f206e6f6e20455243313135356044820152732932b1b2b4bb32b91034b6b83632b6b2b73a32b960611b6064820152608401610867565b6001600160e01b0319811663bc197c8160e01b146128df5760405162461bcd60e51b815260040161086790613f32565b60408051600180825281830190925260609160009190602080830190803683370190505090508281600081518110612da257612da2613ab5565b602090810291909101015292915050565b6001600160a01b0384163b15611f185760405163f23a6e6160e01b81526001600160a01b0385169063f23a6e6190612df79089908990889088908890600401613f7a565b602060405180830381600087803b158015612e1157600080fd5b505af1925050508015612e41575060408051601f3d908101601f19168201909252612e3e91810190613e70565b60015b612e4d57612c97613e8d565b6001600160e01b0319811663f23a6e6160e01b146128df5760405162461bcd60e51b815260040161086790613f32565b6000612ed2826040518060400160405280602081526020017f5361666545524332303a206c6f772d6c6576656c2063616c6c206661696c6564815250856001600160a01b0316612f4f9092919063ffffffff16565b805190915015610bf65780806020019051810190612ef09190613ba5565b610bf65760405162461bcd60e51b815260206004820152602a60248201527f5361666545524332303a204552433230206f7065726174696f6e20646964206e6044820152691bdd081cdd58d8d9595960b21b6064820152608401610867565b6060612f5e8484600085612f66565b949350505050565b606082471015612fc75760405162461bcd60e51b815260206004820152602660248201527f416464726573733a20696e73756666696369656e742062616c616e636520666f6044820152651c8818d85b1b60d21b6064820152608401610867565b843b6130155760405162461bcd60e51b815260206004820152601d60248201527f416464726573733a2063616c6c20746f206e6f6e2d636f6e74726163740000006044820152606401610867565b600080866001600160a01b031685876040516130319190613fb4565b60006040518083038185875af1925050503d806000811461306e576040519150601f19603f3d011682016040523d82523d6000602084013e613073565b606091505b509150915061308382828661308e565b979650505050505050565b6060831561309d575081611b07565b8251156130ad5782518084602001fd5b8160405162461bcd60e51b81526004016108679190613313565b8280546130d390613afc565b90600052602060002090601f0160209004810192826130f5576000855561313b565b82601f1061310e57805160ff191683800117855561313b565b8280016001018555821561313b579182015b8281111561313b578251825591602001919060010190613120565b5061314792915061314b565b5090565b5b80821115613147576000815560010161314c565b6001600160a01b0381168114610d2b57600080fd5b6000806040838503121561318857600080fd5b823561319381613160565b946020939093013593505050565b6001600160e01b031981168114610d2b57600080fd5b6000602082840312156131c957600080fd5b8135611b07816131a1565b634e487b7160e01b600052604160045260246000fd5b601f8201601f191681016001600160401b038111828210171561320f5761320f6131d4565b6040525050565b60006001600160401b0383111561322f5761322f6131d4565b604051613246601f8501601f1916602001826131ea565b80915083815284848401111561325b57600080fd5b83836020830137600060208583010152509392505050565b60006020828403121561328557600080fd5b81356001600160401b0381111561329b57600080fd5b8201601f810184136132ac57600080fd5b612f5e84823560208401613216565b60005b838110156132d65781810151838201526020016132be565b83811115610cf25750506000910152565b600081518084526132ff8160208601602086016132bb565b601f01601f19169290920160200192915050565b602081526000611b0760208301846132e7565b60006001600160401b0382111561333f5761333f6131d4565b5060051b60200190565b600082601f83011261335a57600080fd5b8135602061336782613326565b60405161337482826131ea565b83815260059390931b850182019282810191508684111561339457600080fd5b8286015b848110156133af5780358352918301918301613398565b509695505050505050565b6000806000606084860312156133cf57600080fd5b83356001600160401b03808211156133e657600080fd5b6133f287838801613349565b94506020860135915061340482613160565b9092506040850135908082111561341a57600080fd5b5061342786828701613349565b9150509250925092565b60006020828403121561344357600080fd5b5035919050565b600082601f83011261345b57600080fd5b8135602061346882613326565b60405161347582826131ea565b83815260059390931b850182019282810191508684111561349557600080fd5b8286015b848110156133af5780356134ac81613160565b8352918301918301613499565b6000806000606084860312156134ce57600080fd5b8335925060208401356001600160401b03808211156134ec57600080fd5b6134f88783880161344a565b9350604086013591508082111561341a57600080fd5b600082601f83011261351f57600080fd5b611b0783833560208501613216565b600080600080600060a0868803121561354657600080fd5b853561355181613160565b9450602086013561356181613160565b935060408601356001600160401b038082111561357d57600080fd5b61358989838a01613349565b9450606088013591508082111561359f57600080fd5b6135ab89838a01613349565b935060808801359150808211156135c157600080fd5b506135ce8882890161350e565b9150509295509295909350565b600080604083850312156135ee57600080fd5b82359150602083013561360081613160565b809150509250929050565b60008060006060848603121561362057600080fd5b833561362b81613160565b925060208401356001600160401b038082111561364757600080fd5b6134f887838801613349565b6000806000806080858703121561366957600080fd5b843561367481613160565b935060208501356001600160401b038082111561369057600080fd5b61369c88838901613349565b945060408701359150808211156136b257600080fd5b6136be88838901613349565b935060608701359150808211156136d457600080fd5b506136e18782880161350e565b91505092959194509250565b6000806000806080858703121561370357600080fd5b843561370e81613160565b9350602085013561371e81613160565b925060408501356001600160401b038082111561373a57600080fd5b61374688838901613349565b9350606087013591508082111561375c57600080fd5b506136e187828801613349565b6000806040838503121561377c57600080fd5b82356001600160401b038082111561379357600080fd5b61379f8683870161344a565b935060208501359150808211156137b557600080fd5b506137c285828601613349565b9150509250929050565b600081518084526020808501945080840160005b838110156137fc578151875295820195908201906001016137e0565b509495945050505050565b602081526000611b0760208301846137cc565b60006020828403121561382c57600080fd5b8135611b0781613160565b6000806000806080858703121561384d57600080fd5b843561385881613160565b9350602085013592506040850135915060608501356001600160401b0381111561388157600080fd5b6136e18782880161350e565b600080604083850312156138a057600080fd5b8235915060208301356001600160401b038111156138bd57600080fd5b6137c28582860161344a565b8381528260208201526060604082015260006138e860608301846137cc565b95945050505050565b8015158114610d2b57600080fd5b6000806040838503121561391257600080fd5b823561391d81613160565b91506020830135613600816138f1565b6000806000806080858703121561394357600080fd5b843561394e81613160565b9350602085013561395e81613160565b93969395505050506040820135916060013590565b60008060006060848603121561398857600080fd5b833561399381613160565b925060208401356139a381613160565b929592945050506040919091013590565b600080604083850312156139c757600080fd5b82356001600160401b03808211156139de57600080fd5b61379f86838701613349565b600080604083850312156139fd57600080fd5b8235613a0881613160565b9150602083013561360081613160565b600080600080600060a08688031215613a3057600080fd5b8535613a3b81613160565b94506020860135613a4b81613160565b9350604086013592506060860135915060808601356001600160401b03811115613a7457600080fd5b6135ce8882890161350e565b600080600060608486031215613a9557600080fd5b8335613aa081613160565b95602085013595506040909401359392505050565b634e487b7160e01b600052603260045260246000fd5b634e487b7160e01b600052601160045260246000fd5b6000600019821415613af557613af5613acb565b5060010190565b600181811c90821680613b1057607f821691505b60208210811415613b3157634e487b7160e01b600052602260045260246000fd5b50919050565b60008219821115613b4a57613b4a613acb565b500190565b6020808252601f908201527f5265656e7472616e637947756172643a207265656e7472616e742063616c6c00604082015260600190565b6000816000190483118215151615613ba057613ba0613acb565b500290565b600060208284031215613bb757600080fd5b8151611b07816138f1565b7f416363657373436f6e74726f6c3a206163636f756e7420000000000000000000815260008351613bfa8160178501602088016132bb565b7001034b99036b4b9b9b4b733903937b6329607d1b6017918401918201528351613c2b8160288401602088016132bb565b01602801949350505050565b60208082526028908201527f455243313135353a2069647320616e6420616d6f756e7473206c656e677468206040820152670dad2e6dac2e8c6d60c31b606082015260800190565b60208082526025908201527f455243313135353a207472616e7366657220746f20746865207a65726f206164604082015264647265737360d81b606082015260800190565b6020808252602a908201527f455243313135353a20696e73756666696369656e742062616c616e636520666f60408201526939103a3930b739b332b960b11b606082015260800190565b604081526000613d2160408301856137cc565b82810360208401526138e881856137cc565b60208082526023908201527f455243313135353a206275726e2066726f6d20746865207a65726f206164647260408201526265737360e81b606082015260800190565b60208082526024908201527f455243313135353a206275726e20616d6f756e7420657863656564732062616c604082015263616e636560e01b606082015260800190565b60208082526021908201527f455243313135353a206d696e7420746f20746865207a65726f206164647265736040820152607360f81b606082015260800190565b600081613e0a57613e0a613acb565b506000190190565b6001600160a01b0386811682528516602082015260a060408201819052600090613e3e908301866137cc565b8281036060840152613e5081866137cc565b90508281036080840152613e6481856132e7565b98975050505050505050565b600060208284031215613e8257600080fd5b8151611b07816131a1565b600060033d1115613ea65760046000803e5060005160e01c5b90565b600060443d1015613eb75790565b6040516003193d81016004833e81513d6001600160401b038160248401118184111715613ee657505050505090565b8285019150815181811115613efe5750505050505090565b843d8701016020828501011115613f185750505050505090565b613f27602082860101876131ea565b509095945050505050565b60208082526028908201527f455243313135353a204552433131353552656365697665722072656a656374656040820152676420746f6b656e7360c01b606082015260800190565b6001600160a01b03868116825285166020820152604081018490526060810183905260a060808201819052600090613083908301846132e7565b60008251613fc68184602087016132bb565b919091019291505056fe850d585eb7f024ccee5e68e55f2c26cc72e1e6ee456acf62135757a5eb9d4a10a264697066735822122086ef27ab76d4b4934f1af37f5092893d94a678d6196b5e13befd1dd34d90392864736f6c63430008090033",
  "linkReferences": {},
  "deployedLinkReferences": {}
}