{
  "_format": "hh-sol-artifact-1",
  "contractName": "CashCowsLoot",
  "sourceName": "contracts/phase4/CashCowsLoot.sol",
  "abi": [
    {
      "inputs": [
        {
          "internalType": "string",
          "name": "_uri",
          "type": "string"
        },
        {
          "internalType": "address",
          "name": "admin",
          "type": "address"
        }
      ],
      "stateMutability": "nonpayable",
      "type": "constructor"
    },
    {
      "inputs": [],
      "name": "InvalidCall",
      "type": "error"
    },
    {
      "anonymous": false,
      "inputs": [
        {
          "indexed": true,
          "internalType": "address",
          "name": "account",
          "type": "address"
        },
        {
          "indexed": true,
          "internalType": "address",
          "name": "operator",
          "type": "address"
        },
        {
          "indexed": false,
          "internalType": "bool",
          "name": "approved",
          "type": "bool"
        }
      ],
      "name": "ApprovalForAll",
      "type": "event"
    },
    {
      "anonymous": false,
      "inputs": [
        {
          "indexed": true,
          "internalType": "address",
          "name": "previousOwner",
          "type": "address"
        },
        {
          "indexed": true,
          "internalType": "address",
          "name": "newOwner",
          "type": "address"
        }
      ],
      "name": "OwnershipTransferred",
      "type": "event"
    },
    {
      "anonymous": false,
      "inputs": [
        {
          "indexed": false,
          "internalType": "address",
          "name": "account",
          "type": "address"
        }
      ],
      "name": "Paused",
      "type": "event"
    },
    {
      "anonymous": false,
      "inputs": [
        {
          "indexed": true,
          "internalType": "bytes32",
          "name": "role",
          "type": "bytes32"
        },
        {
          "indexed": true,
          "internalType": "bytes32",
          "name": "previousAdminRole",
          "type": "bytes32"
        },
        {
          "indexed": true,
          "internalType": "bytes32",
          "name": "newAdminRole",
          "type": "bytes32"
        }
      ],
      "name": "RoleAdminChanged",
      "type": "event"
    },
    {
      "anonymous": false,
      "inputs": [
        {
          "indexed": true,
          "internalType": "bytes32",
          "name": "role",
          "type": "bytes32"
        },
        {
          "indexed": true,
          "internalType": "address",
          "name": "account",
          "type": "address"
        },
        {
          "indexed": true,
          "internalType": "address",
          "name": "sender",
          "type": "address"
        }
      ],
      "name": "RoleGranted",
      "type": "event"
    },
    {
      "anonymous": false,
      "inputs": [
        {
          "indexed": true,
          "internalType": "bytes32",
          "name": "role",
          "type": "bytes32"
        },
        {
          "indexed": true,
          "internalType": "address",
          "name": "account",
          "type": "address"
        },
        {
          "indexed": true,
          "internalType": "address",
          "name": "sender",
          "type": "address"
        }
      ],
      "name": "RoleRevoked",
      "type": "event"
    },
    {
      "anonymous": false,
      "inputs": [
        {
          "indexed": true,
          "internalType": "address",
          "name": "operator",
          "type": "address"
        },
        {
          "indexed": true,
          "internalType": "address",
          "name": "from",
          "type": "address"
        },
        {
          "indexed": true,
          "internalType": "address",
          "name": "to",
          "type": "address"
        },
        {
          "indexed": false,
          "internalType": "uint256[]",
          "name": "ids",
          "type": "uint256[]"
        },
        {
          "indexed": false,
          "internalType": "uint256[]",
          "name": "values",
          "type": "uint256[]"
        }
      ],
      "name": "TransferBatch",
      "type": "event"
    },
    {
      "anonymous": false,
      "inputs": [
        {
          "indexed": true,
          "internalType": "address",
          "name": "operator",
          "type": "address"
        },
        {
          "indexed": true,
          "internalType": "address",
          "name": "from",
          "type": "address"
        },
        {
          "indexed": true,
          "internalType": "address",
          "name": "to",
          "type": "address"
        },
        {
          "indexed": false,
          "internalType": "uint256",
          "name": "id",
          "type": "uint256"
        },
        {
          "indexed": false,
          "internalType": "uint256",
          "name": "value",
          "type": "uint256"
        }
      ],
      "name": "TransferSingle",
      "type": "event"
    },
    {
      "anonymous": false,
      "inputs": [
        {
          "indexed": false,
          "internalType": "string",
          "name": "value",
          "type": "string"
        },
        {
          "indexed": true,
          "internalType": "uint256",
          "name": "id",
          "type": "uint256"
        }
      ],
      "name": "URI",
      "type": "event"
    },
    {
      "anonymous": false,
      "inputs": [
        {
          "indexed": false,
          "internalType": "address",
          "name": "account",
          "type": "address"
        }
      ],
      "name": "Unpaused",
      "type": "event"
    },
    {
      "inputs": [],
      "name": "DEFAULT_ADMIN_ROLE",
      "outputs": [
        {
          "internalType": "bytes32",
          "name": "",
          "type": "bytes32"
        }
      ],
      "stateMutability": "view",
      "type": "function"
    },
    {
      "inputs": [
        {
          "internalType": "string",
          "name": "itemURI",
          "type": "string"
        },
        {
          "internalType": "uint256",
          "name": "itemMax",
          "type": "uint256"
        }
      ],
      "name": "addItem",
      "outputs": [],
      "stateMutability": "nonpayable",
      "type": "function"
    },
    {
      "inputs": [
        {
          "internalType": "address",
          "name": "account",
          "type": "address"
        },
        {
          "internalType": "uint256",
          "name": "id",
          "type": "uint256"
        }
      ],
      "name": "balanceOf",
      "outputs": [
        {
          "internalType": "uint256",
          "name": "",
          "type": "uint256"
        }
      ],
      "stateMutability": "view",
      "type": "function"
    },
    {
      "inputs": [
        {
          "internalType": "address[]",
          "name": "accounts",
          "type": "address[]"
        },
        {
          "internalType": "uint256[]",
          "name": "ids",
          "type": "uint256[]"
        }
      ],
      "name": "balanceOfBatch",
      "outputs": [
        {
          "internalType": "uint256[]",
          "name": "",
          "type": "uint256[]"
        }
      ],
      "stateMutability": "view",
      "type": "function"
    },
    {
      "inputs": [
        {
          "internalType": "address",
          "name": "account",
          "type": "address"
        },
        {
          "internalType": "uint256[]",
          "name": "ids",
          "type": "uint256[]"
        },
        {
          "internalType": "uint256[]",
          "name": "values",
          "type": "uint256[]"
        }
      ],
      "name": "burn",
      "outputs": [],
      "stateMutability": "nonpayable",
      "type": "function"
    },
    {
      "inputs": [
        {
          "internalType": "address",
          "name": "account",
          "type": "address"
        },
        {
          "internalType": "uint256",
          "name": "itemId",
          "type": "uint256"
        },
        {
          "internalType": "uint256",
          "name": "value",
          "type": "uint256"
        }
      ],
      "name": "burn",
      "outputs": [],
      "stateMutability": "nonpayable",
      "type": "function"
    },
    {
      "inputs": [
        {
          "internalType": "contract IERC20",
          "name": "token",
          "type": "address"
        },
        {
          "internalType": "bool",
          "name": "burnable",
          "type": "bool"
        }
      ],
      "name": "burnTokens",
      "outputs": [],
      "stateMutability": "nonpayable",
      "type": "function"
    },
    {
      "inputs": [
        {
          "internalType": "bytes32",
          "name": "role",
          "type": "bytes32"
        }
      ],
      "name": "getRoleAdmin",
      "outputs": [
        {
          "internalType": "bytes32",
          "name": "",
          "type": "bytes32"
        }
      ],
      "stateMutability": "view",
      "type": "function"
    },
    {
      "inputs": [
        {
          "internalType": "bytes32",
          "name": "role",
          "type": "bytes32"
        },
        {
          "internalType": "address",
          "name": "account",
          "type": "address"
        }
      ],
      "name": "grantRole",
      "outputs": [],
      "stateMutability": "nonpayable",
      "type": "function"
    },
    {
      "inputs": [
        {
          "internalType": "bytes32",
          "name": "role",
          "type": "bytes32"
        },
        {
          "internalType": "address",
          "name": "account",
          "type": "address"
        }
      ],
      "name": "hasRole",
      "outputs": [
        {
          "internalType": "bool",
          "name": "",
          "type": "bool"
        }
      ],
      "stateMutability": "view",
      "type": "function"
    },
    {
      "inputs": [
        {
          "internalType": "address",
          "name": "owner",
          "type": "address"
        },
        {
          "internalType": "address",
          "name": "operator",
          "type": "address"
        }
      ],
      "name": "isApprovedForAll",
      "outputs": [
        {
          "internalType": "bool",
          "name": "",
          "type": "bool"
        }
      ],
      "stateMutability": "view",
      "type": "function"
    },
    {
      "inputs": [],
      "name": "lastItemId",
      "outputs": [
        {
          "internalType": "uint256",
          "name": "",
          "type": "uint256"
        }
      ],
      "stateMutability": "view",
      "type": "function"
    },
    {
      "inputs": [
        {
          "internalType": "uint256",
          "name": "itemId",
          "type": "uint256"
        }
      ],
      "name": "maxSupply",
      "outputs": [
        {
          "internalType": "uint256",
          "name": "",
          "type": "uint256"
        }
      ],
      "stateMutability": "view",
      "type": "function"
    },
    {
      "inputs": [
        {
          "internalType": "address",
          "name": "to",
          "type": "address"
        },
        {
          "internalType": "uint256",
          "name": "itemId",
          "type": "uint256"
        },
        {
          "internalType": "uint256",
          "name": "amount",
          "type": "uint256"
        }
      ],
      "name": "mint",
      "outputs": [],
      "stateMutability": "payable",
      "type": "function"
    },
    {
      "inputs": [
        {
          "internalType": "address",
          "name": "to",
          "type": "address"
        },
        {
          "internalType": "uint256[]",
          "name": "itemIds",
          "type": "uint256[]"
        },
        {
          "internalType": "address",
          "name": "token",
          "type": "address"
        },
        {
          "internalType": "uint256[]",
          "name": "amounts",
          "type": "uint256[]"
        }
      ],
      "name": "mint",
      "outputs": [],
      "stateMutability": "nonpayable",
      "type": "function"
    },
    {
      "inputs": [
        {
          "internalType": "address",
          "name": "to",
          "type": "address"
        },
        {
          "internalType": "uint256",
          "name": "itemId",
          "type": "uint256"
        },
        {
          "internalType": "address",
          "name": "token",
          "type": "address"
        },
        {
          "internalType": "uint256",
          "name": "amount",
          "type": "uint256"
        }
      ],
      "name": "mint",
      "outputs": [],
      "stateMutability": "nonpayable",
      "type": "function"
    },
    {
      "inputs": [
        {
          "internalType": "address",
          "name": "to",
          "type": "address"
        },
        {
          "internalType": "uint256[]",
          "name": "itemIds",
          "type": "uint256[]"
        },
        {
          "internalType": "uint256[]",
          "name": "amounts",
          "type": "uint256[]"
        },
        {
          "internalType": "bytes",
          "name": "data",
          "type": "bytes"
        }
      ],
      "name": "mint",
      "outputs": [],
      "stateMutability": "nonpayable",
      "type": "function"
    },
    {
      "inputs": [
        {
          "internalType": "address",
          "name": "to",
          "type": "address"
        },
        {
          "internalType": "uint256",
          "name": "itemId",
          "type": "uint256"
        },
        {
          "internalType": "uint256",
          "name": "amount",
          "type": "uint256"
        },
        {
          "internalType": "bytes",
          "name": "data",
          "type": "bytes"
        }
      ],
      "name": "mint",
      "outputs": [],
      "stateMutability": "nonpayable",
      "type": "function"
    },
    {
      "inputs": [
        {
          "internalType": "address",
          "name": "to",
          "type": "address"
        },
        {
          "internalType": "uint256[]",
          "name": "itemIds",
          "type": "uint256[]"
        },
        {
          "internalType": "uint256[]",
          "name": "amounts",
          "type": "uint256[]"
        }
      ],
      "name": "mint",
      "outputs": [],
      "stateMutability": "payable",
      "type": "function"
    },
    {
      "inputs": [],
      "name": "name",
      "outputs": [
        {
          "internalType": "string",
          "name": "",
          "type": "string"
        }
      ],
      "stateMutability": "pure",
      "type": "function"
    },
    {
      "inputs": [],
      "name": "owner",
      "outputs": [
        {
          "internalType": "address",
          "name": "",
          "type": "address"
        }
      ],
      "stateMutability": "view",
      "type": "function"
    },
    {
      "inputs": [],
      "name": "pause",
      "outputs": [],
      "stateMutability": "nonpayable",
      "type": "function"
    },
    {
      "inputs": [],
      "name": "paused",
      "outputs": [
        {
          "internalType": "bool",
          "name": "",
          "type": "bool"
        }
      ],
      "stateMutability": "view",
      "type": "function"
    },
    {
      "inputs": [
        {
          "internalType": "uint256",
          "name": "itemId",
          "type": "uint256"
        },
        {
          "internalType": "contract IERC20",
          "name": "token",
          "type": "address"
        }
      ],
      "name": "priceOf",
      "outputs": [
        {
          "internalType": "uint256",
          "name": "",
          "type": "uint256"
        }
      ],
      "stateMutability": "view",
      "type": "function"
    },
    {
      "inputs": [
        {
          "internalType": "uint256",
          "name": "itemId",
          "type": "uint256"
        }
      ],
      "name": "priceOf",
      "outputs": [
        {
          "internalType": "uint256",
          "name": "",
          "type": "uint256"
        }
      ],
      "stateMutability": "view",
      "type": "function"
    },
    {
      "inputs": [],
      "name": "renounceOwnership",
      "outputs": [],
      "stateMutability": "nonpayable",
      "type": "function"
    },
    {
      "inputs": [
        {
          "internalType": "bytes32",
          "name": "role",
          "type": "bytes32"
        },
        {
          "internalType": "address",
          "name": "account",
          "type": "address"
        }
      ],
      "name": "renounceRole",
      "outputs": [],
      "stateMutability": "nonpayable",
      "type": "function"
    },
    {
      "inputs": [
        {
          "internalType": "bytes32",
          "name": "role",
          "type": "bytes32"
        },
        {
          "internalType": "address",
          "name": "account",
          "type": "address"
        }
      ],
      "name": "revokeRole",
      "outputs": [],
      "stateMutability": "nonpayable",
      "type": "function"
    },
    {
      "inputs": [
        {
          "internalType": "address",
          "name": "from",
          "type": "address"
        },
        {
          "internalType": "address",
          "name": "to",
          "type": "address"
        },
        {
          "internalType": "uint256[]",
          "name": "ids",
          "type": "uint256[]"
        },
        {
          "internalType": "uint256[]",
          "name": "amounts",
          "type": "uint256[]"
        },
        {
          "internalType": "bytes",
          "name": "data",
          "type": "bytes"
        }
      ],
      "name": "safeBatchTransferFrom",
      "outputs": [],
      "stateMutability": "nonpayable",
      "type": "function"
    },
    {
      "inputs": [
        {
          "internalType": "address",
          "name": "from",
          "type": "address"
        },
        {
          "internalType": "address",
          "name": "to",
          "type": "address"
        },
        {
          "internalType": "uint256",
          "name": "id",
          "type": "uint256"
        },
        {
          "internalType": "uint256",
          "name": "amount",
          "type": "uint256"
        },
        {
          "internalType": "bytes",
          "name": "data",
          "type": "bytes"
        }
      ],
      "name": "safeTransferFrom",
      "outputs": [],
      "stateMutability": "nonpayable",
      "type": "function"
    },
    {
      "inputs": [
        {
          "internalType": "address",
          "name": "operator",
          "type": "address"
        },
        {
          "internalType": "bool",
          "name": "approved",
          "type": "bool"
        }
      ],
      "name": "setApprovalForAll",
      "outputs": [],
      "stateMutability": "nonpayable",
      "type": "function"
    },
    {
      "inputs": [
        {
          "internalType": "uint256",
          "name": "itemId",
          "type": "uint256"
        },
        {
          "internalType": "contract IERC20",
          "name": "token",
          "type": "address"
        },
        {
          "internalType": "uint256",
          "name": "price",
          "type": "uint256"
        }
      ],
      "name": "setPrice",
      "outputs": [],
      "stateMutability": "nonpayable",
      "type": "function"
    },
    {
      "inputs": [
        {
          "internalType": "uint256",
          "name": "itemId",
          "type": "uint256"
        },
        {
          "internalType": "uint256",
          "name": "price",
          "type": "uint256"
        }
      ],
      "name": "setPrice",
      "outputs": [],
      "stateMutability": "nonpayable",
      "type": "function"
    },
    {
      "inputs": [
        {
          "internalType": "string",
          "name": "uri_",
          "type": "string"
        }
      ],
      "name": "setURI",
      "outputs": [],
      "stateMutability": "nonpayable",
      "type": "function"
    },
    {
      "inputs": [
        {
          "internalType": "bytes4",
          "name": "interfaceId",
          "type": "bytes4"
        }
      ],
      "name": "supportsInterface",
      "outputs": [
        {
          "internalType": "bool",
          "name": "",
          "type": "bool"
        }
      ],
      "stateMutability": "view",
      "type": "function"
    },
    {
      "inputs": [],
      "name": "symbol",
      "outputs": [
        {
          "internalType": "string",
          "name": "",
          "type": "string"
        }
      ],
      "stateMutability": "pure",
      "type": "function"
    },
    {
      "inputs": [
        {
          "internalType": "uint256",
          "name": "itemId",
          "type": "uint256"
        }
      ],
      "name": "totalSupply",
      "outputs": [
        {
          "internalType": "uint256",
          "name": "",
          "type": "uint256"
        }
      ],
      "stateMutability": "view",
      "type": "function"
    },
    {
      "inputs": [
        {
          "internalType": "address",
          "name": "newOwner",
          "type": "address"
        }
      ],
      "name": "transferOwnership",
      "outputs": [],
      "stateMutability": "nonpayable",
      "type": "function"
    },
    {
      "inputs": [],
      "name": "unpause",
      "outputs": [],
      "stateMutability": "nonpayable",
      "type": "function"
    },
    {
      "inputs": [
        {
          "internalType": "uint256",
          "name": "itemId",
          "type": "uint256"
        },
        {
          "internalType": "uint256",
          "name": "itemMax",
          "type": "uint256"
        }
      ],
      "name": "updateMaxSupply",
      "outputs": [],
      "stateMutability": "nonpayable",
      "type": "function"
    },
    {
      "inputs": [
        {
          "internalType": "uint256",
          "name": "itemId",
          "type": "uint256"
        },
        {
          "internalType": "string",
          "name": "itemURI",
          "type": "string"
        }
      ],
      "name": "updateURI",
      "outputs": [],
      "stateMutability": "nonpayable",
      "type": "function"
    },
    {
      "inputs": [
        {
          "internalType": "uint256",
          "name": "itemId",
          "type": "uint256"
        }
      ],
      "name": "uri",
      "outputs": [
        {
          "internalType": "string",
          "name": "",
          "type": "string"
        }
      ],
      "stateMutability": "view",
      "type": "function"
    },
    {
      "inputs": [
        {
          "internalType": "address",
          "name": "recipient",
          "type": "address"
        }
      ],
      "name": "withdraw",
      "outputs": [],
      "stateMutability": "nonpayable",
      "type": "function"
    },
    {
      "inputs": [
        {
          "internalType": "contract IERC20",
          "name": "erc20",
          "type": "address"
        },
        {
          "internalType": "address",
          "name": "recipient",
          "type": "address"
        },
        {
          "internalType": "uint256",
          "name": "amount",
          "type": "uint256"
        }
      ],
      "name": "withdraw",
      "outputs": [],
      "stateMutability": "nonpayable",
      "type": "function"
    }
  ],
  "bytecode": "0x60806040523480156200001157600080fd5b506040516200410d3803806200410d83398101604081905262000034916200028d565b8162000040816200009c565b506200004c33620000b5565b6005805460ff1916905560016006556200006860008262000107565b620000947f65d7a28e3265b37a6474929f336521b332c1681b933f6cb9f3376673440d862a8262000107565b5050620003bb565b8051620000b1906002906020840190620001b4565b5050565b600380546001600160a01b038381166001600160a01b0319831681179093556040519116919082907f8be0079c531659141344cd1fd0a4f28419497f9722a3daafe3b4186f6b6457e090600090a35050565b60008281526004602090815260408083206001600160a01b0385168452909152902054620000b1908390839060ff16620000b15760008281526004602090815260408083206001600160a01b03851684529091529020805460ff19166001179055620001703390565b6001600160a01b0316816001600160a01b0316837f2f8788117e7eff1d82e926ec794901d17c78024a50270940304540a733656f0d60405160405180910390a45050565b828054620001c2906200037e565b90600052602060002090601f016020900481019282620001e6576000855562000231565b82601f106200020157805160ff191683800117855562000231565b8280016001018555821562000231579182015b828111156200023157825182559160200191906001019062000214565b506200023f92915062000243565b5090565b5b808211156200023f576000815560010162000244565b634e487b7160e01b600052604160045260246000fd5b80516001600160a01b03811681146200028857600080fd5b919050565b60008060408385031215620002a157600080fd5b82516001600160401b0380821115620002b957600080fd5b818501915085601f830112620002ce57600080fd5b815181811115620002e357620002e36200025a565b604051601f8201601f19908116603f011681019083821181831017156200030e576200030e6200025a565b816040528281526020935088848487010111156200032b57600080fd5b600091505b828210156200034f578482018401518183018501529083019062000330565b82821115620003615760008484830101525b95506200037391505085820162000270565b925050509250929050565b600181811c908216806200039357607f821691505b60208210811415620003b557634e487b7160e01b600052602260045260246000fd5b50919050565b613d4280620003cb6000396000f3fe6080604052600436106102665760003560e01c8063715018a611610144578063b9186d7d116100b6578063e985e9c51161007a578063e985e9c514610793578063ed6cc2d1146107b3578063f242432a146107d3578063f2fde38b146107f3578063f5298aca14610813578063f7d975771461083357600080fd5b8063b9186d7d146106d9578063bd85b03914610706578063c528fa6314610733578063d547741f14610753578063d9caed121461077357600080fd5b80638da5cb5b116101085780638da5cb5b1461061c57806391d148541461064457806395d89b41146106645780639727756a14610691578063a217fddf146106a4578063a22cb465146106b957600080fd5b8063715018a614610562578063731133e9146105775780638456cb5914610597578063869f7594146105ac5780638a145e01146105d957600080fd5b806336568abe116101dd5780633fd04d20116101a15780633fd04d20146104a8578063440703d7146104bd5780634e1273f4146104dd57806351cff8d91461050a5780635c975abb1461052a57806362d6bbdf1461054257600080fd5b806336568abe146104135780633bf6cf6c146104335780633c173a4f146104535780633db0f8ab146104735780633f4ba83a1461049357600080fd5b8063156e29f61161022f578063156e29f614610350578063238e875f14610363578063248a9ca3146103835780632eb2c2d6146103b35780632f2ff15d146103d357806331d41c69146103f357600080fd5b8062fdd58e1461026b57806301ffc9a71461029e57806302fe5305146102ce57806306fdde03146102f05780630e89341c14610330575b600080fd5b34801561027757600080fd5b5061028b610286366004612f18565b610853565b6040519081526020015b60405180910390f35b3480156102aa57600080fd5b506102be6102b9366004612f5a565b6108ea565b6040519015158152602001610295565b3480156102da57600080fd5b506102ee6102e936600461302c565b6108fb565b005b3480156102fc57600080fd5b5060408051808201909152600e81526d10d85cda0810dbdddcc8131bdbdd60921b60208201525b60405161029591906130b8565b34801561033c57600080fd5b5061032361034b3660046130cb565b610921565b6102ee61035e3660046130e4565b6109df565b34801561036f57600080fd5b506102ee61037e366004613119565b610a7d565b34801561038f57600080fd5b5061028b61039e3660046130cb565b60009081526004602052604090206001015490565b3480156103bf57600080fd5b506102ee6103ce3660046131cf565b610aa9565b3480156103df57600080fd5b506102ee6103ee36600461327c565b610b40565b3480156103ff57600080fd5b506102ee61040e3660046132ac565b610b6b565b34801561041f57600080fd5b506102ee61042e36600461327c565b610ba9565b34801561043f57600080fd5b506102ee61044e3660046132f2565b610c23565b34801561045f57600080fd5b506102ee61046e36600461337c565b610ed5565b34801561047f57600080fd5b506102ee61048e3660046133c4565b6110a7565b34801561049f57600080fd5b506102ee611124565b3480156104b457600080fd5b50600c5461028b565b3480156104c957600080fd5b506102ee6104d8366004613439565b61115a565b3480156104e957600080fd5b506104fd6104f83660046134c7565b611191565b60405161029591906135c4565b34801561051657600080fd5b506102ee6105253660046135d7565b6112ba565b34801561053657600080fd5b5060055460ff166102be565b34801561054e57600080fd5b506102ee61055d3660046135f4565b611320565b34801561056e57600080fd5b506102ee61138b565b34801561058357600080fd5b506102ee610592366004613638565b6113f1565b3480156105a357600080fd5b506102ee611428565b3480156105b857600080fd5b5061028b6105c73660046130cb565b60009081526008602052604090205490565b3480156105e557600080fd5b5061028b6105f436600461327c565b6000918252600b602090815260408084206001600160a01b0393909316845291905290205490565b34801561062857600080fd5b506003546040516001600160a01b039091168152602001610295565b34801561065057600080fd5b506102be61065f36600461327c565b61145b565b34801561067057600080fd5b506040805180820190915260048152631313d3d560e21b6020820152610323565b6102ee61069f3660046133c4565b611486565b3480156106b057600080fd5b5061028b600081565b3480156106c557600080fd5b506102ee6106d436600461369c565b6115e2565b3480156106e557600080fd5b5061028b6106f43660046130cb565b6000908152600a602052604090205490565b34801561071257600080fd5b5061028b6107213660046130cb565b60009081526009602052604090205490565b34801561073f57600080fd5b506102ee61074e36600461369c565b6115ed565b34801561075f57600080fd5b506102ee61076e36600461327c565b611632565b34801561077f57600080fd5b506102ee61078e3660046136ca565b611658565b34801561079f57600080fd5b506102be6107ae36600461370b565b6116b6565b3480156107bf57600080fd5b506102ee6107ce366004613739565b611716565b3480156107df57600080fd5b506102ee6107ee366004613760565b611756565b3480156107ff57600080fd5b506102ee61080e3660046135d7565b6117dd565b34801561081f57600080fd5b506102ee61082e3660046130e4565b6118a5565b34801561083f57600080fd5b506102ee61084e366004613119565b611922565b60006001600160a01b0383166108c45760405162461bcd60e51b815260206004820152602b60248201527f455243313135353a2062616c616e636520717565727920666f7220746865207a60448201526a65726f206164647265737360a81b60648201526084015b60405180910390fd5b506000908152602081815260408083206001600160a01b03949094168352929052205490565b60006108f58261194e565b92915050565b600080516020613ced8339815191526109148133611973565b61091d826119d7565b5050565b60008181526007602052604081208054606092919061093f906137c8565b80601f016020809104026020016040519081016040528092919081815260200182805461096b906137c8565b80156109b85780601f1061098d576101008083540402835291602001916109b8565b820191906000526020600020905b81548152906001019060200180831161099b57829003601f168201915b5050505050905060008151116109d6576109d1836119ea565b6109d8565b805b9392505050565b60026006541415610a025760405162461bcd60e51b81526004016108bb90613803565b60026006556000828152600a60205260409020541580610a3a57506000828152600a6020526040902054610a37908290613850565b34105b15610a585760405163574b16a760e11b815260040160405180910390fd5b610a7383838360405180602001604052806000815250611a7e565b5050600160065550565b600080516020613ced833981519152610a968133611973565b5060009182526008602052604090912055565b6001600160a01b038516331480610ac55750610ac585336116b6565b610b2c5760405162461bcd60e51b815260206004820152603260248201527f455243313135353a207472616e736665722063616c6c6572206973206e6f74206044820152711bdddb995c881b9bdc88185c1c1c9bdd995960721b60648201526084016108bb565b610b398585858585611b54565b5050505050565b600082815260046020526040902060010154610b5c8133611973565b610b668383611cfe565b505050565b600080516020613ced833981519152610b848133611973565b60008381526007602090815260409091208351610ba392850190612e6a565b50505050565b6001600160a01b0381163314610c195760405162461bcd60e51b815260206004820152602f60248201527f416363657373436f6e74726f6c3a2063616e206f6e6c792072656e6f756e636560448201526e103937b632b9903337b91039b2b63360891b60648201526084016108bb565b61091d8282611d84565b60026006541415610c465760405162461bcd60e51b81526004016108bb90613803565b60026006558051835114610c6d5760405163574b16a760e11b815260040160405180910390fd5b600082815b8551811015610d7e57600b6000878381518110610c9157610c9161386f565b602002602001015181526020019081526020016000206000836001600160a01b03166001600160a01b031681526020019081526020016000205460001415610cec5760405163574b16a760e11b815260040160405180910390fd5b838181518110610cfe57610cfe61386f565b6020026020010151600b6000888481518110610d1c57610d1c61386f565b602002602001015181526020019081526020016000206000846001600160a01b03166001600160a01b0316815260200190815260200160002054610d609190613850565b610d6a9084613885565b925080610d768161389d565b915050610c72565b506001600160a01b0384166000908152600d602052604090205460ff1615610e15576001600160a01b0384166379cc6790336040516001600160e01b031960e084901b1681526001600160a01b03909116600482015260248101859052604401600060405180830381600087803b158015610df857600080fd5b505af1158015610e0c573d6000803e3d6000fd5b50505050610ead565b6001600160a01b0384166323b872dd336040516001600160e01b031960e084901b1681526001600160a01b03909116600482015230602482015260448101859052606401602060405180830381600087803b158015610e7357600080fd5b505af1158015610e87573d6000803e3d6000fd5b505050506040513d601f19601f82011682018060405250810190610eab91906138b8565b505b610ec886868560405180602001604052806000815250611deb565b5050600160065550505050565b60026006541415610ef85760405162461bcd60e51b81526004016108bb90613803565b60026006556000838152600b602090815260408083206001600160a01b038616845290915290205480610f3e5760405163574b16a760e11b815260040160405180910390fd5b6001600160a01b0383166000908152600d602052604090205460ff1615610fdc576001600160a01b0383166379cc679033610f798585613850565b6040516001600160e01b031960e085901b1681526001600160a01b0390921660048301526024820152604401600060405180830381600087803b158015610fbf57600080fd5b505af1158015610fd3573d6000803e3d6000fd5b50505050611080565b6001600160a01b0383166323b872dd3330610ff78686613850565b6040516001600160e01b031960e086901b1681526001600160a01b0393841660048201529290911660248301526044820152606401602060405180830381600087803b15801561104657600080fd5b505af115801561105a573d6000803e3d6000fd5b505050506040513d601f19601f8201168201806040525081019061107e91906138b8565b505b61109b85858460405180602001604052806000815250611a7e565b50506001600655505050565b336001600160a01b03841681148015906110e857506110e67f3c11d16cbaffd01df69ce1c404f6340ee057498f5f00246190ea54220576a8488261145b565b155b80156110fb57506110f984826116b6565b155b156111195760405163574b16a760e11b815260040160405180910390fd5b610ba3848484611f45565b7f65d7a28e3265b37a6474929f336521b332c1681b933f6cb9f3376673440d862a61114f8133611973565b6111576120d3565b50565b7f9f2df0fed2c77648de5860a4cc508cd0818c85b8b8a1ab4ceeef8d981c8956a66111858133611973565b610b3985858585611deb565b606081518351146111f65760405162461bcd60e51b815260206004820152602960248201527f455243313135353a206163636f756e747320616e6420696473206c656e677468604482015268040dad2e6dac2e8c6d60bb1b60648201526084016108bb565b600083516001600160401b0381111561121157611211612f77565b60405190808252806020026020018201604052801561123a578160200160208202803683370190505b50905060005b84518110156112b25761128585828151811061125e5761125e61386f565b60200260200101518583815181106112785761127861386f565b6020026020010151610853565b8282815181106112975761129761386f565b60209081029190910101526112ab8161389d565b9050611240565b509392505050565b600260065414156112dd5760405162461bcd60e51b81526004016108bb90613803565b60026006557f0914bb97ca83e85ef385857d9d418f187ff630589e0c9f44db92976d8e4519cb61130d8133611973565b6113178247612166565b50506001600655565b600080516020613ced8339815191526113398133611973565b8260076000600c6000815461134d9061389d565b91905081905581526020019081526020016000209080519060200190611374929190612e6a565b5050600c5460009081526008602052604090205550565b6003546001600160a01b031633146113e55760405162461bcd60e51b815260206004820181905260248201527f4f776e61626c653a2063616c6c6572206973206e6f7420746865206f776e657260448201526064016108bb565b6113ef600061227f565b565b7f9f2df0fed2c77648de5860a4cc508cd0818c85b8b8a1ab4ceeef8d981c8956a661141c8133611973565b610b3985858585611a7e565b7f65d7a28e3265b37a6474929f336521b332c1681b933f6cb9f3376673440d862a6114538133611973565b6111576122d1565b60009182526004602090815260408084206001600160a01b0393909316845291905290205460ff1690565b600260065414156114a95760405162461bcd60e51b81526004016108bb90613803565b600260065580518251146114d05760405163574b16a760e11b815260040160405180910390fd5b6000805b835181101561159a57600a60008583815181106114f3576114f361386f565b60200260200101518152602001908152602001600020546000141561152b5760405163574b16a760e11b815260040160405180910390fd5b82818151811061153d5761153d61386f565b6020026020010151600a600086848151811061155b5761155b61386f565b602002602001015181526020019081526020016000205461157c9190613850565b6115869083613885565b9150806115928161389d565b9150506114d4565b50803410156115bc5760405163574b16a760e11b815260040160405180910390fd5b6115d784848460405180602001604052806000815250611deb565b505060016006555050565b61091d33838361234c565b600080516020613ced8339815191526116068133611973565b506001600160a01b03919091166000908152600d60205260409020805460ff1916911515919091179055565b60008281526004602052604090206001015461164e8133611973565b610b668383611d84565b6002600654141561167b5760405162461bcd60e51b81526004016108bb90613803565b60026006557f0914bb97ca83e85ef385857d9d418f187ff630589e0c9f44db92976d8e4519cb6116ab8133611973565b6115d784848461242d565b60006116e27f4a0c3698e72495f6d49f6ef074f2b34cac5b153c817a7cc37789cccbb873cf5d8361145b565b806109d857506001600160a01b0380841660009081526001602090815260408083209386168352929052205460ff166109d8565b600080516020613ced83398151915261172f8133611973565b506000928352600b602090815260408085206001600160a01b039094168552929052912055565b6001600160a01b038516331480611772575061177285336116b6565b6117d05760405162461bcd60e51b815260206004820152602960248201527f455243313135353a2063616c6c6572206973206e6f74206f776e6572206e6f7260448201526808185c1c1c9bdd995960ba1b60648201526084016108bb565b610b39858585858561247f565b6003546001600160a01b031633146118375760405162461bcd60e51b815260206004820181905260248201527f4f776e61626c653a2063616c6c6572206973206e6f7420746865206f776e657260448201526064016108bb565b6001600160a01b03811661189c5760405162461bcd60e51b815260206004820152602660248201527f4f776e61626c653a206e6577206f776e657220697320746865207a65726f206160448201526564647265737360d01b60648201526084016108bb565b6111578161227f565b336001600160a01b03841681148015906118e657506118e47f3c11d16cbaffd01df69ce1c404f6340ee057498f5f00246190ea54220576a8488261145b565b155b80156118f957506118f784826116b6565b155b156119175760405163574b16a760e11b815260040160405180910390fd5b610ba384848461259c565b600080516020613ced83398151915261193b8133611973565b506000918252600a602052604090912055565b60006001600160e01b03198216637965db0b60e01b14806108f557506108f58261269d565b61197d828261145b565b61091d57611995816001600160a01b031660146126ed565b6119a08360206126ed565b6040516020016119b19291906138d5565b60408051601f198184030181529082905262461bcd60e51b82526108bb916004016130b8565b805161091d906002906020840190612e6a565b6060600280546119f9906137c8565b80601f0160208091040260200160405190810160405280929190818152602001828054611a25906137c8565b8015611a725780601f10611a4757610100808354040283529160200191611a72565b820191906000526020600020905b815481529060010190602001808311611a5557829003601f168201915b50505050509050919050565b6001600160a01b038416611aa45760405162461bcd60e51b81526004016108bb9061394a565b33611ac481600087611ab588612888565b611abe88612888565b876128d3565b6000848152602081815260408083206001600160a01b038916845290915281208054859290611af4908490613885565b909155505060408051858152602081018590526001600160a01b0380881692600092918516917fc3d58168c5ae7397731d063d5bbf3d657854427343f4c083240f7aacaa2d0f62910160405180910390a4610b39816000878787876129eb565b8151835114611b755760405162461bcd60e51b81526004016108bb9061398b565b6001600160a01b038416611b9b5760405162461bcd60e51b81526004016108bb906139d3565b33611baa8187878787876128d3565b60005b8451811015611c90576000858281518110611bca57611bca61386f565b602002602001015190506000858381518110611be857611be861386f565b602090810291909101810151600084815280835260408082206001600160a01b038e168352909352919091205490915081811015611c385760405162461bcd60e51b81526004016108bb90613a18565b6000838152602081815260408083206001600160a01b038e8116855292528083208585039055908b16825281208054849290611c75908490613885565b9250508190555050505080611c899061389d565b9050611bad565b50846001600160a01b0316866001600160a01b0316826001600160a01b03167f4a39dc06d4c0dbc64b70af90fd698a233a518aa5d07e595d983b8c0526c8f7fb8787604051611ce0929190613a62565b60405180910390a4611cf6818787878787612b56565b505050505050565b611d08828261145b565b61091d5760008281526004602090815260408083206001600160a01b03851684529091529020805460ff19166001179055611d403390565b6001600160a01b0316816001600160a01b0316837f2f8788117e7eff1d82e926ec794901d17c78024a50270940304540a733656f0d60405160405180910390a45050565b611d8e828261145b565b1561091d5760008281526004602090815260408083206001600160a01b0385168085529252808320805460ff1916905551339285917ff6391f5c32d9c69d2a47ea670b442974b53935d1edc7fd64eb21e047a839171b9190a45050565b6001600160a01b038416611e115760405162461bcd60e51b81526004016108bb9061394a565b8151835114611e325760405162461bcd60e51b81526004016108bb9061398b565b33611e42816000878787876128d3565b60005b8451811015611edd57838181518110611e6057611e6061386f565b6020026020010151600080878481518110611e7d57611e7d61386f565b602002602001015181526020019081526020016000206000886001600160a01b03166001600160a01b031681526020019081526020016000206000828254611ec59190613885565b90915550819050611ed58161389d565b915050611e45565b50846001600160a01b031660006001600160a01b0316826001600160a01b03167f4a39dc06d4c0dbc64b70af90fd698a233a518aa5d07e595d983b8c0526c8f7fb8787604051611f2e929190613a62565b60405180910390a4610b3981600087878787612b56565b6001600160a01b038316611f6b5760405162461bcd60e51b81526004016108bb90613a90565b8051825114611f8c5760405162461bcd60e51b81526004016108bb9061398b565b6000339050611faf818560008686604051806020016040528060008152506128d3565b60005b8351811015612074576000848281518110611fcf57611fcf61386f565b602002602001015190506000848381518110611fed57611fed61386f565b602090810291909101810151600084815280835260408082206001600160a01b038c16835290935291909120549091508181101561203d5760405162461bcd60e51b81526004016108bb90613ad3565b6000928352602083815260408085206001600160a01b038b168652909152909220910390558061206c8161389d565b915050611fb2565b5060006001600160a01b0316846001600160a01b0316826001600160a01b03167f4a39dc06d4c0dbc64b70af90fd698a233a518aa5d07e595d983b8c0526c8f7fb86866040516120c5929190613a62565b60405180910390a450505050565b60055460ff1661211c5760405162461bcd60e51b815260206004820152601460248201527314185d5cd8589b194e881b9bdd081c185d5cd95960621b60448201526064016108bb565b6005805460ff191690557f5db9ee0a495bf2e6ff9c91a7834c1ba4fdd244a5e8aa4e537bd38aeae4b073aa335b6040516001600160a01b03909116815260200160405180910390a1565b804710156121b65760405162461bcd60e51b815260206004820152601d60248201527f416464726573733a20696e73756666696369656e742062616c616e636500000060448201526064016108bb565b6000826001600160a01b03168260405160006040518083038185875af1925050503d8060008114612203576040519150601f19603f3d011682016040523d82523d6000602084013e612208565b606091505b5050905080610b665760405162461bcd60e51b815260206004820152603a60248201527f416464726573733a20756e61626c6520746f2073656e642076616c75652c207260448201527f6563697069656e74206d6179206861766520726576657274656400000000000060648201526084016108bb565b600380546001600160a01b038381166001600160a01b0319831681179093556040519116919082907f8be0079c531659141344cd1fd0a4f28419497f9722a3daafe3b4186f6b6457e090600090a35050565b60055460ff16156123175760405162461bcd60e51b815260206004820152601060248201526f14185d5cd8589b194e881c185d5cd95960821b60448201526064016108bb565b6005805460ff191660011790557f62e78cea01bee320cd4e420270b5ea74000d11b0c9f74754ebdbfc544b05a2586121493390565b816001600160a01b0316836001600160a01b031614156123c05760405162461bcd60e51b815260206004820152602960248201527f455243313135353a2073657474696e6720617070726f76616c20737461747573604482015268103337b91039b2b63360b91b60648201526084016108bb565b6001600160a01b03838116600081815260016020908152604080832094871680845294825291829020805460ff191686151590811790915591519182527f17307eab39ab6107e8899845ad3d59bd9653f200f220920489ca2b5937696c31910160405180910390a3505050565b604080516001600160a01b038416602482015260448082018490528251808303909101815260649091019091526020810180516001600160e01b031663a9059cbb60e01b179052610b66908490612c20565b6001600160a01b0384166124a55760405162461bcd60e51b81526004016108bb906139d3565b336124b5818787611ab588612888565b6000848152602081815260408083206001600160a01b038a168452909152902054838110156124f65760405162461bcd60e51b81526004016108bb90613a18565b6000858152602081815260408083206001600160a01b038b8116855292528083208785039055908816825281208054869290612533908490613885565b909155505060408051868152602081018690526001600160a01b03808916928a821692918616917fc3d58168c5ae7397731d063d5bbf3d657854427343f4c083240f7aacaa2d0f62910160405180910390a46125938288888888886129eb565b50505050505050565b6001600160a01b0383166125c25760405162461bcd60e51b81526004016108bb90613a90565b336125f1818560006125d387612888565b6125dc87612888565b604051806020016040528060008152506128d3565b6000838152602081815260408083206001600160a01b0388168452909152902054828110156126325760405162461bcd60e51b81526004016108bb90613ad3565b6000848152602081815260408083206001600160a01b03898116808652918452828520888703905582518981529384018890529092908616917fc3d58168c5ae7397731d063d5bbf3d657854427343f4c083240f7aacaa2d0f62910160405180910390a45050505050565b60006001600160e01b03198216636cdb3d1360e11b14806126ce57506001600160e01b031982166303a24d0760e21b145b806108f557506301ffc9a760e01b6001600160e01b03198316146108f5565b606060006126fc836002613850565b612707906002613885565b6001600160401b0381111561271e5761271e612f77565b6040519080825280601f01601f191660200182016040528015612748576020820181803683370190505b509050600360fc1b816000815181106127635761276361386f565b60200101906001600160f81b031916908160001a905350600f60fb1b816001815181106127925761279261386f565b60200101906001600160f81b031916908160001a90535060006127b6846002613850565b6127c1906001613885565b90505b6001811115612839576f181899199a1a9b1b9c1cb0b131b232b360811b85600f16601081106127f5576127f561386f565b1a60f81b82828151811061280b5761280b61386f565b60200101906001600160f81b031916908160001a90535060049490941c9361283281613b17565b90506127c4565b5083156109d85760405162461bcd60e51b815260206004820181905260248201527f537472696e67733a20686578206c656e67746820696e73756666696369656e7460448201526064016108bb565b604080516001808252818301909252606091600091906020808301908036833701905050905082816000815181106128c2576128c261386f565b602090810291909101015292915050565b60055460ff16156128f75760405163574b16a760e11b815260040160405180910390fd5b6001600160a01b0385166129e65760008060005b85838151811061291d5761291d61386f565b602002602001015191508483815181106129395761293961386f565b60200260200101519050600c5482118061298e57506000828152600860205260409020541580159061298e575060008281526008602090815260408083205460099092529091205461298c908390613885565b115b156129ac5760405163574b16a760e11b815260040160405180910390fd5b600082815260096020526040812080548392906129ca908490613885565b909155505085516129da8461389d565b9350831061290b575050505b611cf6565b6001600160a01b0384163b15611cf65760405163f23a6e6160e01b81526001600160a01b0385169063f23a6e6190612a2f9089908990889088908890600401613b2e565b602060405180830381600087803b158015612a4957600080fd5b505af1925050508015612a79575060408051601f3d908101601f19168201909252612a7691810190613b68565b60015b612b2657612a85613b85565b806308c379a01415612abf5750612a9a613ba1565b80612aa55750612ac1565b8060405162461bcd60e51b81526004016108bb91906130b8565b505b60405162461bcd60e51b815260206004820152603460248201527f455243313135353a207472616e7366657220746f206e6f6e20455243313135356044820152732932b1b2b4bb32b91034b6b83632b6b2b73a32b960611b60648201526084016108bb565b6001600160e01b0319811663f23a6e6160e01b146125935760405162461bcd60e51b81526004016108bb90613c2a565b6001600160a01b0384163b15611cf65760405163bc197c8160e01b81526001600160a01b0385169063bc197c8190612b9a9089908990889088908890600401613c72565b602060405180830381600087803b158015612bb457600080fd5b505af1925050508015612be4575060408051601f3d908101601f19168201909252612be191810190613b68565b60015b612bf057612a85613b85565b6001600160e01b0319811663bc197c8160e01b146125935760405162461bcd60e51b81526004016108bb90613c2a565b6000612c75826040518060400160405280602081526020017f5361666545524332303a206c6f772d6c6576656c2063616c6c206661696c6564815250856001600160a01b0316612cf29092919063ffffffff16565b805190915015610b665780806020019051810190612c9391906138b8565b610b665760405162461bcd60e51b815260206004820152602a60248201527f5361666545524332303a204552433230206f7065726174696f6e20646964206e6044820152691bdd081cdd58d8d9595960b21b60648201526084016108bb565b6060612d018484600085612d09565b949350505050565b606082471015612d6a5760405162461bcd60e51b815260206004820152602660248201527f416464726573733a20696e73756666696369656e742062616c616e636520666f6044820152651c8818d85b1b60d21b60648201526084016108bb565b843b612db85760405162461bcd60e51b815260206004820152601d60248201527f416464726573733a2063616c6c20746f206e6f6e2d636f6e747261637400000060448201526064016108bb565b600080866001600160a01b03168587604051612dd49190613cd0565b60006040518083038185875af1925050503d8060008114612e11576040519150601f19603f3d011682016040523d82523d6000602084013e612e16565b606091505b5091509150612e26828286612e31565b979650505050505050565b60608315612e405750816109d8565b825115612e505782518084602001fd5b8160405162461bcd60e51b81526004016108bb91906130b8565b828054612e76906137c8565b90600052602060002090601f016020900481019282612e985760008555612ede565b82601f10612eb157805160ff1916838001178555612ede565b82800160010185558215612ede579182015b82811115612ede578251825591602001919060010190612ec3565b50612eea929150612eee565b5090565b5b80821115612eea5760008155600101612eef565b6001600160a01b038116811461115757600080fd5b60008060408385031215612f2b57600080fd5b8235612f3681612f03565b946020939093013593505050565b6001600160e01b03198116811461115757600080fd5b600060208284031215612f6c57600080fd5b81356109d881612f44565b634e487b7160e01b600052604160045260246000fd5b601f8201601f191681016001600160401b0381118282101715612fb257612fb2612f77565b6040525050565b600082601f830112612fca57600080fd5b81356001600160401b03811115612fe357612fe3612f77565b604051612ffa601f8301601f191660200182612f8d565b81815284602083860101111561300f57600080fd5b816020850160208301376000918101602001919091529392505050565b60006020828403121561303e57600080fd5b81356001600160401b0381111561305457600080fd5b612d0184828501612fb9565b60005b8381101561307b578181015183820152602001613063565b83811115610ba35750506000910152565b600081518084526130a4816020860160208601613060565b601f01601f19169290920160200192915050565b6020815260006109d8602083018461308c565b6000602082840312156130dd57600080fd5b5035919050565b6000806000606084860312156130f957600080fd5b833561310481612f03565b95602085013595506040909401359392505050565b6000806040838503121561312c57600080fd5b50508035926020909101359150565b60006001600160401b0382111561315457613154612f77565b5060051b60200190565b600082601f83011261316f57600080fd5b8135602061317c8261313b565b6040516131898282612f8d565b83815260059390931b85018201928281019150868411156131a957600080fd5b8286015b848110156131c457803583529183019183016131ad565b509695505050505050565b600080600080600060a086880312156131e757600080fd5b85356131f281612f03565b9450602086013561320281612f03565b935060408601356001600160401b038082111561321e57600080fd5b61322a89838a0161315e565b9450606088013591508082111561324057600080fd5b61324c89838a0161315e565b9350608088013591508082111561326257600080fd5b5061326f88828901612fb9565b9150509295509295909350565b6000806040838503121561328f57600080fd5b8235915060208301356132a181612f03565b809150509250929050565b600080604083850312156132bf57600080fd5b8235915060208301356001600160401b038111156132dc57600080fd5b6132e885828601612fb9565b9150509250929050565b6000806000806080858703121561330857600080fd5b843561331381612f03565b935060208501356001600160401b038082111561332f57600080fd5b61333b8883890161315e565b94506040870135915061334d82612f03565b9092506060860135908082111561336357600080fd5b506133708782880161315e565b91505092959194509250565b6000806000806080858703121561339257600080fd5b843561339d81612f03565b93506020850135925060408501356133b481612f03565b9396929550929360600135925050565b6000806000606084860312156133d957600080fd5b83356133e481612f03565b925060208401356001600160401b038082111561340057600080fd5b61340c8783880161315e565b9350604086013591508082111561342257600080fd5b5061342f8682870161315e565b9150509250925092565b6000806000806080858703121561344f57600080fd5b843561345a81612f03565b935060208501356001600160401b038082111561347657600080fd5b6134828883890161315e565b9450604087013591508082111561349857600080fd5b6134a48883890161315e565b935060608701359150808211156134ba57600080fd5b5061337087828801612fb9565b600080604083850312156134da57600080fd5b82356001600160401b03808211156134f157600080fd5b818501915085601f83011261350557600080fd5b813560206135128261313b565b60405161351f8282612f8d565b83815260059390931b850182019282810191508984111561353f57600080fd5b948201945b8386101561356657853561355781612f03565b82529482019490820190613544565b9650508601359250508082111561357c57600080fd5b506132e88582860161315e565b600081518084526020808501945080840160005b838110156135b95781518752958201959082019060010161359d565b509495945050505050565b6020815260006109d86020830184613589565b6000602082840312156135e957600080fd5b81356109d881612f03565b6000806040838503121561360757600080fd5b82356001600160401b0381111561361d57600080fd5b61362985828601612fb9565b95602094909401359450505050565b6000806000806080858703121561364e57600080fd5b843561365981612f03565b9350602085013592506040850135915060608501356001600160401b0381111561368257600080fd5b61337087828801612fb9565b801515811461115757600080fd5b600080604083850312156136af57600080fd5b82356136ba81612f03565b915060208301356132a18161368e565b6000806000606084860312156136df57600080fd5b83356136ea81612f03565b925060208401356136fa81612f03565b929592945050506040919091013590565b6000806040838503121561371e57600080fd5b823561372981612f03565b915060208301356132a181612f03565b60008060006060848603121561374e57600080fd5b8335925060208401356136fa81612f03565b600080600080600060a0868803121561377857600080fd5b853561378381612f03565b9450602086013561379381612f03565b9350604086013592506060860135915060808601356001600160401b038111156137bc57600080fd5b61326f88828901612fb9565b600181811c908216806137dc57607f821691505b602082108114156137fd57634e487b7160e01b600052602260045260246000fd5b50919050565b6020808252601f908201527f5265656e7472616e637947756172643a207265656e7472616e742063616c6c00604082015260600190565b634e487b7160e01b600052601160045260246000fd5b600081600019048311821515161561386a5761386a61383a565b500290565b634e487b7160e01b600052603260045260246000fd5b600082198211156138985761389861383a565b500190565b60006000198214156138b1576138b161383a565b5060010190565b6000602082840312156138ca57600080fd5b81516109d88161368e565b7f416363657373436f6e74726f6c3a206163636f756e742000000000000000000081526000835161390d816017850160208801613060565b7001034b99036b4b9b9b4b733903937b6329607d1b601791840191820152835161393e816028840160208801613060565b01602801949350505050565b60208082526021908201527f455243313135353a206d696e7420746f20746865207a65726f206164647265736040820152607360f81b606082015260800190565b60208082526028908201527f455243313135353a2069647320616e6420616d6f756e7473206c656e677468206040820152670dad2e6dac2e8c6d60c31b606082015260800190565b60208082526025908201527f455243313135353a207472616e7366657220746f20746865207a65726f206164604082015264647265737360d81b606082015260800190565b6020808252602a908201527f455243313135353a20696e73756666696369656e742062616c616e636520666f60408201526939103a3930b739b332b960b11b606082015260800190565b604081526000613a756040830185613589565b8281036020840152613a878185613589565b95945050505050565b60208082526023908201527f455243313135353a206275726e2066726f6d20746865207a65726f206164647260408201526265737360e81b606082015260800190565b60208082526024908201527f455243313135353a206275726e20616d6f756e7420657863656564732062616c604082015263616e636560e01b606082015260800190565b600081613b2657613b2661383a565b506000190190565b6001600160a01b03868116825285166020820152604081018490526060810183905260a060808201819052600090612e269083018461308c565b600060208284031215613b7a57600080fd5b81516109d881612f44565b600060033d1115613b9e5760046000803e5060005160e01c5b90565b600060443d1015613baf5790565b6040516003193d81016004833e81513d6001600160401b038160248401118184111715613bde57505050505090565b8285019150815181811115613bf65750505050505090565b843d8701016020828501011115613c105750505050505090565b613c1f60208286010187612f8d565b509095945050505050565b60208082526028908201527f455243313135353a204552433131353552656365697665722072656a656374656040820152676420746f6b656e7360c01b606082015260800190565b6001600160a01b0386811682528516602082015260a060408201819052600090613c9e90830186613589565b8281036060840152613cb08186613589565b90508281036080840152613cc4818561308c565b98975050505050505050565b60008251613ce2818460208701613060565b919091019291505056fe850d585eb7f024ccee5e68e55f2c26cc72e1e6ee456acf62135757a5eb9d4a10a264697066735822122047ed41e5e67d9eb2156a3797ef84bddd1fa3d3842c77e365266cfaa76103ea4164736f6c63430008090033",
  "linkReferences": {},
  "deployedLinkReferences": {}
}