{
  "_format": "hh-sol-artifact-1",
  "contractName": "CashCowsLoot",
  "sourceName": "contracts/phase4/CashCowsLoot.sol",
  "abi": [
    {
      "inputs": [
        {
          "internalType": "string",
          "name": "_uri",
          "type": "string"
        },
        {
          "internalType": "address",
          "name": "admin",
          "type": "address"
        }
      ],
      "stateMutability": "nonpayable",
      "type": "constructor"
    },
    {
      "inputs": [],
      "name": "InvalidCall",
      "type": "error"
    },
    {
      "anonymous": false,
      "inputs": [
        {
          "indexed": true,
          "internalType": "address",
          "name": "account",
          "type": "address"
        },
        {
          "indexed": true,
          "internalType": "address",
          "name": "operator",
          "type": "address"
        },
        {
          "indexed": false,
          "internalType": "bool",
          "name": "approved",
          "type": "bool"
        }
      ],
      "name": "ApprovalForAll",
      "type": "event"
    },
    {
      "anonymous": false,
      "inputs": [
        {
          "indexed": true,
          "internalType": "address",
          "name": "previousOwner",
          "type": "address"
        },
        {
          "indexed": true,
          "internalType": "address",
          "name": "newOwner",
          "type": "address"
        }
      ],
      "name": "OwnershipTransferred",
      "type": "event"
    },
    {
      "anonymous": false,
      "inputs": [
        {
          "indexed": false,
          "internalType": "address",
          "name": "account",
          "type": "address"
        }
      ],
      "name": "Paused",
      "type": "event"
    },
    {
      "anonymous": false,
      "inputs": [
        {
          "indexed": true,
          "internalType": "bytes32",
          "name": "role",
          "type": "bytes32"
        },
        {
          "indexed": true,
          "internalType": "bytes32",
          "name": "previousAdminRole",
          "type": "bytes32"
        },
        {
          "indexed": true,
          "internalType": "bytes32",
          "name": "newAdminRole",
          "type": "bytes32"
        }
      ],
      "name": "RoleAdminChanged",
      "type": "event"
    },
    {
      "anonymous": false,
      "inputs": [
        {
          "indexed": true,
          "internalType": "bytes32",
          "name": "role",
          "type": "bytes32"
        },
        {
          "indexed": true,
          "internalType": "address",
          "name": "account",
          "type": "address"
        },
        {
          "indexed": true,
          "internalType": "address",
          "name": "sender",
          "type": "address"
        }
      ],
      "name": "RoleGranted",
      "type": "event"
    },
    {
      "anonymous": false,
      "inputs": [
        {
          "indexed": true,
          "internalType": "bytes32",
          "name": "role",
          "type": "bytes32"
        },
        {
          "indexed": true,
          "internalType": "address",
          "name": "account",
          "type": "address"
        },
        {
          "indexed": true,
          "internalType": "address",
          "name": "sender",
          "type": "address"
        }
      ],
      "name": "RoleRevoked",
      "type": "event"
    },
    {
      "anonymous": false,
      "inputs": [
        {
          "indexed": true,
          "internalType": "address",
          "name": "operator",
          "type": "address"
        },
        {
          "indexed": true,
          "internalType": "address",
          "name": "from",
          "type": "address"
        },
        {
          "indexed": true,
          "internalType": "address",
          "name": "to",
          "type": "address"
        },
        {
          "indexed": false,
          "internalType": "uint256[]",
          "name": "ids",
          "type": "uint256[]"
        },
        {
          "indexed": false,
          "internalType": "uint256[]",
          "name": "values",
          "type": "uint256[]"
        }
      ],
      "name": "TransferBatch",
      "type": "event"
    },
    {
      "anonymous": false,
      "inputs": [
        {
          "indexed": true,
          "internalType": "address",
          "name": "operator",
          "type": "address"
        },
        {
          "indexed": true,
          "internalType": "address",
          "name": "from",
          "type": "address"
        },
        {
          "indexed": true,
          "internalType": "address",
          "name": "to",
          "type": "address"
        },
        {
          "indexed": false,
          "internalType": "uint256",
          "name": "id",
          "type": "uint256"
        },
        {
          "indexed": false,
          "internalType": "uint256",
          "name": "value",
          "type": "uint256"
        }
      ],
      "name": "TransferSingle",
      "type": "event"
    },
    {
      "anonymous": false,
      "inputs": [
        {
          "indexed": false,
          "internalType": "string",
          "name": "value",
          "type": "string"
        },
        {
          "indexed": true,
          "internalType": "uint256",
          "name": "id",
          "type": "uint256"
        }
      ],
      "name": "URI",
      "type": "event"
    },
    {
      "anonymous": false,
      "inputs": [
        {
          "indexed": false,
          "internalType": "address",
          "name": "account",
          "type": "address"
        }
      ],
      "name": "Unpaused",
      "type": "event"
    },
    {
      "inputs": [],
      "name": "DEFAULT_ADMIN_ROLE",
      "outputs": [
        {
          "internalType": "bytes32",
          "name": "",
          "type": "bytes32"
        }
      ],
      "stateMutability": "view",
      "type": "function"
    },
    {
      "inputs": [
        {
          "internalType": "string",
          "name": "itemURI",
          "type": "string"
        },
        {
          "internalType": "uint256",
          "name": "itemMax",
          "type": "uint256"
        }
      ],
      "name": "addItem",
      "outputs": [],
      "stateMutability": "nonpayable",
      "type": "function"
    },
    {
      "inputs": [
        {
          "internalType": "address",
          "name": "account",
          "type": "address"
        },
        {
          "internalType": "uint256",
          "name": "id",
          "type": "uint256"
        }
      ],
      "name": "balanceOf",
      "outputs": [
        {
          "internalType": "uint256",
          "name": "",
          "type": "uint256"
        }
      ],
      "stateMutability": "view",
      "type": "function"
    },
    {
      "inputs": [
        {
          "internalType": "address[]",
          "name": "accounts",
          "type": "address[]"
        },
        {
          "internalType": "uint256[]",
          "name": "ids",
          "type": "uint256[]"
        }
      ],
      "name": "balanceOfBatch",
      "outputs": [
        {
          "internalType": "uint256[]",
          "name": "",
          "type": "uint256[]"
        }
      ],
      "stateMutability": "view",
      "type": "function"
    },
    {
      "inputs": [
        {
          "internalType": "address",
          "name": "account",
          "type": "address"
        },
        {
          "internalType": "uint256[]",
          "name": "ids",
          "type": "uint256[]"
        },
        {
          "internalType": "uint256[]",
          "name": "values",
          "type": "uint256[]"
        }
      ],
      "name": "burn",
      "outputs": [],
      "stateMutability": "nonpayable",
      "type": "function"
    },
    {
      "inputs": [
        {
          "internalType": "address",
          "name": "account",
          "type": "address"
        },
        {
          "internalType": "uint256",
          "name": "itemId",
          "type": "uint256"
        },
        {
          "internalType": "uint256",
          "name": "value",
          "type": "uint256"
        }
      ],
      "name": "burn",
      "outputs": [],
      "stateMutability": "nonpayable",
      "type": "function"
    },
    {
      "inputs": [
        {
          "internalType": "contract IERC20",
          "name": "token",
          "type": "address"
        },
        {
          "internalType": "bool",
          "name": "burnable",
          "type": "bool"
        }
      ],
      "name": "burnTokens",
      "outputs": [],
      "stateMutability": "nonpayable",
      "type": "function"
    },
    {
      "inputs": [
        {
          "internalType": "bytes32",
          "name": "role",
          "type": "bytes32"
        }
      ],
      "name": "getRoleAdmin",
      "outputs": [
        {
          "internalType": "bytes32",
          "name": "",
          "type": "bytes32"
        }
      ],
      "stateMutability": "view",
      "type": "function"
    },
    {
      "inputs": [
        {
          "internalType": "bytes32",
          "name": "role",
          "type": "bytes32"
        },
        {
          "internalType": "address",
          "name": "account",
          "type": "address"
        }
      ],
      "name": "grantRole",
      "outputs": [],
      "stateMutability": "nonpayable",
      "type": "function"
    },
    {
      "inputs": [
        {
          "internalType": "bytes32",
          "name": "role",
          "type": "bytes32"
        },
        {
          "internalType": "address",
          "name": "account",
          "type": "address"
        }
      ],
      "name": "hasRole",
      "outputs": [
        {
          "internalType": "bool",
          "name": "",
          "type": "bool"
        }
      ],
      "stateMutability": "view",
      "type": "function"
    },
    {
      "inputs": [
        {
          "internalType": "address",
          "name": "account",
          "type": "address"
        },
        {
          "internalType": "address",
          "name": "operator",
          "type": "address"
        }
      ],
      "name": "isApprovedForAll",
      "outputs": [
        {
          "internalType": "bool",
          "name": "",
          "type": "bool"
        }
      ],
      "stateMutability": "view",
      "type": "function"
    },
    {
      "inputs": [],
      "name": "lastItemId",
      "outputs": [
        {
          "internalType": "uint256",
          "name": "",
          "type": "uint256"
        }
      ],
      "stateMutability": "view",
      "type": "function"
    },
    {
      "inputs": [
        {
          "internalType": "uint256",
          "name": "itemId",
          "type": "uint256"
        }
      ],
      "name": "maxSupply",
      "outputs": [
        {
          "internalType": "uint256",
          "name": "",
          "type": "uint256"
        }
      ],
      "stateMutability": "view",
      "type": "function"
    },
    {
      "inputs": [
        {
          "internalType": "address",
          "name": "to",
          "type": "address"
        },
        {
          "internalType": "uint256",
          "name": "itemId",
          "type": "uint256"
        },
        {
          "internalType": "uint256",
          "name": "amount",
          "type": "uint256"
        }
      ],
      "name": "mint",
      "outputs": [],
      "stateMutability": "payable",
      "type": "function"
    },
    {
      "inputs": [
        {
          "internalType": "address",
          "name": "to",
          "type": "address"
        },
        {
          "internalType": "uint256[]",
          "name": "itemIds",
          "type": "uint256[]"
        },
        {
          "internalType": "address",
          "name": "token",
          "type": "address"
        },
        {
          "internalType": "uint256[]",
          "name": "amounts",
          "type": "uint256[]"
        }
      ],
      "name": "mint",
      "outputs": [],
      "stateMutability": "nonpayable",
      "type": "function"
    },
    {
      "inputs": [
        {
          "internalType": "address",
          "name": "to",
          "type": "address"
        },
        {
          "internalType": "uint256",
          "name": "itemId",
          "type": "uint256"
        },
        {
          "internalType": "address",
          "name": "token",
          "type": "address"
        },
        {
          "internalType": "uint256",
          "name": "amount",
          "type": "uint256"
        }
      ],
      "name": "mint",
      "outputs": [],
      "stateMutability": "nonpayable",
      "type": "function"
    },
    {
      "inputs": [
        {
          "internalType": "address",
          "name": "to",
          "type": "address"
        },
        {
          "internalType": "uint256[]",
          "name": "itemIds",
          "type": "uint256[]"
        },
        {
          "internalType": "uint256[]",
          "name": "amounts",
          "type": "uint256[]"
        },
        {
          "internalType": "bytes",
          "name": "data",
          "type": "bytes"
        }
      ],
      "name": "mint",
      "outputs": [],
      "stateMutability": "nonpayable",
      "type": "function"
    },
    {
      "inputs": [
        {
          "internalType": "address",
          "name": "to",
          "type": "address"
        },
        {
          "internalType": "uint256",
          "name": "itemId",
          "type": "uint256"
        },
        {
          "internalType": "uint256",
          "name": "amount",
          "type": "uint256"
        },
        {
          "internalType": "bytes",
          "name": "data",
          "type": "bytes"
        }
      ],
      "name": "mint",
      "outputs": [],
      "stateMutability": "nonpayable",
      "type": "function"
    },
    {
      "inputs": [
        {
          "internalType": "address",
          "name": "to",
          "type": "address"
        },
        {
          "internalType": "uint256[]",
          "name": "itemIds",
          "type": "uint256[]"
        },
        {
          "internalType": "uint256[]",
          "name": "amounts",
          "type": "uint256[]"
        }
      ],
      "name": "mint",
      "outputs": [],
      "stateMutability": "payable",
      "type": "function"
    },
    {
      "inputs": [],
      "name": "name",
      "outputs": [
        {
          "internalType": "string",
          "name": "",
          "type": "string"
        }
      ],
      "stateMutability": "pure",
      "type": "function"
    },
    {
      "inputs": [],
      "name": "owner",
      "outputs": [
        {
          "internalType": "address",
          "name": "",
          "type": "address"
        }
      ],
      "stateMutability": "view",
      "type": "function"
    },
    {
      "inputs": [],
      "name": "pause",
      "outputs": [],
      "stateMutability": "nonpayable",
      "type": "function"
    },
    {
      "inputs": [],
      "name": "paused",
      "outputs": [
        {
          "internalType": "bool",
          "name": "",
          "type": "bool"
        }
      ],
      "stateMutability": "view",
      "type": "function"
    },
    {
      "inputs": [
        {
          "internalType": "uint256",
          "name": "itemId",
          "type": "uint256"
        },
        {
          "internalType": "contract IERC20",
          "name": "token",
          "type": "address"
        }
      ],
      "name": "priceOf",
      "outputs": [
        {
          "internalType": "uint256",
          "name": "",
          "type": "uint256"
        }
      ],
      "stateMutability": "view",
      "type": "function"
    },
    {
      "inputs": [
        {
          "internalType": "uint256",
          "name": "itemId",
          "type": "uint256"
        }
      ],
      "name": "priceOf",
      "outputs": [
        {
          "internalType": "uint256",
          "name": "",
          "type": "uint256"
        }
      ],
      "stateMutability": "view",
      "type": "function"
    },
    {
      "inputs": [],
      "name": "renounceOwnership",
      "outputs": [],
      "stateMutability": "nonpayable",
      "type": "function"
    },
    {
      "inputs": [
        {
          "internalType": "bytes32",
          "name": "role",
          "type": "bytes32"
        },
        {
          "internalType": "address",
          "name": "account",
          "type": "address"
        }
      ],
      "name": "renounceRole",
      "outputs": [],
      "stateMutability": "nonpayable",
      "type": "function"
    },
    {
      "inputs": [
        {
          "internalType": "bytes32",
          "name": "role",
          "type": "bytes32"
        },
        {
          "internalType": "address",
          "name": "account",
          "type": "address"
        }
      ],
      "name": "revokeRole",
      "outputs": [],
      "stateMutability": "nonpayable",
      "type": "function"
    },
    {
      "inputs": [
        {
          "internalType": "address",
          "name": "from",
          "type": "address"
        },
        {
          "internalType": "address",
          "name": "to",
          "type": "address"
        },
        {
          "internalType": "uint256[]",
          "name": "ids",
          "type": "uint256[]"
        },
        {
          "internalType": "uint256[]",
          "name": "amounts",
          "type": "uint256[]"
        },
        {
          "internalType": "bytes",
          "name": "data",
          "type": "bytes"
        }
      ],
      "name": "safeBatchTransferFrom",
      "outputs": [],
      "stateMutability": "nonpayable",
      "type": "function"
    },
    {
      "inputs": [
        {
          "internalType": "address",
          "name": "from",
          "type": "address"
        },
        {
          "internalType": "address",
          "name": "to",
          "type": "address"
        },
        {
          "internalType": "uint256",
          "name": "id",
          "type": "uint256"
        },
        {
          "internalType": "uint256",
          "name": "amount",
          "type": "uint256"
        },
        {
          "internalType": "bytes",
          "name": "data",
          "type": "bytes"
        }
      ],
      "name": "safeTransferFrom",
      "outputs": [],
      "stateMutability": "nonpayable",
      "type": "function"
    },
    {
      "inputs": [
        {
          "internalType": "address",
          "name": "operator",
          "type": "address"
        },
        {
          "internalType": "bool",
          "name": "approved",
          "type": "bool"
        }
      ],
      "name": "setApprovalForAll",
      "outputs": [],
      "stateMutability": "nonpayable",
      "type": "function"
    },
    {
      "inputs": [
        {
          "internalType": "string",
          "name": "uri_",
          "type": "string"
        }
      ],
      "name": "setPrice",
      "outputs": [],
      "stateMutability": "nonpayable",
      "type": "function"
    },
    {
      "inputs": [
        {
          "internalType": "uint256",
          "name": "itemId",
          "type": "uint256"
        },
        {
          "internalType": "contract IERC20",
          "name": "token",
          "type": "address"
        },
        {
          "internalType": "uint256",
          "name": "price",
          "type": "uint256"
        }
      ],
      "name": "setPrice",
      "outputs": [],
      "stateMutability": "nonpayable",
      "type": "function"
    },
    {
      "inputs": [
        {
          "internalType": "uint256",
          "name": "itemId",
          "type": "uint256"
        },
        {
          "internalType": "uint256",
          "name": "price",
          "type": "uint256"
        }
      ],
      "name": "setPrice",
      "outputs": [],
      "stateMutability": "nonpayable",
      "type": "function"
    },
    {
      "inputs": [
        {
          "internalType": "bytes4",
          "name": "interfaceId",
          "type": "bytes4"
        }
      ],
      "name": "supportsInterface",
      "outputs": [
        {
          "internalType": "bool",
          "name": "",
          "type": "bool"
        }
      ],
      "stateMutability": "view",
      "type": "function"
    },
    {
      "inputs": [],
      "name": "symbol",
      "outputs": [
        {
          "internalType": "string",
          "name": "",
          "type": "string"
        }
      ],
      "stateMutability": "pure",
      "type": "function"
    },
    {
      "inputs": [
        {
          "internalType": "uint256",
          "name": "itemId",
          "type": "uint256"
        }
      ],
      "name": "totalSupply",
      "outputs": [
        {
          "internalType": "uint256",
          "name": "",
          "type": "uint256"
        }
      ],
      "stateMutability": "view",
      "type": "function"
    },
    {
      "inputs": [
        {
          "internalType": "address",
          "name": "newOwner",
          "type": "address"
        }
      ],
      "name": "transferOwnership",
      "outputs": [],
      "stateMutability": "nonpayable",
      "type": "function"
    },
    {
      "inputs": [],
      "name": "unpause",
      "outputs": [],
      "stateMutability": "nonpayable",
      "type": "function"
    },
    {
      "inputs": [
        {
          "internalType": "uint256",
          "name": "itemId",
          "type": "uint256"
        },
        {
          "internalType": "uint256",
          "name": "itemMax",
          "type": "uint256"
        }
      ],
      "name": "updateMaxSupply",
      "outputs": [],
      "stateMutability": "nonpayable",
      "type": "function"
    },
    {
      "inputs": [
        {
          "internalType": "uint256",
          "name": "itemId",
          "type": "uint256"
        },
        {
          "internalType": "string",
          "name": "itemURI",
          "type": "string"
        }
      ],
      "name": "updateURI",
      "outputs": [],
      "stateMutability": "nonpayable",
      "type": "function"
    },
    {
      "inputs": [
        {
          "internalType": "uint256",
          "name": "itemId",
          "type": "uint256"
        }
      ],
      "name": "uri",
      "outputs": [
        {
          "internalType": "string",
          "name": "",
          "type": "string"
        }
      ],
      "stateMutability": "view",
      "type": "function"
    },
    {
      "inputs": [
        {
          "internalType": "address",
          "name": "recipient",
          "type": "address"
        }
      ],
      "name": "withdraw",
      "outputs": [],
      "stateMutability": "nonpayable",
      "type": "function"
    },
    {
      "inputs": [
        {
          "internalType": "contract IERC20",
          "name": "erc20",
          "type": "address"
        },
        {
          "internalType": "address",
          "name": "recipient",
          "type": "address"
        },
        {
          "internalType": "uint256",
          "name": "amount",
          "type": "uint256"
        }
      ],
      "name": "withdraw",
      "outputs": [],
      "stateMutability": "nonpayable",
      "type": "function"
    }
  ],
  "bytecode": "0x60806040523480156200001157600080fd5b50604051620040db380380620040db83398101604081905262000034916200028d565b8162000040816200009c565b506200004c33620000b5565b6005805460ff1916905560016006556200006860008262000107565b620000947f65d7a28e3265b37a6474929f336521b332c1681b933f6cb9f3376673440d862a8262000107565b5050620003bb565b8051620000b1906002906020840190620001b4565b5050565b600380546001600160a01b038381166001600160a01b0319831681179093556040519116919082907f8be0079c531659141344cd1fd0a4f28419497f9722a3daafe3b4186f6b6457e090600090a35050565b60008281526004602090815260408083206001600160a01b0385168452909152902054620000b1908390839060ff16620000b15760008281526004602090815260408083206001600160a01b03851684529091529020805460ff19166001179055620001703390565b6001600160a01b0316816001600160a01b0316837f2f8788117e7eff1d82e926ec794901d17c78024a50270940304540a733656f0d60405160405180910390a45050565b828054620001c2906200037e565b90600052602060002090601f016020900481019282620001e6576000855562000231565b82601f106200020157805160ff191683800117855562000231565b8280016001018555821562000231579182015b828111156200023157825182559160200191906001019062000214565b506200023f92915062000243565b5090565b5b808211156200023f576000815560010162000244565b634e487b7160e01b600052604160045260246000fd5b80516001600160a01b03811681146200028857600080fd5b919050565b60008060408385031215620002a157600080fd5b82516001600160401b0380821115620002b957600080fd5b818501915085601f830112620002ce57600080fd5b815181811115620002e357620002e36200025a565b604051601f8201601f19908116603f011681019083821181831017156200030e576200030e6200025a565b816040528281526020935088848487010111156200032b57600080fd5b600091505b828210156200034f578482018401518183018501529083019062000330565b82821115620003615760008484830101525b95506200037391505085820162000270565b925050509250929050565b600181811c908216806200039357607f821691505b60208210811415620003b557634e487b7160e01b600052602260045260246000fd5b50919050565b613d1080620003cb6000396000f3fe6080604052600436106102665760003560e01c8063731133e911610144578063b9186d7d116100b6578063e985e9c51161007a578063e985e9c514610793578063ed6cc2d1146107b3578063f242432a146107d3578063f2fde38b146107f3578063f5298aca14610813578063f7d975771461083357600080fd5b8063b9186d7d146106d9578063bd85b03914610706578063c528fa6314610733578063d547741f14610753578063d9caed121461077357600080fd5b806391d148541161010857806391d148541461062457806395d89b41146106445780639727756a1461067157806399f486bc14610684578063a217fddf146106a4578063a22cb465146106b957600080fd5b8063731133e9146105575780638456cb5914610577578063869f75941461058c5780638a145e01146105b95780638da5cb5b146105fc57600080fd5b80633bf6cf6c116101dd578063440703d7116101a1578063440703d71461049d5780634e1273f4146104bd57806351cff8d9146104ea5780635c975abb1461050a57806362d6bbdf14610522578063715018a61461054257600080fd5b80633bf6cf6c146104135780633c173a4f146104335780633db0f8ab146104535780633f4ba83a146104735780633fd04d201461048857600080fd5b8063238e875f1161022f578063238e875f14610343578063248a9ca3146103635780632eb2c2d6146103935780632f2ff15d146103b357806331d41c69146103d357806336568abe146103f357600080fd5b8062fdd58e1461026b57806301ffc9a71461029e57806306fdde03146102ce5780630e89341c1461030e578063156e29f61461032e575b600080fd5b34801561027757600080fd5b5061028b610286366004612ee6565b610853565b6040519081526020015b60405180910390f35b3480156102aa57600080fd5b506102be6102b9366004612f28565b6108ea565b6040519015158152602001610295565b3480156102da57600080fd5b5060408051808201909152600e81526d10d85cda0810dbdddcc8131bdbdd60921b60208201525b6040516102959190612f9d565b34801561031a57600080fd5b50610301610329366004612fb0565b6108fb565b61034161033c366004612fc9565b6109b9565b005b34801561034f57600080fd5b5061034161035e366004612ffe565b610a57565b34801561036f57600080fd5b5061028b61037e366004612fb0565b60009081526004602052604090206001015490565b34801561039f57600080fd5b506103416103ae366004613169565b610a83565b3480156103bf57600080fd5b506103416103ce366004613216565b610b1a565b3480156103df57600080fd5b506103416103ee366004613246565b610b45565b3480156103ff57600080fd5b5061034161040e366004613216565b610b83565b34801561041f57600080fd5b5061034161042e36600461328c565b610c01565b34801561043f57600080fd5b5061034161044e366004613316565b610eb3565b34801561045f57600080fd5b5061034161046e36600461335e565b611085565b34801561047f57600080fd5b50610341611102565b34801561049457600080fd5b50600c5461028b565b3480156104a957600080fd5b506103416104b83660046133d3565b611138565b3480156104c957600080fd5b506104dd6104d8366004613461565b61116f565b604051610295919061355e565b3480156104f657600080fd5b50610341610505366004613571565b611298565b34801561051657600080fd5b5060055460ff166102be565b34801561052e57600080fd5b5061034161053d36600461358e565b6112fe565b34801561054e57600080fd5b50610341611369565b34801561056357600080fd5b506103416105723660046135d2565b6113cf565b34801561058357600080fd5b50610341611406565b34801561059857600080fd5b5061028b6105a7366004612fb0565b60009081526008602052604090205490565b3480156105c557600080fd5b5061028b6105d4366004613216565b6000918252600b602090815260408084206001600160a01b0393909316845291905290205490565b34801561060857600080fd5b506003546040516001600160a01b039091168152602001610295565b34801561063057600080fd5b506102be61063f366004613216565b611439565b34801561065057600080fd5b506040805180820190915260048152631313d3d560e21b6020820152610301565b61034161067f36600461335e565b611464565b34801561069057600080fd5b5061034161069f366004613628565b6115c0565b3480156106b057600080fd5b5061028b600081565b3480156106c557600080fd5b506103416106d436600461366a565b6115e2565b3480156106e557600080fd5b5061028b6106f4366004612fb0565b6000908152600a602052604090205490565b34801561071257600080fd5b5061028b610721366004612fb0565b60009081526009602052604090205490565b34801561073f57600080fd5b5061034161074e36600461366a565b6115ed565b34801561075f57600080fd5b5061034161076e366004613216565b611632565b34801561077f57600080fd5b5061034161078e366004613698565b611658565b34801561079f57600080fd5b506102be6107ae3660046136d9565b6116b6565b3480156107bf57600080fd5b506103416107ce366004613707565b6116e4565b3480156107df57600080fd5b506103416107ee36600461372e565b611724565b3480156107ff57600080fd5b5061034161080e366004613571565b6117ab565b34801561081f57600080fd5b5061034161082e366004612fc9565b611873565b34801561083f57600080fd5b5061034161084e366004612ffe565b6118f0565b60006001600160a01b0383166108c45760405162461bcd60e51b815260206004820152602b60248201527f455243313135353a2062616c616e636520717565727920666f7220746865207a60448201526a65726f206164647265737360a81b60648201526084015b60405180910390fd5b506000908152602081815260408083206001600160a01b03949094168352929052205490565b60006108f58261191c565b92915050565b60008181526007602052604081208054606092919061091990613796565b80601f016020809104026020016040519081016040528092919081815260200182805461094590613796565b80156109925780601f1061096757610100808354040283529160200191610992565b820191906000526020600020905b81548152906001019060200180831161097557829003601f168201915b5050505050905060008151116109b0576109ab83611941565b6109b2565b805b9392505050565b600260065414156109dc5760405162461bcd60e51b81526004016108bb906137d1565b60026006556000828152600a60205260409020541580610a1457506000828152600a6020526040902054610a1190829061381e565b34105b15610a325760405163574b16a760e11b815260040160405180910390fd5b610a4d838383604051806020016040528060008152506119d5565b5050600160065550565b600080516020613cbb833981519152610a708133611aab565b5060009182526008602052604090912055565b6001600160a01b038516331480610a9f5750610a9f85336116b6565b610b065760405162461bcd60e51b815260206004820152603260248201527f455243313135353a207472616e736665722063616c6c6572206973206e6f74206044820152711bdddb995c881b9bdc88185c1c1c9bdd995960721b60648201526084016108bb565b610b138585858585611b0f565b5050505050565b600082815260046020526040902060010154610b368133611aab565b610b408383611cb9565b505050565b600080516020613cbb833981519152610b5e8133611aab565b60008381526007602090815260409091208351610b7d92850190612e38565b50505050565b6001600160a01b0381163314610bf35760405162461bcd60e51b815260206004820152602f60248201527f416363657373436f6e74726f6c3a2063616e206f6e6c792072656e6f756e636560448201526e103937b632b9903337b91039b2b63360891b60648201526084016108bb565b610bfd8282611d3f565b5050565b60026006541415610c245760405162461bcd60e51b81526004016108bb906137d1565b60026006558051835114610c4b5760405163574b16a760e11b815260040160405180910390fd5b600082815b8551811015610d5c57600b6000878381518110610c6f57610c6f61383d565b602002602001015181526020019081526020016000206000836001600160a01b03166001600160a01b031681526020019081526020016000205460001415610cca5760405163574b16a760e11b815260040160405180910390fd5b838181518110610cdc57610cdc61383d565b6020026020010151600b6000888481518110610cfa57610cfa61383d565b602002602001015181526020019081526020016000206000846001600160a01b03166001600160a01b0316815260200190815260200160002054610d3e919061381e565b610d489084613853565b925080610d548161386b565b915050610c50565b506001600160a01b0384166000908152600d602052604090205460ff1615610df3576001600160a01b0384166379cc6790336040516001600160e01b031960e084901b1681526001600160a01b03909116600482015260248101859052604401600060405180830381600087803b158015610dd657600080fd5b505af1158015610dea573d6000803e3d6000fd5b50505050610e8b565b6001600160a01b0384166323b872dd336040516001600160e01b031960e084901b1681526001600160a01b03909116600482015230602482015260448101859052606401602060405180830381600087803b158015610e5157600080fd5b505af1158015610e65573d6000803e3d6000fd5b505050506040513d601f19601f82011682018060405250810190610e899190613886565b505b610ea686868560405180602001604052806000815250611da6565b5050600160065550505050565b60026006541415610ed65760405162461bcd60e51b81526004016108bb906137d1565b60026006556000838152600b602090815260408083206001600160a01b038616845290915290205480610f1c5760405163574b16a760e11b815260040160405180910390fd5b6001600160a01b0383166000908152600d602052604090205460ff1615610fba576001600160a01b0383166379cc679033610f57858561381e565b6040516001600160e01b031960e085901b1681526001600160a01b0390921660048301526024820152604401600060405180830381600087803b158015610f9d57600080fd5b505af1158015610fb1573d6000803e3d6000fd5b5050505061105e565b6001600160a01b0383166323b872dd3330610fd5868661381e565b6040516001600160e01b031960e086901b1681526001600160a01b0393841660048201529290911660248301526044820152606401602060405180830381600087803b15801561102457600080fd5b505af1158015611038573d6000803e3d6000fd5b505050506040513d601f19601f8201168201806040525081019061105c9190613886565b505b611079858584604051806020016040528060008152506119d5565b50506001600655505050565b336001600160a01b03841681148015906110c657506110c47f3c11d16cbaffd01df69ce1c404f6340ee057498f5f00246190ea54220576a84882611439565b155b80156110d957506110d784826116b6565b155b156110f75760405163574b16a760e11b815260040160405180910390fd5b610b7d848484611f00565b7f65d7a28e3265b37a6474929f336521b332c1681b933f6cb9f3376673440d862a61112d8133611aab565b61113561208e565b50565b7f9f2df0fed2c77648de5860a4cc508cd0818c85b8b8a1ab4ceeef8d981c8956a66111638133611aab565b610b1385858585611da6565b606081518351146111d45760405162461bcd60e51b815260206004820152602960248201527f455243313135353a206163636f756e747320616e6420696473206c656e677468604482015268040dad2e6dac2e8c6d60bb1b60648201526084016108bb565b600083516001600160401b038111156111ef576111ef613020565b604051908082528060200260200182016040528015611218578160200160208202803683370190505b50905060005b84518110156112905761126385828151811061123c5761123c61383d565b60200260200101518583815181106112565761125661383d565b6020026020010151610853565b8282815181106112755761127561383d565b60209081029190910101526112898161386b565b905061121e565b509392505050565b600260065414156112bb5760405162461bcd60e51b81526004016108bb906137d1565b60026006557f0914bb97ca83e85ef385857d9d418f187ff630589e0c9f44db92976d8e4519cb6112eb8133611aab565b6112f58247612121565b50506001600655565b600080516020613cbb8339815191526113178133611aab565b8260076000600c6000815461132b9061386b565b91905081905581526020019081526020016000209080519060200190611352929190612e38565b5050600c5460009081526008602052604090205550565b6003546001600160a01b031633146113c35760405162461bcd60e51b815260206004820181905260248201527f4f776e61626c653a2063616c6c6572206973206e6f7420746865206f776e657260448201526064016108bb565b6113cd600061223a565b565b7f9f2df0fed2c77648de5860a4cc508cd0818c85b8b8a1ab4ceeef8d981c8956a66113fa8133611aab565b610b13858585856119d5565b7f65d7a28e3265b37a6474929f336521b332c1681b933f6cb9f3376673440d862a6114318133611aab565b61113561228c565b60009182526004602090815260408084206001600160a01b0393909316845291905290205460ff1690565b600260065414156114875760405162461bcd60e51b81526004016108bb906137d1565b600260065580518251146114ae5760405163574b16a760e11b815260040160405180910390fd5b6000805b835181101561157857600a60008583815181106114d1576114d161383d565b6020026020010151815260200190815260200160002054600014156115095760405163574b16a760e11b815260040160405180910390fd5b82818151811061151b5761151b61383d565b6020026020010151600a60008684815181106115395761153961383d565b602002602001015181526020019081526020016000205461155a919061381e565b6115649083613853565b9150806115708161386b565b9150506114b2565b508034101561159a5760405163574b16a760e11b815260040160405180910390fd5b6115b584848460405180602001604052806000815250611da6565b505060016006555050565b600080516020613cbb8339815191526115d98133611aab565b610bfd82612307565b610bfd33838361231a565b600080516020613cbb8339815191526116068133611aab565b506001600160a01b03919091166000908152600d60205260409020805460ff1916911515919091179055565b60008281526004602052604090206001015461164e8133611aab565b610b408383611d3f565b6002600654141561167b5760405162461bcd60e51b81526004016108bb906137d1565b60026006557f0914bb97ca83e85ef385857d9d418f187ff630589e0c9f44db92976d8e4519cb6116ab8133611aab565b6115b58484846123fb565b6001600160a01b03918216600090815260016020908152604080832093909416825291909152205460ff1690565b600080516020613cbb8339815191526116fd8133611aab565b506000928352600b602090815260408085206001600160a01b039094168552929052912055565b6001600160a01b038516331480611740575061174085336116b6565b61179e5760405162461bcd60e51b815260206004820152602960248201527f455243313135353a2063616c6c6572206973206e6f74206f776e6572206e6f7260448201526808185c1c1c9bdd995960ba1b60648201526084016108bb565b610b13858585858561244d565b6003546001600160a01b031633146118055760405162461bcd60e51b815260206004820181905260248201527f4f776e61626c653a2063616c6c6572206973206e6f7420746865206f776e657260448201526064016108bb565b6001600160a01b03811661186a5760405162461bcd60e51b815260206004820152602660248201527f4f776e61626c653a206e6577206f776e657220697320746865207a65726f206160448201526564647265737360d01b60648201526084016108bb565b6111358161223a565b336001600160a01b03841681148015906118b457506118b27f3c11d16cbaffd01df69ce1c404f6340ee057498f5f00246190ea54220576a84882611439565b155b80156118c757506118c584826116b6565b155b156118e55760405163574b16a760e11b815260040160405180910390fd5b610b7d84848461256a565b600080516020613cbb8339815191526119098133611aab565b506000918252600a602052604090912055565b60006001600160e01b03198216637965db0b60e01b14806108f557506108f58261266b565b60606002805461195090613796565b80601f016020809104026020016040519081016040528092919081815260200182805461197c90613796565b80156119c95780601f1061199e576101008083540402835291602001916119c9565b820191906000526020600020905b8154815290600101906020018083116119ac57829003601f168201915b50505050509050919050565b6001600160a01b0384166119fb5760405162461bcd60e51b81526004016108bb906138a3565b33611a1b81600087611a0c886126bb565b611a15886126bb565b87612706565b6000848152602081815260408083206001600160a01b038916845290915281208054859290611a4b908490613853565b909155505060408051858152602081018590526001600160a01b0380881692600092918516917fc3d58168c5ae7397731d063d5bbf3d657854427343f4c083240f7aacaa2d0f62910160405180910390a4610b138160008787878761281e565b611ab58282611439565b610bfd57611acd816001600160a01b03166014612989565b611ad8836020612989565b604051602001611ae99291906138e4565b60408051601f198184030181529082905262461bcd60e51b82526108bb91600401612f9d565b8151835114611b305760405162461bcd60e51b81526004016108bb90613959565b6001600160a01b038416611b565760405162461bcd60e51b81526004016108bb906139a1565b33611b65818787878787612706565b60005b8451811015611c4b576000858281518110611b8557611b8561383d565b602002602001015190506000858381518110611ba357611ba361383d565b602090810291909101810151600084815280835260408082206001600160a01b038e168352909352919091205490915081811015611bf35760405162461bcd60e51b81526004016108bb906139e6565b6000838152602081815260408083206001600160a01b038e8116855292528083208585039055908b16825281208054849290611c30908490613853565b9250508190555050505080611c449061386b565b9050611b68565b50846001600160a01b0316866001600160a01b0316826001600160a01b03167f4a39dc06d4c0dbc64b70af90fd698a233a518aa5d07e595d983b8c0526c8f7fb8787604051611c9b929190613a30565b60405180910390a4611cb1818787878787612b24565b505050505050565b611cc38282611439565b610bfd5760008281526004602090815260408083206001600160a01b03851684529091529020805460ff19166001179055611cfb3390565b6001600160a01b0316816001600160a01b0316837f2f8788117e7eff1d82e926ec794901d17c78024a50270940304540a733656f0d60405160405180910390a45050565b611d498282611439565b15610bfd5760008281526004602090815260408083206001600160a01b0385168085529252808320805460ff1916905551339285917ff6391f5c32d9c69d2a47ea670b442974b53935d1edc7fd64eb21e047a839171b9190a45050565b6001600160a01b038416611dcc5760405162461bcd60e51b81526004016108bb906138a3565b8151835114611ded5760405162461bcd60e51b81526004016108bb90613959565b33611dfd81600087878787612706565b60005b8451811015611e9857838181518110611e1b57611e1b61383d565b6020026020010151600080878481518110611e3857611e3861383d565b602002602001015181526020019081526020016000206000886001600160a01b03166001600160a01b031681526020019081526020016000206000828254611e809190613853565b90915550819050611e908161386b565b915050611e00565b50846001600160a01b031660006001600160a01b0316826001600160a01b03167f4a39dc06d4c0dbc64b70af90fd698a233a518aa5d07e595d983b8c0526c8f7fb8787604051611ee9929190613a30565b60405180910390a4610b1381600087878787612b24565b6001600160a01b038316611f265760405162461bcd60e51b81526004016108bb90613a5e565b8051825114611f475760405162461bcd60e51b81526004016108bb90613959565b6000339050611f6a81856000868660405180602001604052806000815250612706565b60005b835181101561202f576000848281518110611f8a57611f8a61383d565b602002602001015190506000848381518110611fa857611fa861383d565b602090810291909101810151600084815280835260408082206001600160a01b038c168352909352919091205490915081811015611ff85760405162461bcd60e51b81526004016108bb90613aa1565b6000928352602083815260408085206001600160a01b038b16865290915290922091039055806120278161386b565b915050611f6d565b5060006001600160a01b0316846001600160a01b0316826001600160a01b03167f4a39dc06d4c0dbc64b70af90fd698a233a518aa5d07e595d983b8c0526c8f7fb8686604051612080929190613a30565b60405180910390a450505050565b60055460ff166120d75760405162461bcd60e51b815260206004820152601460248201527314185d5cd8589b194e881b9bdd081c185d5cd95960621b60448201526064016108bb565b6005805460ff191690557f5db9ee0a495bf2e6ff9c91a7834c1ba4fdd244a5e8aa4e537bd38aeae4b073aa335b6040516001600160a01b03909116815260200160405180910390a1565b804710156121715760405162461bcd60e51b815260206004820152601d60248201527f416464726573733a20696e73756666696369656e742062616c616e636500000060448201526064016108bb565b6000826001600160a01b03168260405160006040518083038185875af1925050503d80600081146121be576040519150601f19603f3d011682016040523d82523d6000602084013e6121c3565b606091505b5050905080610b405760405162461bcd60e51b815260206004820152603a60248201527f416464726573733a20756e61626c6520746f2073656e642076616c75652c207260448201527f6563697069656e74206d6179206861766520726576657274656400000000000060648201526084016108bb565b600380546001600160a01b038381166001600160a01b0319831681179093556040519116919082907f8be0079c531659141344cd1fd0a4f28419497f9722a3daafe3b4186f6b6457e090600090a35050565b60055460ff16156122d25760405162461bcd60e51b815260206004820152601060248201526f14185d5cd8589b194e881c185d5cd95960821b60448201526064016108bb565b6005805460ff191660011790557f62e78cea01bee320cd4e420270b5ea74000d11b0c9f74754ebdbfc544b05a2586121043390565b8051610bfd906002906020840190612e38565b816001600160a01b0316836001600160a01b0316141561238e5760405162461bcd60e51b815260206004820152602960248201527f455243313135353a2073657474696e6720617070726f76616c20737461747573604482015268103337b91039b2b63360b91b60648201526084016108bb565b6001600160a01b03838116600081815260016020908152604080832094871680845294825291829020805460ff191686151590811790915591519182527f17307eab39ab6107e8899845ad3d59bd9653f200f220920489ca2b5937696c31910160405180910390a3505050565b604080516001600160a01b038416602482015260448082018490528251808303909101815260649091019091526020810180516001600160e01b031663a9059cbb60e01b179052610b40908490612bee565b6001600160a01b0384166124735760405162461bcd60e51b81526004016108bb906139a1565b33612483818787611a0c886126bb565b6000848152602081815260408083206001600160a01b038a168452909152902054838110156124c45760405162461bcd60e51b81526004016108bb906139e6565b6000858152602081815260408083206001600160a01b038b8116855292528083208785039055908816825281208054869290612501908490613853565b909155505060408051868152602081018690526001600160a01b03808916928a821692918616917fc3d58168c5ae7397731d063d5bbf3d657854427343f4c083240f7aacaa2d0f62910160405180910390a461256182888888888861281e565b50505050505050565b6001600160a01b0383166125905760405162461bcd60e51b81526004016108bb90613a5e565b336125bf818560006125a1876126bb565b6125aa876126bb565b60405180602001604052806000815250612706565b6000838152602081815260408083206001600160a01b0388168452909152902054828110156126005760405162461bcd60e51b81526004016108bb90613aa1565b6000848152602081815260408083206001600160a01b03898116808652918452828520888703905582518981529384018890529092908616917fc3d58168c5ae7397731d063d5bbf3d657854427343f4c083240f7aacaa2d0f62910160405180910390a45050505050565b60006001600160e01b03198216636cdb3d1360e11b148061269c57506001600160e01b031982166303a24d0760e21b145b806108f557506301ffc9a760e01b6001600160e01b03198316146108f5565b604080516001808252818301909252606091600091906020808301908036833701905050905082816000815181106126f5576126f561383d565b602090810291909101015292915050565b60055460ff161561272a5760405163574b16a760e11b815260040160405180910390fd5b6001600160a01b0385166128195760008060005b8583815181106127505761275061383d565b6020026020010151915084838151811061276c5761276c61383d565b60200260200101519050600c548211806127c15750600082815260086020526040902054158015906127c157506000828152600860209081526040808320546009909252909120546127bf908390613853565b115b156127df5760405163574b16a760e11b815260040160405180910390fd5b600082815260096020526040812080548392906127fd908490613853565b9091555050855161280d8461386b565b9350831061273e575050505b611cb1565b6001600160a01b0384163b15611cb15760405163f23a6e6160e01b81526001600160a01b0385169063f23a6e61906128629089908990889088908890600401613ae5565b602060405180830381600087803b15801561287c57600080fd5b505af19250505080156128ac575060408051601f3d908101601f191682019092526128a991810190613b1f565b60015b612959576128b8613b3c565b806308c379a014156128f257506128cd613b58565b806128d857506128f4565b8060405162461bcd60e51b81526004016108bb9190612f9d565b505b60405162461bcd60e51b815260206004820152603460248201527f455243313135353a207472616e7366657220746f206e6f6e20455243313135356044820152732932b1b2b4bb32b91034b6b83632b6b2b73a32b960611b60648201526084016108bb565b6001600160e01b0319811663f23a6e6160e01b146125615760405162461bcd60e51b81526004016108bb90613be1565b6060600061299883600261381e565b6129a3906002613853565b6001600160401b038111156129ba576129ba613020565b6040519080825280601f01601f1916602001820160405280156129e4576020820181803683370190505b509050600360fc1b816000815181106129ff576129ff61383d565b60200101906001600160f81b031916908160001a905350600f60fb1b81600181518110612a2e57612a2e61383d565b60200101906001600160f81b031916908160001a9053506000612a5284600261381e565b612a5d906001613853565b90505b6001811115612ad5576f181899199a1a9b1b9c1cb0b131b232b360811b85600f1660108110612a9157612a9161383d565b1a60f81b828281518110612aa757612aa761383d565b60200101906001600160f81b031916908160001a90535060049490941c93612ace81613c29565b9050612a60565b5083156109b25760405162461bcd60e51b815260206004820181905260248201527f537472696e67733a20686578206c656e67746820696e73756666696369656e7460448201526064016108bb565b6001600160a01b0384163b15611cb15760405163bc197c8160e01b81526001600160a01b0385169063bc197c8190612b689089908990889088908890600401613c40565b602060405180830381600087803b158015612b8257600080fd5b505af1925050508015612bb2575060408051601f3d908101601f19168201909252612baf91810190613b1f565b60015b612bbe576128b8613b3c565b6001600160e01b0319811663bc197c8160e01b146125615760405162461bcd60e51b81526004016108bb90613be1565b6000612c43826040518060400160405280602081526020017f5361666545524332303a206c6f772d6c6576656c2063616c6c206661696c6564815250856001600160a01b0316612cc09092919063ffffffff16565b805190915015610b405780806020019051810190612c619190613886565b610b405760405162461bcd60e51b815260206004820152602a60248201527f5361666545524332303a204552433230206f7065726174696f6e20646964206e6044820152691bdd081cdd58d8d9595960b21b60648201526084016108bb565b6060612ccf8484600085612cd7565b949350505050565b606082471015612d385760405162461bcd60e51b815260206004820152602660248201527f416464726573733a20696e73756666696369656e742062616c616e636520666f6044820152651c8818d85b1b60d21b60648201526084016108bb565b843b612d865760405162461bcd60e51b815260206004820152601d60248201527f416464726573733a2063616c6c20746f206e6f6e2d636f6e747261637400000060448201526064016108bb565b600080866001600160a01b03168587604051612da29190613c9e565b60006040518083038185875af1925050503d8060008114612ddf576040519150601f19603f3d011682016040523d82523d6000602084013e612de4565b606091505b5091509150612df4828286612dff565b979650505050505050565b60608315612e0e5750816109b2565b825115612e1e5782518084602001fd5b8160405162461bcd60e51b81526004016108bb9190612f9d565b828054612e4490613796565b90600052602060002090601f016020900481019282612e665760008555612eac565b82601f10612e7f57805160ff1916838001178555612eac565b82800160010185558215612eac579182015b82811115612eac578251825591602001919060010190612e91565b50612eb8929150612ebc565b5090565b5b80821115612eb85760008155600101612ebd565b6001600160a01b038116811461113557600080fd5b60008060408385031215612ef957600080fd5b8235612f0481612ed1565b946020939093013593505050565b6001600160e01b03198116811461113557600080fd5b600060208284031215612f3a57600080fd5b81356109b281612f12565b60005b83811015612f60578181015183820152602001612f48565b83811115610b7d5750506000910152565b60008151808452612f89816020860160208601612f45565b601f01601f19169290920160200192915050565b6020815260006109b26020830184612f71565b600060208284031215612fc257600080fd5b5035919050565b600080600060608486031215612fde57600080fd5b8335612fe981612ed1565b95602085013595506040909401359392505050565b6000806040838503121561301157600080fd5b50508035926020909101359150565b634e487b7160e01b600052604160045260246000fd5b601f8201601f191681016001600160401b038111828210171561305b5761305b613020565b6040525050565b60006001600160401b0382111561307b5761307b613020565b5060051b60200190565b600082601f83011261309657600080fd5b813560206130a382613062565b6040516130b08282613036565b83815260059390931b85018201928281019150868411156130d057600080fd5b8286015b848110156130eb57803583529183019183016130d4565b509695505050505050565b600082601f83011261310757600080fd5b81356001600160401b0381111561312057613120613020565b604051613137601f8301601f191660200182613036565b81815284602083860101111561314c57600080fd5b816020850160208301376000918101602001919091529392505050565b600080600080600060a0868803121561318157600080fd5b853561318c81612ed1565b9450602086013561319c81612ed1565b935060408601356001600160401b03808211156131b857600080fd5b6131c489838a01613085565b945060608801359150808211156131da57600080fd5b6131e689838a01613085565b935060808801359150808211156131fc57600080fd5b50613209888289016130f6565b9150509295509295909350565b6000806040838503121561322957600080fd5b82359150602083013561323b81612ed1565b809150509250929050565b6000806040838503121561325957600080fd5b8235915060208301356001600160401b0381111561327657600080fd5b613282858286016130f6565b9150509250929050565b600080600080608085870312156132a257600080fd5b84356132ad81612ed1565b935060208501356001600160401b03808211156132c957600080fd5b6132d588838901613085565b9450604087013591506132e782612ed1565b909250606086013590808211156132fd57600080fd5b5061330a87828801613085565b91505092959194509250565b6000806000806080858703121561332c57600080fd5b843561333781612ed1565b935060208501359250604085013561334e81612ed1565b9396929550929360600135925050565b60008060006060848603121561337357600080fd5b833561337e81612ed1565b925060208401356001600160401b038082111561339a57600080fd5b6133a687838801613085565b935060408601359150808211156133bc57600080fd5b506133c986828701613085565b9150509250925092565b600080600080608085870312156133e957600080fd5b84356133f481612ed1565b935060208501356001600160401b038082111561341057600080fd5b61341c88838901613085565b9450604087013591508082111561343257600080fd5b61343e88838901613085565b9350606087013591508082111561345457600080fd5b5061330a878288016130f6565b6000806040838503121561347457600080fd5b82356001600160401b038082111561348b57600080fd5b818501915085601f83011261349f57600080fd5b813560206134ac82613062565b6040516134b98282613036565b83815260059390931b85018201928281019150898411156134d957600080fd5b948201945b838610156135005785356134f181612ed1565b825294820194908201906134de565b9650508601359250508082111561351657600080fd5b5061328285828601613085565b600081518084526020808501945080840160005b8381101561355357815187529582019590820190600101613537565b509495945050505050565b6020815260006109b26020830184613523565b60006020828403121561358357600080fd5b81356109b281612ed1565b600080604083850312156135a157600080fd5b82356001600160401b038111156135b757600080fd5b6135c3858286016130f6565b95602094909401359450505050565b600080600080608085870312156135e857600080fd5b84356135f381612ed1565b9350602085013592506040850135915060608501356001600160401b0381111561361c57600080fd5b61330a878288016130f6565b60006020828403121561363a57600080fd5b81356001600160401b0381111561365057600080fd5b612ccf848285016130f6565b801515811461113557600080fd5b6000806040838503121561367d57600080fd5b823561368881612ed1565b9150602083013561323b8161365c565b6000806000606084860312156136ad57600080fd5b83356136b881612ed1565b925060208401356136c881612ed1565b929592945050506040919091013590565b600080604083850312156136ec57600080fd5b82356136f781612ed1565b9150602083013561323b81612ed1565b60008060006060848603121561371c57600080fd5b8335925060208401356136c881612ed1565b600080600080600060a0868803121561374657600080fd5b853561375181612ed1565b9450602086013561376181612ed1565b9350604086013592506060860135915060808601356001600160401b0381111561378a57600080fd5b613209888289016130f6565b600181811c908216806137aa57607f821691505b602082108114156137cb57634e487b7160e01b600052602260045260246000fd5b50919050565b6020808252601f908201527f5265656e7472616e637947756172643a207265656e7472616e742063616c6c00604082015260600190565b634e487b7160e01b600052601160045260246000fd5b600081600019048311821515161561383857613838613808565b500290565b634e487b7160e01b600052603260045260246000fd5b6000821982111561386657613866613808565b500190565b600060001982141561387f5761387f613808565b5060010190565b60006020828403121561389857600080fd5b81516109b28161365c565b60208082526021908201527f455243313135353a206d696e7420746f20746865207a65726f206164647265736040820152607360f81b606082015260800190565b7f416363657373436f6e74726f6c3a206163636f756e742000000000000000000081526000835161391c816017850160208801612f45565b7001034b99036b4b9b9b4b733903937b6329607d1b601791840191820152835161394d816028840160208801612f45565b01602801949350505050565b60208082526028908201527f455243313135353a2069647320616e6420616d6f756e7473206c656e677468206040820152670dad2e6dac2e8c6d60c31b606082015260800190565b60208082526025908201527f455243313135353a207472616e7366657220746f20746865207a65726f206164604082015264647265737360d81b606082015260800190565b6020808252602a908201527f455243313135353a20696e73756666696369656e742062616c616e636520666f60408201526939103a3930b739b332b960b11b606082015260800190565b604081526000613a436040830185613523565b8281036020840152613a558185613523565b95945050505050565b60208082526023908201527f455243313135353a206275726e2066726f6d20746865207a65726f206164647260408201526265737360e81b606082015260800190565b60208082526024908201527f455243313135353a206275726e20616d6f756e7420657863656564732062616c604082015263616e636560e01b606082015260800190565b6001600160a01b03868116825285166020820152604081018490526060810183905260a060808201819052600090612df490830184612f71565b600060208284031215613b3157600080fd5b81516109b281612f12565b600060033d1115613b555760046000803e5060005160e01c5b90565b600060443d1015613b665790565b6040516003193d81016004833e81513d6001600160401b038160248401118184111715613b9557505050505090565b8285019150815181811115613bad5750505050505090565b843d8701016020828501011115613bc75750505050505090565b613bd660208286010187613036565b509095945050505050565b60208082526028908201527f455243313135353a204552433131353552656365697665722072656a656374656040820152676420746f6b656e7360c01b606082015260800190565b600081613c3857613c38613808565b506000190190565b6001600160a01b0386811682528516602082015260a060408201819052600090613c6c90830186613523565b8281036060840152613c7e8186613523565b90508281036080840152613c928185612f71565b98975050505050505050565b60008251613cb0818460208701612f45565b919091019291505056fe850d585eb7f024ccee5e68e55f2c26cc72e1e6ee456acf62135757a5eb9d4a10a2646970667358221220e686afc9b4c32655b0263d746486eac828e8e964ae5c8b8c42f930de5c24884464736f6c63430008090033",
  "linkReferences": {},
  "deployedLinkReferences": {}
}