{
  "_format": "hh-sol-artifact-1",
  "contractName": "CashCowsGame",
  "sourceName": "contracts/phase4/CashCowsGame.sol",
  "abi": [
    {
      "inputs": [
        {
          "internalType": "address",
          "name": "admin",
          "type": "address"
        }
      ],
      "stateMutability": "nonpayable",
      "type": "constructor"
    },
    {
      "inputs": [],
      "name": "InvalidCall",
      "type": "error"
    },
    {
      "anonymous": false,
      "inputs": [
        {
          "indexed": false,
          "internalType": "uint256",
          "name": "characterId",
          "type": "uint256"
        },
        {
          "indexed": false,
          "internalType": "uint256",
          "name": "itemId",
          "type": "uint256"
        }
      ],
      "name": "Linked",
      "type": "event"
    },
    {
      "anonymous": false,
      "inputs": [
        {
          "indexed": true,
          "internalType": "bytes32",
          "name": "role",
          "type": "bytes32"
        },
        {
          "indexed": true,
          "internalType": "bytes32",
          "name": "previousAdminRole",
          "type": "bytes32"
        },
        {
          "indexed": true,
          "internalType": "bytes32",
          "name": "newAdminRole",
          "type": "bytes32"
        }
      ],
      "name": "RoleAdminChanged",
      "type": "event"
    },
    {
      "anonymous": false,
      "inputs": [
        {
          "indexed": true,
          "internalType": "bytes32",
          "name": "role",
          "type": "bytes32"
        },
        {
          "indexed": true,
          "internalType": "address",
          "name": "account",
          "type": "address"
        },
        {
          "indexed": true,
          "internalType": "address",
          "name": "sender",
          "type": "address"
        }
      ],
      "name": "RoleGranted",
      "type": "event"
    },
    {
      "anonymous": false,
      "inputs": [
        {
          "indexed": true,
          "internalType": "bytes32",
          "name": "role",
          "type": "bytes32"
        },
        {
          "indexed": true,
          "internalType": "address",
          "name": "account",
          "type": "address"
        },
        {
          "indexed": true,
          "internalType": "address",
          "name": "sender",
          "type": "address"
        }
      ],
      "name": "RoleRevoked",
      "type": "event"
    },
    {
      "anonymous": false,
      "inputs": [
        {
          "indexed": false,
          "internalType": "uint256",
          "name": "characterId",
          "type": "uint256"
        },
        {
          "indexed": false,
          "internalType": "uint256",
          "name": "itemId",
          "type": "uint256"
        }
      ],
      "name": "Unlinked",
      "type": "event"
    },
    {
      "inputs": [],
      "name": "DEFAULT_ADMIN_ROLE",
      "outputs": [
        {
          "internalType": "bytes32",
          "name": "",
          "type": "bytes32"
        }
      ],
      "stateMutability": "view",
      "type": "function"
    },
    {
      "inputs": [
        {
          "internalType": "contract IERC20",
          "name": "token",
          "type": "address"
        },
        {
          "internalType": "bool",
          "name": "yes",
          "type": "bool"
        }
      ],
      "name": "burnable",
      "outputs": [],
      "stateMutability": "nonpayable",
      "type": "function"
    },
    {
      "inputs": [
        {
          "internalType": "bytes32",
          "name": "role",
          "type": "bytes32"
        }
      ],
      "name": "getRoleAdmin",
      "outputs": [
        {
          "internalType": "bytes32",
          "name": "",
          "type": "bytes32"
        }
      ],
      "stateMutability": "view",
      "type": "function"
    },
    {
      "inputs": [
        {
          "internalType": "bytes32",
          "name": "role",
          "type": "bytes32"
        },
        {
          "internalType": "address",
          "name": "account",
          "type": "address"
        }
      ],
      "name": "grantRole",
      "outputs": [],
      "stateMutability": "nonpayable",
      "type": "function"
    },
    {
      "inputs": [
        {
          "internalType": "bytes32",
          "name": "role",
          "type": "bytes32"
        },
        {
          "internalType": "address",
          "name": "account",
          "type": "address"
        }
      ],
      "name": "hasRole",
      "outputs": [
        {
          "internalType": "bool",
          "name": "",
          "type": "bool"
        }
      ],
      "stateMutability": "view",
      "type": "function"
    },
    {
      "inputs": [
        {
          "internalType": "uint256",
          "name": "characterId",
          "type": "uint256"
        }
      ],
      "name": "items",
      "outputs": [
        {
          "components": [
            {
              "internalType": "address",
              "name": "collectionAddress",
              "type": "address"
            },
            {
              "internalType": "uint256",
              "name": "collectionTokenId",
              "type": "uint256"
            }
          ],
          "internalType": "struct CashCowsGame.Collection[]",
          "name": "",
          "type": "tuple[]"
        }
      ],
      "stateMutability": "view",
      "type": "function"
    },
    {
      "inputs": [
        {
          "internalType": "uint256",
          "name": "characterId",
          "type": "uint256"
        },
        {
          "internalType": "uint256",
          "name": "itemId",
          "type": "uint256"
        },
        {
          "internalType": "bytes",
          "name": "data",
          "type": "bytes"
        }
      ],
      "name": "link",
      "outputs": [],
      "stateMutability": "nonpayable",
      "type": "function"
    },
    {
      "inputs": [
        {
          "internalType": "uint256",
          "name": "characterId",
          "type": "uint256"
        },
        {
          "internalType": "uint256",
          "name": "itemId",
          "type": "uint256"
        }
      ],
      "name": "linkedSince",
      "outputs": [
        {
          "internalType": "uint256",
          "name": "",
          "type": "uint256"
        }
      ],
      "stateMutability": "view",
      "type": "function"
    },
    {
      "inputs": [
        {
          "internalType": "uint256",
          "name": "characterId",
          "type": "uint256"
        },
        {
          "internalType": "uint256",
          "name": "itemId",
          "type": "uint256"
        }
      ],
      "name": "mint",
      "outputs": [],
      "stateMutability": "nonpayable",
      "type": "function"
    },
    {
      "inputs": [
        {
          "internalType": "uint256",
          "name": "characterId",
          "type": "uint256"
        },
        {
          "internalType": "uint256",
          "name": "itemId",
          "type": "uint256"
        },
        {
          "internalType": "uint256",
          "name": "price",
          "type": "uint256"
        },
        {
          "internalType": "bytes",
          "name": "proof",
          "type": "bytes"
        }
      ],
      "name": "mint",
      "outputs": [],
      "stateMutability": "payable",
      "type": "function"
    },
    {
      "inputs": [
        {
          "internalType": "address",
          "name": "token",
          "type": "address"
        },
        {
          "internalType": "uint256",
          "name": "characterId",
          "type": "uint256"
        },
        {
          "internalType": "uint256",
          "name": "itemId",
          "type": "uint256"
        },
        {
          "internalType": "uint256",
          "name": "price",
          "type": "uint256"
        },
        {
          "internalType": "bytes",
          "name": "proof",
          "type": "bytes"
        }
      ],
      "name": "mint",
      "outputs": [],
      "stateMutability": "nonpayable",
      "type": "function"
    },
    {
      "inputs": [
        {
          "internalType": "address",
          "name": "",
          "type": "address"
        },
        {
          "internalType": "address",
          "name": "",
          "type": "address"
        },
        {
          "internalType": "uint256[]",
          "name": "",
          "type": "uint256[]"
        },
        {
          "internalType": "uint256[]",
          "name": "",
          "type": "uint256[]"
        },
        {
          "internalType": "bytes",
          "name": "",
          "type": "bytes"
        }
      ],
      "name": "onERC1155BatchReceived",
      "outputs": [
        {
          "internalType": "bytes4",
          "name": "",
          "type": "bytes4"
        }
      ],
      "stateMutability": "pure",
      "type": "function"
    },
    {
      "inputs": [
        {
          "internalType": "address",
          "name": "",
          "type": "address"
        },
        {
          "internalType": "address",
          "name": "",
          "type": "address"
        },
        {
          "internalType": "uint256",
          "name": "",
          "type": "uint256"
        },
        {
          "internalType": "uint256",
          "name": "",
          "type": "uint256"
        },
        {
          "internalType": "bytes",
          "name": "",
          "type": "bytes"
        }
      ],
      "name": "onERC1155Received",
      "outputs": [
        {
          "internalType": "bytes4",
          "name": "",
          "type": "bytes4"
        }
      ],
      "stateMutability": "pure",
      "type": "function"
    },
    {
      "inputs": [
        {
          "internalType": "contract IERC20Mintable",
          "name": "token",
          "type": "address"
        },
        {
          "internalType": "uint256",
          "name": "characterId",
          "type": "uint256"
        },
        {
          "internalType": "uint256",
          "name": "itemId",
          "type": "uint256"
        },
        {
          "internalType": "uint256",
          "name": "rate",
          "type": "uint256"
        },
        {
          "internalType": "bytes",
          "name": "proof",
          "type": "bytes"
        }
      ],
      "name": "redeem",
      "outputs": [],
      "stateMutability": "nonpayable",
      "type": "function"
    },
    {
      "inputs": [
        {
          "internalType": "contract IERC20",
          "name": "token",
          "type": "address"
        },
        {
          "internalType": "uint256",
          "name": "characterId",
          "type": "uint256"
        },
        {
          "internalType": "uint256",
          "name": "itemId",
          "type": "uint256"
        },
        {
          "internalType": "uint256",
          "name": "timestamp",
          "type": "uint256"
        },
        {
          "internalType": "uint256",
          "name": "rate",
          "type": "uint256"
        }
      ],
      "name": "redeemable",
      "outputs": [
        {
          "internalType": "uint256",
          "name": "",
          "type": "uint256"
        }
      ],
      "stateMutability": "view",
      "type": "function"
    },
    {
      "inputs": [
        {
          "internalType": "contract IERC20",
          "name": "token",
          "type": "address"
        },
        {
          "internalType": "uint256",
          "name": "characterId",
          "type": "uint256"
        },
        {
          "internalType": "uint256",
          "name": "itemId",
          "type": "uint256"
        },
        {
          "internalType": "uint256",
          "name": "rate",
          "type": "uint256"
        }
      ],
      "name": "redeemable",
      "outputs": [
        {
          "internalType": "uint256",
          "name": "",
          "type": "uint256"
        }
      ],
      "stateMutability": "view",
      "type": "function"
    },
    {
      "inputs": [
        {
          "internalType": "contract IERC20",
          "name": "token",
          "type": "address"
        },
        {
          "internalType": "uint256",
          "name": "characterId",
          "type": "uint256"
        },
        {
          "internalType": "uint256",
          "name": "itemId",
          "type": "uint256"
        }
      ],
      "name": "redeemed",
      "outputs": [
        {
          "internalType": "uint256",
          "name": "",
          "type": "uint256"
        }
      ],
      "stateMutability": "view",
      "type": "function"
    },
    {
      "inputs": [
        {
          "internalType": "bytes32",
          "name": "role",
          "type": "bytes32"
        },
        {
          "internalType": "address",
          "name": "account",
          "type": "address"
        }
      ],
      "name": "renounceRole",
      "outputs": [],
      "stateMutability": "nonpayable",
      "type": "function"
    },
    {
      "inputs": [
        {
          "internalType": "bytes32",
          "name": "role",
          "type": "bytes32"
        },
        {
          "internalType": "address",
          "name": "account",
          "type": "address"
        }
      ],
      "name": "revokeRole",
      "outputs": [],
      "stateMutability": "nonpayable",
      "type": "function"
    },
    {
      "inputs": [
        {
          "internalType": "uint256",
          "name": "characterId",
          "type": "uint256"
        },
        {
          "internalType": "uint256",
          "name": "itemId",
          "type": "uint256"
        },
        {
          "internalType": "bytes",
          "name": "data",
          "type": "bytes"
        }
      ],
      "name": "safeLink",
      "outputs": [],
      "stateMutability": "nonpayable",
      "type": "function"
    },
    {
      "inputs": [
        {
          "internalType": "bytes4",
          "name": "interfaceId",
          "type": "bytes4"
        }
      ],
      "name": "supportsInterface",
      "outputs": [
        {
          "internalType": "bool",
          "name": "",
          "type": "bool"
        }
      ],
      "stateMutability": "view",
      "type": "function"
    },
    {
      "inputs": [
        {
          "internalType": "address",
          "name": "token",
          "type": "address"
        },
        {
          "internalType": "uint256",
          "name": "characterId",
          "type": "uint256"
        },
        {
          "internalType": "uint256",
          "name": "itemId",
          "type": "uint256"
        },
        {
          "internalType": "uint256",
          "name": "price",
          "type": "uint256"
        },
        {
          "internalType": "bytes",
          "name": "proof",
          "type": "bytes"
        }
      ],
      "name": "ts",
      "outputs": [
        {
          "internalType": "bool",
          "name": "",
          "type": "bool"
        }
      ],
      "stateMutability": "view",
      "type": "function"
    },
    {
      "inputs": [
        {
          "internalType": "uint256",
          "name": "characterId",
          "type": "uint256"
        },
        {
          "internalType": "uint256",
          "name": "itemId",
          "type": "uint256"
        },
        {
          "internalType": "bytes",
          "name": "data",
          "type": "bytes"
        }
      ],
      "name": "unlink",
      "outputs": [],
      "stateMutability": "nonpayable",
      "type": "function"
    },
    {
      "inputs": [
        {
          "internalType": "uint256",
          "name": "characterId",
          "type": "uint256"
        },
        {
          "internalType": "uint256",
          "name": "itemId",
          "type": "uint256"
        },
        {
          "internalType": "address",
          "name": "to",
          "type": "address"
        },
        {
          "internalType": "bytes",
          "name": "data",
          "type": "bytes"
        }
      ],
      "name": "unlink",
      "outputs": [],
      "stateMutability": "nonpayable",
      "type": "function"
    },
    {
      "inputs": [
        {
          "internalType": "uint256",
          "name": "itemId",
          "type": "uint256"
        },
        {
          "internalType": "bool",
          "name": "yes",
          "type": "bool"
        }
      ],
      "name": "unlinkable",
      "outputs": [],
      "stateMutability": "nonpayable",
      "type": "function"
    },
    {
      "inputs": [
        {
          "internalType": "address",
          "name": "recipient",
          "type": "address"
        }
      ],
      "name": "withdraw",
      "outputs": [],
      "stateMutability": "nonpayable",
      "type": "function"
    },
    {
      "inputs": [
        {
          "internalType": "contract IERC20",
          "name": "erc20",
          "type": "address"
        },
        {
          "internalType": "address",
          "name": "recipient",
          "type": "address"
        },
        {
          "internalType": "uint256",
          "name": "amount",
          "type": "uint256"
        }
      ],
      "name": "withdraw",
      "outputs": [],
      "stateMutability": "nonpayable",
      "type": "function"
    }
  ],
  "bytecode": "0x60806040523480156200001157600080fd5b5060405162002c5238038062002c528339810160408190526200003491620000e6565b600160009081556200004790826200004e565b5062000118565b6200005a82826200005e565b5050565b60008281526001602090815260408083206001600160a01b038516845290915290205460ff166200005a5760008281526001602081815260408084206001600160a01b0386168086529252808420805460ff19169093179092559051339285917f2f8788117e7eff1d82e926ec794901d17c78024a50270940304540a733656f0d9190a45050565b600060208284031215620000f957600080fd5b81516001600160a01b03811681146200011157600080fd5b9392505050565b612b2a80620001286000396000f3fe60806040526004361061019c5760003560e01c80638e309644116100ec578063bfb231d21161008a578063d9caed1211610064578063d9caed12146104eb578063e07b298d1461050b578063e1d733391461052b578063f23a6e611461054b57600080fd5b8063bfb231d21461047e578063c8d53508146104ab578063d547741f146104cb57600080fd5b8063a217fddf116100c6578063a217fddf146103ca578063adcbd3b0146103df578063b49c99b814610416578063bc197c811461043657600080fd5b80638e3096441461036a5780638f7f9a831461038a57806391d14854146103aa57600080fd5b806336568abe1161015957806351cff8d91161013357806351cff8d9146102ea57806367302b8e1461030a57806371612b8e1461032a578063718cecce1461034a57600080fd5b806336568abe146102975780633fd09ee0146102b75780634a9eee69146102d757600080fd5b806301ffc9a7146101a15780631b2ef1ca146101d6578063248a9ca3146101f85780632d6c089c146102375780632f2ff15d146102575780633126013a14610277575b600080fd5b3480156101ad57600080fd5b506101c16101bc36600461219a565b610578565b60405190151581526020015b60405180910390f35b3480156101e257600080fd5b506101f66101f13660046121c4565b6105af565b005b34801561020457600080fd5b506102296102133660046121e6565b6000908152600160208190526040909120015490565b6040519081526020016101cd565b34801561024357600080fd5b506101f661025236600461220d565b6105d7565b34801561026357600080fd5b506101f6610272366004612252565b610623565b34801561028357600080fd5b506101c161029236600461231a565b61064a565b3480156102a357600080fd5b506101f66102b2366004612252565b6107ef565b3480156102c357600080fd5b506102296102d2366004612387565b610872565b6101f66102e53660046123bc565b61090a565b3480156102f657600080fd5b506101f6610305366004612416565b61099b565b34801561031657600080fd5b506101f6610325366004612475565b610a31565b34801561033657600080fd5b506102296103453660046124c8565b610b3b565b34801561035657600080fd5b506101f6610365366004612475565b610b7a565b34801561037657600080fd5b5061022961038536600461250c565b610c48565b34801561039657600080fd5b506101f66103a5366004612547565b610c57565b3480156103b657600080fd5b506101c16103c5366004612252565b610cae565b3480156103d657600080fd5b50610229600081565b3480156103eb57600080fd5b506102296103fa3660046121c4565b6000908152600260209081526040808320938352929052205490565b34801561042257600080fd5b506101f661043136600461231a565b610cd9565b34801561044257600080fd5b506104656104513660046125ba565b63bc197c8160e01b98975050505050505050565b6040516001600160e01b031990911681526020016101cd565b34801561048a57600080fd5b5061049e6104993660046121e6565b610e6f565b6040516101cd9190612679565b3480156104b757600080fd5b506101f66104c63660046126d1565b610fcc565b3480156104d757600080fd5b506101f66104e6366004612252565b6110e1565b3480156104f757600080fd5b506101f661050636600461273b565b611108565b34801561051757600080fd5b506101f6610526366004612475565b6111a1565b34801561053757600080fd5b506101f661054636600461231a565b611232565b34801561055757600080fd5b5061046561056636600461277c565b63f23a6e6160e01b9695505050505050565b60006001600160e01b03198216637965db0b60e01b14806105a957506301ffc9a760e01b6001600160e01b03198316145b92915050565b600080516020612ad58339815191526105c88133611422565b6105d28383611486565b505050565b7f850d585eb7f024ccee5e68e55f2c26cc72e1e6ee456acf62135757a5eb9d4a106106028133611422565b50600091825260056020526040909120805460ff1916911515919091179055565b600082815260016020819052604090912001546106408133611422565b6105d2838361151c565b60006106fb6040518060400160405280600b81526020016a4d494e5445525f524f4c4560a81b8152506106f66106f08989898960405160200161069094939291906127f8565b60408051601f1981840301815282825280516020918201207f19457468657265756d205369676e6564204d6573736167653a0a33320000000084830152603c8085019190915282518085039091018152605c909301909152815191012090565b85611587565b6115ab565b600080610707876115f0565b9150915061073e60405180604001604052806011815260200170636861726163746572206164647265737360781b815250836115ab565b6107716040518060400160405280601181526020017018da185c9858dd195c881d1bdad95b9a59607a1b81525082611610565b60008061077d886115f0565b915091506107af6040518060400160405280600c81526020016b6974656d206164647265737360a01b815250836115ab565b6107dd6040518060400160405280600c81526020016b1a5d195b481d1bdad95b9a5960a21b81525082611610565b60019450505050505b95945050505050565b6001600160a01b03811633146108645760405162461bcd60e51b815260206004820152602f60248201527f416363657373436f6e74726f6c3a2063616e206f6e6c792072656e6f756e636560448201526e103937b632b9903337b91039b2b63360891b60648201526084015b60405180910390fd5b61086e8282611655565b5050565b600081815260036020908152604080832085845282528083206001600160a01b038716845282528083205484845260028352818420868552909252822054116108e557600082815260036020908152604080832086845282528083206001600160a01b0388168452909152902054610900565b60008281526002602090815260408083208684529091529020545b90505b9392505050565b81158061091657508134105b8061096d5750604051631b5a5b9d60e21b602082015260248101859052604481018490526064810183905261096b90600080516020612ad5833981519152906103c59061096590608401610690565b84611587565b155b1561098b5760405163574b16a760e11b815260040160405180910390fd5b6109958484611486565b50505050565b600260005414156109ee5760405162461bcd60e51b815260206004820152601f60248201527f5265656e7472616e637947756172643a207265656e7472616e742063616c6c00604482015260640161085b565b60026000557f0914bb97ca83e85ef385857d9d418f187ff630589e0c9f44db92976d8e4519cb610a1e8133611422565b610a2882476116bc565b50506001600055565b600080610a3d856115f0565b6040516331a9108f60e11b81526004810182905291935091506001600160a01b03831690636352211e9060240160206040518083038186803b158015610a8257600080fd5b505afa925050508015610ab2575060408051601f3d908101601f19168201909252610aaf91810190612834565b60015b610aff573d808015610ae0576040519150601f19603f3d011682016040523d82523d6000602084013e610ae5565b606091505b5060405163574b16a760e11b815260040160405180910390fd5b6001600160a01b038116610b265760405163574b16a760e11b815260040160405180910390fd5b50610b33868686866111a1565b505050505050565b600080610b49878787610872565b905080610b5a5760009150506107e6565b82610b658286612867565b610b6f919061287e565b979650505050505050565b7f850d585eb7f024ccee5e68e55f2c26cc72e1e6ee456acf62135757a5eb9d4a10610ba58133611422565b600080610bb1876115f0565b91509150610c3f8787846001600160a01b0316636352211e856040518263ffffffff1660e01b8152600401610be891815260200190565b60206040518083038186803b158015610c0057600080fd5b505afa158015610c14573d6000803e3d6000fd5b505050506040513d601f19601f82011682018060405250810190610c389190612834565b88886117d5565b50505050505050565b60006107e68585854286610b3b565b7f850d585eb7f024ccee5e68e55f2c26cc72e1e6ee456acf62135757a5eb9d4a10610c828133611422565b506001600160a01b03919091166000908152600460205260409020805460ff1916911515919091179055565b60009182526001602090815260408084206001600160a01b0393909316845291905290205460ff1690565b811580610d125750610d10600080516020612ad58339815191526103c56109658888888860405160200161069094939291906127f8565b155b15610d305760405163574b16a760e11b815260040160405180910390fd5b6001600160a01b03851660009081526004602052604090205460ff1615610dc6576001600160a01b0385166379cc6790336040516001600160e01b031960e084901b1681526001600160a01b03909116600482015260248101859052604401600060405180830381600087803b158015610da957600080fd5b505af1158015610dbd573d6000803e3d6000fd5b50505050610e5e565b6001600160a01b0385166323b872dd336040516001600160e01b031960e084901b1681526001600160a01b03909116600482015230602482015260448101859052606401602060405180830381600087803b158015610e2457600080fd5b505af1158015610e38573d6000803e3d6000fd5b505050506040513d601f19601f82011682018060405250810190610e5c919061289d565b505b610e688484611486565b5050505050565b6000818152600860205260408120546060919067ffffffffffffffff811115610e9a57610e9a612277565b604051908082528060200260200182016040528015610edf57816020015b6040805180820190915260008082526020820152815260200190600190039081610eb85790505b5090506000805b600654811015610fc35760006002600060068481548110610f0957610f096128ba565b906000526020600020015481526020019081526020016000206000878152602001908152602001600020541115610fb157600080610f6360068481548110610f5357610f536128ba565b90600052602060002001546115f0565b915091506040518060400160405280836001600160a01b0316815260200182815250858580610f91906128d0565b965081518110610fa357610fa36128ba565b602002602001018190525050505b80610fbb816128d0565b915050610ee6565b50909392505050565b60008481526005602052604090205460ff16610ffb5760405163574b16a760e11b815260040160405180910390fd5b600080611007876115f0565b6040516331a9108f60e11b81526004810182905291935091506001600160a01b03831690636352211e9060240160206040518083038186803b15801561104c57600080fd5b505afa92505050801561107c575060408051601f3d908101601f1916820190925261107991810190612834565b60015b6110aa573d808015610ae0576040519150601f19603f3d011682016040523d82523d6000602084013e610ae5565b6001600160a01b03811633146110d35760405163574b16a760e11b815260040160405180910390fd5b50610c3f87878787876117d5565b600082815260016020819052604090912001546110fe8133611422565b6105d28383611655565b6002600054141561115b5760405162461bcd60e51b815260206004820152601f60248201527f5265656e7472616e637947756172643a207265656e7472616e742063616c6c00604482015260640161085b565b60026000557f0914bb97ca83e85ef385857d9d418f187ff630589e0c9f44db92976d8e4519cb61118b8133611422565b6111968484846118fd565b505060016000555050565b6111ab848461194f565b6000806111b7856115f0565b91509150816001600160a01b031663f242432a6111d13390565b3084600189896040518763ffffffff1660e01b81526004016111f8969594939291906128eb565b600060405180830381600087803b15801561121257600080fd5b505af1158015611226573d6000803e3d6000fd5b50505050505050505050565b6040516572656465656d60d01b60208201526bffffffffffffffffffffffff19606087901b166026820152603a8101849052605a810183905261128f90600080516020612ad5833981519152906103c59061096590607a01610690565b6112ac5760405163574b16a760e11b815260040160405180910390fd5b336000806112b9876115f0565b91509150826001600160a01b0316826001600160a01b0316636352211e836040518263ffffffff1660e01b81526004016112f591815260200190565b60206040518083038186803b15801561130d57600080fd5b505afa158015611321573d6000803e3d6000fd5b505050506040513d601f19601f820116820180604052508101906113459190612834565b6001600160a01b03161461136c5760405163574b16a760e11b815260040160405180910390fd5b600061137a89898989610c48565b60008881526003602090815260408083208c845282528083206001600160a01b038e811680865291845293829020429055815193891660248501526044808501869052825180860390910181526064909401825283830180516001600160e01b03166340c10f1960e01b17905281518083019092526015825274131bddcb5b195d995b081b5a5b9d0819985a5b1959605a1b9282019290925292935061122692909190611a5c565b61142c8282610cae565b61086e57611444816001600160a01b03166014611a6b565b61144f836020611a6b565b604051602001611460929190612973565b60408051601f198184030181529082905262461bcd60e51b825261085b91600401612a14565b611490828261194f565b60008061149c836115f0565b60405163731133e960e01b81523060048201526024810182905260016044820152608060648201526000608482015291935091506001600160a01b0383169063731133e99060a401600060405180830381600087803b1580156114fe57600080fd5b505af1158015611512573d6000803e3d6000fd5b5050505050505050565b6115268282610cae565b61086e5760008281526001602081815260408084206001600160a01b0386168086529252808420805460ff19169093179092559051339285917f2f8788117e7eff1d82e926ec794901d17c78024a50270940304540a733656f0d9190a45050565b60008060006115968585611c07565b915091506115a381611c77565b509392505050565b61086e82826040516024016115c1929190612a27565b60408051601f198184030181529190526020810180516001600160e01b031663319af33360e01b179052611e35565b6000806001600160a01b0383166116078460a01c90565b91509150915091565b61086e8282604051602401611626929190612a51565b60408051601f198184030181529190526020810180516001600160e01b03166309710a9d60e41b179052611e35565b61165f8282610cae565b1561086e5760008281526001602090815260408083206001600160a01b0385168085529252808320805460ff1916905551339285917ff6391f5c32d9c69d2a47ea670b442974b53935d1edc7fd64eb21e047a839171b9190a45050565b8047101561170c5760405162461bcd60e51b815260206004820152601d60248201527f416464726573733a20696e73756666696369656e742062616c616e6365000000604482015260640161085b565b6000826001600160a01b03168260405160006040518083038185875af1925050503d8060008114611759576040519150601f19603f3d011682016040523d82523d6000602084013e61175e565b606091505b50509050806105d25760405162461bcd60e51b815260206004820152603a60248201527f416464726573733a20756e61626c6520746f2073656e642076616c75652c207260448201527f6563697069656e74206d61792068617665207265766572746564000000000000606482015260840161085b565b600084815260026020908152604080832088845290915290205461180c5760405163574b16a760e11b815260040160405180910390fd5b600080611818866115f0565b604051637921219560e11b815291935091506001600160a01b0383169063f242432a90611854903090899086906001908b908b906004016128eb565b600060405180830381600087803b15801561186e57600080fd5b505af1158015611882573d6000803e3d6000fd5b50505060008781526002602090815260408083208b845282528083208390556008909152812080549250906118b683612a73565b909155505060408051888152602081018890527f244074e17b6c066142a9fd02bb2ce3bab21474ab8d82f6fb636477d5910b4f47910160405180910390a150505050505050565b604080516001600160a01b038416602482015260448082018490528251808303909101815260649091019091526020810180516001600160e01b031663a9059cbb60e01b1790526105d2908490611e56565b6000818152600260209081526040808320858452909152902054156119875760405163574b16a760e11b815260040160405180910390fd5b60008181526002602090815260408083208584528252808320429055600890915281208054916119b6836128d0565b909155505060008181526007602052604090205460ff16611a1f576000818152600760205260408120805460ff191660019081179091556006805491820181559091527ff652222313e28459528d920b65115c16c04f3efc82aaedc97be59f3f377c0d3f018190555b60408051838152602081018390527f5c5cd575fdb16d05d1dfa7c30de22f36a5a1ecee8a750071b8f5d54485a21189910160405180910390a15050565b60606109008484600085611f28565b60606000611a7a83600261287e565b611a85906002612a8a565b67ffffffffffffffff811115611a9d57611a9d612277565b6040519080825280601f01601f191660200182016040528015611ac7576020820181803683370190505b509050600360fc1b81600081518110611ae257611ae26128ba565b60200101906001600160f81b031916908160001a905350600f60fb1b81600181518110611b1157611b116128ba565b60200101906001600160f81b031916908160001a9053506000611b3584600261287e565b611b40906001612a8a565b90505b6001811115611bb8576f181899199a1a9b1b9c1cb0b131b232b360811b85600f1660108110611b7457611b746128ba565b1a60f81b828281518110611b8a57611b8a6128ba565b60200101906001600160f81b031916908160001a90535060049490941c93611bb181612a73565b9050611b43565b5083156109035760405162461bcd60e51b815260206004820181905260248201527f537472696e67733a20686578206c656e67746820696e73756666696369656e74604482015260640161085b565b600080825160411415611c3e5760208301516040840151606085015160001a611c3287828585612045565b94509450505050611c70565b825160401415611c685760208301516040840151611c5d868383612132565b935093505050611c70565b506000905060025b9250929050565b6000816004811115611c8b57611c8b612aa2565b1415611c945750565b6001816004811115611ca857611ca8612aa2565b1415611cf65760405162461bcd60e51b815260206004820152601860248201527f45434453413a20696e76616c6964207369676e61747572650000000000000000604482015260640161085b565b6002816004811115611d0a57611d0a612aa2565b1415611d585760405162461bcd60e51b815260206004820152601f60248201527f45434453413a20696e76616c6964207369676e6174757265206c656e67746800604482015260640161085b565b6003816004811115611d6c57611d6c612aa2565b1415611dc55760405162461bcd60e51b815260206004820152602260248201527f45434453413a20696e76616c6964207369676e6174757265202773272076616c604482015261756560f01b606482015260840161085b565b6004816004811115611dd957611dd9612aa2565b1415611e325760405162461bcd60e51b815260206004820152602260248201527f45434453413a20696e76616c6964207369676e6174757265202776272076616c604482015261756560f01b606482015260840161085b565b50565b80516a636f6e736f6c652e6c6f67602083016000808483855afa5050505050565b6000611eab826040518060400160405280602081526020017f5361666545524332303a206c6f772d6c6576656c2063616c6c206661696c6564815250856001600160a01b0316611a5c9092919063ffffffff16565b8051909150156105d25780806020019051810190611ec9919061289d565b6105d25760405162461bcd60e51b815260206004820152602a60248201527f5361666545524332303a204552433230206f7065726174696f6e20646964206e6044820152691bdd081cdd58d8d9595960b21b606482015260840161085b565b606082471015611f895760405162461bcd60e51b815260206004820152602660248201527f416464726573733a20696e73756666696369656e742062616c616e636520666f6044820152651c8818d85b1b60d21b606482015260840161085b565b843b611fd75760405162461bcd60e51b815260206004820152601d60248201527f416464726573733a2063616c6c20746f206e6f6e2d636f6e7472616374000000604482015260640161085b565b600080866001600160a01b03168587604051611ff39190612ab8565b60006040518083038185875af1925050503d8060008114612030576040519150601f19603f3d011682016040523d82523d6000602084013e612035565b606091505b5091509150610b6f828286612161565b6000807f7fffffffffffffffffffffffffffffff5d576e7357a4501ddfe92f46681b20a083111561207c5750600090506003612129565b8460ff16601b1415801561209457508460ff16601c14155b156120a55750600090506004612129565b6040805160008082526020820180845289905260ff881692820192909252606081018690526080810185905260019060a0016020604051602081039080840390855afa1580156120f9573d6000803e3d6000fd5b5050604051601f1901519150506001600160a01b03811661212257600060019250925050612129565b9150600090505b94509492505050565b6000806001600160ff1b03831660ff84901c601b0161215387828885612045565b935093505050935093915050565b60608315612170575081610903565b8251156121805782518084602001fd5b8160405162461bcd60e51b815260040161085b9190612a14565b6000602082840312156121ac57600080fd5b81356001600160e01b03198116811461090357600080fd5b600080604083850312156121d757600080fd5b50508035926020909101359150565b6000602082840312156121f857600080fd5b5035919050565b8015158114611e3257600080fd5b6000806040838503121561222057600080fd5b823591506020830135612232816121ff565b809150509250929050565b6001600160a01b0381168114611e3257600080fd5b6000806040838503121561226557600080fd5b8235915060208301356122328161223d565b634e487b7160e01b600052604160045260246000fd5b600082601f83011261229e57600080fd5b813567ffffffffffffffff808211156122b9576122b9612277565b604051601f8301601f19908116603f011681019082821181831017156122e1576122e1612277565b816040528381528660208588010111156122fa57600080fd5b836020870160208301376000602085830101528094505050505092915050565b600080600080600060a0868803121561233257600080fd5b853561233d8161223d565b9450602086013593506040860135925060608601359150608086013567ffffffffffffffff81111561236e57600080fd5b61237a8882890161228d565b9150509295509295909350565b60008060006060848603121561239c57600080fd5b83356123a78161223d565b95602085013595506040909401359392505050565b600080600080608085870312156123d257600080fd5b843593506020850135925060408501359150606085013567ffffffffffffffff8111156123fe57600080fd5b61240a8782880161228d565b91505092959194509250565b60006020828403121561242857600080fd5b81356109038161223d565b60008083601f84011261244557600080fd5b50813567ffffffffffffffff81111561245d57600080fd5b602083019150836020828501011115611c7057600080fd5b6000806000806060858703121561248b57600080fd5b8435935060208501359250604085013567ffffffffffffffff8111156124b057600080fd5b6124bc87828801612433565b95989497509550505050565b600080600080600060a086880312156124e057600080fd5b85356124eb8161223d565b97602087013597506040870135966060810135965060800135945092505050565b6000806000806080858703121561252257600080fd5b843561252d8161223d565b966020860135965060408601359560600135945092505050565b6000806040838503121561255a57600080fd5b82356125658161223d565b91506020830135612232816121ff565b60008083601f84011261258757600080fd5b50813567ffffffffffffffff81111561259f57600080fd5b6020830191508360208260051b8501011115611c7057600080fd5b60008060008060008060008060a0898b0312156125d657600080fd5b88356125e18161223d565b975060208901356125f18161223d565b9650604089013567ffffffffffffffff8082111561260e57600080fd5b61261a8c838d01612575565b909850965060608b013591508082111561263357600080fd5b61263f8c838d01612575565b909650945060808b013591508082111561265857600080fd5b506126658b828c01612433565b999c989b5096995094979396929594505050565b602080825282518282018190526000919060409081850190868401855b828110156126c457815180516001600160a01b03168552860151868501529284019290850190600101612696565b5091979650505050505050565b6000806000806000608086880312156126e957600080fd5b853594506020860135935060408601356127028161223d565b9250606086013567ffffffffffffffff81111561271e57600080fd5b61272a88828901612433565b969995985093965092949392505050565b60008060006060848603121561275057600080fd5b833561275b8161223d565b9250602084013561276b8161223d565b929592945050506040919091013590565b60008060008060008060a0878903121561279557600080fd5b86356127a08161223d565b955060208701356127b08161223d565b94506040870135935060608701359250608087013567ffffffffffffffff8111156127da57600080fd5b6127e689828a01612433565b979a9699509497509295939492505050565b631b5a5b9d60e21b815260609490941b6bffffffffffffffffffffffff1916600485015260188401929092526038830152605882015260780190565b60006020828403121561284657600080fd5b81516109038161223d565b634e487b7160e01b600052601160045260246000fd5b60008282101561287957612879612851565b500390565b600081600019048311821515161561289857612898612851565b500290565b6000602082840312156128af57600080fd5b8151610903816121ff565b634e487b7160e01b600052603260045260246000fd5b60006000198214156128e4576128e4612851565b5060010190565b6001600160a01b03878116825286166020820152604081018590526060810184905260a06080820181905281018290526000828460c0840137600060c0848401015260c0601f19601f8501168301019050979650505050505050565b60005b8381101561296257818101518382015260200161294a565b838111156109955750506000910152565b7f416363657373436f6e74726f6c3a206163636f756e74200000000000000000008152600083516129ab816017850160208801612947565b7001034b99036b4b9b9b4b733903937b6329607d1b60179184019182015283516129dc816028840160208801612947565b01602801949350505050565b60008151808452612a00816020860160208601612947565b601f01601f19169290920160200192915050565b60208152600061090360208301846129e8565b604081526000612a3a60408301856129e8565b905060018060a01b03831660208301529392505050565b604081526000612a6460408301856129e8565b90508260208301529392505050565b600081612a8257612a82612851565b506000190190565b60008219821115612a9d57612a9d612851565b500190565b634e487b7160e01b600052602160045260246000fd5b60008251612aca818460208701612947565b919091019291505056fe9f2df0fed2c77648de5860a4cc508cd0818c85b8b8a1ab4ceeef8d981c8956a6a2646970667358221220420ff3a88edd7e05b9f5a0a23ba53663c9bb19b3c84440f00029e477e2e9087a64736f6c63430008090033",
  "linkReferences": {},
  "deployedLinkReferences": {}
}