{
  "_format": "hh-sol-artifact-1",
  "contractName": "CashCowsGame",
  "sourceName": "contracts/phase4/CashCowsGame.sol",
  "abi": [
    {
      "inputs": [
        {
          "internalType": "address",
          "name": "admin",
          "type": "address"
        }
      ],
      "stateMutability": "nonpayable",
      "type": "constructor"
    },
    {
      "inputs": [],
      "name": "InvalidCall",
      "type": "error"
    },
    {
      "anonymous": false,
      "inputs": [
        {
          "indexed": false,
          "internalType": "uint256",
          "name": "characterId",
          "type": "uint256"
        },
        {
          "indexed": false,
          "internalType": "uint256",
          "name": "itemId",
          "type": "uint256"
        },
        {
          "indexed": false,
          "internalType": "uint256",
          "name": "amount",
          "type": "uint256"
        }
      ],
      "name": "Attached",
      "type": "event"
    },
    {
      "anonymous": false,
      "inputs": [
        {
          "indexed": false,
          "internalType": "uint256",
          "name": "characterId",
          "type": "uint256"
        },
        {
          "indexed": false,
          "internalType": "uint256",
          "name": "itemId",
          "type": "uint256"
        },
        {
          "indexed": false,
          "internalType": "uint256",
          "name": "amount",
          "type": "uint256"
        }
      ],
      "name": "Detached",
      "type": "event"
    },
    {
      "anonymous": false,
      "inputs": [
        {
          "indexed": true,
          "internalType": "bytes32",
          "name": "role",
          "type": "bytes32"
        },
        {
          "indexed": true,
          "internalType": "bytes32",
          "name": "previousAdminRole",
          "type": "bytes32"
        },
        {
          "indexed": true,
          "internalType": "bytes32",
          "name": "newAdminRole",
          "type": "bytes32"
        }
      ],
      "name": "RoleAdminChanged",
      "type": "event"
    },
    {
      "anonymous": false,
      "inputs": [
        {
          "indexed": true,
          "internalType": "bytes32",
          "name": "role",
          "type": "bytes32"
        },
        {
          "indexed": true,
          "internalType": "address",
          "name": "account",
          "type": "address"
        },
        {
          "indexed": true,
          "internalType": "address",
          "name": "sender",
          "type": "address"
        }
      ],
      "name": "RoleGranted",
      "type": "event"
    },
    {
      "anonymous": false,
      "inputs": [
        {
          "indexed": true,
          "internalType": "bytes32",
          "name": "role",
          "type": "bytes32"
        },
        {
          "indexed": true,
          "internalType": "address",
          "name": "account",
          "type": "address"
        },
        {
          "indexed": true,
          "internalType": "address",
          "name": "sender",
          "type": "address"
        }
      ],
      "name": "RoleRevoked",
      "type": "event"
    },
    {
      "inputs": [],
      "name": "DEFAULT_ADMIN_ROLE",
      "outputs": [
        {
          "internalType": "bytes32",
          "name": "",
          "type": "bytes32"
        }
      ],
      "stateMutability": "view",
      "type": "function"
    },
    {
      "inputs": [
        {
          "internalType": "uint256",
          "name": "characterId",
          "type": "uint256"
        },
        {
          "internalType": "uint256",
          "name": "itemId",
          "type": "uint256"
        },
        {
          "internalType": "uint256",
          "name": "amount",
          "type": "uint256"
        },
        {
          "internalType": "bytes",
          "name": "data",
          "type": "bytes"
        }
      ],
      "name": "attach",
      "outputs": [],
      "stateMutability": "nonpayable",
      "type": "function"
    },
    {
      "inputs": [
        {
          "internalType": "uint256",
          "name": "characterId",
          "type": "uint256"
        },
        {
          "internalType": "uint256",
          "name": "itemId",
          "type": "uint256"
        }
      ],
      "name": "balanceOf",
      "outputs": [
        {
          "internalType": "uint256",
          "name": "",
          "type": "uint256"
        }
      ],
      "stateMutability": "view",
      "type": "function"
    },
    {
      "inputs": [
        {
          "internalType": "contract IERC20",
          "name": "token",
          "type": "address"
        },
        {
          "internalType": "bool",
          "name": "burnable",
          "type": "bool"
        }
      ],
      "name": "burnTokens",
      "outputs": [],
      "stateMutability": "nonpayable",
      "type": "function"
    },
    {
      "inputs": [
        {
          "internalType": "uint256",
          "name": "characterId",
          "type": "uint256"
        },
        {
          "internalType": "uint256",
          "name": "itemId",
          "type": "uint256"
        },
        {
          "internalType": "uint256",
          "name": "amount",
          "type": "uint256"
        },
        {
          "internalType": "bytes",
          "name": "data",
          "type": "bytes"
        }
      ],
      "name": "deatach",
      "outputs": [],
      "stateMutability": "nonpayable",
      "type": "function"
    },
    {
      "inputs": [
        {
          "internalType": "bool",
          "name": "yes",
          "type": "bool"
        }
      ],
      "name": "deatachable",
      "outputs": [],
      "stateMutability": "nonpayable",
      "type": "function"
    },
    {
      "inputs": [
        {
          "internalType": "uint256",
          "name": "characterId",
          "type": "uint256"
        },
        {
          "internalType": "uint256",
          "name": "itemId",
          "type": "uint256"
        },
        {
          "internalType": "uint256",
          "name": "amount",
          "type": "uint256"
        },
        {
          "internalType": "address",
          "name": "to",
          "type": "address"
        },
        {
          "internalType": "bytes",
          "name": "data",
          "type": "bytes"
        }
      ],
      "name": "detach",
      "outputs": [],
      "stateMutability": "nonpayable",
      "type": "function"
    },
    {
      "inputs": [
        {
          "internalType": "bytes32",
          "name": "role",
          "type": "bytes32"
        }
      ],
      "name": "getRoleAdmin",
      "outputs": [
        {
          "internalType": "bytes32",
          "name": "",
          "type": "bytes32"
        }
      ],
      "stateMutability": "view",
      "type": "function"
    },
    {
      "inputs": [
        {
          "internalType": "bytes32",
          "name": "role",
          "type": "bytes32"
        },
        {
          "internalType": "address",
          "name": "account",
          "type": "address"
        }
      ],
      "name": "grantRole",
      "outputs": [],
      "stateMutability": "nonpayable",
      "type": "function"
    },
    {
      "inputs": [
        {
          "internalType": "bytes32",
          "name": "role",
          "type": "bytes32"
        },
        {
          "internalType": "address",
          "name": "account",
          "type": "address"
        }
      ],
      "name": "hasRole",
      "outputs": [
        {
          "internalType": "bool",
          "name": "",
          "type": "bool"
        }
      ],
      "stateMutability": "view",
      "type": "function"
    },
    {
      "inputs": [
        {
          "internalType": "uint256",
          "name": "characterId",
          "type": "uint256"
        },
        {
          "internalType": "contract IERC1155Mintable",
          "name": "store",
          "type": "address"
        },
        {
          "internalType": "uint256",
          "name": "itemId",
          "type": "uint256"
        },
        {
          "internalType": "address",
          "name": "token",
          "type": "address"
        },
        {
          "internalType": "uint256",
          "name": "price",
          "type": "uint256"
        },
        {
          "internalType": "uint256",
          "name": "amount",
          "type": "uint256"
        },
        {
          "internalType": "bytes",
          "name": "proof",
          "type": "bytes"
        }
      ],
      "name": "mint",
      "outputs": [],
      "stateMutability": "nonpayable",
      "type": "function"
    },
    {
      "inputs": [
        {
          "internalType": "uint256",
          "name": "characterId",
          "type": "uint256"
        },
        {
          "internalType": "contract IERC1155Mintable",
          "name": "store",
          "type": "address"
        },
        {
          "internalType": "uint256",
          "name": "itemId",
          "type": "uint256"
        },
        {
          "internalType": "uint256",
          "name": "amount",
          "type": "uint256"
        }
      ],
      "name": "mint",
      "outputs": [],
      "stateMutability": "nonpayable",
      "type": "function"
    },
    {
      "inputs": [
        {
          "internalType": "uint256",
          "name": "characterId",
          "type": "uint256"
        },
        {
          "internalType": "contract IERC1155Mintable",
          "name": "store",
          "type": "address"
        },
        {
          "internalType": "uint256",
          "name": "itemId",
          "type": "uint256"
        },
        {
          "internalType": "uint256",
          "name": "price",
          "type": "uint256"
        },
        {
          "internalType": "uint256",
          "name": "amount",
          "type": "uint256"
        },
        {
          "internalType": "bytes",
          "name": "proof",
          "type": "bytes"
        }
      ],
      "name": "mint",
      "outputs": [],
      "stateMutability": "payable",
      "type": "function"
    },
    {
      "inputs": [
        {
          "internalType": "address",
          "name": "",
          "type": "address"
        },
        {
          "internalType": "address",
          "name": "",
          "type": "address"
        },
        {
          "internalType": "uint256[]",
          "name": "",
          "type": "uint256[]"
        },
        {
          "internalType": "uint256[]",
          "name": "",
          "type": "uint256[]"
        },
        {
          "internalType": "bytes",
          "name": "",
          "type": "bytes"
        }
      ],
      "name": "onERC1155BatchReceived",
      "outputs": [
        {
          "internalType": "bytes4",
          "name": "",
          "type": "bytes4"
        }
      ],
      "stateMutability": "pure",
      "type": "function"
    },
    {
      "inputs": [
        {
          "internalType": "address",
          "name": "",
          "type": "address"
        },
        {
          "internalType": "address",
          "name": "",
          "type": "address"
        },
        {
          "internalType": "uint256",
          "name": "",
          "type": "uint256"
        },
        {
          "internalType": "uint256",
          "name": "",
          "type": "uint256"
        },
        {
          "internalType": "bytes",
          "name": "",
          "type": "bytes"
        }
      ],
      "name": "onERC1155Received",
      "outputs": [
        {
          "internalType": "bytes4",
          "name": "",
          "type": "bytes4"
        }
      ],
      "stateMutability": "pure",
      "type": "function"
    },
    {
      "inputs": [
        {
          "internalType": "bytes32",
          "name": "role",
          "type": "bytes32"
        },
        {
          "internalType": "address",
          "name": "account",
          "type": "address"
        }
      ],
      "name": "renounceRole",
      "outputs": [],
      "stateMutability": "nonpayable",
      "type": "function"
    },
    {
      "inputs": [
        {
          "internalType": "bytes32",
          "name": "role",
          "type": "bytes32"
        },
        {
          "internalType": "address",
          "name": "account",
          "type": "address"
        }
      ],
      "name": "revokeRole",
      "outputs": [],
      "stateMutability": "nonpayable",
      "type": "function"
    },
    {
      "inputs": [
        {
          "internalType": "bytes4",
          "name": "interfaceId",
          "type": "bytes4"
        }
      ],
      "name": "supportsInterface",
      "outputs": [
        {
          "internalType": "bool",
          "name": "",
          "type": "bool"
        }
      ],
      "stateMutability": "view",
      "type": "function"
    },
    {
      "inputs": [
        {
          "internalType": "address",
          "name": "recipient",
          "type": "address"
        }
      ],
      "name": "withdraw",
      "outputs": [],
      "stateMutability": "nonpayable",
      "type": "function"
    },
    {
      "inputs": [
        {
          "internalType": "contract IERC20",
          "name": "erc20",
          "type": "address"
        },
        {
          "internalType": "address",
          "name": "recipient",
          "type": "address"
        },
        {
          "internalType": "uint256",
          "name": "amount",
          "type": "uint256"
        }
      ],
      "name": "withdraw",
      "outputs": [],
      "stateMutability": "nonpayable",
      "type": "function"
    }
  ],
  "bytecode": "0x60806040523480156200001157600080fd5b5060405162002230380380620022308339810160408190526200003491620000e6565b600160009081556200004790826200004e565b5062000118565b6200005a82826200005e565b5050565b60008281526001602090815260408083206001600160a01b038516845290915290205460ff166200005a5760008281526001602081815260408084206001600160a01b0386168086529252808420805460ff19169093179092559051339285917f2f8788117e7eff1d82e926ec794901d17c78024a50270940304540a733656f0d9190a45050565b600060208284031215620000f957600080fd5b81516001600160a01b03811681146200011157600080fd5b9392505050565b61210880620001286000396000f3fe60806040526004361061011f5760003560e01c8063a217fddf116100a0578063c9580bca11610064578063c9580bca14610357578063d547741f1461036a578063d9caed121461038a578063ea699633146103aa578063f23a6e61146103e157600080fd5b8063a217fddf1461029a578063a930520d146102af578063bc197c81146102cf578063bf2c8a9414610317578063c528fa631461033757600080fd5b80632f2ff15d116100e75780632f2ff15d146101fa57806336568abe1461021a57806351cff8d91461023a57806390e640e11461025a57806391d148541461027a57600080fd5b806301ffc9a7146101245780630759c5a2146101595780631cfd8bd11461017b578063248a9ca31461019b5780632d10a380146101da575b600080fd5b34801561013057600080fd5b5061014461013f366004611901565b61040e565b60405190151581526020015b60405180910390f35b34801561016557600080fd5b506101796101743660046119e3565b610445565b005b34801561018757600080fd5b50610179610196366004611aae565b6106a4565b3480156101a757600080fd5b506101cc6101b6366004611b0f565b6000908152600160208190526040909120015490565b604051908152602001610150565b3480156101e657600080fd5b506101796101f5366004611b28565b61079c565b34801561020657600080fd5b50610179610215366004611b9b565b6107e9565b34801561022657600080fd5b50610179610235366004611b9b565b610815565b34801561024657600080fd5b50610179610255366004611bcb565b610898565b34801561026657600080fd5b50610179610275366004611bf6565b61092e565b34801561028657600080fd5b50610144610295366004611b9b565b61096d565b3480156102a657600080fd5b506101cc600081565b3480156102bb57600080fd5b506101796102ca366004611aae565b610998565b3480156102db57600080fd5b506102fe6102ea366004611c58565b63bc197c8160e01b98975050505050505050565b6040516001600160e01b03199091168152602001610150565b34801561032357600080fd5b50610179610332366004611d17565b610a60565b34801561034357600080fd5b50610179610352366004611d54565b610a9e565b610179610365366004611d82565b610af5565b34801561037657600080fd5b50610179610385366004611b9b565b610bb8565b34801561039657600080fd5b506101796103a5366004611df7565b610bdf565b3480156103b657600080fd5b506101cc6103c5366004611e38565b6000908152600260209081526040808320938352929052205490565b3480156103ed57600080fd5b506102fe6103fc366004611e5a565b63f23a6e6160e01b9695505050505050565b60006001600160e01b03198216637965db0b60e01b148061043f57506301ffc9a760e01b6001600160e01b03198316145b92915050565b82158061052f5750604051631b5a5b9d60e21b60208201526bffffffffffffffffffffffff19606088811b82166024840152603883018a90526058830188905286901b166078820152608c810184905261052d907f9f2df0fed2c77648de5860a4cc508cd0818c85b8b8a1ab4ceeef8d981c8956a690610295906105279060ac015b60408051601f1981840301815282825280516020918201207f19457468657265756d205369676e6564204d6573736167653a0a33320000000084830152603c8085019190915282518085039091018152605c909301909152815191012090565b84610c78565b155b1561054d5760405163574b16a760e11b815260040160405180910390fd5b6001600160a01b03841660009081526003602052604090205460ff16156105eb576001600160a01b0384166379cc6790336105888587611ece565b6040516001600160e01b031960e085901b1681526001600160a01b0390921660048301526024820152604401600060405180830381600087803b1580156105ce57600080fd5b505af11580156105e2573d6000803e3d6000fd5b5050505061068f565b6001600160a01b0384166323b872dd33306106068688611ece565b6040516001600160e01b031960e086901b1681526001600160a01b0393841660048201529290911660248301526044820152606401602060405180830381600087803b15801561065557600080fd5b505af1158015610669573d6000803e3d6000fd5b505050506040513d601f19601f8201168201806040525081019061068d9190611eed565b505b61069b87878785610c9c565b50505050505050565b6000806106b086610d47565b91509150816001600160a01b031663f242432a6106ca3390565b30848989896040518763ffffffff1660e01b81526004016106f096959493929190611f0a565b600060405180830381600087803b15801561070a57600080fd5b505af115801561071e573d6000803e3d6000fd5b50505060008781526002602090815260408083208b84529091528120805488935090919061074d908490611f66565b909155505060408051888152602081018890529081018690527f641f7a92d75dc3fff7cba72f35e4a1a9fb9b770adfa6efc465ce85b6b5b8bec49060600160405180910390a150505050505050565b60045460ff166107bf5760405163574b16a760e11b815260040160405180910390fd5b6000806107cb87610d47565b915091506107df82828a8a8a8a8a8a610d67565b5050505050505050565b600082815260016020819052604090912001546108068133610f29565b6108108383610f8d565b505050565b6001600160a01b038116331461088a5760405162461bcd60e51b815260206004820152602f60248201527f416363657373436f6e74726f6c3a2063616e206f6e6c792072656e6f756e636560448201526e103937b632b9903337b91039b2b63360891b60648201526084015b60405180910390fd5b6108948282610ff8565b5050565b600260005414156108eb5760405162461bcd60e51b815260206004820152601f60248201527f5265656e7472616e637947756172643a207265656e7472616e742063616c6c006044820152606401610881565b60026000557f0914bb97ca83e85ef385857d9d418f187ff630589e0c9f44db92976d8e4519cb61091b8133610f29565b610925824761105f565b50506001600055565b7f850d585eb7f024ccee5e68e55f2c26cc72e1e6ee456acf62135757a5eb9d4a106109598133610f29565b506004805460ff1916911515919091179055565b60009182526001602090815260408084206001600160a01b0393909316845291905290205460ff1690565b7f850d585eb7f024ccee5e68e55f2c26cc72e1e6ee456acf62135757a5eb9d4a106109c38133610f29565b6000806109cf87610d47565b915091506107df82828a8a8a876001600160a01b0316636352211e886040518263ffffffff1660e01b8152600401610a0991815260200190565b60206040518083038186803b158015610a2157600080fd5b505afa158015610a35573d6000803e3d6000fd5b505050506040513d601f19601f82011682018060405250810190610a599190611f7e565b8b8b610d67565b7f9f2df0fed2c77648de5860a4cc508cd0818c85b8b8a1ab4ceeef8d981c8956a6610a8b8133610f29565b610a9785858585610c9c565b5050505050565b7f850d585eb7f024ccee5e68e55f2c26cc72e1e6ee456acf62135757a5eb9d4a10610ac98133610f29565b506001600160a01b03919091166000908152600360205260409020805460ff1916911515919091179055565b821580610b0a5750610b078284611ece565b34105b80610b865750604051631b5a5b9d60e21b60208201526bffffffffffffffffffffffff19606087901b166024820152603881018790526058810185905260788101849052610b84907f9f2df0fed2c77648de5860a4cc508cd0818c85b8b8a1ab4ceeef8d981c8956a69061029590610527906098016104c7565b155b15610ba45760405163574b16a760e11b815260040160405180910390fd5b610bb086868685610c9c565b505050505050565b60008281526001602081905260409091200154610bd58133610f29565b6108108383610ff8565b60026000541415610c325760405162461bcd60e51b815260206004820152601f60248201527f5265656e7472616e637947756172643a207265656e7472616e742063616c6c006044820152606401610881565b60026000557f0914bb97ca83e85ef385857d9d418f187ff630589e0c9f44db92976d8e4519cb610c628133610f29565b610c6d848484611178565b505060016000555050565b6000806000610c8785856111ca565b91509150610c948161123a565b509392505050565b60405163731133e960e01b8152306004820152602481018390526044810182905260806064820152600060848201526001600160a01b0384169063731133e99060a401600060405180830381600087803b158015610cf957600080fd5b505af1158015610d0d573d6000803e3d6000fd5b505050600083815260026020908152604080832088845290915281208054849350909190610d3c908490611f66565b909155505050505050565b6000806001600160a01b038316610d5e8460a01c90565b91509150915091565b6000858152600260209081526040808320898452909152902054841115610da15760405163574b16a760e11b815260040160405180910390fd5b336040516331a9108f60e11b8152600481018990526001600160a01b03918216918a1690636352211e9060240160206040518083038186803b158015610de657600080fd5b505afa158015610dfa573d6000803e3d6000fd5b505050506040513d601f19601f82011682018060405250810190610e1e9190611f7e565b6001600160a01b031614610e455760405163574b16a760e11b815260040160405180910390fd5b600080610e5187610d47565b604051637921219560e11b815291935091506001600160a01b0383169063f242432a90610e8c903090899086908c908b908b90600401611f0a565b600060405180830381600087803b158015610ea657600080fd5b505af1158015610eba573d6000803e3d6000fd5b50505060008881526002602090815260408083208c845282529182902080548a9003905581518b81529081018a90529081018890527fca70a58aeb5440d2e836e1320d593c30b769a28b7e8f8008909ad66c6fc582cc915060600160405180910390a150505050505050505050565b610f33828261096d565b61089457610f4b816001600160a01b031660146113f8565b610f568360206113f8565b604051602001610f67929190611fcb565b60408051601f198184030181529082905262461bcd60e51b825261088191600401612040565b610f97828261096d565b6108945760008281526001602081815260408084206001600160a01b0386168086529252808420805460ff19169093179092559051339285917f2f8788117e7eff1d82e926ec794901d17c78024a50270940304540a733656f0d9190a45050565b611002828261096d565b156108945760008281526001602090815260408083206001600160a01b0385168085529252808320805460ff1916905551339285917ff6391f5c32d9c69d2a47ea670b442974b53935d1edc7fd64eb21e047a839171b9190a45050565b804710156110af5760405162461bcd60e51b815260206004820152601d60248201527f416464726573733a20696e73756666696369656e742062616c616e63650000006044820152606401610881565b6000826001600160a01b03168260405160006040518083038185875af1925050503d80600081146110fc576040519150601f19603f3d011682016040523d82523d6000602084013e611101565b606091505b50509050806108105760405162461bcd60e51b815260206004820152603a60248201527f416464726573733a20756e61626c6520746f2073656e642076616c75652c207260448201527f6563697069656e74206d617920686176652072657665727465640000000000006064820152608401610881565b604080516001600160a01b038416602482015260448082018490528251808303909101815260649091019091526020810180516001600160e01b031663a9059cbb60e01b17905261081090849061159b565b6000808251604114156112015760208301516040840151606085015160001a6111f58782858561166d565b94509450505050611233565b82516040141561122b576020830151604084015161122086838361175a565b935093505050611233565b506000905060025b9250929050565b600081600481111561124e5761124e612073565b14156112575750565b600181600481111561126b5761126b612073565b14156112b95760405162461bcd60e51b815260206004820152601860248201527f45434453413a20696e76616c6964207369676e617475726500000000000000006044820152606401610881565b60028160048111156112cd576112cd612073565b141561131b5760405162461bcd60e51b815260206004820152601f60248201527f45434453413a20696e76616c6964207369676e6174757265206c656e677468006044820152606401610881565b600381600481111561132f5761132f612073565b14156113885760405162461bcd60e51b815260206004820152602260248201527f45434453413a20696e76616c6964207369676e6174757265202773272076616c604482015261756560f01b6064820152608401610881565b600481600481111561139c5761139c612073565b14156113f55760405162461bcd60e51b815260206004820152602260248201527f45434453413a20696e76616c6964207369676e6174757265202776272076616c604482015261756560f01b6064820152608401610881565b50565b60606000611407836002611ece565b611412906002611f66565b67ffffffffffffffff81111561142a5761142a611940565b6040519080825280601f01601f191660200182016040528015611454576020820181803683370190505b509050600360fc1b8160008151811061146f5761146f612089565b60200101906001600160f81b031916908160001a905350600f60fb1b8160018151811061149e5761149e612089565b60200101906001600160f81b031916908160001a90535060006114c2846002611ece565b6114cd906001611f66565b90505b6001811115611545576f181899199a1a9b1b9c1cb0b131b232b360811b85600f166010811061150157611501612089565b1a60f81b82828151811061151757611517612089565b60200101906001600160f81b031916908160001a90535060049490941c9361153e8161209f565b90506114d0565b5083156115945760405162461bcd60e51b815260206004820181905260248201527f537472696e67733a20686578206c656e67746820696e73756666696369656e746044820152606401610881565b9392505050565b60006115f0826040518060400160405280602081526020017f5361666545524332303a206c6f772d6c6576656c2063616c6c206661696c6564815250856001600160a01b03166117899092919063ffffffff16565b805190915015610810578080602001905181019061160e9190611eed565b6108105760405162461bcd60e51b815260206004820152602a60248201527f5361666545524332303a204552433230206f7065726174696f6e20646964206e6044820152691bdd081cdd58d8d9595960b21b6064820152608401610881565b6000807f7fffffffffffffffffffffffffffffff5d576e7357a4501ddfe92f46681b20a08311156116a45750600090506003611751565b8460ff16601b141580156116bc57508460ff16601c14155b156116cd5750600090506004611751565b6040805160008082526020820180845289905260ff881692820192909252606081018690526080810185905260019060a0016020604051602081039080840390855afa158015611721573d6000803e3d6000fd5b5050604051601f1901519150506001600160a01b03811661174a57600060019250925050611751565b9150600090505b94509492505050565b6000806001600160ff1b03831660ff84901c601b0161177b8782888561166d565b935093505050935093915050565b606061179884846000856117a0565b949350505050565b6060824710156118015760405162461bcd60e51b815260206004820152602660248201527f416464726573733a20696e73756666696369656e742062616c616e636520666f6044820152651c8818d85b1b60d21b6064820152608401610881565b843b61184f5760405162461bcd60e51b815260206004820152601d60248201527f416464726573733a2063616c6c20746f206e6f6e2d636f6e74726163740000006044820152606401610881565b600080866001600160a01b0316858760405161186b91906120b6565b60006040518083038185875af1925050503d80600081146118a8576040519150601f19603f3d011682016040523d82523d6000602084013e6118ad565b606091505b50915091506118bd8282866118c8565b979650505050505050565b606083156118d7575081611594565b8251156118e75782518084602001fd5b8160405162461bcd60e51b81526004016108819190612040565b60006020828403121561191357600080fd5b81356001600160e01b03198116811461159457600080fd5b6001600160a01b03811681146113f557600080fd5b634e487b7160e01b600052604160045260246000fd5b600082601f83011261196757600080fd5b813567ffffffffffffffff8082111561198257611982611940565b604051601f8301601f19908116603f011681019082821181831017156119aa576119aa611940565b816040528381528660208588010111156119c357600080fd5b836020870160208301376000602085830101528094505050505092915050565b600080600080600080600060e0888a0312156119fe57600080fd5b873596506020880135611a108161192b565b9550604088013594506060880135611a278161192b565b93506080880135925060a0880135915060c088013567ffffffffffffffff811115611a5157600080fd5b611a5d8a828b01611956565b91505092959891949750929550565b60008083601f840112611a7e57600080fd5b50813567ffffffffffffffff811115611a9657600080fd5b60208301915083602082850101111561123357600080fd5b600080600080600060808688031215611ac657600080fd5b853594506020860135935060408601359250606086013567ffffffffffffffff811115611af257600080fd5b611afe88828901611a6c565b969995985093965092949392505050565b600060208284031215611b2157600080fd5b5035919050565b60008060008060008060a08789031215611b4157600080fd5b8635955060208701359450604087013593506060870135611b618161192b565b9250608087013567ffffffffffffffff811115611b7d57600080fd5b611b8989828a01611a6c565b979a9699509497509295939492505050565b60008060408385031215611bae57600080fd5b823591506020830135611bc08161192b565b809150509250929050565b600060208284031215611bdd57600080fd5b81356115948161192b565b80151581146113f557600080fd5b600060208284031215611c0857600080fd5b813561159481611be8565b60008083601f840112611c2557600080fd5b50813567ffffffffffffffff811115611c3d57600080fd5b6020830191508360208260051b850101111561123357600080fd5b60008060008060008060008060a0898b031215611c7457600080fd5b8835611c7f8161192b565b97506020890135611c8f8161192b565b9650604089013567ffffffffffffffff80821115611cac57600080fd5b611cb88c838d01611c13565b909850965060608b0135915080821115611cd157600080fd5b611cdd8c838d01611c13565b909650945060808b0135915080821115611cf657600080fd5b50611d038b828c01611a6c565b999c989b5096995094979396929594505050565b60008060008060808587031215611d2d57600080fd5b843593506020850135611d3f8161192b565b93969395505050506040820135916060013590565b60008060408385031215611d6757600080fd5b8235611d728161192b565b91506020830135611bc081611be8565b60008060008060008060c08789031215611d9b57600080fd5b863595506020870135611dad8161192b565b945060408701359350606087013592506080870135915060a087013567ffffffffffffffff811115611dde57600080fd5b611dea89828a01611956565b9150509295509295509295565b600080600060608486031215611e0c57600080fd5b8335611e178161192b565b92506020840135611e278161192b565b929592945050506040919091013590565b60008060408385031215611e4b57600080fd5b50508035926020909101359150565b60008060008060008060a08789031215611e7357600080fd5b8635611e7e8161192b565b95506020870135611e8e8161192b565b94506040870135935060608701359250608087013567ffffffffffffffff811115611b7d57600080fd5b634e487b7160e01b600052601160045260246000fd5b6000816000190483118215151615611ee857611ee8611eb8565b500290565b600060208284031215611eff57600080fd5b815161159481611be8565b6001600160a01b03878116825286166020820152604081018590526060810184905260a06080820181905281018290526000828460c0840137600060c0848401015260c0601f19601f8501168301019050979650505050505050565b60008219821115611f7957611f79611eb8565b500190565b600060208284031215611f9057600080fd5b81516115948161192b565b60005b83811015611fb6578181015183820152602001611f9e565b83811115611fc5576000848401525b50505050565b7f416363657373436f6e74726f6c3a206163636f756e7420000000000000000000815260008351612003816017850160208801611f9b565b7001034b99036b4b9b9b4b733903937b6329607d1b6017918401918201528351612034816028840160208801611f9b565b01602801949350505050565b602081526000825180602084015261205f816040850160208701611f9b565b601f01601f19169190910160400192915050565b634e487b7160e01b600052602160045260246000fd5b634e487b7160e01b600052603260045260246000fd5b6000816120ae576120ae611eb8565b506000190190565b600082516120c8818460208701611f9b565b919091019291505056fea2646970667358221220c840534d76ea418e00d0ea4608612606b31adad7d84c45d17d8c51e9918fe75a64736f6c63430008090033",
  "linkReferences": {},
  "deployedLinkReferences": {}
}