{
  "_format": "hh-sol-artifact-1",
  "contractName": "CashCowsGame",
  "sourceName": "contracts/phase4/CashCowsGame.sol",
  "abi": [
    {
      "inputs": [
        {
          "internalType": "address",
          "name": "admin",
          "type": "address"
        }
      ],
      "stateMutability": "nonpayable",
      "type": "constructor"
    },
    {
      "inputs": [],
      "name": "InvalidCall",
      "type": "error"
    },
    {
      "anonymous": false,
      "inputs": [
        {
          "indexed": false,
          "internalType": "uint256",
          "name": "characterId",
          "type": "uint256"
        },
        {
          "indexed": false,
          "internalType": "uint256",
          "name": "itemId",
          "type": "uint256"
        },
        {
          "indexed": false,
          "internalType": "uint256",
          "name": "amount",
          "type": "uint256"
        }
      ],
      "name": "Ejected",
      "type": "event"
    },
    {
      "anonymous": false,
      "inputs": [
        {
          "indexed": false,
          "internalType": "uint256",
          "name": "characterId",
          "type": "uint256"
        },
        {
          "indexed": false,
          "internalType": "uint256",
          "name": "itemId",
          "type": "uint256"
        },
        {
          "indexed": false,
          "internalType": "uint256",
          "name": "amount",
          "type": "uint256"
        }
      ],
      "name": "Injected",
      "type": "event"
    },
    {
      "anonymous": false,
      "inputs": [
        {
          "indexed": true,
          "internalType": "bytes32",
          "name": "role",
          "type": "bytes32"
        },
        {
          "indexed": true,
          "internalType": "bytes32",
          "name": "previousAdminRole",
          "type": "bytes32"
        },
        {
          "indexed": true,
          "internalType": "bytes32",
          "name": "newAdminRole",
          "type": "bytes32"
        }
      ],
      "name": "RoleAdminChanged",
      "type": "event"
    },
    {
      "anonymous": false,
      "inputs": [
        {
          "indexed": true,
          "internalType": "bytes32",
          "name": "role",
          "type": "bytes32"
        },
        {
          "indexed": true,
          "internalType": "address",
          "name": "account",
          "type": "address"
        },
        {
          "indexed": true,
          "internalType": "address",
          "name": "sender",
          "type": "address"
        }
      ],
      "name": "RoleGranted",
      "type": "event"
    },
    {
      "anonymous": false,
      "inputs": [
        {
          "indexed": true,
          "internalType": "bytes32",
          "name": "role",
          "type": "bytes32"
        },
        {
          "indexed": true,
          "internalType": "address",
          "name": "account",
          "type": "address"
        },
        {
          "indexed": true,
          "internalType": "address",
          "name": "sender",
          "type": "address"
        }
      ],
      "name": "RoleRevoked",
      "type": "event"
    },
    {
      "inputs": [],
      "name": "DEFAULT_ADMIN_ROLE",
      "outputs": [
        {
          "internalType": "bytes32",
          "name": "",
          "type": "bytes32"
        }
      ],
      "stateMutability": "view",
      "type": "function"
    },
    {
      "inputs": [
        {
          "internalType": "uint256",
          "name": "characterId",
          "type": "uint256"
        },
        {
          "internalType": "uint256",
          "name": "itemId",
          "type": "uint256"
        }
      ],
      "name": "balanceOf",
      "outputs": [
        {
          "internalType": "uint256",
          "name": "",
          "type": "uint256"
        }
      ],
      "stateMutability": "view",
      "type": "function"
    },
    {
      "inputs": [
        {
          "internalType": "contract IERC20",
          "name": "token",
          "type": "address"
        },
        {
          "internalType": "bool",
          "name": "burnable",
          "type": "bool"
        }
      ],
      "name": "burnTokens",
      "outputs": [],
      "stateMutability": "nonpayable",
      "type": "function"
    },
    {
      "inputs": [
        {
          "internalType": "uint256",
          "name": "characterId",
          "type": "uint256"
        },
        {
          "internalType": "uint256",
          "name": "itemId",
          "type": "uint256"
        },
        {
          "internalType": "uint256",
          "name": "amount",
          "type": "uint256"
        },
        {
          "internalType": "bytes",
          "name": "data",
          "type": "bytes"
        }
      ],
      "name": "eject",
      "outputs": [],
      "stateMutability": "nonpayable",
      "type": "function"
    },
    {
      "inputs": [
        {
          "internalType": "uint256",
          "name": "characterId",
          "type": "uint256"
        },
        {
          "internalType": "uint256",
          "name": "itemId",
          "type": "uint256"
        },
        {
          "internalType": "uint256",
          "name": "amount",
          "type": "uint256"
        },
        {
          "internalType": "address",
          "name": "to",
          "type": "address"
        },
        {
          "internalType": "bytes",
          "name": "data",
          "type": "bytes"
        }
      ],
      "name": "eject",
      "outputs": [],
      "stateMutability": "nonpayable",
      "type": "function"
    },
    {
      "inputs": [
        {
          "internalType": "bool",
          "name": "yes",
          "type": "bool"
        }
      ],
      "name": "ejectable",
      "outputs": [],
      "stateMutability": "nonpayable",
      "type": "function"
    },
    {
      "inputs": [
        {
          "internalType": "bytes32",
          "name": "role",
          "type": "bytes32"
        }
      ],
      "name": "getRoleAdmin",
      "outputs": [
        {
          "internalType": "bytes32",
          "name": "",
          "type": "bytes32"
        }
      ],
      "stateMutability": "view",
      "type": "function"
    },
    {
      "inputs": [
        {
          "internalType": "bytes32",
          "name": "role",
          "type": "bytes32"
        },
        {
          "internalType": "address",
          "name": "account",
          "type": "address"
        }
      ],
      "name": "grantRole",
      "outputs": [],
      "stateMutability": "nonpayable",
      "type": "function"
    },
    {
      "inputs": [
        {
          "internalType": "bytes32",
          "name": "role",
          "type": "bytes32"
        },
        {
          "internalType": "address",
          "name": "account",
          "type": "address"
        }
      ],
      "name": "hasRole",
      "outputs": [
        {
          "internalType": "bool",
          "name": "",
          "type": "bool"
        }
      ],
      "stateMutability": "view",
      "type": "function"
    },
    {
      "inputs": [
        {
          "internalType": "uint256",
          "name": "characterId",
          "type": "uint256"
        },
        {
          "internalType": "uint256",
          "name": "itemId",
          "type": "uint256"
        },
        {
          "internalType": "uint256",
          "name": "amount",
          "type": "uint256"
        },
        {
          "internalType": "bytes",
          "name": "data",
          "type": "bytes"
        }
      ],
      "name": "inject",
      "outputs": [],
      "stateMutability": "nonpayable",
      "type": "function"
    },
    {
      "inputs": [
        {
          "internalType": "uint256",
          "name": "characterId",
          "type": "uint256"
        },
        {
          "internalType": "uint256",
          "name": "itemId",
          "type": "uint256"
        },
        {
          "internalType": "uint256",
          "name": "amount",
          "type": "uint256"
        }
      ],
      "name": "mint",
      "outputs": [],
      "stateMutability": "nonpayable",
      "type": "function"
    },
    {
      "inputs": [
        {
          "internalType": "uint256",
          "name": "characterId",
          "type": "uint256"
        },
        {
          "internalType": "uint256",
          "name": "itemId",
          "type": "uint256"
        },
        {
          "internalType": "address",
          "name": "token",
          "type": "address"
        },
        {
          "internalType": "uint256",
          "name": "price",
          "type": "uint256"
        },
        {
          "internalType": "uint256",
          "name": "amount",
          "type": "uint256"
        },
        {
          "internalType": "bytes",
          "name": "proof",
          "type": "bytes"
        }
      ],
      "name": "mint",
      "outputs": [],
      "stateMutability": "nonpayable",
      "type": "function"
    },
    {
      "inputs": [
        {
          "internalType": "uint256",
          "name": "characterId",
          "type": "uint256"
        },
        {
          "internalType": "uint256",
          "name": "itemId",
          "type": "uint256"
        },
        {
          "internalType": "uint256",
          "name": "price",
          "type": "uint256"
        },
        {
          "internalType": "uint256",
          "name": "amount",
          "type": "uint256"
        },
        {
          "internalType": "bytes",
          "name": "proof",
          "type": "bytes"
        }
      ],
      "name": "mint",
      "outputs": [],
      "stateMutability": "payable",
      "type": "function"
    },
    {
      "inputs": [
        {
          "internalType": "address",
          "name": "",
          "type": "address"
        },
        {
          "internalType": "address",
          "name": "",
          "type": "address"
        },
        {
          "internalType": "uint256[]",
          "name": "",
          "type": "uint256[]"
        },
        {
          "internalType": "uint256[]",
          "name": "",
          "type": "uint256[]"
        },
        {
          "internalType": "bytes",
          "name": "",
          "type": "bytes"
        }
      ],
      "name": "onERC1155BatchReceived",
      "outputs": [
        {
          "internalType": "bytes4",
          "name": "",
          "type": "bytes4"
        }
      ],
      "stateMutability": "pure",
      "type": "function"
    },
    {
      "inputs": [
        {
          "internalType": "address",
          "name": "",
          "type": "address"
        },
        {
          "internalType": "address",
          "name": "",
          "type": "address"
        },
        {
          "internalType": "uint256",
          "name": "",
          "type": "uint256"
        },
        {
          "internalType": "uint256",
          "name": "",
          "type": "uint256"
        },
        {
          "internalType": "bytes",
          "name": "",
          "type": "bytes"
        }
      ],
      "name": "onERC1155Received",
      "outputs": [
        {
          "internalType": "bytes4",
          "name": "",
          "type": "bytes4"
        }
      ],
      "stateMutability": "pure",
      "type": "function"
    },
    {
      "inputs": [
        {
          "internalType": "bytes32",
          "name": "role",
          "type": "bytes32"
        },
        {
          "internalType": "address",
          "name": "account",
          "type": "address"
        }
      ],
      "name": "renounceRole",
      "outputs": [],
      "stateMutability": "nonpayable",
      "type": "function"
    },
    {
      "inputs": [
        {
          "internalType": "bytes32",
          "name": "role",
          "type": "bytes32"
        },
        {
          "internalType": "address",
          "name": "account",
          "type": "address"
        }
      ],
      "name": "revokeRole",
      "outputs": [],
      "stateMutability": "nonpayable",
      "type": "function"
    },
    {
      "inputs": [
        {
          "internalType": "uint256",
          "name": "characterId",
          "type": "uint256"
        },
        {
          "internalType": "uint256",
          "name": "itemId",
          "type": "uint256"
        },
        {
          "internalType": "uint256",
          "name": "amount",
          "type": "uint256"
        },
        {
          "internalType": "bytes",
          "name": "data",
          "type": "bytes"
        }
      ],
      "name": "safeInject",
      "outputs": [],
      "stateMutability": "nonpayable",
      "type": "function"
    },
    {
      "inputs": [
        {
          "internalType": "bytes4",
          "name": "interfaceId",
          "type": "bytes4"
        }
      ],
      "name": "supportsInterface",
      "outputs": [
        {
          "internalType": "bool",
          "name": "",
          "type": "bool"
        }
      ],
      "stateMutability": "view",
      "type": "function"
    },
    {
      "inputs": [
        {
          "internalType": "address",
          "name": "recipient",
          "type": "address"
        }
      ],
      "name": "withdraw",
      "outputs": [],
      "stateMutability": "nonpayable",
      "type": "function"
    },
    {
      "inputs": [
        {
          "internalType": "contract IERC20",
          "name": "erc20",
          "type": "address"
        },
        {
          "internalType": "address",
          "name": "recipient",
          "type": "address"
        },
        {
          "internalType": "uint256",
          "name": "amount",
          "type": "uint256"
        }
      ],
      "name": "withdraw",
      "outputs": [],
      "stateMutability": "nonpayable",
      "type": "function"
    }
  ],
  "bytecode": "0x60806040523480156200001157600080fd5b5060405162002335380380620023358339810160408190526200003491620000e6565b600160009081556200004790826200004e565b5062000118565b6200005a82826200005e565b5050565b60008281526001602090815260408083206001600160a01b038516845290915290205460ff166200005a5760008281526001602081815260408084206001600160a01b0386168086529252808420805460ff19169093179092559051339285917f2f8788117e7eff1d82e926ec794901d17c78024a50270940304540a733656f0d9190a45050565b600060208284031215620000f957600080fd5b81516001600160a01b03811681146200011157600080fd5b9392505050565b61220d80620001286000396000f3fe60806040526004361061012a5760003560e01c8063a217fddf116100ab578063d547741f1161006f578063d547741f14610362578063d9caed1214610382578063ea699633146103a2578063f23a6e61146103d9578063f7ce79e314610406578063f8ea8f161461042657600080fd5b8063a217fddf146102a5578063aa7360b1146102ba578063bc197c81146102da578063c17f0aa414610322578063c528fa631461034257600080fd5b80632a72b372116100f25780632a72b372146102055780632f2ff15d1461022557806336568abe1461024557806351cff8d91461026557806391d148541461028557600080fd5b806301ffc9a71461012f57806302acc94b1461016457806303d1e372146101865780630cadfb46146101a6578063248a9ca3146101c6575b600080fd5b34801561013b57600080fd5b5061014f61014a366004611a40565b610439565b60405190151581526020015b60405180910390f35b34801561017057600080fd5b5061018461017f366004611a6a565b610470565b005b34801561019257600080fd5b506101846101a1366004611b4e565b6104ac565b3480156101b257600080fd5b506101846101c1366004611c05565b6106ff565b3480156101d257600080fd5b506101f76101e1366004611c66565b6000908152600160208190526040909120015490565b60405190815260200161015b565b34801561021157600080fd5b50610184610220366004611c05565b6107cf565b34801561023157600080fd5b50610184610240366004611c7f565b6108c7565b34801561025157600080fd5b50610184610260366004611c7f565b6108f3565b34801561027157600080fd5b50610184610280366004611caf565b610976565b34801561029157600080fd5b5061014f6102a0366004611c7f565b610a0c565b3480156102b157600080fd5b506101f7600081565b3480156102c657600080fd5b506101846102d5366004611cda565b610a37565b3480156102e657600080fd5b506103096102f5366004611d3c565b63bc197c8160e01b98975050505050505050565b6040516001600160e01b0319909116815260200161015b565b34801561032e57600080fd5b5061018461033d366004611dfb565b610a76565b34801561034e57600080fd5b5061018461035d366004611e6e565b610b9f565b34801561036e57600080fd5b5061018461037d366004611c7f565b610bf6565b34801561038e57600080fd5b5061018461039d366004611e9c565b610c1d565b3480156103ae57600080fd5b506101f76103bd366004611edd565b6000908152600260209081526040808320938352929052205490565b3480156103e557600080fd5b506103096103f4366004611eff565b63f23a6e6160e01b9695505050505050565b34801561041257600080fd5b50610184610421366004611c05565b610cb6565b610184610434366004611f5d565b610da3565b60006001600160e01b03198216637965db0b60e01b148061046a57506301ffc9a760e01b6001600160e01b03198316145b92915050565b7f9f2df0fed2c77648de5860a4cc508cd0818c85b8b8a1ab4ceeef8d981c8956a661049b8133610e4b565b6104a6848484610eaf565b50505050565b82158061058c5750604051631b5a5b9d60e21b602082015260248101879052604481018690526bffffffffffffffffffffffff19606086901b1660648201526078810184905261058a907f9f2df0fed2c77648de5860a4cc508cd0818c85b8b8a1ab4ceeef8d981c8956a6906102a090610584906098015b60408051601f1981840301815282825280516020918201207f19457468657265756d205369676e6564204d6573736167653a0a33320000000084830152603c8085019190915282518085039091018152605c909301909152815191012090565b84610f6c565b155b156105aa5760405163574b16a760e11b815260040160405180910390fd5b6001600160a01b03841660009081526003602052604090205460ff1615610648576001600160a01b0384166379cc6790336105e58587611fd7565b6040516001600160e01b031960e085901b1681526001600160a01b0390921660048301526024820152604401600060405180830381600087803b15801561062b57600080fd5b505af115801561063f573d6000803e3d6000fd5b505050506106ec565b6001600160a01b0384166323b872dd33306106638688611fd7565b6040516001600160e01b031960e086901b1681526001600160a01b0393841660048201529290911660248301526044820152606401602060405180830381600087803b1580156106b257600080fd5b505af11580156106c6573d6000803e3d6000fd5b505050506040513d601f19601f820116820180604052508101906106ea9190611ff6565b505b6106f7868684610eaf565b505050505050565b7f850d585eb7f024ccee5e68e55f2c26cc72e1e6ee456acf62135757a5eb9d4a1061072a8133610e4b565b60008061073688610f90565b915091506107c5888888856001600160a01b0316636352211e866040518263ffffffff1660e01b815260040161076e91815260200190565b60206040518083038186803b15801561078657600080fd5b505afa15801561079a573d6000803e3d6000fd5b505050506040513d601f19601f820116820180604052508101906107be9190612013565b8989610fb0565b5050505050505050565b6000806107db86610f90565b91509150816001600160a01b031663f242432a6107f53390565b30848989896040518763ffffffff1660e01b815260040161081b96959493929190612030565b600060405180830381600087803b15801561083557600080fd5b505af1158015610849573d6000803e3d6000fd5b50505060008781526002602090815260408083208b84529091528120805488935090919061087890849061208c565b909155505060408051888152602081018890529081018690527f3bf1808b2844e8c888aea48a9cd605ce86dd8c358559a473f4f96e61c9524d6a9060600160405180910390a150505050505050565b600082815260016020819052604090912001546108e48133610e4b565b6108ee83836110cc565b505050565b6001600160a01b03811633146109685760405162461bcd60e51b815260206004820152602f60248201527f416363657373436f6e74726f6c3a2063616e206f6e6c792072656e6f756e636560448201526e103937b632b9903337b91039b2b63360891b60648201526084015b60405180910390fd5b6109728282611137565b5050565b600260005414156109c95760405162461bcd60e51b815260206004820152601f60248201527f5265656e7472616e637947756172643a207265656e7472616e742063616c6c00604482015260640161095f565b60026000557f0914bb97ca83e85ef385857d9d418f187ff630589e0c9f44db92976d8e4519cb6109f98133610e4b565b610a03824761119e565b50506001600055565b60009182526001602090815260408084206001600160a01b0393909316845291905290205460ff1690565b7f850d585eb7f024ccee5e68e55f2c26cc72e1e6ee456acf62135757a5eb9d4a10610a628133610e4b565b506004805460ff1916911515919091179055565b60045460ff16610a995760405163574b16a760e11b815260040160405180910390fd5b600080610aa588610f90565b6040516331a9108f60e11b81526004810182905291935091506001600160a01b03831690636352211e9060240160206040518083038186803b158015610aea57600080fd5b505afa925050508015610b1a575060408051601f3d908101601f19168201909252610b1791810190612013565b60015b610b67573d808015610b48576040519150601f19603f3d011682016040523d82523d6000602084013e610b4d565b606091505b5060405163574b16a760e11b815260040160405180910390fd5b6001600160a01b0381163314610b905760405163574b16a760e11b815260040160405180910390fd5b506107c5888888888888610fb0565b7f850d585eb7f024ccee5e68e55f2c26cc72e1e6ee456acf62135757a5eb9d4a10610bca8133610e4b565b506001600160a01b03919091166000908152600360205260409020805460ff1916911515919091179055565b60008281526001602081905260409091200154610c138133610e4b565b6108ee8383611137565b60026000541415610c705760405162461bcd60e51b815260206004820152601f60248201527f5265656e7472616e637947756172643a207265656e7472616e742063616c6c00604482015260640161095f565b60026000557f0914bb97ca83e85ef385857d9d418f187ff630589e0c9f44db92976d8e4519cb610ca08133610e4b565b610cab8484846112b7565b505060016000555050565b600080610cc286610f90565b6040516331a9108f60e11b81526004810182905291935091506001600160a01b03831690636352211e9060240160206040518083038186803b158015610d0757600080fd5b505afa925050508015610d37575060408051601f3d908101601f19168201909252610d3491810190612013565b60015b610d65573d808015610b48576040519150601f19603f3d011682016040523d82523d6000602084013e610b4d565b6001600160a01b038116610d8c5760405163574b16a760e11b815260040160405180910390fd5b50610d9a87878787876107cf565b50505050505050565b821580610db85750610db58284611fd7565b34105b80610e1b5750604051631b5a5b9d60e21b6020820152602481018690526044810185905260648101849052610e19907f9f2df0fed2c77648de5860a4cc508cd0818c85b8b8a1ab4ceeef8d981c8956a6906102a09061058490608401610524565b155b15610e395760405163574b16a760e11b815260040160405180910390fd5b610e44858584610eaf565b5050505050565b610e558282610a0c565b61097257610e6d816001600160a01b03166014611309565b610e78836020611309565b604051602001610e899291906120d0565b60408051601f198184030181529082905262461bcd60e51b825261095f91600401612145565b600080610ebb84610f90565b60405163731133e960e01b81523060048201526024810182905260448101869052608060648201526000608482015291935091506001600160a01b0383169063731133e99060a401600060405180830381600087803b158015610f1d57600080fd5b505af1158015610f31573d6000803e3d6000fd5b505050600085815260026020908152604080832089845290915281208054869350909190610f6090849061208c565b90915550505050505050565b6000806000610f7b85856114ac565b91509150610f888161151c565b509392505050565b6000806001600160a01b038316610fa78460a01c90565b91509150915091565b6000858152600260209081526040808320898452909152902054841115610fea5760405163574b16a760e11b815260040160405180910390fd5b600080610ff687610f90565b604051637921219560e11b815291935091506001600160a01b0383169063f242432a90611031903090899086908c908b908b90600401612030565b600060405180830381600087803b15801561104b57600080fd5b505af115801561105f573d6000803e3d6000fd5b50505060008881526002602090815260408083208c845282529182902080548a9003905581518b81529081018a90529081018890527f7505150438fc92ede0228c131f63d65d3b7e117a22cddf9cd2e276069f5c24ec915060600160405180910390a15050505050505050565b6110d68282610a0c565b6109725760008281526001602081815260408084206001600160a01b0386168086529252808420805460ff19169093179092559051339285917f2f8788117e7eff1d82e926ec794901d17c78024a50270940304540a733656f0d9190a45050565b6111418282610a0c565b156109725760008281526001602090815260408083206001600160a01b0385168085529252808320805460ff1916905551339285917ff6391f5c32d9c69d2a47ea670b442974b53935d1edc7fd64eb21e047a839171b9190a45050565b804710156111ee5760405162461bcd60e51b815260206004820152601d60248201527f416464726573733a20696e73756666696369656e742062616c616e6365000000604482015260640161095f565b6000826001600160a01b03168260405160006040518083038185875af1925050503d806000811461123b576040519150601f19603f3d011682016040523d82523d6000602084013e611240565b606091505b50509050806108ee5760405162461bcd60e51b815260206004820152603a60248201527f416464726573733a20756e61626c6520746f2073656e642076616c75652c207260448201527f6563697069656e74206d61792068617665207265766572746564000000000000606482015260840161095f565b604080516001600160a01b038416602482015260448082018490528251808303909101815260649091019091526020810180516001600160e01b031663a9059cbb60e01b1790526108ee9084906116da565b60606000611318836002611fd7565b61132390600261208c565b67ffffffffffffffff81111561133b5761133b611aab565b6040519080825280601f01601f191660200182016040528015611365576020820181803683370190505b509050600360fc1b8160008151811061138057611380612178565b60200101906001600160f81b031916908160001a905350600f60fb1b816001815181106113af576113af612178565b60200101906001600160f81b031916908160001a90535060006113d3846002611fd7565b6113de90600161208c565b90505b6001811115611456576f181899199a1a9b1b9c1cb0b131b232b360811b85600f166010811061141257611412612178565b1a60f81b82828151811061142857611428612178565b60200101906001600160f81b031916908160001a90535060049490941c9361144f8161218e565b90506113e1565b5083156114a55760405162461bcd60e51b815260206004820181905260248201527f537472696e67733a20686578206c656e67746820696e73756666696369656e74604482015260640161095f565b9392505050565b6000808251604114156114e35760208301516040840151606085015160001a6114d7878285856117ac565b94509450505050611515565b82516040141561150d5760208301516040840151611502868383611899565b935093505050611515565b506000905060025b9250929050565b6000816004811115611530576115306121a5565b14156115395750565b600181600481111561154d5761154d6121a5565b141561159b5760405162461bcd60e51b815260206004820152601860248201527f45434453413a20696e76616c6964207369676e61747572650000000000000000604482015260640161095f565b60028160048111156115af576115af6121a5565b14156115fd5760405162461bcd60e51b815260206004820152601f60248201527f45434453413a20696e76616c6964207369676e6174757265206c656e67746800604482015260640161095f565b6003816004811115611611576116116121a5565b141561166a5760405162461bcd60e51b815260206004820152602260248201527f45434453413a20696e76616c6964207369676e6174757265202773272076616c604482015261756560f01b606482015260840161095f565b600481600481111561167e5761167e6121a5565b14156116d75760405162461bcd60e51b815260206004820152602260248201527f45434453413a20696e76616c6964207369676e6174757265202776272076616c604482015261756560f01b606482015260840161095f565b50565b600061172f826040518060400160405280602081526020017f5361666545524332303a206c6f772d6c6576656c2063616c6c206661696c6564815250856001600160a01b03166118c89092919063ffffffff16565b8051909150156108ee578080602001905181019061174d9190611ff6565b6108ee5760405162461bcd60e51b815260206004820152602a60248201527f5361666545524332303a204552433230206f7065726174696f6e20646964206e6044820152691bdd081cdd58d8d9595960b21b606482015260840161095f565b6000807f7fffffffffffffffffffffffffffffff5d576e7357a4501ddfe92f46681b20a08311156117e35750600090506003611890565b8460ff16601b141580156117fb57508460ff16601c14155b1561180c5750600090506004611890565b6040805160008082526020820180845289905260ff881692820192909252606081018690526080810185905260019060a0016020604051602081039080840390855afa158015611860573d6000803e3d6000fd5b5050604051601f1901519150506001600160a01b03811661188957600060019250925050611890565b9150600090505b94509492505050565b6000806001600160ff1b03831660ff84901c601b016118ba878288856117ac565b935093505050935093915050565b60606118d784846000856118df565b949350505050565b6060824710156119405760405162461bcd60e51b815260206004820152602660248201527f416464726573733a20696e73756666696369656e742062616c616e636520666f6044820152651c8818d85b1b60d21b606482015260840161095f565b843b61198e5760405162461bcd60e51b815260206004820152601d60248201527f416464726573733a2063616c6c20746f206e6f6e2d636f6e7472616374000000604482015260640161095f565b600080866001600160a01b031685876040516119aa91906121bb565b60006040518083038185875af1925050503d80600081146119e7576040519150601f19603f3d011682016040523d82523d6000602084013e6119ec565b606091505b50915091506119fc828286611a07565b979650505050505050565b60608315611a165750816114a5565b825115611a265782518084602001fd5b8160405162461bcd60e51b815260040161095f9190612145565b600060208284031215611a5257600080fd5b81356001600160e01b0319811681146114a557600080fd5b600080600060608486031215611a7f57600080fd5b505081359360208301359350604090920135919050565b6001600160a01b03811681146116d757600080fd5b634e487b7160e01b600052604160045260246000fd5b600082601f830112611ad257600080fd5b813567ffffffffffffffff80821115611aed57611aed611aab565b604051601f8301601f19908116603f01168101908282118183101715611b1557611b15611aab565b81604052838152866020858801011115611b2e57600080fd5b836020870160208301376000602085830101528094505050505092915050565b60008060008060008060c08789031215611b6757600080fd5b86359550602087013594506040870135611b8081611a96565b9350606087013592506080870135915060a087013567ffffffffffffffff811115611baa57600080fd5b611bb689828a01611ac1565b9150509295509295509295565b60008083601f840112611bd557600080fd5b50813567ffffffffffffffff811115611bed57600080fd5b60208301915083602082850101111561151557600080fd5b600080600080600060808688031215611c1d57600080fd5b853594506020860135935060408601359250606086013567ffffffffffffffff811115611c4957600080fd5b611c5588828901611bc3565b969995985093965092949392505050565b600060208284031215611c7857600080fd5b5035919050565b60008060408385031215611c9257600080fd5b823591506020830135611ca481611a96565b809150509250929050565b600060208284031215611cc157600080fd5b81356114a581611a96565b80151581146116d757600080fd5b600060208284031215611cec57600080fd5b81356114a581611ccc565b60008083601f840112611d0957600080fd5b50813567ffffffffffffffff811115611d2157600080fd5b6020830191508360208260051b850101111561151557600080fd5b60008060008060008060008060a0898b031215611d5857600080fd5b8835611d6381611a96565b97506020890135611d7381611a96565b9650604089013567ffffffffffffffff80821115611d9057600080fd5b611d9c8c838d01611cf7565b909850965060608b0135915080821115611db557600080fd5b611dc18c838d01611cf7565b909650945060808b0135915080821115611dda57600080fd5b50611de78b828c01611bc3565b999c989b5096995094979396929594505050565b60008060008060008060a08789031215611e1457600080fd5b8635955060208701359450604087013593506060870135611e3481611a96565b9250608087013567ffffffffffffffff811115611e5057600080fd5b611e5c89828a01611bc3565b979a9699509497509295939492505050565b60008060408385031215611e8157600080fd5b8235611e8c81611a96565b91506020830135611ca481611ccc565b600080600060608486031215611eb157600080fd5b8335611ebc81611a96565b92506020840135611ecc81611a96565b929592945050506040919091013590565b60008060408385031215611ef057600080fd5b50508035926020909101359150565b60008060008060008060a08789031215611f1857600080fd5b8635611f2381611a96565b95506020870135611f3381611a96565b94506040870135935060608701359250608087013567ffffffffffffffff811115611e5057600080fd5b600080600080600060a08688031215611f7557600080fd5b85359450602086013593506040860135925060608601359150608086013567ffffffffffffffff811115611fa857600080fd5b611fb488828901611ac1565b9150509295509295909350565b634e487b7160e01b600052601160045260246000fd5b6000816000190483118215151615611ff157611ff1611fc1565b500290565b60006020828403121561200857600080fd5b81516114a581611ccc565b60006020828403121561202557600080fd5b81516114a581611a96565b6001600160a01b03878116825286166020820152604081018590526060810184905260a06080820181905281018290526000828460c0840137600060c0848401015260c0601f19601f8501168301019050979650505050505050565b6000821982111561209f5761209f611fc1565b500190565b60005b838110156120bf5781810151838201526020016120a7565b838111156104a65750506000910152565b7f416363657373436f6e74726f6c3a206163636f756e74200000000000000000008152600083516121088160178501602088016120a4565b7001034b99036b4b9b9b4b733903937b6329607d1b60179184019182015283516121398160288401602088016120a4565b01602801949350505050565b60208152600082518060208401526121648160408501602087016120a4565b601f01601f19169190910160400192915050565b634e487b7160e01b600052603260045260246000fd5b60008161219d5761219d611fc1565b506000190190565b634e487b7160e01b600052602160045260246000fd5b600082516121cd8184602087016120a4565b919091019291505056fea26469706673582212200e7a9672f737014d4225a3eab2fc573b8253656807796d8d940c4fdd07db2e8864736f6c63430008090033",
  "linkReferences": {},
  "deployedLinkReferences": {}
}