{
  "_format": "hh-sol-artifact-1",
  "contractName": "CashCowsGame",
  "sourceName": "contracts/phase4/CashCowsGame.sol",
  "abi": [
    {
      "inputs": [
        {
          "internalType": "address",
          "name": "admin",
          "type": "address"
        }
      ],
      "stateMutability": "nonpayable",
      "type": "constructor"
    },
    {
      "inputs": [],
      "name": "InvalidCall",
      "type": "error"
    },
    {
      "anonymous": false,
      "inputs": [
        {
          "indexed": false,
          "internalType": "uint256",
          "name": "characterId",
          "type": "uint256"
        },
        {
          "indexed": false,
          "internalType": "uint256",
          "name": "itemId",
          "type": "uint256"
        }
      ],
      "name": "Linked",
      "type": "event"
    },
    {
      "anonymous": false,
      "inputs": [
        {
          "indexed": true,
          "internalType": "bytes32",
          "name": "role",
          "type": "bytes32"
        },
        {
          "indexed": true,
          "internalType": "bytes32",
          "name": "previousAdminRole",
          "type": "bytes32"
        },
        {
          "indexed": true,
          "internalType": "bytes32",
          "name": "newAdminRole",
          "type": "bytes32"
        }
      ],
      "name": "RoleAdminChanged",
      "type": "event"
    },
    {
      "anonymous": false,
      "inputs": [
        {
          "indexed": true,
          "internalType": "bytes32",
          "name": "role",
          "type": "bytes32"
        },
        {
          "indexed": true,
          "internalType": "address",
          "name": "account",
          "type": "address"
        },
        {
          "indexed": true,
          "internalType": "address",
          "name": "sender",
          "type": "address"
        }
      ],
      "name": "RoleGranted",
      "type": "event"
    },
    {
      "anonymous": false,
      "inputs": [
        {
          "indexed": true,
          "internalType": "bytes32",
          "name": "role",
          "type": "bytes32"
        },
        {
          "indexed": true,
          "internalType": "address",
          "name": "account",
          "type": "address"
        },
        {
          "indexed": true,
          "internalType": "address",
          "name": "sender",
          "type": "address"
        }
      ],
      "name": "RoleRevoked",
      "type": "event"
    },
    {
      "anonymous": false,
      "inputs": [
        {
          "indexed": false,
          "internalType": "uint256",
          "name": "characterId",
          "type": "uint256"
        },
        {
          "indexed": false,
          "internalType": "uint256",
          "name": "itemId",
          "type": "uint256"
        }
      ],
      "name": "Unlinked",
      "type": "event"
    },
    {
      "inputs": [],
      "name": "DEFAULT_ADMIN_ROLE",
      "outputs": [
        {
          "internalType": "bytes32",
          "name": "",
          "type": "bytes32"
        }
      ],
      "stateMutability": "view",
      "type": "function"
    },
    {
      "inputs": [
        {
          "internalType": "contract IERC20",
          "name": "token",
          "type": "address"
        },
        {
          "internalType": "bool",
          "name": "yes",
          "type": "bool"
        }
      ],
      "name": "burnable",
      "outputs": [],
      "stateMutability": "nonpayable",
      "type": "function"
    },
    {
      "inputs": [
        {
          "internalType": "bytes32",
          "name": "role",
          "type": "bytes32"
        }
      ],
      "name": "getRoleAdmin",
      "outputs": [
        {
          "internalType": "bytes32",
          "name": "",
          "type": "bytes32"
        }
      ],
      "stateMutability": "view",
      "type": "function"
    },
    {
      "inputs": [
        {
          "internalType": "bytes32",
          "name": "role",
          "type": "bytes32"
        },
        {
          "internalType": "address",
          "name": "account",
          "type": "address"
        }
      ],
      "name": "grantRole",
      "outputs": [],
      "stateMutability": "nonpayable",
      "type": "function"
    },
    {
      "inputs": [
        {
          "internalType": "bytes32",
          "name": "role",
          "type": "bytes32"
        },
        {
          "internalType": "address",
          "name": "account",
          "type": "address"
        }
      ],
      "name": "hasRole",
      "outputs": [
        {
          "internalType": "bool",
          "name": "",
          "type": "bool"
        }
      ],
      "stateMutability": "view",
      "type": "function"
    },
    {
      "inputs": [
        {
          "internalType": "uint256",
          "name": "characterId",
          "type": "uint256"
        }
      ],
      "name": "items",
      "outputs": [
        {
          "components": [
            {
              "internalType": "address",
              "name": "collectionAddress",
              "type": "address"
            },
            {
              "internalType": "uint256",
              "name": "collectionTokenId",
              "type": "uint256"
            }
          ],
          "internalType": "struct CashCowsGame.Collection[]",
          "name": "",
          "type": "tuple[]"
        }
      ],
      "stateMutability": "view",
      "type": "function"
    },
    {
      "inputs": [
        {
          "internalType": "uint256",
          "name": "characterId",
          "type": "uint256"
        },
        {
          "internalType": "uint256",
          "name": "itemId",
          "type": "uint256"
        },
        {
          "internalType": "bytes",
          "name": "data",
          "type": "bytes"
        }
      ],
      "name": "link",
      "outputs": [],
      "stateMutability": "nonpayable",
      "type": "function"
    },
    {
      "inputs": [
        {
          "internalType": "uint256",
          "name": "characterId",
          "type": "uint256"
        },
        {
          "internalType": "uint256",
          "name": "itemId",
          "type": "uint256"
        }
      ],
      "name": "linkedSince",
      "outputs": [
        {
          "internalType": "uint256",
          "name": "",
          "type": "uint256"
        }
      ],
      "stateMutability": "view",
      "type": "function"
    },
    {
      "inputs": [
        {
          "internalType": "uint256",
          "name": "characterId",
          "type": "uint256"
        },
        {
          "internalType": "uint256",
          "name": "itemId",
          "type": "uint256"
        }
      ],
      "name": "mint",
      "outputs": [],
      "stateMutability": "nonpayable",
      "type": "function"
    },
    {
      "inputs": [
        {
          "internalType": "uint256",
          "name": "characterId",
          "type": "uint256"
        },
        {
          "internalType": "uint256",
          "name": "itemId",
          "type": "uint256"
        },
        {
          "internalType": "uint256",
          "name": "price",
          "type": "uint256"
        },
        {
          "internalType": "bytes",
          "name": "proof",
          "type": "bytes"
        }
      ],
      "name": "mint",
      "outputs": [],
      "stateMutability": "payable",
      "type": "function"
    },
    {
      "inputs": [
        {
          "internalType": "address",
          "name": "token",
          "type": "address"
        },
        {
          "internalType": "uint256",
          "name": "characterId",
          "type": "uint256"
        },
        {
          "internalType": "uint256",
          "name": "itemId",
          "type": "uint256"
        },
        {
          "internalType": "uint256",
          "name": "price",
          "type": "uint256"
        },
        {
          "internalType": "bytes",
          "name": "proof",
          "type": "bytes"
        }
      ],
      "name": "mint",
      "outputs": [],
      "stateMutability": "nonpayable",
      "type": "function"
    },
    {
      "inputs": [
        {
          "internalType": "address",
          "name": "",
          "type": "address"
        },
        {
          "internalType": "address",
          "name": "",
          "type": "address"
        },
        {
          "internalType": "uint256[]",
          "name": "",
          "type": "uint256[]"
        },
        {
          "internalType": "uint256[]",
          "name": "",
          "type": "uint256[]"
        },
        {
          "internalType": "bytes",
          "name": "",
          "type": "bytes"
        }
      ],
      "name": "onERC1155BatchReceived",
      "outputs": [
        {
          "internalType": "bytes4",
          "name": "",
          "type": "bytes4"
        }
      ],
      "stateMutability": "pure",
      "type": "function"
    },
    {
      "inputs": [
        {
          "internalType": "address",
          "name": "",
          "type": "address"
        },
        {
          "internalType": "address",
          "name": "",
          "type": "address"
        },
        {
          "internalType": "uint256",
          "name": "",
          "type": "uint256"
        },
        {
          "internalType": "uint256",
          "name": "",
          "type": "uint256"
        },
        {
          "internalType": "bytes",
          "name": "",
          "type": "bytes"
        }
      ],
      "name": "onERC1155Received",
      "outputs": [
        {
          "internalType": "bytes4",
          "name": "",
          "type": "bytes4"
        }
      ],
      "stateMutability": "pure",
      "type": "function"
    },
    {
      "inputs": [
        {
          "internalType": "contract IERC20Mintable",
          "name": "token",
          "type": "address"
        },
        {
          "internalType": "uint256",
          "name": "characterId",
          "type": "uint256"
        },
        {
          "internalType": "uint256",
          "name": "itemId",
          "type": "uint256"
        },
        {
          "internalType": "uint256",
          "name": "rate",
          "type": "uint256"
        },
        {
          "internalType": "bytes",
          "name": "proof",
          "type": "bytes"
        }
      ],
      "name": "redeem",
      "outputs": [],
      "stateMutability": "nonpayable",
      "type": "function"
    },
    {
      "inputs": [
        {
          "internalType": "contract IERC20",
          "name": "token",
          "type": "address"
        },
        {
          "internalType": "uint256",
          "name": "characterId",
          "type": "uint256"
        },
        {
          "internalType": "uint256",
          "name": "itemId",
          "type": "uint256"
        },
        {
          "internalType": "uint256",
          "name": "timestamp",
          "type": "uint256"
        },
        {
          "internalType": "uint256",
          "name": "rate",
          "type": "uint256"
        }
      ],
      "name": "redeemable",
      "outputs": [
        {
          "internalType": "uint256",
          "name": "",
          "type": "uint256"
        }
      ],
      "stateMutability": "view",
      "type": "function"
    },
    {
      "inputs": [
        {
          "internalType": "contract IERC20",
          "name": "token",
          "type": "address"
        },
        {
          "internalType": "uint256",
          "name": "characterId",
          "type": "uint256"
        },
        {
          "internalType": "uint256",
          "name": "itemId",
          "type": "uint256"
        },
        {
          "internalType": "uint256",
          "name": "rate",
          "type": "uint256"
        }
      ],
      "name": "redeemable",
      "outputs": [
        {
          "internalType": "uint256",
          "name": "",
          "type": "uint256"
        }
      ],
      "stateMutability": "view",
      "type": "function"
    },
    {
      "inputs": [
        {
          "internalType": "contract IERC20",
          "name": "token",
          "type": "address"
        },
        {
          "internalType": "uint256",
          "name": "characterId",
          "type": "uint256"
        },
        {
          "internalType": "uint256",
          "name": "itemId",
          "type": "uint256"
        }
      ],
      "name": "redeemed",
      "outputs": [
        {
          "internalType": "uint256",
          "name": "",
          "type": "uint256"
        }
      ],
      "stateMutability": "view",
      "type": "function"
    },
    {
      "inputs": [
        {
          "internalType": "bytes32",
          "name": "role",
          "type": "bytes32"
        },
        {
          "internalType": "address",
          "name": "account",
          "type": "address"
        }
      ],
      "name": "renounceRole",
      "outputs": [],
      "stateMutability": "nonpayable",
      "type": "function"
    },
    {
      "inputs": [
        {
          "internalType": "bytes32",
          "name": "role",
          "type": "bytes32"
        },
        {
          "internalType": "address",
          "name": "account",
          "type": "address"
        }
      ],
      "name": "revokeRole",
      "outputs": [],
      "stateMutability": "nonpayable",
      "type": "function"
    },
    {
      "inputs": [
        {
          "internalType": "uint256",
          "name": "characterId",
          "type": "uint256"
        },
        {
          "internalType": "uint256",
          "name": "itemId",
          "type": "uint256"
        },
        {
          "internalType": "bytes",
          "name": "data",
          "type": "bytes"
        }
      ],
      "name": "safeLink",
      "outputs": [],
      "stateMutability": "nonpayable",
      "type": "function"
    },
    {
      "inputs": [
        {
          "internalType": "bytes4",
          "name": "interfaceId",
          "type": "bytes4"
        }
      ],
      "name": "supportsInterface",
      "outputs": [
        {
          "internalType": "bool",
          "name": "",
          "type": "bool"
        }
      ],
      "stateMutability": "view",
      "type": "function"
    },
    {
      "inputs": [
        {
          "internalType": "uint256",
          "name": "characterId",
          "type": "uint256"
        },
        {
          "internalType": "uint256",
          "name": "itemId",
          "type": "uint256"
        },
        {
          "internalType": "bytes",
          "name": "data",
          "type": "bytes"
        }
      ],
      "name": "unlink",
      "outputs": [],
      "stateMutability": "nonpayable",
      "type": "function"
    },
    {
      "inputs": [
        {
          "internalType": "uint256",
          "name": "characterId",
          "type": "uint256"
        },
        {
          "internalType": "uint256",
          "name": "itemId",
          "type": "uint256"
        },
        {
          "internalType": "address",
          "name": "to",
          "type": "address"
        },
        {
          "internalType": "bytes",
          "name": "data",
          "type": "bytes"
        }
      ],
      "name": "unlink",
      "outputs": [],
      "stateMutability": "nonpayable",
      "type": "function"
    },
    {
      "inputs": [
        {
          "internalType": "uint256",
          "name": "itemId",
          "type": "uint256"
        },
        {
          "internalType": "bool",
          "name": "yes",
          "type": "bool"
        }
      ],
      "name": "unlinkable",
      "outputs": [],
      "stateMutability": "nonpayable",
      "type": "function"
    },
    {
      "inputs": [
        {
          "internalType": "address",
          "name": "recipient",
          "type": "address"
        }
      ],
      "name": "withdraw",
      "outputs": [],
      "stateMutability": "nonpayable",
      "type": "function"
    },
    {
      "inputs": [
        {
          "internalType": "contract IERC20",
          "name": "erc20",
          "type": "address"
        },
        {
          "internalType": "address",
          "name": "recipient",
          "type": "address"
        },
        {
          "internalType": "uint256",
          "name": "amount",
          "type": "uint256"
        }
      ],
      "name": "withdraw",
      "outputs": [],
      "stateMutability": "nonpayable",
      "type": "function"
    }
  ],
  "bytecode": "0x60806040523480156200001157600080fd5b50604051620029cf380380620029cf8339810160408190526200003491620000e6565b600160009081556200004790826200004e565b5062000118565b6200005a82826200005e565b5050565b60008281526001602090815260408083206001600160a01b038516845290915290205460ff166200005a5760008281526001602081815260408084206001600160a01b0386168086529252808420805460ff19169093179092559051339285917f2f8788117e7eff1d82e926ec794901d17c78024a50270940304540a733656f0d9190a45050565b600060208284031215620000f957600080fd5b81516001600160a01b03811681146200011157600080fd5b9392505050565b6128a780620001286000396000f3fe6080604052600436106101815760003560e01c80638f7f9a83116100d1578063bfb231d21161008a578063d9caed1211610064578063d9caed12146104b0578063e07b298d146104d0578063e1d73339146104f0578063f23a6e611461051057600080fd5b8063bfb231d214610443578063c8d5350814610470578063d547741f1461049057600080fd5b80638f7f9a831461034f57806391d148541461036f578063a217fddf1461038f578063adcbd3b0146103a4578063b49c99b8146103db578063bc197c81146103fb57600080fd5b80633fd09ee01161013e57806367302b8e1161011857806367302b8e146102cf57806371612b8e146102ef578063718cecce1461030f5780638e3096441461032f57600080fd5b80633fd09ee01461027c5780634a9eee691461029c57806351cff8d9146102af57600080fd5b806301ffc9a7146101865780631b2ef1ca146101bb578063248a9ca3146101dd5780632d6c089c1461021c5780632f2ff15d1461023c57806336568abe1461025c575b600080fd5b34801561019257600080fd5b506101a66101a1366004611fab565b61053d565b60405190151581526020015b60405180910390f35b3480156101c757600080fd5b506101db6101d6366004611fd5565b610574565b005b3480156101e957600080fd5b5061020e6101f8366004611ff7565b6000908152600160208190526040909120015490565b6040519081526020016101b2565b34801561022857600080fd5b506101db61023736600461201e565b61059c565b34801561024857600080fd5b506101db610257366004612063565b6105e8565b34801561026857600080fd5b506101db610277366004612063565b61060f565b34801561028857600080fd5b5061020e610297366004612088565b610692565b6101db6102aa366004612160565b61072a565b3480156102bb57600080fd5b506101db6102ca3660046121ba565b610817565b3480156102db57600080fd5b506101db6102ea366004612219565b6108ad565b3480156102fb57600080fd5b5061020e61030a36600461226c565b6109b7565b34801561031b57600080fd5b506101db61032a366004612219565b6109f8565b34801561033b57600080fd5b5061020e61034a3660046122b0565b610ac6565b34801561035b57600080fd5b506101db61036a3660046122eb565b610ad5565b34801561037b57600080fd5b506101a661038a366004612063565b610b2c565b34801561039b57600080fd5b5061020e600081565b3480156103b057600080fd5b5061020e6103bf366004611fd5565b6000908152600260209081526040808320938352929052205490565b3480156103e757600080fd5b506101db6103f6366004612319565b610b57565b34801561040757600080fd5b5061042a6104163660046123cb565b63bc197c8160e01b98975050505050505050565b6040516001600160e01b031990911681526020016101b2565b34801561044f57600080fd5b5061046361045e366004611ff7565b610d20565b6040516101b2919061248a565b34801561047c57600080fd5b506101db61048b3660046124e2565b610e7d565b34801561049c57600080fd5b506101db6104ab366004612063565b610f92565b3480156104bc57600080fd5b506101db6104cb36600461254c565b610fb9565b3480156104dc57600080fd5b506101db6104eb366004612219565b611052565b3480156104fc57600080fd5b506101db61050b366004612319565b6110e3565b34801561051c57600080fd5b5061042a61052b36600461258d565b63f23a6e6160e01b9695505050505050565b60006001600160e01b03198216637965db0b60e01b148061056e57506301ffc9a760e01b6001600160e01b03198316145b92915050565b60008051602061285283398151915261058d81336112d3565b6105978383611337565b505050565b7f850d585eb7f024ccee5e68e55f2c26cc72e1e6ee456acf62135757a5eb9d4a106105c781336112d3565b50600091825260056020526040909120805460ff1916911515919091179055565b6000828152600160208190526040909120015461060581336112d3565b61059783836113cd565b6001600160a01b03811633146106845760405162461bcd60e51b815260206004820152602f60248201527f416363657373436f6e74726f6c3a2063616e206f6e6c792072656e6f756e636560448201526e103937b632b9903337b91039b2b63360891b60648201526084015b60405180910390fd5b61068e8282611438565b5050565b600081815260036020908152604080832085845282528083206001600160a01b0387168452825280832054848452600283528184208685529092528220541161070557600082815260036020908152604080832086845282528083206001600160a01b0388168452909152902054610720565b60008281526002602090815260408083208684529091529020545b90505b9392505050565b81158061073657508134105b806107e95750604051631b5a5b9d60e21b60208201526024810185905260448101849052606481018390526107e7906000805160206128528339815191529061038a906107e1906084015b60408051601f1981840301815282825280516020918201207f19457468657265756d205369676e6564204d6573736167653a0a33320000000084830152603c8085019190915282518085039091018152605c909301909152815191012090565b8461149f565b155b156108075760405163574b16a760e11b815260040160405180910390fd5b6108118484611337565b50505050565b6002600054141561086a5760405162461bcd60e51b815260206004820152601f60248201527f5265656e7472616e637947756172643a207265656e7472616e742063616c6c00604482015260640161067b565b60026000557f0914bb97ca83e85ef385857d9d418f187ff630589e0c9f44db92976d8e4519cb61089a81336112d3565b6108a482476114c3565b50506001600055565b6000806108b9856115dc565b6040516331a9108f60e11b81526004810182905291935091506001600160a01b03831690636352211e9060240160206040518083038186803b1580156108fe57600080fd5b505afa92505050801561092e575060408051601f3d908101601f1916820190925261092b91810190612609565b60015b61097b573d80801561095c576040519150601f19603f3d011682016040523d82523d6000602084013e610961565b606091505b5060405163574b16a760e11b815260040160405180910390fd5b6001600160a01b0381166109a25760405163574b16a760e11b815260040160405180910390fd5b506109af86868686611052565b505050505050565b6000806109c5878787610692565b9050806109d65760009150506109ef565b826109e1828661263c565b6109eb9190612653565b9150505b95945050505050565b7f850d585eb7f024ccee5e68e55f2c26cc72e1e6ee456acf62135757a5eb9d4a10610a2381336112d3565b600080610a2f876115dc565b91509150610abd8787846001600160a01b0316636352211e856040518263ffffffff1660e01b8152600401610a6691815260200190565b60206040518083038186803b158015610a7e57600080fd5b505afa158015610a92573d6000803e3d6000fd5b505050506040513d601f19601f82011682018060405250810190610ab69190612609565b88886115fc565b50505050505050565b60006109ef85858542866109b7565b7f850d585eb7f024ccee5e68e55f2c26cc72e1e6ee456acf62135757a5eb9d4a10610b0081336112d3565b506001600160a01b03919091166000908152600460205260409020805460ff1916911515919091179055565b60009182526001602090815260408084206001600160a01b0393909316845291905290205460ff1690565b811580610bc35750604051631b5a5b9d60e21b60208201526bffffffffffffffffffffffff19606087901b166024820152603881018590526058810184905260788101839052610bc1906000805160206128528339815191529061038a906107e190609801610781565b155b15610be15760405163574b16a760e11b815260040160405180910390fd5b6001600160a01b03851660009081526004602052604090205460ff1615610c77576001600160a01b0385166379cc6790336040516001600160e01b031960e084901b1681526001600160a01b03909116600482015260248101859052604401600060405180830381600087803b158015610c5a57600080fd5b505af1158015610c6e573d6000803e3d6000fd5b50505050610d0f565b6001600160a01b0385166323b872dd336040516001600160e01b031960e084901b1681526001600160a01b03909116600482015230602482015260448101859052606401602060405180830381600087803b158015610cd557600080fd5b505af1158015610ce9573d6000803e3d6000fd5b505050506040513d601f19601f82011682018060405250810190610d0d9190612672565b505b610d198484611337565b5050505050565b6000818152600860205260408120546060919067ffffffffffffffff811115610d4b57610d4b6120bd565b604051908082528060200260200182016040528015610d9057816020015b6040805180820190915260008082526020820152815260200190600190039081610d695790505b5090506000805b600654811015610e745760006002600060068481548110610dba57610dba61268f565b906000526020600020015481526020019081526020016000206000878152602001908152602001600020541115610e6257600080610e1460068481548110610e0457610e0461268f565b90600052602060002001546115dc565b915091506040518060400160405280836001600160a01b0316815260200182815250858580610e42906126a5565b965081518110610e5457610e5461268f565b602002602001018190525050505b80610e6c816126a5565b915050610d97565b50909392505050565b60008481526005602052604090205460ff16610eac5760405163574b16a760e11b815260040160405180910390fd5b600080610eb8876115dc565b6040516331a9108f60e11b81526004810182905291935091506001600160a01b03831690636352211e9060240160206040518083038186803b158015610efd57600080fd5b505afa925050508015610f2d575060408051601f3d908101601f19168201909252610f2a91810190612609565b60015b610f5b573d80801561095c576040519150601f19603f3d011682016040523d82523d6000602084013e610961565b6001600160a01b0381163314610f845760405163574b16a760e11b815260040160405180910390fd5b50610abd87878787876115fc565b60008281526001602081905260409091200154610faf81336112d3565b6105978383611438565b6002600054141561100c5760405162461bcd60e51b815260206004820152601f60248201527f5265656e7472616e637947756172643a207265656e7472616e742063616c6c00604482015260640161067b565b60026000557f0914bb97ca83e85ef385857d9d418f187ff630589e0c9f44db92976d8e4519cb61103c81336112d3565b611047848484611724565b505060016000555050565b61105c8484611776565b600080611068856115dc565b91509150816001600160a01b031663f242432a6110823390565b3084600189896040518763ffffffff1660e01b81526004016110a9969594939291906126c0565b600060405180830381600087803b1580156110c357600080fd5b505af11580156110d7573d6000803e3d6000fd5b50505050505050505050565b6040516572656465656d60d01b60208201526bffffffffffffffffffffffff19606087901b166026820152603a8101849052605a8101839052611140906000805160206128528339815191529061038a906107e190607a01610781565b61115d5760405163574b16a760e11b815260040160405180910390fd5b3360008061116a876115dc565b91509150826001600160a01b0316826001600160a01b0316636352211e836040518263ffffffff1660e01b81526004016111a691815260200190565b60206040518083038186803b1580156111be57600080fd5b505afa1580156111d2573d6000803e3d6000fd5b505050506040513d601f19601f820116820180604052508101906111f69190612609565b6001600160a01b03161461121d5760405163574b16a760e11b815260040160405180910390fd5b600061122b89898989610ac6565b60008881526003602090815260408083208c845282528083206001600160a01b038e811680865291845293829020429055815193891660248501526044808501869052825180860390910181526064909401825283830180516001600160e01b03166340c10f1960e01b17905281518083019092526015825274131bddcb5b195d995b081b5a5b9d0819985a5b1959605a1b928201929092529293506110d792909190611883565b6112dd8282610b2c565b61068e576112f5816001600160a01b03166014611892565b611300836020611892565b604051602001611311929190612748565b60408051601f198184030181529082905262461bcd60e51b825261067b916004016127bd565b6113418282611776565b60008061134d836115dc565b60405163731133e960e01b81523060048201526024810182905260016044820152608060648201526000608482015291935091506001600160a01b0383169063731133e99060a401600060405180830381600087803b1580156113af57600080fd5b505af11580156113c3573d6000803e3d6000fd5b5050505050505050565b6113d78282610b2c565b61068e5760008281526001602081815260408084206001600160a01b0386168086529252808420805460ff19169093179092559051339285917f2f8788117e7eff1d82e926ec794901d17c78024a50270940304540a733656f0d9190a45050565b6114428282610b2c565b1561068e5760008281526001602090815260408083206001600160a01b0385168085529252808320805460ff1916905551339285917ff6391f5c32d9c69d2a47ea670b442974b53935d1edc7fd64eb21e047a839171b9190a45050565b60008060006114ae8585611a2e565b915091506114bb81611a9e565b509392505050565b804710156115135760405162461bcd60e51b815260206004820152601d60248201527f416464726573733a20696e73756666696369656e742062616c616e6365000000604482015260640161067b565b6000826001600160a01b03168260405160006040518083038185875af1925050503d8060008114611560576040519150601f19603f3d011682016040523d82523d6000602084013e611565565b606091505b50509050806105975760405162461bcd60e51b815260206004820152603a60248201527f416464726573733a20756e61626c6520746f2073656e642076616c75652c207260448201527f6563697069656e74206d61792068617665207265766572746564000000000000606482015260840161067b565b6000806001600160a01b0383166115f38460a01c90565b91509150915091565b60008481526002602090815260408083208884529091529020546116335760405163574b16a760e11b815260040160405180910390fd5b60008061163f866115dc565b604051637921219560e11b815291935091506001600160a01b0383169063f242432a9061167b903090899086906001908b908b906004016126c0565b600060405180830381600087803b15801561169557600080fd5b505af11580156116a9573d6000803e3d6000fd5b50505060008781526002602090815260408083208b845282528083208390556008909152812080549250906116dd836127f0565b909155505060408051888152602081018890527f244074e17b6c066142a9fd02bb2ce3bab21474ab8d82f6fb636477d5910b4f47910160405180910390a150505050505050565b604080516001600160a01b038416602482015260448082018490528251808303909101815260649091019091526020810180516001600160e01b031663a9059cbb60e01b179052610597908490611c5c565b6000818152600260209081526040808320858452909152902054156117ae5760405163574b16a760e11b815260040160405180910390fd5b60008181526002602090815260408083208584528252808320429055600890915281208054916117dd836126a5565b909155505060008181526007602052604090205460ff16611846576000818152600760205260408120805460ff191660019081179091556006805491820181559091527ff652222313e28459528d920b65115c16c04f3efc82aaedc97be59f3f377c0d3f018190555b60408051838152602081018390527f5c5cd575fdb16d05d1dfa7c30de22f36a5a1ecee8a750071b8f5d54485a21189910160405180910390a15050565b60606107208484600085611d2e565b606060006118a1836002612653565b6118ac906002612807565b67ffffffffffffffff8111156118c4576118c46120bd565b6040519080825280601f01601f1916602001820160405280156118ee576020820181803683370190505b509050600360fc1b816000815181106119095761190961268f565b60200101906001600160f81b031916908160001a905350600f60fb1b816001815181106119385761193861268f565b60200101906001600160f81b031916908160001a905350600061195c846002612653565b611967906001612807565b90505b60018111156119df576f181899199a1a9b1b9c1cb0b131b232b360811b85600f166010811061199b5761199b61268f565b1a60f81b8282815181106119b1576119b161268f565b60200101906001600160f81b031916908160001a90535060049490941c936119d8816127f0565b905061196a565b5083156107235760405162461bcd60e51b815260206004820181905260248201527f537472696e67733a20686578206c656e67746820696e73756666696369656e74604482015260640161067b565b600080825160411415611a655760208301516040840151606085015160001a611a5987828585611e56565b94509450505050611a97565b825160401415611a8f5760208301516040840151611a84868383611f43565b935093505050611a97565b506000905060025b9250929050565b6000816004811115611ab257611ab261281f565b1415611abb5750565b6001816004811115611acf57611acf61281f565b1415611b1d5760405162461bcd60e51b815260206004820152601860248201527f45434453413a20696e76616c6964207369676e61747572650000000000000000604482015260640161067b565b6002816004811115611b3157611b3161281f565b1415611b7f5760405162461bcd60e51b815260206004820152601f60248201527f45434453413a20696e76616c6964207369676e6174757265206c656e67746800604482015260640161067b565b6003816004811115611b9357611b9361281f565b1415611bec5760405162461bcd60e51b815260206004820152602260248201527f45434453413a20696e76616c6964207369676e6174757265202773272076616c604482015261756560f01b606482015260840161067b565b6004816004811115611c0057611c0061281f565b1415611c595760405162461bcd60e51b815260206004820152602260248201527f45434453413a20696e76616c6964207369676e6174757265202776272076616c604482015261756560f01b606482015260840161067b565b50565b6000611cb1826040518060400160405280602081526020017f5361666545524332303a206c6f772d6c6576656c2063616c6c206661696c6564815250856001600160a01b03166118839092919063ffffffff16565b8051909150156105975780806020019051810190611ccf9190612672565b6105975760405162461bcd60e51b815260206004820152602a60248201527f5361666545524332303a204552433230206f7065726174696f6e20646964206e6044820152691bdd081cdd58d8d9595960b21b606482015260840161067b565b606082471015611d8f5760405162461bcd60e51b815260206004820152602660248201527f416464726573733a20696e73756666696369656e742062616c616e636520666f6044820152651c8818d85b1b60d21b606482015260840161067b565b843b611ddd5760405162461bcd60e51b815260206004820152601d60248201527f416464726573733a2063616c6c20746f206e6f6e2d636f6e7472616374000000604482015260640161067b565b600080866001600160a01b03168587604051611df99190612835565b60006040518083038185875af1925050503d8060008114611e36576040519150601f19603f3d011682016040523d82523d6000602084013e611e3b565b606091505b5091509150611e4b828286611f72565b979650505050505050565b6000807f7fffffffffffffffffffffffffffffff5d576e7357a4501ddfe92f46681b20a0831115611e8d5750600090506003611f3a565b8460ff16601b14158015611ea557508460ff16601c14155b15611eb65750600090506004611f3a565b6040805160008082526020820180845289905260ff881692820192909252606081018690526080810185905260019060a0016020604051602081039080840390855afa158015611f0a573d6000803e3d6000fd5b5050604051601f1901519150506001600160a01b038116611f3357600060019250925050611f3a565b9150600090505b94509492505050565b6000806001600160ff1b03831660ff84901c601b01611f6487828885611e56565b935093505050935093915050565b60608315611f81575081610723565b825115611f915782518084602001fd5b8160405162461bcd60e51b815260040161067b91906127bd565b600060208284031215611fbd57600080fd5b81356001600160e01b03198116811461072357600080fd5b60008060408385031215611fe857600080fd5b50508035926020909101359150565b60006020828403121561200957600080fd5b5035919050565b8015158114611c5957600080fd5b6000806040838503121561203157600080fd5b82359150602083013561204381612010565b809150509250929050565b6001600160a01b0381168114611c5957600080fd5b6000806040838503121561207657600080fd5b8235915060208301356120438161204e565b60008060006060848603121561209d57600080fd5b83356120a88161204e565b95602085013595506040909401359392505050565b634e487b7160e01b600052604160045260246000fd5b600082601f8301126120e457600080fd5b813567ffffffffffffffff808211156120ff576120ff6120bd565b604051601f8301601f19908116603f01168101908282118183101715612127576121276120bd565b8160405283815286602085880101111561214057600080fd5b836020870160208301376000602085830101528094505050505092915050565b6000806000806080858703121561217657600080fd5b843593506020850135925060408501359150606085013567ffffffffffffffff8111156121a257600080fd5b6121ae878288016120d3565b91505092959194509250565b6000602082840312156121cc57600080fd5b81356107238161204e565b60008083601f8401126121e957600080fd5b50813567ffffffffffffffff81111561220157600080fd5b602083019150836020828501011115611a9757600080fd5b6000806000806060858703121561222f57600080fd5b8435935060208501359250604085013567ffffffffffffffff81111561225457600080fd5b612260878288016121d7565b95989497509550505050565b600080600080600060a0868803121561228457600080fd5b853561228f8161204e565b97602087013597506040870135966060810135965060800135945092505050565b600080600080608085870312156122c657600080fd5b84356122d18161204e565b966020860135965060408601359560600135945092505050565b600080604083850312156122fe57600080fd5b82356123098161204e565b9150602083013561204381612010565b600080600080600060a0868803121561233157600080fd5b853561233c8161204e565b9450602086013593506040860135925060608601359150608086013567ffffffffffffffff81111561236d57600080fd5b612379888289016120d3565b9150509295509295909350565b60008083601f84011261239857600080fd5b50813567ffffffffffffffff8111156123b057600080fd5b6020830191508360208260051b8501011115611a9757600080fd5b60008060008060008060008060a0898b0312156123e757600080fd5b88356123f28161204e565b975060208901356124028161204e565b9650604089013567ffffffffffffffff8082111561241f57600080fd5b61242b8c838d01612386565b909850965060608b013591508082111561244457600080fd5b6124508c838d01612386565b909650945060808b013591508082111561246957600080fd5b506124768b828c016121d7565b999c989b5096995094979396929594505050565b602080825282518282018190526000919060409081850190868401855b828110156124d557815180516001600160a01b031685528601518685015292840192908501906001016124a7565b5091979650505050505050565b6000806000806000608086880312156124fa57600080fd5b853594506020860135935060408601356125138161204e565b9250606086013567ffffffffffffffff81111561252f57600080fd5b61253b888289016121d7565b969995985093965092949392505050565b60008060006060848603121561256157600080fd5b833561256c8161204e565b9250602084013561257c8161204e565b929592945050506040919091013590565b60008060008060008060a087890312156125a657600080fd5b86356125b18161204e565b955060208701356125c18161204e565b94506040870135935060608701359250608087013567ffffffffffffffff8111156125eb57600080fd5b6125f789828a016121d7565b979a9699509497509295939492505050565b60006020828403121561261b57600080fd5b81516107238161204e565b634e487b7160e01b600052601160045260246000fd5b60008282101561264e5761264e612626565b500390565b600081600019048311821515161561266d5761266d612626565b500290565b60006020828403121561268457600080fd5b815161072381612010565b634e487b7160e01b600052603260045260246000fd5b60006000198214156126b9576126b9612626565b5060010190565b6001600160a01b03878116825286166020820152604081018590526060810184905260a06080820181905281018290526000828460c0840137600060c0848401015260c0601f19601f8501168301019050979650505050505050565b60005b8381101561273757818101518382015260200161271f565b838111156108115750506000910152565b7f416363657373436f6e74726f6c3a206163636f756e742000000000000000000081526000835161278081601785016020880161271c565b7001034b99036b4b9b9b4b733903937b6329607d1b60179184019182015283516127b181602884016020880161271c565b01602801949350505050565b60208152600082518060208401526127dc81604085016020870161271c565b601f01601f19169190910160400192915050565b6000816127ff576127ff612626565b506000190190565b6000821982111561281a5761281a612626565b500190565b634e487b7160e01b600052602160045260246000fd5b6000825161284781846020870161271c565b919091019291505056fe9f2df0fed2c77648de5860a4cc508cd0818c85b8b8a1ab4ceeef8d981c8956a6a2646970667358221220835ba7541443fbf3fbe0b447076a9afac8d1909dcc8d81398c489ab270efee5464736f6c63430008090033",
  "linkReferences": {},
  "deployedLinkReferences": {}
}