{
  "_format": "hh-sol-artifact-1",
  "contractName": "CashCowsGame",
  "sourceName": "contracts/phase4/CashCowsGame.sol",
  "abi": [
    {
      "inputs": [
        {
          "internalType": "address",
          "name": "admin",
          "type": "address"
        }
      ],
      "stateMutability": "nonpayable",
      "type": "constructor"
    },
    {
      "inputs": [],
      "name": "InvalidCall",
      "type": "error"
    },
    {
      "anonymous": false,
      "inputs": [
        {
          "indexed": false,
          "internalType": "uint256",
          "name": "characterId",
          "type": "uint256"
        },
        {
          "indexed": false,
          "internalType": "uint256",
          "name": "itemId",
          "type": "uint256"
        }
      ],
      "name": "Linked",
      "type": "event"
    },
    {
      "anonymous": false,
      "inputs": [
        {
          "indexed": true,
          "internalType": "bytes32",
          "name": "role",
          "type": "bytes32"
        },
        {
          "indexed": true,
          "internalType": "bytes32",
          "name": "previousAdminRole",
          "type": "bytes32"
        },
        {
          "indexed": true,
          "internalType": "bytes32",
          "name": "newAdminRole",
          "type": "bytes32"
        }
      ],
      "name": "RoleAdminChanged",
      "type": "event"
    },
    {
      "anonymous": false,
      "inputs": [
        {
          "indexed": true,
          "internalType": "bytes32",
          "name": "role",
          "type": "bytes32"
        },
        {
          "indexed": true,
          "internalType": "address",
          "name": "account",
          "type": "address"
        },
        {
          "indexed": true,
          "internalType": "address",
          "name": "sender",
          "type": "address"
        }
      ],
      "name": "RoleGranted",
      "type": "event"
    },
    {
      "anonymous": false,
      "inputs": [
        {
          "indexed": true,
          "internalType": "bytes32",
          "name": "role",
          "type": "bytes32"
        },
        {
          "indexed": true,
          "internalType": "address",
          "name": "account",
          "type": "address"
        },
        {
          "indexed": true,
          "internalType": "address",
          "name": "sender",
          "type": "address"
        }
      ],
      "name": "RoleRevoked",
      "type": "event"
    },
    {
      "anonymous": false,
      "inputs": [
        {
          "indexed": false,
          "internalType": "uint256",
          "name": "characterId",
          "type": "uint256"
        },
        {
          "indexed": false,
          "internalType": "uint256",
          "name": "itemId",
          "type": "uint256"
        }
      ],
      "name": "Unlinked",
      "type": "event"
    },
    {
      "inputs": [],
      "name": "DEFAULT_ADMIN_ROLE",
      "outputs": [
        {
          "internalType": "bytes32",
          "name": "",
          "type": "bytes32"
        }
      ],
      "stateMutability": "view",
      "type": "function"
    },
    {
      "inputs": [
        {
          "internalType": "contract IERC20",
          "name": "token",
          "type": "address"
        },
        {
          "internalType": "bool",
          "name": "yes",
          "type": "bool"
        }
      ],
      "name": "burnable",
      "outputs": [],
      "stateMutability": "nonpayable",
      "type": "function"
    },
    {
      "inputs": [
        {
          "internalType": "bytes32",
          "name": "role",
          "type": "bytes32"
        }
      ],
      "name": "getRoleAdmin",
      "outputs": [
        {
          "internalType": "bytes32",
          "name": "",
          "type": "bytes32"
        }
      ],
      "stateMutability": "view",
      "type": "function"
    },
    {
      "inputs": [
        {
          "internalType": "bytes32",
          "name": "role",
          "type": "bytes32"
        },
        {
          "internalType": "address",
          "name": "account",
          "type": "address"
        }
      ],
      "name": "grantRole",
      "outputs": [],
      "stateMutability": "nonpayable",
      "type": "function"
    },
    {
      "inputs": [
        {
          "internalType": "bytes32",
          "name": "role",
          "type": "bytes32"
        },
        {
          "internalType": "address",
          "name": "account",
          "type": "address"
        }
      ],
      "name": "hasRole",
      "outputs": [
        {
          "internalType": "bool",
          "name": "",
          "type": "bool"
        }
      ],
      "stateMutability": "view",
      "type": "function"
    },
    {
      "inputs": [
        {
          "internalType": "uint256",
          "name": "characterId",
          "type": "uint256"
        },
        {
          "internalType": "uint256",
          "name": "itemId",
          "type": "uint256"
        },
        {
          "internalType": "bytes",
          "name": "data",
          "type": "bytes"
        }
      ],
      "name": "link",
      "outputs": [],
      "stateMutability": "nonpayable",
      "type": "function"
    },
    {
      "inputs": [
        {
          "internalType": "uint256",
          "name": "characterId",
          "type": "uint256"
        },
        {
          "internalType": "uint256",
          "name": "itemId",
          "type": "uint256"
        }
      ],
      "name": "linkedSince",
      "outputs": [
        {
          "internalType": "uint256",
          "name": "",
          "type": "uint256"
        }
      ],
      "stateMutability": "view",
      "type": "function"
    },
    {
      "inputs": [
        {
          "internalType": "uint256",
          "name": "characterId",
          "type": "uint256"
        },
        {
          "internalType": "uint256",
          "name": "itemId",
          "type": "uint256"
        }
      ],
      "name": "mint",
      "outputs": [],
      "stateMutability": "nonpayable",
      "type": "function"
    },
    {
      "inputs": [
        {
          "internalType": "uint256",
          "name": "characterId",
          "type": "uint256"
        },
        {
          "internalType": "uint256",
          "name": "itemId",
          "type": "uint256"
        },
        {
          "internalType": "uint256",
          "name": "price",
          "type": "uint256"
        },
        {
          "internalType": "bytes",
          "name": "proof",
          "type": "bytes"
        }
      ],
      "name": "mint",
      "outputs": [],
      "stateMutability": "payable",
      "type": "function"
    },
    {
      "inputs": [
        {
          "internalType": "address",
          "name": "token",
          "type": "address"
        },
        {
          "internalType": "uint256",
          "name": "characterId",
          "type": "uint256"
        },
        {
          "internalType": "uint256",
          "name": "itemId",
          "type": "uint256"
        },
        {
          "internalType": "uint256",
          "name": "price",
          "type": "uint256"
        },
        {
          "internalType": "bytes",
          "name": "proof",
          "type": "bytes"
        }
      ],
      "name": "mint",
      "outputs": [],
      "stateMutability": "nonpayable",
      "type": "function"
    },
    {
      "inputs": [
        {
          "internalType": "address",
          "name": "",
          "type": "address"
        },
        {
          "internalType": "address",
          "name": "",
          "type": "address"
        },
        {
          "internalType": "uint256[]",
          "name": "",
          "type": "uint256[]"
        },
        {
          "internalType": "uint256[]",
          "name": "",
          "type": "uint256[]"
        },
        {
          "internalType": "bytes",
          "name": "",
          "type": "bytes"
        }
      ],
      "name": "onERC1155BatchReceived",
      "outputs": [
        {
          "internalType": "bytes4",
          "name": "",
          "type": "bytes4"
        }
      ],
      "stateMutability": "pure",
      "type": "function"
    },
    {
      "inputs": [
        {
          "internalType": "address",
          "name": "",
          "type": "address"
        },
        {
          "internalType": "address",
          "name": "",
          "type": "address"
        },
        {
          "internalType": "uint256",
          "name": "",
          "type": "uint256"
        },
        {
          "internalType": "uint256",
          "name": "",
          "type": "uint256"
        },
        {
          "internalType": "bytes",
          "name": "",
          "type": "bytes"
        }
      ],
      "name": "onERC1155Received",
      "outputs": [
        {
          "internalType": "bytes4",
          "name": "",
          "type": "bytes4"
        }
      ],
      "stateMutability": "pure",
      "type": "function"
    },
    {
      "inputs": [
        {
          "internalType": "contract IERC20Mintable",
          "name": "token",
          "type": "address"
        },
        {
          "internalType": "uint256",
          "name": "characterId",
          "type": "uint256"
        },
        {
          "internalType": "uint256",
          "name": "itemId",
          "type": "uint256"
        },
        {
          "internalType": "uint256",
          "name": "rate",
          "type": "uint256"
        },
        {
          "internalType": "bytes",
          "name": "proof",
          "type": "bytes"
        }
      ],
      "name": "redeem",
      "outputs": [],
      "stateMutability": "nonpayable",
      "type": "function"
    },
    {
      "inputs": [
        {
          "internalType": "contract IERC20",
          "name": "token",
          "type": "address"
        },
        {
          "internalType": "uint256",
          "name": "characterId",
          "type": "uint256"
        },
        {
          "internalType": "uint256",
          "name": "itemId",
          "type": "uint256"
        },
        {
          "internalType": "uint256",
          "name": "timestamp",
          "type": "uint256"
        },
        {
          "internalType": "uint256",
          "name": "rate",
          "type": "uint256"
        }
      ],
      "name": "redeemable",
      "outputs": [
        {
          "internalType": "uint256",
          "name": "",
          "type": "uint256"
        }
      ],
      "stateMutability": "view",
      "type": "function"
    },
    {
      "inputs": [
        {
          "internalType": "contract IERC20",
          "name": "token",
          "type": "address"
        },
        {
          "internalType": "uint256",
          "name": "characterId",
          "type": "uint256"
        },
        {
          "internalType": "uint256",
          "name": "itemId",
          "type": "uint256"
        },
        {
          "internalType": "uint256",
          "name": "rate",
          "type": "uint256"
        }
      ],
      "name": "redeemable",
      "outputs": [
        {
          "internalType": "uint256",
          "name": "",
          "type": "uint256"
        }
      ],
      "stateMutability": "view",
      "type": "function"
    },
    {
      "inputs": [
        {
          "internalType": "contract IERC20",
          "name": "token",
          "type": "address"
        },
        {
          "internalType": "uint256",
          "name": "characterId",
          "type": "uint256"
        },
        {
          "internalType": "uint256",
          "name": "itemId",
          "type": "uint256"
        }
      ],
      "name": "redeemed",
      "outputs": [
        {
          "internalType": "uint256",
          "name": "",
          "type": "uint256"
        }
      ],
      "stateMutability": "view",
      "type": "function"
    },
    {
      "inputs": [
        {
          "internalType": "bytes32",
          "name": "role",
          "type": "bytes32"
        },
        {
          "internalType": "address",
          "name": "account",
          "type": "address"
        }
      ],
      "name": "renounceRole",
      "outputs": [],
      "stateMutability": "nonpayable",
      "type": "function"
    },
    {
      "inputs": [
        {
          "internalType": "bytes32",
          "name": "role",
          "type": "bytes32"
        },
        {
          "internalType": "address",
          "name": "account",
          "type": "address"
        }
      ],
      "name": "revokeRole",
      "outputs": [],
      "stateMutability": "nonpayable",
      "type": "function"
    },
    {
      "inputs": [
        {
          "internalType": "uint256",
          "name": "characterId",
          "type": "uint256"
        },
        {
          "internalType": "uint256",
          "name": "itemId",
          "type": "uint256"
        },
        {
          "internalType": "bytes",
          "name": "data",
          "type": "bytes"
        }
      ],
      "name": "safeLink",
      "outputs": [],
      "stateMutability": "nonpayable",
      "type": "function"
    },
    {
      "inputs": [
        {
          "internalType": "bytes4",
          "name": "interfaceId",
          "type": "bytes4"
        }
      ],
      "name": "supportsInterface",
      "outputs": [
        {
          "internalType": "bool",
          "name": "",
          "type": "bool"
        }
      ],
      "stateMutability": "view",
      "type": "function"
    },
    {
      "inputs": [
        {
          "internalType": "uint256",
          "name": "characterId",
          "type": "uint256"
        },
        {
          "internalType": "uint256",
          "name": "itemId",
          "type": "uint256"
        },
        {
          "internalType": "bytes",
          "name": "data",
          "type": "bytes"
        }
      ],
      "name": "unlink",
      "outputs": [],
      "stateMutability": "nonpayable",
      "type": "function"
    },
    {
      "inputs": [
        {
          "internalType": "uint256",
          "name": "characterId",
          "type": "uint256"
        },
        {
          "internalType": "uint256",
          "name": "itemId",
          "type": "uint256"
        },
        {
          "internalType": "address",
          "name": "to",
          "type": "address"
        },
        {
          "internalType": "bytes",
          "name": "data",
          "type": "bytes"
        }
      ],
      "name": "unlink",
      "outputs": [],
      "stateMutability": "nonpayable",
      "type": "function"
    },
    {
      "inputs": [
        {
          "internalType": "uint256",
          "name": "itemId",
          "type": "uint256"
        },
        {
          "internalType": "bool",
          "name": "yes",
          "type": "bool"
        }
      ],
      "name": "unlinkable",
      "outputs": [],
      "stateMutability": "nonpayable",
      "type": "function"
    },
    {
      "inputs": [
        {
          "internalType": "address",
          "name": "recipient",
          "type": "address"
        }
      ],
      "name": "withdraw",
      "outputs": [],
      "stateMutability": "nonpayable",
      "type": "function"
    },
    {
      "inputs": [
        {
          "internalType": "contract IERC20",
          "name": "erc20",
          "type": "address"
        },
        {
          "internalType": "address",
          "name": "recipient",
          "type": "address"
        },
        {
          "internalType": "uint256",
          "name": "amount",
          "type": "uint256"
        }
      ],
      "name": "withdraw",
      "outputs": [],
      "stateMutability": "nonpayable",
      "type": "function"
    }
  ],
  "bytecode": "0x60806040523480156200001157600080fd5b506040516200271e3803806200271e8339810160408190526200003491620000e6565b600160009081556200004790826200004e565b5062000118565b6200005a82826200005e565b5050565b60008281526001602090815260408083206001600160a01b038516845290915290205460ff166200005a5760008281526001602081815260408084206001600160a01b0386168086529252808420805460ff19169093179092559051339285917f2f8788117e7eff1d82e926ec794901d17c78024a50270940304540a733656f0d9190a45050565b600060208284031215620000f957600080fd5b81516001600160a01b03811681146200011157600080fd5b9392505050565b6125f680620001286000396000f3fe6080604052600436106101665760003560e01c80638e309644116100d1578063bc197c811161008a578063d9caed1211610064578063d9caed1214610468578063e07b298d14610488578063e1d73339146104a8578063f23a6e61146104c857600080fd5b8063bc197c81146103e0578063c8d5350814610428578063d547741f1461044857600080fd5b80638e309644146103145780638f7f9a831461033457806391d1485414610354578063a217fddf14610374578063adcbd3b014610389578063b49c99b8146103c057600080fd5b80633fd09ee0116101235780633fd09ee0146102615780634a9eee691461028157806351cff8d91461029457806367302b8e146102b457806371612b8e146102d4578063718cecce146102f457600080fd5b806301ffc9a71461016b5780631b2ef1ca146101a0578063248a9ca3146101c25780632d6c089c146102015780632f2ff15d1461022157806336568abe14610241575b600080fd5b34801561017757600080fd5b5061018b610186366004611d6d565b6104f5565b60405190151581526020015b60405180910390f35b3480156101ac57600080fd5b506101c06101bb366004611d97565b61052c565b005b3480156101ce57600080fd5b506101f36101dd366004611db9565b6000908152600160208190526040909120015490565b604051908152602001610197565b34801561020d57600080fd5b506101c061021c366004611de0565b610554565b34801561022d57600080fd5b506101c061023c366004611e25565b6105a0565b34801561024d57600080fd5b506101c061025c366004611e25565b6105c7565b34801561026d57600080fd5b506101f361027c366004611e4a565b61064a565b6101c061028f366004611f22565b6106e2565b3480156102a057600080fd5b506101c06102af366004611f7c565b6107cf565b3480156102c057600080fd5b506101c06102cf366004611fdb565b610865565b3480156102e057600080fd5b506101f36102ef36600461202e565b61096f565b34801561030057600080fd5b506101c061030f366004611fdb565b6109b0565b34801561032057600080fd5b506101f361032f366004612072565b610a7e565b34801561034057600080fd5b506101c061034f3660046120ad565b610a8d565b34801561036057600080fd5b5061018b61036f366004611e25565b610ae4565b34801561038057600080fd5b506101f3600081565b34801561039557600080fd5b506101f36103a4366004611d97565b6000908152600260209081526040808320938352929052205490565b3480156103cc57600080fd5b506101c06103db3660046120db565b610b0f565b3480156103ec57600080fd5b5061040f6103fb36600461218d565b63bc197c8160e01b98975050505050505050565b6040516001600160e01b03199091168152602001610197565b34801561043457600080fd5b506101c061044336600461224c565b610cd8565b34801561045457600080fd5b506101c0610463366004611e25565b610ded565b34801561047457600080fd5b506101c06104833660046122b6565b610e14565b34801561049457600080fd5b506101c06104a3366004611fdb565b610ead565b3480156104b457600080fd5b506101c06104c33660046120db565b610f3e565b3480156104d457600080fd5b5061040f6104e33660046122f7565b63f23a6e6160e01b9695505050505050565b60006001600160e01b03198216637965db0b60e01b148061052657506301ffc9a760e01b6001600160e01b03198316145b92915050565b6000805160206125a1833981519152610545813361112e565b61054f8383611192565b505050565b7f850d585eb7f024ccee5e68e55f2c26cc72e1e6ee456acf62135757a5eb9d4a1061057f813361112e565b50600091825260056020526040909120805460ff1916911515919091179055565b600082815260016020819052604090912001546105bd813361112e565b61054f8383611228565b6001600160a01b038116331461063c5760405162461bcd60e51b815260206004820152602f60248201527f416363657373436f6e74726f6c3a2063616e206f6e6c792072656e6f756e636560448201526e103937b632b9903337b91039b2b63360891b60648201526084015b60405180910390fd5b6106468282611293565b5050565b600081815260036020908152604080832085845282528083206001600160a01b038716845282528083205484845260028352818420868552909252822054116106bd57600082815260036020908152604080832086845282528083206001600160a01b03881684529091529020546106d8565b60008281526002602090815260408083208684529091529020545b90505b9392505050565b8115806106ee57508134105b806107a15750604051631b5a5b9d60e21b602082015260248101859052604481018490526064810183905261079f906000805160206125a18339815191529061036f90610799906084015b60408051601f1981840301815282825280516020918201207f19457468657265756d205369676e6564204d6573736167653a0a33320000000084830152603c8085019190915282518085039091018152605c909301909152815191012090565b846112fa565b155b156107bf5760405163574b16a760e11b815260040160405180910390fd5b6107c98484611192565b50505050565b600260005414156108225760405162461bcd60e51b815260206004820152601f60248201527f5265656e7472616e637947756172643a207265656e7472616e742063616c6c006044820152606401610633565b60026000557f0914bb97ca83e85ef385857d9d418f187ff630589e0c9f44db92976d8e4519cb610852813361112e565b61085c824761131e565b50506001600055565b60008061087185611437565b6040516331a9108f60e11b81526004810182905291935091506001600160a01b03831690636352211e9060240160206040518083038186803b1580156108b657600080fd5b505afa9250505080156108e6575060408051601f3d908101601f191682019092526108e391810190612373565b60015b610933573d808015610914576040519150601f19603f3d011682016040523d82523d6000602084013e610919565b606091505b5060405163574b16a760e11b815260040160405180910390fd5b6001600160a01b03811661095a5760405163574b16a760e11b815260040160405180910390fd5b5061096786868686610ead565b505050505050565b60008061097d87878761064a565b90508061098e5760009150506109a7565b8261099982866123a6565b6109a391906123bd565b9150505b95945050505050565b7f850d585eb7f024ccee5e68e55f2c26cc72e1e6ee456acf62135757a5eb9d4a106109db813361112e565b6000806109e787611437565b91509150610a758787846001600160a01b0316636352211e856040518263ffffffff1660e01b8152600401610a1e91815260200190565b60206040518083038186803b158015610a3657600080fd5b505afa158015610a4a573d6000803e3d6000fd5b505050506040513d601f19601f82011682018060405250810190610a6e9190612373565b8888611457565b50505050505050565b60006109a7858585428661096f565b7f850d585eb7f024ccee5e68e55f2c26cc72e1e6ee456acf62135757a5eb9d4a10610ab8813361112e565b506001600160a01b03919091166000908152600460205260409020805460ff1916911515919091179055565b60009182526001602090815260408084206001600160a01b0393909316845291905290205460ff1690565b811580610b7b5750604051631b5a5b9d60e21b60208201526bffffffffffffffffffffffff19606087901b166024820152603881018590526058810184905260788101839052610b79906000805160206125a18339815191529061036f9061079990609801610739565b155b15610b995760405163574b16a760e11b815260040160405180910390fd5b6001600160a01b03851660009081526004602052604090205460ff1615610c2f576001600160a01b0385166379cc6790336040516001600160e01b031960e084901b1681526001600160a01b03909116600482015260248101859052604401600060405180830381600087803b158015610c1257600080fd5b505af1158015610c26573d6000803e3d6000fd5b50505050610cc7565b6001600160a01b0385166323b872dd336040516001600160e01b031960e084901b1681526001600160a01b03909116600482015230602482015260448101859052606401602060405180830381600087803b158015610c8d57600080fd5b505af1158015610ca1573d6000803e3d6000fd5b505050506040513d601f19601f82011682018060405250810190610cc591906123dc565b505b610cd18484611192565b5050505050565b60008481526005602052604090205460ff16610d075760405163574b16a760e11b815260040160405180910390fd5b600080610d1387611437565b6040516331a9108f60e11b81526004810182905291935091506001600160a01b03831690636352211e9060240160206040518083038186803b158015610d5857600080fd5b505afa925050508015610d88575060408051601f3d908101601f19168201909252610d8591810190612373565b60015b610db6573d808015610914576040519150601f19603f3d011682016040523d82523d6000602084013e610919565b6001600160a01b0381163314610ddf5760405163574b16a760e11b815260040160405180910390fd5b50610a758787878787611457565b60008281526001602081905260409091200154610e0a813361112e565b61054f8383611293565b60026000541415610e675760405162461bcd60e51b815260206004820152601f60248201527f5265656e7472616e637947756172643a207265656e7472616e742063616c6c006044820152606401610633565b60026000557f0914bb97ca83e85ef385857d9d418f187ff630589e0c9f44db92976d8e4519cb610e97813361112e565b610ea2848484611564565b505060016000555050565b610eb784846115b6565b600080610ec385611437565b91509150816001600160a01b031663f242432a610edd3390565b3084600189896040518763ffffffff1660e01b8152600401610f04969594939291906123f9565b600060405180830381600087803b158015610f1e57600080fd5b505af1158015610f32573d6000803e3d6000fd5b50505050505050505050565b6040516572656465656d60d01b60208201526bffffffffffffffffffffffff19606087901b166026820152603a8101849052605a8101839052610f9b906000805160206125a18339815191529061036f9061079990607a01610739565b610fb85760405163574b16a760e11b815260040160405180910390fd5b33600080610fc587611437565b91509150826001600160a01b0316826001600160a01b0316636352211e836040518263ffffffff1660e01b815260040161100191815260200190565b60206040518083038186803b15801561101957600080fd5b505afa15801561102d573d6000803e3d6000fd5b505050506040513d601f19601f820116820180604052508101906110519190612373565b6001600160a01b0316146110785760405163574b16a760e11b815260040160405180910390fd5b600061108689898989610a7e565b60008881526003602090815260408083208c845282528083206001600160a01b038e811680865291845293829020429055815193891660248501526044808501869052825180860390910181526064909401825283830180516001600160e01b03166340c10f1960e01b17905281518083019092526015825274131bddcb5b195d995b081b5a5b9d0819985a5b1959605a1b92820192909252929350610f3292909190611645565b6111388282610ae4565b61064657611150816001600160a01b03166014611654565b61115b836020611654565b60405160200161116c929190612481565b60408051601f198184030181529082905262461bcd60e51b8252610633916004016124f6565b61119c82826115b6565b6000806111a883611437565b60405163731133e960e01b81523060048201526024810182905260016044820152608060648201526000608482015291935091506001600160a01b0383169063731133e99060a401600060405180830381600087803b15801561120a57600080fd5b505af115801561121e573d6000803e3d6000fd5b5050505050505050565b6112328282610ae4565b6106465760008281526001602081815260408084206001600160a01b0386168086529252808420805460ff19169093179092559051339285917f2f8788117e7eff1d82e926ec794901d17c78024a50270940304540a733656f0d9190a45050565b61129d8282610ae4565b156106465760008281526001602090815260408083206001600160a01b0385168085529252808320805460ff1916905551339285917ff6391f5c32d9c69d2a47ea670b442974b53935d1edc7fd64eb21e047a839171b9190a45050565b600080600061130985856117f0565b9150915061131681611860565b509392505050565b8047101561136e5760405162461bcd60e51b815260206004820152601d60248201527f416464726573733a20696e73756666696369656e742062616c616e63650000006044820152606401610633565b6000826001600160a01b03168260405160006040518083038185875af1925050503d80600081146113bb576040519150601f19603f3d011682016040523d82523d6000602084013e6113c0565b606091505b505090508061054f5760405162461bcd60e51b815260206004820152603a60248201527f416464726573733a20756e61626c6520746f2073656e642076616c75652c207260448201527f6563697069656e74206d617920686176652072657665727465640000000000006064820152608401610633565b6000806001600160a01b03831661144e8460a01c90565b91509150915091565b600084815260026020908152604080832088845290915290205461148e5760405163574b16a760e11b815260040160405180910390fd5b60008061149a86611437565b604051637921219560e11b815291935091506001600160a01b0383169063f242432a906114d6903090899086906001908b908b906004016123f9565b600060405180830381600087803b1580156114f057600080fd5b505af1158015611504573d6000803e3d6000fd5b50505060008781526002602090815260408083208b845282528083209290925581518a81529081018990527f244074e17b6c066142a9fd02bb2ce3bab21474ab8d82f6fb636477d5910b4f4792500160405180910390a150505050505050565b604080516001600160a01b038416602482015260448082018490528251808303909101815260649091019091526020810180516001600160e01b031663a9059cbb60e01b17905261054f908490611a1e565b6000818152600260209081526040808320858452909152902054156115ee5760405163574b16a760e11b815260040160405180910390fd5b600081815260026020908152604080832085845282529182902042905581518481529081018390527f5c5cd575fdb16d05d1dfa7c30de22f36a5a1ecee8a750071b8f5d54485a21189910160405180910390a15050565b60606106d88484600085611af0565b606060006116638360026123bd565b61166e906002612529565b67ffffffffffffffff81111561168657611686611e7f565b6040519080825280601f01601f1916602001820160405280156116b0576020820181803683370190505b509050600360fc1b816000815181106116cb576116cb612541565b60200101906001600160f81b031916908160001a905350600f60fb1b816001815181106116fa576116fa612541565b60200101906001600160f81b031916908160001a905350600061171e8460026123bd565b611729906001612529565b90505b60018111156117a1576f181899199a1a9b1b9c1cb0b131b232b360811b85600f166010811061175d5761175d612541565b1a60f81b82828151811061177357611773612541565b60200101906001600160f81b031916908160001a90535060049490941c9361179a81612557565b905061172c565b5083156106db5760405162461bcd60e51b815260206004820181905260248201527f537472696e67733a20686578206c656e67746820696e73756666696369656e746044820152606401610633565b6000808251604114156118275760208301516040840151606085015160001a61181b87828585611c18565b94509450505050611859565b8251604014156118515760208301516040840151611846868383611d05565b935093505050611859565b506000905060025b9250929050565b60008160048111156118745761187461256e565b141561187d5750565b60018160048111156118915761189161256e565b14156118df5760405162461bcd60e51b815260206004820152601860248201527f45434453413a20696e76616c6964207369676e617475726500000000000000006044820152606401610633565b60028160048111156118f3576118f361256e565b14156119415760405162461bcd60e51b815260206004820152601f60248201527f45434453413a20696e76616c6964207369676e6174757265206c656e677468006044820152606401610633565b60038160048111156119555761195561256e565b14156119ae5760405162461bcd60e51b815260206004820152602260248201527f45434453413a20696e76616c6964207369676e6174757265202773272076616c604482015261756560f01b6064820152608401610633565b60048160048111156119c2576119c261256e565b1415611a1b5760405162461bcd60e51b815260206004820152602260248201527f45434453413a20696e76616c6964207369676e6174757265202776272076616c604482015261756560f01b6064820152608401610633565b50565b6000611a73826040518060400160405280602081526020017f5361666545524332303a206c6f772d6c6576656c2063616c6c206661696c6564815250856001600160a01b03166116459092919063ffffffff16565b80519091501561054f5780806020019051810190611a9191906123dc565b61054f5760405162461bcd60e51b815260206004820152602a60248201527f5361666545524332303a204552433230206f7065726174696f6e20646964206e6044820152691bdd081cdd58d8d9595960b21b6064820152608401610633565b606082471015611b515760405162461bcd60e51b815260206004820152602660248201527f416464726573733a20696e73756666696369656e742062616c616e636520666f6044820152651c8818d85b1b60d21b6064820152608401610633565b843b611b9f5760405162461bcd60e51b815260206004820152601d60248201527f416464726573733a2063616c6c20746f206e6f6e2d636f6e74726163740000006044820152606401610633565b600080866001600160a01b03168587604051611bbb9190612584565b60006040518083038185875af1925050503d8060008114611bf8576040519150601f19603f3d011682016040523d82523d6000602084013e611bfd565b606091505b5091509150611c0d828286611d34565b979650505050505050565b6000807f7fffffffffffffffffffffffffffffff5d576e7357a4501ddfe92f46681b20a0831115611c4f5750600090506003611cfc565b8460ff16601b14158015611c6757508460ff16601c14155b15611c785750600090506004611cfc565b6040805160008082526020820180845289905260ff881692820192909252606081018690526080810185905260019060a0016020604051602081039080840390855afa158015611ccc573d6000803e3d6000fd5b5050604051601f1901519150506001600160a01b038116611cf557600060019250925050611cfc565b9150600090505b94509492505050565b6000806001600160ff1b03831660ff84901c601b01611d2687828885611c18565b935093505050935093915050565b60608315611d435750816106db565b825115611d535782518084602001fd5b8160405162461bcd60e51b815260040161063391906124f6565b600060208284031215611d7f57600080fd5b81356001600160e01b0319811681146106db57600080fd5b60008060408385031215611daa57600080fd5b50508035926020909101359150565b600060208284031215611dcb57600080fd5b5035919050565b8015158114611a1b57600080fd5b60008060408385031215611df357600080fd5b823591506020830135611e0581611dd2565b809150509250929050565b6001600160a01b0381168114611a1b57600080fd5b60008060408385031215611e3857600080fd5b823591506020830135611e0581611e10565b600080600060608486031215611e5f57600080fd5b8335611e6a81611e10565b95602085013595506040909401359392505050565b634e487b7160e01b600052604160045260246000fd5b600082601f830112611ea657600080fd5b813567ffffffffffffffff80821115611ec157611ec1611e7f565b604051601f8301601f19908116603f01168101908282118183101715611ee957611ee9611e7f565b81604052838152866020858801011115611f0257600080fd5b836020870160208301376000602085830101528094505050505092915050565b60008060008060808587031215611f3857600080fd5b843593506020850135925060408501359150606085013567ffffffffffffffff811115611f6457600080fd5b611f7087828801611e95565b91505092959194509250565b600060208284031215611f8e57600080fd5b81356106db81611e10565b60008083601f840112611fab57600080fd5b50813567ffffffffffffffff811115611fc357600080fd5b60208301915083602082850101111561185957600080fd5b60008060008060608587031215611ff157600080fd5b8435935060208501359250604085013567ffffffffffffffff81111561201657600080fd5b61202287828801611f99565b95989497509550505050565b600080600080600060a0868803121561204657600080fd5b853561205181611e10565b97602087013597506040870135966060810135965060800135945092505050565b6000806000806080858703121561208857600080fd5b843561209381611e10565b966020860135965060408601359560600135945092505050565b600080604083850312156120c057600080fd5b82356120cb81611e10565b91506020830135611e0581611dd2565b600080600080600060a086880312156120f357600080fd5b85356120fe81611e10565b9450602086013593506040860135925060608601359150608086013567ffffffffffffffff81111561212f57600080fd5b61213b88828901611e95565b9150509295509295909350565b60008083601f84011261215a57600080fd5b50813567ffffffffffffffff81111561217257600080fd5b6020830191508360208260051b850101111561185957600080fd5b60008060008060008060008060a0898b0312156121a957600080fd5b88356121b481611e10565b975060208901356121c481611e10565b9650604089013567ffffffffffffffff808211156121e157600080fd5b6121ed8c838d01612148565b909850965060608b013591508082111561220657600080fd5b6122128c838d01612148565b909650945060808b013591508082111561222b57600080fd5b506122388b828c01611f99565b999c989b5096995094979396929594505050565b60008060008060006080868803121561226457600080fd5b8535945060208601359350604086013561227d81611e10565b9250606086013567ffffffffffffffff81111561229957600080fd5b6122a588828901611f99565b969995985093965092949392505050565b6000806000606084860312156122cb57600080fd5b83356122d681611e10565b925060208401356122e681611e10565b929592945050506040919091013590565b60008060008060008060a0878903121561231057600080fd5b863561231b81611e10565b9550602087013561232b81611e10565b94506040870135935060608701359250608087013567ffffffffffffffff81111561235557600080fd5b61236189828a01611f99565b979a9699509497509295939492505050565b60006020828403121561238557600080fd5b81516106db81611e10565b634e487b7160e01b600052601160045260246000fd5b6000828210156123b8576123b8612390565b500390565b60008160001904831182151516156123d7576123d7612390565b500290565b6000602082840312156123ee57600080fd5b81516106db81611dd2565b6001600160a01b03878116825286166020820152604081018590526060810184905260a06080820181905281018290526000828460c0840137600060c0848401015260c0601f19601f8501168301019050979650505050505050565b60005b83811015612470578181015183820152602001612458565b838111156107c95750506000910152565b7f416363657373436f6e74726f6c3a206163636f756e74200000000000000000008152600083516124b9816017850160208801612455565b7001034b99036b4b9b9b4b733903937b6329607d1b60179184019182015283516124ea816028840160208801612455565b01602801949350505050565b6020815260008251806020840152612515816040850160208701612455565b601f01601f19169190910160400192915050565b6000821982111561253c5761253c612390565b500190565b634e487b7160e01b600052603260045260246000fd5b60008161256657612566612390565b506000190190565b634e487b7160e01b600052602160045260246000fd5b60008251612596818460208701612455565b919091019291505056fe9f2df0fed2c77648de5860a4cc508cd0818c85b8b8a1ab4ceeef8d981c8956a6a26469706673582212203fc314b839f90f32bb021ca13a58cd38044fca7203c98a955f387add138dcc2664736f6c63430008090033",
  "linkReferences": {},
  "deployedLinkReferences": {}
}