{
  "_format": "hh-sol-artifact-1",
  "contractName": "CashCowsClubMetadata",
  "sourceName": "contracts/phase3/CashCowsClubMetadata.sol",
  "abi": [
    {
      "inputs": [],
      "name": "InvalidCall",
      "type": "error"
    },
    {
      "anonymous": false,
      "inputs": [
        {
          "indexed": true,
          "internalType": "address",
          "name": "previousOwner",
          "type": "address"
        },
        {
          "indexed": true,
          "internalType": "address",
          "name": "newOwner",
          "type": "address"
        }
      ],
      "name": "OwnershipTransferred",
      "type": "event"
    },
    {
      "inputs": [],
      "name": "owner",
      "outputs": [
        {
          "internalType": "address",
          "name": "",
          "type": "address"
        }
      ],
      "stateMutability": "view",
      "type": "function"
    },
    {
      "inputs": [],
      "name": "renounceOwnership",
      "outputs": [],
      "stateMutability": "nonpayable",
      "type": "function"
    },
    {
      "inputs": [
        {
          "internalType": "string",
          "name": "uri",
          "type": "string"
        }
      ],
      "name": "setBaseURI",
      "outputs": [],
      "stateMutability": "nonpayable",
      "type": "function"
    },
    {
      "inputs": [
        {
          "internalType": "uint256",
          "name": "tokenId",
          "type": "uint256"
        }
      ],
      "name": "tokenURI",
      "outputs": [
        {
          "internalType": "string",
          "name": "",
          "type": "string"
        }
      ],
      "stateMutability": "view",
      "type": "function"
    },
    {
      "inputs": [
        {
          "internalType": "address",
          "name": "newOwner",
          "type": "address"
        }
      ],
      "name": "transferOwnership",
      "outputs": [],
      "stateMutability": "nonpayable",
      "type": "function"
    }
  ],
  "bytecode": "0x608060405234801561001057600080fd5b5061001a3361001f565b61006f565b600080546001600160a01b038381166001600160a01b0319831681178455604051919092169283917f8be0079c531659141344cd1fd0a4f28419497f9722a3daafe3b4186f6b6457e09190a35050565b6107dc8061007e6000396000f3fe608060405234801561001057600080fd5b50600436106100575760003560e01c806355f804b31461005c578063715018a6146100715780638da5cb5b14610079578063c87b56dd14610099578063f2fde38b146100b9575b600080fd5b61006f61006a36600461044e565b6100cc565b005b61006f610116565b6000546040516001600160a01b0390911681526020015b60405180910390f35b6100ac6100a73660046104ff565b61014c565b6040516100909190610548565b61006f6100c736600461057b565b6101ae565b6000546001600160a01b031633146100ff5760405162461bcd60e51b81526004016100f6906105ab565b60405180910390fd5b805161011290600190602084019061039f565b5050565b6000546001600160a01b031633146101405760405162461bcd60e51b81526004016100f6906105ab565b61014a6000610249565b565b60606001805461015b906105e0565b1515905061017c5760405163574b16a760e11b815260040160405180910390fd5b600161018783610299565b604051602001610198929190610637565b6040516020818303038152906040529050919050565b6000546001600160a01b031633146101d85760405162461bcd60e51b81526004016100f6906105ab565b6001600160a01b03811661023d5760405162461bcd60e51b815260206004820152602660248201527f4f776e61626c653a206e6577206f776e657220697320746865207a65726f206160448201526564647265737360d01b60648201526084016100f6565b61024681610249565b50565b600080546001600160a01b038381166001600160a01b0319831681178455604051919092169283917f8be0079c531659141344cd1fd0a4f28419497f9722a3daafe3b4186f6b6457e09190a35050565b6060816102bd5750506040805180820190915260018152600360fc1b602082015290565b8160005b81156102e757806102d181610708565b91506102e09050600a83610739565b91506102c1565b60008167ffffffffffffffff81111561030257610302610438565b6040519080825280601f01601f19166020018201604052801561032c576020820181803683370190505b5090505b84156103975761034160018361074d565b915061034e600a86610764565b610359906030610778565b60f81b81838151811061036e5761036e610790565b60200101906001600160f81b031916908160001a905350610390600a86610739565b9450610330565b949350505050565b8280546103ab906105e0565b90600052602060002090601f0160209004810192826103cd5760008555610413565b82601f106103e657805160ff1916838001178555610413565b82800160010185558215610413579182015b828111156104135782518255916020019190600101906103f8565b5061041f929150610423565b5090565b5b8082111561041f5760008155600101610424565b634e487b7160e01b600052604160045260246000fd5b60006020828403121561046057600080fd5b813567ffffffffffffffff8082111561047857600080fd5b818401915084601f83011261048c57600080fd5b81358181111561049e5761049e610438565b604051601f8201601f19908116603f011681019083821181831017156104c6576104c6610438565b816040528281528760208487010111156104df57600080fd5b826020860160208301376000928101602001929092525095945050505050565b60006020828403121561051157600080fd5b5035919050565b60005b8381101561053357818101518382015260200161051b565b83811115610542576000848401525b50505050565b6020815260008251806020840152610567816040850160208701610518565b601f01601f19169190910160400192915050565b60006020828403121561058d57600080fd5b81356001600160a01b03811681146105a457600080fd5b9392505050565b6020808252818101527f4f776e61626c653a2063616c6c6572206973206e6f7420746865206f776e6572604082015260600190565b600181811c908216806105f457607f821691505b6020821081141561061557634e487b7160e01b600052602260045260246000fd5b50919050565b6000815161062d818560208601610518565b9290920192915050565b600080845481600182811c91508083168061065357607f831692505b602080841082141561067357634e487b7160e01b86526022600452602486fd5b8180156106875760018114610698576106c5565b60ff198616895284890196506106c5565b60008b81526020902060005b868110156106bd5781548b8201529085019083016106a4565b505084890196505b5050505050506106e96106d8828661061b565b64173539b7b760d91b815260050190565b95945050505050565b634e487b7160e01b600052601160045260246000fd5b600060001982141561071c5761071c6106f2565b5060010190565b634e487b7160e01b600052601260045260246000fd5b60008261074857610748610723565b500490565b60008282101561075f5761075f6106f2565b500390565b60008261077357610773610723565b500690565b6000821982111561078b5761078b6106f2565b500190565b634e487b7160e01b600052603260045260246000fdfea26469706673582212206d281dd372cbeea6c62fcdf8fa2cfa045e05958df326d9cab12dd0c71d4bc94864736f6c63430008090033",
  "linkReferences": {},
  "deployedLinkReferences": {}
}