{
  "_format": "hh-sol-artifact-1",
  "contractName": "CashCowsClubMetadata",
  "sourceName": "contracts/phase3/CashCowsClubMetadata.sol",
  "abi": [
    {
      "inputs": [],
      "name": "InvalidCall",
      "type": "error"
    },
    {
      "anonymous": false,
      "inputs": [
        {
          "indexed": true,
          "internalType": "address",
          "name": "previousOwner",
          "type": "address"
        },
        {
          "indexed": true,
          "internalType": "address",
          "name": "newOwner",
          "type": "address"
        }
      ],
      "name": "OwnershipTransferred",
      "type": "event"
    },
    {
      "inputs": [],
      "name": "owner",
      "outputs": [
        {
          "internalType": "address",
          "name": "",
          "type": "address"
        }
      ],
      "stateMutability": "view",
      "type": "function"
    },
    {
      "inputs": [],
      "name": "renounceOwnership",
      "outputs": [],
      "stateMutability": "nonpayable",
      "type": "function"
    },
    {
      "inputs": [
        {
          "internalType": "string",
          "name": "uri",
          "type": "string"
        }
      ],
      "name": "setBaseURI",
      "outputs": [],
      "stateMutability": "nonpayable",
      "type": "function"
    },
    {
      "inputs": [
        {
          "internalType": "uint256",
          "name": "number",
          "type": "uint256"
        },
        {
          "internalType": "uint256",
          "name": "limit",
          "type": "uint256"
        }
      ],
      "name": "setStage",
      "outputs": [],
      "stateMutability": "nonpayable",
      "type": "function"
    },
    {
      "inputs": [
        {
          "internalType": "contract IRoyaltySplitter",
          "name": "treasury",
          "type": "address"
        }
      ],
      "name": "setTreasury",
      "outputs": [],
      "stateMutability": "nonpayable",
      "type": "function"
    },
    {
      "inputs": [
        {
          "internalType": "uint256",
          "name": "tokenId",
          "type": "uint256"
        }
      ],
      "name": "stage",
      "outputs": [
        {
          "internalType": "uint256",
          "name": "",
          "type": "uint256"
        }
      ],
      "stateMutability": "view",
      "type": "function"
    },
    {
      "inputs": [
        {
          "internalType": "uint256",
          "name": "tokenId",
          "type": "uint256"
        }
      ],
      "name": "tokenURI",
      "outputs": [
        {
          "internalType": "string",
          "name": "",
          "type": "string"
        }
      ],
      "stateMutability": "view",
      "type": "function"
    },
    {
      "inputs": [
        {
          "internalType": "address",
          "name": "newOwner",
          "type": "address"
        }
      ],
      "name": "transferOwnership",
      "outputs": [],
      "stateMutability": "nonpayable",
      "type": "function"
    }
  ],
  "bytecode": "0x608060405234801561001057600080fd5b5061001a3361001f565b61006f565b600080546001600160a01b038381166001600160a01b0319831681178455604051919092169283917f8be0079c531659141344cd1fd0a4f28419497f9722a3daafe3b4186f6b6457e09190a35050565b610a548061007e6000396000f3fe608060405234801561001057600080fd5b50600436106100885760003560e01c80638da5cb5b1161005b5780638da5cb5b146100e3578063c87b56dd146100fe578063f0f442601461011e578063f2fde38b1461013157600080fd5b806354d9eef61461008d57806355f7bde4146100b357806355f804b3146100c8578063715018a6146100db575b600080fd5b6100a061009b366004610652565b610144565b6040519081526020015b60405180910390f35b6100c66100c136600461066b565b610254565b005b6100c66100d63660046106a3565b610299565b6100c66102da565b6000546040516001600160a01b0390911681526020016100aa565b61011161010c366004610652565b610310565b6040516100aa9190610784565b6100c661012c3660046107cc565b610384565b6100c661013f3660046107cc565b6103d0565b6003546000906001600160a01b03166101705760405163574b16a760e11b815260040160405180910390fd5b6003546040516332c17a7d60e11b8152600481018490526000916001600160a01b031690636582f4fa9060240160206040518083038186803b1580156101b557600080fd5b505afa1580156101c9573d6000803e3d6000fd5b505050506040513d601f19601f820116820180604052508101906101ed91906107f0565b905060005b60008181526002602052604090205461022557801561021b5761021660018261081f565b61021d565b805b949350505050565b600081815260026020526040902054821015610242579392505050565b8061024c81610836565b9150506101f2565b6000546001600160a01b031633146102875760405162461bcd60e51b815260040161027e90610851565b60405180910390fd5b60009182526002602052604090912055565b6000546001600160a01b031633146102c35760405162461bcd60e51b815260040161027e90610851565b80516102d69060019060208401906105b9565b5050565b6000546001600160a01b031633146103045760405162461bcd60e51b815260040161027e90610851565b61030e600061046b565b565b60606001805461031f90610886565b151590506103405760405163574b16a760e11b815260040160405180910390fd5b600161034b836104bb565b61035c61035785610144565b6104bb565b60405160200161036e939291906108dd565b6040516020818303038152906040529050919050565b6000546001600160a01b031633146103ae5760405162461bcd60e51b815260040161027e90610851565b600380546001600160a01b0319166001600160a01b0392909216919091179055565b6000546001600160a01b031633146103fa5760405162461bcd60e51b815260040161027e90610851565b6001600160a01b03811661045f5760405162461bcd60e51b815260206004820152602660248201527f4f776e61626c653a206e6577206f776e657220697320746865207a65726f206160448201526564647265737360d01b606482015260840161027e565b6104688161046b565b50565b600080546001600160a01b038381166001600160a01b0319831681178455604051919092169283917f8be0079c531659141344cd1fd0a4f28419497f9722a3daafe3b4186f6b6457e09190a35050565b6060816104df5750506040805180820190915260018152600360fc1b602082015290565b8160005b811561050957806104f381610836565b91506105029050600a836109c8565b91506104e3565b60008167ffffffffffffffff8111156105245761052461068d565b6040519080825280601f01601f19166020018201604052801561054e576020820181803683370190505b5090505b841561021d5761056360018361081f565b9150610570600a866109dc565b61057b9060306109f0565b60f81b81838151811061059057610590610a08565b60200101906001600160f81b031916908160001a9053506105b2600a866109c8565b9450610552565b8280546105c590610886565b90600052602060002090601f0160209004810192826105e7576000855561062d565b82601f1061060057805160ff191683800117855561062d565b8280016001018555821561062d579182015b8281111561062d578251825591602001919060010190610612565b5061063992915061063d565b5090565b5b80821115610639576000815560010161063e565b60006020828403121561066457600080fd5b5035919050565b6000806040838503121561067e57600080fd5b50508035926020909101359150565b634e487b7160e01b600052604160045260246000fd5b6000602082840312156106b557600080fd5b813567ffffffffffffffff808211156106cd57600080fd5b818401915084601f8301126106e157600080fd5b8135818111156106f3576106f361068d565b604051601f8201601f19908116603f0116810190838211818310171561071b5761071b61068d565b8160405282815287602084870101111561073457600080fd5b826020860160208301376000928101602001929092525095945050505050565b60005b8381101561076f578181015183820152602001610757565b8381111561077e576000848401525b50505050565b60208152600082518060208401526107a3816040850160208701610754565b601f01601f19169190910160400192915050565b6001600160a01b038116811461046857600080fd5b6000602082840312156107de57600080fd5b81356107e9816107b7565b9392505050565b60006020828403121561080257600080fd5b5051919050565b634e487b7160e01b600052601160045260246000fd5b60008282101561083157610831610809565b500390565b600060001982141561084a5761084a610809565b5060010190565b6020808252818101527f4f776e61626c653a2063616c6c6572206973206e6f7420746865206f776e6572604082015260600190565b600181811c9082168061089a57607f821691505b602082108114156108bb57634e487b7160e01b600052602260045260246000fd5b50919050565b600081516108d3818560208601610754565b9290920192915050565b600080855481600182811c9150808316806108f957607f831692505b602080841082141561091957634e487b7160e01b86526022600452602486fd5b81801561092d576001811461093e5761096b565b60ff1986168952848901965061096b565b60008c81526020902060005b868110156109635781548b82015290850190830161094a565b505084890196505b5050505050506109a861099761099161098484896108c1565b605f60f81b815260010190565b866108c1565b64173539b7b760d91b815260050190565b9695505050505050565b634e487b7160e01b600052601260045260246000fd5b6000826109d7576109d76109b2565b500490565b6000826109eb576109eb6109b2565b500690565b60008219821115610a0357610a03610809565b500190565b634e487b7160e01b600052603260045260246000fdfea2646970667358221220798b9ee02b1c243a1ca9446a7524c2f49850781dbbfcf26344e3ce7cbb52e75a64736f6c63430008090033",
  "linkReferences": {},
  "deployedLinkReferences": {}
}