{
  "_format": "hh-sol-artifact-1",
  "contractName": "ERC721Soulbound",
  "sourceName": "contracts/ERC721Soulbound.sol",
  "abi": [
    {
      "inputs": [],
      "name": "InvalidCall",
      "type": "error"
    },
    {
      "anonymous": false,
      "inputs": [
        {
          "indexed": true,
          "internalType": "address",
          "name": "owner",
          "type": "address"
        },
        {
          "indexed": true,
          "internalType": "address",
          "name": "approved",
          "type": "address"
        },
        {
          "indexed": true,
          "internalType": "uint256",
          "name": "tokenId",
          "type": "uint256"
        }
      ],
      "name": "Approval",
      "type": "event"
    },
    {
      "anonymous": false,
      "inputs": [
        {
          "indexed": true,
          "internalType": "address",
          "name": "owner",
          "type": "address"
        },
        {
          "indexed": true,
          "internalType": "address",
          "name": "operator",
          "type": "address"
        },
        {
          "indexed": false,
          "internalType": "bool",
          "name": "approved",
          "type": "bool"
        }
      ],
      "name": "ApprovalForAll",
      "type": "event"
    },
    {
      "anonymous": false,
      "inputs": [
        {
          "indexed": true,
          "internalType": "address",
          "name": "from",
          "type": "address"
        },
        {
          "indexed": true,
          "internalType": "address",
          "name": "to",
          "type": "address"
        },
        {
          "indexed": true,
          "internalType": "uint256",
          "name": "tokenId",
          "type": "uint256"
        }
      ],
      "name": "Transfer",
      "type": "event"
    },
    {
      "inputs": [
        {
          "internalType": "uint256",
          "name": "tokenId",
          "type": "uint256"
        }
      ],
      "name": "_burn",
      "outputs": [],
      "stateMutability": "nonpayable",
      "type": "function"
    },
    {
      "inputs": [
        {
          "internalType": "address",
          "name": "",
          "type": "address"
        },
        {
          "internalType": "uint256",
          "name": "",
          "type": "uint256"
        }
      ],
      "name": "approve",
      "outputs": [],
      "stateMutability": "pure",
      "type": "function"
    },
    {
      "inputs": [
        {
          "internalType": "address",
          "name": "owner",
          "type": "address"
        }
      ],
      "name": "balanceOf",
      "outputs": [
        {
          "internalType": "uint256",
          "name": "",
          "type": "uint256"
        }
      ],
      "stateMutability": "view",
      "type": "function"
    },
    {
      "inputs": [
        {
          "internalType": "uint256",
          "name": "",
          "type": "uint256"
        }
      ],
      "name": "getApproved",
      "outputs": [
        {
          "internalType": "address",
          "name": "",
          "type": "address"
        }
      ],
      "stateMutability": "pure",
      "type": "function"
    },
    {
      "inputs": [
        {
          "internalType": "address",
          "name": "",
          "type": "address"
        },
        {
          "internalType": "address",
          "name": "",
          "type": "address"
        }
      ],
      "name": "isApprovedForAll",
      "outputs": [
        {
          "internalType": "bool",
          "name": "",
          "type": "bool"
        }
      ],
      "stateMutability": "pure",
      "type": "function"
    },
    {
      "inputs": [],
      "name": "lastId",
      "outputs": [
        {
          "internalType": "uint256",
          "name": "",
          "type": "uint256"
        }
      ],
      "stateMutability": "view",
      "type": "function"
    },
    {
      "inputs": [
        {
          "internalType": "uint256",
          "name": "tokenId",
          "type": "uint256"
        }
      ],
      "name": "ownerOf",
      "outputs": [
        {
          "internalType": "address",
          "name": "",
          "type": "address"
        }
      ],
      "stateMutability": "view",
      "type": "function"
    },
    {
      "inputs": [
        {
          "internalType": "address",
          "name": "from",
          "type": "address"
        },
        {
          "internalType": "address",
          "name": "to",
          "type": "address"
        },
        {
          "internalType": "uint256",
          "name": "tokenId",
          "type": "uint256"
        }
      ],
      "name": "safeTransferFrom",
      "outputs": [],
      "stateMutability": "pure",
      "type": "function"
    },
    {
      "inputs": [
        {
          "internalType": "address",
          "name": "",
          "type": "address"
        },
        {
          "internalType": "address",
          "name": "",
          "type": "address"
        },
        {
          "internalType": "uint256",
          "name": "",
          "type": "uint256"
        },
        {
          "internalType": "bytes",
          "name": "",
          "type": "bytes"
        }
      ],
      "name": "safeTransferFrom",
      "outputs": [],
      "stateMutability": "pure",
      "type": "function"
    },
    {
      "inputs": [
        {
          "internalType": "address",
          "name": "",
          "type": "address"
        },
        {
          "internalType": "bool",
          "name": "",
          "type": "bool"
        }
      ],
      "name": "setApprovalForAll",
      "outputs": [],
      "stateMutability": "pure",
      "type": "function"
    },
    {
      "inputs": [
        {
          "internalType": "bytes4",
          "name": "interfaceId",
          "type": "bytes4"
        }
      ],
      "name": "supportsInterface",
      "outputs": [
        {
          "internalType": "bool",
          "name": "",
          "type": "bool"
        }
      ],
      "stateMutability": "view",
      "type": "function"
    },
    {
      "inputs": [],
      "name": "totalBurned",
      "outputs": [
        {
          "internalType": "uint256",
          "name": "",
          "type": "uint256"
        }
      ],
      "stateMutability": "view",
      "type": "function"
    },
    {
      "inputs": [],
      "name": "totalSupply",
      "outputs": [
        {
          "internalType": "uint256",
          "name": "",
          "type": "uint256"
        }
      ],
      "stateMutability": "view",
      "type": "function"
    },
    {
      "inputs": [
        {
          "internalType": "address",
          "name": "",
          "type": "address"
        },
        {
          "internalType": "address",
          "name": "",
          "type": "address"
        },
        {
          "internalType": "uint256",
          "name": "",
          "type": "uint256"
        }
      ],
      "name": "transferFrom",
      "outputs": [],
      "stateMutability": "pure",
      "type": "function"
    }
  ],
  "bytecode": "0x608060405234801561001057600080fd5b5061069c806100206000396000f3fe608060405234801561001057600080fd5b50600436106100ea5760003560e01c806370a082311161008c578063b88d4fde11610066578063b88d4fde146101d5578063c1292cc3146101e3578063d89135cd146101eb578063e985e9c5146101f357600080fd5b806370a08231146101a15780639b1f9e74146101b4578063a22cb465146101c757600080fd5b806318160ddd116100c857806318160ddd1461015757806323b872dd1461016d57806342842e0e1461017b5780636352211e1461018e57600080fd5b806301ffc9a7146100ef578063081812fc14610117578063095ea7b314610142575b600080fd5b6101026100fd3660046103d6565b610209565b60405190151581526020015b60405180910390f35b61012a610125366004610407565b610240565b6040516001600160a01b03909116815260200161010e565b61015561015036600461043c565b61025b565b005b61015f610274565b60405190815260200161010e565b610155610150366004610466565b610155610189366004610466565b61028b565b61012a61019c366004610407565b6102ab565b61015f6101af3660046104a2565b6102e1565b6101556101c2366004610407565b610326565b6101556101503660046104bd565b61015561015036600461050f565b60005461015f565b60015461015f565b6101026102013660046105eb565b600092915050565b60006001600160e01b031982166380ac58cd60e01b148061023a57506301ffc9a760e01b6001600160e01b03198316145b92915050565b600060405163574b16a760e11b815260040160405180910390fd5b60405163574b16a760e11b815260040160405180910390fd5b60006001546000546102869190610634565b905090565b6102a68383836040518060200160405280600081525061025b565b505050565b6000818152600260205260408120546001600160a01b03168061023a5760405163574b16a760e11b815260040160405180910390fd5b60006001600160a01b03821661030a5760405163574b16a760e11b815260040160405180910390fd5b506001600160a01b031660009081526003602052604090205490565b6000818152600260205260409020546001600160a01b03166001805490600061034e8361064b565b90915550506001600160a01b038116600090815260036020526040812080546001929061037c908490610634565b909155505060008281526002602052604080822080546001600160a01b0319169055518391906001600160a01b038416907fddf252ad1be2c89b69c2b068fc378daa952ba7f163c4a11628f55a4df523b3ef908390a45050565b6000602082840312156103e857600080fd5b81356001600160e01b03198116811461040057600080fd5b9392505050565b60006020828403121561041957600080fd5b5035919050565b80356001600160a01b038116811461043757600080fd5b919050565b6000806040838503121561044f57600080fd5b61045883610420565b946020939093013593505050565b60008060006060848603121561047b57600080fd5b61048484610420565b925061049260208501610420565b9150604084013590509250925092565b6000602082840312156104b457600080fd5b61040082610420565b600080604083850312156104d057600080fd5b6104d983610420565b9150602083013580151581146104ee57600080fd5b809150509250929050565b634e487b7160e01b600052604160045260246000fd5b6000806000806080858703121561052557600080fd5b61052e85610420565b935061053c60208601610420565b925060408501359150606085013567ffffffffffffffff8082111561056057600080fd5b818701915087601f83011261057457600080fd5b813581811115610586576105866104f9565b604051601f8201601f19908116603f011681019083821181831017156105ae576105ae6104f9565b816040528281528a60208487010111156105c757600080fd5b82602086016020830137600060208483010152809550505050505092959194509250565b600080604083850312156105fe57600080fd5b61060783610420565b915061061560208401610420565b90509250929050565b634e487b7160e01b600052601160045260246000fd5b6000828210156106465761064661061e565b500390565b600060001982141561065f5761065f61061e565b506001019056fea264697066735822122004f01f5b17824914796deda00007a36fa00dc0efbc114ed646ca832fdf3d00a864736f6c63430008090033",
  "linkReferences": {},
  "deployedLinkReferences": {}
}