{
  "_format": "hh-sol-artifact-1",
  "contractName": "ERC721Soulbound",
  "sourceName": "contracts/ERC721Soulbound.sol",
  "abi": [
    {
      "inputs": [],
      "name": "InvalidCall",
      "type": "error"
    },
    {
      "anonymous": false,
      "inputs": [
        {
          "indexed": true,
          "internalType": "address",
          "name": "owner",
          "type": "address"
        },
        {
          "indexed": true,
          "internalType": "address",
          "name": "approved",
          "type": "address"
        },
        {
          "indexed": true,
          "internalType": "uint256",
          "name": "tokenId",
          "type": "uint256"
        }
      ],
      "name": "Approval",
      "type": "event"
    },
    {
      "anonymous": false,
      "inputs": [
        {
          "indexed": true,
          "internalType": "address",
          "name": "owner",
          "type": "address"
        },
        {
          "indexed": true,
          "internalType": "address",
          "name": "operator",
          "type": "address"
        },
        {
          "indexed": false,
          "internalType": "bool",
          "name": "approved",
          "type": "bool"
        }
      ],
      "name": "ApprovalForAll",
      "type": "event"
    },
    {
      "anonymous": false,
      "inputs": [
        {
          "indexed": true,
          "internalType": "address",
          "name": "from",
          "type": "address"
        },
        {
          "indexed": true,
          "internalType": "address",
          "name": "to",
          "type": "address"
        },
        {
          "indexed": true,
          "internalType": "uint256",
          "name": "tokenId",
          "type": "uint256"
        }
      ],
      "name": "Transfer",
      "type": "event"
    },
    {
      "inputs": [
        {
          "internalType": "address",
          "name": "",
          "type": "address"
        },
        {
          "internalType": "uint256",
          "name": "",
          "type": "uint256"
        }
      ],
      "name": "approve",
      "outputs": [],
      "stateMutability": "pure",
      "type": "function"
    },
    {
      "inputs": [
        {
          "internalType": "address",
          "name": "collection",
          "type": "address"
        },
        {
          "internalType": "uint256",
          "name": "token",
          "type": "uint256"
        }
      ],
      "name": "balanceOf",
      "outputs": [
        {
          "internalType": "uint256",
          "name": "",
          "type": "uint256"
        }
      ],
      "stateMutability": "view",
      "type": "function"
    },
    {
      "inputs": [
        {
          "internalType": "address",
          "name": "owner",
          "type": "address"
        }
      ],
      "name": "balanceOf",
      "outputs": [
        {
          "internalType": "uint256",
          "name": "",
          "type": "uint256"
        }
      ],
      "stateMutability": "view",
      "type": "function"
    },
    {
      "inputs": [
        {
          "internalType": "uint256",
          "name": "tokenId",
          "type": "uint256"
        }
      ],
      "name": "collectionIdOf",
      "outputs": [
        {
          "internalType": "uint256",
          "name": "",
          "type": "uint256"
        }
      ],
      "stateMutability": "view",
      "type": "function"
    },
    {
      "inputs": [
        {
          "internalType": "uint256",
          "name": "tokenId",
          "type": "uint256"
        }
      ],
      "name": "collectionOf",
      "outputs": [
        {
          "internalType": "address",
          "name": "collection",
          "type": "address"
        },
        {
          "internalType": "uint256",
          "name": "token",
          "type": "uint256"
        }
      ],
      "stateMutability": "view",
      "type": "function"
    },
    {
      "inputs": [
        {
          "internalType": "uint256",
          "name": "",
          "type": "uint256"
        }
      ],
      "name": "getApproved",
      "outputs": [
        {
          "internalType": "address",
          "name": "",
          "type": "address"
        }
      ],
      "stateMutability": "pure",
      "type": "function"
    },
    {
      "inputs": [
        {
          "internalType": "address",
          "name": "",
          "type": "address"
        },
        {
          "internalType": "address",
          "name": "",
          "type": "address"
        }
      ],
      "name": "isApprovedForAll",
      "outputs": [
        {
          "internalType": "bool",
          "name": "",
          "type": "bool"
        }
      ],
      "stateMutability": "pure",
      "type": "function"
    },
    {
      "inputs": [],
      "name": "lastId",
      "outputs": [
        {
          "internalType": "uint256",
          "name": "",
          "type": "uint256"
        }
      ],
      "stateMutability": "view",
      "type": "function"
    },
    {
      "inputs": [
        {
          "internalType": "uint256",
          "name": "tokenId",
          "type": "uint256"
        }
      ],
      "name": "lastOwnerOf",
      "outputs": [
        {
          "internalType": "address",
          "name": "",
          "type": "address"
        }
      ],
      "stateMutability": "view",
      "type": "function"
    },
    {
      "inputs": [
        {
          "internalType": "uint256",
          "name": "tokenId",
          "type": "uint256"
        }
      ],
      "name": "ownerOf",
      "outputs": [
        {
          "internalType": "address",
          "name": "",
          "type": "address"
        }
      ],
      "stateMutability": "view",
      "type": "function"
    },
    {
      "inputs": [
        {
          "internalType": "address",
          "name": "from",
          "type": "address"
        },
        {
          "internalType": "address",
          "name": "to",
          "type": "address"
        },
        {
          "internalType": "uint256",
          "name": "tokenId",
          "type": "uint256"
        }
      ],
      "name": "safeTransferFrom",
      "outputs": [],
      "stateMutability": "pure",
      "type": "function"
    },
    {
      "inputs": [
        {
          "internalType": "address",
          "name": "",
          "type": "address"
        },
        {
          "internalType": "address",
          "name": "",
          "type": "address"
        },
        {
          "internalType": "uint256",
          "name": "",
          "type": "uint256"
        },
        {
          "internalType": "bytes",
          "name": "",
          "type": "bytes"
        }
      ],
      "name": "safeTransferFrom",
      "outputs": [],
      "stateMutability": "pure",
      "type": "function"
    },
    {
      "inputs": [
        {
          "internalType": "address",
          "name": "",
          "type": "address"
        },
        {
          "internalType": "bool",
          "name": "",
          "type": "bool"
        }
      ],
      "name": "setApprovalForAll",
      "outputs": [],
      "stateMutability": "pure",
      "type": "function"
    },
    {
      "inputs": [
        {
          "internalType": "bytes4",
          "name": "interfaceId",
          "type": "bytes4"
        }
      ],
      "name": "supportsInterface",
      "outputs": [
        {
          "internalType": "bool",
          "name": "",
          "type": "bool"
        }
      ],
      "stateMutability": "view",
      "type": "function"
    },
    {
      "inputs": [],
      "name": "totalBurned",
      "outputs": [
        {
          "internalType": "uint256",
          "name": "",
          "type": "uint256"
        }
      ],
      "stateMutability": "view",
      "type": "function"
    },
    {
      "inputs": [],
      "name": "totalSupply",
      "outputs": [
        {
          "internalType": "uint256",
          "name": "",
          "type": "uint256"
        }
      ],
      "stateMutability": "view",
      "type": "function"
    },
    {
      "inputs": [
        {
          "internalType": "address",
          "name": "",
          "type": "address"
        },
        {
          "internalType": "address",
          "name": "",
          "type": "address"
        },
        {
          "internalType": "uint256",
          "name": "",
          "type": "uint256"
        }
      ],
      "name": "transferFrom",
      "outputs": [],
      "stateMutability": "pure",
      "type": "function"
    }
  ],
  "bytecode": "0x608060405234801561001057600080fd5b50610868806100206000396000f3fe608060405234801561001057600080fd5b506004361061010a5760003560e01c806370a08231116100a2578063c1292cc311610071578063c1292cc31461022c578063c7778baa14610234578063d89135cd14610266578063e985e9c51461026e578063fdad503f1461028457600080fd5b806370a08231146101d4578063a22cb465146101e7578063a2ddd349146101f5578063b88d4fde1461021e57600080fd5b806318160ddd116100de57806318160ddd1461019857806323b872dd146101a057806342842e0e146101ae5780636352211e146101c157600080fd5b8062fdd58e1461010f57806301ffc9a714610135578063081812fc14610158578063095ea7b314610183575b600080fd5b61012261011d36600461059e565b6102a4565b6040519081526020015b60405180910390f35b6101486101433660046105ca565b6102cd565b604051901515815260200161012c565b61016b6101663660046105f4565b610302565b6040516001600160a01b03909116815260200161012c565b61019661019136600461059e565b61031d565b005b610122610336565b61019661019136600461060d565b6101966101bc36600461060d565b61034d565b61016b6101cf3660046105f4565b61036d565b6101226101e236600461064e565b610400565b61019661019136600461066b565b61016b6102033660046105f4565b6000908152600260205260409020546001600160a01b031690565b6101966101913660046106bf565b600054610122565b6102476102423660046105f4565b610479565b604080516001600160a01b03909316835260208301919091520161012c565b600154610122565b61014861027c36600461079f565b600092915050565b6101226102923660046105f4565b60009081526003602052604090205490565b60a081901b6001600160a01b038316176000908152600460205260408120545b90505b92915050565b60006001600160e01b031982166380ac58cd60e01b14806102c757506301ffc9a760e01b6001600160e01b03198316146102c7565b600060405163574b16a760e11b815260040160405180910390fd5b60405163574b16a760e11b815260040160405180910390fd5b600060015460005461034891906107e3565b905090565b6103688383836040518060200160405280600081525061031d565b505050565b600080600061037b84610479565b6040516331a9108f60e11b81526004810182905291935091506001600160a01b03831690636352211e9060240160206040518083038186803b1580156103c057600080fd5b505afa1580156103d4573d6000803e3d6000fd5b505050506040513d601f19601f820116820180604052508101906103f891906107fa565b949350505050565b60006001600160a01b0382166104295760405163574b16a760e11b815260040160405180910390fd5b6000805b6001600160a01b03841661044b61044383610817565b92508261049d565b6001600160a01b03161415610468578161046481610817565b9250505b60005481111561042d575092915050565b6000818152600360205260408120548190610493906104b9565b9094909350915050565b60008060006104ab84610479565b915091506103f882826104d9565b6000806001600160a01b0383166104d08460a01c90565b91509150915091565b6040516331a9108f60e11b8152600481018290526000906001600160a01b03841690636352211e9060240160206040518083038186803b15801561051c57600080fd5b505afa92505050801561054c575060408051601f3d908101601f19168201909252610549918101906107fa565b60015b6102c4573d80801561057a576040519150601f19603f3d011682016040523d82523d6000602084013e61057f565b606091505b50506102c7565b6001600160a01b038116811461059b57600080fd5b50565b600080604083850312156105b157600080fd5b82356105bc81610586565b946020939093013593505050565b6000602082840312156105dc57600080fd5b81356001600160e01b0319811681146102c457600080fd5b60006020828403121561060657600080fd5b5035919050565b60008060006060848603121561062257600080fd5b833561062d81610586565b9250602084013561063d81610586565b929592945050506040919091013590565b60006020828403121561066057600080fd5b81356102c481610586565b6000806040838503121561067e57600080fd5b823561068981610586565b91506020830135801515811461069e57600080fd5b809150509250929050565b634e487b7160e01b600052604160045260246000fd5b600080600080608085870312156106d557600080fd5b84356106e081610586565b935060208501356106f081610586565b925060408501359150606085013567ffffffffffffffff8082111561071457600080fd5b818701915087601f83011261072857600080fd5b81358181111561073a5761073a6106a9565b604051601f8201601f19908116603f01168101908382118183101715610762576107626106a9565b816040528281528a602084870101111561077b57600080fd5b82602086016020830137600060208483010152809550505050505092959194509250565b600080604083850312156107b257600080fd5b82356107bd81610586565b9150602083013561069e81610586565b634e487b7160e01b600052601160045260246000fd5b6000828210156107f5576107f56107cd565b500390565b60006020828403121561080c57600080fd5b81516102c481610586565b600060001982141561082b5761082b6107cd565b506001019056fea26469706673582212201718402da7b352cbd36a193ec48478f659426799629dbcc88f4b746b178a29be64736f6c63430008090033",
  "linkReferences": {},
  "deployedLinkReferences": {}
}