{
  "_format": "hh-sol-artifact-1",
  "contractName": "CashCowsRegistry",
  "sourceName": "contracts/phase4/CashCowsRegistry.sol",
  "abi": [
    {
      "inputs": [
        {
          "internalType": "address",
          "name": "admin",
          "type": "address"
        }
      ],
      "stateMutability": "nonpayable",
      "type": "constructor"
    },
    {
      "inputs": [],
      "name": "InvalidCall",
      "type": "error"
    },
    {
      "anonymous": false,
      "inputs": [
        {
          "indexed": true,
          "internalType": "bytes32",
          "name": "role",
          "type": "bytes32"
        },
        {
          "indexed": true,
          "internalType": "bytes32",
          "name": "previousAdminRole",
          "type": "bytes32"
        },
        {
          "indexed": true,
          "internalType": "bytes32",
          "name": "newAdminRole",
          "type": "bytes32"
        }
      ],
      "name": "RoleAdminChanged",
      "type": "event"
    },
    {
      "anonymous": false,
      "inputs": [
        {
          "indexed": true,
          "internalType": "bytes32",
          "name": "role",
          "type": "bytes32"
        },
        {
          "indexed": true,
          "internalType": "address",
          "name": "account",
          "type": "address"
        },
        {
          "indexed": true,
          "internalType": "address",
          "name": "sender",
          "type": "address"
        }
      ],
      "name": "RoleGranted",
      "type": "event"
    },
    {
      "anonymous": false,
      "inputs": [
        {
          "indexed": true,
          "internalType": "bytes32",
          "name": "role",
          "type": "bytes32"
        },
        {
          "indexed": true,
          "internalType": "address",
          "name": "account",
          "type": "address"
        },
        {
          "indexed": true,
          "internalType": "address",
          "name": "sender",
          "type": "address"
        }
      ],
      "name": "RoleRevoked",
      "type": "event"
    },
    {
      "inputs": [],
      "name": "DEFAULT_ADMIN_ROLE",
      "outputs": [
        {
          "internalType": "bytes32",
          "name": "",
          "type": "bytes32"
        }
      ],
      "stateMutability": "view",
      "type": "function"
    },
    {
      "inputs": [
        {
          "internalType": "bytes32",
          "name": "role",
          "type": "bytes32"
        }
      ],
      "name": "getRoleAdmin",
      "outputs": [
        {
          "internalType": "bytes32",
          "name": "",
          "type": "bytes32"
        }
      ],
      "stateMutability": "view",
      "type": "function"
    },
    {
      "inputs": [
        {
          "internalType": "bytes32",
          "name": "role",
          "type": "bytes32"
        },
        {
          "internalType": "address",
          "name": "account",
          "type": "address"
        }
      ],
      "name": "grantRole",
      "outputs": [],
      "stateMutability": "nonpayable",
      "type": "function"
    },
    {
      "inputs": [
        {
          "internalType": "bytes32",
          "name": "role",
          "type": "bytes32"
        },
        {
          "internalType": "address",
          "name": "account",
          "type": "address"
        }
      ],
      "name": "hasRole",
      "outputs": [
        {
          "internalType": "bool",
          "name": "",
          "type": "bool"
        }
      ],
      "stateMutability": "view",
      "type": "function"
    },
    {
      "inputs": [
        {
          "internalType": "address",
          "name": "collection",
          "type": "address"
        },
        {
          "internalType": "uint256",
          "name": "tokenId",
          "type": "uint256"
        }
      ],
      "name": "metadata",
      "outputs": [
        {
          "components": [
            {
              "internalType": "string",
              "name": "name",
              "type": "string"
            },
            {
              "internalType": "string",
              "name": "crew",
              "type": "string"
            },
            {
              "internalType": "string",
              "name": "eyes",
              "type": "string"
            },
            {
              "internalType": "string",
              "name": "head",
              "type": "string"
            },
            {
              "internalType": "string",
              "name": "mask",
              "type": "string"
            },
            {
              "internalType": "string",
              "name": "neck",
              "type": "string"
            },
            {
              "internalType": "string",
              "name": "outerwear",
              "type": "string"
            },
            {
              "internalType": "bool",
              "name": "active",
              "type": "bool"
            }
          ],
          "internalType": "struct IRegistry.Metadata",
          "name": "",
          "type": "tuple"
        }
      ],
      "stateMutability": "view",
      "type": "function"
    },
    {
      "inputs": [
        {
          "internalType": "address",
          "name": "collection",
          "type": "address"
        },
        {
          "internalType": "uint256",
          "name": "tokenId",
          "type": "uint256"
        }
      ],
      "name": "ownerOf",
      "outputs": [
        {
          "internalType": "address",
          "name": "",
          "type": "address"
        }
      ],
      "stateMutability": "view",
      "type": "function"
    },
    {
      "inputs": [
        {
          "internalType": "contract IERC721",
          "name": "collection",
          "type": "address"
        },
        {
          "internalType": "uint256",
          "name": "tokenId",
          "type": "uint256"
        },
        {
          "internalType": "string",
          "name": "name",
          "type": "string"
        },
        {
          "internalType": "string",
          "name": "crew",
          "type": "string"
        },
        {
          "internalType": "string",
          "name": "eyes",
          "type": "string"
        },
        {
          "internalType": "string",
          "name": "head",
          "type": "string"
        },
        {
          "internalType": "string",
          "name": "mask",
          "type": "string"
        },
        {
          "internalType": "string",
          "name": "neck",
          "type": "string"
        },
        {
          "internalType": "string",
          "name": "outerwear",
          "type": "string"
        },
        {
          "internalType": "bytes",
          "name": "proof",
          "type": "bytes"
        }
      ],
      "name": "register",
      "outputs": [],
      "stateMutability": "nonpayable",
      "type": "function"
    },
    {
      "inputs": [
        {
          "internalType": "contract IERC721",
          "name": "collection",
          "type": "address"
        },
        {
          "internalType": "uint256",
          "name": "tokenId",
          "type": "uint256"
        },
        {
          "internalType": "string",
          "name": "name",
          "type": "string"
        },
        {
          "internalType": "string",
          "name": "crew",
          "type": "string"
        },
        {
          "internalType": "string",
          "name": "eyes",
          "type": "string"
        },
        {
          "internalType": "string",
          "name": "head",
          "type": "string"
        },
        {
          "internalType": "string",
          "name": "mask",
          "type": "string"
        },
        {
          "internalType": "string",
          "name": "neck",
          "type": "string"
        },
        {
          "internalType": "string",
          "name": "outerwear",
          "type": "string"
        }
      ],
      "name": "register",
      "outputs": [],
      "stateMutability": "nonpayable",
      "type": "function"
    },
    {
      "inputs": [
        {
          "internalType": "address",
          "name": "collection",
          "type": "address"
        },
        {
          "internalType": "uint256",
          "name": "tokenId",
          "type": "uint256"
        },
        {
          "internalType": "string",
          "name": "name",
          "type": "string"
        }
      ],
      "name": "rename",
      "outputs": [],
      "stateMutability": "nonpayable",
      "type": "function"
    },
    {
      "inputs": [
        {
          "internalType": "bytes32",
          "name": "role",
          "type": "bytes32"
        },
        {
          "internalType": "address",
          "name": "account",
          "type": "address"
        }
      ],
      "name": "renounceRole",
      "outputs": [],
      "stateMutability": "nonpayable",
      "type": "function"
    },
    {
      "inputs": [
        {
          "internalType": "bytes32",
          "name": "role",
          "type": "bytes32"
        },
        {
          "internalType": "address",
          "name": "account",
          "type": "address"
        }
      ],
      "name": "revokeRole",
      "outputs": [],
      "stateMutability": "nonpayable",
      "type": "function"
    },
    {
      "inputs": [
        {
          "internalType": "bytes4",
          "name": "interfaceId",
          "type": "bytes4"
        }
      ],
      "name": "supportsInterface",
      "outputs": [
        {
          "internalType": "bool",
          "name": "",
          "type": "bool"
        }
      ],
      "stateMutability": "view",
      "type": "function"
    },
    {
      "inputs": [
        {
          "internalType": "address",
          "name": "collection",
          "type": "address"
        },
        {
          "internalType": "uint256",
          "name": "tokenId",
          "type": "uint256"
        }
      ],
      "name": "unregister",
      "outputs": [],
      "stateMutability": "nonpayable",
      "type": "function"
    }
  ],
  "bytecode": "0x60806040523480156200001157600080fd5b5060405162001c6438038062001c648339810160408190526200003491620000f8565b6200004160008262000048565b506200012a565b62000054828262000058565b5050565b6000828152602081815260408083206001600160a01b038516845290915290205460ff1662000054576000828152602081815260408083206001600160a01b03851684529091529020805460ff19166001179055620000b43390565b6001600160a01b0316816001600160a01b0316837f2f8788117e7eff1d82e926ec794901d17c78024a50270940304540a733656f0d60405160405180910390a45050565b6000602082840312156200010b57600080fd5b81516001600160a01b03811681146200012357600080fd5b9392505050565b611b2a806200013a6000396000f3fe608060405234801561001057600080fd5b50600436106100cf5760003560e01c80634e8c85c01161008c57806391d148541161006657806391d14854146101cc578063a08206c9146101df578063a217fddf146101ff578063d547741f1461020757600080fd5b80634e8c85c0146101935780635969bf8f146101a65780636d23c8e8146101b957600080fd5b806301ffc9a7146100d45780631f29d2dc146100fc578063248a9ca3146101275780632f2ff15d1461015857806336568abe1461016d578063427e24b714610180575b600080fd5b6100e76100e2366004611319565b61021a565b60405190151581526020015b60405180910390f35b61010f61010a366004611358565b610251565b6040516001600160a01b0390911681526020016100f3565b61014a610135366004611384565b60009081526020819052604090206001015490565b6040519081526020016100f3565b61016b61016636600461139d565b6102d3565b005b61016b61017b36600461139d565b6102fe565b61016b61018e366004611480565b610381565b61016b6101a1366004611358565b610590565b61016b6101b43660046115dc565b61064e565b61016b6101c7366004611635565b6106eb565b6100e76101da36600461139d565b610716565b6101f26101ed366004611358565b61073f565b6040516100f391906117c3565b61014a600081565b61016b61021536600461139d565b610bcd565b60006001600160e01b03198216637965db0b60e01b148061024b57506301ffc9a760e01b6001600160e01b03198316145b92915050565b6040516331a9108f60e11b8152600481018290526000906001600160a01b03841690636352211e9060240160206040518083038186803b15801561029457600080fd5b505afa1580156102a8573d6000803e3d6000fd5b505050506040513d601f19601f820116820180604052508101906102cc91906118b1565b9392505050565b6000828152602081905260409020600101546102ef8133610bf3565b6102f98383610c57565b505050565b6001600160a01b03811633146103735760405162461bcd60e51b815260206004820152602f60248201527f416363657373436f6e74726f6c3a2063616e206f6e6c792072656e6f756e636560448201526e103937b632b9903337b91039b2b63360891b60648201526084015b60405180910390fd5b61037d8282610cdb565b5050565b6104327f6d1133269e5bb6c8279d5243601c32d114543d6a45fed16802e3b98bffa33ba86101da61042c8d8d8d8d8d8d8d8d8d6040516020016103cc999897969594939291906118ce565b60408051601f1981840301815282825280516020918201207f19457468657265756d205369676e6564204d6573736167653a0a33320000000084830152603c8085019190915282518085039091018152605c909301909152815191012090565b84610d40565b61044f5760405163574b16a760e11b815260040160405180910390fd5b604080516101008101825289815260208082018a9052818301899052606082018890526080820187905260a0820186905260c08201859052600160e083018190526001600160a01b038e1660009081529082528381208d825282529290922081518051929391926104c3928492019061124a565b5060208281015180516104dc926001850192019061124a565b50604082015180516104f891600284019160209091019061124a565b506060820151805161051491600384019160209091019061124a565b506080820151805161053091600484019160209091019061124a565b5060a0820151805161054c91600584019160209091019061124a565b5060c0820151805161056891600684019160209091019061124a565b5060e091909101516007909101805460ff191691151591909117905550505050505050505050565b7f6d1133269e5bb6c8279d5243601c32d114543d6a45fed16802e3b98bffa33ba86105bb8133610bf3565b6001600160a01b03831660009081526001602090815260408083208584529091528120906105e982826112ce565b6105f76001830160006112ce565b6106056002830160006112ce565b6106136003830160006112ce565b6106216004830160006112ce565b61062f6005830160006112ce565b61063d6006830160006112ce565b50600701805460ff19169055505050565b6001600160a01b038316600090815260016020908152604080832085845290915290206007015460ff16158061069657503361068a8484610251565b6001600160a01b031614155b156106b45760405163574b16a760e11b815260040160405180910390fd5b6001600160a01b0383166000908152600160209081526040808320858452825290912082516106e59284019061124a565b50505050565b7f6d1133269e5bb6c8279d5243601c32d114543d6a45fed16802e3b98bffa33ba861044f8133610bf3565b6000918252602082815260408084206001600160a01b0393909316845291905290205460ff1690565b610789604051806101000160405280606081526020016060815260200160608152602001606081526020016060815260200160608152602001606081526020016000151581525090565b6001600160a01b038316600090815260016020908152604080832085845290915290819020815161010081019092528054829082906107c7906119a1565b80601f01602080910402602001604051908101604052809291908181526020018280546107f3906119a1565b80156108405780601f1061081557610100808354040283529160200191610840565b820191906000526020600020905b81548152906001019060200180831161082357829003601f168201915b50505050508152602001600182018054610859906119a1565b80601f0160208091040260200160405190810160405280929190818152602001828054610885906119a1565b80156108d25780601f106108a7576101008083540402835291602001916108d2565b820191906000526020600020905b8154815290600101906020018083116108b557829003601f168201915b505050505081526020016002820180546108eb906119a1565b80601f0160208091040260200160405190810160405280929190818152602001828054610917906119a1565b80156109645780601f1061093957610100808354040283529160200191610964565b820191906000526020600020905b81548152906001019060200180831161094757829003601f168201915b5050505050815260200160038201805461097d906119a1565b80601f01602080910402602001604051908101604052809291908181526020018280546109a9906119a1565b80156109f65780601f106109cb576101008083540402835291602001916109f6565b820191906000526020600020905b8154815290600101906020018083116109d957829003601f168201915b50505050508152602001600482018054610a0f906119a1565b80601f0160208091040260200160405190810160405280929190818152602001828054610a3b906119a1565b8015610a885780601f10610a5d57610100808354040283529160200191610a88565b820191906000526020600020905b815481529060010190602001808311610a6b57829003601f168201915b50505050508152602001600582018054610aa1906119a1565b80601f0160208091040260200160405190810160405280929190818152602001828054610acd906119a1565b8015610b1a5780601f10610aef57610100808354040283529160200191610b1a565b820191906000526020600020905b815481529060010190602001808311610afd57829003601f168201915b50505050508152602001600682018054610b33906119a1565b80601f0160208091040260200160405190810160405280929190818152602001828054610b5f906119a1565b8015610bac5780601f10610b8157610100808354040283529160200191610bac565b820191906000526020600020905b815481529060010190602001808311610b8f57829003601f168201915b50505091835250506007919091015460ff1615156020909101529392505050565b600082815260208190526040902060010154610be98133610bf3565b6102f98383610cdb565b610bfd8282610716565b61037d57610c15816001600160a01b03166014610d64565b610c20836020610d64565b604051602001610c319291906119dc565b60408051601f198184030181529082905262461bcd60e51b825261036a91600401611a51565b610c618282610716565b61037d576000828152602081815260408083206001600160a01b03851684529091529020805460ff19166001179055610c973390565b6001600160a01b0316816001600160a01b0316837f2f8788117e7eff1d82e926ec794901d17c78024a50270940304540a733656f0d60405160405180910390a45050565b610ce58282610716565b1561037d576000828152602081815260408083206001600160a01b0385168085529252808320805460ff1916905551339285917ff6391f5c32d9c69d2a47ea670b442974b53935d1edc7fd64eb21e047a839171b9190a45050565b6000806000610d4f8585610f00565b91509150610d5c81610f70565b509392505050565b60606000610d73836002611a7a565b610d7e906002611a99565b67ffffffffffffffff811115610d9657610d966113dd565b6040519080825280601f01601f191660200182016040528015610dc0576020820181803683370190505b509050600360fc1b81600081518110610ddb57610ddb611ab1565b60200101906001600160f81b031916908160001a905350600f60fb1b81600181518110610e0a57610e0a611ab1565b60200101906001600160f81b031916908160001a9053506000610e2e846002611a7a565b610e39906001611a99565b90505b6001811115610eb1576f181899199a1a9b1b9c1cb0b131b232b360811b85600f1660108110610e6d57610e6d611ab1565b1a60f81b828281518110610e8357610e83611ab1565b60200101906001600160f81b031916908160001a90535060049490941c93610eaa81611ac7565b9050610e3c565b5083156102cc5760405162461bcd60e51b815260206004820181905260248201527f537472696e67733a20686578206c656e67746820696e73756666696369656e74604482015260640161036a565b600080825160411415610f375760208301516040840151606085015160001a610f2b8782858561112e565b94509450505050610f69565b825160401415610f615760208301516040840151610f5686838361121b565b935093505050610f69565b506000905060025b9250929050565b6000816004811115610f8457610f84611ade565b1415610f8d5750565b6001816004811115610fa157610fa1611ade565b1415610fef5760405162461bcd60e51b815260206004820152601860248201527f45434453413a20696e76616c6964207369676e61747572650000000000000000604482015260640161036a565b600281600481111561100357611003611ade565b14156110515760405162461bcd60e51b815260206004820152601f60248201527f45434453413a20696e76616c6964207369676e6174757265206c656e67746800604482015260640161036a565b600381600481111561106557611065611ade565b14156110be5760405162461bcd60e51b815260206004820152602260248201527f45434453413a20696e76616c6964207369676e6174757265202773272076616c604482015261756560f01b606482015260840161036a565b60048160048111156110d2576110d2611ade565b141561112b5760405162461bcd60e51b815260206004820152602260248201527f45434453413a20696e76616c6964207369676e6174757265202776272076616c604482015261756560f01b606482015260840161036a565b50565b6000807f7fffffffffffffffffffffffffffffff5d576e7357a4501ddfe92f46681b20a08311156111655750600090506003611212565b8460ff16601b1415801561117d57508460ff16601c14155b1561118e5750600090506004611212565b6040805160008082526020820180845289905260ff881692820192909252606081018690526080810185905260019060a0016020604051602081039080840390855afa1580156111e2573d6000803e3d6000fd5b5050604051601f1901519150506001600160a01b03811661120b57600060019250925050611212565b9150600090505b94509492505050565b6000806001600160ff1b03831660ff84901c601b0161123c8782888561112e565b935093505050935093915050565b828054611256906119a1565b90600052602060002090601f01602090048101928261127857600085556112be565b82601f1061129157805160ff19168380011785556112be565b828001600101855582156112be579182015b828111156112be5782518255916020019190600101906112a3565b506112ca929150611304565b5090565b5080546112da906119a1565b6000825580601f106112ea575050565b601f01602090049060005260206000209081019061112b91905b5b808211156112ca5760008155600101611305565b60006020828403121561132b57600080fd5b81356001600160e01b0319811681146102cc57600080fd5b6001600160a01b038116811461112b57600080fd5b6000806040838503121561136b57600080fd5b823561137681611343565b946020939093013593505050565b60006020828403121561139657600080fd5b5035919050565b600080604083850312156113b057600080fd5b8235915060208301356113c281611343565b809150509250929050565b80356113d881611343565b919050565b634e487b7160e01b600052604160045260246000fd5b600082601f83011261140457600080fd5b813567ffffffffffffffff8082111561141f5761141f6113dd565b604051601f8301601f19908116603f01168101908282118183101715611447576114476113dd565b8160405283815286602085880101111561146057600080fd5b836020870160208301376000602085830101528094505050505092915050565b6000806000806000806000806000806101408b8d0312156114a057600080fd5b6114a98b6113cd565b995060208b0135985060408b013567ffffffffffffffff808211156114cd57600080fd5b6114d98e838f016113f3565b995060608d01359150808211156114ef57600080fd5b6114fb8e838f016113f3565b985060808d013591508082111561151157600080fd5b61151d8e838f016113f3565b975060a08d013591508082111561153357600080fd5b61153f8e838f016113f3565b965060c08d013591508082111561155557600080fd5b6115618e838f016113f3565b955060e08d013591508082111561157757600080fd5b6115838e838f016113f3565b94506101008d013591508082111561159a57600080fd5b6115a68e838f016113f3565b93506101208d01359150808211156115bd57600080fd5b506115ca8d828e016113f3565b9150509295989b9194979a5092959850565b6000806000606084860312156115f157600080fd5b83356115fc81611343565b925060208401359150604084013567ffffffffffffffff81111561161f57600080fd5b61162b868287016113f3565b9150509250925092565b60008060008060008060008060006101208a8c03121561165457600080fd5b61165d8a6113cd565b985060208a0135975060408a013567ffffffffffffffff8082111561168157600080fd5b61168d8d838e016113f3565b985060608c01359150808211156116a357600080fd5b6116af8d838e016113f3565b975060808c01359150808211156116c557600080fd5b6116d18d838e016113f3565b965060a08c01359150808211156116e757600080fd5b6116f38d838e016113f3565b955060c08c013591508082111561170957600080fd5b6117158d838e016113f3565b945060e08c013591508082111561172b57600080fd5b6117378d838e016113f3565b93506101008c013591508082111561174e57600080fd5b5061175b8c828d016113f3565b9150509295985092959850929598565b60005b8381101561178657818101518382015260200161176e565b838111156106e55750506000910152565b600081518084526117af81602086016020860161176b565b601f01601f19169290920160200192915050565b60208152600082516101008060208501526117e2610120850183611797565b91506020850151601f19808685030160408701526118008483611797565b9350604087015191508086850301606087015261181d8483611797565b9350606087015191508086850301608087015261183a8483611797565b935060808701519150808685030160a08701526118578483611797565b935060a08701519150808685030160c08701526118748483611797565b935060c08701519150808685030160e0870152506118928382611797565b92505060e08501516118a78286018215159052565b5090949350505050565b6000602082840312156118c357600080fd5b81516102cc81611343565b67726567697374727960c01b81526bffffffffffffffffffffffff198a60601b16600882015288601c8201526000603c8951602061191182848701838f0161176b565b8a519185019161192681858501848f0161176b565b8a5192019161193a81858501848e0161176b565b895192019161194e81858501848d0161176b565b885192019161196281858501848c0161176b565b875192019161197681858501848b0161176b565b865192019161198a81858501848a0161176b565b919091019091019c9b505050505050505050505050565b600181811c908216806119b557607f821691505b602082108114156119d657634e487b7160e01b600052602260045260246000fd5b50919050565b7f416363657373436f6e74726f6c3a206163636f756e7420000000000000000000815260008351611a1481601785016020880161176b565b7001034b99036b4b9b9b4b733903937b6329607d1b6017918401918201528351611a4581602884016020880161176b565b01602801949350505050565b6020815260006102cc6020830184611797565b634e487b7160e01b600052601160045260246000fd5b6000816000190483118215151615611a9457611a94611a64565b500290565b60008219821115611aac57611aac611a64565b500190565b634e487b7160e01b600052603260045260246000fd5b600081611ad657611ad6611a64565b506000190190565b634e487b7160e01b600052602160045260246000fdfea2646970667358221220524326568ffae4ce3dfc49e73005413506a22ad1b2b9fb57754e8b6a6db7a36e64736f6c63430008090033",
  "linkReferences": {},
  "deployedLinkReferences": {}
}