{
  "_format": "hh-sol-artifact-1",
  "contractName": "CashCowsRegistry",
  "sourceName": "contracts/phase4/CashCowsRegistry.sol",
  "abi": [
    {
      "inputs": [
        {
          "internalType": "address",
          "name": "admin",
          "type": "address"
        }
      ],
      "stateMutability": "nonpayable",
      "type": "constructor"
    },
    {
      "inputs": [],
      "name": "InvalidCall",
      "type": "error"
    },
    {
      "anonymous": false,
      "inputs": [
        {
          "indexed": true,
          "internalType": "bytes32",
          "name": "role",
          "type": "bytes32"
        },
        {
          "indexed": true,
          "internalType": "bytes32",
          "name": "previousAdminRole",
          "type": "bytes32"
        },
        {
          "indexed": true,
          "internalType": "bytes32",
          "name": "newAdminRole",
          "type": "bytes32"
        }
      ],
      "name": "RoleAdminChanged",
      "type": "event"
    },
    {
      "anonymous": false,
      "inputs": [
        {
          "indexed": true,
          "internalType": "bytes32",
          "name": "role",
          "type": "bytes32"
        },
        {
          "indexed": true,
          "internalType": "address",
          "name": "account",
          "type": "address"
        },
        {
          "indexed": true,
          "internalType": "address",
          "name": "sender",
          "type": "address"
        }
      ],
      "name": "RoleGranted",
      "type": "event"
    },
    {
      "anonymous": false,
      "inputs": [
        {
          "indexed": true,
          "internalType": "bytes32",
          "name": "role",
          "type": "bytes32"
        },
        {
          "indexed": true,
          "internalType": "address",
          "name": "account",
          "type": "address"
        },
        {
          "indexed": true,
          "internalType": "address",
          "name": "sender",
          "type": "address"
        }
      ],
      "name": "RoleRevoked",
      "type": "event"
    },
    {
      "inputs": [],
      "name": "DEFAULT_ADMIN_ROLE",
      "outputs": [
        {
          "internalType": "bytes32",
          "name": "",
          "type": "bytes32"
        }
      ],
      "stateMutability": "view",
      "type": "function"
    },
    {
      "inputs": [
        {
          "internalType": "bytes32",
          "name": "role",
          "type": "bytes32"
        }
      ],
      "name": "getRoleAdmin",
      "outputs": [
        {
          "internalType": "bytes32",
          "name": "",
          "type": "bytes32"
        }
      ],
      "stateMutability": "view",
      "type": "function"
    },
    {
      "inputs": [
        {
          "internalType": "bytes32",
          "name": "role",
          "type": "bytes32"
        },
        {
          "internalType": "address",
          "name": "account",
          "type": "address"
        }
      ],
      "name": "grantRole",
      "outputs": [],
      "stateMutability": "nonpayable",
      "type": "function"
    },
    {
      "inputs": [
        {
          "internalType": "bytes32",
          "name": "role",
          "type": "bytes32"
        },
        {
          "internalType": "address",
          "name": "account",
          "type": "address"
        }
      ],
      "name": "hasRole",
      "outputs": [
        {
          "internalType": "bool",
          "name": "",
          "type": "bool"
        }
      ],
      "stateMutability": "view",
      "type": "function"
    },
    {
      "inputs": [
        {
          "internalType": "address",
          "name": "collection",
          "type": "address"
        },
        {
          "internalType": "uint256",
          "name": "tokenId",
          "type": "uint256"
        }
      ],
      "name": "metadata",
      "outputs": [
        {
          "components": [
            {
              "internalType": "string",
              "name": "name",
              "type": "string"
            },
            {
              "internalType": "string",
              "name": "crew",
              "type": "string"
            },
            {
              "internalType": "string",
              "name": "eyes",
              "type": "string"
            },
            {
              "internalType": "string",
              "name": "head",
              "type": "string"
            },
            {
              "internalType": "string",
              "name": "mask",
              "type": "string"
            },
            {
              "internalType": "string",
              "name": "neck",
              "type": "string"
            },
            {
              "internalType": "string",
              "name": "outerwear",
              "type": "string"
            },
            {
              "internalType": "bool",
              "name": "active",
              "type": "bool"
            }
          ],
          "internalType": "struct IRegistry.Metadata",
          "name": "",
          "type": "tuple"
        }
      ],
      "stateMutability": "view",
      "type": "function"
    },
    {
      "inputs": [
        {
          "internalType": "address",
          "name": "collection",
          "type": "address"
        },
        {
          "internalType": "uint256",
          "name": "tokenId",
          "type": "uint256"
        }
      ],
      "name": "ownerOf",
      "outputs": [
        {
          "internalType": "address",
          "name": "",
          "type": "address"
        }
      ],
      "stateMutability": "view",
      "type": "function"
    },
    {
      "inputs": [
        {
          "internalType": "contract IERC721",
          "name": "collection",
          "type": "address"
        },
        {
          "internalType": "uint256",
          "name": "tokenId",
          "type": "uint256"
        },
        {
          "internalType": "string",
          "name": "name",
          "type": "string"
        },
        {
          "internalType": "string",
          "name": "crew",
          "type": "string"
        },
        {
          "internalType": "string",
          "name": "eyes",
          "type": "string"
        },
        {
          "internalType": "string",
          "name": "head",
          "type": "string"
        },
        {
          "internalType": "string",
          "name": "mask",
          "type": "string"
        },
        {
          "internalType": "string",
          "name": "neck",
          "type": "string"
        },
        {
          "internalType": "string",
          "name": "outerwear",
          "type": "string"
        },
        {
          "internalType": "bytes",
          "name": "proof",
          "type": "bytes"
        }
      ],
      "name": "register",
      "outputs": [],
      "stateMutability": "nonpayable",
      "type": "function"
    },
    {
      "inputs": [
        {
          "internalType": "contract IERC721",
          "name": "collection",
          "type": "address"
        },
        {
          "internalType": "uint256",
          "name": "tokenId",
          "type": "uint256"
        },
        {
          "internalType": "string",
          "name": "name",
          "type": "string"
        },
        {
          "internalType": "string",
          "name": "crew",
          "type": "string"
        },
        {
          "internalType": "string",
          "name": "eyes",
          "type": "string"
        },
        {
          "internalType": "string",
          "name": "head",
          "type": "string"
        },
        {
          "internalType": "string",
          "name": "mask",
          "type": "string"
        },
        {
          "internalType": "string",
          "name": "neck",
          "type": "string"
        },
        {
          "internalType": "string",
          "name": "outerwear",
          "type": "string"
        }
      ],
      "name": "register",
      "outputs": [],
      "stateMutability": "nonpayable",
      "type": "function"
    },
    {
      "inputs": [
        {
          "internalType": "address",
          "name": "collection",
          "type": "address"
        },
        {
          "internalType": "uint256",
          "name": "tokenId",
          "type": "uint256"
        },
        {
          "internalType": "string",
          "name": "name",
          "type": "string"
        }
      ],
      "name": "rename",
      "outputs": [],
      "stateMutability": "nonpayable",
      "type": "function"
    },
    {
      "inputs": [
        {
          "internalType": "bytes32",
          "name": "role",
          "type": "bytes32"
        },
        {
          "internalType": "address",
          "name": "account",
          "type": "address"
        }
      ],
      "name": "renounceRole",
      "outputs": [],
      "stateMutability": "nonpayable",
      "type": "function"
    },
    {
      "inputs": [
        {
          "internalType": "bytes32",
          "name": "role",
          "type": "bytes32"
        },
        {
          "internalType": "address",
          "name": "account",
          "type": "address"
        }
      ],
      "name": "revokeRole",
      "outputs": [],
      "stateMutability": "nonpayable",
      "type": "function"
    },
    {
      "inputs": [
        {
          "internalType": "bytes4",
          "name": "interfaceId",
          "type": "bytes4"
        }
      ],
      "name": "supportsInterface",
      "outputs": [
        {
          "internalType": "bool",
          "name": "",
          "type": "bool"
        }
      ],
      "stateMutability": "view",
      "type": "function"
    },
    {
      "inputs": [
        {
          "internalType": "address",
          "name": "collection",
          "type": "address"
        },
        {
          "internalType": "uint256",
          "name": "tokenId",
          "type": "uint256"
        }
      ],
      "name": "unregister",
      "outputs": [],
      "stateMutability": "nonpayable",
      "type": "function"
    }
  ],
  "bytecode": "0x60806040523480156200001157600080fd5b5060405162001df038038062001df08339810160408190526200003491620000f8565b6200004160008262000048565b506200012a565b62000054828262000058565b5050565b6000828152602081815260408083206001600160a01b038516845290915290205460ff1662000054576000828152602081815260408083206001600160a01b03851684529091529020805460ff19166001179055620000b43390565b6001600160a01b0316816001600160a01b0316837f2f8788117e7eff1d82e926ec794901d17c78024a50270940304540a733656f0d60405160405180910390a45050565b6000602082840312156200010b57600080fd5b81516001600160a01b03811681146200012357600080fd5b9392505050565b611cb6806200013a6000396000f3fe608060405234801561001057600080fd5b50600436106100cf5760003560e01c80634e8c85c01161008c57806391d148541161006657806391d14854146101cc578063a08206c9146101df578063a217fddf146101ff578063d547741f1461020757600080fd5b80634e8c85c0146101935780635969bf8f146101a65780636d23c8e8146101b957600080fd5b806301ffc9a7146100d45780631f29d2dc146100fc578063248a9ca3146101275780632f2ff15d1461015857806336568abe1461016d578063427e24b714610180575b600080fd5b6100e76100e2366004611427565b61021a565b60405190151581526020015b60405180910390f35b61010f61010a366004611466565b610251565b6040516001600160a01b0390911681526020016100f3565b61014a610135366004611492565b60009081526020819052604090206001015490565b6040519081526020016100f3565b61016b6101663660046114ab565b6102d3565b005b61016b61017b3660046114ab565b6102fe565b61016b61018e36600461158e565b610381565b61016b6101a1366004611466565b610598565b61016b6101b43660046116ea565b610656565b61016b6101c7366004611743565b6106f3565b6100e76101da3660046114ab565b61071e565b6101f26101ed366004611466565b610747565b6040516100f391906118d1565b61014a600081565b61016b6102153660046114ab565b610bd5565b60006001600160e01b03198216637965db0b60e01b148061024b57506301ffc9a760e01b6001600160e01b03198316145b92915050565b6040516331a9108f60e11b8152600481018290526000906001600160a01b03841690636352211e9060240160206040518083038186803b15801561029457600080fd5b505afa1580156102a8573d6000803e3d6000fd5b505050506040513d601f19601f820116820180604052508101906102cc91906119bf565b9392505050565b6000828152602081905260409020600101546102ef8133610bfb565b6102f98383610c5f565b505050565b6001600160a01b03811633146103735760405162461bcd60e51b815260206004820152602f60248201527f416363657373436f6e74726f6c3a2063616e206f6e6c792072656e6f756e636560448201526e103937b632b9903337b91039b2b63360891b60648201526084015b60405180910390fd5b61037d8282610ce3565b5050565b61043a7f6d1133269e5bb6c8279d5243601c32d114543d6a45fed16802e3b98bffa33ba86101da6104348d6103b58e610d48565b8d8d8d8d8d8d8d6040516020016103d4999897969594939291906119dc565b60408051601f1981840301815282825280516020918201207f19457468657265756d205369676e6564204d6573736167653a0a33320000000084830152603c8085019190915282518085039091018152605c909301909152815191012090565b84610e4e565b6104575760405163574b16a760e11b815260040160405180910390fd5b604080516101008101825289815260208082018a9052818301899052606082018890526080820187905260a0820186905260c08201859052600160e083018190526001600160a01b038e1660009081529082528381208d825282529290922081518051929391926104cb9284920190611358565b5060208281015180516104e49260018501920190611358565b5060408201518051610500916002840191602090910190611358565b506060820151805161051c916003840191602090910190611358565b5060808201518051610538916004840191602090910190611358565b5060a08201518051610554916005840191602090910190611358565b5060c08201518051610570916006840191602090910190611358565b5060e091909101516007909101805460ff191691151591909117905550505050505050505050565b7f6d1133269e5bb6c8279d5243601c32d114543d6a45fed16802e3b98bffa33ba86105c38133610bfb565b6001600160a01b03831660009081526001602090815260408083208584529091528120906105f182826113dc565b6105ff6001830160006113dc565b61060d6002830160006113dc565b61061b6003830160006113dc565b6106296004830160006113dc565b6106376005830160006113dc565b6106456006830160006113dc565b50600701805460ff19169055505050565b6001600160a01b038316600090815260016020908152604080832085845290915290206007015460ff16158061069e5750336106928484610251565b6001600160a01b031614155b156106bc5760405163574b16a760e11b815260040160405180910390fd5b6001600160a01b0383166000908152600160209081526040808320858452825290912082516106ed92840190611358565b50505050565b7f6d1133269e5bb6c8279d5243601c32d114543d6a45fed16802e3b98bffa33ba86104578133610bfb565b6000918252602082815260408084206001600160a01b0393909316845291905290205460ff1690565b610791604051806101000160405280606081526020016060815260200160608152602001606081526020016060815260200160608152602001606081526020016000151581525090565b6001600160a01b038316600090815260016020908152604080832085845290915290819020815161010081019092528054829082906107cf90611abd565b80601f01602080910402602001604051908101604052809291908181526020018280546107fb90611abd565b80156108485780601f1061081d57610100808354040283529160200191610848565b820191906000526020600020905b81548152906001019060200180831161082b57829003601f168201915b5050505050815260200160018201805461086190611abd565b80601f016020809104026020016040519081016040528092919081815260200182805461088d90611abd565b80156108da5780601f106108af576101008083540402835291602001916108da565b820191906000526020600020905b8154815290600101906020018083116108bd57829003601f168201915b505050505081526020016002820180546108f390611abd565b80601f016020809104026020016040519081016040528092919081815260200182805461091f90611abd565b801561096c5780601f106109415761010080835404028352916020019161096c565b820191906000526020600020905b81548152906001019060200180831161094f57829003601f168201915b5050505050815260200160038201805461098590611abd565b80601f01602080910402602001604051908101604052809291908181526020018280546109b190611abd565b80156109fe5780601f106109d3576101008083540402835291602001916109fe565b820191906000526020600020905b8154815290600101906020018083116109e157829003601f168201915b50505050508152602001600482018054610a1790611abd565b80601f0160208091040260200160405190810160405280929190818152602001828054610a4390611abd565b8015610a905780601f10610a6557610100808354040283529160200191610a90565b820191906000526020600020905b815481529060010190602001808311610a7357829003601f168201915b50505050508152602001600582018054610aa990611abd565b80601f0160208091040260200160405190810160405280929190818152602001828054610ad590611abd565b8015610b225780601f10610af757610100808354040283529160200191610b22565b820191906000526020600020905b815481529060010190602001808311610b0557829003601f168201915b50505050508152602001600682018054610b3b90611abd565b80601f0160208091040260200160405190810160405280929190818152602001828054610b6790611abd565b8015610bb45780601f10610b8957610100808354040283529160200191610bb4565b820191906000526020600020905b815481529060010190602001808311610b9757829003601f168201915b50505091835250506007919091015460ff1615156020909101529392505050565b600082815260208190526040902060010154610bf18133610bfb565b6102f98383610ce3565b610c05828261071e565b61037d57610c1d816001600160a01b03166014610e72565b610c28836020610e72565b604051602001610c39929190611af8565b60408051601f198184030181529082905262461bcd60e51b825261036a91600401611b6d565b610c69828261071e565b61037d576000828152602081815260408083206001600160a01b03851684529091529020805460ff19166001179055610c9f3390565b6001600160a01b0316816001600160a01b0316837f2f8788117e7eff1d82e926ec794901d17c78024a50270940304540a733656f0d60405160405180910390a45050565b610ced828261071e565b1561037d576000828152602081815260408083206001600160a01b0385168085529252808320805460ff1916905551339285917ff6391f5c32d9c69d2a47ea670b442974b53935d1edc7fd64eb21e047a839171b9190a45050565b606081610d6c5750506040805180820190915260018152600360fc1b602082015290565b8160005b8115610d965780610d8081611b96565b9150610d8f9050600a83611bc7565b9150610d70565b60008167ffffffffffffffff811115610db157610db16114eb565b6040519080825280601f01601f191660200182016040528015610ddb576020820181803683370190505b5090505b8415610e4657610df0600183611bdb565b9150610dfd600a86611bf2565b610e08906030611c06565b60f81b818381518110610e1d57610e1d611c1e565b60200101906001600160f81b031916908160001a905350610e3f600a86611bc7565b9450610ddf565b949350505050565b6000806000610e5d858561100e565b91509150610e6a8161107e565b509392505050565b60606000610e81836002611c34565b610e8c906002611c06565b67ffffffffffffffff811115610ea457610ea46114eb565b6040519080825280601f01601f191660200182016040528015610ece576020820181803683370190505b509050600360fc1b81600081518110610ee957610ee9611c1e565b60200101906001600160f81b031916908160001a905350600f60fb1b81600181518110610f1857610f18611c1e565b60200101906001600160f81b031916908160001a9053506000610f3c846002611c34565b610f47906001611c06565b90505b6001811115610fbf576f181899199a1a9b1b9c1cb0b131b232b360811b85600f1660108110610f7b57610f7b611c1e565b1a60f81b828281518110610f9157610f91611c1e565b60200101906001600160f81b031916908160001a90535060049490941c93610fb881611c53565b9050610f4a565b5083156102cc5760405162461bcd60e51b815260206004820181905260248201527f537472696e67733a20686578206c656e67746820696e73756666696369656e74604482015260640161036a565b6000808251604114156110455760208301516040840151606085015160001a6110398782858561123c565b94509450505050611077565b82516040141561106f5760208301516040840151611064868383611329565b935093505050611077565b506000905060025b9250929050565b600081600481111561109257611092611c6a565b141561109b5750565b60018160048111156110af576110af611c6a565b14156110fd5760405162461bcd60e51b815260206004820152601860248201527f45434453413a20696e76616c6964207369676e61747572650000000000000000604482015260640161036a565b600281600481111561111157611111611c6a565b141561115f5760405162461bcd60e51b815260206004820152601f60248201527f45434453413a20696e76616c6964207369676e6174757265206c656e67746800604482015260640161036a565b600381600481111561117357611173611c6a565b14156111cc5760405162461bcd60e51b815260206004820152602260248201527f45434453413a20696e76616c6964207369676e6174757265202773272076616c604482015261756560f01b606482015260840161036a565b60048160048111156111e0576111e0611c6a565b14156112395760405162461bcd60e51b815260206004820152602260248201527f45434453413a20696e76616c6964207369676e6174757265202776272076616c604482015261756560f01b606482015260840161036a565b50565b6000807f7fffffffffffffffffffffffffffffff5d576e7357a4501ddfe92f46681b20a08311156112735750600090506003611320565b8460ff16601b1415801561128b57508460ff16601c14155b1561129c5750600090506004611320565b6040805160008082526020820180845289905260ff881692820192909252606081018690526080810185905260019060a0016020604051602081039080840390855afa1580156112f0573d6000803e3d6000fd5b5050604051601f1901519150506001600160a01b03811661131957600060019250925050611320565b9150600090505b94509492505050565b6000806001600160ff1b03831660ff84901c601b0161134a8782888561123c565b935093505050935093915050565b82805461136490611abd565b90600052602060002090601f01602090048101928261138657600085556113cc565b82601f1061139f57805160ff19168380011785556113cc565b828001600101855582156113cc579182015b828111156113cc5782518255916020019190600101906113b1565b506113d8929150611412565b5090565b5080546113e890611abd565b6000825580601f106113f8575050565b601f01602090049060005260206000209081019061123991905b5b808211156113d85760008155600101611413565b60006020828403121561143957600080fd5b81356001600160e01b0319811681146102cc57600080fd5b6001600160a01b038116811461123957600080fd5b6000806040838503121561147957600080fd5b823561148481611451565b946020939093013593505050565b6000602082840312156114a457600080fd5b5035919050565b600080604083850312156114be57600080fd5b8235915060208301356114d081611451565b809150509250929050565b80356114e681611451565b919050565b634e487b7160e01b600052604160045260246000fd5b600082601f83011261151257600080fd5b813567ffffffffffffffff8082111561152d5761152d6114eb565b604051601f8301601f19908116603f01168101908282118183101715611555576115556114eb565b8160405283815286602085880101111561156e57600080fd5b836020870160208301376000602085830101528094505050505092915050565b6000806000806000806000806000806101408b8d0312156115ae57600080fd5b6115b78b6114db565b995060208b0135985060408b013567ffffffffffffffff808211156115db57600080fd5b6115e78e838f01611501565b995060608d01359150808211156115fd57600080fd5b6116098e838f01611501565b985060808d013591508082111561161f57600080fd5b61162b8e838f01611501565b975060a08d013591508082111561164157600080fd5b61164d8e838f01611501565b965060c08d013591508082111561166357600080fd5b61166f8e838f01611501565b955060e08d013591508082111561168557600080fd5b6116918e838f01611501565b94506101008d01359150808211156116a857600080fd5b6116b48e838f01611501565b93506101208d01359150808211156116cb57600080fd5b506116d88d828e01611501565b9150509295989b9194979a5092959850565b6000806000606084860312156116ff57600080fd5b833561170a81611451565b925060208401359150604084013567ffffffffffffffff81111561172d57600080fd5b61173986828701611501565b9150509250925092565b60008060008060008060008060006101208a8c03121561176257600080fd5b61176b8a6114db565b985060208a0135975060408a013567ffffffffffffffff8082111561178f57600080fd5b61179b8d838e01611501565b985060608c01359150808211156117b157600080fd5b6117bd8d838e01611501565b975060808c01359150808211156117d357600080fd5b6117df8d838e01611501565b965060a08c01359150808211156117f557600080fd5b6118018d838e01611501565b955060c08c013591508082111561181757600080fd5b6118238d838e01611501565b945060e08c013591508082111561183957600080fd5b6118458d838e01611501565b93506101008c013591508082111561185c57600080fd5b506118698c828d01611501565b9150509295985092959850929598565b60005b8381101561189457818101518382015260200161187c565b838111156106ed5750506000910152565b600081518084526118bd816020860160208601611879565b601f01601f19169290920160200192915050565b60208152600082516101008060208501526118f06101208501836118a5565b91506020850151601f198086850301604087015261190e84836118a5565b9350604087015191508086850301606087015261192b84836118a5565b9350606087015191508086850301608087015261194884836118a5565b935060808701519150808685030160a087015261196584836118a5565b935060a08701519150808685030160c087015261198284836118a5565b935060c08701519150808685030160e0870152506119a083826118a5565b92505060e08501516119b58286018215159052565b5090949350505050565b6000602082840312156119d157600080fd5b81516102cc81611451565b67726567697374727960c01b81526bffffffffffffffffffffffff198a60601b1660088201526000601c8a51611a188183860160208f01611879565b8a5190840190611a2e8184840160208f01611879565b8a51910190611a438184840160208e01611879565b8951910190611a588184840160208d01611879565b8851910190611a6d8184840160208c01611879565b8751910190611a828184840160208b01611879565b8651910190611a978184840160208a01611879565b8551910190611aac8184840160208901611879565b01019b9a5050505050505050505050565b600181811c90821680611ad157607f821691505b60208210811415611af257634e487b7160e01b600052602260045260246000fd5b50919050565b7f416363657373436f6e74726f6c3a206163636f756e7420000000000000000000815260008351611b30816017850160208801611879565b7001034b99036b4b9b9b4b733903937b6329607d1b6017918401918201528351611b61816028840160208801611879565b01602801949350505050565b6020815260006102cc60208301846118a5565b634e487b7160e01b600052601160045260246000fd5b6000600019821415611baa57611baa611b80565b5060010190565b634e487b7160e01b600052601260045260246000fd5b600082611bd657611bd6611bb1565b500490565b600082821015611bed57611bed611b80565b500390565b600082611c0157611c01611bb1565b500690565b60008219821115611c1957611c19611b80565b500190565b634e487b7160e01b600052603260045260246000fd5b6000816000190483118215151615611c4e57611c4e611b80565b500290565b600081611c6257611c62611b80565b506000190190565b634e487b7160e01b600052602160045260246000fdfea2646970667358221220a3ad7f80aa16cf9af844fbb6c0d889193000c7103cf5d7593593a8d16901c54564736f6c63430008090033",
  "linkReferences": {},
  "deployedLinkReferences": {}
}