{
  "_format": "hh-sol-artifact-1",
  "contractName": "CashCowsRegistry",
  "sourceName": "contracts/phase4/CashCowsRegistry.sol",
  "abi": [
    {
      "inputs": [
        {
          "internalType": "address",
          "name": "admin",
          "type": "address"
        }
      ],
      "stateMutability": "nonpayable",
      "type": "constructor"
    },
    {
      "inputs": [],
      "name": "InvalidCall",
      "type": "error"
    },
    {
      "anonymous": false,
      "inputs": [
        {
          "indexed": true,
          "internalType": "bytes32",
          "name": "role",
          "type": "bytes32"
        },
        {
          "indexed": true,
          "internalType": "bytes32",
          "name": "previousAdminRole",
          "type": "bytes32"
        },
        {
          "indexed": true,
          "internalType": "bytes32",
          "name": "newAdminRole",
          "type": "bytes32"
        }
      ],
      "name": "RoleAdminChanged",
      "type": "event"
    },
    {
      "anonymous": false,
      "inputs": [
        {
          "indexed": true,
          "internalType": "bytes32",
          "name": "role",
          "type": "bytes32"
        },
        {
          "indexed": true,
          "internalType": "address",
          "name": "account",
          "type": "address"
        },
        {
          "indexed": true,
          "internalType": "address",
          "name": "sender",
          "type": "address"
        }
      ],
      "name": "RoleGranted",
      "type": "event"
    },
    {
      "anonymous": false,
      "inputs": [
        {
          "indexed": true,
          "internalType": "bytes32",
          "name": "role",
          "type": "bytes32"
        },
        {
          "indexed": true,
          "internalType": "address",
          "name": "account",
          "type": "address"
        },
        {
          "indexed": true,
          "internalType": "address",
          "name": "sender",
          "type": "address"
        }
      ],
      "name": "RoleRevoked",
      "type": "event"
    },
    {
      "inputs": [],
      "name": "DEFAULT_ADMIN_ROLE",
      "outputs": [
        {
          "internalType": "bytes32",
          "name": "",
          "type": "bytes32"
        }
      ],
      "stateMutability": "view",
      "type": "function"
    },
    {
      "inputs": [
        {
          "internalType": "bytes32",
          "name": "role",
          "type": "bytes32"
        }
      ],
      "name": "getRoleAdmin",
      "outputs": [
        {
          "internalType": "bytes32",
          "name": "",
          "type": "bytes32"
        }
      ],
      "stateMutability": "view",
      "type": "function"
    },
    {
      "inputs": [
        {
          "internalType": "bytes32",
          "name": "role",
          "type": "bytes32"
        },
        {
          "internalType": "address",
          "name": "account",
          "type": "address"
        }
      ],
      "name": "grantRole",
      "outputs": [],
      "stateMutability": "nonpayable",
      "type": "function"
    },
    {
      "inputs": [
        {
          "internalType": "bytes32",
          "name": "role",
          "type": "bytes32"
        },
        {
          "internalType": "address",
          "name": "account",
          "type": "address"
        }
      ],
      "name": "hasRole",
      "outputs": [
        {
          "internalType": "bool",
          "name": "",
          "type": "bool"
        }
      ],
      "stateMutability": "view",
      "type": "function"
    },
    {
      "inputs": [
        {
          "internalType": "address",
          "name": "collection",
          "type": "address"
        },
        {
          "internalType": "uint256",
          "name": "tokenId",
          "type": "uint256"
        },
        {
          "internalType": "uint256",
          "name": "metadata",
          "type": "uint256"
        },
        {
          "internalType": "bytes",
          "name": "proof",
          "type": "bytes"
        }
      ],
      "name": "register",
      "outputs": [],
      "stateMutability": "nonpayable",
      "type": "function"
    },
    {
      "inputs": [
        {
          "internalType": "uint256",
          "name": "collectionId",
          "type": "uint256"
        },
        {
          "internalType": "uint256",
          "name": "metadata",
          "type": "uint256"
        },
        {
          "internalType": "bytes",
          "name": "proof",
          "type": "bytes"
        }
      ],
      "name": "register",
      "outputs": [],
      "stateMutability": "nonpayable",
      "type": "function"
    },
    {
      "inputs": [
        {
          "internalType": "uint256",
          "name": "collectionId",
          "type": "uint256"
        },
        {
          "internalType": "uint256",
          "name": "metadata",
          "type": "uint256"
        }
      ],
      "name": "register",
      "outputs": [],
      "stateMutability": "nonpayable",
      "type": "function"
    },
    {
      "inputs": [
        {
          "internalType": "address",
          "name": "collection",
          "type": "address"
        },
        {
          "internalType": "uint256",
          "name": "tokenId",
          "type": "uint256"
        },
        {
          "internalType": "uint256",
          "name": "metadata",
          "type": "uint256"
        }
      ],
      "name": "register",
      "outputs": [],
      "stateMutability": "nonpayable",
      "type": "function"
    },
    {
      "inputs": [
        {
          "internalType": "bytes32",
          "name": "role",
          "type": "bytes32"
        },
        {
          "internalType": "address",
          "name": "account",
          "type": "address"
        }
      ],
      "name": "renounceRole",
      "outputs": [],
      "stateMutability": "nonpayable",
      "type": "function"
    },
    {
      "inputs": [
        {
          "internalType": "bytes32",
          "name": "role",
          "type": "bytes32"
        },
        {
          "internalType": "address",
          "name": "account",
          "type": "address"
        }
      ],
      "name": "revokeRole",
      "outputs": [],
      "stateMutability": "nonpayable",
      "type": "function"
    },
    {
      "inputs": [
        {
          "internalType": "bytes4",
          "name": "interfaceId",
          "type": "bytes4"
        }
      ],
      "name": "supportsInterface",
      "outputs": [
        {
          "internalType": "bool",
          "name": "",
          "type": "bool"
        }
      ],
      "stateMutability": "view",
      "type": "function"
    },
    {
      "inputs": [
        {
          "internalType": "address",
          "name": "collection",
          "type": "address"
        },
        {
          "internalType": "uint256",
          "name": "tokenId",
          "type": "uint256"
        },
        {
          "internalType": "uint256",
          "name": "index",
          "type": "uint256"
        }
      ],
      "name": "traitOf",
      "outputs": [
        {
          "internalType": "uint256",
          "name": "",
          "type": "uint256"
        }
      ],
      "stateMutability": "view",
      "type": "function"
    },
    {
      "inputs": [
        {
          "internalType": "uint256",
          "name": "collectionId",
          "type": "uint256"
        },
        {
          "internalType": "uint256",
          "name": "index",
          "type": "uint256"
        }
      ],
      "name": "traitOf",
      "outputs": [
        {
          "internalType": "uint256",
          "name": "",
          "type": "uint256"
        }
      ],
      "stateMutability": "view",
      "type": "function"
    },
    {
      "inputs": [
        {
          "internalType": "address",
          "name": "collection",
          "type": "address"
        },
        {
          "internalType": "uint256",
          "name": "tokenId",
          "type": "uint256"
        }
      ],
      "name": "traitsOf",
      "outputs": [
        {
          "internalType": "uint256",
          "name": "",
          "type": "uint256"
        }
      ],
      "stateMutability": "view",
      "type": "function"
    },
    {
      "inputs": [
        {
          "internalType": "uint256",
          "name": "collectionId",
          "type": "uint256"
        }
      ],
      "name": "traitsOf",
      "outputs": [
        {
          "internalType": "uint256",
          "name": "",
          "type": "uint256"
        }
      ],
      "stateMutability": "view",
      "type": "function"
    }
  ],
  "bytecode": "0x608060405234801561001057600080fd5b506040516110ca3803806110ca83398101604081905261002f916100ec565b61003a600082610040565b5061011c565b61004a828261004e565b5050565b6000828152602081815260408083206001600160a01b038516845290915290205460ff1661004a576000828152602081815260408083206001600160a01b03851684529091529020805460ff191660011790556100a83390565b6001600160a01b0316816001600160a01b0316837f2f8788117e7eff1d82e926ec794901d17c78024a50270940304540a733656f0d60405160405180910390a45050565b6000602082840312156100fe57600080fd5b81516001600160a01b038116811461011557600080fd5b9392505050565b610f9f8061012b6000396000f3fe608060405234801561001057600080fd5b50600436106100f55760003560e01c80635fb42a0811610097578063d547741f11610066578063d547741f14610202578063d66d6c1014610215578063f5226ab714610228578063f9454f3f1461023b57600080fd5b80635fb42a08146101c157806391d14854146101d4578063a050d719146101e7578063a217fddf146101fa57600080fd5b80632f2ff15d116100d35780632f2ff15d1461016857806336568abe1461017b5780633c6ef87c1461018e5780635efab6e4146101a157600080fd5b806301ffc9a7146100fa578063136dfbf514610122578063248a9ca314610137575b600080fd5b61010d610108366004610ba7565b61024e565b60405190151581526020015b60405180910390f35b610135610130366004610c90565b610285565b005b61015a610145366004610cf1565b60009081526020819052604090206001015490565b604051908152602001610119565b610135610176366004610d0a565b6102a5565b610135610189366004610d0a565b6102d0565b61015a61019c366004610d36565b610353565b61015a6101af366004610cf1565b60009081526001602052604090205490565b61015a6101cf366004610d60565b610374565b61010d6101e2366004610d0a565b610397565b6101356101f5366004610d93565b6103c0565b61015a600081565b610135610210366004610d0a565b6104b2565b610135610223366004610de3565b6104d8565b61015a610236366004610de3565b610503565b610135610249366004610d60565b61051c565b60006001600160e01b03198216637965db0b60e01b148061027f57506301ffc9a760e01b6001600160e01b03198316145b92915050565b61029f6001600160a01b03851660a085901b1783836103c0565b50505050565b6000828152602081905260409020600101546102c18133610535565b6102cb8383610599565b505050565b6001600160a01b03811633146103455760405162461bcd60e51b815260206004820152602f60248201527f416363657373436f6e74726f6c3a2063616e206f6e6c792072656e6f756e636560448201526e103937b632b9903337b91039b2b63360891b60648201526084015b60405180910390fd5b61034f828261061d565b5050565b600061036d6001600160a01b03841660a084901b176101af565b9392505050565b600061038f6001600160a01b03851660a085901b1783610503565b949350505050565b6000918252602082815260408084206001600160a01b0393909316845291905290205460ff1690565b604051673932b3b4b9ba32b960c11b60208201526028810184905260488101839052610482907f850d585eb7f024ccee5e68e55f2c26cc72e1e6ee456acf62135757a5eb9d4a10906101e29061047c90606801604051602081830303815290604052805190602001206040517f19457468657265756d205369676e6564204d6573736167653a0a3332000000006020820152603c8101829052600090605c01604051602081830303815290604052805190602001209050919050565b84610682565b61049f5760405163574b16a760e11b815260040160405180910390fd5b5060009182526001602052604090912055565b6000828152602081905260409020600101546104ce8133610535565b6102cb838361061d565b7f850d585eb7f024ccee5e68e55f2c26cc72e1e6ee456acf62135757a5eb9d4a1061049f8133610535565b60008281526001602052604081205461036d90836106a6565b6102cb6001600160a01b03841660a084901b17826104d8565b61053f8282610397565b61034f57610557816001600160a01b031660146106c1565b6105628360206106c1565b604051602001610573929190610e31565b60408051601f198184030181529082905262461bcd60e51b825261033c91600401610ea6565b6105a38282610397565b61034f576000828152602081815260408083206001600160a01b03851684529091529020805460ff191660011790556105d93390565b6001600160a01b0316816001600160a01b0316837f2f8788117e7eff1d82e926ec794901d17c78024a50270940304540a733656f0d60405160405180910390a45050565b6106278282610397565b1561034f576000828152602081815260408083206001600160a01b0385168085529252808320805460ff1916905551339285917ff6391f5c32d9c69d2a47ea670b442974b53935d1edc7fd64eb21e047a839171b9190a45050565b6000806000610691858561085d565b9150915061069e816108cd565b509392505050565b600060ff6106b5836008610eef565b84901c16905092915050565b606060006106d0836002610eef565b6106db906002610f0e565b67ffffffffffffffff8111156106f3576106f3610bed565b6040519080825280601f01601f19166020018201604052801561071d576020820181803683370190505b509050600360fc1b8160008151811061073857610738610f26565b60200101906001600160f81b031916908160001a905350600f60fb1b8160018151811061076757610767610f26565b60200101906001600160f81b031916908160001a905350600061078b846002610eef565b610796906001610f0e565b90505b600181111561080e576f181899199a1a9b1b9c1cb0b131b232b360811b85600f16601081106107ca576107ca610f26565b1a60f81b8282815181106107e0576107e0610f26565b60200101906001600160f81b031916908160001a90535060049490941c9361080781610f3c565b9050610799565b50831561036d5760405162461bcd60e51b815260206004820181905260248201527f537472696e67733a20686578206c656e67746820696e73756666696369656e74604482015260640161033c565b6000808251604114156108945760208301516040840151606085015160001a61088887828585610a8b565b945094505050506108c6565b8251604014156108be57602083015160408401516108b3868383610b78565b9350935050506108c6565b506000905060025b9250929050565b60008160048111156108e1576108e1610f53565b14156108ea5750565b60018160048111156108fe576108fe610f53565b141561094c5760405162461bcd60e51b815260206004820152601860248201527f45434453413a20696e76616c6964207369676e61747572650000000000000000604482015260640161033c565b600281600481111561096057610960610f53565b14156109ae5760405162461bcd60e51b815260206004820152601f60248201527f45434453413a20696e76616c6964207369676e6174757265206c656e67746800604482015260640161033c565b60038160048111156109c2576109c2610f53565b1415610a1b5760405162461bcd60e51b815260206004820152602260248201527f45434453413a20696e76616c6964207369676e6174757265202773272076616c604482015261756560f01b606482015260840161033c565b6004816004811115610a2f57610a2f610f53565b1415610a885760405162461bcd60e51b815260206004820152602260248201527f45434453413a20696e76616c6964207369676e6174757265202776272076616c604482015261756560f01b606482015260840161033c565b50565b6000807f7fffffffffffffffffffffffffffffff5d576e7357a4501ddfe92f46681b20a0831115610ac25750600090506003610b6f565b8460ff16601b14158015610ada57508460ff16601c14155b15610aeb5750600090506004610b6f565b6040805160008082526020820180845289905260ff881692820192909252606081018690526080810185905260019060a0016020604051602081039080840390855afa158015610b3f573d6000803e3d6000fd5b5050604051601f1901519150506001600160a01b038116610b6857600060019250925050610b6f565b9150600090505b94509492505050565b6000806001600160ff1b03831660ff84901c601b01610b9987828885610a8b565b935093505050935093915050565b600060208284031215610bb957600080fd5b81356001600160e01b03198116811461036d57600080fd5b80356001600160a01b0381168114610be857600080fd5b919050565b634e487b7160e01b600052604160045260246000fd5b600082601f830112610c1457600080fd5b813567ffffffffffffffff80821115610c2f57610c2f610bed565b604051601f8301601f19908116603f01168101908282118183101715610c5757610c57610bed565b81604052838152866020858801011115610c7057600080fd5b836020870160208301376000602085830101528094505050505092915050565b60008060008060808587031215610ca657600080fd5b610caf85610bd1565b93506020850135925060408501359150606085013567ffffffffffffffff811115610cd957600080fd5b610ce587828801610c03565b91505092959194509250565b600060208284031215610d0357600080fd5b5035919050565b60008060408385031215610d1d57600080fd5b82359150610d2d60208401610bd1565b90509250929050565b60008060408385031215610d4957600080fd5b610d5283610bd1565b946020939093013593505050565b600080600060608486031215610d7557600080fd5b610d7e84610bd1565b95602085013595506040909401359392505050565b600080600060608486031215610da857600080fd5b8335925060208401359150604084013567ffffffffffffffff811115610dcd57600080fd5b610dd986828701610c03565b9150509250925092565b60008060408385031215610df657600080fd5b50508035926020909101359150565b60005b83811015610e20578181015183820152602001610e08565b8381111561029f5750506000910152565b7f416363657373436f6e74726f6c3a206163636f756e7420000000000000000000815260008351610e69816017850160208801610e05565b7001034b99036b4b9b9b4b733903937b6329607d1b6017918401918201528351610e9a816028840160208801610e05565b01602801949350505050565b6020815260008251806020840152610ec5816040850160208701610e05565b601f01601f19169190910160400192915050565b634e487b7160e01b600052601160045260246000fd5b6000816000190483118215151615610f0957610f09610ed9565b500290565b60008219821115610f2157610f21610ed9565b500190565b634e487b7160e01b600052603260045260246000fd5b600081610f4b57610f4b610ed9565b506000190190565b634e487b7160e01b600052602160045260246000fdfea2646970667358221220e9756fe985aea9f3e9b66e49572eed406065442fcdd5fc7720453d07f1ab8c6864736f6c63430008090033",
  "linkReferences": {},
  "deployedLinkReferences": {}
}