{
  "_format": "hh-sol-artifact-1",
  "contractName": "CashCowsBarn",
  "sourceName": "contracts/phase4/CashCowsBarn.sol",
  "abi": [
    {
      "inputs": [],
      "stateMutability": "nonpayable",
      "type": "constructor"
    },
    {
      "inputs": [],
      "name": "InvalidCall",
      "type": "error"
    },
    {
      "anonymous": false,
      "inputs": [
        {
          "indexed": true,
          "internalType": "address",
          "name": "previousOwner",
          "type": "address"
        },
        {
          "indexed": true,
          "internalType": "address",
          "name": "newOwner",
          "type": "address"
        }
      ],
      "name": "OwnershipTransferred",
      "type": "event"
    },
    {
      "inputs": [],
      "name": "START_TIME",
      "outputs": [
        {
          "internalType": "uint256",
          "name": "",
          "type": "uint256"
        }
      ],
      "stateMutability": "view",
      "type": "function"
    },
    {
      "inputs": [],
      "name": "owner",
      "outputs": [
        {
          "internalType": "address",
          "name": "",
          "type": "address"
        }
      ],
      "stateMutability": "view",
      "type": "function"
    },
    {
      "inputs": [
        {
          "internalType": "address",
          "name": "collection",
          "type": "address"
        },
        {
          "internalType": "uint256[]",
          "name": "tokenIds",
          "type": "uint256[]"
        }
      ],
      "name": "release",
      "outputs": [],
      "stateMutability": "nonpayable",
      "type": "function"
    },
    {
      "inputs": [
        {
          "internalType": "address",
          "name": "collection",
          "type": "address"
        },
        {
          "internalType": "uint256",
          "name": "tokenId",
          "type": "uint256"
        }
      ],
      "name": "releaseable",
      "outputs": [
        {
          "internalType": "uint256",
          "name": "",
          "type": "uint256"
        }
      ],
      "stateMutability": "view",
      "type": "function"
    },
    {
      "inputs": [],
      "name": "renounceOwnership",
      "outputs": [],
      "stateMutability": "nonpayable",
      "type": "function"
    },
    {
      "inputs": [
        {
          "internalType": "address",
          "name": "collection",
          "type": "address"
        },
        {
          "internalType": "string",
          "name": "crew",
          "type": "string"
        },
        {
          "internalType": "uint256",
          "name": "rate",
          "type": "uint256"
        }
      ],
      "name": "setRate",
      "outputs": [],
      "stateMutability": "nonpayable",
      "type": "function"
    },
    {
      "inputs": [
        {
          "internalType": "contract IRegistry",
          "name": "registry",
          "type": "address"
        }
      ],
      "name": "setRegistry",
      "outputs": [],
      "stateMutability": "nonpayable",
      "type": "function"
    },
    {
      "inputs": [
        {
          "internalType": "contract IERC20Mintable",
          "name": "token",
          "type": "address"
        }
      ],
      "name": "setToken",
      "outputs": [],
      "stateMutability": "nonpayable",
      "type": "function"
    },
    {
      "inputs": [
        {
          "internalType": "address",
          "name": "newOwner",
          "type": "address"
        }
      ],
      "name": "transferOwnership",
      "outputs": [],
      "stateMutability": "nonpayable",
      "type": "function"
    }
  ],
  "bytecode": "0x60a060405234801561001057600080fd5b5061001a33610023565b42608052610073565b600080546001600160a01b038381166001600160a01b0319831681178455604051919092169283917f8be0079c531659141344cd1fd0a4f28419497f9722a3daafe3b4186f6b6457e09190a35050565b608051610e3061009560003960008181610134015261049e0152610e306000f3fe608060405234801561001057600080fd5b50600436106100935760003560e01c80638da5cb5b116100665780638da5cb5b146100ee5780639d14509f14610109578063a91ee0dc1461011c578063ddaa26ad1461012f578063f2fde38b1461015657600080fd5b8063144fa6d71461009857806318ace401146100ad5780636e8790e6146100c0578063715018a6146100e6575b600080fd5b6100ab6100a63660046108a2565b610169565b005b6100ab6100bb366004610930565b6101be565b6100d36100ce3660046109eb565b6103dc565b6040519081526020015b60405180910390f35b6100ab61053d565b6000546040516001600160a01b0390911681526020016100dd565b6100ab610117366004610a3f565b610573565b6100ab61012a3660046108a2565b6105dc565b6100d37f000000000000000000000000000000000000000000000000000000000000000081565b6100ab6101643660046108a2565b610628565b6000546001600160a01b0316331461019c5760405162461bcd60e51b815260040161019390610adb565b60405180910390fd5b600280546001600160a01b0319166001600160a01b0392909216919091179055565b336000805b83518110156103555760015484516001600160a01b03808616921690631f29d2dc9088908890869081106101f9576101f9610b10565b60200260200101516040518363ffffffff1660e01b81526004016102329291906001600160a01b03929092168252602082015260400190565b60206040518083038186803b15801561024a57600080fd5b505afa15801561025e573d6000803e3d6000fd5b505050506040513d601f19601f820116820180604052508101906102829190610b26565b6001600160a01b0316146102a95760405163574b16a760e11b815260040160405180910390fd5b60006102ce868684815181106102c1576102c1610b10565b60200260200101516103dc565b90508060046000886001600160a01b03166001600160a01b03168152602001908152602001600020600087858151811061030a5761030a610b10565b60200260200101518152602001908152602001600020600082825461032f9190610b59565b9091555061033f90508184610b59565b925050808061034d90610b71565b9150506101c3565b50604080516001600160a01b03848116602483015260448083018590528351808403909101815260649092018352602080830180516001600160e01b03166340c10f1960e01b17905283518085019094526015845274131bddcb5b195d995b081b5a5b9d0819985a5b1959605a1b908401526103d59290871691906106c3565b5050505050565b6001600160a01b03828116600081815260036020526040808220600154915163a08206c960e01b81526004810194909452602484018690529193849391169063a08206c99060440160006040518083038186803b15801561043c57600080fd5b505afa158015610450573d6000803e3d6000fd5b505050506040513d6000823e601f3d908101601f191682016040526104789190810190610c1e565b602001516040516104899190610d75565b908152604051908190036020019020546104c37f000000000000000000000000000000000000000000000000000000000000000042610d91565b6104cd9190610da8565b6001600160a01b0385166000908152600460209081526040808320878452909152902054909150811015610505576000915050610537565b6001600160a01b03841660009081526004602090815260408083208684529091529020546105339082610d91565b9150505b92915050565b6000546001600160a01b031633146105675760405162461bcd60e51b815260040161019390610adb565b61057160006106dc565b565b6000546001600160a01b0316331461059d5760405162461bcd60e51b815260040161019390610adb565b6001600160a01b0383166000908152600360205260409081902090518291906105c7908590610d75565b90815260405190819003602001902055505050565b6000546001600160a01b031633146106065760405162461bcd60e51b815260040161019390610adb565b600180546001600160a01b0319166001600160a01b0392909216919091179055565b6000546001600160a01b031633146106525760405162461bcd60e51b815260040161019390610adb565b6001600160a01b0381166106b75760405162461bcd60e51b815260206004820152602660248201527f4f776e61626c653a206e6577206f776e657220697320746865207a65726f206160448201526564647265737360d01b6064820152608401610193565b6106c0816106dc565b50565b60606106d2848460008561072c565b90505b9392505050565b600080546001600160a01b038381166001600160a01b0319831681178455604051919092169283917f8be0079c531659141344cd1fd0a4f28419497f9722a3daafe3b4186f6b6457e09190a35050565b60608247101561078d5760405162461bcd60e51b815260206004820152602660248201527f416464726573733a20696e73756666696369656e742062616c616e636520666f6044820152651c8818d85b1b60d21b6064820152608401610193565b843b6107db5760405162461bcd60e51b815260206004820152601d60248201527f416464726573733a2063616c6c20746f206e6f6e2d636f6e74726163740000006044820152606401610193565b600080866001600160a01b031685876040516107f79190610d75565b60006040518083038185875af1925050503d8060008114610834576040519150601f19603f3d011682016040523d82523d6000602084013e610839565b606091505b5091509150610849828286610854565b979650505050505050565b606083156108635750816106d5565b8251156108735782518084602001fd5b8160405162461bcd60e51b81526004016101939190610dc7565b6001600160a01b03811681146106c057600080fd5b6000602082840312156108b457600080fd5b81356106d58161088d565b634e487b7160e01b600052604160045260246000fd5b604051610100810167ffffffffffffffff811182821017156108f9576108f96108bf565b60405290565b604051601f8201601f1916810167ffffffffffffffff81118282101715610928576109286108bf565b604052919050565b6000806040838503121561094357600080fd5b823561094e8161088d565b915060208381013567ffffffffffffffff8082111561096c57600080fd5b818601915086601f83011261098057600080fd5b813581811115610992576109926108bf565b8060051b91506109a38483016108ff565b81815291830184019184810190898411156109bd57600080fd5b938501935b838510156109db578435825293850193908501906109c2565b8096505050505050509250929050565b600080604083850312156109fe57600080fd5b8235610a098161088d565b946020939093013593505050565b600067ffffffffffffffff821115610a3157610a316108bf565b50601f01601f191660200190565b600080600060608486031215610a5457600080fd5b8335610a5f8161088d565b9250602084013567ffffffffffffffff811115610a7b57600080fd5b8401601f81018613610a8c57600080fd5b8035610a9f610a9a82610a17565b6108ff565b818152876020838501011115610ab457600080fd5b81602084016020830137600060208383010152809450505050604084013590509250925092565b6020808252818101527f4f776e61626c653a2063616c6c6572206973206e6f7420746865206f776e6572604082015260600190565b634e487b7160e01b600052603260045260246000fd5b600060208284031215610b3857600080fd5b81516106d58161088d565b634e487b7160e01b600052601160045260246000fd5b60008219821115610b6c57610b6c610b43565b500190565b6000600019821415610b8557610b85610b43565b5060010190565b60005b83811015610ba7578181015183820152602001610b8f565b83811115610bb6576000848401525b50505050565b600082601f830112610bcd57600080fd5b8151610bdb610a9a82610a17565b818152846020838601011115610bf057600080fd5b610c01826020830160208701610b8c565b949350505050565b80518015158114610c1957600080fd5b919050565b600060208284031215610c3057600080fd5b815167ffffffffffffffff80821115610c4857600080fd5b908301906101008286031215610c5d57600080fd5b610c656108d5565b825182811115610c7457600080fd5b610c8087828601610bbc565b825250602083015182811115610c9557600080fd5b610ca187828601610bbc565b602083015250604083015182811115610cb957600080fd5b610cc587828601610bbc565b604083015250606083015182811115610cdd57600080fd5b610ce987828601610bbc565b606083015250608083015182811115610d0157600080fd5b610d0d87828601610bbc565b60808301525060a083015182811115610d2557600080fd5b610d3187828601610bbc565b60a08301525060c083015182811115610d4957600080fd5b610d5587828601610bbc565b60c083015250610d6760e08401610c09565b60e082015295945050505050565b60008251610d87818460208701610b8c565b9190910192915050565b600082821015610da357610da3610b43565b500390565b6000816000190483118215151615610dc257610dc2610b43565b500290565b6020815260008251806020840152610de6816040850160208701610b8c565b601f01601f1916919091016040019291505056fea2646970667358221220c2781f615df3d63f942256c7d8d26f6f912b95db3e3b91b4720a3162b447eccf64736f6c63430008090033",
  "linkReferences": {},
  "deployedLinkReferences": {}
}