{
  "_format": "hh-sol-artifact-1",
  "contractName": "CashCowsBarn",
  "sourceName": "contracts/phase4/CashCowsBarn.sol",
  "abi": [
    {
      "inputs": [
        {
          "internalType": "contract IERC20Mintable",
          "name": "token",
          "type": "address"
        },
        {
          "internalType": "uint256",
          "name": "start",
          "type": "uint256"
        },
        {
          "internalType": "address",
          "name": "admin",
          "type": "address"
        }
      ],
      "stateMutability": "nonpayable",
      "type": "constructor"
    },
    {
      "inputs": [],
      "name": "InvalidCall",
      "type": "error"
    },
    {
      "anonymous": false,
      "inputs": [
        {
          "indexed": true,
          "internalType": "bytes32",
          "name": "role",
          "type": "bytes32"
        },
        {
          "indexed": true,
          "internalType": "bytes32",
          "name": "previousAdminRole",
          "type": "bytes32"
        },
        {
          "indexed": true,
          "internalType": "bytes32",
          "name": "newAdminRole",
          "type": "bytes32"
        }
      ],
      "name": "RoleAdminChanged",
      "type": "event"
    },
    {
      "anonymous": false,
      "inputs": [
        {
          "indexed": true,
          "internalType": "bytes32",
          "name": "role",
          "type": "bytes32"
        },
        {
          "indexed": true,
          "internalType": "address",
          "name": "account",
          "type": "address"
        },
        {
          "indexed": true,
          "internalType": "address",
          "name": "sender",
          "type": "address"
        }
      ],
      "name": "RoleGranted",
      "type": "event"
    },
    {
      "anonymous": false,
      "inputs": [
        {
          "indexed": true,
          "internalType": "bytes32",
          "name": "role",
          "type": "bytes32"
        },
        {
          "indexed": true,
          "internalType": "address",
          "name": "account",
          "type": "address"
        },
        {
          "indexed": true,
          "internalType": "address",
          "name": "sender",
          "type": "address"
        }
      ],
      "name": "RoleRevoked",
      "type": "event"
    },
    {
      "inputs": [],
      "name": "DEFAULT_ADMIN_ROLE",
      "outputs": [
        {
          "internalType": "bytes32",
          "name": "",
          "type": "bytes32"
        }
      ],
      "stateMutability": "view",
      "type": "function"
    },
    {
      "inputs": [],
      "name": "START_TIME",
      "outputs": [
        {
          "internalType": "uint256",
          "name": "",
          "type": "uint256"
        }
      ],
      "stateMutability": "view",
      "type": "function"
    },
    {
      "inputs": [],
      "name": "TOKEN",
      "outputs": [
        {
          "internalType": "contract IERC20Mintable",
          "name": "",
          "type": "address"
        }
      ],
      "stateMutability": "view",
      "type": "function"
    },
    {
      "inputs": [
        {
          "internalType": "bytes32",
          "name": "role",
          "type": "bytes32"
        }
      ],
      "name": "getRoleAdmin",
      "outputs": [
        {
          "internalType": "bytes32",
          "name": "",
          "type": "bytes32"
        }
      ],
      "stateMutability": "view",
      "type": "function"
    },
    {
      "inputs": [
        {
          "internalType": "bytes32",
          "name": "role",
          "type": "bytes32"
        },
        {
          "internalType": "address",
          "name": "account",
          "type": "address"
        }
      ],
      "name": "grantRole",
      "outputs": [],
      "stateMutability": "nonpayable",
      "type": "function"
    },
    {
      "inputs": [
        {
          "internalType": "bytes32",
          "name": "role",
          "type": "bytes32"
        },
        {
          "internalType": "address",
          "name": "account",
          "type": "address"
        }
      ],
      "name": "hasRole",
      "outputs": [
        {
          "internalType": "bool",
          "name": "",
          "type": "bool"
        }
      ],
      "stateMutability": "view",
      "type": "function"
    },
    {
      "inputs": [
        {
          "internalType": "address",
          "name": "collection",
          "type": "address"
        },
        {
          "internalType": "uint256[]",
          "name": "tokenIds",
          "type": "uint256[]"
        },
        {
          "internalType": "uint256[]",
          "name": "rates",
          "type": "uint256[]"
        },
        {
          "internalType": "bytes[]",
          "name": "proofs",
          "type": "bytes[]"
        }
      ],
      "name": "release",
      "outputs": [],
      "stateMutability": "nonpayable",
      "type": "function"
    },
    {
      "inputs": [
        {
          "internalType": "address",
          "name": "collection",
          "type": "address"
        },
        {
          "internalType": "uint256",
          "name": "tokenId",
          "type": "uint256"
        },
        {
          "internalType": "uint256",
          "name": "rate",
          "type": "uint256"
        },
        {
          "internalType": "bytes",
          "name": "proof",
          "type": "bytes"
        }
      ],
      "name": "release",
      "outputs": [],
      "stateMutability": "nonpayable",
      "type": "function"
    },
    {
      "inputs": [
        {
          "internalType": "address",
          "name": "collection",
          "type": "address"
        },
        {
          "internalType": "uint256",
          "name": "tokenId",
          "type": "uint256"
        },
        {
          "internalType": "uint256",
          "name": "rate",
          "type": "uint256"
        }
      ],
      "name": "releaseable",
      "outputs": [
        {
          "internalType": "uint256",
          "name": "",
          "type": "uint256"
        }
      ],
      "stateMutability": "view",
      "type": "function"
    },
    {
      "inputs": [
        {
          "internalType": "address",
          "name": "collection",
          "type": "address"
        },
        {
          "internalType": "uint256",
          "name": "tokenId",
          "type": "uint256"
        }
      ],
      "name": "released",
      "outputs": [
        {
          "internalType": "uint256",
          "name": "",
          "type": "uint256"
        }
      ],
      "stateMutability": "view",
      "type": "function"
    },
    {
      "inputs": [
        {
          "internalType": "bytes32",
          "name": "role",
          "type": "bytes32"
        },
        {
          "internalType": "address",
          "name": "account",
          "type": "address"
        }
      ],
      "name": "renounceRole",
      "outputs": [],
      "stateMutability": "nonpayable",
      "type": "function"
    },
    {
      "inputs": [
        {
          "internalType": "bytes32",
          "name": "role",
          "type": "bytes32"
        },
        {
          "internalType": "address",
          "name": "account",
          "type": "address"
        }
      ],
      "name": "revokeRole",
      "outputs": [],
      "stateMutability": "nonpayable",
      "type": "function"
    },
    {
      "inputs": [
        {
          "internalType": "bytes4",
          "name": "interfaceId",
          "type": "bytes4"
        }
      ],
      "name": "supportsInterface",
      "outputs": [
        {
          "internalType": "bool",
          "name": "",
          "type": "bool"
        }
      ],
      "stateMutability": "view",
      "type": "function"
    }
  ],
  "bytecode": "0x60c06040523480156200001157600080fd5b50604051620018c9380380620018c9833981016040819052620000349162000122565b6200004160008262000059565b506001600160a01b0390911660a0526080526200016a565b62000065828262000069565b5050565b6000828152602081815260408083206001600160a01b038516845290915290205460ff1662000065576000828152602081815260408083206001600160a01b03851684529091529020805460ff19166001179055620000c53390565b6001600160a01b0316816001600160a01b0316837f2f8788117e7eff1d82e926ec794901d17c78024a50270940304540a733656f0d60405160405180910390a45050565b6001600160a01b03811681146200011f57600080fd5b50565b6000806000606084860312156200013857600080fd5b8351620001458162000109565b6020850151604086015191945092506200015f8162000109565b809150509250925092565b60805160a05161172b6200019e6000396000818161016d01526107300152600081816102230152610298015261172b6000f3fe608060405234801561001057600080fd5b50600436106100cf5760003560e01c806391d148541161008c578063cfe8307011610066578063cfe83070146101d5578063d547741f1461020b578063ddaa26ad1461021e578063faa916d31461024557600080fd5b806391d14854146101a757806397ea8dda146101ba578063a217fddf146101cd57600080fd5b806301ffc9a7146100d45780630dee4609146100fc578063248a9ca31461011d5780632f2ff15d1461014057806336568abe1461015557806382bfefc814610168575b600080fd5b6100e76100e23660046110d1565b610258565b60405190151581526020015b60405180910390f35b61010f61010a366004611110565b61028f565b6040519081526020016100f3565b61010f61012b366004611145565b60009081526020819052604090206001015490565b61015361014e36600461115e565b610317565b005b61015361016336600461115e565b610342565b61018f7f000000000000000000000000000000000000000000000000000000000000000081565b6040516001600160a01b0390911681526020016100f3565b6100e76101b536600461115e565b6103c5565b6101536101c83660046112d4565b6103ee565b61010f600081565b61010f6101e33660046113e1565b6001600160a01b03919091166000908152600160209081526040808320938352929052205490565b61015361021936600461115e565b61075f565b61010f7f000000000000000000000000000000000000000000000000000000000000000081565b61015361025336600461140d565b610785565b60006001600160e01b03198216637965db0b60e01b148061028957506301ffc9a760e01b6001600160e01b03198316145b92915050565b600080826102bd7f000000000000000000000000000000000000000000000000000000000000000042611486565b6102c7919061149d565b6001600160a01b03861660009081526001602090815260408083208884529091529020549091508082101561030157600092505050610310565b61030b8183611486565b925050505b9392505050565b6000828152602081905260409020600101546103338133610902565b61033d8383610966565b505050565b6001600160a01b03811633146103b75760405162461bcd60e51b815260206004820152602f60248201527f416363657373436f6e74726f6c3a2063616e206f6e6c792072656e6f756e636560448201526e103937b632b9903337b91039b2b63360891b60648201526084015b60405180910390fd5b6103c182826109ea565b5050565b6000918252602082815260408084206001600160a01b0393909316845291905290205460ff1690565b8151835114158061040157508051825114155b1561041f5760405163574b16a760e11b815260040160405180910390fd5b60405163ad94d90160e01b815233906001600160a01b0386169063ad94d9019061044f90849088906004016114bc565b60206040518083038186803b15801561046757600080fd5b505afa15801561047b573d6000803e3d6000fd5b505050506040513d601f19601f8201168201806040525081019061049f9190611512565b6104bc5760405163574b16a760e11b815260040160405180910390fd5b6000805b855181101561069c576105b97f9f2df0fed2c77648de5860a4cc508cd0818c85b8b8a1ab4ceeef8d981c8956a66101b561059a8a8a868151811061050657610506611534565b60200260200101518a878151811061052057610520611534565b602002602001015160405160200161053a9392919061154a565b60408051601f1981840301815282825280516020918201207f19457468657265756d205369676e6564204d6573736167653a0a33320000000084830152603c8085019190915282518085039091018152605c909301909152815191012090565b8785815181106105ac576105ac611534565b6020026020010151610a4f565b6105d65760405163574b16a760e11b815260040160405180910390fd5b6000610615888884815181106105ee576105ee611534565b602002602001015188858151811061060857610608611534565b602002602001015161028f565b905080600160008a6001600160a01b03166001600160a01b03168152602001908152602001600020600089858151811061065157610651611534565b6020026020010151815260200190815260200160002060008282546106769190611584565b9091555061068690508184611584565b92505080806106949061159c565b9150506104c0565b506040516001600160a01b038316602482015260448101829052610756906340c10f1960e01b906064015b60408051601f19818403018152918152602080830180516001600160e01b03166001600160e01b03199095169490941790935280518082019091526015815274131bddcb5b195d995b081b5a5b9d0819985a5b1959605a1b928101929092526001600160a01b037f00000000000000000000000000000000000000000000000000000000000000001691610a73565b50505050505050565b60008281526020819052604090206001015461077b8133610902565b61033d83836109ea565b6107ca7f9f2df0fed2c77648de5860a4cc508cd0818c85b8b8a1ab4ceeef8d981c8956a66101b56107c487878760405160200161053a9392919061154a565b84610a4f565b6107e75760405163574b16a760e11b815260040160405180910390fd5b6040516331a9108f60e11b815260048101849052339081906001600160a01b03871690636352211e9060240160206040518083038186803b15801561082b57600080fd5b505afa15801561083f573d6000803e3d6000fd5b505050506040513d601f19601f8201168201806040525081019061086391906115b7565b6001600160a01b03161461088a5760405163574b16a760e11b815260040160405180910390fd5b600061089786868661028f565b6001600160a01b03871660009081526001602090815260408083208984529091528120805492935083929091906108cf908490611584565b90915550506040516001600160a01b038316602482015260448101829052610756906340c10f1960e01b906064016106c7565b61090c82826103c5565b6103c157610924816001600160a01b03166014610a8a565b61092f836020610a8a565b604051602001610940929190611604565b60408051601f198184030181529082905262461bcd60e51b82526103ae91600401611679565b61097082826103c5565b6103c1576000828152602081815260408083206001600160a01b03851684529091529020805460ff191660011790556109a63390565b6001600160a01b0316816001600160a01b0316837f2f8788117e7eff1d82e926ec794901d17c78024a50270940304540a733656f0d60405160405180910390a45050565b6109f482826103c5565b156103c1576000828152602081815260408083206001600160a01b0385168085529252808320805460ff1916905551339285917ff6391f5c32d9c69d2a47ea670b442974b53935d1edc7fd64eb21e047a839171b9190a45050565b6000806000610a5e8585610c26565b91509150610a6b81610c96565b509392505050565b6060610a828484600085610e54565b949350505050565b60606000610a9983600261149d565b610aa4906002611584565b67ffffffffffffffff811115610abc57610abc61118e565b6040519080825280601f01601f191660200182016040528015610ae6576020820181803683370190505b509050600360fc1b81600081518110610b0157610b01611534565b60200101906001600160f81b031916908160001a905350600f60fb1b81600181518110610b3057610b30611534565b60200101906001600160f81b031916908160001a9053506000610b5484600261149d565b610b5f906001611584565b90505b6001811115610bd7576f181899199a1a9b1b9c1cb0b131b232b360811b85600f1660108110610b9357610b93611534565b1a60f81b828281518110610ba957610ba9611534565b60200101906001600160f81b031916908160001a90535060049490941c93610bd0816116ac565b9050610b62565b5083156103105760405162461bcd60e51b815260206004820181905260248201527f537472696e67733a20686578206c656e67746820696e73756666696369656e7460448201526064016103ae565b600080825160411415610c5d5760208301516040840151606085015160001a610c5187828585610f7c565b94509450505050610c8f565b825160401415610c875760208301516040840151610c7c868383611069565b935093505050610c8f565b506000905060025b9250929050565b6000816004811115610caa57610caa6116c3565b1415610cb35750565b6001816004811115610cc757610cc76116c3565b1415610d155760405162461bcd60e51b815260206004820152601860248201527f45434453413a20696e76616c6964207369676e6174757265000000000000000060448201526064016103ae565b6002816004811115610d2957610d296116c3565b1415610d775760405162461bcd60e51b815260206004820152601f60248201527f45434453413a20696e76616c6964207369676e6174757265206c656e6774680060448201526064016103ae565b6003816004811115610d8b57610d8b6116c3565b1415610de45760405162461bcd60e51b815260206004820152602260248201527f45434453413a20696e76616c6964207369676e6174757265202773272076616c604482015261756560f01b60648201526084016103ae565b6004816004811115610df857610df86116c3565b1415610e515760405162461bcd60e51b815260206004820152602260248201527f45434453413a20696e76616c6964207369676e6174757265202776272076616c604482015261756560f01b60648201526084016103ae565b50565b606082471015610eb55760405162461bcd60e51b815260206004820152602660248201527f416464726573733a20696e73756666696369656e742062616c616e636520666f6044820152651c8818d85b1b60d21b60648201526084016103ae565b843b610f035760405162461bcd60e51b815260206004820152601d60248201527f416464726573733a2063616c6c20746f206e6f6e2d636f6e747261637400000060448201526064016103ae565b600080866001600160a01b03168587604051610f1f91906116d9565b60006040518083038185875af1925050503d8060008114610f5c576040519150601f19603f3d011682016040523d82523d6000602084013e610f61565b606091505b5091509150610f71828286611098565b979650505050505050565b6000807f7fffffffffffffffffffffffffffffff5d576e7357a4501ddfe92f46681b20a0831115610fb35750600090506003611060565b8460ff16601b14158015610fcb57508460ff16601c14155b15610fdc5750600090506004611060565b6040805160008082526020820180845289905260ff881692820192909252606081018690526080810185905260019060a0016020604051602081039080840390855afa158015611030573d6000803e3d6000fd5b5050604051601f1901519150506001600160a01b03811661105957600060019250925050611060565b9150600090505b94509492505050565b6000806001600160ff1b03831660ff84901c601b0161108a87828885610f7c565b935093505050935093915050565b606083156110a7575081610310565b8251156110b75782518084602001fd5b8160405162461bcd60e51b81526004016103ae9190611679565b6000602082840312156110e357600080fd5b81356001600160e01b03198116811461031057600080fd5b6001600160a01b0381168114610e5157600080fd5b60008060006060848603121561112557600080fd5b8335611130816110fb565b95602085013595506040909401359392505050565b60006020828403121561115757600080fd5b5035919050565b6000806040838503121561117157600080fd5b823591506020830135611183816110fb565b809150509250929050565b634e487b7160e01b600052604160045260246000fd5b604051601f8201601f1916810167ffffffffffffffff811182821017156111cd576111cd61118e565b604052919050565b600067ffffffffffffffff8211156111ef576111ef61118e565b5060051b60200190565b600082601f83011261120a57600080fd5b8135602061121f61121a836111d5565b6111a4565b82815260059290921b8401810191818101908684111561123e57600080fd5b8286015b848110156112595780358352918301918301611242565b509695505050505050565b600082601f83011261127557600080fd5b813567ffffffffffffffff81111561128f5761128f61118e565b6112a2601f8201601f19166020016111a4565b8181528460208386010111156112b757600080fd5b816020850160208301376000918101602001919091529392505050565b600080600080608085870312156112ea57600080fd5b84356112f5816110fb565b935060208581013567ffffffffffffffff8082111561131357600080fd5b61131f89838a016111f9565b9550604088013591508082111561133557600080fd5b61134189838a016111f9565b9450606088013591508082111561135757600080fd5b818801915088601f83011261136b57600080fd5b813561137961121a826111d5565b81815260059190911b8301840190848101908b83111561139857600080fd5b8585015b838110156113d0578035858111156113b45760008081fd5b6113c28e89838a0101611264565b84525091860191860161139c565b50989b979a50959850505050505050565b600080604083850312156113f457600080fd5b82356113ff816110fb565b946020939093013593505050565b6000806000806080858703121561142357600080fd5b843561142e816110fb565b93506020850135925060408501359150606085013567ffffffffffffffff81111561145857600080fd5b61146487828801611264565b91505092959194509250565b634e487b7160e01b600052601160045260246000fd5b60008282101561149857611498611470565b500390565b60008160001904831182151516156114b7576114b7611470565b500290565b6001600160a01b038316815260406020808301829052835191830182905260009184820191906060850190845b81811015611505578451835293830193918301916001016114e9565b5090979650505050505050565b60006020828403121561152457600080fd5b8151801515811461031057600080fd5b634e487b7160e01b600052603260045260246000fd5b6672656c6561736560c81b815260609390931b6bffffffffffffffffffffffff19166007840152601b830191909152603b820152605b0190565b6000821982111561159757611597611470565b500190565b60006000198214156115b0576115b0611470565b5060010190565b6000602082840312156115c957600080fd5b8151610310816110fb565b60005b838110156115ef5781810151838201526020016115d7565b838111156115fe576000848401525b50505050565b7f416363657373436f6e74726f6c3a206163636f756e742000000000000000000081526000835161163c8160178501602088016115d4565b7001034b99036b4b9b9b4b733903937b6329607d1b601791840191820152835161166d8160288401602088016115d4565b01602801949350505050565b60208152600082518060208401526116988160408501602087016115d4565b601f01601f19169190910160400192915050565b6000816116bb576116bb611470565b506000190190565b634e487b7160e01b600052602160045260246000fd5b600082516116eb8184602087016115d4565b919091019291505056fea26469706673582212201e04c13d7f238315021a34f79bceb878d2d3afdfe651873f1a2c71a6666498a464736f6c63430008090033",
  "linkReferences": {},
  "deployedLinkReferences": {}
}