{
  "_format": "hh-sol-artifact-1",
  "contractName": "CashCowsBarn",
  "sourceName": "contracts/phase4/CashCowsBarn.sol",
  "abi": [
    {
      "inputs": [],
      "stateMutability": "nonpayable",
      "type": "constructor"
    },
    {
      "inputs": [],
      "name": "InvalidCall",
      "type": "error"
    },
    {
      "anonymous": false,
      "inputs": [
        {
          "indexed": true,
          "internalType": "address",
          "name": "previousOwner",
          "type": "address"
        },
        {
          "indexed": true,
          "internalType": "address",
          "name": "newOwner",
          "type": "address"
        }
      ],
      "name": "OwnershipTransferred",
      "type": "event"
    },
    {
      "inputs": [],
      "name": "START_TIME",
      "outputs": [
        {
          "internalType": "uint256",
          "name": "",
          "type": "uint256"
        }
      ],
      "stateMutability": "view",
      "type": "function"
    },
    {
      "inputs": [],
      "name": "owner",
      "outputs": [
        {
          "internalType": "address",
          "name": "",
          "type": "address"
        }
      ],
      "stateMutability": "view",
      "type": "function"
    },
    {
      "inputs": [
        {
          "internalType": "address",
          "name": "collection",
          "type": "address"
        },
        {
          "internalType": "uint256[]",
          "name": "tokenIds",
          "type": "uint256[]"
        }
      ],
      "name": "release",
      "outputs": [],
      "stateMutability": "nonpayable",
      "type": "function"
    },
    {
      "inputs": [
        {
          "internalType": "address",
          "name": "collection",
          "type": "address"
        },
        {
          "internalType": "uint256",
          "name": "tokenId",
          "type": "uint256"
        }
      ],
      "name": "releaseable",
      "outputs": [
        {
          "internalType": "uint256",
          "name": "",
          "type": "uint256"
        }
      ],
      "stateMutability": "view",
      "type": "function"
    },
    {
      "inputs": [],
      "name": "renounceOwnership",
      "outputs": [],
      "stateMutability": "nonpayable",
      "type": "function"
    },
    {
      "inputs": [
        {
          "internalType": "address",
          "name": "collection",
          "type": "address"
        },
        {
          "internalType": "string",
          "name": "crew",
          "type": "string"
        },
        {
          "internalType": "uint256",
          "name": "rate",
          "type": "uint256"
        }
      ],
      "name": "setRate",
      "outputs": [],
      "stateMutability": "nonpayable",
      "type": "function"
    },
    {
      "inputs": [
        {
          "internalType": "contract IRegistry",
          "name": "registry",
          "type": "address"
        }
      ],
      "name": "setRegistry",
      "outputs": [],
      "stateMutability": "nonpayable",
      "type": "function"
    },
    {
      "inputs": [
        {
          "internalType": "contract IERC20Mintable",
          "name": "token",
          "type": "address"
        }
      ],
      "name": "setToken",
      "outputs": [],
      "stateMutability": "nonpayable",
      "type": "function"
    },
    {
      "inputs": [
        {
          "internalType": "address",
          "name": "newOwner",
          "type": "address"
        }
      ],
      "name": "transferOwnership",
      "outputs": [],
      "stateMutability": "nonpayable",
      "type": "function"
    }
  ],
  "bytecode": "0x60a060405234801561001057600080fd5b5061001a33610023565b42608052610073565b600080546001600160a01b038381166001600160a01b0319831681178455604051919092169283917f8be0079c531659141344cd1fd0a4f28419497f9722a3daafe3b4186f6b6457e09190a35050565b608051610e326100956000396000818161013401526104a00152610e326000f3fe608060405234801561001057600080fd5b50600436106100935760003560e01c80638da5cb5b116100665780638da5cb5b146100ee5780639d14509f14610109578063a91ee0dc1461011c578063ddaa26ad1461012f578063f2fde38b1461015657600080fd5b8063144fa6d71461009857806318ace401146100ad5780636e8790e6146100c0578063715018a6146100e6575b600080fd5b6100ab6100a63660046108a4565b610169565b005b6100ab6100bb366004610932565b6101be565b6100d36100ce3660046109ed565b6103de565b6040519081526020015b60405180910390f35b6100ab61053f565b6000546040516001600160a01b0390911681526020016100dd565b6100ab610117366004610a41565b610575565b6100ab61012a3660046108a4565b6105de565b6100d37f000000000000000000000000000000000000000000000000000000000000000081565b6100ab6101643660046108a4565b61062a565b6000546001600160a01b0316331461019c5760405162461bcd60e51b815260040161019390610add565b60405180910390fd5b600280546001600160a01b0319166001600160a01b0392909216919091179055565b336000805b83518110156103555760015484516001600160a01b03808616921690631f29d2dc9088908890869081106101f9576101f9610b12565b60200260200101516040518363ffffffff1660e01b81526004016102329291906001600160a01b03929092168252602082015260400190565b60206040518083038186803b15801561024a57600080fd5b505afa15801561025e573d6000803e3d6000fd5b505050506040513d601f19601f820116820180604052508101906102829190610b28565b6001600160a01b0316146102a95760405163574b16a760e11b815260040160405180910390fd5b60006102ce868684815181106102c1576102c1610b12565b60200260200101516103de565b90508060046000886001600160a01b03166001600160a01b03168152602001908152602001600020600087858151811061030a5761030a610b12565b60200260200101518152602001908152602001600020600082825461032f9190610b5b565b9091555061033f90508184610b5b565b925050808061034d90610b73565b9150506101c3565b50604080516001600160a01b03848116602483015260448083018590528351808403909101815260649092018352602080830180516001600160e01b03166340c10f1960e01b17905283518085019094526015845274131bddcb5b195d995b081b5a5b9d0819985a5b1959605a1b908401526002546103d793911691906106c5565b5050505050565b6001600160a01b03828116600081815260036020526040808220600154915163a08206c960e01b81526004810194909452602484018690529193849391169063a08206c99060440160006040518083038186803b15801561043e57600080fd5b505afa158015610452573d6000803e3d6000fd5b505050506040513d6000823e601f3d908101601f1916820160405261047a9190810190610c20565b6020015160405161048b9190610d77565b908152604051908190036020019020546104c57f000000000000000000000000000000000000000000000000000000000000000042610d93565b6104cf9190610daa565b6001600160a01b0385166000908152600460209081526040808320878452909152902054909150811015610507576000915050610539565b6001600160a01b03841660009081526004602090815260408083208684529091529020546105359082610d93565b9150505b92915050565b6000546001600160a01b031633146105695760405162461bcd60e51b815260040161019390610add565b61057360006106de565b565b6000546001600160a01b0316331461059f5760405162461bcd60e51b815260040161019390610add565b6001600160a01b0383166000908152600360205260409081902090518291906105c9908590610d77565b90815260405190819003602001902055505050565b6000546001600160a01b031633146106085760405162461bcd60e51b815260040161019390610add565b600180546001600160a01b0319166001600160a01b0392909216919091179055565b6000546001600160a01b031633146106545760405162461bcd60e51b815260040161019390610add565b6001600160a01b0381166106b95760405162461bcd60e51b815260206004820152602660248201527f4f776e61626c653a206e6577206f776e657220697320746865207a65726f206160448201526564647265737360d01b6064820152608401610193565b6106c2816106de565b50565b60606106d4848460008561072e565b90505b9392505050565b600080546001600160a01b038381166001600160a01b0319831681178455604051919092169283917f8be0079c531659141344cd1fd0a4f28419497f9722a3daafe3b4186f6b6457e09190a35050565b60608247101561078f5760405162461bcd60e51b815260206004820152602660248201527f416464726573733a20696e73756666696369656e742062616c616e636520666f6044820152651c8818d85b1b60d21b6064820152608401610193565b843b6107dd5760405162461bcd60e51b815260206004820152601d60248201527f416464726573733a2063616c6c20746f206e6f6e2d636f6e74726163740000006044820152606401610193565b600080866001600160a01b031685876040516107f99190610d77565b60006040518083038185875af1925050503d8060008114610836576040519150601f19603f3d011682016040523d82523d6000602084013e61083b565b606091505b509150915061084b828286610856565b979650505050505050565b606083156108655750816106d7565b8251156108755782518084602001fd5b8160405162461bcd60e51b81526004016101939190610dc9565b6001600160a01b03811681146106c257600080fd5b6000602082840312156108b657600080fd5b81356106d78161088f565b634e487b7160e01b600052604160045260246000fd5b604051610100810167ffffffffffffffff811182821017156108fb576108fb6108c1565b60405290565b604051601f8201601f1916810167ffffffffffffffff8111828210171561092a5761092a6108c1565b604052919050565b6000806040838503121561094557600080fd5b82356109508161088f565b915060208381013567ffffffffffffffff8082111561096e57600080fd5b818601915086601f83011261098257600080fd5b813581811115610994576109946108c1565b8060051b91506109a5848301610901565b81815291830184019184810190898411156109bf57600080fd5b938501935b838510156109dd578435825293850193908501906109c4565b8096505050505050509250929050565b60008060408385031215610a0057600080fd5b8235610a0b8161088f565b946020939093013593505050565b600067ffffffffffffffff821115610a3357610a336108c1565b50601f01601f191660200190565b600080600060608486031215610a5657600080fd5b8335610a618161088f565b9250602084013567ffffffffffffffff811115610a7d57600080fd5b8401601f81018613610a8e57600080fd5b8035610aa1610a9c82610a19565b610901565b818152876020838501011115610ab657600080fd5b81602084016020830137600060208383010152809450505050604084013590509250925092565b6020808252818101527f4f776e61626c653a2063616c6c6572206973206e6f7420746865206f776e6572604082015260600190565b634e487b7160e01b600052603260045260246000fd5b600060208284031215610b3a57600080fd5b81516106d78161088f565b634e487b7160e01b600052601160045260246000fd5b60008219821115610b6e57610b6e610b45565b500190565b6000600019821415610b8757610b87610b45565b5060010190565b60005b83811015610ba9578181015183820152602001610b91565b83811115610bb8576000848401525b50505050565b600082601f830112610bcf57600080fd5b8151610bdd610a9c82610a19565b818152846020838601011115610bf257600080fd5b610c03826020830160208701610b8e565b949350505050565b80518015158114610c1b57600080fd5b919050565b600060208284031215610c3257600080fd5b815167ffffffffffffffff80821115610c4a57600080fd5b908301906101008286031215610c5f57600080fd5b610c676108d7565b825182811115610c7657600080fd5b610c8287828601610bbe565b825250602083015182811115610c9757600080fd5b610ca387828601610bbe565b602083015250604083015182811115610cbb57600080fd5b610cc787828601610bbe565b604083015250606083015182811115610cdf57600080fd5b610ceb87828601610bbe565b606083015250608083015182811115610d0357600080fd5b610d0f87828601610bbe565b60808301525060a083015182811115610d2757600080fd5b610d3387828601610bbe565b60a08301525060c083015182811115610d4b57600080fd5b610d5787828601610bbe565b60c083015250610d6960e08401610c0b565b60e082015295945050505050565b60008251610d89818460208701610b8e565b9190910192915050565b600082821015610da557610da5610b45565b500390565b6000816000190483118215151615610dc457610dc4610b45565b500290565b6020815260008251806020840152610de8816040850160208701610b8e565b601f01601f1916919091016040019291505056fea2646970667358221220dddd59caa335765731420f62b19b1a2987c88655cfe5a5b3283cff1f05f86a9d64736f6c63430008090033",
  "linkReferences": {},
  "deployedLinkReferences": {}
}