{
  "_format": "hh-sol-artifact-1",
  "contractName": "CashCowsStore",
  "sourceName": "contracts/phase4/CashCowsStore.sol",
  "abi": [
    {
      "inputs": [
        {
          "internalType": "contract IERC1155MintableSupply",
          "name": "loot",
          "type": "address"
        },
        {
          "internalType": "address",
          "name": "admin",
          "type": "address"
        }
      ],
      "stateMutability": "nonpayable",
      "type": "constructor"
    },
    {
      "inputs": [],
      "name": "InvalidCall",
      "type": "error"
    },
    {
      "anonymous": false,
      "inputs": [
        {
          "indexed": true,
          "internalType": "bytes32",
          "name": "role",
          "type": "bytes32"
        },
        {
          "indexed": true,
          "internalType": "bytes32",
          "name": "previousAdminRole",
          "type": "bytes32"
        },
        {
          "indexed": true,
          "internalType": "bytes32",
          "name": "newAdminRole",
          "type": "bytes32"
        }
      ],
      "name": "RoleAdminChanged",
      "type": "event"
    },
    {
      "anonymous": false,
      "inputs": [
        {
          "indexed": true,
          "internalType": "bytes32",
          "name": "role",
          "type": "bytes32"
        },
        {
          "indexed": true,
          "internalType": "address",
          "name": "account",
          "type": "address"
        },
        {
          "indexed": true,
          "internalType": "address",
          "name": "sender",
          "type": "address"
        }
      ],
      "name": "RoleGranted",
      "type": "event"
    },
    {
      "anonymous": false,
      "inputs": [
        {
          "indexed": true,
          "internalType": "bytes32",
          "name": "role",
          "type": "bytes32"
        },
        {
          "indexed": true,
          "internalType": "address",
          "name": "account",
          "type": "address"
        },
        {
          "indexed": true,
          "internalType": "address",
          "name": "sender",
          "type": "address"
        }
      ],
      "name": "RoleRevoked",
      "type": "event"
    },
    {
      "inputs": [],
      "name": "DEFAULT_ADMIN_ROLE",
      "outputs": [
        {
          "internalType": "bytes32",
          "name": "",
          "type": "bytes32"
        }
      ],
      "stateMutability": "view",
      "type": "function"
    },
    {
      "inputs": [],
      "name": "LOOT",
      "outputs": [
        {
          "internalType": "contract IERC1155MintableSupply",
          "name": "",
          "type": "address"
        }
      ],
      "stateMutability": "view",
      "type": "function"
    },
    {
      "inputs": [
        {
          "internalType": "contract IERC20",
          "name": "token",
          "type": "address"
        },
        {
          "internalType": "bool",
          "name": "yes",
          "type": "bool"
        }
      ],
      "name": "burnable",
      "outputs": [],
      "stateMutability": "nonpayable",
      "type": "function"
    },
    {
      "inputs": [
        {
          "internalType": "bytes32",
          "name": "role",
          "type": "bytes32"
        }
      ],
      "name": "getRoleAdmin",
      "outputs": [
        {
          "internalType": "bytes32",
          "name": "",
          "type": "bytes32"
        }
      ],
      "stateMutability": "view",
      "type": "function"
    },
    {
      "inputs": [
        {
          "internalType": "bytes32",
          "name": "role",
          "type": "bytes32"
        },
        {
          "internalType": "address",
          "name": "account",
          "type": "address"
        }
      ],
      "name": "grantRole",
      "outputs": [],
      "stateMutability": "nonpayable",
      "type": "function"
    },
    {
      "inputs": [
        {
          "internalType": "bytes32",
          "name": "role",
          "type": "bytes32"
        },
        {
          "internalType": "address",
          "name": "account",
          "type": "address"
        }
      ],
      "name": "hasRole",
      "outputs": [
        {
          "internalType": "bool",
          "name": "",
          "type": "bool"
        }
      ],
      "stateMutability": "view",
      "type": "function"
    },
    {
      "inputs": [
        {
          "internalType": "uint256",
          "name": "itemId",
          "type": "uint256"
        },
        {
          "internalType": "address[]",
          "name": "tokens",
          "type": "address[]"
        }
      ],
      "name": "infoOf",
      "outputs": [
        {
          "internalType": "uint256",
          "name": "supply",
          "type": "uint256"
        },
        {
          "internalType": "uint256",
          "name": "max",
          "type": "uint256"
        },
        {
          "internalType": "uint256[]",
          "name": "prices",
          "type": "uint256[]"
        }
      ],
      "stateMutability": "view",
      "type": "function"
    },
    {
      "inputs": [
        {
          "internalType": "address",
          "name": "token",
          "type": "address"
        },
        {
          "internalType": "address",
          "name": "to",
          "type": "address"
        },
        {
          "internalType": "uint256[]",
          "name": "itemIds",
          "type": "uint256[]"
        },
        {
          "internalType": "uint256[]",
          "name": "amounts",
          "type": "uint256[]"
        }
      ],
      "name": "mint",
      "outputs": [],
      "stateMutability": "payable",
      "type": "function"
    },
    {
      "inputs": [
        {
          "internalType": "address",
          "name": "token",
          "type": "address"
        },
        {
          "internalType": "address",
          "name": "to",
          "type": "address"
        },
        {
          "internalType": "uint256",
          "name": "itemId",
          "type": "uint256"
        },
        {
          "internalType": "uint256",
          "name": "amount",
          "type": "uint256"
        }
      ],
      "name": "mint",
      "outputs": [],
      "stateMutability": "payable",
      "type": "function"
    },
    {
      "inputs": [
        {
          "internalType": "uint256",
          "name": "itemId",
          "type": "uint256"
        },
        {
          "internalType": "address",
          "name": "token",
          "type": "address"
        }
      ],
      "name": "priceOf",
      "outputs": [
        {
          "internalType": "uint256",
          "name": "",
          "type": "uint256"
        }
      ],
      "stateMutability": "view",
      "type": "function"
    },
    {
      "inputs": [
        {
          "internalType": "uint256",
          "name": "itemId",
          "type": "uint256"
        }
      ],
      "name": "priceOf",
      "outputs": [
        {
          "internalType": "uint256",
          "name": "",
          "type": "uint256"
        }
      ],
      "stateMutability": "view",
      "type": "function"
    },
    {
      "inputs": [
        {
          "internalType": "bytes32",
          "name": "role",
          "type": "bytes32"
        },
        {
          "internalType": "address",
          "name": "account",
          "type": "address"
        }
      ],
      "name": "renounceRole",
      "outputs": [],
      "stateMutability": "nonpayable",
      "type": "function"
    },
    {
      "inputs": [
        {
          "internalType": "bytes32",
          "name": "role",
          "type": "bytes32"
        },
        {
          "internalType": "address",
          "name": "account",
          "type": "address"
        }
      ],
      "name": "revokeRole",
      "outputs": [],
      "stateMutability": "nonpayable",
      "type": "function"
    },
    {
      "inputs": [
        {
          "internalType": "uint256",
          "name": "itemId",
          "type": "uint256"
        },
        {
          "internalType": "address[]",
          "name": "tokens",
          "type": "address[]"
        },
        {
          "internalType": "uint256[]",
          "name": "prices",
          "type": "uint256[]"
        }
      ],
      "name": "setPrice",
      "outputs": [],
      "stateMutability": "nonpayable",
      "type": "function"
    },
    {
      "inputs": [
        {
          "internalType": "uint256[]",
          "name": "itemIds",
          "type": "uint256[]"
        },
        {
          "internalType": "address[][]",
          "name": "tokens",
          "type": "address[][]"
        },
        {
          "internalType": "uint256[][]",
          "name": "prices",
          "type": "uint256[][]"
        }
      ],
      "name": "setPrice",
      "outputs": [],
      "stateMutability": "nonpayable",
      "type": "function"
    },
    {
      "inputs": [
        {
          "internalType": "bytes4",
          "name": "interfaceId",
          "type": "bytes4"
        }
      ],
      "name": "supportsInterface",
      "outputs": [
        {
          "internalType": "bool",
          "name": "",
          "type": "bool"
        }
      ],
      "stateMutability": "view",
      "type": "function"
    },
    {
      "inputs": [
        {
          "internalType": "address",
          "name": "recipient",
          "type": "address"
        }
      ],
      "name": "withdraw",
      "outputs": [],
      "stateMutability": "nonpayable",
      "type": "function"
    },
    {
      "inputs": [
        {
          "internalType": "contract IERC20",
          "name": "erc20",
          "type": "address"
        },
        {
          "internalType": "address",
          "name": "recipient",
          "type": "address"
        },
        {
          "internalType": "uint256",
          "name": "amount",
          "type": "uint256"
        }
      ],
      "name": "withdraw",
      "outputs": [],
      "stateMutability": "nonpayable",
      "type": "function"
    }
  ],
  "bytecode": "0x60a06040523480156200001157600080fd5b506040516200200438038062002004833981016040819052620000349162000121565b600180556200004560008262000058565b506001600160a01b031660805262000160565b62000064828262000068565b5050565b6000828152602081815260408083206001600160a01b038516845290915290205460ff1662000064576000828152602081815260408083206001600160a01b03851684529091529020805460ff19166001179055620000c43390565b6001600160a01b0316816001600160a01b0316837f2f8788117e7eff1d82e926ec794901d17c78024a50270940304540a733656f0d60405160405180910390a45050565b6001600160a01b03811681146200011e57600080fd5b50565b600080604083850312156200013557600080fd5b8251620001428162000108565b6020840151909250620001558162000108565b809150509250929050565b608051611e6c620001986000396000818161036201528181610775015281816108570152818161090c0152610deb0152611e6c6000f3fe6080604052600436106101095760003560e01c8063909723c011610095578063b9186d7d11610064578063b9186d7d146102f0578063d547741f14610310578063d9caed1214610330578063ebfda08514610350578063eed1d88a1461039c57600080fd5b8063909723c01461028857806391d14854146102a8578063a217fddf146102c8578063b3f1c93d146102dd57600080fd5b8063462aa45e116100dc578063462aa45e146101c357806351cff8d9146101d657806378bf0dba146101f65780638a145e01146102255780638f7f9a831461026857600080fd5b806301ffc9a71461010e578063248a9ca3146101435780632f2ff15d1461018157806336568abe146101a3575b600080fd5b34801561011a57600080fd5b5061012e61012936600461163c565b6103bc565b60405190151581526020015b60405180910390f35b34801561014f57600080fd5b5061017361015e366004611666565b60009081526020819052604090206001015490565b60405190815260200161013a565b34801561018d57600080fd5b506101a161019c366004611697565b6103f3565b005b3480156101af57600080fd5b506101a16101be366004611697565b61041e565b6101a16101d136600461179d565b6104a1565b3480156101e257600080fd5b506101a16101f1366004611826565b6107eb565b34801561020257600080fd5b506102166102113660046118a7565b610850565b60405161013a93929190611929565b34801561023157600080fd5b50610173610240366004611697565b60009182526002602090815260408084206001600160a01b0393909316845291905290205490565b34801561027457600080fd5b506101a161028336600461195f565b610a69565b34801561029457600080fd5b506101a16102a336600461198d565b610ac0565b3480156102b457600080fd5b5061012e6102c3366004611697565b610ba0565b3480156102d457600080fd5b50610173600081565b6101a16102eb3660046119fa565b610bc9565b3480156102fc57600080fd5b5061017361030b366004611666565b610e1a565b34801561031c57600080fd5b506101a161032b366004611697565b610e39565b34801561033c57600080fd5b506101a161034b366004611a40565b610e5f565b34801561035c57600080fd5b506103847f000000000000000000000000000000000000000000000000000000000000000081565b6040516001600160a01b03909116815260200161013a565b3480156103a857600080fd5b506101a16103b7366004611b01565b610ec7565b60006001600160e01b03198216637965db0b60e01b14806103ed57506301ffc9a760e01b6001600160e01b03198316145b92915050565b60008281526020819052604090206001015461040f8133610f97565b6104198383610ffb565b505050565b6001600160a01b03811633146104935760405162461bcd60e51b815260206004820152602f60248201527f416363657373436f6e74726f6c3a2063616e206f6e6c792072656e6f756e636560448201526e103937b632b9903337b91039b2b63360891b60648201526084015b60405180910390fd5b61049d828261107f565b5050565b600260015414156104c45760405162461bcd60e51b815260040161048a90611bee565b600260015580518251146104eb5760405163574b16a760e11b815260040160405180910390fd5b6000805b83518110156105fb576002600085838151811061050e5761050e611c25565b602002602001015181526020019081526020016000206000876001600160a01b03166001600160a01b0316815260200190815260200160002054600014156105695760405163574b16a760e11b815260040160405180910390fd5b82818151811061057b5761057b611c25565b60200260200101516002600086848151811061059957610599611c25565b602002602001015181526020019081526020016000206000886001600160a01b03166001600160a01b03168152602001908152602001600020546105dd9190611c51565b6105e79083611c70565b9150806105f381611c88565b9150506104ef565b506001600160a01b038516610630578034101561062b5760405163574b16a760e11b815260040160405180910390fd5b61075e565b6001600160a01b03851660009081526003602052604090205460ff16156106c6576001600160a01b0385166379cc6790336040516001600160e01b031960e084901b1681526001600160a01b03909116600482015260248101849052604401600060405180830381600087803b1580156106a957600080fd5b505af11580156106bd573d6000803e3d6000fd5b5050505061075e565b6001600160a01b0385166323b872dd336040516001600160e01b031960e084901b1681526001600160a01b03909116600482015230602482015260448101849052606401602060405180830381600087803b15801561072457600080fd5b505af1158015610738573d6000803e3d6000fd5b505050506040513d601f19601f8201168201806040525081019061075c9190611ca3565b505b60405163440703d760e01b81526001600160a01b037f0000000000000000000000000000000000000000000000000000000000000000169063440703d7906107ae90879087908790600401611cc0565b600060405180830381600087803b1580156107c857600080fd5b505af11580156107dc573d6000803e3d6000fd5b50506001805550505050505050565b6002600154141561080e5760405162461bcd60e51b815260040161048a90611bee565b60026001557f0914bb97ca83e85ef385857d9d418f187ff630589e0c9f44db92976d8e4519cb61083e8133610f97565b61084882476110e4565b505060018055565b60008060607f00000000000000000000000000000000000000000000000000000000000000006001600160a01b031663bd85b039866040518263ffffffff1660e01b81526004016108a391815260200190565b60206040518083038186803b1580156108bb57600080fd5b505afa1580156108cf573d6000803e3d6000fd5b505050506040513d601f19601f820116820180604052508101906108f39190611d12565b6040516321a7dd6560e21b8152600481018790529093507f00000000000000000000000000000000000000000000000000000000000000006001600160a01b03169063869f75949060240160206040518083038186803b15801561095657600080fd5b505afa15801561096a573d6000803e3d6000fd5b505050506040513d601f19601f8201168201806040525081019061098e9190611d12565b9150835167ffffffffffffffff8111156109aa576109aa6116c7565b6040519080825280602002602001820160405280156109d3578160200160208202803683370190505b50905060005b8451811015610a6157600260008781526020019081526020016000206000868381518110610a0957610a09611c25565b60200260200101516001600160a01b03166001600160a01b0316815260200190815260200160002054828281518110610a4457610a44611c25565b602090810291909101015280610a5981611c88565b9150506109d9565b509250925092565b7f850d585eb7f024ccee5e68e55f2c26cc72e1e6ee456acf62135757a5eb9d4a10610a948133610f97565b506001600160a01b03919091166000908152600360205260409020805460ff1916911515919091179055565b7f850d585eb7f024ccee5e68e55f2c26cc72e1e6ee456acf62135757a5eb9d4a10610aeb8133610f97565b8151835114610b0d5760405163574b16a760e11b815260040160405180910390fd5b60005b8351811015610b9957828181518110610b2b57610b2b611c25565b6020026020010151600260008781526020019081526020016000206000868481518110610b5a57610b5a611c25565b60200260200101516001600160a01b03166001600160a01b03168152602001908152602001600020819055508080610b9190611c88565b915050610b10565b5050505050565b6000918252602082815260408084206001600160a01b0393909316845291905290205460ff1690565b60026001541415610bec5760405162461bcd60e51b815260040161048a90611bee565b600260018190556000838152602091825260408082206001600160a01b0388168352909252205480610c315760405163574b16a760e11b815260040160405180910390fd5b6001600160a01b038516610c6e57610c498282611c51565b341015610c695760405163574b16a760e11b815260040160405180910390fd5b610db0565b6001600160a01b03851660009081526003602052604090205460ff1615610d0c576001600160a01b0385166379cc679033610ca98585611c51565b6040516001600160e01b031960e085901b1681526001600160a01b0390921660048301526024820152604401600060405180830381600087803b158015610cef57600080fd5b505af1158015610d03573d6000803e3d6000fd5b50505050610db0565b6001600160a01b0385166323b872dd3330610d278686611c51565b6040516001600160e01b031960e086901b1681526001600160a01b0393841660048201529290911660248301526044820152606401602060405180830381600087803b158015610d7657600080fd5b505af1158015610d8a573d6000803e3d6000fd5b505050506040513d601f19601f82011682018060405250810190610dae9190611ca3565b505b60405163731133e960e01b81526001600160a01b038581166004830152602482018590526044820184905260806064830152600060848301527f0000000000000000000000000000000000000000000000000000000000000000169063731133e99060a4016107ae565b60008181526002602090815260408083208380529091528120546103ed565b600082815260208190526040902060010154610e558133610f97565b610419838361107f565b60026001541415610e825760405162461bcd60e51b815260040161048a90611bee565b60026001557f0914bb97ca83e85ef385857d9d418f187ff630589e0c9f44db92976d8e4519cb610eb28133610f97565b610ebd8484846111fd565b5050600180555050565b7f850d585eb7f024ccee5e68e55f2c26cc72e1e6ee456acf62135757a5eb9d4a10610ef28133610f97565b82518451141580610f0557508151835114155b15610f235760405163574b16a760e11b815260040160405180910390fd5b60005b8451811015610b9957610f85858281518110610f4457610f44611c25565b6020026020010151858381518110610f5e57610f5e611c25565b6020026020010151858481518110610f7857610f78611c25565b6020026020010151610ac0565b80610f8f81611c88565b915050610f26565b610fa18282610ba0565b61049d57610fb9816001600160a01b0316601461124f565b610fc483602061124f565b604051602001610fd5929190611d5b565b60408051601f198184030181529082905262461bcd60e51b825261048a91600401611dd0565b6110058282610ba0565b61049d576000828152602081815260408083206001600160a01b03851684529091529020805460ff1916600117905561103b3390565b6001600160a01b0316816001600160a01b0316837f2f8788117e7eff1d82e926ec794901d17c78024a50270940304540a733656f0d60405160405180910390a45050565b6110898282610ba0565b1561049d576000828152602081815260408083206001600160a01b0385168085529252808320805460ff1916905551339285917ff6391f5c32d9c69d2a47ea670b442974b53935d1edc7fd64eb21e047a839171b9190a45050565b804710156111345760405162461bcd60e51b815260206004820152601d60248201527f416464726573733a20696e73756666696369656e742062616c616e6365000000604482015260640161048a565b6000826001600160a01b03168260405160006040518083038185875af1925050503d8060008114611181576040519150601f19603f3d011682016040523d82523d6000602084013e611186565b606091505b50509050806104195760405162461bcd60e51b815260206004820152603a60248201527f416464726573733a20756e61626c6520746f2073656e642076616c75652c207260448201527f6563697069656e74206d61792068617665207265766572746564000000000000606482015260840161048a565b604080516001600160a01b038416602482015260448082018490528251808303909101815260649091019091526020810180516001600160e01b031663a9059cbb60e01b1790526104199084906113f2565b6060600061125e836002611c51565b611269906002611c70565b67ffffffffffffffff811115611281576112816116c7565b6040519080825280601f01601f1916602001820160405280156112ab576020820181803683370190505b509050600360fc1b816000815181106112c6576112c6611c25565b60200101906001600160f81b031916908160001a905350600f60fb1b816001815181106112f5576112f5611c25565b60200101906001600160f81b031916908160001a9053506000611319846002611c51565b611324906001611c70565b90505b600181111561139c576f181899199a1a9b1b9c1cb0b131b232b360811b85600f166010811061135857611358611c25565b1a60f81b82828151811061136e5761136e611c25565b60200101906001600160f81b031916908160001a90535060049490941c9361139581611e03565b9050611327565b5083156113eb5760405162461bcd60e51b815260206004820181905260248201527f537472696e67733a20686578206c656e67746820696e73756666696369656e74604482015260640161048a565b9392505050565b6000611447826040518060400160405280602081526020017f5361666545524332303a206c6f772d6c6576656c2063616c6c206661696c6564815250856001600160a01b03166114c49092919063ffffffff16565b80519091501561041957808060200190518101906114659190611ca3565b6104195760405162461bcd60e51b815260206004820152602a60248201527f5361666545524332303a204552433230206f7065726174696f6e20646964206e6044820152691bdd081cdd58d8d9595960b21b606482015260840161048a565b60606114d384846000856114db565b949350505050565b60608247101561153c5760405162461bcd60e51b815260206004820152602660248201527f416464726573733a20696e73756666696369656e742062616c616e636520666f6044820152651c8818d85b1b60d21b606482015260840161048a565b843b61158a5760405162461bcd60e51b815260206004820152601d60248201527f416464726573733a2063616c6c20746f206e6f6e2d636f6e7472616374000000604482015260640161048a565b600080866001600160a01b031685876040516115a69190611e1a565b60006040518083038185875af1925050503d80600081146115e3576040519150601f19603f3d011682016040523d82523d6000602084013e6115e8565b606091505b50915091506115f8828286611603565b979650505050505050565b606083156116125750816113eb565b8251156116225782518084602001fd5b8160405162461bcd60e51b815260040161048a9190611dd0565b60006020828403121561164e57600080fd5b81356001600160e01b0319811681146113eb57600080fd5b60006020828403121561167857600080fd5b5035919050565b6001600160a01b038116811461169457600080fd5b50565b600080604083850312156116aa57600080fd5b8235915060208301356116bc8161167f565b809150509250929050565b634e487b7160e01b600052604160045260246000fd5b604051601f8201601f1916810167ffffffffffffffff81118282101715611706576117066116c7565b604052919050565b600067ffffffffffffffff821115611728576117286116c7565b5060051b60200190565b600082601f83011261174357600080fd5b813560206117586117538361170e565b6116dd565b82815260059290921b8401810191818101908684111561177757600080fd5b8286015b84811015611792578035835291830191830161177b565b509695505050505050565b600080600080608085870312156117b357600080fd5b84356117be8161167f565b935060208501356117ce8161167f565b9250604085013567ffffffffffffffff808211156117eb57600080fd5b6117f788838901611732565b9350606087013591508082111561180d57600080fd5b5061181a87828801611732565b91505092959194509250565b60006020828403121561183857600080fd5b81356113eb8161167f565b600082601f83011261185457600080fd5b813560206118646117538361170e565b82815260059290921b8401810191818101908684111561188357600080fd5b8286015b8481101561179257803561189a8161167f565b8352918301918301611887565b600080604083850312156118ba57600080fd5b82359150602083013567ffffffffffffffff8111156118d857600080fd5b6118e485828601611843565b9150509250929050565b600081518084526020808501945080840160005b8381101561191e57815187529582019590820190600101611902565b509495945050505050565b83815282602082015260606040820152600061194860608301846118ee565b95945050505050565b801515811461169457600080fd5b6000806040838503121561197257600080fd5b823561197d8161167f565b915060208301356116bc81611951565b6000806000606084860312156119a257600080fd5b83359250602084013567ffffffffffffffff808211156119c157600080fd5b6119cd87838801611843565b935060408601359150808211156119e357600080fd5b506119f086828701611732565b9150509250925092565b60008060008060808587031215611a1057600080fd5b8435611a1b8161167f565b93506020850135611a2b8161167f565b93969395505050506040820135916060013590565b600080600060608486031215611a5557600080fd5b8335611a608161167f565b92506020840135611a708161167f565b929592945050506040919091013590565b600082601f830112611a9257600080fd5b81356020611aa26117538361170e565b82815260059290921b84018101918181019086841115611ac157600080fd5b8286015b8481101561179257803567ffffffffffffffff811115611ae55760008081fd5b611af38986838b0101611732565b845250918301918301611ac5565b600080600060608486031215611b1657600080fd5b833567ffffffffffffffff80821115611b2e57600080fd5b611b3a87838801611732565b9450602091508186013581811115611b5157600080fd5b8601601f81018813611b6257600080fd5b8035611b706117538261170e565b81815260059190911b8201840190848101908a831115611b8f57600080fd5b8584015b83811015611bc757803586811115611bab5760008081fd5b611bb98d8983890101611843565b845250918601918601611b93565b5096505050506040860135915080821115611be157600080fd5b506119f086828701611a81565b6020808252601f908201527f5265656e7472616e637947756172643a207265656e7472616e742063616c6c00604082015260600190565b634e487b7160e01b600052603260045260246000fd5b634e487b7160e01b600052601160045260246000fd5b6000816000190483118215151615611c6b57611c6b611c3b565b500290565b60008219821115611c8357611c83611c3b565b500190565b6000600019821415611c9c57611c9c611c3b565b5060010190565b600060208284031215611cb557600080fd5b81516113eb81611951565b6001600160a01b0384168152608060208201819052600090611ce4908301856118ee565b8281036040840152611cf681856118ee565b8381036060909401939093525050600081526020019392505050565b600060208284031215611d2457600080fd5b5051919050565b60005b83811015611d46578181015183820152602001611d2e565b83811115611d55576000848401525b50505050565b7f416363657373436f6e74726f6c3a206163636f756e7420000000000000000000815260008351611d93816017850160208801611d2b565b7001034b99036b4b9b9b4b733903937b6329607d1b6017918401918201528351611dc4816028840160208801611d2b565b01602801949350505050565b6020815260008251806020840152611def816040850160208701611d2b565b601f01601f19169190910160400192915050565b600081611e1257611e12611c3b565b506000190190565b60008251611e2c818460208701611d2b565b919091019291505056fea2646970667358221220ab81e77c78c30ef7768855fb119d18a9c44bb74adee0a4844bac362af6e060bd64736f6c63430008090033",
  "linkReferences": {},
  "deployedLinkReferences": {}
}