{
  "_format": "hh-sol-artifact-1",
  "contractName": "CashCowsStore",
  "sourceName": "contracts/phase4/CashCowsStore.sol",
  "abi": [
    {
      "inputs": [
        {
          "internalType": "contract IERC1155MintableSupply",
          "name": "loot",
          "type": "address"
        },
        {
          "internalType": "address",
          "name": "admin",
          "type": "address"
        }
      ],
      "stateMutability": "nonpayable",
      "type": "constructor"
    },
    {
      "inputs": [],
      "name": "InvalidCall",
      "type": "error"
    },
    {
      "anonymous": false,
      "inputs": [
        {
          "indexed": true,
          "internalType": "bytes32",
          "name": "role",
          "type": "bytes32"
        },
        {
          "indexed": true,
          "internalType": "bytes32",
          "name": "previousAdminRole",
          "type": "bytes32"
        },
        {
          "indexed": true,
          "internalType": "bytes32",
          "name": "newAdminRole",
          "type": "bytes32"
        }
      ],
      "name": "RoleAdminChanged",
      "type": "event"
    },
    {
      "anonymous": false,
      "inputs": [
        {
          "indexed": true,
          "internalType": "bytes32",
          "name": "role",
          "type": "bytes32"
        },
        {
          "indexed": true,
          "internalType": "address",
          "name": "account",
          "type": "address"
        },
        {
          "indexed": true,
          "internalType": "address",
          "name": "sender",
          "type": "address"
        }
      ],
      "name": "RoleGranted",
      "type": "event"
    },
    {
      "anonymous": false,
      "inputs": [
        {
          "indexed": true,
          "internalType": "bytes32",
          "name": "role",
          "type": "bytes32"
        },
        {
          "indexed": true,
          "internalType": "address",
          "name": "account",
          "type": "address"
        },
        {
          "indexed": true,
          "internalType": "address",
          "name": "sender",
          "type": "address"
        }
      ],
      "name": "RoleRevoked",
      "type": "event"
    },
    {
      "inputs": [],
      "name": "DEFAULT_ADMIN_ROLE",
      "outputs": [
        {
          "internalType": "bytes32",
          "name": "",
          "type": "bytes32"
        }
      ],
      "stateMutability": "view",
      "type": "function"
    },
    {
      "inputs": [],
      "name": "LOOT",
      "outputs": [
        {
          "internalType": "contract IERC1155MintableSupply",
          "name": "",
          "type": "address"
        }
      ],
      "stateMutability": "view",
      "type": "function"
    },
    {
      "inputs": [
        {
          "internalType": "contract IERC20Burnable",
          "name": "token",
          "type": "address"
        },
        {
          "internalType": "bool",
          "name": "burnable",
          "type": "bool"
        }
      ],
      "name": "burnTokens",
      "outputs": [],
      "stateMutability": "nonpayable",
      "type": "function"
    },
    {
      "inputs": [
        {
          "internalType": "bytes32",
          "name": "role",
          "type": "bytes32"
        }
      ],
      "name": "getRoleAdmin",
      "outputs": [
        {
          "internalType": "bytes32",
          "name": "",
          "type": "bytes32"
        }
      ],
      "stateMutability": "view",
      "type": "function"
    },
    {
      "inputs": [
        {
          "internalType": "bytes32",
          "name": "role",
          "type": "bytes32"
        },
        {
          "internalType": "address",
          "name": "account",
          "type": "address"
        }
      ],
      "name": "grantRole",
      "outputs": [],
      "stateMutability": "nonpayable",
      "type": "function"
    },
    {
      "inputs": [
        {
          "internalType": "bytes32",
          "name": "role",
          "type": "bytes32"
        },
        {
          "internalType": "address",
          "name": "account",
          "type": "address"
        }
      ],
      "name": "hasRole",
      "outputs": [
        {
          "internalType": "bool",
          "name": "",
          "type": "bool"
        }
      ],
      "stateMutability": "view",
      "type": "function"
    },
    {
      "inputs": [
        {
          "internalType": "uint256",
          "name": "itemId",
          "type": "uint256"
        },
        {
          "internalType": "address[]",
          "name": "tokens",
          "type": "address[]"
        }
      ],
      "name": "infoOf",
      "outputs": [
        {
          "internalType": "uint256",
          "name": "supply",
          "type": "uint256"
        },
        {
          "internalType": "uint256",
          "name": "max",
          "type": "uint256"
        },
        {
          "internalType": "uint256[]",
          "name": "prices",
          "type": "uint256[]"
        }
      ],
      "stateMutability": "view",
      "type": "function"
    },
    {
      "inputs": [
        {
          "internalType": "address",
          "name": "token",
          "type": "address"
        },
        {
          "internalType": "address",
          "name": "to",
          "type": "address"
        },
        {
          "internalType": "uint256[]",
          "name": "itemIds",
          "type": "uint256[]"
        },
        {
          "internalType": "uint256[]",
          "name": "amounts",
          "type": "uint256[]"
        }
      ],
      "name": "mint",
      "outputs": [],
      "stateMutability": "payable",
      "type": "function"
    },
    {
      "inputs": [
        {
          "internalType": "address",
          "name": "token",
          "type": "address"
        },
        {
          "internalType": "address",
          "name": "to",
          "type": "address"
        },
        {
          "internalType": "uint256",
          "name": "itemId",
          "type": "uint256"
        },
        {
          "internalType": "uint256",
          "name": "amount",
          "type": "uint256"
        }
      ],
      "name": "mint",
      "outputs": [],
      "stateMutability": "payable",
      "type": "function"
    },
    {
      "inputs": [
        {
          "internalType": "uint256",
          "name": "itemId",
          "type": "uint256"
        },
        {
          "internalType": "address",
          "name": "token",
          "type": "address"
        }
      ],
      "name": "priceOf",
      "outputs": [
        {
          "internalType": "uint256",
          "name": "",
          "type": "uint256"
        }
      ],
      "stateMutability": "view",
      "type": "function"
    },
    {
      "inputs": [
        {
          "internalType": "uint256",
          "name": "itemId",
          "type": "uint256"
        }
      ],
      "name": "priceOf",
      "outputs": [
        {
          "internalType": "uint256",
          "name": "",
          "type": "uint256"
        }
      ],
      "stateMutability": "view",
      "type": "function"
    },
    {
      "inputs": [
        {
          "internalType": "bytes32",
          "name": "role",
          "type": "bytes32"
        },
        {
          "internalType": "address",
          "name": "account",
          "type": "address"
        }
      ],
      "name": "renounceRole",
      "outputs": [],
      "stateMutability": "nonpayable",
      "type": "function"
    },
    {
      "inputs": [
        {
          "internalType": "bytes32",
          "name": "role",
          "type": "bytes32"
        },
        {
          "internalType": "address",
          "name": "account",
          "type": "address"
        }
      ],
      "name": "revokeRole",
      "outputs": [],
      "stateMutability": "nonpayable",
      "type": "function"
    },
    {
      "inputs": [
        {
          "internalType": "uint256",
          "name": "itemId",
          "type": "uint256"
        },
        {
          "internalType": "address[]",
          "name": "tokens",
          "type": "address[]"
        },
        {
          "internalType": "uint256[]",
          "name": "prices",
          "type": "uint256[]"
        }
      ],
      "name": "setPrice",
      "outputs": [],
      "stateMutability": "nonpayable",
      "type": "function"
    },
    {
      "inputs": [
        {
          "internalType": "uint256[]",
          "name": "itemIds",
          "type": "uint256[]"
        },
        {
          "internalType": "address[][]",
          "name": "tokens",
          "type": "address[][]"
        },
        {
          "internalType": "uint256[][]",
          "name": "prices",
          "type": "uint256[][]"
        }
      ],
      "name": "setPrice",
      "outputs": [],
      "stateMutability": "nonpayable",
      "type": "function"
    },
    {
      "inputs": [
        {
          "internalType": "bytes4",
          "name": "interfaceId",
          "type": "bytes4"
        }
      ],
      "name": "supportsInterface",
      "outputs": [
        {
          "internalType": "bool",
          "name": "",
          "type": "bool"
        }
      ],
      "stateMutability": "view",
      "type": "function"
    },
    {
      "inputs": [
        {
          "internalType": "address",
          "name": "recipient",
          "type": "address"
        }
      ],
      "name": "withdraw",
      "outputs": [],
      "stateMutability": "nonpayable",
      "type": "function"
    },
    {
      "inputs": [
        {
          "internalType": "contract IERC20",
          "name": "erc20",
          "type": "address"
        },
        {
          "internalType": "address",
          "name": "recipient",
          "type": "address"
        },
        {
          "internalType": "uint256",
          "name": "amount",
          "type": "uint256"
        }
      ],
      "name": "withdraw",
      "outputs": [],
      "stateMutability": "nonpayable",
      "type": "function"
    }
  ],
  "bytecode": "0x60806040523480156200001157600080fd5b5060405162001f6638038062001f66833981016040819052620000349162000135565b60018055620000456000826200006c565b50600280546001600160a01b0319166001600160a01b039290921691909117905562000174565b6200007882826200007c565b5050565b6000828152602081815260408083206001600160a01b038516845290915290205460ff1662000078576000828152602081815260408083206001600160a01b03851684529091529020805460ff19166001179055620000d83390565b6001600160a01b0316816001600160a01b0316837f2f8788117e7eff1d82e926ec794901d17c78024a50270940304540a733656f0d60405160405180910390a45050565b6001600160a01b03811681146200013257600080fd5b50565b600080604083850312156200014957600080fd5b825162000156816200011c565b602084015190925062000169816200011c565b809150509250929050565b611de280620001846000396000f3fe6080604052600436106101095760003560e01c806391d1485411610095578063c528fa6311610064578063c528fa63146102f0578063d547741f14610310578063d9caed1214610330578063ebfda08514610350578063eed1d88a1461038857600080fd5b806391d1485414610288578063a217fddf146102a8578063b3f1c93d146102bd578063b9186d7d146102d057600080fd5b8063462aa45e116100dc578063462aa45e146101c357806351cff8d9146101d657806378bf0dba146101f65780638a145e0114610225578063909723c01461026857600080fd5b806301ffc9a71461010e578063248a9ca3146101435780632f2ff15d1461018157806336568abe146101a3575b600080fd5b34801561011a57600080fd5b5061012e6101293660046115b2565b6103a8565b60405190151581526020015b60405180910390f35b34801561014f57600080fd5b5061017361015e3660046115dc565b60009081526020819052604090206001015490565b60405190815260200161013a565b34801561018d57600080fd5b506101a161019c36600461160d565b6103df565b005b3480156101af57600080fd5b506101a16101be36600461160d565b61040a565b6101a16101d1366004611713565b61048d565b3480156101e257600080fd5b506101a16101f136600461179c565b6107bb565b34801561020257600080fd5b5061021661021136600461181d565b610820565b60405161013a9392919061189f565b34801561023157600080fd5b5061017361024036600461160d565b60009182526003602090815260408084206001600160a01b0393909316845291905290205490565b34801561027457600080fd5b506101a16102833660046118c7565b6109fa565b34801561029457600080fd5b5061012e6102a336600461160d565b610ada565b3480156102b457600080fd5b50610173600081565b6101a16102cb366004611934565b610b03565b3480156102dc57600080fd5b506101736102eb3660046115dc565b610d39565b3480156102fc57600080fd5b506101a161030b366004611988565b610d58565b34801561031c57600080fd5b506101a161032b36600461160d565b610daf565b34801561033c57600080fd5b506101a161034b3660046119b6565b610dd5565b34801561035c57600080fd5b50600254610370906001600160a01b031681565b6040516001600160a01b03909116815260200161013a565b34801561039457600080fd5b506101a16103a3366004611a77565b610e3d565b60006001600160e01b03198216637965db0b60e01b14806103d957506301ffc9a760e01b6001600160e01b03198316145b92915050565b6000828152602081905260409020600101546103fb8133610f0d565b6104058383610f71565b505050565b6001600160a01b038116331461047f5760405162461bcd60e51b815260206004820152602f60248201527f416363657373436f6e74726f6c3a2063616e206f6e6c792072656e6f756e636560448201526e103937b632b9903337b91039b2b63360891b60648201526084015b60405180910390fd5b6104898282610ff5565b5050565b600260015414156104b05760405162461bcd60e51b815260040161047690611b64565b600260015580518251146104d75760405163574b16a760e11b815260040160405180910390fd5b6000805b83518110156105e757600360008583815181106104fa576104fa611b9b565b602002602001015181526020019081526020016000206000876001600160a01b03166001600160a01b0316815260200190815260200160002054600014156105555760405163574b16a760e11b815260040160405180910390fd5b82818151811061056757610567611b9b565b60200260200101516003600086848151811061058557610585611b9b565b602002602001015181526020019081526020016000206000886001600160a01b03166001600160a01b03168152602001908152602001600020546105c99190611bc7565b6105d39083611be6565b9150806105df81611bfe565b9150506104db565b506001600160a01b03851661061c57803410156106175760405163574b16a760e11b815260040160405180910390fd5b61074a565b6001600160a01b03851660009081526004602052604090205460ff16156106b2576001600160a01b0385166379cc6790336040516001600160e01b031960e084901b1681526001600160a01b03909116600482015260248101849052604401600060405180830381600087803b15801561069557600080fd5b505af11580156106a9573d6000803e3d6000fd5b5050505061074a565b6001600160a01b0385166323b872dd336040516001600160e01b031960e084901b1681526001600160a01b03909116600482015230602482015260448101849052606401602060405180830381600087803b15801561071057600080fd5b505af1158015610724573d6000803e3d6000fd5b505050506040513d601f19601f820116820180604052508101906107489190611c19565b505b60025460405163440703d760e01b81526001600160a01b039091169063440703d79061077e90879087908790600401611c36565b600060405180830381600087803b15801561079857600080fd5b505af11580156107ac573d6000803e3d6000fd5b50506001805550505050505050565b600260015414156107de5760405162461bcd60e51b815260040161047690611b64565b60026001557f0914bb97ca83e85ef385857d9d418f187ff630589e0c9f44db92976d8e4519cb61080e8133610f0d565b610818824761105a565b505060018055565b60025460405163bd85b03960e01b81526004810184905260009182916060916001600160a01b03169063bd85b0399060240160206040518083038186803b15801561086a57600080fd5b505afa15801561087e573d6000803e3d6000fd5b505050506040513d601f19601f820116820180604052508101906108a29190611c88565b6002546040516321a7dd6560e21b8152600481018890529194506001600160a01b03169063869f75949060240160206040518083038186803b1580156108e757600080fd5b505afa1580156108fb573d6000803e3d6000fd5b505050506040513d601f19601f8201168201806040525081019061091f9190611c88565b9150835167ffffffffffffffff81111561093b5761093b61163d565b604051908082528060200260200182016040528015610964578160200160208202803683370190505b50905060005b84518110156109f25760036000878152602001908152602001600020600086838151811061099a5761099a611b9b565b60200260200101516001600160a01b03166001600160a01b03168152602001908152602001600020548282815181106109d5576109d5611b9b565b6020908102919091010152806109ea81611bfe565b91505061096a565b509250925092565b7f850d585eb7f024ccee5e68e55f2c26cc72e1e6ee456acf62135757a5eb9d4a10610a258133610f0d565b8151835114610a475760405163574b16a760e11b815260040160405180910390fd5b60005b8351811015610ad357828181518110610a6557610a65611b9b565b6020026020010151600360008781526020019081526020016000206000868481518110610a9457610a94611b9b565b60200260200101516001600160a01b03166001600160a01b03168152602001908152602001600020819055508080610acb90611bfe565b915050610a4a565b5050505050565b6000918252602082815260408084206001600160a01b0393909316845291905290205460ff1690565b60026001541415610b265760405162461bcd60e51b815260040161047690611b64565b600260015560008281526003602090815260408083206001600160a01b038816845290915290205480610b6c5760405163574b16a760e11b815260040160405180910390fd5b6001600160a01b038516610ba957610b848282611bc7565b341015610ba45760405163574b16a760e11b815260040160405180910390fd5b610ceb565b6001600160a01b03851660009081526004602052604090205460ff1615610c47576001600160a01b0385166379cc679033610be48585611bc7565b6040516001600160e01b031960e085901b1681526001600160a01b0390921660048301526024820152604401600060405180830381600087803b158015610c2a57600080fd5b505af1158015610c3e573d6000803e3d6000fd5b50505050610ceb565b6001600160a01b0385166323b872dd3330610c628686611bc7565b6040516001600160e01b031960e086901b1681526001600160a01b0393841660048201529290911660248301526044820152606401602060405180830381600087803b158015610cb157600080fd5b505af1158015610cc5573d6000803e3d6000fd5b505050506040513d601f19601f82011682018060405250810190610ce99190611c19565b505b60025460405163731133e960e01b81526001600160a01b038681166004830152602482018690526044820185905260806064830152600060848301529091169063731133e99060a40161077e565b60008181526003602090815260408083208380529091528120546103d9565b7f850d585eb7f024ccee5e68e55f2c26cc72e1e6ee456acf62135757a5eb9d4a10610d838133610f0d565b506001600160a01b03919091166000908152600460205260409020805460ff1916911515919091179055565b600082815260208190526040902060010154610dcb8133610f0d565b6104058383610ff5565b60026001541415610df85760405162461bcd60e51b815260040161047690611b64565b60026001557f0914bb97ca83e85ef385857d9d418f187ff630589e0c9f44db92976d8e4519cb610e288133610f0d565b610e33848484611173565b5050600180555050565b7f850d585eb7f024ccee5e68e55f2c26cc72e1e6ee456acf62135757a5eb9d4a10610e688133610f0d565b82518451141580610e7b57508151835114155b15610e995760405163574b16a760e11b815260040160405180910390fd5b60005b8451811015610ad357610efb858281518110610eba57610eba611b9b565b6020026020010151858381518110610ed457610ed4611b9b565b6020026020010151858481518110610eee57610eee611b9b565b60200260200101516109fa565b80610f0581611bfe565b915050610e9c565b610f178282610ada565b61048957610f2f816001600160a01b031660146111c5565b610f3a8360206111c5565b604051602001610f4b929190611cd1565b60408051601f198184030181529082905262461bcd60e51b825261047691600401611d46565b610f7b8282610ada565b610489576000828152602081815260408083206001600160a01b03851684529091529020805460ff19166001179055610fb13390565b6001600160a01b0316816001600160a01b0316837f2f8788117e7eff1d82e926ec794901d17c78024a50270940304540a733656f0d60405160405180910390a45050565b610fff8282610ada565b15610489576000828152602081815260408083206001600160a01b0385168085529252808320805460ff1916905551339285917ff6391f5c32d9c69d2a47ea670b442974b53935d1edc7fd64eb21e047a839171b9190a45050565b804710156110aa5760405162461bcd60e51b815260206004820152601d60248201527f416464726573733a20696e73756666696369656e742062616c616e63650000006044820152606401610476565b6000826001600160a01b03168260405160006040518083038185875af1925050503d80600081146110f7576040519150601f19603f3d011682016040523d82523d6000602084013e6110fc565b606091505b50509050806104055760405162461bcd60e51b815260206004820152603a60248201527f416464726573733a20756e61626c6520746f2073656e642076616c75652c207260448201527f6563697069656e74206d617920686176652072657665727465640000000000006064820152608401610476565b604080516001600160a01b038416602482015260448082018490528251808303909101815260649091019091526020810180516001600160e01b031663a9059cbb60e01b179052610405908490611368565b606060006111d4836002611bc7565b6111df906002611be6565b67ffffffffffffffff8111156111f7576111f761163d565b6040519080825280601f01601f191660200182016040528015611221576020820181803683370190505b509050600360fc1b8160008151811061123c5761123c611b9b565b60200101906001600160f81b031916908160001a905350600f60fb1b8160018151811061126b5761126b611b9b565b60200101906001600160f81b031916908160001a905350600061128f846002611bc7565b61129a906001611be6565b90505b6001811115611312576f181899199a1a9b1b9c1cb0b131b232b360811b85600f16601081106112ce576112ce611b9b565b1a60f81b8282815181106112e4576112e4611b9b565b60200101906001600160f81b031916908160001a90535060049490941c9361130b81611d79565b905061129d565b5083156113615760405162461bcd60e51b815260206004820181905260248201527f537472696e67733a20686578206c656e67746820696e73756666696369656e746044820152606401610476565b9392505050565b60006113bd826040518060400160405280602081526020017f5361666545524332303a206c6f772d6c6576656c2063616c6c206661696c6564815250856001600160a01b031661143a9092919063ffffffff16565b80519091501561040557808060200190518101906113db9190611c19565b6104055760405162461bcd60e51b815260206004820152602a60248201527f5361666545524332303a204552433230206f7065726174696f6e20646964206e6044820152691bdd081cdd58d8d9595960b21b6064820152608401610476565b60606114498484600085611451565b949350505050565b6060824710156114b25760405162461bcd60e51b815260206004820152602660248201527f416464726573733a20696e73756666696369656e742062616c616e636520666f6044820152651c8818d85b1b60d21b6064820152608401610476565b843b6115005760405162461bcd60e51b815260206004820152601d60248201527f416464726573733a2063616c6c20746f206e6f6e2d636f6e74726163740000006044820152606401610476565b600080866001600160a01b0316858760405161151c9190611d90565b60006040518083038185875af1925050503d8060008114611559576040519150601f19603f3d011682016040523d82523d6000602084013e61155e565b606091505b509150915061156e828286611579565b979650505050505050565b60608315611588575081611361565b8251156115985782518084602001fd5b8160405162461bcd60e51b81526004016104769190611d46565b6000602082840312156115c457600080fd5b81356001600160e01b03198116811461136157600080fd5b6000602082840312156115ee57600080fd5b5035919050565b6001600160a01b038116811461160a57600080fd5b50565b6000806040838503121561162057600080fd5b823591506020830135611632816115f5565b809150509250929050565b634e487b7160e01b600052604160045260246000fd5b604051601f8201601f1916810167ffffffffffffffff8111828210171561167c5761167c61163d565b604052919050565b600067ffffffffffffffff82111561169e5761169e61163d565b5060051b60200190565b600082601f8301126116b957600080fd5b813560206116ce6116c983611684565b611653565b82815260059290921b840181019181810190868411156116ed57600080fd5b8286015b8481101561170857803583529183019183016116f1565b509695505050505050565b6000806000806080858703121561172957600080fd5b8435611734816115f5565b93506020850135611744816115f5565b9250604085013567ffffffffffffffff8082111561176157600080fd5b61176d888389016116a8565b9350606087013591508082111561178357600080fd5b50611790878288016116a8565b91505092959194509250565b6000602082840312156117ae57600080fd5b8135611361816115f5565b600082601f8301126117ca57600080fd5b813560206117da6116c983611684565b82815260059290921b840181019181810190868411156117f957600080fd5b8286015b84811015611708578035611810816115f5565b83529183019183016117fd565b6000806040838503121561183057600080fd5b82359150602083013567ffffffffffffffff81111561184e57600080fd5b61185a858286016117b9565b9150509250929050565b600081518084526020808501945080840160005b8381101561189457815187529582019590820190600101611878565b509495945050505050565b8381528260208201526060604082015260006118be6060830184611864565b95945050505050565b6000806000606084860312156118dc57600080fd5b83359250602084013567ffffffffffffffff808211156118fb57600080fd5b611907878388016117b9565b9350604086013591508082111561191d57600080fd5b5061192a868287016116a8565b9150509250925092565b6000806000806080858703121561194a57600080fd5b8435611955816115f5565b93506020850135611965816115f5565b93969395505050506040820135916060013590565b801515811461160a57600080fd5b6000806040838503121561199b57600080fd5b82356119a6816115f5565b915060208301356116328161197a565b6000806000606084860312156119cb57600080fd5b83356119d6816115f5565b925060208401356119e6816115f5565b929592945050506040919091013590565b600082601f830112611a0857600080fd5b81356020611a186116c983611684565b82815260059290921b84018101918181019086841115611a3757600080fd5b8286015b8481101561170857803567ffffffffffffffff811115611a5b5760008081fd5b611a698986838b01016116a8565b845250918301918301611a3b565b600080600060608486031215611a8c57600080fd5b833567ffffffffffffffff80821115611aa457600080fd5b611ab0878388016116a8565b9450602091508186013581811115611ac757600080fd5b8601601f81018813611ad857600080fd5b8035611ae66116c982611684565b81815260059190911b8201840190848101908a831115611b0557600080fd5b8584015b83811015611b3d57803586811115611b215760008081fd5b611b2f8d89838901016117b9565b845250918601918601611b09565b5096505050506040860135915080821115611b5757600080fd5b5061192a868287016119f7565b6020808252601f908201527f5265656e7472616e637947756172643a207265656e7472616e742063616c6c00604082015260600190565b634e487b7160e01b600052603260045260246000fd5b634e487b7160e01b600052601160045260246000fd5b6000816000190483118215151615611be157611be1611bb1565b500290565b60008219821115611bf957611bf9611bb1565b500190565b6000600019821415611c1257611c12611bb1565b5060010190565b600060208284031215611c2b57600080fd5b81516113618161197a565b6001600160a01b0384168152608060208201819052600090611c5a90830185611864565b8281036040840152611c6c8185611864565b8381036060909401939093525050600081526020019392505050565b600060208284031215611c9a57600080fd5b5051919050565b60005b83811015611cbc578181015183820152602001611ca4565b83811115611ccb576000848401525b50505050565b7f416363657373436f6e74726f6c3a206163636f756e7420000000000000000000815260008351611d09816017850160208801611ca1565b7001034b99036b4b9b9b4b733903937b6329607d1b6017918401918201528351611d3a816028840160208801611ca1565b01602801949350505050565b6020815260008251806020840152611d65816040850160208701611ca1565b601f01601f19169190910160400192915050565b600081611d8857611d88611bb1565b506000190190565b60008251611da2818460208701611ca1565b919091019291505056fea26469706673582212208a39cc59ca6d7517e73972d700728ea58a0b6531f34614e158320f867972cc4a64736f6c63430008090033",
  "linkReferences": {},
  "deployedLinkReferences": {}
}