{
  "_format": "hh-sol-artifact-1",
  "contractName": "CashCowsIndex",
  "sourceName": "contracts/phase2/CashCowsIndex.sol",
  "abi": [
    {
      "inputs": [
        {
          "internalType": "contract IERC721C",
          "name": "collection",
          "type": "address"
        },
        {
          "internalType": "address",
          "name": "owner",
          "type": "address"
        },
        {
          "internalType": "uint256",
          "name": "lastId",
          "type": "uint256"
        }
      ],
      "name": "ownerTokens",
      "outputs": [
        {
          "internalType": "uint256[]",
          "name": "",
          "type": "uint256[]"
        }
      ],
      "stateMutability": "view",
      "type": "function"
    }
  ],
  "bytecode": "0x608060405234801561001057600080fd5b506103c4806100206000396000f3fe608060405234801561001057600080fd5b506004361061002b5760003560e01c806352c0142914610030575b600080fd5b61004361003e36600461027e565b610059565b60405161005091906102bf565b60405180910390f35b6040516370a0823160e01b81526001600160a01b0383811660048301526060916000918616906370a082319060240160206040518083038186803b1580156100a057600080fd5b505afa1580156100b4573d6000803e3d6000fd5b505050506040513d601f19601f820116820180604052508101906100d89190610303565b9050806100f557505060408051600081526020810190915261025f565b60008167ffffffffffffffff8111156101105761011061031c565b604051908082528060200260200182016040528015610139578160200160208202803683370190505b509050600060015b858111610258576040516331a9108f60e11b8152600481018290526001600160a01b03891690636352211e9060240160206040518083038186803b15801561018857600080fd5b505afa9250505080156101b8575060408051601f3d908101601f191682019092526101b591810190610332565b60015b6101f2573d8080156101e6576040519150601f19603f3d011682016040523d82523d6000602084013e6101eb565b606091505b5050610246565b806001600160a01b0316886001600160a01b03161415610244578184846102188161034f565b95508151811061022a5761022a610378565b602002602001018181525050848314156102445750610258565b505b806102508161034f565b915050610141565b5090925050505b9392505050565b6001600160a01b038116811461027b57600080fd5b50565b60008060006060848603121561029357600080fd5b833561029e81610266565b925060208401356102ae81610266565b929592945050506040919091013590565b6020808252825182820181905260009190848201906040850190845b818110156102f7578351835292840192918401916001016102db565b50909695505050505050565b60006020828403121561031557600080fd5b5051919050565b634e487b7160e01b600052604160045260246000fd5b60006020828403121561034457600080fd5b815161025f81610266565b600060001982141561037157634e487b7160e01b600052601160045260246000fd5b5060010190565b634e487b7160e01b600052603260045260246000fdfea26469706673582212202c90e1488373e8996622bc07ad3bc17187db04c715ab15110f119d974b601d7864736f6c63430008090033",
  "linkReferences": {},
  "deployedLinkReferences": {}
}