{
  "_format": "hh-sol-artifact-1",
  "contractName": "CashCowsClubTreasury",
  "sourceName": "contracts/phase3/CashCowsClubTreasury.sol",
  "abi": [
    {
      "inputs": [
        {
          "internalType": "contract IERC721BurableSupply",
          "name": "collection",
          "type": "address"
        }
      ],
      "stateMutability": "payable",
      "type": "constructor"
    },
    {
      "inputs": [],
      "name": "InvalidCall",
      "type": "error"
    },
    {
      "anonymous": false,
      "inputs": [
        {
          "indexed": true,
          "internalType": "contract IERC20",
          "name": "token",
          "type": "address"
        },
        {
          "indexed": false,
          "internalType": "address",
          "name": "to",
          "type": "address"
        },
        {
          "indexed": false,
          "internalType": "uint256",
          "name": "amount",
          "type": "uint256"
        }
      ],
      "name": "ERC20PaymentReleased",
      "type": "event"
    },
    {
      "anonymous": false,
      "inputs": [
        {
          "indexed": false,
          "internalType": "address",
          "name": "from",
          "type": "address"
        },
        {
          "indexed": false,
          "internalType": "uint256",
          "name": "amount",
          "type": "uint256"
        }
      ],
      "name": "PaymentReceived",
      "type": "event"
    },
    {
      "anonymous": false,
      "inputs": [
        {
          "indexed": false,
          "internalType": "address",
          "name": "to",
          "type": "address"
        },
        {
          "indexed": false,
          "internalType": "uint256",
          "name": "amount",
          "type": "uint256"
        }
      ],
      "name": "PaymentReleased",
      "type": "event"
    },
    {
      "inputs": [],
      "name": "COLLECTION",
      "outputs": [
        {
          "internalType": "contract IERC721BurableSupply",
          "name": "",
          "type": "address"
        }
      ],
      "stateMutability": "view",
      "type": "function"
    },
    {
      "inputs": [
        {
          "internalType": "uint256",
          "name": "tokenId",
          "type": "uint256"
        }
      ],
      "name": "payee",
      "outputs": [
        {
          "internalType": "address",
          "name": "",
          "type": "address"
        }
      ],
      "stateMutability": "view",
      "type": "function"
    },
    {
      "inputs": [
        {
          "internalType": "contract IERC20",
          "name": "token",
          "type": "address"
        },
        {
          "internalType": "uint256",
          "name": "tokenId",
          "type": "uint256"
        }
      ],
      "name": "release",
      "outputs": [],
      "stateMutability": "nonpayable",
      "type": "function"
    },
    {
      "inputs": [
        {
          "internalType": "uint256",
          "name": "tokenId",
          "type": "uint256"
        }
      ],
      "name": "release",
      "outputs": [],
      "stateMutability": "nonpayable",
      "type": "function"
    },
    {
      "inputs": [
        {
          "internalType": "uint256[]",
          "name": "tokenIds",
          "type": "uint256[]"
        }
      ],
      "name": "releaseBatch",
      "outputs": [],
      "stateMutability": "nonpayable",
      "type": "function"
    },
    {
      "inputs": [
        {
          "internalType": "contract IERC20",
          "name": "token",
          "type": "address"
        },
        {
          "internalType": "uint256[]",
          "name": "tokenIds",
          "type": "uint256[]"
        }
      ],
      "name": "releaseBatch",
      "outputs": [],
      "stateMutability": "nonpayable",
      "type": "function"
    },
    {
      "inputs": [
        {
          "internalType": "contract IERC20",
          "name": "token",
          "type": "address"
        },
        {
          "internalType": "uint256[]",
          "name": "tokenIds",
          "type": "uint256[]"
        }
      ],
      "name": "releaseable",
      "outputs": [
        {
          "internalType": "uint256",
          "name": "totalReleaseable",
          "type": "uint256"
        }
      ],
      "stateMutability": "view",
      "type": "function"
    },
    {
      "inputs": [
        {
          "internalType": "uint256",
          "name": "",
          "type": "uint256"
        }
      ],
      "name": "releaseable",
      "outputs": [
        {
          "internalType": "uint256",
          "name": "",
          "type": "uint256"
        }
      ],
      "stateMutability": "view",
      "type": "function"
    },
    {
      "inputs": [
        {
          "internalType": "contract IERC20",
          "name": "token",
          "type": "address"
        },
        {
          "internalType": "uint256",
          "name": "tokenId",
          "type": "uint256"
        }
      ],
      "name": "releaseable",
      "outputs": [
        {
          "internalType": "uint256",
          "name": "",
          "type": "uint256"
        }
      ],
      "stateMutability": "view",
      "type": "function"
    },
    {
      "inputs": [
        {
          "internalType": "contract IERC20",
          "name": "token",
          "type": "address"
        },
        {
          "internalType": "uint256",
          "name": "tokenId",
          "type": "uint256"
        }
      ],
      "name": "released",
      "outputs": [
        {
          "internalType": "uint256",
          "name": "",
          "type": "uint256"
        }
      ],
      "stateMutability": "view",
      "type": "function"
    },
    {
      "inputs": [],
      "name": "shares",
      "outputs": [
        {
          "internalType": "uint256",
          "name": "",
          "type": "uint256"
        }
      ],
      "stateMutability": "view",
      "type": "function"
    },
    {
      "inputs": [
        {
          "internalType": "address",
          "name": "account",
          "type": "address"
        }
      ],
      "name": "shares",
      "outputs": [
        {
          "internalType": "uint256",
          "name": "",
          "type": "uint256"
        }
      ],
      "stateMutability": "view",
      "type": "function"
    },
    {
      "inputs": [
        {
          "internalType": "contract IERC20",
          "name": "token",
          "type": "address"
        }
      ],
      "name": "totalReleased",
      "outputs": [
        {
          "internalType": "uint256",
          "name": "",
          "type": "uint256"
        }
      ],
      "stateMutability": "view",
      "type": "function"
    },
    {
      "inputs": [],
      "name": "totalReleased",
      "outputs": [
        {
          "internalType": "uint256",
          "name": "",
          "type": "uint256"
        }
      ],
      "stateMutability": "view",
      "type": "function"
    },
    {
      "stateMutability": "payable",
      "type": "receive"
    }
  ],
  "bytecode": "0x60a06040526040516115e63803806115e683398101604081905261002291610038565b60016000556001600160a01b0316608052610068565b60006020828403121561004a57600080fd5b81516001600160a01b038116811461006157600080fd5b9392505050565b6080516115326100b46000396000818161020b01528181610357015281816105ce015281816106d80152818161088f01528181610a0301528181610c1c0152610cc001526115326000f3fe6080604052600436106100e15760003560e01c80636e8790e61161007f578063ce7c2ac211610059578063ce7c2ac2146102a5578063cfe83070146102c5578063d79779b214610308578063e33b7de31461033e57600080fd5b80636e8790e6146102455780637d237eac146102655780638b83209b1461028557600080fd5b80631e1ee128116100bb5780631e1ee1281461019957806337bdc99b146101b95780636582f4fa146101d9578063697b2365146101f957600080fd5b806303314efa1461012f5780630357371d14610157578063116a0ad81461017957600080fd5b3661012a577f6ef95f06320e7a25a04a175ca677b7052bdd97131872c2192525a629f51be77033604080516001600160a01b0390921682523460208301520160405180910390a1005b600080fd5b34801561013b57600080fd5b50610144610353565b6040519081526020015b60405180910390f35b34801561016357600080fd5b50610177610172366004611154565b6103eb565b005b34801561018557600080fd5b50610144610194366004611226565b610540565b3480156101a557600080fd5b506101776101b4366004611276565b610595565b3480156101c557600080fd5b506101776101d43660046112ab565b6107d9565b3480156101e557600080fd5b506101446101f43660046112ab565b6108fd565b34801561020557600080fd5b5061022d7f000000000000000000000000000000000000000000000000000000000000000081565b6040516001600160a01b03909116815260200161014e565b34801561025157600080fd5b50610144610260366004611154565b610913565b34801561027157600080fd5b50610177610280366004611226565b6109ca565b34801561029157600080fd5b5061022d6102a03660046112ab565b610c03565b3480156102b157600080fd5b506101446102c03660046112c4565b610c9e565b3480156102d157600080fd5b506101446102e0366004611154565b6001600160a01b03919091166000908152600360209081526040808320938352929052205490565b34801561031457600080fd5b506101446103233660046112c4565b6001600160a01b031660009081526002602052604090205490565b34801561034a57600080fd5b50600154610144565b60007f00000000000000000000000000000000000000000000000000000000000000006001600160a01b03166318160ddd6040518163ffffffff1660e01b815260040160206040518083038186803b1580156103ae57600080fd5b505afa1580156103c2573d6000803e3d6000fd5b505050506040513d601f19601f820116820180604052508101906103e691906112e1565b905090565b600260005414156104175760405162461bcd60e51b815260040161040e906112fa565b60405180910390fd5b6002600090815561042782610c03565b90506001600160a01b03811633146104525760405163574b16a760e11b815260040160405180910390fd5b600061045e8484610913565b90508061047e5760405163574b16a760e11b815260040160405180910390fd5b6001600160a01b0384166000908152600360209081526040808320868452909152812080548392906104b1908490611347565b90915550506001600160a01b038416600090815260026020526040812080548392906104de908490611347565b909155506104ef9050848383610d3c565b604080516001600160a01b038481168252602082018490528616917f3be5b7a71e84ed12875d241991c70855ac5817d847039e17a9d895c1ceb0f18a910160405180910390a2505060016000555050565b6000805b825181101561058e57610570848483815181106105635761056361135f565b6020026020010151610913565b61057a9083611347565b91508061058681611375565b915050610544565b5092915050565b600260005414156105b85760405162461bcd60e51b815260040161040e906112fa565b600260005560405163ad94d90160e01b815233907f00000000000000000000000000000000000000000000000000000000000000006001600160a01b03169063ad94d9019061060d9084908690600401611390565b60206040518083038186803b15801561062557600080fd5b505afa158015610639573d6000803e3d6000fd5b505050506040513d601f19601f8201168201806040525081019061065d91906113e6565b61067a5760405163574b16a760e11b815260040160405180910390fd5b6000825161068860016108fd565b6106929190611408565b9050806106b25760405163574b16a760e11b815260040160405180910390fd5b80600160008282546106c49190611347565b90915550600090505b8351811015610782577f00000000000000000000000000000000000000000000000000000000000000006001600160a01b03166342966c688583815181106107175761071761135f565b60200260200101516040518263ffffffff1660e01b815260040161073d91815260200190565b600060405180830381600087803b15801561075757600080fd5b505af115801561076b573d6000803e3d6000fd5b50505050808061077a90611375565b9150506106cd565b5061078d8282610d93565b604080516001600160a01b0384168152602081018390527fdf20fd1e76bc69d672e4814fafb2c449bba3a5369d8359adf9e05e6fde87b056910160405180910390a15050600160005550565b600260005414156107fc5760405162461bcd60e51b815260040161040e906112fa565b6002600090815561080c82610c03565b90506001600160a01b03811633146108375760405163574b16a760e11b815260040160405180910390fd5b6000610842836108fd565b9050806108625760405163574b16a760e11b815260040160405180910390fd5b80600160008282546108749190611347565b9091555050604051630852cd8d60e31b8152600481018490527f00000000000000000000000000000000000000000000000000000000000000006001600160a01b0316906342966c6890602401600060405180830381600087803b1580156108db57600080fd5b505af11580156108ef573d6000803e3d6000fd5b5050505061078d8282610d93565b600061090d476001546000610eac565b92915050565b6040516370a0823160e01b81523060048201526000906109c3906001600160a01b038516906370a082319060240160206040518083038186803b15801561095957600080fd5b505afa15801561096d573d6000803e3d6000fd5b505050506040513d601f19601f8201168201806040525081019061099191906112e1565b6001600160a01b0385166000908152600260209081526040808320546003835281842088855290925290912054610eac565b9392505050565b600260005414156109ed5760405162461bcd60e51b815260040161040e906112fa565b600260005560405163ad94d90160e01b815233907f00000000000000000000000000000000000000000000000000000000000000006001600160a01b03169063ad94d90190610a429084908690600401611390565b60206040518083038186803b158015610a5a57600080fd5b505afa158015610a6e573d6000803e3d6000fd5b505050506040513d601f19601f82011682018060405250810190610a9291906113e6565b610aaf5760405163574b16a760e11b815260040160405180910390fd5b60008060005b8451811015610b5957610ad4868683815181106105635761056361135f565b925082610ae057610b47565b6001600160a01b03861660009081526003602052604081208651859290889085908110610b0f57610b0f61135f565b602002602001015181526020019081526020016000206000828254610b349190611347565b90915550610b4490508383611347565b91505b80610b5181611375565b915050610ab5565b5080610b785760405163574b16a760e11b815260040160405180910390fd5b6001600160a01b03851660009081526002602052604081208054839290610ba0908490611347565b90915550610bb19050858483610d3c565b604080516001600160a01b038581168252602082018590528716917f3be5b7a71e84ed12875d241991c70855ac5817d847039e17a9d895c1ceb0f18a910160405180910390a250506001600055505050565b6040516331a9108f60e11b8152600481018290526000907f00000000000000000000000000000000000000000000000000000000000000006001600160a01b031690636352211e9060240160206040518083038186803b158015610c6657600080fd5b505afa158015610c7a573d6000803e3d6000fd5b505050506040513d601f19601f8201168201806040525081019061090d9190611427565b6040516370a0823160e01b81526001600160a01b0382811660048301526000917f0000000000000000000000000000000000000000000000000000000000000000909116906370a082319060240160206040518083038186803b158015610d0457600080fd5b505afa158015610d18573d6000803e3d6000fd5b505050506040513d601f19601f8201168201806040525081019061090d91906112e1565b604080516001600160a01b038416602482015260448082018490528251808303909101815260649091019091526020810180516001600160e01b031663a9059cbb60e01b179052610d8e908490610ef2565b505050565b80471015610de35760405162461bcd60e51b815260206004820152601d60248201527f416464726573733a20696e73756666696369656e742062616c616e6365000000604482015260640161040e565b6000826001600160a01b03168260405160006040518083038185875af1925050503d8060008114610e30576040519150601f19603f3d011682016040523d82523d6000602084013e610e35565b606091505b5050905080610d8e5760405162461bcd60e51b815260206004820152603a60248201527f416464726573733a20756e61626c6520746f2073656e642076616c75652c207260448201527f6563697069656e74206d61792068617665207265766572746564000000000000606482015260840161040e565b600080610eb7610353565b610ec18587611347565b610ecb9190611444565b905082811015610edf5760009150506109c3565b610ee98382611466565b95945050505050565b6000610f47826040518060400160405280602081526020017f5361666545524332303a206c6f772d6c6576656c2063616c6c206661696c6564815250856001600160a01b0316610fc49092919063ffffffff16565b805190915015610d8e5780806020019051810190610f6591906113e6565b610d8e5760405162461bcd60e51b815260206004820152602a60248201527f5361666545524332303a204552433230206f7065726174696f6e20646964206e6044820152691bdd081cdd58d8d9595960b21b606482015260840161040e565b6060610fd38484600085610fdb565b949350505050565b60608247101561103c5760405162461bcd60e51b815260206004820152602660248201527f416464726573733a20696e73756666696369656e742062616c616e636520666f6044820152651c8818d85b1b60d21b606482015260840161040e565b843b61108a5760405162461bcd60e51b815260206004820152601d60248201527f416464726573733a2063616c6c20746f206e6f6e2d636f6e7472616374000000604482015260640161040e565b600080866001600160a01b031685876040516110a691906114ad565b60006040518083038185875af1925050503d80600081146110e3576040519150601f19603f3d011682016040523d82523d6000602084013e6110e8565b606091505b50915091506110f8828286611103565b979650505050505050565b606083156111125750816109c3565b8251156111225782518084602001fd5b8160405162461bcd60e51b815260040161040e91906114c9565b6001600160a01b038116811461115157600080fd5b50565b6000806040838503121561116757600080fd5b82356111728161113c565b946020939093013593505050565b634e487b7160e01b600052604160045260246000fd5b600082601f8301126111a757600080fd5b8135602067ffffffffffffffff808311156111c4576111c4611180565b8260051b604051601f19603f830116810181811084821117156111e9576111e9611180565b60405293845285810183019383810192508785111561120757600080fd5b83870191505b848210156110f85781358352918301919083019061120d565b6000806040838503121561123957600080fd5b82356112448161113c565b9150602083013567ffffffffffffffff81111561126057600080fd5b61126c85828601611196565b9150509250929050565b60006020828403121561128857600080fd5b813567ffffffffffffffff81111561129f57600080fd5b610fd384828501611196565b6000602082840312156112bd57600080fd5b5035919050565b6000602082840312156112d657600080fd5b81356109c38161113c565b6000602082840312156112f357600080fd5b5051919050565b6020808252601f908201527f5265656e7472616e637947756172643a207265656e7472616e742063616c6c00604082015260600190565b634e487b7160e01b600052601160045260246000fd5b6000821982111561135a5761135a611331565b500190565b634e487b7160e01b600052603260045260246000fd5b600060001982141561138957611389611331565b5060010190565b6001600160a01b038316815260406020808301829052835191830182905260009184820191906060850190845b818110156113d9578451835293830193918301916001016113bd565b5090979650505050505050565b6000602082840312156113f857600080fd5b815180151581146109c357600080fd5b600081600019048311821515161561142257611422611331565b500290565b60006020828403121561143957600080fd5b81516109c38161113c565b60008261146157634e487b7160e01b600052601260045260246000fd5b500490565b60008282101561147857611478611331565b500390565b60005b83811015611498578181015183820152602001611480565b838111156114a7576000848401525b50505050565b600082516114bf81846020870161147d565b9190910192915050565b60208152600082518060208401526114e881604085016020870161147d565b601f01601f1916919091016040019291505056fea264697066735822122066de6d54b75bcd4daa928dc097847cf8f51d42ec8bc71bf379fbe0e684c7cb7b64736f6c63430008090033",
  "linkReferences": {},
  "deployedLinkReferences": {}
}